:10000000ADC50000DCC50000DAC50000D8C50000A1
:10001000D6C50000D4C50000D2C50000D0C5000080
:10002000CEC500000C94AF170C94AF170C94AF170B
:10003000C6C50000C4C50000C2C50000C0C50000A0
:10004000BEC50000BCC50000BAC50000B8C50000B0
:10005000B6C50000B4C50000B2C500000C9417215D
:10006000AEC500000C94581A0C942F1AA8C50000B5
:10007000A6C50000A4C50000A2C50000A0C50000E0
:100080009EC500009CC500009AC5000098C50000F0
:1000900096C5000094C5000092C500000C94E917B5
:1000A0008EC500008CC500008AC5000088C5000010
:1000B00086C5000084C5000082C5000080C5000020
:1000C0007EC500007CC500007AC5000078C5000030
:1000D00076C5000074C5000072C5000070C5000040
:1000E0006EC500008520882077207B207F20BF20E0
:1000F0008C20902096209A209E20A420A820AC201E
:10010000BF20B220B620BA20496D61676520636FB9
:10011000756E7465722066696C65206E6F742066FA
:100120006F756E640046696C65206E616D65206751
:10013000656E6572617465643A2000496D6167653A
:1001400020636F756E7465722066696C6520666FDA
:10015000756E64004F70656E696E6720696D67200B
:10016000636F756E7465722066696C652E205241EE
:100170004D3A005265636F726420766964656F2042
:100180004F4B2E004475726174696F6E0053697A2B
:1001900065207072696E74696E6700577269746960
:1001A0006E67206D6461742073697A6520617420C4
:1001B000706F736974696F6E3A004D6973004D001A
:1001C0005265636F7264696E6720766964656F2C2F
:1001D00020706C6561736520776169742E2E2E0026
:1001E0000000000000001800660074007900700034
:1001F0006D007000340032000000000000000000BC
:100200006D00700034003100690073006F006D00F4
:10021000566964656F2046696C65206F70656E2055
:100220006661696C6564005A35005A34005A3300BF
:100230005A32005A31004E6F773A00E0001400E164
:10024000007700E5001F00D7000300DA001000E08F
:10025000000000FF00010004000800FF00FF00FF95
:1002600000000005000000DA001000D7000300DFE6
:10027000000000330080003C004000E100770000F7
:10028000000000FF00FF00FF0000002C00FF002E18
:1002900000DF00FF0001003C0032001100000009F7
:1002A000000200040028001300E500140048002CA0
:1002B000000C00330078003A0033003B00FB003EA6
:1002C00000000043001100160010003900920035B4
:1002D00000DA0022001A003700C3002300000034B7
:1002E00000C00036001A00060088000700C0000D9C
:1002F0000087000E0041004C000000480000005B39
:10030000000000420003004A0081002100990024FF
:1003100000400025003800260082005C00000063D9
:1003200000000061007000620080007C0005002079
:10033000008000280030006C0000006D0080006E1E
:1003400000000070000200710094007300C10012F0
:100350000040001700110018004300190000001AA7
:10036000004B00320009003700C0004F0060005011
:1003700000A8006D0000003D00380046003F004F1F
:100380000060000C003C00FF000000E5007F00F969
:1003900000C00041002400E00014007600FF00339C
:1003A00000A00042002000430018004C000000871D
:1003B00000D50088003F00D7000300D9001000D30B
:1003C000008200C8000800C90080007C0000007D99
:1003D0000000007C0003007D0048007D0048007C98
:1003E0000008007D0020007D0010007D000E0090C0
:1003F00000000091000E0091001A00910031009160
:10040000005A00910069009100750091007E0091F2
:1004100000880091008F00910096009100A3009148
:1004200000AF009100C4009100D7009100E8009156
:1004300000200092000000930006009300E3009368
:100440000005009300050093000000930004009352
:100450000000009300000093000000930000009350
:100460000000009300000093000000960000009739
:10047000000800970019009700020097000C0097F1
:10048000002400970030009700280097002600976E
:1004900000020097009800970080009700000097E6
:1004A000000000C300ED00A4000000A8000000C58B
:1004B000001100C6005100BF008000C7001000B648
:1004C000006600B800A500B7006400B9007C00B366
:1004D00000AF00B4009700B500FF00B000C500B148
:1004E000009400B2000F00C4005C00C0006400C1B2
:1004F000004B008C00000086003D005000000051C1
:1005000000C800520096005300000054000000553F
:100510000000005A00C8005B0096005C000000D399
:10052000000000C300ED007F000000DA000000E5DD
:10053000001F00E1006700E0000000DD007F000513
:1005400000000012004000D3000400C0001600C1EB
:100550000012008C00000086003D00500000005199
:10056000002C0052002400530000005400000055ED
:100570000000005A002C005B0024005C000000FF1B
:1005800000FF00FF0000002C00FF002E00DF00FF36
:100590000001003C003200110000000900020004CC
:1005A00000A8001300E500140048002C000C0033E4
:1005B0000078003A0033003B00FB003E000000439F
:1005C00000110016001000390002003500880022DA
:1005D000000A0037004000230000003400A000069D
:1005E000000200060088000700C0000D00B7000EE2
:1005F0000001004C0000004A008100210099002405
:1006000000400025003800260082005C00000063E6
:10061000000000460022000C003A005D0055005E1C
:10062000007D005F007D0060005500610070006289
:100630000080007C00050020008000280030006C55
:100640000000006D0080006E00000070000200716C
:100650000094007300C1003D003400120004005AF1
:100660000057004F00BB0050009C00FF000000E559
:10067000007F00F900C00041002400E00014007673
:1006800000FF003300A00042002000430018004C8F
:100690000000008700D00088003F00D7000300D989
:1006A000001000D3008200C8000800C90080007C50
:1006B0000000007D0000007C0003007D0048007DFC
:1006C0000048007C0008007D0020007D0010007DB7
:1006D000000E009000000091000E0091001A0091A1
:1006E00000310091005A009100690091007500915D
:1006F000007E009100880091008F0091009600918B
:1007000000A3009100AF009100C4009100D70091B8
:1007100000E8009100200092000000930006009382
:1007200000E3009300030093000300930000009394
:10073000000200930000009300000093000000936B
:10074000000000930000009300000093000000965A
:10075000000000970008009700190097000200971A
:10076000000C0097002400970030009700280097A5
:1007700000260097000200970098009700800097DD
:1007800000000097000000A4000000A8000000C5C1
:10079000001100C6005100BF008000C7001000B665
:1007A000006600B800A500B7006400B9007C00B383
:1007B00000AF00B4009700B500FF00B000C500B165
:1007C000009400B2000F00C4005C00A6000000A767
:1007D000002000A700D800A7001B00A7003100A739
:1007E000000000A7001800A7002000A700D800A75D
:1007F000001900A7003100A7000000A7001800A7FB
:10080000002000A700D800A7001900A7003100A70A
:10081000000000A70018007F000000E5001F00E1B5
:10082000007700DD007F00C2000E00FF000000E046
:10083000000400C000C800C100960086003D0051C1
:1008400000900052002C005300000054000000559E
:1008500000880057000000500092005A0050005BD2
:10086000003C005C000000D3000400E0000000FF3A
:1008700000000005000000DA000800D7000300E0D7
:1008800000000005000000FF00FF00FF0001001253
:100890000040001700110018004300190000001A62
:1008A000004B00320009004F00CA005000A8005A57
:1008B0000023006D000000390012003500DA00222C
:1008C000001A003700C300230000003400C00036C7
:1008D000001A00060088000700C0000D0087000E07
:1008E0000041004C000000FF000000E0000400C0D8
:1008F000006400C1004B00860035005000890051A3
:1009000000C800520096005300000054000000553B
:10091000000000570000005A0050005B003C005CE3
:10092000000000E0000000FF00FF0041434B2043B7
:100930004D44204F563236343020646574656374FC
:1009400065642E0041434B20434D442043616E2794
:10095000742066696E64204F5632363430206D6FD5
:1009600064756C65210041434B20434D4420535036
:100970004920696E74657266616365204F4B2E0075
:1009800041434B20434D442053504920696E7465C8
:100990007266616365204572726F722100496D61F4
:1009A000676520636F756E7465722066696C65207B
:1009B0006F70656E206661696C65640053746F7258
:1009C00065642076616C75653A00534420496E6910
:1009D0007469616C697A6174696F6E20636F6D70A0
:1009E0006C65746500534420496E697469616C6973
:1009F0007A6174696F6E206661696C656400496E26
:100A0000697469616C697A696E6720534420636117
:100A100072640041434B20434D442041726475434E
:100A2000414D2053746172742100537461727420BB
:100A300053657269616C2061742031313532303018
:100A40000000002100240027002A002D0030003380
:100A50000001010000040107010A01010210202029
:100A60000808102040102040800201020108040202
:100A70000101020408102040808040201008040278
:100A800001800402018040201008040201080402D1
:100A900001010204081020408001020408102040D7
:100AA0008000002200250028002B002E0031003499
:100AB0000002010000050108010B010505050507FD
:100AC0000508080808020202020A0A0808040404C9
:100AD00004010101010101010103030303030303F5
:100AE00003040707070C0C0C0C0C0C0C0C02020284
:100AF0000206060606060606060B0B0B0B0B0B0B77
:100B00000B7C3C3E5E2B3D3F2F5B5D3B2C2A225CE9
:100B10000000000A0B02090C0D0E08070304010077
:100B200000000000000000000000000000000000C5
:100B30000000000000000000000000000012111082
:100B400000000000000000000000000000000000A5
:100B500000000000000000005D2C0E2911241FBEC3
:100B6000CFEFD1E2DEBFCDBF00E00CBF13E0A0E0CD
:100B7000B2E0E4EFFFE500E00BBF02C007900D928A
:100B8000AC30B107D9F727E0ACE0B3E001C01D926B
:100B9000AF33B207E1F715E0CDEAD5E000E006C0DB
:100BA00021970109802FFE010E94C22ECC3AD10765
:100BB00080E00807A9F70E9413290C94E92F20CAA6
:100BC000CF93DF93EC01FB01828193819B838A8326
:100BD00084819581A681B7818C839D83AE83BF83F9
:100BE00080859185A285B38588879987AA87BB87E9
:100BF00084E192E0998388838DE03C96DE011C9627
:100C000001900D928A95E1F7FB01818D928D9A8F6B
:100C1000898FDF91CF910895089580E090E0089545
:100C20008EBD00000DB407FEFDCF8EB50895DC012A
:100C3000ED91FC910280F381E02D1994CF93DF9325
:100C4000EC0141E050E06CE072E0F1DF61E0CE01E8
:100C50000E94EA1142E050E06CE072E0CE01E7DF72
:100C600044E050E06CE072E0CE01E1DF44E050E0AF
:100C70006CE072E0CE01DBDF44E050E06CE072E05B
:100C8000CE01D5DF41E050E06CE072E0CE01CFDF75
:100C900061E0CE010E94EA1142E050E06CE072E0B7
:100CA000CE01C5DF44E050E06CE072E0CE01BFDF72
:100CB00044E050E06CE072E0CE01B9DF44E050E087
:100CC0006CE072E0CE01B3DF60E4CE010E94EA1175
:100CD00043E050E06CE072E0CE01DF91CF91A7CF0E
:100CE0008F929F92AF92BF92CF92DF92EF92FF923C
:100CF000CF93DF934B015C01EA0144E050E06CE0EC
:100D000072E0CE0194DFC501B4010E940F1FCE0135
:100D10000E94F115AB01BC014150510961097109F3
:100D2000CE010E943116682DCE010E94EA11FF24E7
:100D3000EB2CDA2CC92C019721F083E392E00E947E
:100D4000D01CCE010E94F115AB01BC0142505109EB
:100D500061097109CE010E9431166C2DCE010E94ED
:100D6000EA11CD2CDE2CEF2CFF24019721F080E33B
:100D700092E00E94D01CCE010E94F115AB01BC0193
:100D80004250510961097109CE010E9431166C2D42
:100D9000CE010E94EA11CD2CDE2CEF2CFF2401970E
:100DA00021F08DE292E00E94D01CCE010E94F1154C
:100DB000AB01BC014250510961097109CE010E9489
:100DC00031166C2DCE010E94EA11019721F08AE2C2
:100DD00092E00E94D01CCE010E94F115AB01BC0133
:100DE0004E5F5F4F6F4F7F4FCE010E943116682DCF
:100DF000CE010E94EA11019771F087E292E0DF9143
:100E0000CF91FF90EF90DF90CF90BF90AF909F90E9
:100E10008F900C94D01CDF91CF91FF90EF90DF90DA
:100E2000CF90BF90AF909F908F900895CF92DF9218
:100E3000EF92FF920F931F93CF93DF93CDB7DEB75F
:100E40006B970FB6F894DEBF0FBECDBF8C0186E363
:100E500092E00E94D01C0E9461210E940F1F0E94FC
:100E600061216B017C0120E8C21A2FE4D20A2AED2D
:100E7000E20A23E8F20AC0921203D0921303E0922E
:100E80001403F0921503B801CE01019699DEAE016C
:100E90004F5F5F4FC701B60123DF6B960FB6F89423
:100EA000DEBF0FBECDBFDF91CF911F910F91FF909D
:100EB000EF90DF90CF9008956115710579F0FB01F7
:100EC00001900020E9F73197AF01461B570BDC0179
:100ED000ED91FC910280F381E02D199480E090E087
:100EE00008952F923F924F925F926F927F928F92CE
:100EF0009F92AF92BF92CF92DF92EF92FF920F93A9
:100F00001F93CF93DF93CDB7DEB7C858D1400FB64C
:100F1000F894DEBF0FBECDBFC15CDE4F19821882D0
:100F2000CF53D14088EE93E0A0E0B0E0CF5BDE4F3E
:100F300088839983AA83BB83C154D14084E192E022
:100F4000C35CDE4F99838883CD53D140CA5ADE4FAC
:100F500019821882C655D140C75BDE4F1882C9542A
:100F6000D14080910002909101020196909301027C
:100F70008093000284E591E00E94D01C80913B07A1
:100F800090913C078E010F5F1F4F009721F4C8011D
:100F90008F53974004C09801281B390BC9019A83CD
:100FA000898369817A8184ED95E00E94D61E86E16D
:100FB00097E00E94691D609116077091170742E53E
:100FC000C8010E94321B609100027091010284ED01
:100FD00095E00E94D61EEA8DFB8D309709F4D0C0B3
:100FE0008581882309F4CCC08BE391E00E94D01C5A
:100FF0006091000270910102C8010E94D61EC801D2
:101000000E94DF1585E291E00E94D01C60E772E04B
:10101000CE018D589E4F0E947B1F809100029091BF
:101020000102C85ADE4F19821882C855D140C65AEB
:10103000DE4F19821882CA55D140C45ADE4F198238
:101040001882CC55D1407E0131E0E30EF31E4AE018
:10105000B7010E943F2EF70101900020E9F7319778
:10106000AF014E195F09B701CE01885A9E4F0E9409
:101070005C1FC958DE4F88819981C757D140CD5830
:10108000DE4FA880B980C357D140C45ADE4FC88014
:10109000D980CC55D140A114B10411F40C94E011C5
:1010A000009719F1C80ED91EB601CE01885A9E4F7D
:1010B0000E94231F882311F40C94E011C85ADE4FBC
:1010C00028813981C855D140C45ADE4F8881998121
:1010D000CC55D140B501820F931F0E94D32FC45A23
:1010E000DE4FD982C882CC55D140D70111961C92CF
:1010F0001E9213961C921E92129715961C921E9287
:101100001497C85ADE4F68817981C855D14061155E
:10111000710549F0C45ADE4F48815981CC55D14000
:10112000C7010E945C1FC85ADE4F88819981C8554B
:10113000D1400E94812DC7010E94691DF701808165
:101140009181C758DE4F99838883C957D1408281E6
:101150009381C558DE4F99838883CB57D1408481D2
:101160009581C358DE4F99838883CD57D140CD58A0
:10117000DE4F88819981C357D1400E94812D0BC0D9
:1011800088E091E00E94D01C6CEF72E0CE0187589D
:101190009E4F0E947B1F0E9461212B013C01C7587A
:1011A000DE4F68817981C957D14042E5C8010E946C
:1011B000321B8B819C81C15CDE4F99838883CF5326
:1011C000D1408D819E81AF81B885CF5BDE4F888312
:1011D0009983AA83BB83C154D14089859A85AB8505
:1011E000BC85CB5BDE4F88839983AA83BB83C554C0
:1011F000D1408DE0FE013D96ADE3B1E0AC0FBD1FE7
:101200001C9601900D928A95E1F7EA8DFB8DCA5AE2
:10121000DE4FF983E883C655D140309719F08581B8
:10122000811105C080E192E00E94D01CFFCF20E038
:1012300030E080E090E0F901E052FE4FE491D80107
:10124000A80FB91FEC9301962E5F3F4F883191058F
:1012500091F7909311038093100348E150E0B80197
:10126000CE01835C9E4F0E94C31244E050E06CE0CC
:1012700072E0CE01835C9E4FDADC65E772E0CE015E
:10128000835C9E4F19DE80EC91E00E94D01C1E0111
:10129000F1E02F0E3F1E9101245C3F4FCB57DE4FF4
:1012A00039832883C558D1404101A12C61E070E009
:1012B00084E890E00E94361C61E070E084E890E0F1
:1012C0000E94361C62E070E084E890E00E94361CC8
:1012D00081E490E00E94501D83FFFACF82E490E009
:1012E0000E94501DC82E83E490E00E94501DB82E2D
:1012F00084E490E00E94501DD12CE12CF12CDB28DD
:101300008F77E82A109211031092100310920C03A9
:1013100010920D0310920E0310920F03E09110072C
:10132000F091110790818091120780958923808325
:101330008CE376DC90E0E1E0CE1AD108E108F10818
:10134000FFEFCF16DF06EF06FF0609F416C180E0B7
:10135000C957DE4F9883C758D14062DCB82EC957B1
:10136000DE4F9881C758D14039ED831370C09F3F3D
:1013700011F00C94E7118091100390911103AC01CE
:101380004F5F5F4F5093110340931003F801E80F34
:10139000F91FB082E0911007F091110790818091C0
:1013A0001207892B8083B801CE01835C9E4F0E9477
:1013B000C3129C01809110039091110328173907E3
:1013C00029F18EEB91E0C957DE4F2883C758D140F1
:1013D000C857DE4F3883C858D1400E94D01C609156
:1013E00010037091110384ED95E00E94D61EC95739
:1013F000DE4F2881C758D140C857DE4F3881C858C2
:10140000D140B90184ED95E00E94D61E8091100371
:1014100090911103092E000CAA0BBB0B40910C03F9
:1014200050910D0360910E0370910F03840F951F6F
:10143000A61FB71F80930C0390930D03A0930E0378
:10144000B0930F03109211031092100378C0AA20DA
:1014500009F470C080911003909111038F3F9105A2
:1014600009F064F49C012F5F3F4F309311032093E8
:101470001003F801E80FF91FB0827BC0E09110075C
:10148000F0911107908180911207892B808340E0B1
:1014900051E0B801CE01835C9E4F0E94C312BC0193
:1014A000809110039091110368177907E1F08AEB9E
:1014B00091E0C957DE4F6883C758D140C857DE4F07
:1014C0007883C858D1400E94D01CC957DE4F68812C
:1014D000C758D140C857DE4F7881C858D14084EDF5
:1014E00095E00E94D61E41E050E0509311034093D6
:1014F0001003B982E0911007F0911107908180915B
:1015000012078095892380838CE38ADB80910C030A
:1015100090910D03A0910E03B0910F039F5FAF4F09
:10152000BF4F80930C0390930D03A0930E03B093D1
:101530000F031FC058ED851302C09F3F11F0A12C6F
:101540001AC08091100390911103F801E80FF91F60
:10155000AFEFA0839C012E5F3F4F30931103209388
:101560001003E2E0F0E0EC0FFD1FE80FF91FB8ED0B
:10157000B083AA24A3949B2DDECE80910C0390917E
:101580000D03A0910E03B0910F03482F41954370B6
:10159000840F911DA11DB11D80930C0390930D0329
:1015A000A0930E03B0930F03C0906203D090630327
:1015B000E0906403F09065038C0D9D1DAE1DBF1D72
:1015C0008093620390936303A0936403B0936503D5
:1015D000442339F050E06CE072E0CE01835C9E4F12
:1015E00026DB80910C0390910D03D4018D939D9384
:1015F0004D01CB57DE4FE881F981C558D140AE1778
:10160000BF0709F053CE0E9461219B01AC01241950
:10161000350946095709A8E5B2E00E94A92E4B01F9
:101620005C0140906203509063036090640370908B
:101630006503F8E04F0E511C611C711C409262035F
:10164000509263036092640370926503CE01835CE1
:101650009E4F0E94F1156B017C01AB01BC01441946
:10166000550966097709CE01835C9E4F0E943116A9
:101670008BE991E00E94D01CCE01835C9E4F0E94BA
:10168000F1150E940F1F60916203709163038091B6
:101690006403909165030E940F1F8E01085A1E4F2C
:1016A000BE01635C7E4FC8018BDA6091620370916A
:1016B00063038091640390916503A80111DBB70176
:1016C000A601CE01835C9E4F0E94311644E050E09B
:1016D0006CE072E0CE01835C9E4FA9DA6AE772E0AB
:1016E000CE01835C9E4FE8DB8DE891E00E94D01C28
:1016F000BE01635C7E4FC80163DAA8016EE670E04C
:1017000080E090E0EDDA6FE772E0CE01835C9E4FFF
:10171000D3DB44E050E06CE072E0CE01835C9E4F8E
:1017200086DABE01635C7E4FC8014ADAC8017EDBFF
:10173000BE01635C7E4FC80143DAC80177DBBE019E
:10174000635C7E4FC8013CDAA80168E572E080E086
:1017500090E0C6DA84E891E00E94D01CC501B40193
:101760000E940F1FBE01635C7E4FC80129DAA801E9
:10177000C501B401B5DABE01635C7E4FC80120DA51
:10178000A80160E070E081E090E0AADABE01635C4D
:101790007E4FC80115DAA80160E071E080E090E0BA
:1017A0009FDA44E050E06CE072E0CE01835C9E4F33
:1017B0003EDA44E050E06CE072E0CE01835C9E4F84
:1017C00036DA42E050E06CE072E0CE01835C9E4F7E
:1017D0002EDABE01635C7E4FC801F2D9C8012EDA51
:1017E00044E050E06CE072E0CE01835C9E4F1FDA73
:1017F00044E050E06CE072E0CE01835C9E4F17DA6B
:1018000044E050E06CE072E0CE01835C9E4F0FDA62
:1018100044E050E06CE072E0CE01835C9E4F07DA5A
:1018200044E050E06CE072E0CE01835C9E4FFFD953
:1018300044E050E06CE072E0CE01835C9E4FF7D94B
:10184000BE01635C7E4FC801BBD9A80163E070E0B4
:1018500080E090E045DACE01835C9E4F0E94F11556
:10186000CF57DE4F688379838A839B83C158D140E9
:1018700044E050E06CE072E0CE01835C9E4FD7D92B
:1018800064E872E0CE01835C9E4F16DB43E050E0DB
:101890006CE072E0CE01835C9E4FC9D96CE5CE014D
:1018A000835C9E4F97D569E872E0CE01835C9E4FC2
:1018B00003DB43E050E06CE072E0CE01835C9E4FBE
:1018C000B6D961E0CE01835C9E4F84D5BE01635CD6
:1018D0007E4FC80175D9C801A9DABE01635C7E4F8D
:1018E000C8016ED9C801A2DA43E050E06CE072E0B2
:1018F000CE01835C9E4F9BD961E0CE01835C9E4FFD
:1019000069D544E050E06CE072E0CE01835C9E4F0C
:101910008ED9BE01635C7E4FC80152D9A801C501B2
:10192000B401DED944E050E06CE072E0CE01835CAB
:101930009E4F7DD944E050E06CE072E0CE01835CC4
:101940009E4F75D944E050E06CE072E0CE01835CBC
:101950009E4F6DD944E050E06CE072E0CE01835CB4
:101960009E4F65D9BE01635C7E4FC80129D9C8016D
:1019700065D944E050E06CE072E0CE01835C9E4F9C
:1019800056D944E050E06CE072E0CE01835C9E4F9B
:101990004ED9CE01835C9E4F0E94F1152B013C0174
:1019A00044E050E06CE072E0CE01835C9E4F3FD992
:1019B0006EE872E0CE01835C9E4F7EDA43E050E039
:1019C0006CE072E0CE01835C9E4F31D960E2CE01C3
:1019D000835C9E4FFFD463E972E0CE01835C9E4F2F
:1019E0006BDA44E050E06CE072E0CE01835C9E4F25
:1019F0001ED9BE01635C7E4FC801E2D8C80116DA69
:101A0000BE01635C7E4FC801DBD8C8010FDABE019E
:101A1000635C7E4FC801D4D8A80168E97AE380E00E
:101A200090E05ED9BE01635C7E4FC801C9D8C50194
:101A3000B40128E532E040E050E00E94872EA8E99A
:101A4000BAE30E94A92EA8014BD965E1CE01835CBF
:101A50009E4FC0D467ECCE01835C9E4FBBD442E066
:101A600050E06CE072E0CE01835C9E4FE0D8BE0196
:101A7000635C7E4FC801A4D8A80169E270E080E0F1
:101A800090E02ED968E972E0CE01835C9E4F14DAB3
:101A900044E050E06CE072E0CE01835C9E4FC7D81A
:101AA0006DE972E0CE01835C9E4F06DA44E050E0BF
:101AB0006CE072E0CE01835C9E4FB9D844E050E008
:101AC0006CE072E0CE01835C9E4FB1D844E050E000
:101AD0006CE072E0CE01835C9E4FA9D862EA72E0AE
:101AE000CE01835C9E4FE8D941E050E06CE072E0AB
:101AF000CE01835C9E4F9BD8CE01835C9E4F0E949B
:101B0000F1154B015C0144E050E06CE072E0CE0165
:101B1000835C9E4F8CD86FEA72E0CE01835C9E4F4F
:101B2000CBD9BE01635C7E4FC8014AD8A80164E1ED
:101B300070E080E090E0D4D864EB72E0CE01835C8A
:101B40009E4FBAD943E050E06CE072E0CE01835C76
:101B50009E4F6DD861E0CE01835C9E4F3BD444E044
:101B600050E06CE072E0CE01835C9E4F60D844E0B0
:101B700050E06CE072E0CE01835C9E4F58D843E0A9
:101B800050E06CE072E0CE01835C9E4F50D864E27E
:101B9000CE01835C9E4F1ED469EB72E0CE01835C64
:101BA0009E4F8AD943E050E06CE072E0CE01835C46
:101BB0009E4F3DD86CE1CE01835C9E4F0BD46EEB03
:101BC00072E0CE01835C9E4F77D944E050E06CE038
:101BD00072E0CE01835C9E4F2AD843E050E06CE077
:101BE00072E0CE01835C9E4F22D861E0CE01835C1F
:101BF0009E4FF0D343E050E06CE072E0CE01835C96
:101C00009E4F15D86CE0CE01835C9E4FE3D363EC0E
:101C100072E0CE01835C9E4F4FD943E050E06CE010
:101C200072E0CE01835C9E4F02D861E0CE01835CFE
:101C30009E4FD0D3BE01635C7E4FC8010E94E00579
:101C4000A8016AEB71E080E090E04AD868EC72E0AD
:101C5000CE01835C9E4F30D9BE01635C7E4FC801CC
:101C60000E94E005A80166E670E080E090E038D8C8
:101C70006DEC72E0CE01835C9E4F1ED944E050E0D3
:101C80006CE072E0CE01835C9E4F0E94170643E039
:101C900050E06CE072E0CE01835C9E4F0E9417061C
:101CA00061E0CE01835C9E4F95D3BE01635C7E4FA5
:101CB000C8010E94E005A80166E570E080E090E0C0
:101CC0000FD862ED72E0CE01835C9E4FF5D844E000
:101CD00050E06CE072E0CE01835C9E4F0E941706DC
:101CE00043E050E06CE072E0CE01835C9E4F0E94C6
:101CF000170661E0CE01835C9E4F6CD344E050E058
:101D00006CE072E0CE01835C9E4F0E94170644E0B7
:101D100050E06CE072E0CE01835C9E4F0E9417069B
:101D200044E050E06CE072E0CE01835C9E4F0E9484
:101D3000170644E050E06CE072E0CE01835C9E4FF9
:101D40000E94170661E0CE01835C9E4F43D360E49E
:101D5000CE01835C9E4F3ED341E050E06CE072E0E8
:101D6000CE01835C9E4F0E94170660EFCE01835C1C
:101D70009E4F30D3BE01635C7E4FC8010E94E005D8
:101D8000A80160E070E088E490E00E947006BE0167
:101D9000635C7E4FC8010E94E005A80160E070E02E
:101DA00088E490E00E94700644E050E06CE072E04D
:101DB000CE01835C9E4F0E94170641E050E06CE02C
:101DC00072E0CE01835C9E4F0E94170661E0CE0157
:101DD000835C9E4FFFD244E050E06CE072E0CE01A5
:101DE000835C9E4F0E94170644E050E06CE072E076
:101DF000CE01835C9E4F0E94170644E050E06CE0E9
:101E000072E0CE01835C9E4F0E94170644E050E0D2
:101E10006CE072E0CE01835C9E4F0E94170644E0A6
:101E200050E06CE072E0CE01835C9E4F0E9417068A
:101E300044E050E06CE072E0CE01835C9E4F0E9473
:101E4000170644E050E06CE072E0CE01835C9E4FE8
:101E50000E94170644E050E06CE072E0CE01835C23
:101E60009E4F0E94170641E050E06CE072E0CE0108
:101E7000835C9E4F0E94170668E1CE01835C9E4FF3
:101E8000A9D26FEFCE01835C9E4FA4D26FEFCE013B
:101E9000835C9E4F9FD2BE01635C7E4FC8010E944F
:101EA000E005A80168E170E080E090E00E94700623
:101EB00067ED72E0CE01835C9E4F0E945C0744E0B8
:101EC00050E06CE072E0CE01835C9E4F0E941706EA
:101ED00043E050E06CE072E0CE01835C9E4F0E94D4
:101EE000170661E0CE01835C9E4F74D2BE01635C35
:101EF0007E4FC8010E94E005A8016EE170E080E01D
:101F000090E00E947006BE01635C7E4FC8010E9493
:101F1000E005A80160E070E088E490E00E947006AF
:101F2000BE01635C7E4FC8010E94E005A80160E22B
:101F300070E080E090E00E9470066CED72E0CE01EF
:101F4000835C9E4F0E945C0744E050E06CE072E0CE
:101F5000CE01835C9E4F0E94170643E050E06CE088
:101F600072E0CE01835C9E4F0E94170661E0CE01B5
:101F7000835C9E4F2FD243E050E06CE072E0CE01D4
:101F8000835C9E4F0E94170661E0CE01835C9E4FEA
:101F900021D243E050E06CE072E0CE01835C9E4FC2
:101FA0000E94170661E0CE01835C9E4F13D2BE01F2
:101FB000635C7E4FC8010E94E005A8016EE170E0FD
:101FC00080E090E00E94700643E050E06CE072E038
:101FD000CE01835C9E4F0E94170661E0CE01835CB8
:101FE0009E4FF8D1BE01635C7E4FC8010E94E005A0
:101FF000A8016CE870E080E090E00E94700661EE5D
:1020000072E0CE01835C9E4F0E945C0744E050E08A
:102010006CE072E0CE01835C9E4F0E94170644E0A4
:1020200050E06CE072E0CE01835C9E4F0E94170688
:10203000BE01635C7E4FC8010E94E005A8016EE10D
:1020400070E080E090E00E947006C158DE4F398257
:102050002882CF57D140BE01635C7E4FC8010E94E9
:10206000E005C158DE4FA881B981CF57D1406D91AD
:102070007D91C158DE4FB983A883CF57D14080E00E
:1020800090E0A8010E947006C158DE4F2881398176
:10209000CF57D140CB57DE4F48815981C558D140E9
:1020A00024173507C1F6BE01635C7E4FC8010E944C
:1020B000E005A80168E870E080E090E00E9470060A
:1020C00066EE72E0CE01835C9E4F0E945C0744E0A6
:1020D00050E06CE072E0CE01835C9E4F0E941706D8
:1020E00043E050E06CE072E0CE01835C9E4F0E94C2
:1020F000170661E0CE01835C9E4F6CD100E210E0D8
:10210000BE01635C7E4FCE01885A9E4F0E94E0055F
:10211000B801012E000C880B990BAE01485A5E4F96
:102120000E947006D1018D919D911D01080F191F0C
:10213000CB57DE4FE881F981C558D140AE17BF07B4
:10214000F9F6CE01835C9E4F4CD5DC01CB0188199A
:102150009909AA09BB098093620390936303A09332
:102160006403B0936503B501A401CE01835C9E4F67
:1021700078D5BE01635C7E4FCE01885A9E4F0E9487
:10218000E005609162037091630380916403909114
:102190006503AE01485A5E4F0E947006409162038B
:1021A000509163036091640370916503480D591D5C
:1021B0006A1D7B1DCE01835C9E4F53D5CE01835C8F
:1021C0009E4F0FD5DC01CB0184199509A609B709EB
:1021D0008093620390936303A0936403B0936503B9
:1021E000B301A201CE01835C9E4F3BD5BE01635C6F
:1021F0007E4FCE01885A9E4F0E94E0056091620397
:10220000709163038091640390916503AE01485A15
:102210005E4F0E947006409162035091630360918B
:10222000640370916503440D551D661D771DCE0135
:10223000835C9E4F16D5CE01835C9E4FD2D4DC01C9
:10224000CB01CF57DE4F288139814A815B81C1584C
:10225000D140821B930BA40BB50B80936203909328
:102260006303A0936403B0936503BA01A901CE018F
:10227000835C9E4FF6D4BE01635C7E4FCE01885ACC
:102280009E4F0E94E005609162037091630380910C
:10229000640390916503AE01485A5E4F0E94700638
:1022A00040916203509163036091640370916503F0
:1022B000CF57DE4F88819981AA81BB81C158D14017
:1022C000480F591F6A1F7B1FCE01835C9E4FC9D4E4
:1022D000CE01835C9E4F85D4DC01CB018C199D0916
:1022E000AE09BF098093620390936303A0936403D4
:1022F000B0936503B701A601CE01835C9E4FB1D4B4
:10230000BE01635C7E4FCE01885A9E4F0E94E0055D
:1023100060916203709163038091640390916503FF
:10232000AE01485A5E4F0E94700640916203509180
:10233000630360916403709165034C0D5D1D6E1D18
:102340007F1DCE01835C9E4F8CD41092620310924D
:1023500063031092640310926503E0911007F091FB
:102360001107908180911207892B8083CE01835CB5
:102370009E4F25D483E791E00E94D01CC758DE4FC2
:1023800088819981C957D1400E94812DC857DE4F5D
:102390000FB6F894DEBF0FBECDBFDF91CF911F9176
:1023A0000F91FF90EF90DF90CF90BF90AF909F90F4
:1023B0008F907F906F905F904F903F902F900895F7
:1023C000CE01885A9E4F0E944A1F0C947508A11096
:1023D00041C8B5C8CF93DF931F92CDB7DEB76983ED
:1023E000DC01ED91FC910280F381E02D41E050E0B1
:1023F000BE016F5F7F4F19950F90DF91CF910895C8
:1024000085ED8093BC008091BC0084FDFCCF1092D0
:10241000B005089540913803262F30E0240F311D78
:1024200021323105DCF42091B0052430C9F4FC01DF
:1024300080E090E0861758F4309138032191DC0158
:10244000AA5EBC4FA30FB11D2C930196F3CF8091D0
:102450003803680F6093380380E0089581E00895A1
:1024600082E008950895E091690580916805E81774
:1024700030F4F0E0E659FA4F808190E008958FEF54
:102480009FEF08959091690580916805981750F421
:10249000E92FF0E0E659FA4F208130E09F5F9093FA
:1024A000690502C02FEF3FEFC901089580916805CB
:1024B00090E020916905821B91090895CF92DF92E7
:1024C000EF92FF920F931F93CF93DF937C01262F00
:1024D000972F8A018091B105882391F0C62FD72FBD
:1024E0006E01C40ED51ECC15DD0569F06991D701CA
:1024F000ED91FC910190F081E02DC7011995F3CF8A
:10250000642F822F87DFC801DF91CF911F910F9138
:10251000FF90EF90DF90CF900895CF93DF931F92BD
:10252000CDB7DEB769832091B1052223D1F0209188
:10253000D305203240F021E030E0FC0133832283D8
:1025400080E090E014C08091B205E82FF0E0ED54F7
:10255000FA4F998190838F5F8093B2058093D30562
:1025600004C061E0CE01019655DF81E090E00F905C
:10257000DF91CF910895FC01818D928D009711F02C
:102580000C94E1230895CF93DF93EC01898D9A8D0C
:10259000009739F481E090E09B838A8380E090E0AB
:1025A0000BC0FC01138212820E94B224E98DFA8DC5
:1025B00022813381232B71F7DF91CF9108953F92D0
:1025C0004F925F926F927F928F929F92AF92BF9243
:1025D000CF92DF92EF92FF920F931F93CF93DF93EF
:1025E000CDB7DEB72C970FB6F894DEBF0FBECDBFC8
:1025F0005C01DC015B968D909C905C971696CD906B
:10260000DD90ED90FC901997C114D104E104F10420
:1026100039F0BFEFCB1ADB0AEB0AFB0A312C07C0FB
:10262000F401C080D180E280F38033243394F4013C
:1026300081859285A385B4859C01AD012F5F3F4FB5
:102640004F4F5F4F29873A874B875C8726013701B9
:102650001D821E821F821886F40181859285A385C2
:10266000B4852D813E814F815885281739074A0747
:102670005B0708F063C089859A85AB85BC858C159E
:102680009D05AE05BF0550F482E0C82ED12CE12C8B
:10269000F12C92E0492E512C612C712C9E012F5F60
:1026A0003F4FB701A601C4010E94F622882309F416
:1026B00045C089819A81AB81BC81892B8A2B8B2B68
:1026C00041F0260137019FEF491A590A690A790A30
:1026D00005C0C414D504E604F70491F02D813E81B1
:1026E0004F8158852F5F3F4F4F4F5F4F2D833E8364
:1026F0004F8358873FEFC31AD30AE30AF30AACCFDC
:102700000FEF1FEF2FEF3FE0B301A201C4010E94C2
:102710005722882399F0D50116964D915D916D91C0
:102720007C911997411551056105710549F0930197
:102730008201C4010E945722811102C080E02AC098
:10274000D50116964D925D926D927C921997332029
:1027500051F0D301C2010196A11DB11DF401808386
:102760009183A283B383F5018789908DA18DB28D6A
:10277000892B8A2B8B2B69F4D50157964D925D924C
:102780006D927C925A9714968C9114978068149647
:102790008C9381E02C960FB6F894DEBF0FBECDBFB0
:1027A000DF91CF911F910F91FF90EF90DF90CF902D
:1027B000BF90AF909F908F907F906F905F904F9061
:1027C0003F9008958FB7F894809161038FBF08956B
:1027D00061E0FC0184810E94562080916003811198
:1027E0001092600308958FEF0C9410060F931F93BF
:1027F000CF93DF93EB010E940B218B01F4DF8F3F1E
:1028000049F00E940B21601B710B6C177D07B0F320
:1028100080E001C081E0DF91CF911F910F91089579
:10282000CF93DF93EC018E81882379F08F81988597
:102830009C012F5F3F4F38872F838230924010F4E6
:10284000D2DFF4CFCE01C4DF1E82DF91CF91089595
:102850008CBD9DBD0895CF93DF93EC018091600303
:10286000811108C081E0809360038091B906909146
:10287000BA06EEDF60E08C81DF91CF910C94562098
:10288000CF92DF92FF920F931F93CF93DF9300D0ED
:102890001F92CDB7DEB76C01F62E29833A834B83A6
:1028A0005C83BEDFC601D7DF6CE271E0C6019EDF4C
:1028B0008F2D80640E94100608E110E05C814B813E
:1028C0003A812981DA01C901002E04C0B695A79585
:1028D000979587950A94D2F729833A834B835C8333
:1028E0000E9410060850110929813A814B815C81B0
:1028F000083F8FEF180731F7FF2029F0E8E0FE12BC
:1029000004C087E803C085E901C08FEF0E9410066C
:1029100010E069DFF601828787FF04C01F3F11F0D6
:102920001F5FF7CF0F900F900F900F90DF91CF9117
:102930001F910F91FF90DF90CF900895AF92BF92BB
:10294000CF92DF92EF92FF920F931F93CF93DF937B
:10295000EC016901C801820F931F8130924008F099
:102960006AC08E81882371F088819981AA81BB8198
:10297000481759076A077B0729F48F819885C8167D
:10298000D90698F5488359836A837B838B85833086
:1029900039F089E0440F551F661F771F8A95D1F7DC
:1029A0009A01AB0161E1CE016BDF882319F083E06E
:1029B0008D8341C00E940B215B0115DF8A878F3F09
:1029C00049F40E940B216A197B096D327140A8F30A
:1029D0008FE003C08E3F29F08DE08D83CE01F8DEBD
:1029E0002AC018861F8281E08E838F8198858C157E
:1029F0009D0538F4F8DE8F819885019698878F833E
:102A0000F4CF6701E00EF11ECE14DF0429F0EBDEF7
:102A1000F60181936F01F8CF8F819885080F191FF8
:102A200018870F838985882319F00115124038F023
:102A3000CE01F6DE04C0CE01CBDE80E001C081E035
:102A4000DF91CF911F910F91FF90EF90DF90CF908A
:102A5000BF90AF900895EF92FF920F931F93CF9383
:102A6000DF93EC017901411551056105710511F400
:102A700082E138C08B85833039F089E0440F551FDF
:102A8000661F771F8A95D1F79A01AB0168E1CE01E5
:102A9000F7DE882311F084E025C08EEF0E94100637
:102AA00087018EEFF81AF80181918F010E941006BC
:102AB0000E151F05C1F78FEF0E9410068FEF0E94C1
:102AC000100691DE8A878F71853029F081E18D8330
:102AD000CE017EDE08C068E572E0CE0187DE81119E
:102AE00006C085E18D83CE0173DE80E010C020E05A
:102AF00030E0A9016DE0CE01C3DE811103C073DEB9
:102B0000882311F084E1EECFCE0162DE81E0DF9117
:102B1000CF911F910F91FF90EF900895FC01DB0181
:102B200012968D919C9113979383828388E392E010
:102B30009183808314968C911497848315968C913D
:102B40001597858316964D915D916D917C9119979E
:102B500046835783608771871A964D915D916D9179
:102B60007C911D9742875387648775871E964D9188
:102B70005D916D917C91519746875787608B718BE2
:102B800052968C915297828B53964D915D916D9197
:102B90007C915697438B548B658B768B57964D91D2
:102BA0005D916D917C915A97478B508F618F728F99
:102BB0005B968D919C915C97948F838F0895CF93B2
:102BC000DF93EC01898D9A8D009741F00E940329D3
:102BD000898D9A8D0E94812D1A8E198EDF91CF9149
:102BE0000895DC015996ED91FC915A97309729F0A0
:102BF000628573858485958508956FEF7FEFCB019E
:102C00000895CF92DF92EF92FF920F931F93CF938D
:102C1000DF93FC01C18DD28D2097C1F0E2DF0B89DB
:102C20001C892D893E8968017901C61AD70AE80AEC
:102C3000F90AD701C601C11420E8D206E104F10463
:102C400038F08FEF9FE7A0E0B0E002C080E090E0B6
:102C5000DF91CF911F910F91FF90EF90DF90CF9078
:102C60000895FC01818D928D009729F00E941D240A
:102C700091E0811101C090E0892F0895EF92FF92B9
:102C80000F931F93CF93DF93EC017B018A011B828B
:102C90001A8288EE93E0A0E0B0E08C839D83AE833F
:102CA000BF8384E192E0998388838DE190E00E9464
:102CB000EC2C9A8F898F009779F02DE1F701DC01D8
:102CC00001900D922A95E1F74CE050E0B801CE0159
:102CD0000C960E94DA2F188EDF91CF911F910F91E1
:102CE000FF90EF9008952F923F924F925F926F92D4
:102CF0007F928F929F92AF92BF92CF92DF92EF928C
:102D0000FF920F931F93CF93DF931F921F92CDB724
:102D1000DEB7FC018581882309F4D8C0848180FF57
:102D2000D5C021E02A8343895489658976898285C3
:102D30009385A485B585481759076A077B0709F469
:102D40001A826F013A81832F90E0DE0111964D01C6
:102D50003F01B6E06B0E711C892B09F47DC0D601D2
:102D60001A964D915D916D917C911D975A01B1E03C
:102D7000BB22F60125811A012B0189E05694479464
:102D8000379427948A95D1F7838D948D223061F4FE
:102D9000FC01828D938DA48DB58DBC01CD01620D9A
:102DA000731D841D951D45C0DC0114961C911150A6
:102DB0001221A114B104D1F4111118C0452B462BD6
:102DC000472B51F4F6018789908DA18DB28D8683B2
:102DD0009783A087B1870AC0468157816085718536
:102DE00093010E94F622882309F470C0F601238D16
:102DF000348D86819781A085B1850297A109B1099B
:102E0000AC01BD01F901058404C0440F551F661FC4
:102E1000771F0A94D2F786859785A089B189840F98
:102E2000951FA61FB71FBC01CD01610F711D811D2C
:102E3000911DD60114962C9126FF14C00091020218
:102E4000109103022091040230910502601771076E
:102E50008207930751F506C0FA81FF23B9F18981F2
:102E600090E036C040E00E940F22882379F1F501FE
:102E7000EA59FC4FD401CF010196E817F90719F080
:102E800021912D93FACFEFEF8E1A9E0AF6018285DB
:102E90009385A485B5850196A11DB11D8287938771
:102EA000A487B58780E090E057CF740101E010E07F
:102EB0009501AB01BC0180916605909167053EDDEF
:102EC000882321F0BFEF8B1A9B0AE0CF8FEF9FEF93
:102ED0000F900F90DF91CF911F910F91FF90EF9086
:102EE000DF90CF90BF90AF909F908F907F906F902A
:102EF0005F904F903F902F900895FC01818D928DAF
:102F0000009709F0F0CE8FEF9FEF08950F931F9376
:102F1000CF93DF93FC01818D928D0097B1F0EF018B
:102F2000E2DE8C010F3F8FEF180791F0898D9A8DAB
:102F3000FC014285538564857585415051096109BD
:102F400071090E941D24C80105C080E090E002C004
:102F50008FEF9FEFDF91CF911F910F9108951F92F7
:102F60000F920FB60F9211240F900FBE0F901F906B
:102F70001895CF93CFB7F89480915D03811121C04C
:102F8000E0EFFAE08491E0E9FAE09491E82FF0E0D4
:102F9000EE0FFF1FEF5BF54FA591B491EC91E92384
:102FA00021F461E085E30E94562085E314D38CB5BB
:102FB00080618CBD8CB580648CBD84E30CD383E3CD
:102FC0000AD380915D038F5F80935D03CFBFCF9164
:102FD00008951F920F920FB60F9211240BB60F9205
:102FE0002F933F934F935F936F937F938F939F9311
:102FF000AF93BF93EF93FF938091B900887F8036A2
:1030000009F49CC068F5883209F45BC090F4803103
:1030100009F454C038F4882309F4F6C0883009F460
:103020004DC0F5C0883109F44CC0803209F45DC050
:10303000EEC0803409F468C048F4803309F455C008
:10304000883309F0E4C08093AE05D8C0803509F418
:103050004FC0883509F45DC0883409F0D8C0D6C0A7
:10306000883909F4C7C0A8F4883709F467C038F470
:10307000883609F463C0803709F460C0C8C0883856
:1030800009F4B8C0803909F45FC0803809F0BFC0C6
:103090005BC0803B09F486C038F4803A09F466C00E
:1030A000883A09F47FC0B3C0803C09F4A7C0883CCB
:1030B00009F4A4C0883B09F48AC0A9C080918B059B
:1030C00010C09091AD058091AC05981770F5E09116
:1030D000AD0581E08E0F8093AD05F0E0E457FA4F27
:1030E00080818093BB0085EC86C08093AE058EC046
:1030F000E091AD0581E08E0F8093AD058091BB001E
:10310000F0E0E457FA4F80839091AD058091AC05D3
:103110006EC0E091AD0581E08E0F8093AD0580918A
:10312000BB00F0E0E457FA4F80838091AF05811136
:103130006DC081E080938A0584EA61C083E080935A
:10314000B00510925C03CFCF80915C03803208F011
:1031500051C0E0915C0381E08E0F80935C0380910D
:10316000BB00F0E0E45CFC4F8083BDCF85EC809336
:10317000BC001092B00580915C03803230F4E09185
:103180005C03F0E0E45CFC4F108260915C0370E053
:10319000E0913A03F0913B038CE393E01995109290
:1031A0005C0335C084E08093B0051092390310921F
:1031B0003803E0913603F091370319958091380375
:1031C000811105C081E08093380310921603E091CD
:1031D000390381E08E0F80933903F0E0EA5EFC4F03
:1031E00080818093BB0090913903809138039817B8
:1031F00008F479CF85E88093BC0009C085EC809302
:10320000BC001092B00503C01092AE05F9D8FF9132
:10321000EF91BF91AF919F918F917F916F915F914E
:103220004F913F912F910F900BBE0F900FBE0F90BB
:103230001F901895CF92DF92EF92FF920F931F93FA
:10324000CF93DF936C017A018B01C0E0D0E0CE1503
:10325000DF0589F0D8016D918D01D601ED91FC91CA
:103260000190F081E02DC6011995892B11F47E01A2
:1032700002C02196ECCFC701DF91CF911F910F9132
:10328000FF90EF90DF90CF900895FC01538D448D17
:10329000252F30E0842F90E0821B930B541710F001
:1032A000CF96089501970895FC01918D828D98170E
:1032B00061F0828DDF01A80FB11D5D968C91928D1A
:1032C0009F5F9F73928F90E008958FEF9FEF089517
:1032D000FC01918D828D981731F0828DE80FF11DE0
:1032E000858D90E008958FEF9FEF089584ED95E030
:1032F00016D621E0892B09F420E0822F0895EF9261
:10330000FF920F931F93CF93DF93EC0181E0888F9F
:103310009B8D8C8D981305C0E889F989808185FD86
:1033200023C0F62E0B8D10E00F5F1F4F0F73112778
:10333000E02E8C8DE8120BC00FB607FCFACFE8899F
:10334000F989808185FFF5CFCE018FD6F2CF8B8DA5
:10335000FE01E80FF11DE35AFF4FF0820B8FEA895F
:10336000FB898081806207C0EE89FF896083E889DC
:10337000F98980818064808381E090E0DF91CF9142
:103380001F910F91FF90EF900895CF93DF93EC0181
:10339000888D8823C1F0EA89FB89808185FD05C07D
:1033A000A889B9898C9186FD0EC00FB607FCF5CFB0
:1033B000808185FFF2CFA889B9898C9185FFEDCFF7
:1033C000CE0153D6E8CFDF91CF9108954F925F920F
:1033D0006F927F92EF92FF920F931F93CF93DF93A1
:1033E000CDB7DEB7A1970FB6F894DEBF0FBECDBF45
:1033F0007C01FA01CB0119A2223008F42AE08E01E7
:103400000F5D1F4F422E512C612C712CBF01A30167
:1034100092010E94872EF901CA01015011096A30F8
:1034200014F4605D01C0695CD8016C93232B242BDC
:10343000252B61F7B801C7010E945C07A1960FB662
:10344000F894DEBF0FBECDBFDF91CF911F910F91DA
:10345000FF90EF907F906F905F904F9008951F9234
:103460000F920FB60F9211240BB60F922F933F932A
:103470004F935F936F937F938F939F93AF93BF937C
:10348000EF93FF9384ED95E0F0D5FF91EF91BF911D
:10349000AF919F918F917F916F915F914F913F91EC
:1034A0002F910F900BBE0F900FBE0F901F9018958D
:1034B0001F920F920FB60F9211240BB60F922F93FB
:1034C0008F939F93EF93FF93E091E405F091E505CF
:1034D0008081E091EA05F091EB0582FD12C09081B8
:1034E0008091ED058F5F8F732091EE05821751F06B
:1034F000E091ED05F0E0EC52FA4F958F8093ED05E9
:1035000001C08081FF91EF919F918F912F910F903A
:103510000BBE0F900FBE0F901F901895382F209163
:10352000D30590911C07213208F049C08091B00565
:103530008111FCCF42E04093B0053093AF053FEFDF
:103540003093AE051092AD052093AC05A3EBB5E02A
:103550004CE855E0FA013E2F341B321718F43D9128
:103560003193F9CF10928B0520918B05990F922BF7
:1035700090938B0590918A05913061F410928A05A1
:1035800090918B059093BB009091BC0093FDF8CF78
:1035900095EC01C095EE9093BC009091B0059230EF
:1035A000E1F39091AE059F3F79F08091AE058032B6
:1035B00041F08091AE05803331F084E005C081E0B8
:1035C00003C082E001C083E01092B2051092D305DF
:1035D0001092B105089590E0FC01E55AF54F249151
:1035E000FC01E554F54F8491882399F090E0880F11
:1035F000991FFC01EF5BF54FA591B491FC01EF55CC
:10360000F54F859194918FB7F894EC91E22BEC9360
:103610008FBF0895E4EDF5E0A089B18982E08C9335
:10362000A485B5851C92A685B78580E18C93108E04
:10363000A489B58986E08C93A289B3898C91806135
:103640008C93A289B3898C9188608C93A289B38969
:103650008C9180688C930288F389E02D80818F7D26
:10366000808308952F923F924F925F926F927F9244
:103670008F929F92AF92BF92CF92DF92EF92FF9282
:103680000F931F93CF93DF93CDB7DEB7C756D10902
:103690000FB6F894DEBF0FBECDBF5C014B01A696FE
:1036A0004FAFA6973E018EE1680E711C65EE76E085
:1036B000C30134DA1C821B8288E392E09A838983F7
:1036C0001E8264018E010F5F1F4F230118016FE2FC
:1036D00070E0C6010E94C82F009709F442C0F601AD
:1036E00020812F3221F4FFEFCF1ADF0AF0CF8C199F
:1036F0008D3008F08CE0E82EF12CA701B601CE0148
:10370000885A9F4F0E94DA2FE8E5F0E0EC0FFD1F8A
:10371000EE0DFF1D1082C8010E940329F80185816A
:10372000882351F01EAE1DAE88E392E09CAF8BAFB4
:1037300021961FAE219720C021E0AE01485A5F4F6D
:10374000B201C8010E944F27882361F3CE0CDF1C11
:10375000C2010E940329942D852D2801092F182FBD
:10376000B6CFC60188199909A8969FAF8EAFA897C2
:10377000B201CE01CB96D2D9A896EEADFFADA897F7
:103780008E0E9F1EF4018081811108C0BE01655C10
:103790007F4FC101C3D949E053E04AC019A218A222
:1037A00088E392E09F8F8E8F1BA221968FAD219789
:1037B000811113C0F5011382128288EE93E0A0E01C
:1037C000B0E084839583A683B78384E192E09183FC
:1037D0008083128E118E14862EC08250A6962FAD35
:1037E000A697A401823040F465EE76E0C3010E9402
:1037F0004F2781110DC0DECFBE01655C7F4FC30135
:103800000E944F278823B1F2CE01CB960E94032954
:10381000A6968FADA697867039F049A95AA96BA9CB
:103820007CA9C3010E941D24B301C10177D9A40161
:10383000B101C50123DAC501C959DF4F0FB6F894AC
:10384000DEBF0FBECDBFDF91CF911F910F91FF90D3
:10385000EF90DF90CF90BF90AF909F908F907F9030
:103860006F905F904F903F902F9008950F931F930C
:10387000CF93DF931F92CDB7DEB700E117E0D801F9
:10388000ED91FC911197208112969C919095922335
:10389000908369830E9410066981862F0E9410061A
:1038A000D801ED91FC911197908112968C91892B02
:1038B000808381E00F90DF91CF911F910F91089548
:1038C000CF93C62F2091150730E03595279591E0CD
:1038D0009093B10520931C071092B2051092D30566
:1038E000682F84E097E00E948D126C2F84E097E0AF
:1038F0000E948D1281E012DE811107C061E070E04C
:1039000080E090E050D481E001C080E0CF91089544
:10391000EF92FF920F931F93CF93DF93EC01E12C73
:10392000F12C00E010E08FEFE816F10461F0FE01E9
:1039300005911491FE013296E590F490B701C8010B
:10394000BFDF2496F0CF0F3F110589F781E090E0AB
:10395000DF91CF911F910F91FF90EF9008950F93FA
:103960001F93CF93DF938C01C0E0D0E0F801EC0F00
:10397000FD1F6491662371F0E091D405F091D505A7
:103980000190F081E02D84ED95E01995892B11F0DF
:103990002196ECCFCE01DF91CF911F910F91089529
:1039A000CF93DF93DCDFEC016AEF72E084ED95E00A
:1039B0000E945C078C0F9D1FDF91CF910895CF93DC
:1039C000DF93EB012091150730E03595279591E0C5
:1039D0009093B10520931C071092B2051092D30565
:1039E000682F84E097E00E948D1281E097DD80913E
:1039F00015079091B0059111FCCF91E09093B0051F
:103A00009093AF052FEF2093AE051092AD05109265
:103A1000AC0590938B0590918B058E7F892B8093BD
:103A20008B0580918A05813061F410928A0580911E
:103A30008B058093BB008091BC0083FDF8CF85ECA3
:103A400001C085EE8093BC008091B0058130E1F328
:103A50008091AD05811103C08091AD0501C081E069
:103A6000ACE8B5E02AE635E0F9019E2F921B9817E5
:103A700018F49D919193F9CF109269058093680590
:103A8000882329F084E097E00E944212888361E055
:103A900070E080E090E087D381E0DF91CF910895DE
:103AA000CF93DF93C0E1D7E0E881F98120819A814B
:103AB0009095922390830E94100680E00E94100649
:103AC000E881F98120819A81922B9083DF91CF91B7
:103AD0000895CF93DF93FC0144815581608171810A
:103AE00084ED95E00E941706EC016AEF72E084ED28
:103AF00095E00E945C078C0F9D1FDF91CF91089588
:103B00000F931F93CF93DF93EC0185D36887798759
:103B10008A879B87CE01F1D997FF16C07CD3088591
:103B200019852A853B85DC01CB01801B910BA20BFB
:103B3000B30B0C811D812E813F8180179107A20755
:103B4000B30740F38FEF9FEFDF91CF911F910F915C
:103B500008958F929F92AF92BF92CF92DF92EF9291
:103B6000FF92CF93DF93C82F8BEB96E0909367057E
:103B700080936605CC2361F1C53010F080E00BC165
:103B800040E060E070E0CB014AD48823B9F320E143
:103B9000C29FC00111248A5A9C4FFC01E254FE4F7F
:103BA00020812F7759F73C96408151816281738142
:103BB000443651056105710508F33497C080D18002
:103BC000E280F380C114D104E104F10421F4D6CFE2
:103BD000C12CD12C760140E0C701B60120D4882346
:103BE00069F280917103909172038115924031F6D0
:103BF000A0917603AA2309F4C1CF60917403709158
:103C000075036115710509F4B9CF2091730322235F
:103C100009F4B4CFA093D9062093CB0680E030E01E
:103C2000E1E0F0E0C82FAF01082E02C0440F551F9D
:103C30000A94E2F72417350741F0982F8F5F9830E8
:103C400089F789E08093D40699CF8093D406209198
:103C50007C0330917D032115310519F040E050E0DF
:103C600008C020918A0330918B0340918C035091BE
:103C70008D032093CC063093CD064093CE0650930F
:103C8000CF0646015701860E971EA11CB11C8092DB
:103C9000DA069092DB06A092DC06B092DD06E09197
:103CA0007703F0917803F093E006E093DF06B0E04D
:103CB0000E94A92E860E971EA81EB91E8092E106AC
:103CC0009092E206A092E306B092E40685E0EE0F41
:103CD000FF1F8A95E1F7E150FE4FEF2FFF27E69592
:103CE0008E0E9F1EA11CB11C8092D5069092D60606
:103CF000A092D706B092D8062091790330917A032A
:103D00002115310521F0A90160E070E008C0409163
:103D10008603509187036091880370918903D701CE
:103D2000C60188199909AA09BB09840F951FA61F06
:103D3000B71F04C0B695A79597958795CA95D2F7F2
:103D40008093D0069093D106A093D206B093D30669
:103D5000853F2FE09207A105B10510F48CE018C053
:103D6000853F9F4FA105B10510F480E111C08091FE
:103D7000920390919303A0919403B0919503809343
:103D8000E1069093E206A093E306B093E40680E296
:103D90008093DE0681E0DF91CF91FF90EF90DF907E
:103DA000CF90BF90AF909F908F900895CF92DF9269
:103DB000EF92FF920F931F93CF93DF93EC016B0170
:103DC000770FEE08FF08F7FE15C0E881F981019032
:103DD000F081E02D6DE219958C0144275527BA0139
:103DE0004C195D096E097F092AE0CE01EFDA080F50
:103DF000191F05C02AE0B701A601E8DA8C016AEFB5
:103E000072E0CE010E945C07800F911FDF91CF917D
:103E10001F910F91FF90EF90DF90CF900895CF9377
:103E2000DF93AB01BC012AE084ED95E0CFDAEC0131
:103E30006AEF72E084ED95E00E945C078C0F9D1F95
:103E4000DF91CF9108950F931F93CF93DF93EC01F0
:103E500088819981009729F02A813B8126173707AD
:103E600088F48B016F5F7F4F0E94CA2E009761F02C
:103E7000998388831B830A832C813D81232B11F432
:103E8000FC01108281E001C080E0DF91CF911F91A1
:103E90000F910895CF93DF93EC018881998100976A
:103EA00011F00E94812D198218821D821C821B82B2
:103EB0001A82DF91CF910895EF92FF920F931F9393
:103EC000CF93DF93EC017B018A01BA01BCDF811142
:103ED00003C0CE01DFDF07C01D830C83B7018881DB
:103EE00099810E94D32FCE01DF91CF911F910F9125
:103EF000FF90EF900895FC011182108213821282CC
:103F0000158214826115710549F0FB0101900020B2
:103F1000E9F73197AF01461B570BCECF0895FC014F
:103F2000918D228D892F90E0805C9F4F821B91099B
:103F30008F739927089580E090E0892B19F0D6D9E6
:103F4000811125C080E090E0892B41F080E090E075
:103F5000892B21F00E94000081111CC080E090E0BC
:103F6000892B41F080E090E0892B21F00E94000035
:103F7000811113C080E090E0892BA1F080E090E0F7
:103F8000892B81F00E94000081110AC008950E94CF
:103F90000000D8CF0E940000E1CF0E940000EACFCD
:103FA0000C94000008953FB7F894809137079091E2
:103FB0003807A0913907B0913A0726B5A89B05C0EC
:103FC0002F3F19F00196A11DB11D3FBFBA2FA92F98
:103FD000982F8827820F911DA11DB11DBC01CD0115
:103FE00042E0660F771F881F991F4A95D1F7089501
:103FF0000E94AE2F80911D078823A9F140910202F3
:1040000050910302609104027091050226E633E0AC
:1040100080916605909167050E942B15811102C061
:1040200080E0089540911E0750911F07609120077E
:1040300070912107411551056105710591F026E642
:1040400033E080916605909167050E942B158823C7
:1040500039F310921E0710921F071092200710923A
:10406000210710921D0781E00895FC01848DDF0176
:10407000A80FB11DA35ABF4F2C91848D90E00196DB
:104080008F739927848FA689B7892C93A089B189CA
:104090008C9180648C93938D848D981306C00288D4
:1040A000F389E02D80818F7D80830895362F90E005
:1040B000FC01EF5EF44F4491FC01E55AF54F249169
:1040C000FC01E554F54F9491992309F46BC0442306
:1040D00009F455C050E0FA013197E231F10508F0DA
:1040E0004EC08827EE58FF4F8F4F0C94C22E809100
:1040F00080008F7707C0809180008F7D03C0809102
:104100008000877F809380003AC084B58F7702C09B
:1041100084B58F7D84BD33C08091B0008F7703C09C
:104120008091B0008F7D8093B00029C08091900075
:104130008F7707C0809190008F7D03C080919000A1
:10414000877F809390001BC08091A0008F7707C06D
:104150008091A0008F7D03C08091A000877F809315
:10416000A0000DC0809120018F7707C080912001B1
:104170008F7D03C080912001877F80932001E92FEC
:10418000F0E0EE0FFF1FEF55F54FA591B4918FB7FB
:10419000F894EC91311103C020952E2301C02E2BF1
:1041A0002C938FBF08958F929F92AF92BF92CF9220
:1041B000DF92EF92FF926B017C01F5DE4B015C0117
:1041C000C114D104E104F104E9F0EDDEDC01CB011E
:1041D00088199909AA09BB09883E9340A105B10530
:1041E00078F321E0C21AD108E108F10888EE880EC0
:1041F00083E0981EA11CB11CC114D104E104F10498
:1042000021F7DECFFF90EF90DF90CF90BF90AF907F
:104210009F908F9008952FB7F89460913307709115
:10422000340780913507909136072FBF08951F926C
:104230000F920FB60F9211242F933F938F939F935A
:10424000AF93BF938091330790913407A0913507C6
:10425000B09136073091320723E0230F2D3720F439
:104260000196A11DB11D05C026E8230F0296A11DD0
:10427000B11D209332078093330790933407A093A6
:104280003507B09336078091370790913807A09192
:104290003907B0913A070196A11DB11D80933707E8
:1042A00090933807A0933907B0933A07BF91AF9125
:1042B0009F918F913F912F910F900FBE0F901F9064
:1042C0001895CF92DF92EF92FF920F931F93A3DF87
:1042D000C0902A07D0902B07E0902C07F0902D0774
:1042E0008B019C010C191D092E093F0980912E0795
:1042F00090912F07A0913007B0913107083E1340ED
:1043000021053105D0F00196A11DB11D80932E0726
:1043100090932F07A0933007B0933107B701A60100
:1043200048515C4F6F4F7F4F40932A0750932B07A4
:1043300060932C0770932D07CACF409126075091A8
:104340002707609128077091290784179507A6070A
:10435000B70708F455C0E0912407F091250730977E
:1043600009F44EC01995611571058105910531F16A
:1043700060932E0770932F07809330079093310737
:10438000DC01CB01845D9E4FAF4FBF4F809326076A
:1043900090932707A0932807B093290782E090E025
:1043A000909323078093220736DF60932A07709348
:1043B0002B0780932C0790932D0722C080912E0706
:1043C00090912F07A0913007B0913107845D9E4FE7
:1043D000AF4FBF4F8093260790932707A0932807DE
:1043E000B093290781E090E02091220730912307C4
:1043F000232B11F480E090E0909323078093220711
:1044000060912E0770912F078091300790913107AE
:104410001F910F91FF90EF90DF90CF9008958F92B2
:104420009F92AF92BF92EF92FF920F931F93CF9301
:104430004B015C01C42F8091020290910302A09174
:104440000402B091050288159905AA05BB05F9F08B
:10445000D1DD811102C080E020C086E6E82E83E035
:10446000F82E00E012E020E030E0B501A4018091D8
:104470006605909167050E949E14882361F38092DF
:10448000020290920302A0920402B092050280916F
:104490001D07C82BC0931D0781E0CF911F910F917D
:1044A000FF90EF90BF90AF909F908F9008954F92A4
:1044B0005F926F927F928F929F92AF92BF92CF92B4
:1044C000DF92EF92FF920F931F93CF93DF93EC0154
:1044D0006A017B01280139014230510561057105EE
:1044E00010F480E072C089859A85AB85BC85019601
:1044F000A11DB11D84179507A607B70790F38B88F8
:104500009C88AD88BE888F89803129F4BB27AF2D68
:104510009E2D8D2D09C0DB01CA0147E0B695A795F8
:10452000979587954A95D1F7880E991EAA1EBB1EAE
:104530008091020290910302A0910402B0910502C1
:1045400088169906AA06BB0679F48F89803199F4FA
:10455000DD24EE24FF24C601880F991FFC01EA59CF
:10456000FC4F5182408218C040E0C501B40157DFC2
:104570008111EBCFB6CFE894C7F8DD24EE24FF24F9
:10458000C601880F991F880F991FFC01EA59FC4F3B
:10459000408251826282738280911D078160809384
:1045A0001D078A89823080F08D819E81AF81B88518
:1045B000880E991EAA1EBB1E80921E0790921F078E
:1045C000A0922007B092210781E0DF91CF911F9147
:1045D0000F91FF90EF90DF90CF90BF90AF909F90A2
:1045E0008F907F906F905F904F9008958F929F92E1
:1045F000AF92BF92CF92DF92EF92FF920F931F93F1
:10460000CF93DF93FC0181859285A385B4850196C4
:10461000A11DB11D84179507A607B70710F480E008
:104620005BC083899489A589B689C789C03129F47B
:10463000852E962EA72EBB2409C04A015B01C7E038
:10464000B694A79497948794CA95D1F7E9016A0123
:104650007B018F01BC01CD01680D791D8A1D9B1D59
:104660008090020290900302A0900402B090050294
:10467000681579058A059B0599F4F80187898031C9
:10468000A1F4B701A601552766277727440F551FC8
:10469000FA01EA59FC4F80819181A0E0B0E017C097
:1046A00040E0BDDE8111E9CFBACFB701A6014F7757
:1046B000552766277727440F551F440F551FFA01CA
:1046C000EA59FC4F80819181A281B381BF708883B8
:1046D0009983AA83BB8381E0DF91CF911F910F91D2
:1046E000FF90EF90DF90CF90BF90AF909F908F9012
:1046F00008954F925F926F927F92AF92BF92CF9246
:10470000DF92EF92FF920F931F93CF93DF9300D02E
:104710001F92CDB7DEB78C0149835A836B837C83AC
:104720005901C12CD12C7601412C82E0582E612CEC
:10473000712C49815A816B817C819E012F5F3F4F93
:10474000C80154DF882351F1D301C201F801058467
:1047500004C0880F991FAA1FBB1F0A94D2F7C80E66
:10476000D91EEA1EFB1E49815A816B817C81878993
:10477000803129F088EF9FEFAFEFBFE004C088EFF2
:104780009FEFA0E0B0E0481759076A077B0788F25F
:10479000F501C082D182E282F38281E00F900F9016
:1047A0000F900F90DF91CF911F910F91FF90EF909D
:1047B000DF90CF90BF90AF907F906F905F904F90C1
:1047C0000895CF93DF93EC018D81882391F18C8143
:1047D00087FF2CC06E857F858889998941E01FDE1F
:1047E000882339F1EA8980E2E89FF0011124DF0192
:1047F000AA59BC4F1097E9F08D81823050F44B8953
:104800005C896D897E895C964D935D936D937C93F5
:104810005F978F89988DA98DBA8DEA59FC4F938F38
:10482000828FB58BA48B8C818F778C83DF91CF9116
:10483000E1CB80E0DF91CF9108958F929F92AF926C
:10484000BF92CF92DF92EF92FF920F931F93CF937D
:10485000DF93EC018D81811102C080E076C00B896D
:104860001C892D893E890417150726073707A8F3E9
:104870006A017B01823029F4CA86DB86EC86FD86DC
:104880000DC0C114D104E104F10451F41E821F8251
:10489000188619861A861B861C861D8681E055C0DF
:1048A0008A849B84AC84BD84EB8DFC8D258530E0AF
:1048B000275F3F4FB501A4014150510961097109BA
:1048C000022E04C076956795579547950A94D2F7BE
:1048D000D701C6010197A109B10904C0B695A795F2
:1048E000979587952A95D2F784179507A607B70756
:1048F00020F089288A288B2849F44F89588D698DA2
:104900007A8D4E835F836887798704C0841B950BFB
:10491000A60BB70B4C015D018E010A5F1F4F81147E
:104920009104A104B10409F4A7CF4E815F81688589
:10493000798598018B8D9C8D59DE91E0891A9108BB
:10494000A108B1088111EBCF88CFDF91CF911F91E2
:104950000F91FF90EF90DF90CF90BF90AF909F901E
:104960008F9008952F923F924F925F926F927F9215
:104970008F929F92AF92BF92CF92DF92EF92FF926F
:104980000F931F93CF93DF9300D01F92CDB7DEB765
:104990008C015B011A01DC0115968C911597813011
:1049A000C1F414968C9181FF14C082FF1AC0F801E3
:1049B000438954896589768982859385A485B585DF
:1049C00084179507A607B70761F0C80136DF811184
:1049D00008C081E090E0F8019383828380E090E05A
:1049E00035C1610183C0D8015B968D919C915C9724
:1049F000FC01248121502A013B0139E0769467941F
:104A0000579447943A95D1F7722E74207A01F1E0C9
:104A1000FF22772009F476C080E092E08E199F098A
:104A200046018C159D0508F44C01D8015B962D912B
:104A30003C915C9716968D919D910D90BC91A02D07
:104A40000297A109B109F901058404C0880F991FD3
:104A5000AA1FBB1F0A94D2F74685578560897189C2
:104A6000840F951FA61FB71F9C01AD01270D311D97
:104A7000411D511D29013A01811432E0930609F0CC
:104A800087C08091020290910302A0910402B0912C
:104A9000050284159505A605B70559F48FEF9FEF1C
:104AA000DC018093020290930302A0930402B0936E
:104AB00005029501B301A2018091660590916705F9
:104AC0000E942B15882309F484CF9EEFB91AC818C9
:104AD000D908F80182859385A485B585880D991D2F
:104AE000A11DB11D82879387A487B587D8011A9627
:104AF0004D915D916D917C911D97C114D10409F088
:104B000072CF84C0E114F10409F086CF16964D915E
:104B10005D916D917C911997411551056105710564
:104B200059F457968D919D910D90BC91A02D0097B1
:104B3000A105B10539F520C09E012F5F3F4F56DD1D
:104B4000882309F44CCF89819A81AB81BC81F8011B
:104B5000238D348DF9012789203129F048EF5FEF4B
:104B60006FEF7FE004C048EF5FEF60E070E0841714
:104B70009507A607B70730F0C8010E94DF12811120
:104B80004BCF27CFF80186839783A087B18744CF87
:104B9000E114F10421F5D8011A964D915D916D91C2
:104BA0007C911D9753968D919D910D90BC91A02D58
:104BB000481759076A077B0790F01CDA882309F425
:104BC00008CF409202025092030260920402709257
:104BD000050280911D07816080931D0707C041E099
:104BE000C301B2011CDC882309F4F3CED501F7011F
:104BF000EA59FC4FCF01880D991DE817F90719F004
:104C00002D912193FACFA80CB91C61CF53968D91A9
:104C10009D910D90BC91A02D84179507A607B7070D
:104C200040F4F801438B548B658B768B84818068CC
:104C30008483D80114968C9183FD02C0C10106C003
:104C4000C801BFDD882309F4C4CEF8CF0F900F90C0
:104C50000F900F90DF91CF911F910F91FF90EF90E8
:104C6000DF90CF90BF90AF909F908F907F906F908C
:104C70005F904F903F902F900895CF93DF931F92B6
:104C8000CDB7DEB7698341E050E0BE016F5F7F4F73
:104C900069DE0F90DF91CF9108958F929F92AF922E
:104CA000BF92CF92DF92EF92FF920F931F93CF9319
:104CB000DF9300D01F92CDB7DEB77C0180E2689F02
:104CC0006001112496012A593C4FD9011B969C91F1
:104CD000917121F0842F827409F094C0142FF70190
:104CE000628B8091020290910302A0910402B09124
:104CF000050286879787A08BB18BF601EA59FC4F96
:104D00004489558960E070E0BA0155274427D701EE
:104D100057964D935D936D937C935A97828D938DA7
:104D2000A0E0B0E0482B592B6A2B7B2BD70157967C
:104D30004D935D936D937C935A97D9011B968C91FB
:104D4000887159F4848D958DA68DB78DF701838B6D
:104D5000948BA58BB68B81E011C0803109F052C0D5
:104D600097012D5E3F4FD7015B968D919C915C978B
:104D7000C0DC882309F446C084E0F7018583812FD5
:104D80008F70D70114968C931497F70116821782AF
:104D9000108611861A961D921D921D921C921D97C7
:104DA00016FF32C015968C91813061F511FF2AC033
:104DB000F7014389548965897689452B462B472B12
:104DC00009F45CC040E050E0BA01C70136DD882339
:104DD000C9F0F7018788908CA18CB28CC38CD48CDD
:104DE00082E090E0A0E0B0E0F60180839183A283AE
:104DF000B3839E012F5F3F4FB501A401C601F6DBCF
:104E0000811104C080E03AC081E038C000E010E0C9
:104E10009801B501A401C6014ADB882399F3898072
:104E20009A80AB80BC80D60157968C91803129F056
:104E300088EF9FEFAFEFBFE004C088EF9FEFA0E0E7
:104E4000B0E088169906AA06BB0698F2D7015796D5
:104E50001D921D921D921C925A97F701138A148A73
:104E6000158A168A848180688483C701AADC882316
:104E700049F240E050E0BA01C701DFDC0F900F902B
:104E80000F900F90DF91CF911F910F91FF90EF90B6
:104E9000DF90CF90BF90AF909F908F9008954F92EA
:104EA0005F926F927F92AF92BF92CF92DF92EF921A
:104EB000FF920F931F93CF93DF93CDB7DEB72B975E
:104EC0000FB6F894DEBF0FBECDBF7C01CE010196B8
:104ED0006C01FC0190E28BE08C0D91938E13FDCF61
:104EE000DA0130E047E09D91992339F19E3219F0C3
:104EF000E1E0FBE00AC04A3009F46FC138E04AE063
:104F0000F2CF3196891709F468C184918111F9CFE4
:104F1000431708F462C18FED890F8E3508F05DC12B
:104F200081E0830FF601E30FF11D3FE9390F3A31BC
:104F300008F490529083382FD6CF8981803209F4BB
:104F40004CC1B22E8B01DB015B968D919C915C97DD
:104F5000F701948F838F16961D921D921D921C92BD
:104F60001997FB011286138614861586712CF80199
:104F700082859385A485B585438954896589768919
:104F800084179507A607B70708F060C025E0B69517
:104F9000A795979587952A95D1F7F82FFF706F2ED3
:104FA000D80115968C91823008F417C1C8010E946F
:104FB000731697FD12C1F80182859385A485B58586
:104FC0004F96A11DB11D82879387A487B587F0E214
:104FD0006F9EC0011124BC016A597C4F6115710597
:104FE00009F4FBC0DB012C91222319F0253EC1F40A
:104FF00026C071100EC0F701628A409102025091E2
:105000000302609104027091050246875787608B06
:10501000718BFC01EA59FC4F8081811112C014C0D0
:105020004BE050E0C6019ED7892B09F0A0CF8B2D15
:105030008073803309F4D1C04B2D662DCBC077200F
:10504000D1F27724739493CF772473948B2D82714C
:10505000823109F0C2C07720C9F0D7011E966D9148
:105060007D918D919C91519741E0D9D9882309F484
:10507000B4C0F7016289F0E26F9FB00111246A5950
:105080007C4F6115710509F079C0A7C0D80115964C
:105090008C91823009F4A1C0C8010E94DF128823DC
:1050A00009F49BC0D8015B96ED91FC915C97169634
:1050B0004D905D906D907C901997B2E04B1A51081D
:1050C00061087108058404C0440C551C661C771CDB
:1050D0000A94D2F786859785A089B189480E591E12
:1050E0006A1E7B1EA480E1E04E1A51086108710817
:1050F000AA2009F10E94FA1F882309F46EC0E6E68F
:10510000F3E0119225E0E636F207D9F7D301C201A8
:105110008A0D911DA11DB11D80930202909303027F
:10512000A0930402B093050280911D0781608093D3
:105130001D07AA94DDCFD8015B96ED91FC915C9799
:1051400080E092E0A0E0B0E0058404C0880F991FE1
:10515000AA1FBB1F0A94D2F7F801438954896589B5
:105160007689840F951FA61FB71F838B948BA58B01
:10517000B68BD70152961C9266E673E080E2FB0183
:1051800011928A95E9F78BE0F601DB0101900D920F
:105190008A95E1F781E298E2DB0151969C938E9328
:1051A000509720E038E01F963C932E931E9753961D
:1051B0009C938E93529759969C938E93589757969B
:1051C0003C932E9356970E94FA1F882331F04B2D63
:1051D000F7016289C70161DD01C080E02B960FB63F
:1051E000F894DEBF0FBECDBFDF91CF911F910F911D
:1051F000FF90EF90DF90CF90BF90AF907F906F9037
:105200005F904F900895CF93DF93EC01DADA882313
:1052100011F01D8281E0DF91CF91089580911607F2
:10522000909117076EC4CF93DF93CDB7DEB7A397E6
:105230000FB6F894DEBF0FBECDBF789484B5826000
:1052400084BD84B5816084BD85B5826085BD85B52A
:10525000816085BD80916E00816080936E001092A8
:105260008100809181008260809381008091810023
:1052700081608093810080918000816080938000B4
:105280008091B10084608093B1008091B000816012
:105290008093B00080919100826080939100809112
:1052A0009100816080939100809190008160809353
:1052B00090008091A10082608093A1008091A10064
:1052C00081608093A1008091A00081608093A00004
:1052D0008091210182608093210180912101816070
:1052E0008093210180912001816080932001809131
:1052F0007A00846080937A0080917A008260809343
:105300007A0080917A00816080937A0080917A009F
:10531000806880937A001092C1001092B5061092B6
:10532000B6061092B7061092B80610927306109245
:10533000740610927506109276060E940B216B017E
:105340007C014B015C0188EB880E8BE0981EA11C50
:10535000B11C0E940B216C157D058E059F0528F060
:1053600086169706A806B906A0F784ED95E09093F7
:10537000B4068093B3060E940A1B0E940B2160931F
:1053800073067093740680937506909376066BEEA1
:1053900072E08091B3069091B4060E945C070E946F
:1053A0000B216B017C014B015C018AE0880E911C92
:1053B000A11CB11C0E940B216C157D058E059F055B
:1053C00028F086169706A806B906A0F781E0809314
:1053D000870610926905109268051092B205109226
:1053E000D3051092B0058093AF0510928A0561E055
:1053F00084E10E94562061E085E10E945620809160
:10540000B9008E7F8093B9008091B9008D7F809321
:10541000B90088E48093B80085E48093BC000E94C2
:105420000A1B8AE29AE00E94D01C83E19AE00E9463
:10543000D01C87E00E94EB1A8EEF99E00E94AF1C0F
:105440001092C6061092C4061092C1061092C006B1
:1054500084E08093BF060E940B218B018091BF06E0
:105460000E94EB1A61E08091BF060E9456200E94C4
:10547000B91782E58093B9061092BA068091B906F1
:105480009091BA060E9428145AE0F52E8FEF0E94E0
:105490001006FA94F110FACF8BEB96E00E942B14D1
:1054A00020E030E0A90160E08BEB96E00E94401420
:1054B000F82E8093C50681E0F81649F00E940B2172
:1054C000601B710B613D774058F381E056C02AEABA
:1054D00031E040E050E068E08BEB96E00E94401441
:1054E00082FF03C0F092C60610C044E0F42E0E9472
:1054F000F3138093C506FA94F110F9CF8A3A11F0AC
:1055000082E03BC082E08093C6068091C60682306E
:1055100021F0C12CD12C760105C0C12CD12CE12C5D
:1055200030E4F32E20E030E0A90167E38BEB96E056
:105530000E944014A701960169E28BEB96E00E945D
:1055400040148093C506882349F00E940B21601BFC
:10555000710B613D774030F388E00FC08091C60643
:10556000823001F520E030E0A9016AE38BEB96E0A0
:105570000E944014882341F086E08093C0068BEBA4
:1055800096E00E94E8139FC00E94F313807C803C49
:1055900019F483E08093C6060E94F3130E94F3136C
:1055A0000E94F3138BEB96E00E94E81380E5809352
:1055B000B9061092BA0681E00E94A91D882329F03D
:1055C0008091EA06882341F07EC080E00E94A91DF8
:1055D000882309F478C0F4CF8091DE06803109F584
:1055E00082E08093EA061092FC061092FD0610926B
:1055F000FE061092FF068091DF069091E006A0E083
:10560000B0E025E0880F991FAA1FBB1F2A95D1F78C
:105610008093F8069093F906A093FA06B093FB06E0
:105620001DC0803209F04FC083E08093EA064091AC
:10563000E1065091E2066091E3067091E406409322
:10564000FC065093FD066093FE067093FF0628EF5C
:1056500036E087EC96E04DD88823A9F187EC96E0F8
:10566000909301078093000781E08093E9061092F0
:10567000EB061092EC061092ED061092EE061092D8
:10568000EF061092F0061092F1061092F2061092B8
:10569000F3061092F4061092F5061092F606109298
:1056A000F7068AEC99E00E94D01C60911607709171
:1056B000170741E0CE0101960E94321BEA8DFB8D57
:1056C000309731F458C085EE99E00E94D01CDEC0BE
:1056D0008581882309F44FC0CE0101960E940116EE
:1056E000892B09F443C06CEF72E0CE014C960E9406
:1056F0007B1FCE0101960E94801D97FD1DC08A3040
:105700009105D1F08AA31BA208A119A10F5F1F4F19
:10571000B801CE014C960E94231F882351F32C8D93
:105720003D8D88A199A1BE016E5D7F4F820F931FB1
:105730003AD419A308A3DDCF8CEB99E00E94D01CCA
:10574000CE014C960E94691D0C8D1D8D0115110511
:1057500019F0C8016ED203C060E070E0CB01709315
:10576000010260930002C801CCD1B6CFCE010196F0
:105770000E94DF1504C08DE999E00E94D01C0E94B0
:10578000B91765E570E080E890E00E94361C80E083
:1057900090E00E94501D853559F080E899E00E9404
:1057A000D01C68EE73E080E090E00E94D320E9CF47
:1057B00086E699E00E94D01C61E070E08FEF90E0F7
:1057C0000E94601CBE016E5D7F4F8AE00E94DF1C5C
:1057D000BE01645E7F4F8BE00E94DF1C8AA186328F
:1057E00059F084E499E00E94D01C68EE73E080E0F8
:1057F00090E00E94D320E0CF8BE299E00E94D01C81
:1058000081E080931307809114078530A9F561E04A
:1058100070E08FEF90E00E94601C60E870E082E131
:1058200090E00E94601C64E670E080E090E00E94DE
:10583000D320809113078130D9F487E892E00E9449
:10584000881C8FE592E00E94881C8BE392E00E9406
:10585000881C61E070E08FEF90E00E94601C60E0C7
:1058600070E085E190E00E94601C8BE898E002C047
:1058700083E895E00E94881C8BE898E00E94881CD1
:1058800061E070E084E890E00E94361C10926203B0
:1058900010926303109264031092650384ED95E007
:1058A0000E948F1F892B31F084ED95E00E945419DE
:1058B0000E9471070E949B1FE9CFCF93DF93E4ED15
:1058C000F5E01382128288EE93E0A0E0B0E08483DA
:1058D0009583A683B78326E232E03183208325ECCB
:1058E00030E03587248724EC30E03787268720ECAA
:1058F00030E0318B208B21EC30E0338B228B22EC9B
:1059000030E0358B248B26EC30E0378B268B118EE4
:10591000128E138E148EE1E7F6E01682178210863F
:105920001186128613861486158616861786108AA7
:10593000118A128A138A148A158AE9EBF6E020E5A7
:1059400020831182EBEBF6E0158216821186138616
:1059500042E050E060E070E04487558766877787D3
:1059600013A215A614A628E332E033A722A717A690
:10597000E4E0F7E01382128284839583A683B783E1
:1059800084E492E0918380836DEF72E086E197E09A
:105990000E947B1FE2ECFAE0E491F0E0EE0FFF1FC3
:1059A000EF55F54F85919491C0E1D7E099838883B5
:1059B000E2E6FAE0E491EA8387E00E94EB1AE881EC
:1059C000F98190818A81892B808385E08C8380E6B0
:1059D0008D83DF91CF910895CF93DF93823091052E
:1059E00010F482E090E0E0913D07F0913E0720E066
:1059F00030E0C0E0D0E0309711F14081518148178C
:105A00005907C0F04817590761F4828193812097A4
:105A100019F09B838A832BC090933E0780933D07A8
:105A200026C02115310519F04217530718F49A01C1
:105A3000BE01DF01EF010280F381E02DDCCF2115F3
:105A4000310509F1281B390B2430310590F41296E9
:105A50008D919C9113976115710521F0FB01938342
:105A6000828304C090933E0780933D07FD013296E8
:105A700044C0FD01E20FF31F81939193225031093D
:105A80002D933C933AC020913B0730913C07232B48
:105A900041F4209108023091090230933C07209391
:105AA0003B0720910602309107022115310541F490
:105AB0002DB73EB740910A0250910B02241B350BC3
:105AC000E0913B07F0913C07E217F307A0F42E1B8F
:105AD0003F0B2817390778F0AC014E5F5F4F241752
