:100000000C9438060C9460060C9460060C94012441
:100010000C9401240C9401240C9460060C9460064A
:100020000C9460060C9460060C9460060C946006B8
:100030000C9460060C9460060C9460060C946006A8
:100040000C941A170C9460060C9456160C943016E7
:100050000C9460060C9460060C9460060C94600688
:100060000C9475070C946006E0001400E100770022
:10007000E5001F00D7000300DA001000E0000000D8
:10008000FF00010004000800FF00FF00FF00000067
:1000900005000000DA001000D7000300DF000000B8
:1000A000330080003C004000E100770000000000C9
:1000B000FF00FF00FF0000002C00FF002E00DF000B
:1000C000FF0001003C0032001100000009000200A6
:1000D000040028001300E500140048002C000C0068
:1000E000330078003A0033003B00FB003E00000084
:1000F0004300110016001000390092003500DA00AC
:1001000022001A003700C300230000003400C000A2
:1001100036001A00060088000700C0000D008700A6
:100120000E0041004C000000480000005B00000091
:10013000420003004A008100210099002400400091
:1001400025003800260082005C00000063000000EB
:1001500061007000620080007C00050020008000CB
:10016000280030006C0000006D0080006E00000070
:1001700070000200710094007300C1001200400082
:100180001700110018004300190000001A004B006E
:10019000320009003700C0004F0060005000A80086
:1001A0006D0000003D00380046003F004F00600039
:1001B0000C003C00FF000000E5007F00F900C000DB
:1001C00041002400E00014007600FF003300A0008E
:1001D00042002000430018004C0000008700D500BA
:1001E00088003F00D7000300D9001000D300820030
:1001F000C8000800C90080007C0000007D000000ED
:100200007C0003007D0048007D0048007C00080061
:100210007D0020007D0010007D000E009000000099
:1002200091000E0091001A009100310091005A00D7
:10023000910069009100750091007E009100880096
:1002400091008F00910096009100A3009100AF00F3
:100250009100C4009100D7009100E80091002000B7
:1002600092000000930006009300E3009300050055
:100270009300050093000000930004009300000029
:100280009300000093000000930000009300000022
:100290009300000093000000960000009700080003
:1002A000970019009700020097000C0097002400A7
:1002B0009700300097002800970026009700020062
:1002C00097009800970080009700000097000000BA
:1002D000C300ED00A4000000A8000000C50011004C
:1002E000C6005100BF008000C7001000B6006600C5
:1002F000B800A500B7006400B9007C00B300AF00EF
:10030000B4009700B500FF00B000C500B100940034
:10031000B2000F00C4005C00C0006400C1004B00CC
:100320008C00000086003D00500000005100C80015
:1003300052009600530000005400000055000000D9
:100340005A00C8005B0096005C000000D30000006B
:10035000C300ED007F000000DA000000E5001F0090
:10036000E1006700E0000000DD007F000500000004
:1003700012004000D3000400C0001600C1001200AB
:100380008C00000086003D005000000051002C0051
:1003900052002400530000005400000055000000EB
:1003A0005A002C005B0024005C000000FF00FF00EE
:1003B000FF0000002C00FF002E00DF00FF00010006
:1003C0003C00320011000000090002000400A800F7
:1003D0001300E500140048002C000C0033007800E6
:1003E0003A0033003B00FB003E00000043001100D8
:1003F00016001000390002003500880022000A00B3
:1004000037004000230000003400A0000600020076
:10041000060088000700C0000D00B7000E000100B4
:100420004C0000004A008100210099002400400097
:1004300025003800260082005C00000063000000F8
:10044000460022000C003A005D0055005E007D0071
:100450005F007D0060005500610070006200800058
:100460007C00050020008000280030006C000000A7
:100470006D0080006E0000007000020071009400AA
:100480007300C1003D003400120004005A00570000
:100490004F00BB0050009C00FF000000E5007F0003
:1004A000F900C00041002400E00014007600FF00C5
:1004B0003300A00042002000430018004C00000060
:1004C0008700D00088003F00D7000300D90010004B
:1004D000D3008200C8000800C90080007C00000032
:1004E0007D0000007C0003007D0048007D00480086
:1004F0007C0008007D0020007D0010007D000E00C3
:100500009000000091000E0091001A00910031004F
:1005100091005A00910069009100750091007E00E1
:100520009100880091008F00910096009100A30037
:100530009100AF009100C4009100D7009100E80045
:100540009100200092000000930006009300E30059
:100550009300030093000300930000009300020047
:10056000930000009300000093000000930000003F
:10057000930000009300000093000000960000002C
:1005800097000800970019009700020097000C00E0
:10059000970024009700300097002800970026005D
:1005A00097000200970098009700800097000000D5
:1005B00097000000A4000000A8000000C500110082
:1005C000C6005100BF008000C7001000B6006600E2
:1005D000B800A500B7006400B9007C00B300AF000C
:1005E000B4009700B500FF00B000C500B100940052
:1005F000B2000F00C4005C00A6000000A7002000AD
:10060000A700D800A7001B00A7003100A70000002A
:10061000A7001800A7002000A700D800A700190015
:10062000A7003100A7000000A7001800A7002000C5
:10063000A700D800A7001900A7003100A7000000FC
:10064000A70018007F000000E5001F00E100770010
:10065000DD007F00C2000E00FF000000E00004008B
:10066000C000C800C100960086003D005100900007
:1006700052002C0053000000540000005500880078
:1006800057000000500092005A0050005B003C00F0
:100690005C000000D3000400E0000000FF00000048
:1006A00005000000DA000800D7000300E0000000A9
:1006B00005000000FF00FF00FF00010012004000E5
:1006C0001700110018004300190000001A004B0029
:1006D000320009004F00CA005000A8005A00230051
:1006E0006D000000390012003500DA0022001A0007
:1006F0003700C300230000003400C00036001A0099
:10070000060088000700C0000D0087000E004100B1
:100710004C000000FF000000E0000400C000640086
:10072000C1004B0086003500500089005100C80010
:1007300052009600530000005400000055000000D5
:10074000570000005A0050005B003C005C000000B5
:10075000E0000000FF00FF0041434B20434D4420D8
:100760004F56323634302064657465637465642E88
:100770000041434B20434D442043616E2774206663
:10078000696E64204F5632363430206D6F64756C5C
:1007900065210041434B20434D442053504920697B
:1007A0006E74657266616365204F4B2E0041434B4A
:1007B00020434D442053504920696E746572666130
:1007C0006365204572726F722100496D6167652013
:1007D000636F756E7465722066696C65206F7065F5
:1007E0006E206661696C65640053746F7265642085
:1007F00076616C75653A00534420496E697469618D
:100800006C697A6174696F6E20636F6D706C65746A
:100810006500534420496E697469616C697A61743A
:10082000696F6E206661696C656400496E69746900
:10083000616C697A696E6720534420636172640059
:1008400041434B20434D44204172647543414D2048
:100850005374617274210053746172742053657211
:1008600069616C2061742039323136303000456E58
:1008700074657265642063617074757265206D6F54
:10088000646520320041434B20434D442043414D99
:10089000204361707475726520446F6E652E00523E
:1008A0006563656976656420612076616C75652095
:1008B00061733A200046696C65206E616D65206742
:1008C000656E6572617465643A2000496D616765A3
:1008D00020636F756E7465722066696C65206E6F3B
:1008E0007420666F756E6400496D61676520636F83
:1008F000756E7465722066696C6520666F756E64CE
:10090000004F70656E696E672074686520696D615F
:10091000676520636F756E7465722066696C65002B
:10092000456E642066756E6374696F6E0042726511
:10093000616B696E6720746865206C6F6F70004131
:10094000434B20494D4700426567696E20777269C5
:100950007465206F7065726174696F6E0046696CB2
:1009600065206F70656E656420737563636573736E
:1009700066756C6C790046696C65206F70656E20D9
:100980006661696C6564004F70656E207265717593
:1009900065737465640053697A6520697320302E2D
:1009A000004F7665722073697A652E005265636F19
:1009B000726420766964656F204F4B2E00496E6427
:1009C000657820626F647920737461727420706F2F
:1009D000736974696F6E3A00496E64657820626F5E
:1009E00064792073697A653A006368756E6B207369
:1009F000697A653A005265636F7264696E67207642
:100A00006964656F2C20706C65617365207761691E
:100A1000742E2E2E005200490046004600D80001D8
:100A2000000E00000041005600490020004C004923
:100A30000053005400D00000000000000068006473
:100A40000072006C006100760069006800380000E8
:100A50000000000000A00086000100000080006689
:100A60000001000000000000000000000010000075
:100A70000000000000640000000000000000000012
:100A80000000000000010000000000000000000065
:100A900000000000004000010000000000F0000025
:100AA0000000000000000000000000000000000046
:100AB0000000000000000000000000000000000036
:100AC00000000000004C0049005300540084000066
:100AD00000000000007300740072006C007300746A
:100AE000007200680030000000000000007600691D
:100AF00000640073004D004A0050004700000000F1
:100B000000000000000000000000000000000000E5
:100B100000000000000100000000000000050000CF
:100B2000000000000000000000000000000A0000BB
:100B300000000000000000000000000000000000B5
:100B400000000000000000000000000000730074BE
:100B5000007200660028000000000000002800006D
:100B600000000000004000010000000000F0000054
:100B7000000000000001000000180000004D004AC5
:100B80000050004700000084000300000000000047
:100B90000000000000000000000000000000000055
:100BA000000000000000000000000000004C0049B0
:100BB000005300540010000000000000006F0064AB
:100BC000006D006C0064006D006C006800040000A3
:100BD000000000000064000000000000004C00491C
:100BE0000053005400000001000E0000006D006F73
:100BF0000076006900566964656F2046696C65205F
:100C00006F70656E206661696C65640000000000AD
:100C1000240027002A00010204081020408001025D
:100C20000408102001020408102000000000250024
:100C300028002B0004040404040404040202020239
:100C400002020303030303037C3C3E5E2B3D3F2F64
:100C50005B5D3B2C2A225C000000000800020100C2
:100C6000000304070000000000000000A2299E29E4
:100C700011241FBECFEFD8E0DEBFCDBF11E0A0E052
:100C8000B1E0E6EBFAE502C005900D92A63CB10793
:100C9000D9F725E0A6ECB1E001C01D92AD3EB20748
:100CA000E1F716E0C7E3D6E004C02197FE010E94F9
:100CB000422CC633D107C9F70E9469240C944E2DEB
:100CC0000C94000085ED8093BC008091BC0084FDF5
:100CD000FCCF1092690408954091FA01262F30E06C
:100CE000240F311D21323105DCF4209169042430B8
:100CF000C9F4FC0180E090E0861758F43091FA01C5
:100D00002191DC01A852BE4FA30FB11D2C93019677
:100D1000F3CF8091FA01680F6093FA0180E00895A3
:100D200081E0089582E008950895E0912204809181
:100D30002104E81730F4F0E0ED5DFB4F808190E096
:100D400008958FEF9FEF08959091220480912104E0
:100D5000981750F4E92FF0E0ED5DFB4F208130E073
:100D60009F5F9093220402C02FEF3FEFC9010895C7
:100D70008091210490E020912204821B9109089522
:100D8000CF92DF92EF92FF920F931F93CF93DF9357
:100D90007C01262F972F8A0180916A04882391F085
:100DA000C62FD72F6E01C40ED51ECC15DD0571F0F0
:100DB0006991D701ED91FC910190F081E02DC7017F
:100DC0000995F3CF642F822F0E946C06C801DF9132
:100DD000CF911F910F91FF90EF90DF90CF900895EA
:100DE000CF93DF931F92CDB7DEB7698320916A045A
:100DF0002223D1F020918C04203240F021E030E019
:100E0000FC013383228380E090E015C080916B0465
:100E1000E82FF0E0E459FB4F998190838F5F809336
:100E20006B0480938C0405C061E0CE0101960E94A2
:100E30006C0681E090E00F90DF91CF910895CF9301
:100E4000DF93EC01FB01828193819B838A83848100
:100E50009581A681B7818C839D83AE83BF83808576
:100E60009185A285B38588879987AA87BB878CE1FE
:100E700091E0998388838DE03C96DE011C96019079
:100E80000D928A95E1F7FB01818D928D9A8F898F62
:100E9000DF91CF910895089580E090E00895CF927A
:100EA000DF92EF92FF92CF93DF936B017C01EA0117
:100EB000CA010E94741D99278F2D7E2D6D2DCE01A4
:100EC0000E94741DB70188279927CE010E94741DC6
:100ED0006F2D772788279927CE01DF91CF91FF903B
:100EE000EF90DF90CF900C94741D1F920F920FB66D
:100EF0000F9211242F933F934F935F936F937F93A0
:100F00008F939F93AF93BF93EF93FF938091B9001B
:100F1000887F803609F49CC068F5883209F45BC08C
:100F200090F4803109F454C038F4882309F4F6C0F1
:100F3000883009F44DC0F6C0883109F44CC08032C5
:100F400009F45DC0EFC0803409F468C048F4803310
:100F500009F455C0883309F0E5C080936704D8C010
:100F6000803509F44FC0883509F45DC0883409F034
:100F7000D9C0D6C0883909F4C7C0A8F4883709F4A5
:100F800067C038F4883609F463C0803709F460C05C
:100F9000C9C0883809F4B8C0803909F45FC0803806
:100FA00009F0C0C05BC0803B09F486C038F4803AC9
:100FB00009F466C0883A09F47FC0B4C0803C09F4E3
:100FC000A7C0883C09F4A4C0883B09F48AC0AAC021
:100FD0008091440410C09091660480916504981734
:100FE00070F5E091660481E08E0F80936604F0E076
:100FF000EB5BFB4F80818093BB0085EC86C08093C8
:1010000067048EC0E091660481E08E0F80936604D1
:101010008091BB00F0E0EB5BFB4F80839091660416
:10102000809165046EC0E091660481E08E0F80932C
:1010300066048091BB00F0E0EB5BFB4F8083809106
:10104000680481116DC081E08093430484EA61C02B
:1010500083E08093690410921E02CFCF80911E021C
:10106000803208F051C0E0911E0281E08E0F809323
:101070001E028091BB00F0E0E250FE4F8083BDCFA6
:1010800085EC8093BC001092690480911E0280322E
:1010900030F4E0911E02F0E0E250FE4F10826091C9
:1010A0001E0270E0E091FC01F091FD018EEF91E0F5
:1010B000099510921E0236C084E080936904109254
:1010C000FB011092FA01E091F801F091F901099504
:1010D0008091FA01811105C081E08093FA0110929C
:1010E000D801E091FB0181E08E0F8093FB01F0E0DD
:1010F000E852FE4F80818093BB009091FB0180916C
:10110000FA01981708F479CF85E88093BC000AC0EB
:1011100085EC8093BC001092690404C010926704AF
:101120000E946206FF91EF91BF91AF919F918F91C5
:101130007F916F915F914F913F912F910F900FBED3
:101140000F901F901895AF92BF92CF92DF92EF92BF
:10115000FF920F931F93CF93DF93CDB7DEB7E9973D
:101160000FB6F894DEBF0FBECDBF7C01D62E60E176
:1011700077E280E090E00E94D41680910001909187
:1011800001010196909301018093000181E099E0B3
:101190000E94EF118091E9059091EA058E010F5FA1
:1011A0001F4F009721F4C8018D5E954004C098013F
:1011B000281B390BC9019A83898369817A818DE85B
:1011C00094E00E94B81460E177E280E090E00E9431
:1011D000D4168FEC95E00E94721260E177E280E015
:1011E00090E00E94D4166091CF057091D00542E541
:1011F000C8010E94731060910001709101018DE897
:1012000094E00E94B814EA8DFB8D309711F185812E
:101210008823F9F088EE98E00E94EF1160910001B8
:1012200070910101C8010E94B814C8010E946F2288
:101230006EE971E0CE018E960E945A14DD2099F07D
:1012400044E050E063EA71E0CE018E960E941D14E6
:101250000AC08BEC98E00E94EF1169E871E0C701C9
:101260000E945A1475C085EB98E00E94EF1180919E
:101270000001909101011DAA1CAA1FAA1EAA19AE65
:1012800018AE8E01045E1F4F4AE0B8010E94852B04
:10129000F80101900020E9F73197AF01401B510B95
:1012A000B801CE01C4960E941D148AA99BA9AEA4C0
:1012B000BFA4C8ACD9ACA114B10409F444C00097D0
:1012C000A1F0C80ED91EB601CE01C4960E94E41347
:1012D0008823C9F12CA93DA988AD99ADB501820F2C
:1012E000931F0E94382DD9AEC8AE1D8E1C8E1F8E46
:1012F0001E8E19A218A2BE016C5C7F4FC8010E940D
:101300003E14CE01C4960E945514C8010E94721268
:101310008C8D9D8DF701918380838E8D9F8D93831E
:10132000828388A199A1958384831D8E1C8E1F8E34
:101330001E8E19A218A2C8010E945514CE018E96C5
:101340000E94551405C0CE01C4960E940B14CDCF47
:10135000C701E9960FB6F894DEBF0FBECDBFDF918F
:10136000CF911F910F91FF90EF90DF90CF90BF90A2
:10137000AF9008958EBD00000DB407FEFDCF8EB571
:1013800008954F925F926F927F928F929F92AF9249
:10139000BF92CF92DF92EF92FF920F931F93CF9362
:1013A000DF93CDB7DEB7C752D1400FB6F894DEBF9A
:1013B0000FBECDBFCE5DDE4F4883C252D140CD5D62
:1013C000DE4F5883C352D140CC5DDE4F6883C45298
:1013D000D140CB5DDE4F7883C552D140CA5DDE4F30
:1013E0008883C652D140C95DDE4F9883C752D14031
:1013F000790169E871E0CE01845E9E4F0E945A1423
:10140000CE018E5D9E4F0E94BC174B015C018FEF99
:101410008816980685E0A806B10480F081EA99E074
:101420000E94EF11002341F0CE018E5D9E4F0E947D
:10143000E11782E08093C60110E001C1811491049C
:10144000A104B10419F486E999E0EACFB701CE010D
:10145000845E9E4F0E943E14CE01845E9E4F0E9489
:101460007212C45EDE4F68817981CC51D14043E174
:10147000CE018F5F9E4F0E94731087E899E00E9413
:10148000EF11C65EDE4FE881F981CA51D140309735
:1014900019F08581811105C086E799E00E94EF115E
:1014A000CBCF8DE599E00E94EF116091D10170E002
:1014B0008DE894E00E94B81487E499E00E94EF114F
:1014C000CE018E5D9E4F0E94A7178CE30E94BA0941
:1014D00080E00E94BA09482EC12CD12C76017724D5
:1014E000739466246A9498ED592E81E088169104CD
:1014F000A104B10409F48DC080E00E94BA09182F3C
:101500008091D101882389F18FEFC816D104E104BD
:10151000F10409F068F4E1E0F0E0EC0FFD1FEC0DE0
:10152000FD1D10838FEFC81AD80AE80AF80A41C0D7
:10153000CE018E5D9E4F0E94B21740E051E0BE0189
:101540006F5F7F4FCE018F5F9E4F0E94921D198368
:10155000CE018E5D9E4F0E94A7178CE30E94BA09B0
:10156000C12CD12C7601C39424C0183D11F58FEF06
:10157000481248C07092D1018FE399E00E94EF11A8
:10158000E1E0F0E0EC0FFD1FEC0DFD1D6082D701E6
:10159000C6010196A11DB11DE1E0F0E0EC0FFD1FB9
:1015A000E80FF91F82E0C80ED11CE11CF11C50822B
:1015B00029C0193D39F58FEF481224C0E1E0F0E071
:1015C000EC0FFD1FEC0DFD1D1083CE018E5D9E4FB7
:1015D0000E94B217B701A6014F5F5F4F6F4F7F4F59
:1015E000BE016F5F7F4FCE018F5F9E4F0E94921DA5
:1015F000CE018F5F9E4F0E946F228DE299E00E9484
:10160000EF1107C081E0881A9108A108B108412EA6
:101610006CCFCE018E5D9E4F0E94B21780E299E0A2
:101620000E94EF11002341F0CE018E5D9E4F0E947B
:10163000E11782E08093C6011092D10111E0CE0142
:10164000845E9E4F0E945514812FC95DDE4F0FB6F8
:10165000F894DEBF0FBECDBFDF91CF911F910F91E8
:10166000FF90EF90DF90CF90BF90AF909F908F90C2
:101670007F906F905F904F900895DC01ED91FC9109
:101680000280F381E02D09946115710579F0FB0169
:1016900001900020E9F73197AF01461B570BDC01A1
:1016A000ED91FC910280F381E02D099480E090E0BF
:1016B00008952F923F924F925F926F927F928F92F6
:1016C0009F92AF92BF92CF92DF92EF92FF920F93D1
:1016D0001F93CF93DF93CDB7DEB7C35AD1400FB678
:1016E000F894DEBF0FBECDBFC959DE4F19821882F4
:1016F000C756D14088EE93E0A0E0B0E0C759DE4F76
:1017000088839983AA83BB83C956D1408CE191E039
:10171000CB59DE4F99838883C556D140C258DE4FDE
:1017200019821882CE57D140CF58DE4F1882C15748
:10173000D14061E0CE0185569E4F0E94A308C55658
:10174000DE4F68817981CB59D14042E5CE010196C7
:101750000E9473108B819C81C959DE4F99838883C5
:10176000C756D1408D819E81AF81B885C759DE4F64
:1017700088839983AA83BB83C956D14089859A857A
:10178000AB85BC85C359DE4F88839983AA83BB830D
:10179000CD56D1408DE0FE013D96A5E6B1E0AC0FFF
:1017A000BD1F1C9601900D928A95E1F7EA8DFB8D85
:1017B000C258DE4FF983E883CE57D140309719F0F5
:1017C0008581811105C085EF9BE00E94EF11FFCF5D
:1017D00020E030E080E090E0F901EB5EF54FE4912D
:1017E000A1E0B0E0AC0FBD1FA80FB91FEC930196AC
:1017F0002E5F3F4F803F910579F79093D7018093FB
:10180000D60140EF50E0BE016F5F7F4FCE018B5994
:101810009E4F0E94921D85EF99E00E94EF118E016C
:101820000F5F1E4FCE018B599E4FCF55DE4F9983D0
:101830008883C15AD1405801712C3CEF232E3324A8
:101840003A94432C532C41E050E064E870E089EC7A
:1018500095E00E947D1789EC95E00E94E11742E037
:1018600050E064E870E089EC95E00E947D1761E447
:1018700070E089EC95E00E94641783FFF8CF89EC53
:1018800095E00E94BC17362F872E682E992E68EAA5
:1018900071E0CE018B599E4FCD55DE4F3883C35A30
:1018A000D1400E94440B44E050E064E171E0CE017D
:1018B0008B599E4F0E943D0B1092D7011092D6017A
:1018C0001092D2011092D3011092D4011092D5013E
:1018D00089EC95E00E94A7178CE30E94BA09CD55C8
:1018E000DE4F3881C35AD140C32ED82CE62CF92CB8
:1018F00090E0C114D104E104F10409F4CAC080E00D
:10190000CD55DE4F9883C35AD1400E94BA09682E44
:10191000CD55DE4F9881C35AD140E9ED8E1344C0B6
:101920009F3F09F039C38091D6019091D7014C01B6
:10193000FFEF8F1A9F0A9092D7018092D601E1E0C3
:10194000F0E0EC0FFD1FE80FF91F608289EC95E0D5
:101950000E94B217A401BE016F5F7F4FCE018B5969
:101960009E4F0E94921D8091D6019091D701092E21
:10197000000CAA0BBB0B4091D2015091D301609196
:10198000D4017091D501840F951FA61FB71F8093B6
:10199000D2019093D301A093D401B093D5011092BA
:1019A000D7011092D6014FC0772009F447C080912B
:1019B000D6019091D7018F3F910509F07CF49C01ED
:1019C0002F5F3F4F3093D7012093D601E1E0F0E045
:1019D000EC0FFD1FE80FF91F608252C089EC95E003
:1019E0000E94B21740E051E0BE016F5F7F4FCE0111
:1019F0008B599E4F0E94921D81E090E09093D701F9
:101A00008093D601698289EC95E00E94A7178CE348
:101A10000E94BA098091D2019091D301A091D40182
:101A2000B091D5019F5FAF4FBF4F8093D20190938C
:101A3000D301A093D401B093D50122C0E8ED8E1359
:101A400002C09F3F11F0712C1DC08091D601909172
:101A5000D701E1E0F0E0EC0FFD1FE80FF91F2FEFD9
:101A600020839C012E5F3F4F3093D7012093D601F6
:101A7000E2E0F0E0EC0FFD1FE80FF91F88ED808336
:101A80007724739491E0C91AD108E108F108962DE2
:101A900030CF8091D2019091D301A091D401B09127
:101AA000D501482F41954370840F911DA11DB11D93
:101AB0008093D2019093D301A093D401B093D50128
:101AC000C0900201D0900301E0900401F090050164
:101AD000E8E0CE0ED11CE11CF11C8C0D9D1DAE1D4D
:101AE000BF1D8093020190930301A0930401B09362
:101AF0000501442341F050E064E171E0CE018B59CF
:101B00009E4F0E943D0BC258DE4FE881F981CE57AF
:101B1000D140309729F0428553856485758503C08F
:101B20004FEF5FEFBA01C090D201D090D301E090A7
:101B3000D401F090D501D201C1018C199D09AE09E3
:101B4000BF09480F591F6A1F7B1FCE018B599E4F3B
:101B50000E948122BE016B597E4FCE0180589E4F5C
:101B60000E941F07AE0140585E4FC701B6010E9498
:101B70004F07C258DE4FE881F981CE57D1403097E8
:101B800029F0428553856485758503C04FEF5FEF6B
:101B9000BA014A5F5F4F6F4F7F4FCE018B599E4F07
:101BA0000E94812244E050E06DEA71E0CE018B5941
:101BB0009E4F0E943D0BC258DE4FE881F981CE57FF
:101BC000D140309729F0428553856485758503C0DF
:101BD0004FEF5FEFBA01C090D201D090D301E090F7
:101BE000D401F090D501D701C6010A97A109B10926
:101BF000480F591F6A1F7B1FCE018B599E4F0E94B1
:101C00008122F501C192D1925F0189EE99E00E9493
:101C1000EF11B701A601662777272AE08DE894E047
:101C20000E946F1467E871E08DE894E00E94440B15
:101C3000CF55DE4F88819981C15AD140A816B90687
:101C400009F001CE62EB71E0CE018B599E4F0E94EC
:101C5000440B44E050E064E171E0CE018B599E4FAB
:101C60000E943D0BC258DE4FE881F981CE57D1402A
:101C7000309729F0428453846484758404C04424DA
:101C80004A94542C320194E0892E912CA12CB12C31
:101C900068EA71E0CE018B599E4F0E94440B44E0EC
:101CA00050E060E171E0CE018B599E4F0E943D0BE8
:101CB000BE016B597E4FCE0180589E4F0E941F0778
:101CC000AE0140585E4FC501B4010E944F07BE01EE
:101CD0006B597E4FCE0180589E4F0E941F07F8011E
:101CE000C190D1908F01E12CF12CAE0140585E4F94
:101CF000C701B6010E944F07F8E0CF0ED11CE11CCE
:101D0000F11C8C0C9D1CAE1CBF1CCF55DE4F888176
:101D10009981C15AD1400817190709F0B9CFC258A3
:101D2000DE4FE881F981CE57D140309729F0C28447
:101D3000D384E484F58404C0CC24CA94DC2C7601DA
:101D4000C418D508E608F70888ED99E00E94EF115D
:101D50002AE0B701A6018DE894E00E946F1467E8BD
:101D600071E08DE894E00E94440B8DEB99E00E94B5
:101D7000EF112AE0B301A2018DE894E00E946F14F4
:101D800067E871E08DE894E00E94440BB301A20182
:101D90004450510961097109CE018B599E4F0E942F
:101DA0008122BE016B597E4FCE0180589E4F0E940A
:101DB0001F07AE0140585E4FC701B6010E944F0792
:101DC00044E050E060E070E0CE018B599E4F0E94ED
:101DD0008122BE016B597E4FCE0180589E4F0E94DA
:101DE0001F078091020190910301A0910401B0911D
:101DF000050184519F4FAF4FBF4FBC01CD016C0D0A
:101E00007D1D8E1D9F1DAE0140585E4F0E944F07E5
:101E100040E250E060E070E0CE018B599E4F0E949E
:101E20008122BE016B597E4FCE0180589E4F0E9489
:101E30001F07AE0140585E4F60E47DE083E090E014
:101E40000E944F072091020130910301409104014B
:101E500050910501A5E0B0E00E94F12B22E330E0B3
:101E600040E050E00E94CF2B69017A0144E250E04B
:101E700060E070E0CE018B599E4F0E948122BE012E
:101E80006B597E4FCE0180589E4F0E941F07AE01B6
:101E900040585E4FC701B6010E944F0740E350E033
:101EA00060E070E0CE018B599E4F0E948122BE01FE
:101EB0006B597E4FCE0180589E4F0E941F07AE0186
:101EC00040585E4F62E370E080E090E00E944F0770
:101ED00040EE50E060E070E0CE018B599E4F0E94D2
:101EE0008122BE016B597E4FCE0180589E4F0E94C9
:101EF0001F07AE0140585E4F62E370E080E090E063
:101F00000E944F0748EE50E060E070E0CE018B5930
:101F10009E4F0E948122BE016B597E4FCE01805898
:101F20009E4F0E941F0760910201709103018091F2
:101F3000040190910501AE0140585E4F0E944F0789
:101F400089EC95E00E94B217CE018B599E4F0E94FA
:101F50006F228CEA99E00E94EF11CE0185569E4FC8
:101F60000E945514CD55DE4F0FB6F894DEBF0FBE5C
:101F7000CDBFDF91CF911F910F91FF90EF90DF9038
:101F8000CF90BF90AF909F908F907F906F905F9019
:101F90004F903F902F900895711009CD54CD382F58
:101FA00020918C049091D505213208F049C0809190
:101FB00069048111FCCF42E04093690430936804C6
:101FC0003FEF309367041092660420936504ACE6FB
:101FD000B4E045E454E0FA013E2F341B321718F404
:101FE0003D913193F9CF1092440420914404990F0C
:101FF000922B9093440490914304913061F4109299
:102000004304909144049093BB009091BC0093FDD5
:10201000F8CF95EC01C095EE9093BC0090916904C7
:102020009230E1F3909167049F3F79F080916704CB
:10203000803241F080916704803331F084E005C044
:1020400081E003C082E001C083E010926B04109233
:102050008C0410926A04089590E0FC01EA5EF34F4C
:102060002491FC01EC5CF34F8491882399F090E07B
:10207000880F991FFC01E45FF34FA591B491FC0117
:10208000E65DF34F859194918FB7F894EC91E22B34
:10209000EC938FBF0895EDE8F4E0A089B18982E068
:1020A0008C93A485B5851C92A685B78581E08C9319
:1020B000108EA489B58986E08C93A289B3898C910E
:1020C00080618C93A289B3898C9188608C93A2895A
:1020D000B3898C9180688C930288F389E02D80818C
:1020E0008F7D808308952F923F924F925F926F92DF
:1020F0007F928F929F92AF92BF92CF92DF92EF9298
:10210000FF920F931F93CF93DF93CDB7DEB7C756E0
:10211000D1090FB6F894DEBF0FBECDBF5C014B01F5
:10212000A6964FAFA6973E018EE1680E711C6EE930
:1021300075E0C3010E941E221C821B8280E491E094
:102140009A8389831E8264018E010F5F1F4F2301D2
:1021500018016FE270E0C6010E942D2D009709F46E
:1021600042C0F60120812F3221F4FFEFCF1ADF0A9F
:10217000F0CF8C198D3008F08CE0E82EF12CA701FF
:10218000B601CE01885A9F4F0E943F2DE8E5F0E04E
:10219000EC0FFD1FEE0DFF1D1082C8010E944C1FA9
:1021A000F8018581882351F01EAE1DAE80E491E0D8
:1021B0009CAF8BAF21961FAE219721C021E0AE01CD
:1021C000485A5F4FB201C8010E94BD19882361F3CC
:1021D000CE0CDF1CC2010E944C1F942D852D2801BE
:1021E000092F182FB6CFC60188199909A8969FAF55
:1021F0008EAFA897B201CE01CB960E941E22A89660
:10220000EEADFFADA8978E0E9F1EF4018081811167
:1022100009C0BE01655C7F4FC1010E941E2243ECD4
:1022200051E04BC019A218A280E491E09F8F8E8FDD
:102230001BA221968FAD2197811113C0F501138246
:10224000128288EE93E0A0E0B0E084839583A683B9
:10225000B7838CE191E091838083128E118E148676
:1022600030C08250A6962FADA697A401823040F4CC
:102270006EE975E0C3010E94BD1981110DC0DECF6A
:10228000BE01655C7F4FC3010E94BD198823B1F276
:10229000CE01CB960E944C1FA6968FADA697867056
:1022A00039F049A95AA96BA97CA9C3010E94AE1DA6
:1022B000B301C1010E941E22A401B101C5010E9407
:1022C0008E22C501C959DF4F0FB6F894DEBF0FBE8D
:1022D000CDBFDF91CF911F910F91FF90EF90DF90D5
:1022E000CF90BF90AF909F908F907F906F905F90B6
:1022F0004F903F902F900895CF93C62F2091CE05F9
:1023000030E03595279591E090936A042093D505A8
:1023100010926B0410928C04682F8DEB95E00E9454
:10232000F0066C2F8DEB95E00E94F00681E00E9494
:10233000CF0F811108C061E070E080E090E00E9462
:10234000D41681E001C080E0CF910895EF92FF9212
:102350000F931F93CF93DF93EC01E12CF12C00E05E
:1023600010E08FEFE816F10469F0FE010591149179
:10237000FE013296E590F490B701C8010E947C11ED
:102380002496EFCF0F3F110581F781E090E0DF91B8
:10239000CF911F910F91FF90EF9008950F931F938E
:1023A000CF93DF938C01C0E0D0E0F801EC0FFD1F6C
:1023B0006491662371F0E0918D04F0918E04019098
:1023C000F081E02D8DE894E00995892B11F021969C
:1023D000ECCFCE01DF91CF911F910F910895CF9354
:1023E000DF930E94CE11EC0167E871E08DE894E084
:1023F0000E94440B8C0F9D1FDF91CF910895CF93C6
:10240000DF93EB012091CE0530E03595279591E0E3
:1024100090936A042093D50510926B0410928C045B
:10242000682F8DEB95E00E94F00681E00E94CF0FAF
:102430008091CE05909169049111FCCF91E0909329
:102440006904909368042FEF209367041092660448
:102450001092650490934404909144048E7F892BDC
:102460008093440480914304813061F410924304CA
:10247000809144048093BB008091BC0083FDF8CF21
:1024800085EC01C085EE8093BC00809169048130A9
:10249000E1F380916604811103C08091660401C05C
:1024A00081E0A5E4B4E023E234E0F9019E2F921B21
:1024B000981718F49D919193F9CF1092220480936C
:1024C0002104882329F08DEB95E00E94A4068883DF
:1024D00061E070E080E090E00E94D41681E0DF913E
:1024E000CF910895CF93DF93FC01448155816081A2
:1024F00071818DE894E00E943D0BEC0167E871E08A
:102500008DE894E00E94440B8C0F9D1FDF91CF91CA
:1025100008950F931F93CF93DF93EC010E940E1742
:10252000688779878A879B87CE010E94CD2397FF92
:1025300017C00E940E17088519852A853B85DC0186
:10254000CB01801B910BA20BB30B0C811D812E8143
:102550003F8180179107A207B30730F38FEF9FEFFA
:10256000DF91CF911F910F9108958F929F92AF921B
:10257000BF92CF92DF92EF92FF92CF93DF93C82F5B
:1025800084E795E09093200480931F04CC2369F1A5
:10259000C53010F080E00DC140E060E070E0CB019C
:1025A0000E94E7178823B1F320E1C29FC0011124E4
:1025B000815F9D4FFC01E254FE4F20812F7751F740
:1025C0003C96408151816281738144365105610599
:1025D000710500F33497C080D180E280F380C1148C
:1025E000D104E104F10421F4D5CFC12CD12C760122
:1025F00040E0C701B6010E94E717882359F2809195
:102600002A0290912B028115924021F6A0912F026F
:10261000AA2309F4BFCF60912D0270912E0261159B
:10262000710509F4B7CF20912C02222309F4B2CF0F
:10263000A09392052093840580E030E0E1E0F0E093
:10264000C82FAF01082E02C0440F551F0A94E2F7AD
:102650002417350741F0982F8F5F983089F789E06C
:1026600080938D0597CF80938D0520913502309111
:1026700036022115310519F040E050E008C02091E4
:10268000430230914402409145025091460220930A
:10269000850530938605409387055093880546014C
:1026A0005701860E971EA11CB11C80929305909233
:1026B0009405A0929505B0929605E0913002F091B4
:1026C0003102F0939905E0939805B0E00E94F12B58
:1026D000860E971EA81EB91E80929A0590929B05A1
:1026E000A0929C05B0929D0585E0EE0FFF1F8A9594
:1026F000E1F7E150FE4FEF2FFF27E6958E0E9F1E6C
:10270000A11CB11C80928E0590928F05A09290051D
:10271000B09291052091320230913302211531059A
:1027200021F0A90160E070E008C040913F025091A3
:1027300040026091410270914202D701C60188199E
:102740009909AA09BB09840F951FA61FB71F04C0CA
:10275000B695A79597958795CA95D2F780938905E1
:1027600090938A05A0938B05B0938C05853F2FE04D
:102770009207A105B10510F48CE018C0853F9F4F6A
:10278000A105B10510F480E111C080914B02909138
:102790004C02A0914D02B0914E0280939A05909305
:1027A0009B05A0939C05B0939D0580E280939705BF
:1027B00081E0DF91CF91FF90EF90DF90CF90BF90BD
:1027C000AF909F908F9008950F931F93CF93DF93B7
:1027D000EC0188819981009729F02A813B81261795
:1027E000370788F48B016F5F7F4F0E94482C00975A
:1027F00061F0998388831B830A832C813D81232B7D
:1028000011F4FC01108281E001C080E0DF91CF91E2
:102810001F910F910895CF93DF93EC0188819981E7
:10282000009711F00E94C62A198218821D821C820C
:102830001B821A82DF91CF910895EF92FF920F933E
:102840001F93CF93DF93EC017B018A01BA010E94B1
:10285000E413811104C0CE010E940B1407C01D8334
:102860000C83B701888199810E94382DCE01DF91B8
:10287000CF911F910F91FF90EF900895CF93DF9329
:10288000EC01FB018617970761F06081718161158A
:10289000710529F0448155810E941D1402C00E94D7
:1028A0000B14CE01DF91CF910895FC0180819181BD
:1028B0000C94C62AFC0111821082138212821582A6
:1028C00014826115710551F0FB0101900020E9F7B8
:1028D0003197AF01461B570B0C941D1408954F926E
:1028E0005F926F927F92EF92FF920F931F93CF931D
:1028F000DF93CDB7DEB7A1970FB6F894DEBF0FBE5A
:10290000CDBF7C01FA01CB0119A2223008F42AE0E4
:102910008E010F5D1F4F422E512C612C712CBF0177
:10292000A30192010E94CF2BF901CA0101501109A4
:102930006A3014F4605D01C0695CD8016C93232B8C
:10294000242B252B61F7B801C7010E94440BA196E7
:102950000FB6F894DEBF0FBECDBFDF91CF911F91B0
:102960000F91FF90EF907F906F905F904F90089540
:10297000CF92DF92EF92FF920F931F93CF93DF934B
:10298000EC016B01770FEE08FF08F7FE16C0E88137
:10299000F9810190F081E02D6DE209958C014427C9
:1029A0005527BA014C195D096E097F092AE0CE014D
:1029B0000E946F14080F191F06C02AE0B701A60174
:1029C0000E946F148C0167E871E0CE010E94440BF5
:1029D000800F911FDF91CF911F910F91FF90EF908A
:1029E000DF90CF900895FC01538D448D252F30E06A
:1029F000842F90E0821B930B541710F0CF9608950C
:102A000001970895FC01918D828D981761F0828D58
:102A1000DF01A80FB11D5D968C91928D9F5F9F7312
:102A2000928F90E008958FEF9FEF0895FC01918DB4
:102A3000828D981731F0828DE80FF11D858D90E021
:102A400008958FEF9FEF0895FC01918D228D892FBE
:102A500090E0805C9F4F821B91098F7399270895A6
:102A60008DE894E00E94241521E0892B09F420E0F0
:102A7000822F0895FC01848DDF01A80FB11DA35A98
:102A8000BF4F2C91848D90E001968F739927848F8E
:102A9000A689B7892C93A089B1898C9180648C9385
:102AA000938D848D981306C00288F389E02D808170
:102AB0008F7D80830895EF92FF920F931F93CF93A2
:102AC000DF93EC0181E0888F9B8D8C8D981305C07E
:102AD000E889F989808185FD24C0F62E0B8D10E0F0
:102AE0000F5F1F4F0F731127E02E8C8DE8120CC063
:102AF0000FB607FCFACFE889F989808185FFF5CF09
:102B0000CE010E943A15F1CF8B8DFE01E80FF11D29
:102B1000E35AFF4FF0820B8FEA89FB898081806244
:102B200007C0EE89FF896083E889F9898081806424
:102B3000808381E090E0DF91CF911F910F91FF9012
:102B4000EF900895CF93DF93EC01888D8823C9F02F
:102B5000EA89FB89808185FD05C0A889B9898C91A6
:102B600086FD0FC00FB607FCF5CF808185FFF2CF41
:102B7000A889B9898C9185FFEDCFCE010E943A15C5
:102B8000E7CFDF91CF91089580E090E0892B29F085
:102B90000E94301581110C94000008953FB7F894FD
:102BA0008091E0059091E105A091E205B091E305E7
:102BB00026B5A89B05C02F3F19F00196A11DB11D98
:102BC0003FBFBA2FA92F982F8827820F911DA11DD3
:102BD000B11DBC01CD0142E0660F771F881F991F10
:102BE0004A95D1F708950E94122D8091D605882329
:102BF000A9F140910601509107016091080170917F
:102C000009012FE132E080911F04909120040E947D
:102C1000B321811102C080E008954091D705509101
:102C2000D8056091D9057091DA0541155105610506
:102C3000710591F02FE132E080911F049091200402
:102C40000E94B321882339F31092D7051092D8053A
:102C50001092D9051092DA051092D60581E00895F8
:102C60001F920F920FB60F9211242F933F934F9301
:102C70005F936F937F938F939F93AF93BF93EF93E4
:102C8000FF938DE894E00E943A15FF91EF91BF9178
:102C9000AF919F918F917F916F915F914F913F91F4
:102CA0002F910F900FBE0F901F9018951F920F92AB
:102CB0000FB60F9211242F938F939F93EF93FF934F
:102CC000E0919D04F0919E048081E091A304F09135
:102CD000A40482FD12C090818091A6048F5F8F733F
:102CE0002091A704821751F0E091A604F0E0E35789
:102CF000FB4F958F8093A60401C08081FF91EF91D7
:102D00009F918F912F910F900FBE0F901F9018954C
:102D100090E0FC01E85AF34F3491FC01EA5EF34F76
:102D20002491FC01EC5CF34FE491EE2309F43BC0E9
:102D3000332339F1333091F038F43130A9F03230A7
:102D400001F584B58F7D12C0373091F03830A1F095
:102D50003430B9F4809180008F7D03C08091800071
:102D60008F77809380000DC084B58F7784BD09C0B4
:102D70008091B0008F7703C08091B0008F7D8093E9
:102D8000B000F0E0EE0FFF1FE65DF34FA591B491A8
:102D90008FB7F894EC91611103C020952E2301C0E8
:102DA0002E2B2C938FBF08958F929F92AF92BF923C
:102DB000CF92DF92EF92FF926B017C010E94CE15C1
:102DC0004B015C01C114D104E104F104F1F00E9453
:102DD000CE15DC01CB0188199909AA09BB09883EE7
:102DE0009340A105B10570F321E0C21AD108E108B2
:102DF000F10888EE880E83E0981EA11CB11CC11456
:102E0000D104E104F10419F7DDCFFF90EF90DF90DA
:102E1000CF90BF90AF909F908F9008952FB7F89468
:102E20006091DC057091DD058091DE059091DF05F4
:102E30002FBF08951F920F920FB60F9211242F9358
:102E40003F938F939F93AF93BF938091DC059091B5
:102E5000DD05A091DE05B091DF053091DB0523E0B3
:102E6000230F2D3720F40196A11DB11D05C026E8C2
:102E7000230F0296A11DB11D2093DB058093DC0575
:102E80009093DD05A093DE05B093DF058091E0050A
:102E90009091E105A091E205B091E3050196A11D95
:102EA000B11D8093E0059093E105A093E205B093F6
:102EB000E305BF91AF919F918F913F912F910F901B
:102EC0000FBE0F901F901895CF93DF93EC01862FC4
:102ED000E881F98120819A819095922390830E94C4
:102EE000BA0980E00E94BA09E881F98120819A81BB
:102EF000922B9083DF91CF9108950F931F93CF93DF
:102F0000DF931F92CDB7DEB78C01862FD801ED91EC
:102F1000FC911197208112969C9190959223908319
:102F200049830E94BA094981842F0E94BA09D801B5
:102F3000ED91FC911197908112968C91892B808351
:102F400081E00F90DF91CF911F910F910895DC01E7
:102F5000ED91FC911197908112968C918095892327
:102F600080830895DC01ED91FC9111979081129678
:102F70008C91892B808308950F931F93CF93DF93B8
:102F8000EC0162E470E00E946417082F63E470E0D3
:102F9000CE010E946417182F64E470E0CE010E94F5
:102FA0006417402F50E060E070E0512B8F778A016A
:102FB0009B01282BC901B801DF91CF911F910F917F
:102FC000089541E050E064E870E00C947D178F9222
:102FD0009F92AF92BF92EF92FF920F931F93CF9366
:102FE0004B015C01C42F8091060190910701A091D3
:102FF0000801B091090188159905AA05BB0501F1E1
:103000000E94F515811102C080E020C08FE1E82EFA
:1030100082E0F82E00E012E020E030E0B501A401EB
:1030200080911F04909120040E941F21882361F346
:103030008092060190920701A0920801B0920901C6
:103040008091D605C82BC093D60581E0CF911F9102
:103050000F91FF90EF90BF90AF909F908F90089549
:103060004F925F926F927F928F929F92AF92BF9298
:10307000CF92DF92EF92FF920F931F93CF93DF9344
:10308000EC016A017B0128013901423051056105DB
:10309000710510F480E073C089859A85AB85BC8585
:1030A0000196A11DB11D84179507A607B70790F3D8
:1030B0008B889C88AD88BE888F89803129F4BB2796
:1030C000AF2D9E2D8D2D09C0DB01CA0147E0B695BD
:1030D000A795979587954A95D1F7880E991EAA1EB0
:1030E000BB1E8091060190910701A0910801B0914B
:1030F000090188169906AA06BB0679F48F898031E2
:10310000A1F4DD24EE24FF24C601880F991FFC01E1
:10311000E15EFD4F5182408219C040E0C501B4011B
:103120000E94E7178111EACFB5CFE894C7F8DD24F4
:10313000EE24FF24C601880F991F880F991FFC01F8
:10314000E15EFD4F40825182628273828091D6059A
:1031500081608093D6058A89823080F08D819E813E
:10316000AF81B885880E991EAA1EBB1E8092D70516
:103170009092D805A092D905B092DA0581E0DF914E
:10318000CF911F910F91FF90EF90DF90CF90BF9064
:10319000AF909F908F907F906F905F904F90089529
:1031A0008F929F92AF92BF92CF92DF92EF92FF9257
:1031B0000F931F93CF93DF93FC0181859285A385A5
:1031C000B4850196A11DB11D84179507A607B70701
:1031D00010F480E05CC083899489A589B689C78989
:1031E000C03129F4852E962EA72EBB2409C04A0192
:1031F0005B01C7E0B694A79497948794CA95D1F7DA
:10320000E9016A017B018F01BC01CD01680D791DC7
:103210008A1D9B1D8090060190900701A0900801D7
:10322000B0900901681579058A059B0599F4F801A4
:1032300087898031A9F4B701A6015527662777272A
:10324000440F551FFA01E15EFD4F80819181A0E09E
:10325000B0E018C040E00E94E7178111E8CFB9CF75
:10326000B701A6014F77552766277727440F551FCB
:10327000440F551FFA01E15EFD4F80819181A281CB
:10328000B381BF7088839983AA83BB8381E0DF9178
:10329000CF911F910F91FF90EF90DF90CF90BF9053
:1032A000AF909F908F9008954F925F926F927F9210
:1032B000AF92BF92CF92DF92EF92FF920F931F9344
:1032C000CF93DF9300D000D0CDB7DEB78C01498318
:1032D0005A836B837C835901C12CD12C7601412CFC
:1032E00082E0582E612C712C49815A816B817C813E
:1032F0009E012F5F3F4FC8010E94D018882351F1D3
:10330000D301C201F801058404C0880F991FAA1FC8
:10331000BB1F0A94D2F7C80ED91EEA1EFB1E4981B4
:103320005A816B817C818789803129F088EF9FEFFA
:10333000AFEFBFE004C088EF9FEFA0E0B0E0481718
:1033400059076A077B0780F2F501C082D182E282C9
:10335000F38281E00F900F900F900F90DF91CF914B
:103360001F910F91FF90EF90DF90CF90BF90AF90A3
:103370007F906F905F904F9008954F925F926F9201
:103380007F92AF92BF92CF92DF92EF92FF920F9314
:103390001F93CF93DF93CDB7DEB72B970FB6F8947B
:1033A000DEBF0FBECDBF7C01CE0101966C01FC01DA
:1033B00090E28BE08C0D91938E13FDCFDA0130E01B
:1033C00047E09D91992339F19E3219F0E8E4FCE041
:1033D0000AC04A3009F472C138E04AE0F2CF3196AF
:1033E000891709F46BC184918111F9CF431708F44F
:1033F00065C18FED890F8E3508F060C181E0830FC4
:10340000F601E30FF11D3FE9390F3A3108F490520C
:103410009083382FD6CF8981803209F44FC1B22EE4
:103420008B01DB015B968D919C915C97F701948FEA
:10343000838F16961D921D921D921C921997FB0167
:103440001286138614861586712CF8018285938561
:10345000A485B5854389548965897689841795073C
:10346000A607B70708F061C025E0B695A795979520
:1034700087952A95D1F7F82FFF706F2ED8011596F2
:103480008C91823008F41AC1C8010E94C32297FDB2
:1034900015C1F80182859385A485B5854F96A11D38
:1034A000B11D82879387A487B587F0E26F9EC00124
:1034B0001124BC01615E7D4F6115710509F4FEC0E8
:1034C000DB012C91222319F0253EC1F427C0711095
:1034D0000EC0F701628A4091060150910701609188
:1034E00008017091090146875787608B718BFC0139
:1034F000E15EFD4F8081811113C015C04BE050E0AB
:10350000C6010E94172D892B09F09FCF8B2D807348
:10351000803309F4D3C04B2D662DCCC07720C9F27F
:103520007724739492CF772473948B2D8271823198
:1035300009F0C4C07720D1F0D7011E966D917D911E
:103540008D919C91519741E00E94E717882309F4DF
:10355000B5C0F7016289F0E26F9FB0011124615E8E
:103560007D4F6115710509F079C0A8C0D801159685
:103570008C91823009F4A2C0C8010E94581F882390
:1035800009F49CC0D8015B96ED91FC915C9716966E
:103590004D905D906D907C901997B2E04B1A510858
:1035A00061087108058404C0440C551C661C771C16
:1035B0000A94D2F786859785A089B189480E591E4D
:1035C0006A1E7B1EA480E1E04E1A51086108710852
:1035D000AA2009F10E94F515882309F46FC0EFE1D4
:1035E000F2E0119224E0EF31F207D9F7D301C201E2
:1035F0008A0D911DA11DB11D8093060190930701B5
:10360000A0930801B09309018091D6058160809351
:10361000D605AA94DDCFD8015B96ED91FC915C971D
:1036200080E092E0A0E0B0E0058404C0880F991F1C
:10363000AA1FBB1F0A94D2F7F801438954896589F0
:103640007689840F951FA61FB71F838B948BA58B3C
:10365000B68BD70152961C926FE172E080E2FB01BB
:1036600011928A95E9F78BE0F601DB0101900D924A
:103670008A95E1F781E298E2DB0151969C938E9363
:10368000509720E038E01F963C932E931E97539658
:103690009C938E93529759969C938E9358975796D6
:1036A0003C932E9356970E94F515882339F04B2DA5
:1036B000F7016289C7010E94441E01C080E02B9679
:1036C0000FB6F894DEBF0FBECDBFDF91CF911F9133
:1036D0000F91FF90EF90DF90CF90BF90AF907F90D1
:1036E0006F905F904F900895CF93DF93EC018D81A1
:1036F0008823A1F18C8187FF2DC06E857F85888905
:10370000998941E00E94E717882341F1EA8980E224
:10371000E89FF0011124DF01A15EBD4F1097F1F089
:103720008D81823050F44B895C896D897E895C96ED
:103730004D935D936D937C935F978F89988DA98D41
:10374000BA8DE15EFD4F938F828FB58BA48B8C81F8
:103750008F778C83DF91CF910C94F51580E0DF910A
:10376000CF9108952F923F924F925F926F927F92E6
:103770008F929F92AF92BF92CF92DF92EF92FF9281
:103780000F931F93CF93DF9300D000D0CDB7DEB758
:103790008C015B011A01DC0115968C911597813023
:1037A000C9F414968C9181FF15C082FF1BC0F801EB
:1037B000438954896589768982859385A485B585F1
:1037C00084179507A607B70769F0C8010E94AE1DC8
:1037D000811108C081E090E0F8019383828380E04A
:1037E00090E039C1610183C0D8015B968D919C91B5
:1037F0005C97FC01248121502A013B0139E0769439
:103800006794579447943A95D1F7722E74207A01B1
:10381000F1E0FF22772009F476C080E092E08E1973
:103820009F0946018C159D0508F44C01D8015B9653
:103830002D913C915C9716968D919D910D90BC9128
:10384000A02D0297A109B109F901058404C0880FD0
:10385000991FAA1FBB1F0A94D2F746855785608916
:103860007189840F951FA61FB71F9C01AD01270DFD
:10387000311D411D511D29013A01811432E0930689
:1038800009F088C08091060190910701A09108017C
:10389000B091090184159505A605B70559F48FEF78
:1038A0009FEFDC018093060190930701A09308012C
:1038B000B09309019501B301A20180911F04909179
:1038C00020040E94B321882309F484CF9EEFB91A03
:1038D000C818D908F80182859385A485B585880D17
:1038E000991DA11DB11D82879387A487B587D80133
:1038F0001A964D915D916D917C911D97C114D104E3
:1039000009F072CF87C0E114F10409F086CF169652
:103910004D915D916D917C9119974115510561050E
:10392000710559F457968D919D910D90BC91A02DE4
:103930000097A105B10541F521C09E012F5F3F4FC2
:103940000E94D018882309F44BCF89819A81AB81DA
:10395000BC81F801238D348DF9012789203129F0AC
:1039600048EF5FEF6FEF7FE004C048EF5FEF60E08C
:1039700070E084179507A607B70730F0C8010E94CA
:10398000581F81114ACF26CFF80186839783A087DD
:10399000B18743CFE114F10429F5D8011A964D916E
:1039A0005D916D917C911D9753968D919D910D9098
:1039B000BC91A02D481759076A077B0798F00E9411
:1039C000F515882309F406CF4092060150920701AD
:1039D00060920801709209018091D6058160809300
:1039E000D60508C041E0C301B2010E94E717882351
:1039F00009F4F0CED501F701E15EFD4FCF01880D4E
:103A0000991DE817F90719F02D912193FACFA80C09
:103A1000B91C5ECF53968D919D910D90BC91A02DB8
:103A200084179507A607B70740F4F801438B548B1A
:103A3000658B768B848180688483D80114968C9101
:103A400083FD02C0C10107C0C8010E94741B882306
:103A500009F4C0CEF7CF0F900F900F900F90DF9129
:103A6000CF911F910F91FF90EF90DF90CF90BF907B
:103A7000AF909F908F907F906F905F904F903F900E
:103A80002F900895CF93DF931F92CDB7DEB7698350
:103A900041E050E0BE016F5F7F4F0E94B21B0F906C
:103AA000DF91CF910895DC015996ED91FC915A97E1
:103AB0003097B9F083899489A589B6894285538561
:103AC00064857585841B950BA60BB70B811520E8C3
:103AD0009207A105B10538F08FEF9FE7A0E0B0E0B5
:103AE000089580E090E00895CF93DF931F92CDB7C3
:103AF000DEB76983DC01ED91FC910280F381E02D5A
:103B000041E050E0BE016F5F7F4F09950F90DF915C
:103B1000CF910895FC01818D928D009711F00C9446
:103B2000741B0895CF93DF93EC01898D9A8D0097D4
:103B300039F481E090E09B838A8380E090E00BC0C1
:103B4000FC01138212820E94B21BE98DFA8D228140
:103B50003381232B71F7DF91CF9108958F929F923C
:103B6000AF92BF92CF92DF92EF92FF920F931F938B
:103B7000CF93DF93EC018D81811102C080E077C08B
:103B80000B891C892D893E890417150726073707DD
:103B9000A8F36A017B01823029F4CA86DB86EC86B1
:103BA000FD860DC0C114D104E104F10451F41E825C
:103BB0001F82188619861A861B861C861D8681E040
:103BC00056C08A849B84AC84BD84EB8DFC8D258596
:103BD00030E0275F3F4FB501A40141505109610911
:103BE0007109022E04C076956795579547950A94FA
:103BF000D2F7D701C6010197A109B10904C0B69552
:103C0000A795979587952A95D2F784179507A607C4
:103C1000B70720F089288A288B2849F44F89588DC6
:103C2000698D7A8D4E835F836887798704C0841B92
:103C3000950BA60BB70B4C015D018E010A5F1F4F60
:103C400081149104A104B10409F4A7CF4E815F81CE
:103C50006885798598018B8D9C8D0E94D01891E0A4
:103C6000891A9108A108B1088111EACF87CFDF91A5
:103C7000CF911F910F91FF90EF90DF90CF90BF9069
:103C8000AF909F908F9008958F929F92AF92BF9226
:103C9000CF92DF92EF92FF920F931F93CF93DF9318
:103CA00000D000D0CDB7DEB77C0180E2689F600114
:103CB00011249601215E3D4FD9011B969C91917173
:103CC00021F0842F827409F097C0142FF701628BC2
:103CD0008091060190910701A0910801B09109011E
:103CE00086879787A08BB18BF601E15EFD4F4489F3
:103CF000558960E070E0BA0155274427D7015796EF
:103D00004D935D936D937C935A97828D938DA0E034
:103D1000B0E0482B592B6A2B7B2BD70157964D933C
:103D20005D936D937C935A97D9011B968C91887102
:103D300059F4848D958DA68DB78DF701838B948B67
:103D4000A58BB68B81E012C0803109F055C0970178
:103D50002D5E3F4FD7015B968D919C915C970E94A1
:103D60005419882309F448C084E0F7018583812F22
:103D70008F70D70114968C931497F70116821782CF
:103D8000108611861A961D921D921D921C921D97E7
:103D900016FF34C015968C91813071F511FF2CC03F
:103DA000F7014389548965897689452B462B472B32
:103DB00009F461C040E050E0BA01C7010E94AE1DA5
:103DC0008823D1F0F7018788908CA18CB28CC38CAA
:103DD000D48C82E090E0A0E0B0E0F6018083918393
:103DE000A283B3839E012F5F3F4FB501A401C6019B
:103DF0000E94D018811104C080E03DC081E03BC02A
:103E000000E010E09801B501A401C6010E9430183D
:103E1000882391F389809A80AB80BC80D601579625
:103E20008C91803129F088EF9FEFAFEFBFE004C0A5
:103E300088EF9FEFA0E0B0E088169906AA06BB06BF
:103E400088F2D70157961D921D921D921C925A9787
:103E5000F701138A148A158A168A848180688483FC
:103E6000C7010E94741B882339F240E050E0BA0178
:103E7000C7010E94AE1D0F900F900F900F90DF9121
:103E8000CF911F910F91FF90EF90DF90CF90BF9057
:103E9000AF909F908F900895CF93DF93EC010E9495
:103EA000741B882311F01D8281E0DF91CF9108956A
:103EB0003F924F925F926F927F928F929F92AF92BA
:103EC000BF92CF92DF92EF92FF920F931F93CF9307
:103ED000DF93CDB7DEB72C970FB6F894DEBF0FBED9
:103EE000CDBF5C01DC015B968D909C905C97169633
:103EF000CD90DD90ED90FC901997C114D104E104B0
:103F0000F10439F0BFEFCB1ADB0AEB0AFB0A312CC4
:103F100007C0F401C080D180E280F3803324339461
:103F2000F40181859285A385B4859C01AD012F5F45
:103F30003F4F4F4F5F4F29873A874B875C8726015A
:103F400037011D821E821F821886F40181859285A9
:103F5000A385B4852D813E814F8158852817390767
:103F60004A075B0708F063C089859A85AB85BC85E5
:103F70008C159D05AE05BF0550F482E0C82ED12CEE
:103F8000E12CF12C92E0492E512C612C712C9E01D8
:103F90002F5F3F4FB701A601C4010E94D0188823AC
:103FA00009F445C089819A81AB81BC81892B8A2B18
:103FB0008B2B41F0260137019FEF491A590A690AF4
:103FC000790A05C0C414D504E604F70491F02D81E4
:103FD0003E814F8158852F5F3F4F4F4F5F4F2D835D
:103FE0003E834F8358873FEFC31AD30AE30AF30A8D
:103FF000ACCF0FEF1FEF2FEF3FE0B301A201C401E1
:104000000E943018882399F0D50116964D915D9144
:104010006D917C911997411551056105710549F024
:1040200093018201C4010E943018811102C080E016
:104030002AC0D50116964D925D926D927C92199789
:10404000332051F0D301C2010196A11DB11DF4012D
:1040500080839183A283B383F5018789908DA18D9D
:10406000B28D892B8A2B8B2B69F4D50157964D92F3
:104070005D926D927C925A9714968C9114978068F9
:1040800014968C9381E02C960FB6F894DEBF0FBE89
:10409000CDBFDF91CF911F910F91FF90EF90DF90F7
:1040A000CF90BF90AF909F908F907F906F905F90D8
:1040B0004F903F9008958FB7F8948091E8058FBF97
:1040C000089561E0FC0184810E9488168091E705D3
:1040D00081111092E70508958FEF0C94BA090F93A0
:1040E0001F93CF93DF93EB010E940E178B010E9469
:1040F0006C208F3F49F00E940E17601B710B6C17EC
:104100007D07A8F380E001C081E0DF91CF911F918E
:104110000F910895CF93DF93EC018E81882389F06E
:104120008F8198859C012F5F3F4F38872F83823086
:10413000924018F40E946C20F3CFCE010E946120BF
:104140001E82DF91CF9108958CBD9DBD0895CF93C0
:10415000DF93EC018091E705811109C081E0809334
:10416000E70580917205909173050E94A42060E09C
:104170008C81DF91CF910C948816CF92DF92FF92C1
:104180000F931F93CF93DF9300D000D0CDB7DEB74E
:104190006C01F62E29833A834B835C830E948A202C
:1041A000C6010E94A7206CE271E0C6010E946F2048
:1041B0008F2D80640E94BA0908E110E05C814B8178
:1041C0003A812981DA01C901002E04C0B695A7956C
:1041D000979587950A94D2F729833A834B835C831A
:1041E0000E94BA090850110929813A814B815C81EA
:1041F000083F8FEF180731F7FF2029F0E8E0FE12A3
:1042000004C087E803C085E901C08FEF0E94BA09A6
:1042100010E00E946C20F601828787FF04C01F3FD8
:1042200011F01F5FF6CF0F900F900F900F90DF915E
:10423000CF911F910F91FF90DF90CF900895AF9293
:10424000BF92CF92DF92EF92FF920F931F93CF9383
:10425000DF93EC016901C801820F931F8130924006
:1042600008F070C08E81882371F088819981AA81BD
:10427000BB81481759076A077B0729F48F81988506
:10428000C816D906B0F5488359836A837B838B852A
:10429000833039F089E0440F551F661F771F8A95D8
:1042A000D1F79A01AB0161E1CE010E94BD208823C4
:1042B00019F083E08D8346C00E940E175B010E94B7
:1042C0006C208A878F3F49F40E940E176A197B0978
:1042D0006D327140A0F38FE003C08E3F31F08DE06E
:1042E0008D83CE010E9461202DC018861F8281E03F
:1042F0008E838F8198858C159D0540F40E946C20DB
:104300008F819885019698878F83F3CF6701E00EA0
:10431000F11ECE14DF0431F00E946C20F60181936F
:104320006F01F7CF8F819885080F191F18870F83AA
:104330008985882319F00115124048F0CE010E94AA
:104340008A2005C0CE010E94612080E001C081E08A
:10435000DF91CF911F910F91FF90EF90DF90CF9061
:10436000BF90AF900895EF92FF920F931F93CF935A
:10437000DF93EC017901411551056105710511F4D7
:1043800082E13CC08B85833039F089E0440F551FB2
:10439000661F771F8A95D1F79A01AB0168E1CE01BC
:1043A0000E94BD20882311F084E028C08EEF0E9477
:1043B000BA0987018EEFF81AF80181918F010E94E6
:1043C000BA090E151F05C1F78FEF0E94BA098FEFCA
:1043D0000E94BA090E946C208A878F71853031F063
:1043E00081E18D83CE010E94612009C068E572E001
:1043F000CE010E946F20811107C085E18D83CE011F
:104400000E94612080E013C020E030E0A9016DE04F
:10441000CE010E94BD20811104C00E946C2088231F
:1044200011F084E1EBCFCE010E94612081E0DF91A9
:10443000CF911F910F91FF90EF900895FC01DB0148
:1044400012968D919C9113979383828380E491E0DF
:104450009183808314968C911497848315968C9104
:104460001597858316964D915D916D917C91199765
:1044700046835783608771871A964D915D916D9140
:104480007C911D9742875387648775871E964D914F
:104490005D916D917C91519746875787608B718BA9
:1044A00052968C915297828B53964D915D916D915E
:1044B0007C915697438B548B658B768B57964D9199
:1044C0005D916D917C915A97478B508F618F728F60
:1044D0005B968D919C915C97948F838F0895CF9379
:1044E000DF93EC01898D9A8D009741F00E944C1F5B
:1044F000898D9A8D0E94C62A1A8E198EDF91CF91CE
:104500000895FC01818D928D009729F00E94AE1DC7
:1045100091E0811101C090E0892F0895EF92FF9200
:104520000F931F93CF93DF93EC017B018A011B82D2
:104530001A8288EE93E0A0E0B0E08C839D83AE8386
:10454000BF838CE191E0998388838DE190E00E94A4
:10455000312A9A8F898F009779F02DE1F701DC01DC
:1045600001900D922A95E1F74CE050E0B801CE01A0
:104570000C960E943F2D188EDF91CF911F910F91C5
:10458000FF90EF9008952F923F924F925F926F921B
:104590007F928F929F92AF92BF92CF92DF92EF92D3
:1045A000FF920F931F93CF93DF9300D0CDB7DEB769
:1045B000FC018581882309F4D9C0848180FFD6C09D
:1045C00021E02A8343895489658976898285938588
:1045D000A485B585481759076A077B0709F41A822D
:1045E0006F013A81832F90E0DE0111964D013F016A
:1045F000B6E06B0E711C892B09F47DC0D6011A96AA
:104600004D915D916D917C911D975A01B1E0BB2256
:10461000F60125811A012B0189E0569447943794BD
:1046200027948A95D1F7838D948D223061F4FC0113
:10463000828D938DA48DB58DBC01CD01620D731D4E
:10464000841D951D45C0DC0114961C91115012214A
:10465000A114B104D1F4111118C0452B462B472BDE
:1046600051F4F6018789908DA18DB28D8683978351
:10467000A087B1870AC04681578160857185930103
:104680000E94D018882309F471C0F601238D348D5F
:1046900086819781A085B1850297A109B109AC01F6
:1046A000BD01F901058404C0440F551F661F771F23
:1046B0000A94D2F786859785A089B189840F951FC2
:1046C000A61FB71FBC01CD01610F711D811D911D7A
:1046D000D60114962C9126FF14C00091060110916A
:1046E00007012091080130910901601771078207C5
:1046F000930751F506C0FA81FF23C1F1898190E04B
:1047000037C040E00E94E717882381F1F501E15EA0
:10471000FD4FD401CF010196E817F90719F0219157
:104720002D93FACFEFEF8E1A9E0AF60182859385BC
:10473000A485B5850196A11DB11D82879387A487A5
:10474000B58780E090E057CF740101E010E095015B
:10475000AB01BC0180911F04909120040E941F2195
:10476000882321F0BFEF8B1A9B0ADFCF8FEF9FEFDB
:104770000F900F90DF91CF911F910F91FF90EF90CD
:10478000DF90CF90BF90AF909F908F907F906F9071
:104790005F904F903F902F900895FC01818D928DF6
:1047A000009711F00C94C3228FEF9FEF08950F93A1
:1047B0001F93CF93DF93FC01818D928D0097B9F009
:1047C000EF010E94C3228C010F3F8FEF180791F079
:1047D000898D9A8DFC01428553856485758541508C
:1047E0005109610971090E94AE1DC80105C080E030
:1047F00090E002C08FEF9FEFDF91CF911F910F915B
:1048000008951F920F920FB60F9211240F900FBEB2
:104810000F901F901895CF93CFB7F8948091E4052F
:10482000811124C0EEE3FCE08491E0E2FCE094918D
:10483000E82FF0E0EE0FFF1FE45FF34FA591B49176
:10484000EC91E92321F461E08AE00E9488168AE075
:104850000E942C108CB580618CBD8CB580648CBDA1
:104860008DE00E942C108BE00E942C108091E405BA
:104870008F5F8093E405CFBFCF910895CF92DF92F1
:10488000EF92FF920F931F93CF93DF936C017A0106
:104890008B01C0E0D0E0CE15DF0589F0D8016D9125
:1048A0008D01D601ED91FC910190F081E02DC601C2
:1048B0000995892B11F47E0102C02196ECCFC70126
:1048C000DF91CF911F910F91FF90EF90DF90CF90EC
:1048D0000895CF93DF93CDB7DEB7A4970FB6F894C2
:1048E000DEBF0FBECDBF789484B5826084BD84B531
:1048F000816084BD85B5826085BD85B5816085BDDB
:1049000080916E00816080936E0010928100809192
:10491000810082608093810080918100816080931A
:104920008100809180008160809380008091B1003F
:1049300084608093B1008091B00081608093B0006A
:1049400080917A00846080937A0080917A008260FE
:1049500080937A0080917A00816080937A008091C0
:104960007A00806880937A001092C10010926E05E0
:1049700010926F05109270051092710510922C051F
:1049800010922D0510922E0510922F050E940E17E1
:104990006B017C014B015C0128EB820E2BE0921E27
:1049A000A11CB11C0E940E176C157D058E059F057C
:1049B00028F086169706A806B906A0F78DE894E0B9
:1049C00090936D0580936C050E944B100E940E170A
:1049D00060932C0570932D0580932E0590932F05E1
:1049E00068E771E080916C0590916D050E94440B21
:1049F0000E940E176B017C014B015C013AE0830EB3
:104A0000911CA11CB11C0E940E176C157D058E0512
:104A10009F0528F086169706A806B906A0F781E03C
:104A200080934005109222041092210410926B048E
:104A300010928C04109269048093680410924304CD
:104A400061E082E10E94881661E083E10E9488169D
:104A50008091B9008E7F8093B9008091B9008D7FDD
:104A60008093B90088E48093B80085E48093BC000B
:104A70000E944B1087E598E00E94EF1180E498E0D7
:104A80000E94EF1187E00E942C108BE298E00E94B8
:104A9000CE1110927F0510927D0510927A0510922A
:104AA000790584E0809378050E940E177B01809140
:104AB00078050E942C1061E0809178050E9488168C
:104AC0000E940B2482E580937205109273058091F9
:104AD0007205909173050E94A4201AE08FEF0E9446
:104AE000BA091150D9F784E795E00E94A72020E089
:104AF00030E0A90160E084E795E00E94BD20182F16
:104B000080937E05813049F00E940E176E197F094F
:104B1000613D774060F381E054C02AEA31E040E033
:104B200050E068E084E795E00E94BD2082FF03C06A
:104B300010937F050EC014E00E946C2080937E05C8
:104B40001150D1F78A3A11F082E03BC082E08093A5
:104B50007F0580917F05823021F0812C912C5401BA
:104B600005C0812C912CA12C30E4B32E20E030E044
:104B7000A90167E384E795E00E94BD20A5019401A7
:104B800069E284E795E00E94BD2080937E0588233A
:104B900049F00E940E176E197F09613D774030F38E
:104BA00088E00FC080917F05823001F520E030E081
:104BB000A9016AE384E795E00E94BD20882341F0C3
:104BC00086E08093790584E795E00E946120A0C08B
:104BD0000E946C20807C803C19F483E080937F05E8
:104BE0000E946C200E946C200E946C2084E795E05B
:104BF0000E94612080E5809372051092730581E028
:104C00000E94B512882329F08091A305882341F0E2
:104C10007FC080E00E94B512882309F479C0F4CFE8
:104C200080919705803109F582E08093A305109269
:104C3000B5051092B6051092B7051092B80580918F
:104C4000980590919905A0E0B0E025E0880F991FA4
:104C5000AA1FBB1F2A95D1F78093B1059093B20587
:104C6000A093B305B093B4051EC0803209F050C0C4
:104C700083E08093A30540919A0550919B05609134
:104C80009C0570919D054093B5055093B6056093C2
:104C9000B7057093B80521EB35E080E895E00E94F8
:104CA00054198823A9F180E895E09093BA05809380
:104CB000B90581E08093A2051092A4051092A50584
:104CC0001092A6051092A7051092A8051092A905AA
:104CD0001092AA051092AB051092AC051092AD058A
:104CE0001092AE051092AF051092B00587EF97E0D5
:104CF0000E94EF116091CF057091D00541E0CE0187
:104D000001960E947310EA8DFB8D309731F45BC0E1
:104D100082E198E00E94EF11E3C08581882309F4C5
:104D200052C0CE0101960E94531D892B09F446C042
:104D300069E871E0CE014C960E945A14CE010196AA
:104D40000E94891297FD1FC08A309105E1F08AA365
:104D50001BA2E8A0F9A08FEFE81AF80AB701CE016C
:104D60004C960E94E413882349F32C8D3D8D88A135
:104D700099A1BE016E5D7F4F820F931F0E94382D57
:104D8000F9A2E8A2DBCF89EE97E00E94EF11CE01F5
:104D90004C960E9472128C8D9D8D009719F00E9486
:104DA0005E2B03C060E070E0CB0170930101609363
:104DB0000001CE014C960E945514B3CFCE0101964E
:104DC0000E946F2204C08AEC97E00E94EF110E94BB
:104DD0000B2445E550E060E870E089EC95E00E9426
:104DE0007D1760E070E089EC95E00E9464178535DE
:104DF00059F08DEA97E00E94EF1168EE73E080E0D1
:104E000090E00E94D416E5CF83E997E00E94EF116D
:104E100061E070E08FEF90E00E947C11BE016E5D5A
:104E20007F4F8AE00E94FF11BE01645E7F4F8BE0DE
:104E30000E94FF118AA1863259F081E797E00E9413
:104E4000EF1168EE73E080E090E00E94D416E0CFAE
:104E500088E597E00E94EF1181E08093CC05809176
:104E6000CD058530A9F561E070E08FEF90E00E94FC
:104E70007C1160E870E082E190E00E947C1164E6C1
:104E800070E080E090E00E94D4168091CC058130E3
:104E9000D9F484EB90E00E94A6118CE890E00E9487
:104EA000A61188E690E00E94A61161E070E08FEF05
:104EB00090E00E947C1160E070E085E190E00E944B
:104EC0007C1188EB96E002C080EB93E00E94A61173
:104ED00088EB96E00E94A61189EC95E00E94E1170C
:104EE00084EF882E99249394A12CB12C0E940E1744
:104EF000672B682B692B41F40E940E1762307105F5
:104F00008105910508F418C10E940E176093CD0128
:104F10007093CE018093CF019093D001C090C901CE
:104F2000D090CA01E090CB01F090CC016C157D05CA
:104F30008E059F0540F46093C9017093CA01809368
:104F4000CB019093CC01C090C901D090CA01E090F0
:104F5000CB01F090CC019B01AC012C193D094E090D
:104F60005F0969017A013AEFC316D104E104F10443
:104F700008F4E2C06093C9017093CA018093CB0129
:104F80009093CC018092380590923905A0923A0511
:104F9000B0923B0510923C0510923D0510923E05E3
:104FA00010923F058091300590913105A091320516
:104FB000B09133058093340590933505A093360561
:104FC000B09337050E940E1760933005709331053A
:104FD00080933205909333050E940E1760932C0541
:104FE00070932D0580932E0590932F050E940E1728
:104FF0006B017C016AE871E080916C0590916D0510
:105000000E94440B2AE041E050E060E070E08091B3
:105010006C0590916D050E946F1461E971E08091BB
:105020006C0590916D050E94440B2AE0B701A60122
:1050300080916C0590916D050E946F1463E971E099
:1050400080916C0590916D050E94440B8091300514
:1050500090913105A0913205B0913305B701A601B9
:10506000481B590B6A0B7B0B2AE080916C059091D1
:105070006D050E946F1463E971E080916C05909159
:105080006D050E94440B40913005509131056091AF
:105090003205709133058091340590913505A091CA
:1050A0003605B0913705481B590B6A0B7B0B2AE07C
:1050B00080916C0590916D050E946F1465E971E017
:1050C00080916C0590916D050E94440B0E940E1713
:1050D000AB01BC012AE080916C0590916D050E94A6
:1050E0006F14E0906C05F0906D0567E971E0C70101
:1050F0000E94440B67E871E0C7010E94440B0E94C4
:105100000E176B017C012B013C0145E0440E511C44
:10511000611C711C0E940E176C157D058E059F0584
:1051200008F005C10E940E17609330057093310599
:1051300080933205909333058DE894E00E94241506
:10514000892B89F08DE894E00E940215682F8FE981
:1051500098E06CA30E94EF116CA18DE894E00E948E
:105160005B150E94590B8091C7019091C801813055
:10517000910509F064C08091C6018130B1F441E02D
:1051800050E064E870E089EC95E00E947D1789ECBE
:1051900095E00E94E11742E050E064E870E089EC9D
:1051A00095E00E947D171092C60161E470E089ECE1
:1051B00095E00E94641783FF3DC085E898E00E9457
:1051C000EF1160E0CE014C960E94A30888A199A13E
:1051D000892B41F1EC8DFD8D8081882319F11A8294
:1051E00019821C821B821E821D82BE01645E7F4F5B
:1051F000CE0101960E943E1400E09E012F5F3F4FBA
:105200004091C9055091CA056091CB057091CC05BC
:105210008091CD059091CE050E94C109CE010196E5
:105220000E94551489EC95E00E94E117CE014C963E
:105230000E9455141092C8011092C70175C00297C0
:1052400009F072C061E0CE014C960E94A3080E9452
:105250000E176B017C010E940E17DC01CB018C192B
:105260009D09AE09BF09803D9740A105B10508F031
:1052700053C08091C6018230D1F48EE698E00E943E
:10528000EF1141E050E064E870E089EC95E00E94A5
:105290007D1789EC95E00E94E11742E050E064E858
:1052A00070E089EC95E00E947D171092C60161E4E0
:1052B00070E089EC95E00E94641783FFCCCF88A151
:1052C00099A1892B41F2EC8DFD8D8081882319F203
:1052D0001A8219821C821B821E821D82BE01645E9C
:1052E0007F4FCE0101960E943E1401E09E012F5F88
:1052F0003F4F4091C9055091CA056091CB0570910F
:10530000CC058091CD059091CE050E94C109CE01BA
:1053100001960E9455149FCF1092C8011092C701A8
:10532000CE014C960E9455140E94C415DFCD46163E
:1053300057066806790608F0EDCEF4CE8FEC95E0BE
:105340000C945514CF93DF93EDE8F4E013821282AE
:1053500088EE93E0A0E0B0E084839583A683B783D2
:105360002EE231E03183208325EC30E0358724873D
:1053700024EC30E03787268720EC30E0318B208B1F
:1053800021EC30E0338B228B22EC30E0358B248B08
:1053900026EC30E0378B268B118E128E138E148EF6
:1053A000EAE2F5E0168217821086118612861386CD
:1053B0001486158616861786108A118A128A138A11
:1053C000148A158AE2E7F5E020E520831182E4E7FC
:1053D000F5E0158216821186138642E050E060E007
:1053E00070E0448755876687778713A215A614A6B1
:1053F00020E431E033A722A717A6EDEBF5E01382F6
:10540000128284839583A683B7838CE491E0918391
:10541000808367EB71E08FEC95E00E945A14EBE318
:10542000FCE0E491F0E0EE0FFF1FE65DF34F8591A5
:105430009491C9ECD5E099838883EDE1FCE0E49197
:10544000EA8387E00E942C10E881F98190818A81AB
:10545000892B808385E08C8380E68D83DF91CF91DB
:105460000895CF93DF938230910510F482E090E0AD
:10547000E091EB05F091EC0520E030E0C0E0D0E0F9
:10548000309711F14081518148175907C0F04817F2
:10549000590761F482819381209719F09B838A8355
:1054A0002BC09093EC058093EB0526C021153105A8
:1054B00019F04217530718F49A01BE01DF01EF01FA
:1054C0000280F381E02DDCCF2115310509F1281B85
:1054D000390B2430310590F412968D919C911397DD
:1054E0006115710521F0FB019383828304C09093C1
:1054F000EC058093EB05FD01329644C0FD01E20FFF
:10550000F31F81939193225031092D933C933AC01C
:105510002091E9053091EA05232B41F420910C01FB
:1055200030910D013093EA052093E90520910A019D
:1055300030910B012115310541F42DB73EB7409153
:105540000E0150910F01241B350BE091E905F091FC
:10555000EA05E217F307A0F42E1B3F0B28173907C3
:1055600078F0AC014E5F5F4F2417350748F04E0FBF
:105570005F1F5093EA054093E9058193919302C020
:10558000E0E0F0E0CF01DF91CF9108950F931F93FA
:10559000CF93DF93009709F48CC0FC0132971382FC
:1055A00012820091EB051091EC050115110581F4B3
:1055B00020813181820F931F2091E9053091EA0506
:1055C0002817390779F5F093EA05E093E90571C0EA
:1055D000D80140E050E0AE17BF0750F412962D916D
:1055E0003C911397AD012115310509F1D901F3CF94
:1055F0009D01DA013383228360817181860F971FB9
:105600008217930769F4EC0128813981260F371F2F
:105610002E5F3F4F318320838A819B8193838283D6
:10562000452B29F4F093EC05E093EB0542C013966B
:10563000FC93EE931297ED01499159919E01240F2D
:10564000351FE217F30771F480819181840F951F54
:10565000029611969C938E938281938113969C93CC
:105660008E931297E0E0F0E0D80112968D919C9114
:105670001397009719F0F8018C01F6CF8D919C914A
:1056800098012E5F3F4F820F931F2091E9053091C3
:10569000EA052817390769F4309729F41092EC05C8
:1056A0001092EB0502C0138212821093EA05009358
:1056B000E905DF91CF911F910F9108951F93FC0190
:1056C00099278827BC01E89411911032E9F3193029
:1056D00010F01E30C8F31B3251F01D3249F46894AB
:1056E00006C00E94902B610F711D811D911D1191AB
:1056F00010531A30B0F33EF49095809570956195F3
:105700007F4F8F4F9F4F1F910895BB274A3031F431
:10571000992322F4BDE2909581959F4F0C94A62B7E
:10572000592F482F372F262F660F771F881F991F55
:10573000660F771F881F991F620F731F841F951FA5
:10574000660F771F881F991F0895BB27FB015527F8
:10575000AA27880F991FAA1FA41710F0A41B8395CE
:105760005051B9F7A05DAA3308F0A95DA193009745
:1057700079F7B111B1931192CB010C94BF2BDC01DD
:10578000FC01672F71917723E1F7329704C07C9178
:105790006D9370836291AE17BF07C8F30895A1E2BD
:1057A0001A2EAA1BBB1BFD010DC0AA1FBB1FEE1F9B
:1057B000FF1FA217B307E407F50720F0A21BB30BE6
:1057C000E40BF50B661F771F881F991F1A9469F762
:1057D00060957095809590959B01AC01BD01CF01BE
:1057E00008950E94332CA59F900DB49F900DA49F07
:1057F000800D911D112408952F923F924F925F9238
:105800006F927F928F929F92AF92BF92CF92DF92D0
:10581000EF92FF920F931F93CF93DF93CDB7DEB735
:10582000CA1BDB0B0FB6F894DEBF0FBECDBF0994C9
:105830002A88398848885F846E847D848C849B8420
:10584000AA84B984C884DF80EE80FD800C811B812E
:10585000AA81B981CE0FD11D0FB6F894DEBF0FBE5D
:10586000CDBFED010895A29FB001B39FC001A39FDA
:10587000700D811D1124911DB29F700D811D112489
:10588000911D0895EE0FFF1F0590F491E02D0994EE
:10589000A0E0B0E0EEE4FCE20C94002CEC010097F8
:1058A00021F4CB010E94312AB8C0FC01E60FF71F9A
:1058B0009C0122503109E217F30708F4ACC0D9016A
:1058C0000D911C91119706171707B0F005301105BF
:1058D00008F49FC0C80104978617970708F499C079
:1058E00002501109061B170B019311936D937C93C2
:1058F000CF010E94C62A8DC05B01A01AB10A4C01DB
:10590000800E911EA091EB05B091EC0540E050E0B7
:10591000E12CF12C109709F44AC0A815B905D1F56E
:105920006D907C901197630182E0C80ED11CCA145F
:10593000DB0480F1A3014A195B096A0182E0C80E09
:10594000D11C1296BC9012971396AC91B5E0CB1671
:10595000D10440F0B282A38351834083D9016D9377
:105960007C930AC00E5F1F4FC301800F911FF90186
:1059700091838083EB2DFA2FE114F10431F0D701EC
:105980001396FC93EE93129744C0F093EC05E093CA
:10599000EB053FC08D919C9111974817590708F46A
:1059A000AC017D0112960D90BC91A02DB3CF8091DA
:1059B000E9059091EA0588159905E1F4461757071E
:1059C000C8F480910A0190910B01009741F48DB7C2
:1059D0009EB740910E0150910F01841B950BE81763
:1059E000F907C8F4F093EA05E093E905F90171833A
:1059F00060830FC0CB010E94312A7C01009759F0CF
:105A0000A801BE010E94242DCE010E94C62AC70112
:105A100004C0CE0102C080E090E0CDB7DEB7EEE07A
:105A20000C941C2C81E090E0F8940C944E2DFB011A
:105A3000DC0104C08D910190801921F44150504047
:105A4000C8F7881B990B0895FB01DC0102C0019087
:105A50000D9241505040D8F70895FC01819186176E
:105A600021F08823D9F7992708953197CF01089518
:105A7000FB01DC0101900D920020E1F70895FB018C
:105A8000DC014150504048F001900D920020C9F7D0
:105A900001C01D9241505040E0F7089516E0C7E361
:105AA000D6E004C0FE010E94422C2196C833D107E3
:065AB000C9F7F894FFCFD6
:105AB600080204000000FFFFFFFF0000ED05800064
:105AC600100000000000000000000000741D921D80
:105AD6004C078A1D531DCD23D723000000005B15FC
