:1000000006C5000035C5000033C5000031C500003D
:100010002FC500002DC500002BC5000029C500001C
:1000200027C500000C942F120C942F120C942F1241
:100030001FC500001DC500001BC5000019C500003C
:1000400017C5000015C5000013C5000011C500004C
:100050000FC500000DC500000BC50000F5C700006E
:1000600007C50000CBC60000A0C6000001C5000007
:10007000FFC40000FDC40000FBC40000F9C4000080
:10008000F7C40000F5C40000F3C40000F1C4000090
:10009000EFC40000EDC40000EBC400000C94F912A2
:1000A000E7C40000E5C40000E3C40000E1C40000B0
:1000B000DFC40000DDC40000DBC40000D9C40000C0
:1000C000D7C40000D5C40000D3C40000D1C40000D0
:1000D000CFC40000CDC400003FC6000014C600001D
:1000E000C7C400005607590748074C075007900738
:1000F0005D07610767076B076F07750779077D075E
:100100009007830787078B07FF000100120040005C
:100110001700110018004300190000001A004B00DE
:10012000320009004F00CA005000A8005A00230006
:100130006D000000390012003500DA0022001A00BC
:100140003700C300230000003400C00036001A004E
:10015000060088000700C0000D0087000E00410067
:100160004C000000FF000000E0000400C00064003C
:10017000C1004B0086003500500089005100C800C6
:10018000520096005300000054000000550000008B
:10019000570000005A0050005B003C005C0000006B
:1001A000E0000000FF00FF00E0001400E100770025
:1001B000E5001F00D7000300DA001000E000000097
:1001C000FF00010004000800FF00FF00FF00000026
:1001D00005000000DA001000D7000300DF00000077
:1001E000330080003C004000E10077000000000088
:1001F000FF00FF00FF0000002C00FF002E00DF00CA
:10020000FF0001003C003200110000000900020064
:10021000040028001300E500140048002C000C0026
:10022000330078003A0033003B00FB003E00000042
:100230004300110016001000390092003500DA006A
:1002400022001A003700C300230000003400C00061
:1002500036001A00060088000700C0000D00870065
:100260000E0041004C000000480000005B00000050
:10027000420003004A008100210099002400400050
:1002800025003800260082005C00000063000000AA
:1002900061007000620080007C000500200080008A
:1002A000280030006C0000006D0080006E0000002F
:1002B00070000200710094007300C1001200400041
:1002C0001700110018004300190000001A004B002D
:1002D000320009003700C0004F0060005000A80045
:1002E0006D0000003D00380046003F004F006000F8
:1002F0000C003C00FF000000E5007F00F900C0009A
:1003000041002400E00014007600FF003300A0004C
:1003100042002000430018004C0000008700D50078
:1003200088003F00D7000300D9001000D3008200EE
:10033000C8000800C90080007C0000007D000000AB
:100340007C0003007D0048007D0048007C00080020
:100350007D0020007D0010007D000E009000000058
:1003600091000E0091001A009100310091005A0096
:10037000910069009100750091007E009100880055
:1003800091008F00910096009100A3009100AF00B2
:100390009100C4009100D7009100E8009100200076
:1003A00092000000930006009300E3009300050014
:1003B00093000500930000009300040093000000E8
:1003C00093000000930000009300000093000000E1
:1003D00093000000930000009600000097000800C2
:1003E000970019009700020097000C009700240066
:1003F0009700300097002800970026009700020021
:100400009700980097008000970000009700000078
:10041000C300ED00A4000000A8000000C50011000A
:10042000C6005100BF008000C7001000B600660083
:10043000B800A500B7006400B9007C00B300AF00AD
:10044000B4009700B500FF00B000C500B1009400F3
:10045000B2000F00C4005C00C0006400C1004B008B
:100460008C00000086003D00500000005100C800D4
:100470005200960053000000540000005500000098
:100480005A00C8005B0096005C000000D30000002A
:10049000C300ED007F000000DA000000E5001F004F
:1004A000E1006700E0000000DD007F0005000000C3
:1004B00012004000D3000400C0001600C10012006A
:1004C0008C00000086003D005000000051002C0010
:1004D00052002400530000005400000055000000AA
:1004E0005A002C005B0024005C000000FF00FF00AD
:1004F000FF0000002C00FF002E00DF00FF000100C5
:100500003C00320011000000090002000400A800B5
:100510001300E500140048002C000C0033007800A4
:100520003A0033003B00FB003E0000004300110096
:1005300016001000390002003500880022000A0071
:1005400037004000230000003400A0000600020035
:10055000060088000700C0000D00B7000E00010073
:100560004C0000004A008100210099002400400056
:1005700025003800260082005C00000063000000B7
:10058000460022000C003A005D0055005E007D0030
:100590005F007D0060005500610070006200800017
:1005A0007C00050020008000280030006C00000066
:1005B0006D0080006E000000700002007100940069
:1005C0007300C1003D003400120004005A005700BF
:1005D0004F00BB0050009C00FF000000E5007F00C2
:1005E000F900C00041002400E00014007600FF0084
:1005F0003300A00042002000430018004C0000001F
:100600008700D00088003F00D7000300D900100009
:10061000D3008200C8000800C90080007C000000F0
:100620007D0000007C0003007D0048007D00480044
:100630007C0008007D0020007D0010007D000E0081
:100640009000000091000E0091001A00910031000E
:1006500091005A00910069009100750091007E00A0
:100660009100880091008F00910096009100A300F6
:100670009100AF009100C4009100D7009100E80004
:100680009100200092000000930006009300E30018
:100690009300030093000300930000009300020006
:1006A00093000000930000009300000093000000FE
:1006B00093000000930000009300000096000000EB
:1006C00097000800970019009700020097000C009F
:1006D000970024009700300097002800970026001C
:1006E0009700020097009800970080009700000094
:1006F00097000000A4000000A8000000C500110041
:10070000C6005100BF008000C7001000B6006600A0
:10071000B800A500B7006400B9007C00B300AF00CA
:10072000B4009700B500FF00B000C500B100940010
:10073000B2000F00C4005C00A6000000A70020006B
:10074000A700D800A7001B00A7003100A7000000E9
:10075000A7001800A7002000A700D800A7001900D4
:10076000A7003100A7000000A7001800A700200084
:10077000A700D800A7001900A7003100A7000000BB
:10078000A70018007F000000E5001F00E1007700CF
:10079000DD007F00C2000E00FF000000E00004004A
:1007A000C000C800C100960086003D0051009000C6
:1007B00052002C0053000000540000005500880037
:1007C00057000000500092005A0050005B003C00AF
:1007D0005C000000D3000400E0000000FF00000007
:1007E00005000000DA000800D7000300E000000068
:1007F00005000000FF00FF0041434B20434D442013
:100800004F56323634302064657465637465642EE7
:100810000041434B20434D442043616E27742066C2
:10082000696E64204F5632363430206D6F64756CBB
:1008300065210041434B20434D44205350492069DA
:100840006E74657266616365204F4B2E0041434BA9
:1008500020434D442053504920696E74657266618F
:100860006365204572726F722100534420496E699E
:100870007469616C697A6174696F6E20636F6D7001
:100880006C65746500534420496E697469616C69D4
:100890007A6174696F6E206661696C656400496E87
:1008A000697469616C697A696E6720534420636179
:1008B00072640041434B20434D44204172647543B0
:1008C000414D20537461727421005374617274201D
:1008D00053657269616C2061742039323136303071
:1008E000005232004E410052000000210024002737
:1008F000002A002D00300033000101000004010730
:10090000010A0100000A0B02090C0D0E080703047E
:1009100001000000000000000000000000000000D6
:1009200000000000000000000000000000000012B5
:100930001110000000000000000000000000000096
:100940000000000000000000000000220025002838
:10095000002B002E003100340002010000050108C8
:10096000010B01000020002300260029002C002F8D
:100970000032000001000003010601090105050520
:1009800005070508080808020202020A0A08080406
:100990000404040101010101010101030303030334
:1009A000030303040707070C0C0C0C0C0C0C0C02C3
:1009B00002020206060606060606060B0B0B0B0BCA
:1009C0000B0B0B01021020200808102040102040C3
:1009D0008002010201080402010102040810204003
:1009E0008080402010080402018004020180402021
:1009F000100804020108040201010204081020404A
:100A0000800102040810204080005E19E81A1124B9
:100A10001FBECFEFD1E2DEBFCDBF00E00CBF12E0C2
:100A2000A0E0B2E0EEE2FBE300E00BBF02C0079003
:100A30000D92A236B107D9F728E0A2E6B2E001C0D4
:100A40001D92A737B207E1F715E0C6E0D5E000E058
:100A500006C021970109802FFE010E94721CC5303B
:100A6000D10780E00807A9F70E94BB140C94861DEB
:100A7000C7CAFC01A089B1898C91A689B78982FD7A
:100A80000FC09C91818D8F5F8F73228D821749F0EB
:100A9000218DDF01A20FB11D5D969C93818F08957A
:100AA0008C910895FC01538D448D252F30E0842FC7
:100AB00090E0821B930B541710F0CF960895019786
:100AC0000895FC01918D828D981761F0828DDF0170
:100AD000A80FB11D5D968C91928D9F5F9F73928F31
:100AE00090E008958FEF9FEF0895FC01918D828D26
:100AF000981731F0828DE80FF11D858D90E00895F3
:100B00008FEF9FEF0895FC01918D228D892F90E04A
:100B1000805C9F4F821B91098F73992708958DE206
:100B200096E0F1DF21E0892B09F420E0822F08957F
:100B30008AEC96E0E8DF21E0892B09F420E0822F9F
:100B40000895FC01848DDF01A80FB11DA35ABF4F8A
:100B50002C91848D90E001968F739927848FA689BC
:100B6000B7892C93A089B1898C9180648C93938DE3
:100B7000848D981306C00288F389E02D80818F7DD3
:100B800080830895EF92FF920F931F93CF93DF938B
:100B9000EC0181E0888F9B8D8C8D981305C0E889CE
:100BA000F989808185FD23C0F62E0B8D10E00F5F43
:100BB0001F4F0F731127E02E8C8DE8120BC00FB65C
:100BC00007FCFACFE889F989808185FFF5CFCE014E
:100BD000B8DFF2CF8B8DFE01E80FF11DE35AFF4F16
:100BE000F0820B8FEA89FB898081806207C0EE89E1
:100BF000FF896083E889F98980818064808381E04E
:100C000090E0DF91CF911F910F91FF90EF900895A9
:100C1000CF93DF93EC01888D8823C1F0EA89FB89AB
:100C2000808185FD05C0A889B9898C9186FD0EC09B
:100C30000FB607FCF5CF808185FFF2CFA889B9896F
:100C40008C9185FFEDCFCE017CDFE8CFDF91CF9196
:100C5000089580E090E0892B19F06ADF811120C0AF
:100C600080E090E0892B41F080E090E0892B21F03A
:100C70000E940000811117C080E090E0892B41F0B4
:100C800080E090E0892B21F00E94000081110EC0CD
:100C900080E090E0892B79F042DF81110AC008954D
:100CA0000E940000DDCF0E940000E6CF0E940000FD
:100CB000EFCF0C94000008953FB7F8948091BB03E8
:100CC0009091BC03A091BD03B091BE0326B5A89B33
:100CD00005C02F3F19F00196A11DB11D3FBFBA2FCE
:100CE000A92F982F8827820F911DA11DB11DBC012E
:100CF000CD0142E0660F771F881F991F4A95D1F7F3
:100D000008950E94721D1F920F920FB60F92112428
:100D10000BB60F922F933F934F935F936F937F93F5
:100D20008F939F93AF93BF93EF93FF938DE296E0E2
:100D300008DFFF91EF91BF91AF919F918F917F91CC
:100D40006F915F914F913F912F910F900BBE0F903C
:100D50000FBE0F901F9018951F920F920FB60F9213
:100D600011240BB60F922F933F934F935F936F9382
:100D70007F938F939F93AF93BF93EF93FF938DE2F6
:100D800096E077DEFF91EF91BF91AF919F918F91A8
:100D90007F916F915F914F913F912F910F900BBE7B
:100DA0000F900FBE0F901F9018951F920F920FB6C5
:100DB0000F9211240BB60F922F933F934F935F9393
:100DC0006F937F938F939F93AF93BF93EF93FF9313
:100DD0008AEC96E0B6DEFF91EF91BF91AF919F91C3
:100DE0008F917F916F915F914F913F912F910F90D4
:100DF0000BBE0F900FBE0F901F9018951F920F9271
:100E00000FB60F9211240BB60F922F933F934F936F
:100E10005F936F937F938F939F93AF93BF93EF9362
:100E2000FF938AEC96E025DEFF91EF91BF91AF91A1
:100E30009F918F917F916F915F914F913F912F91F2
:100E40000F900BBE0F900FBE0F901F901895362F6E
:100E500090E0FC01ED5FF64F4491FC01ED53F64F3D
:100E60002491FC01E358F64F9491992309F46BC047
:100E7000442309F455C050E0FA013197E231F105FD
:100E800008F04EC08827EE58FF4F8F4F0C94721C0D
:100E9000809180008F7707C0809180008F7D03C094
:100EA00080918000877F809380003AC084B58F77DF
:100EB00002C084B58F7D84BD33C08091B0008F7730
:100EC00003C08091B0008F7D8093B00029C08091D5
:100ED00090008F7707C0809190008F7D03C0809134
:100EE0009000877F809390001BC08091A0008F7737
:100EF00007C08091A0008F7D03C08091A000877FF4
:100F00008093A0000DC0809120018F7707C0809151
:100F100020018F7D03C080912001877F8093200175
:100F2000E92FF0E0EE0FFF1FE75BF64FA591B491BC
:100F30008FB7F894EC91311103C020952E2301C096
:100F40002E2B2C938FBF0895CF93DF9390E0FC015D
:100F5000ED53F64F2491FC01E358F64F849188231A
:100F600061F190E0880F991FFC01E751F74FC5919F
:100F7000D491FC01E75BF64FA591B491611109C0D2
:100F80009FB7F8948881209582238883EC912E2343
:100F90000BC0623061F49FB7F8943881822F80953E
:100FA00083238883EC912E2B2C939FBF06C08FB791
:100FB000F894E8812E2B28838FBFDF91CF9108957D
:100FC0008F929F92AF92BF92CF92DF92EF92FF9259
:100FD0006B017C0171DE4B015C01C114D104E104A1
:100FE000F104E9F069DEDC01CB0188199909AA094D
:100FF000BB09883E9340A105B10578F321E0C21AF0
:10100000D108E108F10888EE880E83E0981EA11C43
:10101000B11CC114D104E104F10421F7DECFFF902B
:10102000EF90DF90CF90BF90AF909F908F900895FA
:101030002FB7F8946091B7037091B8038091B9030A
:101040009091BA032FBF08951F920F920FB60F927F
:1010500011242F933F938F939F93AF93BF938091CE
:10106000B7039091B803A091B903B091BA0330913E
:10107000B60323E0230F2D3720F40196A11DB11DE7
:1010800005C026E8230F0296A11DB11D2093B603CB
:101090008093B7039093B803A093B903B093BA03B6
:1010A0008091BB039091BC03A091BD03B091BE039E
:1010B0000196A11DB11D8093BB039093BC03A09327
:1010C000BD03B093BE03BF91AF919F918F913F91AC
:1010D0002F910F900FBE0F901F9018958FB7F89417
:1010E0008091B0038FBF08950F931F93CF93DF9329
:1010F000EB019EDF8B010E9431148F3F41F098DF9E
:10110000601B710B6C177D07B0F380E001C081E0BC
:10111000DF91CF911F910F910895EF92FF920F935E
:101120001F93CF93DF93EC017901411551056105C0
:10113000710511F482E13BC08B85833039F089E081
:10114000440F551F661F771F8A95D1F79A01AB018F
:1011500068E1CE010E943314882311F084E027C097
:101160008EEF0E942A1487018EEFF81AF801819100
:101170008F010E942A140E151F05C1F78FEF0E94E0
:101180002A148FEF0E942A140E9431148A878F71CB
:10119000853031F081E18D83CE010E940C1208C0B0
:1011A00068E572E0CE01A0DF811107C085E18D8383
:1011B000CE010E940C1280E013C020E030E0A901B3
:1011C0006DE0CE010E943314811104C00E943114DD
:1011D000882311F084E1EBCFCE010E940C1281E054
:1011E000DF91CF911F910F91FF90EF900895809123
:1011F000B103882399F1409102025091030260915A
:101200000402709105022FEB33E08091BF059091AD
:10121000C00583DF811102C080E008954091B203D0
:101220005091B3036091B4037091B503411551051A
:101230006105710589F02FEB33E08091BF05909136
:10124000C0056BDF882341F31092B2031092B30301
:101250001092B4031092B5031092B10381E0089587
:10126000CF93DF93EC018E81882389F08F8198855D
:101270009C012F5F3F4F38872F838230924018F4B4
:101280000E943114F3CFCE010E940C121E82DF9116
:10129000CF910895BF92CF92DF92EF92FF920F937A
:1012A0001F93CF93DF936B017C01B42E80910202D8
:1012B00090910302A0910402B09105028C159D0546
:1012C000AE05BF0509F472C092DF882309F475C02A
:1012D000C091BF05D091C0058E81882369F08881B7
:1012E0009981AA81BB81C816D906EA06FB0621F4BA
:1012F0008F819885892BA1F1C882D982EA82FB82ED
:101300008B85A7019601833039F089E0220F331FC6
:10131000441F551F8A95D1F761E1CE010E94331415
:10132000882319F083E08D8334C082DE8B010E9414
:1013300031148A878F3F41F47BDE601B710B6D3265
:101340007140A8F38FE003C08E3F31F08DE08D83B4
:10135000CE010E940C121DC018861F8281E08E8370
:101360000FEB13E00E943114F80181938F01F5E037
:101370000F3B1F07B9F78F8198859E5F98878F83F2
:101380002985222319F08115924040F0CE0168DFB3
:1013900005C0CE010E940C1280E00FC0C092020274
:1013A000D0920302E0920402F09205028091B10310
:1013B000482F4B294093B10381E0DF91CF911F91DA
:1013C0000F91FF90EF90DF90CF90BF9008954F92D4
:1013D0005F926F927F928F929F92AF92BF92CF92C5
:1013E000DF92EF92FF920F931F93CF93DF93EC0165
:1013F0006A017B01280139014230510561057105FF
:1014000010F480E072C089859A85AB85BC85019611
:10141000A11DB11D84179507A607B70790F38B8808
:101420009C88AD88BE888F89803129F4BB27AF2D79
:101430009E2D8D2D09C0DB01CA0147E0B695A79509
:10144000979587954A95D1F7880E991EAA1EBB1EBF
:101450008091020290910302A0910402B0910502D2
:1014600088169906AA06BB0679F48F89803199F40B
:10147000DD24EE24FF24C601880F991FFC01E154EE
:10148000FC4F5182408218C040E0C501B40102DF28
:101490008111EBCFB6CFE894C7F8DD24EE24FF240A
:1014A000C601880F991F880F991FFC01E154FC4F5A
:1014B00040825182628273828091B1038160809305
:1014C000B1038A89823080F08D819E81AF81B88599
:1014D000880E991EAA1EBB1E8092B2039092B3037F
:1014E000A092B403B092B50381E0DF91CF911F9138
:1014F0000F91FF90EF90DF90CF90BF90AF909F90B3
:101500008F907F906F905F904F9008958F929F92F1
:10151000AF92BF92CF92DF92EF92FF920F931F9301
:10152000CF93DF93FC0181859285A385B4850196D5
:10153000A11DB11D84179507A607B70710F480E019
:101540005BC083899489A589B689C789C03129F48C
:10155000852E962EA72EBB2409C04A015B01C7E049
:10156000B694A79497948794CA95D1F7E9016A0134
:101570007B018F01BC01CD01680D791D8A1D9B1D6A
:101580008090020290900302A0900402B0900502A5
:10159000681579058A059B0599F4F80187898031DA
:1015A000A1F4B701A601552766277727440F551FD9
:1015B000FA01E154FC4F80819181A0E0B0E017C0B6
:1015C00040E068DE8111E9CFBACFB701A6014F77BD
:1015D000552766277727440F551F440F551FFA01DB
:1015E000E154FC4F80819181A281B381BF708883D7
:1015F0009983AA83BB8381E0DF91CF911F910F91E3
:10160000FF90EF90DF90CF90BF90AF909F908F9022
:1016100008953F924F925F926F927F928F929F9226
:10162000AF92BF92CF92DF92EF92FF920F931F93F0
:10163000CF93DF93CDB7DEB72C970FB6F894DEBF0C
:101640000FBECDBF5C01DC015B968D909C905C97DA
:101650001696CD90DD90ED90FC901997C114D104B1
:10166000E104F10439F0BFEFCB1ADB0AEB0AFB0A05
:10167000312C07C0F401C080D180E280F380332494
:101680003394F40181859285A385B4859C01AD01D5
:101690002F5F3F4F4F4F5F4F29873A874B875C87BC
:1016A000260137011D821E821F821886F401818562
:1016B0009285A385B4852D813E814F815885281759
:1016C00039074A075B0708F060C089859A85AB85B2
:1016D000BC858C159D05AE05BF0550F482E0C82E73
:1016E000D12CE12CF12C92E0492E512C612C712C43
:1016F0009E012F5F3F4FB701A601C40107DF88237A
:1017000009F443C089819A81AB81BC81892B8A2BE2
:101710008B2B41F0260137019FEF491A590A690ABC
:10172000790A05C0C414D504E604F70491F02D81AC
:101730003E814F8158852F5F3F4F4F4F5F4F2D8325
:101740003E834F8358873FEFC31AD30AE30AF30A55
:10175000ADCF0FEF1FEF2FEF3FE0B301A201C401A8
:1017600036DE882391F0D50116964D915D916D91ED
:101770007C911997411551056105710541F093015F
:101780008201C40124DE811102C080E02AC0D5019B
:1017900016964D925D926D927C921997332051F07E
:1017A000D301C2010196A11DB11DF4018083918373
:1017B000A283B383F5018789908DA18DB28D892B8A
:1017C0008A2B8B2B69F4D50157964D925D926D92C1
:1017D0007C925A9714968C911497806814968C93E7
:1017E00081E02C960FB6F894DEBF0FBECDBFDF911F
:1017F000CF911F910F91FF90EF90DF90CF90BF900E
:10180000AF909F908F907F906F905F904F903F90A0
:1018100008954F925F926F927F928F929F92AF92B4
:10182000BF92EF92FF920F931F93CF93DF9300D05D
:101830001F921F92CDB7DEB78C016D83DC01159628
:101840008C911597813009F056C014968C9181FFC8
:1018500052C059C0038CF48DE02D258530E0275F00
:101860003F4F2A013B01B1E04B1A51086108710852
:10187000022E04C076946794579447940A94D2F742
:10188000D501C4010197A109B10904C0B695A79576
:10189000979587952A95D2F784159505A605B705DE
:1018A00008F06FC0F8014789508D618D728D4683B5
:1018B0005783608771872C013D017801E6E0EE0EC9
:1018C000F11CD801411451046104710409F463C08E
:1018D00016964D915D916D917C91199797015B964C
:1018E0008D919C915C9712DEB1E04B1A5108610812
:1018F00071088111E6CF81E090E0F8019383828343
:1019000080E090E049C182FF0EC0F8014285538516
:101910006485758583889488A588B6884815590597
:101920006A057B05F1F4D8011A964D915D916D9190
:101930007C911D975B968D919C915C97FC017480C6
:101940007A944A015B0129E0B694A794979487940E
:101950002A95D1F778207A01F1E0FF22772011F162
:1019600062C081149104A104B10409F073CF1682FE
:10197000178210861186F801128613861486158642
:10198000D2CF452B462B472B09F48CCF84199509D0
:10199000A609B70990CF1A968D929D92AD92BC92EE
:1019A0001D97C1CFE114F10409F03DC0F801468153
:1019B000578160857185411551056105710549F4AF
:1019C0008789908DA18DB28D0097A105B10531F564
:1019D00020C09E012F5F3F4F99DD882309F490CFEF
:1019E00089819A81AB81BC81F801238D348DF90105
:1019F0002789203129F048EF5FEF6FEF7FE004C0C7
:101A000048EF5FEF60E070E084179507A607B7071F
:101A100028F0C801FEDD811106C06DCFF801868374
:101A20009783A087B187D8015B96ED91FC915C9775
:101A300016968D909D90AD90BC901997B2E08B1A40
:101A40009108A108B108058404C0880C991CAA1C3F
:101A5000BB1C0A94D2F786859785A089B189880E28
:101A6000991EAA1EBB1E870C911CA11CB11CE1145F
:101A7000F10401F5F80142855385648575858389F4
:101A80009489A589B689481759076A077B0790F09A
:101A9000AEDB882309F42FCF8092020290920302DA
:101AA000A0920402B09205028091B10381608093FC
:101AB000B10307C041E0C501B401ECDB882309F4A0
:101AC0001ACFF701E154FC4F8D818083F8018285A4
:101AD0009385A485B5850196A11DB11D8287938745
:101AE000A487B5874389548965897689481759073A
:101AF0006A077B0738F4838B948BA58BB68B848124
:101B000080688483D80114968C9183FD03C081E0A2
:101B100090E042C0F8019581992309F4ECCE87FF4B
:101B200037C0668577858089918941E0B3DB88235A
:101B300009F4E1CED8015296EC91B0E2EB9F90010E
:101B40001124D901A154BC4F109709F4D4CEF80147
:101B50008581823050F443895489658976895C9601
:101B60004D935D936D937C935F97F8018789908D7A
:101B7000A18DB28DF901E154FC4F938F828FB58B0B
:101B8000A48BD80114968C9114978F7714968C930C
:101B90002EDB8111BCCFAFCE0F900F900F900F9026
:101BA0000F90DF91CF911F910F91FF90EF90BF9019
:101BB000AF909F908F907F906F905F904F9008951F
:101BC000382F20912C069091E907213208F049C066
:101BD000809109068111FCCF42E0409309063093C1
:101BE00008063FEF3093070610920606209305067D
:101BF000ACE0B6E045EE55E0FA013E2F341B32175B
:101C000018F43D913193F9CF1092E4052091E40549
:101C1000990F922B9093E4059091E305913061F434
:101C20001092E3059091E4059093BB009091BC0065
:101C300093FDF8CF95EC01C095EE9093BC00909188
:101C400009069230E1F3909107069F3F79F0809169
:101C50000706803241F080910706803331F084E03E
:101C600005C081E003C082E001C083E010920B0652
:101C700010922C0610920A06089542E050E06EE59C
:101C800072E08AEC96E04CC60F931F93CF93DF93DC
:101C90008C01C0E0D0E0F801EC0FFD1F64916623D9
:101CA00071F0E091CA06F091CB060190F081E02D31
:101CB0008AEC96E01995892B11F02196ECCFCE0194
:101CC000DF91CF911F910F910895CF93DF93DCDFC8
:101CD000EC01D3DF8C0F9D1FDF91CF910895CF933F
:101CE000C62F2091C30730E03595279591E090935A
:101CF0000A062093E90710920B0610922C06682F13
:101D000082EB97E057D36C2F82EB97E053D381E0BF
:101D100057DF811107C061E070E080E090E050D9AA
:101D200081E001C080E0CF910895CF93DF93EB0174
:101D30002091C30730E03595279591E090930A06EE
:101D40002093E90710920B0610922C06682F82EB65
:101D500097E030D381E034DF8091C307909109068A
:101D60009111FCCF91E090930906909308062FEF14
:101D70002093070610920606109205069093E4053C
:101D80009091E4058E7F892B8093E4058091E30593
:101D9000813061F41092E3058091E4058093BB00EB
:101DA0008091BC0083FDF8CF85EC01C085EE809367
:101DB000BC00809109068130E1F380910606811113
:101DC00003C08091060601C081E0A5EEB5E023ECDA
:101DD00035E0F9019E2F921B981718F49D9191936D
:101DE000F9CF1092C2058093C105882321F082EBC0
:101DF00097E095D2888361E070E080E090E0E0D8E1
:101E000081E0DF91CF910895EF92FF920F931F939E
:101E1000CF93DF93EC01E12CF12C00E010E08FEF89
:101E2000E816F10461F0FE0105911491FE0132966D
:101E3000E590F490B701C80152DF2496F0CF0F3F30
:101E4000110589F781E090E0DF91CF911F910F910B
:101E5000FF90EF9008958F929F92AF92BF92CF9292
:101E6000DF92EF92FF92CF93DF93C82F89E697E03E
:101E70009093C0058093BF05CC2361F1C53010F06D
:101E800080E00BC140E060E070E0CB0103DA882322
:101E9000B9F320E1C29FC001112481559C4FFC0180
:101EA000E254FE4F20812F7759F73C9640815181B3
:101EB00062817381443651056105710508F33497D9
:101EC000C080D180E280F380C114D104E104F10428
:101ED00021F4D6CFC12CD12C760140E0C701B60148
:101EE000D9D9882369F28091CA039091CB038115D7
:101EF000924031F6A091CF03AA2309F4C1CF60919B
:101F0000CD037091CE036115710509F4B9CF20910D
:101F1000CC03222309F4B4CFA09387072093790739
:101F200080E030E0E1E0F0E0C82FAF01082E02C011
:101F3000440F551F0A94E2F72417350741F0982FF4
:101F40008F5F983089F789E08093820799CF8093DB
:101F500082072091D5033091D6032115310519F060
:101F600040E050E008C02091E3033091E403409149
:101F7000E5035091E60320937A0730937B07409363
:101F80007C0750937D0746015701860E971EA11CC2
:101F9000B11C8092880790928907A0928A07B0921C
:101FA0008B07E091D003F091D103F0938E07E0937B
:101FB0008D07B0E00E94241C860E971EA81EB91E35
:101FC00080928F0790929007A0929107B09292070B
:101FD00085E0EE0FFF1F8A95E1F7E150FE4FEF2FEE
:101FE000FF27E6958E0E9F1EA11CB11C80928307D1
:101FF00090928407A0928507B09286072091D20321
:102000003091D3032115310521F0A90160E070E082
:1020100008C04091DF035091E0036091E1037091AB
:10202000E203D701C60188199909AA09BB09840FDF
:10203000951FA61FB71F04C0B695A79597958795BE
:10204000CA95D2F780937E0790937F07A09380076D
:10205000B0938107853F2FE09207A105B10510F4E9
:102060008CE018C0853F9F4FA105B10510F480E1B9
:1020700011C08091EB039091EC03A091ED03B0911E
:10208000EE0380938F0790939007A0939107B093EE
:10209000920780E280938C0781E0DF91CF91FF90DF
:1020A000EF90DF90CF90BF90AF909F908F9008956A
:1020B0008F929F92AF92BF920F931F93CF93DF9314
:1020C000CDB7DEB7A1970FB6F894DEBF0FBECDBF78
:1020D00019A2423008F44AE08E010F5D1F4F842E92
:1020E000912CA12CB12CA50194010E94501CE62F2B
:1020F000B901CA0101501109EA3014F4E05D01C0D0
:10210000E95CD801EC93232B242B252B61F70115D7
:10211000110569F0F80101900020E9F73197AF014E
:10212000401B510BB8018AEC96E0FAD302C080E064
:1021300090E0A1960FB6F894DEBF0FBECDBFDF9141
:10214000CF911F910F91BF90AF909F908F90089566
:1021500020916402309165022817390771F490913B
:10216000620280916302981741F0E0916202F0E010
:10217000EE5CF74F808190E008958FEF9FEF089518
:1021800008951F93CF93DF93DC015C962D913C91D2
:102190005D972115310539F481E090E013969C9309
:1021A0008E9312973DC05196ED91FC9152975096A7
:1021B0009C915097892F80951FB75E964C915E97A2
:1021C00041FB772770F941FD6095F89440817723B2
:1021D00011F0492B01C048234083E9012197F1F711
:1021E00048E0508160FF02C0592B01C05823508342
:1021F000E9012197F1F76695415099F7772321F08E
:1022000090818923808303C08081982B90831FBF96
:102210005C968D919C915D970197F1F721E030E0FC
:10222000C901DF91CF911F910895209164023091EF
:1022300065022817390769F48091630220916202D0
:1022400090E0805C9F4F821B910960E470E00C94E9
:102250003D1C80E090E00895209164023091650279
:1022600028173907B9F49091620280916302981798
:1022700089F0E0916202F0E0EE5CF74F80812091FE
:10228000620230E02F5F3F4F2F73332720936202AB
:1022900090E008958FEF9FEF089585ED8093BC0047
:1022A0008091BC0084FDFCCF1092090608954091F6
:1022B0000C08262F30E0240F311D21323105DCF4CB
:1022C000209109062430C9F4FC0180E090E08617D3
:1022D00058F430910C082191DC01A651B84FA30F9E
:1022E000B11D2C930196F3CF80910C08680F609379
:1022F0000C0880E0089581E0089582E00895089533
:10230000E091C2058091C105E81730F4F0E0ED538B
:10231000FA4F808190E008958FEF9FEF089590919C
:10232000C2058091C105981750F4E92FF0E0ED53F4
:10233000FA4F208130E09F5F9093C20502C02FEFDB
:102340003FEFC90108958091C10590E02091C20539
:10235000821B91090895CF92DF92EF92FF920F9323
:102360001F93CF93DF937C01262F972F8A018091B3
:102370000A06882391F0C62FD72F6E01C40ED51EF2
:10238000CC15DD0569F06991D701ED91FC910190C3
:10239000F081E02DC7011995F3CF642F822F87DFDD
:1023A000C801DF91CF911F910F91FF90EF90DF90C7
:1023B000CF900895CF93DF931F92CDB7DEB7698397
:1023C00020910A062223D1F020912C06203240F0E1
:1023D00021E030E0FC013383228380E090E014C0F0
:1023E00080910B06E82FF0E0E45FF94F998190832C
:1023F0008F5F80930B0680932C0604C061E0CE01B2
:10240000019655DF81E090E00F90DF91CF91089524
:10241000089580E090E0089561E0FC0184810E94CD
:1024200027078091720881111092720808958CBD5F
:102430009DBD0895CF93DF93EC01809172088111C7
:1024400008C081E0809372088091670790916807C7
:10245000EEDF60E08C81DF91CF910C9427071F9213
:102460000F920FB60F9211240BB60F922F933F933A
:102470004F935F936F937F938F939F93AF93BF938C
:10248000EF93FF93E0916402F0916502309709F4B5
:1024900051C0968DA685B785858591FF04C09C9116
:1024A000892329F447C09C91892309F043C0A3895B
:1024B000B4899C918589809589238C938689978995
:1024C0000197F1F7608D718DA685B785558538E048
:1024D00020E0CB010197F1F7822F90E09595879549
:1024E000282F4C91452309F02068315091F7868DB3
:1024F00081FD20958091630290E001968F7399276A
:1025000030916202381749F0A0916302B0E0AE5CEE
:10251000B74F2C938093630203C0868D8160868FB2
:10252000828D938D0197F1F7A389B4899C91858958
:10253000892B8C93FF91EF91BF91AF919F918F91D8
:102540007F916F915F914F913F912F910F900BBEB3
:102550000F900FBE0F901F901895E0916402F091BC
:102560006502E817F90769F4A389B4899C91858904
:10257000809589238C93109265021092640281E009
:10258000089580E00895CF93CFB7F89480913108F3
:10259000811127C0E2EBF9E08491E8EFF9E0949132
:1025A000E82FF0E0EE0FFF1FE751F74FA591B49130
:1025B000EC91E92321F461E085E30E94270761E0C3
:1025C00085E30E94A4078CB580618CBD8CB58064C6
:1025D0008CBD61E084E30E94A40761E083E30E9474
:1025E000A407809131088F5F80933108CFBFCF91CE
:1025F00008951F920F920FB60F9211240BB60F92EF
:102600002F933F934F935F936F937F938F939F93FA
:10261000AF93BF93EF93FF938091B900887F80368B
:1026200009F49CC068F5883209F45BC090F48031ED
:1026300009F454C038F4882309F4F6C0883009F44A
:102640004DC0F5C0883109F44CC0803209F45DC03A
:10265000EEC0803409F468C048F4803309F455C0F2
:10266000883309F0E4C080930706D8C0803509F4A8
:102670004FC0883509F45DC0883409F0D8C0D6C091
:10268000883909F4C7C0A8F4883709F467C038F45A
:10269000883609F463C0803709F460C0C8C0883840
:1026A00009F4B8C0803909F45FC0803809F0BFC0B0
:1026B0005BC0803B09F486C038F4803A09F466C0F8
:1026C000883A09F47FC0B3C0803C09F4A7C0883CB5
:1026D00009F4A4C0883B09F48AC0A9C08091E4052C
:1026E00010C09091060680910506981770F5E0914C
:1026F000060681E08E0F80930606F0E0EB51FA4F5C
:1027000080818093BB0085EC86C0809307068EC0D5
:10271000E091060681E08E0F809306068091BB0053
:10272000F0E0EB51FA4F8083909106068091050608
:102730006EC0E091060681E08E0F809306068091C0
:10274000BB00F0E0EB51FA4F8083809108068111C5
:102750006DC081E08093E30584EA61C083E08093EB
:10276000090610923008CFCF80913008803208F0EF
:1027700051C0E091300881E08E0F80933008809145
:10278000BB00F0E0E05FF74F8083BDCF85EC809326
:10279000BC001092090680913008803230F4E0913C
:1027A0003008F0E0E05FF74F10826091300870E091
:1027B000E0910E08F0910F0880E198E019951092D1
:1027C000300835C084E08093090610920D081092FD
:1027D0000C08E0910A08F0910B08199580910C08FB
:1027E000811105C081E080930C081092EA07E09106
:1027F0000D0881E08E0F80930D08F0E0E651F84F50
:1028000080818093BB0090910D0880910C089817EF
:1028100008F479CF85E88093BC0009C085EC8093EB
:10282000BC001092090603C01092070636DDFF9126
:10283000EF91BF91AF919F918F917F916F915F9138
:102840004F913F912F910F900BBE0F900FBE0F90A5
:102850001F9018958EBD00000DB407FEFDCF8EB5FC
:1028600008958FEFF7CFCF92DF92FF920F931F93D0
:10287000CF93DF9300D01F92CDB7DEB76C01F62E59
:1028800029833A834B835C830E943009C601D2DDE1
:102890006CE271E0C6010E9474088F2D8064DADF5B
:1028A00008E110E05C814B813A812981DA01C9019C
:1028B000002E04C0B695A795979587950A94D2F7F0
:1028C00029833A834B835C83C5DF08501109298132
:1028D0003A814B815C81083F8FEF180739F7FF2061
:1028E00029F0E8E0FE1204C087E803C085E901C0D2
:1028F0008FEFB0DF10E0B5DFF601828787FF04C0FD
:102900001F3F11F01F5FF7CF0F900F900F900F90A8
:10291000DF91CF911F910F91FF90DF90CF9008959D
:10292000CF92DF92EF92FF920F931F93CF93DF939B
:102930006C017A018B01C0E0D0E0CE15DF0589F093
:10294000D8016D918D01D601ED91FC910190F0813E
:10295000E02DC6011995892B11F47E0102C0219644
:10296000ECCFC701DF91CF911F910F91FF90EF90B6
:10297000DF90CF900895CF93DF9300D000D0CDB7F4
:10298000DEB7789484B5826084BD84B5816084BDEF
:1029900085B5826085BD85B5816085BD80916E00FD
:1029A000816080936E00109281008091810082602E
:1029B000809381008091810081608093810080916B
:1029C00080008160809380008091B100846080935A
:1029D000B1008091B00081608093B000809191003F
:1029E000826080939100809191008160809391003A
:1029F000809190008160809390008091A10082601E
:102A00008093A1008091A10081608093A1008091BA
:102A1000A00081608093A00080912101826080935A
:102A20002101809121018160809321018091200109
:102A300081608093200180917A00846080937A0085
:102A400080917A00826080937A0080917A00816020
:102A500080937A0080917A00806880937A00109247
:102A6000C100E0913D06F0913E0682E08083E09156
:102A70003906F0913A0681E08083E0913B06F091BF
:102A80003C0680EA808310924506E0914106F09171
:102A9000420686E08083E0913F06F0914006808107
:102AA00080618083E0913F06F091400680818860DC
:102AB0008083E0913F06F0914006808180688083AA
:102AC000E0913F06F091400680818F7D80831092D7
:102AD000E5071092E4071092E3071092E2071092C4
:102AE000E1071092E0078EE393E09093E70780936D
:102AF000E6078091D60796EF980F943048F02EECB9
:102B0000280F243028F022EC280F283008F06EC05F
:102B10002DE831E03093E1072093E0072CE333E028
:102B20003093E3072093E20724E632E03093E50791
:102B30002093E407943060F02EEC280F243040F00E
:102B400022EC280F283008F4B1C3A0E0B0E0B0C3F5
:102B5000A8E6B0E0E8E6F0E02081943018F08E536B
:102B6000883010F081E001C084E0822B8C9380914A
:102B7000D60796EF980F943058F02EEC280F24309B
:102B800038F022EC280F283030F020E030E005C08B
:102B90002BE630E002C02DE630E03093DE072093D4
:102BA000DD07943010F49AEF0BC0823381F0833349
:102BB00081F0843381F092EC980F983070F492ECAD
:102BC000980F81E001C0880F9A95EAF707C088E066
:102BD00005C084E003C082E001C081E08093DF078C
:102BE0008091E6079091E7070197F1F78091E4075C
:102BF0009091E507892B19F180916402909165020B
:102C000027E08A3C9207D9F0009709F0A6DC809172
:102C1000E8078E7F8093E8071092630210926202A9
:102C20008AEC97E09093650280936402E091DD075F
:102C3000F091DE0790818091DF07892B80831092CD
:102C4000C2051092C10510920B0610922C0610922C
:102C5000090681E0809308061092E30561E084E1B3
:102C60000E94270761E085E10E9427078091B90053
:102C70008E7F8093B9008091B9008D7F8093B900D9
:102C800088E48093B80085E48093BC00E091DA0684
:102C9000F091DB0682E08083E091D606F091D706C2
:102CA0001082E091D806F091D90680E180831092DD
:102CB000E206E091DE06F091DF0686E08083E09197
:102CC000DC06F091DD06808180618083E091DC0686
:102CD000F091DD06808188608083E091DC06F091D0
:102CE000DD06808180688083E091DC06F091DD065E
:102CF00080818F7D80838AEC98E00E94650E83EB53
:102D000098E00E94650E61E087E00E94A4078EE9CA
:102D100098E00E94440E109274071092720710926D
:102D20006F0710926E0784E080936D070E94180869
:102D30007B0161E080916D070E94A40761E08091B2
:102D40006D070E9427071FDC82E5809367071092BA
:102D50006807809167079091680769DB1AE08FEF39
:102D600079DD1150E1F789E697E064DB20E030E09F
:102D7000A90160E089E697E076DD182F809373075C
:102D8000813049F00E9418086E197F09613D774033
:102D900068F381E04FC02AEA31E040E050E068E0AB
:102DA00089E697E060DD82FF03C0109374070DC0D1
:102DB00014E057DD809373071150D9F78A3A11F068
:102DC00082E038C082E0809374078091740782307B
:102DD00021F0812C912C540105C0812C912CA12C27
:102DE00070E4B72E20E030E0A90167E389E697E0C0
:102DF0003ADDA501940169E289E697E034DD80932C
:102E00007307882349F00E9418086E197F09613DF5
:102E1000774040F388E00EC0809174078230D1F48F
:102E200020E030E0A9016AE389E697E01CDD882311
:102E300039F086E080936E0789E697E0EDDA31C2DB
:102E400010DD807C803C19F483E08093740709DDF9
:102E500008DD07DD89E697E0DFDA80E58093670724
:102E60001092680781E00E942B0F882329F080913F
:102E70009807882341F015C280E00E942B0F882319
:102E800009F40FC2F4CF80918C07803109F582E0FC
:102E9000809398071092AA071092AB071092AC0784
:102EA0001092AD0780918D0790918E07A0E0B0E061
:102EB00065E0880F991FAA1FBB1F6A95D1F7809301
:102EC000A6079093A707A093A807B093A9075DC092
:102ED000803209F0E6C183E08093980780918F07E4
:102EE00090919007A0919107B09192078093AA07C3
:102EF0009093AB07A093AC07B093AD0789839A83F7
:102F0000AB83BC83C12CD12C7601812C52E0952E51
:102F1000A12CB12C49815A816B817C819E012F5F4C
:102F20003F4F85E797E00E94860A882309F4B9C1DC
:102F3000D501C4010090820704C0880F991FAA1F01
:102F4000BB1F0A94D2F7C80ED91EEA1EFB1E498188
:102F50005A816B817C8180918C07803129F088EFC8
:102F60009FEFAFEFBFE004C088EF9FEFA0E0B0E0BD
:102F7000481759076A077B0768F2C092A607D092E4
:102F8000A707E092A807F092A90785E797E090933A
:102F9000AF078093AE0781E080939707109299075F
:102FA00010929A0710929B0710929C0710929D070F
:102FB00010929E0710929F071092A0071092A107EF
:102FC0001092A2071092A3071092A4071092A507CF
:102FD0008AE698E00E94650ED6DAE091BE07F0918D
:102FE000BF0790818091C00780958923808380E806
:102FF00031DC85E52FDCE091BE07F091BF079081C1
:103000008091C007892B8083E091BE07F091BF07B4
:1030100090818091C00780958923808380E01ADCAD
:1030200080E018DCE091BE07F091BF07208190910D
:10303000C007922B9083853559F08DE498E00E946B
:10304000650E68EE73E080E090E00E94E007C5CF77
:1030500083E398E00E94650E61E070E08FEF90E0FE
:103060000E946F0EBE016A5F7F4F8AE00E94950E3C
:10307000BE016B5F7F4F8BE00E94950E8E81863282
:1030800059F081E198E00E94650E68EE73E080E0FF
:1030900090E00E94E007E0CF88EF97E00E94650E85
:1030A00081E08093C1078091C2078530A9F561E076
:1030B00070E08FEF90E00E946F0E60E870E082E1B8
:1030C00090E00E946F0E64E670E080E090E00E9465
:1030D000E0078091C1078130D9F484EF91E00E942C
:1030E000040F8CEC91E00E94040F88EA91E00E94AA
:1030F000040F61E070E08FEF90E00E946F0E60E0DF
:1031000070E085E190E00E946F0E88E091E002C0DF
:1031100080EF94E00E94040F88E091E00E94040F89
:10312000E091BE07F091BF0790818091C007809524
:103130008923808384E88EDB81E08CDBE091BE070D
:10314000F091BF0790818091C007892B80831092F6
:103150006702109266021092AF031092AE031092B3
:1031600081021092800287EE98E00E94650E8AEC40
:1031700097E05BD8892B09F487C08AEC97E06CD87C
:10318000909301028093000281EE98E00E94650E08
:10319000C0900002D09001020D2C000CEE08FF0838
:1031A000F7FE14C0E091CA06F091CB060190F081C1
:1031B000E02D6DE28AEC96E0199566277727CB0122
:1031C0006C197D098E099F094AE003C04AE0C701D6
:1031D000B6010E9458100E943D0EE0900002F0904F
:1031E00001028FEFE816F80609F452C0E091AE0331
:1031F000F091AF03EE57FD4FE082E091CA06F091E7
:10320000CB060190F081E02D6E2D8AEC96E01995A9
:103210008091AE039091AF0301969093AF0380939A
:10322000AE038C3221E0920731F12CE2E216F10478
:10323000A9F420918002309181022F5F3F4F30939B
:10324000810220938002F901EE0FFF1FEA59FD4F22
:10325000918380832D30310509F50DC02AE2E216F5
:10326000F10429F490937F0280937E0217C08AE0D4
:10327000E816F10499F41092AF031092AE03109285
:103280008102109280020AC084EE98E00E94650ECE
:1032900064E670E080E090E00E94E0070E9429066A
:1032A00062CF85E898E00E94650E5DCFA8E6B0E0A9
:1032B000283008F44FCCE0E0F0E04ECC109230061D
:1032C00010922F0688EE93E0A0E0B0E080933106E4
:1032D00090933206A0933306B093340620E132E097
:1032E00030932E0620932D0645E351E050933A0685
:1032F0004093390644E351E050933C0640933B062B
:1033000040E351E050933E0640933D0641E351E0D7
:103310005093400640933F0642E351E050934206EB
:103320004093410646E351E05093440640934306E0
:1033300010924606109247061092480610924906CF
:103340001092CD061092CC068093CE069093CF06B5
:10335000A093D006B093D1063093CB062093CA0633
:1033600025EC30E03093D7062093D60624EC30E0ED
:103370003093D9062093D80620EC30E03093DB065A
:103380002093DA0621EC30E03093DD062093DC0652
:1033900022EC30E03093DF062093DE0626EC30E0AE
:1033A0003093E1062093E0061092E3061092E406C3
:1033B0001092E5061092E60620E52093670710922A
:1033C000680710926E0710926F07109272071092A2
:1033D000740742E050E060E070E04093750750935E
:1033E0007607609377077093780710928C07109296
:1033F00096071092950722E232E0309394072093CB
:103400009307109298071092B5071092B407809313
:10341000B6079093B707A093B807B093B9072EE209
:1034200032E03093B3072093B2071092CD07109289
:10343000CC078093CE079093CF07A093D007B0938B
:10344000D10780E492E09093CB078093CA07109253
:10345000E1071092E0071092E3071092E207109242
:10346000E5071092E4071092E7071092E6076091D3
:10347000E8076E7F6D7F6093E8076695617081E075
:10348000682783E00E94270761E083E00E94A40789
:10349000E6ECF9E0E491E093DA07E0E8F9E0E491A2
:1034A000F0E0EE0FFF1FE75BF64F8591949190934C
:1034B000DC078093DB0760E082E00E94A407809134
:1034C000E80781FD04C061E082E00E94270782E0F6
:1034D0008093D607E5ECF9E0E491E093D707EFE7B6
:1034E000F9E0E491F0E0EE0FFF1FED59F64F859102
:1034F00094919093D9078093D8071092C5071092A2
:10350000C4071092C7071092C6071092C9071092FD
:10351000C8076CE070E080E090E000D20097A1F076
:103520009093C5078093C4072BE030E03093C70722
:103530002093C6072091C8073091C907232B09F0B3
:103540003DC0FC0110823AC08091C4079091C5072C
:10355000009709F0E1D01092C5071092C4071092AD
:10356000C9071092C8071092C7071092C607E4E86F
:10357000F9E0E491F0E0EE0FFF1FE75BF64F859175
:1035800094919093BF078093BE07EAECF9E0E49131
:10359000E093C00761E087E00E94A407E091BE07C6
:1035A000F091BF0790818091C007892B808385E0CF
:1035B0008093C20780E68093C30708952BE030E034
:1035C0003093C9072093C80762E572E098D2CFCF45
:1035D0008091C4079091C5079FD080E492E09093BA
:1035E000CB078093CA078AEC97E00C94AD12CF9377
:1035F000DF938230910510F482E090E0E09175084D
:10360000F091760820E030E0C0E0D0E0309711F192
:103610004081518148175907C0F04817590761F494
:1036200082819381209719F09B838A832BC090938A
:1036300076088093750826C02115310519F04217C8
:10364000530718F49A01BE01DF01EF010280F381F4
:10365000E02DDCCF2115310509F1281B390B243071
:10366000310590F412968D919C9113976115710517
:1036700021F0FB019383828304C0909376088093AA
:103680007508FD01329644C0FD01E20FF31F8193DE
:103690009193225031092D933C933AC020917308A5
:1036A00030917408232B41F42091080230910902D3
:1036B000309374082093730820910602309107021A
:1036C0002115310541F42DB73EB740910A025091C2
:1036D0000B02241B350BE0917308F0917408E2177C
:1036E000F307A0F42E1B3F0B2817390778F0AC0125
:1036F0004E5F5F4F2417350748F04E0F5F1F509302
:103700007408409373088193919302C0E0E0F0E065
:10371000CF01DF91CF9108950F931F93CF93DF9344
:10372000009709F48CC0FC01329713821282009139
:103730007508109176080115110581F420813181F9
:10374000820F931F2091730830917408281739074E
:1037500079F5F0937408E093730871C0D80140E0E4
:1037600050E0AE17BF0750F412962D913C9113977D
:10377000AD012115310509F1D901F3CF9D01DA0120
:103780003383228360817181860F971F821793078D
:1037900069F4EC0128813981260F371F2E5F3F4FD6
:1037A000318320838A819B8193838283452B29F4F3
:1037B000F0937608E093750842C01396FC93EE935D
:1037C0001297ED01499159919E01240F351FE2177F
:1037D000F30771F480819181840F951F02961196F1
:1037E0009C938E938281938113969C938E931297D0
:1037F000E0E0F0E0D80112968D919C91139700972C
:1038000019F0F8018C01F6CF8D919C9198012E5FF3
:103810003F4F820F931F209173083091740828172F
:10382000390769F4309729F41092760810927508D8
:1038300002C0138212821093740800937308DF9100
:10384000CF911F910F91089509D0A59F900DB49F1E
:10385000900DA49F800D911D11240895A29FB00189
:10386000B39FC001A39F700D811D1124911DB29FB4
:10387000700D811D1124911D089597FB072E16F4DC
:10388000009406D077FD08D035D007FC05D03EF473
:10389000909581959F4F0895709561957F4F0895FC
:1038A000A1E21A2EAA1BBB1BFD010DC0AA1FBB1F44
:1038B000EE1FFF1FA217B307E407F50720F0A21BB6
:1038C000B30BE40BF50B661F771F881F991F1A9423
:1038D00069F760957095809590959B01AC01BD014D
:1038E000CF010895EE0FFF1F881F8BBF0790F69141
:1038F000E02D1994AA1BBB1B51E107C0AA1FBB1FD7
:10390000A617B70710F0A61BB70B881F991F5A956B
:10391000A9F780959095BC01CD0108956F927F9293
:103920008F929F92AF92BF92CF92DF92EF92FF92CF
:103930000F931F93CF93DF93EC01009781F4CB019A
:10394000DF91CF911F910F91FF90EF90DF90CF907B
:10395000BF90AF909F908F907F906F9048CEFC016A
:10396000E60FF71F9C0122503109E217F30708F414
:10397000A8C0D9010D911C91119706171707A8F03F
:103980000530110508F49BC0C801049786179707F6
:1039900008F495C002501109061B170B01931193EF
:1039A0006D937C93CF01B8DE8AC05B01A01AB10A87
:1039B0004C01800E911EA0917508B091760840E0F0
:1039C00050E0E12CF12C109709F44AC0A815B90574
:1039D000D1F56D907C901197630182E0C80ED11CE7
:1039E000CA14DB0480F1A3014A195B096A0182E071
:1039F000C80ED11C1296BC9012971396AC91B5E0EC
:103A0000CB16D10440F0B282A38351834083D90105
:103A10006D937C930AC00E5F1F4FC301800F911FEF
:103A2000F90191838083EB2DFA2FE114F10431F039
:103A3000D7011396FC93EE93129741C0F09376084A
:103A4000E09375083CC08D919C91119748175907D8
:103A500008F4AC017D0112960D90BC91A02DB3CF5E
:103A6000809173089091740888159905E1F44617C0
:103A70005707C8F48091060290910702009741F41D
:103A80008DB79EB740910A0250910B02841B950B93
:103A9000E817F907B0F4F0937408E0937308F9019C
:103AA000718360830CC0CB01A2DD7C01009749F0DB
:103AB000A801BE011BD0CE012FDEC70104C0CE017C
:103AC00002C080E090E0DF91CF911F910F91FF90B5
:103AD000EF90DF90CF90BF90AF909F908F907F90AE
:103AE0006F90089581E090E0F89410C0FB01DC0134
:103AF00002C001900D9241505040D8F70895FB014B
:103B0000DC0101900D920020E1F7089515E0C6E078
:103B1000D5E000E005C0802FFE01E4DE2196011D06
:0E3B2000C730D10780E00807B1F7F894FFCF57
:103B2E00FFFFFFFFFFFF000077088000000000008E
:103B3E00C20590145205080683056105750500003F
:103B4E000000090C90140912081200000000DA118E
:103B5E00AB1109127F11A3118F118011000000000B
:103B6E00C11090140912C01015112C11A8100200CA
:103B7E000300696D67437472332E747874000D0AF6
:023B8E00000035
:020000023000CC
:10E000000D9489F10D94B2F10D94B2F10D94B2F129
:10E010000D94B2F10D94B2F10D94B2F10D94B2F1F0
:10E020000D94B2F10D94B2F10D94B2F10D94B2F1E0
:10E030000D94B2F10D94B2F10D94B2F10D94B2F1D0
:10E040000D94B2F10D94B2F10D94B2F10D94B2F1C0
:10E050000D94B2F10D94B2F10D94B2F10D94B2F1B0
:10E060000D94B2F10D94B2F10D94B2F10D94B2F1A0
:10E070000D94B2F10D94B2F10D94B2F10D94B2F190
:10E080000D94B2F10D94B2F10D94B2F10D94B2F180
:10E090000D94B2F10D94B2F10D94B2F10D94B2F170
:10E0A0000D94B2F10D94B2F10D94B2F10D94B2F160
:10E0B0000D94B2F10D94B2F10D94B2F10D94B2F150
:10E0C0000D94B2F10D94B2F10D94B2F10D94B2F140
:10E0D0000D94B2F10D94B2F10D94B2F10D94B2F130
:10E0E0000D94B2F141546D656761323536300041AF
:10E0F000726475696E6F206578706C6F72657220DE
:10E1000073746B3530305632206279204D4C530099
:10E11000426F6F746C6F616465723E004875683F52
:10E1200000436F6D70696C6564206F6E203D200048
:10E130004350552054797065202020203D20005FF9
:10E140005F4156525F415243485F5F3D2000415658
:10E1500052204C696243205665723D20004743437C
:10E160002056657273696F6E203D20004350552024
:10E1700049442020202020203D20004C6F7720663D
:10E18000757365202020203D20004869676820665F
:10E190007573652020203D200045787420667573D6
:10E1A00065202020203D20004C6F636B2066757336
:10E1B000652020203D20004D617220203720323024
:10E1C000313300312E362E3800342E332E350056A2
:10E1D00023202020414444522020206F7020636F70
:10E1E00064652020202020696E73747275637469E1
:10E1F0006F6E2061646472202020496E74657272B3
:10E20000757074006E6F20766563746F7200726A49
:10E210006D702020006A6D70200057686174207056
:10E220006F72743A00506F7274206E6F7420737541
:10E2300070706F72746564004D7573742062652030
:10E2400061206C6574746572002000577269747483
:10E25000696E672045450052656164696E672045B7
:10E26000450045452065727220636E743D00504F35
:10E27000525400303D5A65726F2061646472003FF1
:10E280003D43505520737461747300403D454550C3
:10E29000524F4D207465737400423D426C696E6B41
:10E2A000204C454400453D44756D70204545505215
:10E2B0004F4D00463D44756D7020464C415348001B
:10E2C000483D48656C70004C3D4C69737420492F83
:10E2D0004F20506F72747300513D51756974005234
:10E2E0003D44756D702052414D00563D73686F7707
:10E2F00020696E7465727275707420566563746FF0
:10E30000727300593D506F727420626C696E6B00BD
:10E310002A0011241FBECFEFD1E2DEBFCDBF01E046
:10E320000CBF12E0A0E0B2E0EEE1FDEF03E00BBFB6
:10E3300002C007900D92A030B107D9F712E0A0E01B
:10E34000B2E001C01D92AE30B107E1F70F9460F367
:10E350000D948DFE01E20EBF0FEF0DBF11241FBE05
:10E360000D9460F30D9400F020E030E040ED57E0B4
:10E3700005C0FA013197F1F72F5F3F4F2817390792
:10E38000C0F308959C01260F311DC901A0E0B0E043
:10E390002F5F3F4FABBFFC018791882361F08093D3
:10E3A000C6008091C00086FFFCCF8091C0008064D1
:10E3B0008093C000EACF08958DE08093C6008091DD
:10E3C000C00086FFFCCF8091C00080648093C000B5
:10E3D0008AE08093C6008091C00086FFFCCF8091C8
:10E3E000C00080648093C00008950F94C2F10F9420
:10E3F000DCF10895FC019081992359F09093C600B7
:10E400008091C00086FFFCCF8091C0008064809323
:10E41000C0003196992379F70895282F982F929567
:10E420009F70892F805D8A3308F0895F8093C600D2
:10E430008091C00086FFFCCF8091C00080648093F3
:10E44000C000822F8F70982F905D9A3308F0995FEB
:10E450009093C6008091C00086FFFCCF8091C000E1
:10E4600080648093C00008959C01FB01853691056E
:10E470001CF46330710594F0C90164E670E00F94F8
:10E480002EFE605D7F4F6093C6008091C00086FFC6
:10E49000FCCF8091C00080648093C0002B30310598
:10E4A00014F43297B4F0C90164E670E00F942EFEC4
:10E4B0006AE070E00F942EFE605D7F4F6093C600AF
:10E4C0008091C00086FFFCCF8091C0008064809363
:10E4D000C000C9016AE070E00F942EFEC0968093E0
:10E4E000C6008091C00086FFFCCF8091C000806490
:10E4F0008093C00008951F93182F8EE692EE60E07F
:10E500000F94C2F11093C6008091C00086FFFCCF2B
:10E510008091C00080648093C0000F94DCF11F9153
:10E5200008952F923F924F925F926F927F928F92B7
:10E530009F92AF92BF92CF92DF92EF92FF920F9392
:10E540001F93DF93CF93CDB7DEB762970FB6F894E2
:10E55000DEBF0FBECDBF382E622ECA01DB015C01CB
:10E560006D01772420E2222E2E010894411C511CBB
:10E570008BC081E0A81680E0B80681E0C80680E084
:10E58000D80628F0C601AA27BB270F940DF2BB2797
:10E59000AD2D9C2D8B2D0F940DF28A2D0F940DF225
:10E5A0002092C6008091C00086FFFCCF8091C00001
:10E5B00080648093C0009DE29093C6008091C0006B
:10E5C00086FFFCCF8091C00080648093C0002092C1
:10E5D000C6008091C00086FFFCCF8091C00080649F
:10E5E0008093C00019828601750188249924A1E0D6
:10E5F0003A1651F03A1620F0B2E03B1661F409C029
:10E600000BBFF701779007C0C7010F9477FE782EF4
:10E6100002C0F7017080872D0F940DF22092C60082
:10E620008091C00086FFFCCF8091C0008064809301
:10E63000C000872D8052F401EF70F0708F3520F408
:10E64000E40DF51D708204C0E40DF51D8EE280839B
:10E650000894E11CF11C011D111D0894811C911CE2
:10E6600090E18916910409F0C2CF80E190E0A0E02A
:10E67000B0E0A80EB91ECA1EDB1E198AC2010F9493
:10E68000FAF10F94DCF16A94662009F072CF629679
:10E690000FB6F894DEBF0FBECDBFCF91DF911F91B3
:10E6A0000F91FF90EF90DF90CF90BF90AF909F9031
:10E6B0008F907F906F905F904F903F902F90089534
:10E6C0002F923F924F925F926F927F928F929F9282
:10E6D000AF92BF92CF92DF92EF92FF920F931F9370
:10E6E000DF93CF93CDB7DEB7CD53D1400FB6F894BB
:10E6F000DEBF0FBECDBF01E20EBF0FEF0DBF94B75F
:10E70000F894A89514BE80916000886180936000A1
:10E7100010926000789493FF05C0E0910002F091A0
:10E7200001021995279A2F9A8091C00082608093E8
:10E73000C00080E18093C40088E18093C1000000A4
:10E74000EE24FF24870144E0A42EB12CCC24DD2448
:10E7500024C0C5010197F1F70894E11CF11C011DCB
:10E76000111D21E2E2162EE4F20620E0020720E06D
:10E77000120718F031E0C32ED12CC801B70127ECE5
:10E780003BE140E050E00F9441FE611571058105C9
:10E79000910519F485B1805885B98091C00087FD35
:10E7A00003C0C114D104A9F2A6014F5F5F4FC25E3E
:10E7B000DE4F59834883CE51D140C25EDE4F8881FF
:10E7C0009981CE51D140019711F00D9410FEC05D9A
:10E7D000DE4F19821882C053D14060E0C15DDE4F28
:10E7E0001882CF52D14088249924C35DDE4F19820C
:10E7F0001882CD52D140C05EDE4F188219821A8233
:10E800001B82C052D140CE5CDE4F188219821A8220
:10E810001B82C253D140EE24FF2487010BBFF701B6
:10E8200007911691C45CDE4F19830883CC53D14005
:10E830000D940BFEC25EDE4F28813981CE51D1404E
:10E840002130310509F52091C600C25EDE4F1982E4
:10E850001882CE51D14022C02F5F3F4F4F4F5F4FA4
:10E86000213082E138078AE7480780E0580780F0C6
:10E87000C45CDE4FE881F981CC53D140EF5FFF4F9C
:10E8800019F0EE27FF27099420E030E040E050E047
:10E890008091C00087FFE0CF2091C600C35DDE4FAE
:10E8A00048815981CD52D1404F5F5F4FC35DDE4FEC
:10E8B00059834883CD52D140213209F063C64A3092
:10E8C000510508F05FC60894811C911C53E0851621
:10E8D000910409F059C600E010E018C081E280936D
:10E8E000C6008091C00086FFFCCF8091C00080648C
:10E8F0008093C0002F5F3F4F2931310579F70F9486
:10E90000DCF10F5F1F4F0530110519F020E030E0FA
:10E91000E5CF10920A0210920B0210920C02109294
:10E920000D02109206021092070210920802109235
:10E930000902109202021092030210920402109235
:10E9400005028FEE90EE60E00F94F5F180E191EE1C
:10E9500060E00F94C2F18091C00087FFFCCF9091DE
:10E96000C600903608F09F759032B8F09093C600BC
:10E970008091C00086FFFCCF8091C00080648093AE
:10E98000C000A0E2A093C6008091C00086FFFCCF2B
:10E990008091C00080648093C000983409F4D7C18E
:10E9A0009934B8F4923409F459C1933458F490333B
:10E9B00019F1903308F4E3C59F33A1F1903409F0C5
:10E9C000DEC5BDC0953409F470C1963409F0D7C5D1
:10E9D00098C1923509F42BC2933538F49C3409F46C
:10E9E000F5C1913509F0CBC518C2963509F445C279
:10E9F000993509F0C4C567C483E792EE62E00F94CD
:10EA0000F5F110920602109207021092080210927D
:10EA1000090210920A0210920B0210920C0210923C
:10EA20000D0213C18FE792EE62E00F94F5F18FEEC5
:10EA300090EE60E00F94F5F181E291EE60E00F94CA
:10EA4000C2F187EB91EE60E00F94F5F180E391EE77
:10EA500060E00F94C2F184EE90EE60E00F94F5F167
:10EA60008FE391EE60E00F94C2F186E090E061E008
:10EA700070E00F9434F20F94DCF18DE591EE60E0DC
:10EA80000F94C2F189EC91EE60E00F94F5F18EE401
:10EA900091EE60E00F94C2F183EC91EE60E00F9490
:10EAA000F5F18CE691EE60E00F94C2F18EE10F94E7
:10EAB0000DF288E90F940DF281E00F940DF20F949E
:10EAC000DCF18BE791EE60E00F94C2F119E0E0E039
:10EAD000F0E010935700E4918E2F0F940DF20F94F5
:10EAE000DCF18AE891EE60E00F94C2F1E3E0F0E03F
:10EAF00010935700E4918E2F0F940DF20F94DCF1D8
:10EB000089E991EE60E00F94C2F1E2E0F0E0109349
:10EB10005700E4918E2F0F940DF20F94DCF188EAE8
:10EB200091EE60E00F94C2F1E1E0F0E01093570045
:10EB30001491812F0F940DF20F94DCF107CF8BE825
:10EB400092EE62E00F94F5F18BE492EE60E00F94A8
:10EB5000F5F10F94DCF100E010E019C0C8016F2D51
:10EB60000F947FFEFF2031F489E492EE60E00F9471
:10EB7000C2F10BC0F092C6008091C00086FFFCCFAE
:10EB80008091C00080648093C0000F5F1F4FC80158
:10EB900081519F41A0E0B0E0ABBFFC01F790BAE229
:10EBA000FB1621F0E2E000301E07C1F60F94DCF105
:10EBB0000F94DCF187E592EE60E00F94F5F10F948D
:10EBC000DCF1CC24DD2400E010E01EC0C8010F946D
:10EBD00077FEF82E882331F489E492EE60E00F94FA
:10EBE000C2F10BC08093C6008091C00086FFFCCFAD
:10EBF0008091C00080648093C000FE1419F00894D6
:10EC0000C11CD11C0F5F1F4FC80181519F41A0E063
:10EC1000B0E0ABBFFC01E790FAE2EF1621F022E092
:10EC20000030120799F60F94DCF10F94DCF182E6C4
:10EC300092EE60E00F94C2F1C60161E070E00F94C3
:10EC400034F20F94DCF10F94DCF110920202109276
:10EC50000302109204021092050278CE89E992EE26
:10EC600062E00F94F5F1279A2F9A16C02F9880E052
:10EC700090E0E0EDF7E03197F1F7019684369105E9
:10EC8000C1F72F9A80E090E0E0EDF7E03197F1F7DF
:10EC9000019684369105C1F78091C00087FFE6CFC9
:10ECA0008091C00087FFFCCF64C485EA92EE62E0E9
:10ECB0000F94F5F140910202509103026091040219
:10ECC0007091050281E020E10F9491F2809102029F
:10ECD00090910302A0910402B091050280509F4FD1
:10ECE000AF4FBF4F8093020290930302A0930402A0
:10ECF000B093050280509041A040B04008F426CE69
:10ED0000A4CF83EB92EE62E00F94F5F140910602FE
:10ED100050910702609108027091090280E020E1A1
:10ED20000F9491F28091060290910702A09108023F
:10ED3000B091090280509F4FAF4FBF4F80930602A2
:10ED400090930702A0930802B0930902FFCD80ECD4
:10ED500092EE62E00F94F5F183E792EE60E00F949B
:10ED6000F5F18FE792EE60E00F94F5F18BE892EE0B
:10ED700060E00F94F5F189E992EE60E00F94F5F10F
:10ED800085EA92EE60E00F94F5F183EB92EE60E09D
:10ED90000F94F5F180EC92EE60E00F94F5F187ECC2
:10EDA00092EE60E00F94F5F188ED92EE60E00F9442
:10EDB000F5F18FED92EE60E00F94F5F18AEE92EEB0
:10EDC00060E00F94F5F183E093EEBDCD87EC92EE19
:10EDD00062E00F94F5F181E40F947BF282E40F94EA
:10EDE0007BF283E40F947BF284E40F947BF285E45E
:10EDF0000F947BF286E40F947BF287E40F947BF20E
:10EE000088E40F947BF28AE40F947BF28BE40F94F6
:10EE10007BF28CE40F947BF299CD88ED92EE62E068
:10EE20000F94F5F1772473948824992409C48FED05
:10EE300092EE62E00F94F5F140910A0250910B02BC
:10EE400060910C0270910D0282E020E10F9491F22A
:10EE500080910A0290910B02A0910C02B0910D02D8
:10EE600080509F4FAF4FBF4F80930A0290930B0289
:10EE7000A0930C02B0930D0269CD8AEE92EE62E08F
:10EE80000F94F5F184EE90EE60E00F94F5F18FECC5
:10EE900091EE60E00F94F5F1662477244301CC5D98
:10EEA000DE4F19821882C452D140D401C301B695F5
:10EEB000A79597958795CA5DDE4F88839983AA8326
:10EEC000BB83C652D140CC5DDE4FA881B981C4520C
:10EED000D1401196CC5DDE4FB983A883C452D14096
:10EEE000CD0162E070E00F9434F2B0E2B093C6005E
:10EEF0008091C00086FFFCCF8091C0008064809329
:10EF0000C000EDE2E093C6008091C00086FFFCCF18
:10EF10008091C00080648093C000F0E2F093C6004E
:10EF20008091C00086FFFCCF8091C00080648093F8
:10EF3000C000CA5DDE4FE880F9800A811B81C6529D
:10EF4000D140BB27A12F902F8F2D0F940DF2CA5DBA
:10EF5000DE4F8881C652D1400F940DF2B0E2FB2EF5
:10EF6000F092C6008091C00086FFFCCF8091C00067
:10EF700080648093C0000DE30093C6008091C000C0
:10EF800086FFFCCF8091C00080648093C00010E2B7
:10EF90001093C6008091C00086FFFCCF8091C00016
:10EFA00080648093C0008BBEF3012791C65DDE4F65
:10EFB0002883CA52D140A22EBB24CC24DD2408943D
:10EFC000611C711C811C911C8BBEF3018791282E42
:10EFD0003324442455240894611C711C811C911C09
:10EFE0008BBEF3013791C55DDE4F3883CB52D140E4
:10EFF0000894611C711C811C911C8BBEF30147910C
:10F00000C45DDE4F4883CC52D140ADEFEA2EAFEF66
:10F01000FA2EAFEF0A2FAFEF1A2F6E0C7F1C801E57
:10F02000911E142D032DF22CEE24EA0CFB1C0C1D5A
:10F030001D1D0F940DF220E22093C6008091C000A8
:10F0400086FFFCCF8091C00080648093C000C65DC5
:10F05000DE4F8881CA52D1400F940DF230E23093D6
:10F06000C6008091C00086FFFCCF8091C000806404
:10F070008093C000C45DDE4F8881CC52D1400F9494
:10F080000DF240E24093C6008091C00086FFFCCFA5
:10F090008091C00080648093C000C55DDE4F888190
:10F0A000CB52D1400F940DF250E25093C6008091A4
:10F0B000C00086FFFCCF8091C00080648093C000B8
:10F0C0008FEFE8168FEFF80680E0080780E018075A
:10F0D00031F484E092EE60E00F94C2F1DFC0D80119
:10F0E000C7018070907CA070B0708050904CA040A0
:10F0F000B040D1F52FEF3FE340E050E0E222F322B1
:10F1000004231523CA5DDE4FA880B980CA80DB8046
:10F11000C652D140AE0CBF1CC01ED11EAA0CBB1CD7
:10F12000CC1CDD1C8EE092EE60E00F94C2F1BB2798
:10F13000A12F902F8F2D0F940DF28E2D0F940DF285
:10F1400030E23093C6008091C00086FFFCCF8091F2
:10F15000C00080648093C0004EE34093C60080915D
:10F16000C00086FFFCCF87C08EE09EEFA0E0B0E03D
:10F17000E822F9220A231B239CE0E91694E9F90608
:10F1800090E0090790E0190709F088C0C45DDE4FE0
:10F19000A881CC52D140EA2EFF2400E010E0102FCD
:10F1A0000F2DFE2CEE24C55DDE4FB881CB52D14031
:10F1B000EB0EF11C011D111DD601C501817090706F
:10F1C000A070B070DC0199278827E80EF91E0A1F8D
:10F1D0001B1F20EF30E040E050E0A222B322C42207
:10F1E000D52241E1AA0CBB1CCC1CDD1C4A95D1F7F1
:10F1F000EA0CFB1C0C1D1D1D81E090E0A0E0B0E0BE
:10F20000282239224A225B2235E1220C331C441C7D
:10F21000551C3A95D1F7E20CF31C041D151D57013E
:10F220006801AA0CBB1CCC1CDD1C85E192EE60E0E1
:10F230000F94C2F1C801AA27BB270F940DF2BB2778
:10F24000A12F902F8F2D0F940DF28E2D0F940DF274
:10F2500090E29093C6008091C00086FFFCCF809121
:10F26000C00080648093C000AEE3A093C60080918C
:10F27000C00086FFFCCF8091C00080648093C000F6
:10F28000C601AA27BB270F940DF2BB27AD2D9C2DDD
:10F290008B2D0F940DF28A2D0F940DF20F94DCF14B
:10F2A000CC5DDE4FE881F981C452D140F99709F471
:10F2B0004DCBF4E0EF2EF12C012D112D6E0C7F1CA7
:10F2C000801E911EF2CD83E093EE62E00F94F5F183
:10F2D0008AE192EE60E00F94C2F18091C00087FF56
:10F2E000FCCF1091C6001F751093C6008091C0001E
:10F2F00086FFFCCF8091C00080648093C0000F9493
:10F30000DCF1812F81548A3108F036C1163409F4BA
:10F3100095C0173490F4133409F44EC0143430F40B
:10F320001134F1F0123409F01DC130C0143409F465
:10F3300059C0153409F016C16BC01A3409F4C4C0A1
:10F340001B3438F4173409F48FC0183409F00AC19B
:10F35000A1C01B3409F4D2C01C3409F003C1E8C0B9
:10F360008FEF81B90DC082B1809582B980E090E0C5
:10F37000E0EDF7E03197F1F70196883C9105C1F790
:10F380008091C00087FFEFCF12B8EFC08FEF84B934
:10F390000DC085B1809585B980E090E0E0EDF7E0A3
:10F3A0003197F1F70196883C9105C1F78091C00033
:10F3B00087FFEFCF15B8D9C08FEF87B90DC088B1DF
:10F3C000809588B980E090E0E0EDF7E03197F1F7C3
:10F3D0000196883C9105C1F78091C00087FFEFCF6F
:10F3E00018B8C3C08FEF8AB90DC08BB180958BB9A7
:10F3F00080E090E0E0EDF7E03197F1F70196883C8E
:10F400009105C1F78091C00087FFEFCF1BB8ADC059
:10F410008FEF8DB90DC08EB180958EB980E090E0F0
:10F42000E0EDF7E03197F1F70196883C9105C1F7DF
:10F430008091C00087FFEFCF1EB897C08FEF80BBD1
:10F440000DC081B3809581BB80E090E0E0EDF7E0F6
:10F450003197F1F70196883C9105C1F78091C00082
:10F4600087FFEFCF11BA81C08FEF83BB0DC084B38C
:10F47000809584BB80E090E0E0EDF7E03197F1F714
:10F480000196883C9105C1F78091C00087FFEFCFBE
:10F4900014BA6BC08FEF809301010FC080910201FD
:10F4A00080958093020180E090E0E0EDF7E03197F5
:10F4B000F1F70196883C9105C1F78091C00087FF64
:10F4C000EDCF1092020151C08FEF809304010FC065
:10F4D0008091050180958093050180E090E0E0ED4A
:10F4E000F7E03197F1F70196883C9105C1F78091DB
:10F4F000C00087FFEDCF1092050137C08FEF8093DA
:10F5000007010FC08091080180958093080180E079
:10F5100090E0E0EDF7E03197F1F70196883C910536
:10F52000C1F78091C00087FFEDCF109208011DC088
:10F530008FEF80930A010FC080910B01809580931B
:10F540000B0180E090E0E0EDF7E03197F1F70196F4
:10F55000883C9105C1F78091C00087FFEDCF1092E4
:10F560000B0103C085E292EEEEC98091C00087FFD7
:10F57000FCCF8091C600EAC988E392EEE4C98CE131
:10F5800091EEE1C988249924933011F1943028F444
:10F59000913089F09230B8F408C0953061F195301F
:10F5A000F0F0963009F048C043C02B3109F042C951
:10F5B00091E06BE13FC96227C15DDE4F2883CF52E6
:10F5C000D14092E037C9B22FA0E0622793E032C960
:10F5D000822F90E0A82BB92B622794E02BC92E3004
:10F5E00009F039C3622795E0C05DDE4F19821882A9
:10F5F000C053D1401FC9E1E0F0E0EC0FFD1FC05D3A
:10F60000DE4F08811981C053D140E00FF11F2083E4
:10F610000F5F1F4FC05DDE4F19830883C053D14079
:10F6200062270A171B0709F005C9D80196E002C92D
:10F63000261709F010C303C0973009F0FBC87724E0
:10F640009981933109F412C19431C8F4963009F4C8
:10F65000D8C0973050F4923009F406C1933009F4C1
:10F660006DC0913009F059C253C0913109F477C08F
:10F67000923108F0BBC0903109F04FC2F5C098310B
:10F6800009F487C0993150F4953109F4EFC09531F0
:10F6900008F4C6C1963109F040C2C2C19A3109F4DA
:10F6A0006CC09A3108F491C09B3109F45BC09D3164
:10F6B00009F033C29D81903359F48F81882311F46E
:10F6C0009EE11CC0813011F091E018C098E916C08D
:10F6D000892F807591F0903539F4E0E0F0E089E011
:10F6E0008093570094910AC0983539F4E3E0F0E034
:10F6F00089E080935700949101C090E01A821B82A8
:10F700008D818C831D829E831F8227E030E009C299
:10F710001A8288E08B8381E48C8386E58D8382E581
:10F720008E8389E48F8383E5888780E589878FE5E9
:10F730008A8782E38B872BE030E0F3C18A818139AD
:10F7400041F0823941F0803911F48FE005C080E04A
:10F7500003C082E001C08AE01A828B8344C0772410
:10F76000739482C08D81882311F48EE12CC0813086
:10F7700011F081E028C088E926C01A82E1E0F0E0BB
:10F7800089E08093570084918B831C8224E030E0D1
:10F79000C8C18B81803589F48C81883039F4E2E0EE
:10F7A000F0E089E08093570084910DC0E0E0F0E044
:10F7B00089E080935700849106C0E3E0F0E089E09F
:10F7C0008093570084911A82DFCF8D81836C99E0FA
:10F7D000E1E0F0E0082E90935700E89507B600FCB2
:10F7E000FDCF1A821B8223E030E09BC180EC8A832C
:10F7F000CE5CDE4F188219821A821B82C253D1401E
:10F800008EC18A8190E0A0E0B0E0582F44273327D2
:10F8100022278B8190E0A0E0B0E0DC0199278827C7
:10F82000282B392B4A2B5B2B8D8190E0A0E0B0E098
:10F83000282B392B4A2B5B2B8C8190E0A0E0B0E089
:10F84000BA2FA92F982F8827282B392B4A2B5B2BCF
:10F85000220F331F441F551FC05EDE4F288339839C
:10F860004A835B83C052D1401A8259C13A81C95C34
:10F87000DE4F3883C753D140CA5CDE4F1882C6536F
:10F88000D1408B81C82EDD24CA5CDE4F488159816E
:10F89000C653D140C42AD52A933109F082C0CE5C28
:10F8A000DE4F88819981AA81BB81C253D1408050AB
:10F8B000904CA340B04030F583E0CE5CDE4FE88052
:10F8C000F9800A811B81C253D140F70100935B008C
:10F8D00080935700E89507B600FCFDCFCE5CDE4F65
:10F8E000088119812A813B81C253D14000501F4FAA
:10F8F0002F4F3F4FCE5CDE4F088319832A833B8313
:10F90000C253D140C05EDE4F488159816A817B81FC
:10F91000C052D140DE011B9631E08C9111962C91A2
:10F9200011971296C75CDE4F2883C953D140C85C3B
:10F93000DE4F1882C853D14090E0C85CDE4FE881AA
:10F94000F981C853D1408E2B9F2B0C01FA01609393
:10F950005B0030935700E89511244E5F5F4F6F4F67
:10F960007F4F0EEFE02E0FEFF02ECE0CDF1CC114F8
:10F97000D10499F685E0C05EDE4F088119812A81A5
:10F980003B81C052D140F80120935B008093570027
:10F99000E89507B600FCFDCF81E180935700E8951C
:10F9A00035C0C05EDE4F88819981AA81BB81C0527B
:10F9B000D140B695A795979587957C018601ABE0D8
:10F9C000AA2EB12CAC0EBD1E0BC0D5016D915D01F0
:10F9D000C7010F947FFE0894E11CF11C01501040F8
:10F9E0000115110591F7A60160E070E0440F551F65
:10F9F000661F771FC05EDE4FE880F9800A811B8199
:10FA0000C052D1404E0D5F1D601F711F1A82C05E33
:10FA1000DE4F488359836A837B83C052D1407FC0C5
:10FA2000FA80C55CDE4FF882CB53D140C65CDE4F16
:10FA30001882CA53D1408B81C82EDD24C65CDE4FAC
:10FA400008811981CA53D140C02AD12A1A828981DA
:10FA5000BE016D5F7F4F843121F59601C05EDE4FA0
:10FA6000E880F9800A811B81C052D1400BBFF701A9
:10FA700087919691DB018C9311969C936E5F7F4FDB
:10FA8000D801C7010296A11DB11DC05EDE4F88835B
:10FA90009983AA83BB83C052D14022503040F1F6F3
:10FAA00036C0C05EDE4F288139814A815B81C052F9
:10FAB000D1400894C108D108760100E010E0089414
:10FAC000C11CD11C0894E11CF11C011D111DE20E8A
:10FAD000F31E041F151F21BDBB27A52F942F832FB5
:10FAE00082BD2F5F3F4F4F4F5F4FF89A80B5DB01CC
:10FAF0008D93BD012E153F054007510761F7C05E8C
:10FB0000DE4F288339834A835B83C052D1409601FC
:10FB10002D5F3F4FFB01108204C080EC8A8322E0FE
:10FB200030E08BE18093C6008091C00086FFFCCF5F
:10FB30008091C00080648093C000C15DDE4FF88179
:10FB4000CF52D140F093C6008091C00086FFFCCF19
:10FB50008091C00080648093C000432F3093C60022
:10FB60008091C00086FFFCCF8091C00080648093AC
:10FB7000C000922F2093C6008091C00086FFFCCF6A
:10FB80008091C00080648093C0008EE08093C600A6
:10FB90008091C00086FFFCCF8091C000806480937C
:10FBA000C00065E1C15DDE4FE880CF52D1406E25D7
:10FBB00069276427FE01319610C090819093C6009A
:10FBC0008091C00086FFFCCF31968091C000806498
:10FBD0008093C0006927215030402115310569F715
:10FBE0006093C6008091C00086FFFCCF8091C0006A
:10FBF00080648093C00085B1805885B9772081F4F6
:10FC0000C15DDE4F0881CF52D1400F5FC15DDE4F35
:10FC10000883CF52D14090E0A0E0B0E00D941AF4F8
:10FC200027982F9880E090E020ED37E0F901319798
:10FC3000F1F7019684369105C9F700008091C00064
:10FC40008D7F8093C00081E180935700E895EE2777
:10FC5000FF270994FFCF90E00D941AF497FB092E2B
:10FC600007260AD077FD04D02ED006D000201AF443
:10FC7000709561957F4F0895F6F7909581959F4F08
:10FC80000895A1E21A2EAA1BBB1BFD010DC0AA1FDD
:10FC9000BB1FEE1FFF1FA217B307E407F50720F0F5
:10FCA000A21BB30BE40BF50B661F771F881F991F70
:10FCB0001A9469F760957095809590959B01AC01B9
:10FCC000BD01CF010895AA1BBB1B51E107C0AA1FAC
:10FCD000BB1FA617B70710F0A61BB70B881F991FED
:10FCE0005A95A9F780959095BC01CD010895F99991
:10FCF000FECF92BD81BDF89A992780B50895262F31
:10FD0000F999FECF1FBA92BD81BD20BD0FB6F89400
:0EFD1000FA9AF99A0FBE01960895F894FFCF63
:040000033000E000E9
:00000001FF