:1000000032C7000061C700005FC700005DC7000085
:100010005BC7000059C7000057C7000055C7000064
:1000200053C700000C945B090C945B090C945B09AA
:100030004BC7000049C7000047C7000045C7000084
:1000400043C7000041C700003FC700003DC7000094
:100050003BC7000039C7000037C700000C9480156B
:1000600033C700000C9489140C9460142DC7000051
:100070002BC7000029C7000027C7000025C70000C4
:1000800023C7000021C700001FC700001DC70000D4
:100090001BC7000019C7000017C700000C9498097F
:1000A00013C7000011C700000FC700000DC70000F4
:1000B0000BC7000009C7000007C7000005C7000004
:1000C00003C7000001C70000FFC60000FDC6000016
:1000D000FBC60000F9C60000F7C60000F5C6000028
:1000E000F3C60000EE14F114E014E414E81428152B
:1000F000F514F914FF14031507150D151115151531
:1001000028151B151F15231546696C65206E616D3A
:10011000652067656E6572617465643A2000496D9B
:1001200061676520636F756E7465722066696C65C2
:10013000206E6F7420666F756E6400496D6167652F
:1001400020636F756E7465722066696C6520666FDA
:10015000756E64004F70656E696E67207468652007
:10016000696D61676520636F756E7465722066697D
:100170006C6500456E642066756E6374696F6E0011
:10018000427265616B696E6720746865206C6F6F81
:10019000700041434B20494D4700426567696E201E
:1001A0007772697465206F7065726174696F6E0033
:1001B00046696C65206F70656E6564207375636356
:1001C00065737366756C6C790046696C65206F7039
:1001D000656E206661696C6564004F70656E2072A3
:1001E00065717565737465640053697A6520697318
:1001F00020302E004F7665722073697A652E00528A
:1002000065636F726420766964656F204F4B2E00C2
:100210004D6F7669652053697A653A00496E646569
:100220007820626F647920737461727420706F73C8
:100230006974696F6E3A00496E64657820626F6414
:10024000792073697A653A004F757466696C652028
:10025000706F736974696F6E3A004D6F76696520CF
:1002600053697A653A00426567696E6E696E672008
:10027000746F20777269746520696E6465783A00DE
:100280004A7065672073697A65206973207A6572A0
:100290006F004D6973004D005265636F7264696E43
:1002A0006720766964656F2C20706C6561736520CA
:1002B000776169742E2E2E005200490046004600D8
:1002C000D80001000E000000410056004900200047
:1002D0004C00490053005400D00000000000000012
:1002E0006800640072006C006100760069006800BC
:1002F0003800000000000000A0008600010000009F
:100300008000660001000000000000000000000006
:100310001000000000000000640000000000000069
:1003200000000000000000000100000000000000CC
:10033000000000000000000040000100000000007C
:10034000F0000000000000000000000000000000BD
:10035000000000000000000000000000000000009D
:1003600000000000000000004C0049005300540051
:1003700084000000000000007300740072006C0034
:10038000730074007200680030000000000000007C
:1003900076006900640073004D004A005000470079
:1003A000000000000000000000000000000000004D
:1003B000000000000000000001000000000000003C
:1003C0000500000000000000000000000000000028
:1003D0000A00000000000000000000000000000013
:1003E000000000000000000000000000000000000D
:1003F0007300740072006600280000000000000016
:100400002800000000000000400001000000000083
:10041000F0000000000000000100000018000000D3
:100420004D004A0050004700000084000300000017
:1004300000000000000000000000000000000000BC
:1004400000000000000000000000000000000000AC
:100450004C00490053005400100000000000000050
:100460006F0064006D006C0064006D006C0068003B
:100470000400000000000000640000000000000014
:100480004C00490053005400000001000E00000021
:100490006D006F0076006900566964656F204669DB
:1004A0006C65206F70656E206661696C6564005ACA
:1004B00065726F20627974657320617420332E0039
:1004C0005A65726F20627974657320617420322ED0
:1004D000005A65726F2062797465732061742031EF
:1004E0002E005A65726F20627974657320617420E2
:1004F000302E004F72696720697320302E00E000B3
:100500001400E1007700E5001F00D7000300DA00C7
:100510001000E0000000FF00010004000800FF00E0
:10052000FF00FF00000005000000DA001000D70007
:100530000300DF000000330080003C004000E100C9
:10054000770000000000FF00FF00FF0000002C000B
:10055000FF002E00DF00FF0001003C003200110010
:10056000000009000200040028001300E500140048
:1005700048002C000C00330078003A0033003B00A8
:10058000FB003E000000430011001600100039007F
:1005900092003500DA0022001A003700C300230061
:1005A00000003400C00036001A0006008800070072
:1005B000C0000D0087000E0041004C000000480004
:1005C00000005B000000420003004A00810021009F
:1005D00099002400400025003800260082005C00BD
:1005E00000006300000061007000620080007C0079
:1005F000050020008000280030006C0000006D0025
:1006000080006E0000007000020071009400730012
:10061000C10012004000170011001800430019002B
:1006200000001A004B00320009003700C0004F00E4
:1006300060005000A8006D0000003D00380046003A
:100640003F004F0060000C003C00FF000000E50090
:100650007F00F900C00041002400E0001400760093
:10066000FF003300A00042002000430018004C00AF
:1006700000008700D50088003F00D7000300D900A4
:100680001000D3008200C8000800C90080007C0070
:1006900000007D0000007C0003007D0048007D001C
:1006A00048007C0008007D0020007D0010007D00D7
:1006B0000E009000000091000E0091001A009100C1
:1006C000310091005A00910069009100750091007D
:1006D0007E009100880091008F00910096009100AB
:1006E000A3009100AF009100C4009100D7009100D9
:1006F000E8009100200092000000930006009300A3
:10070000E3009300050093000500930000009300B0
:100710000400930000009300000093000000930089
:10072000000093000000930000009300000096007A
:10073000000097000800970019009700020097003A
:100740000C009700240097003000970028009700C5
:1007500026009700020097009800970080009700FD
:10076000000097000000C300ED00A4000000A800F6
:100770000000C5001100C6005100BF008000C70086
:100780001000B6006600B800A500B7006400B9000C
:100790007C00B300AF00B4009700B500FF00B000CC
:1007A000C500B1009400B2000F00C4005C00C0009E
:1007B0006400C1004B008C00000086003D0050002A
:1007C00000005100C8005200960053000000540081
:1007D0000000550000005A00C8005B0096005C0055
:1007E0000000D3000000C300ED007F000000DA002D
:1007F0000000E5001F00E1006700E0000000DD00F0
:100800007F000500000012004000D3000400C0007B
:100810001600C10012008C00000086003D00500050
:10082000000051002C00520024005300000054002E
:100830000000550000005A002C005B0024005C0002
:100840000000FF00FF00FF0000002C00FF002E0052
:10085000DF00FF0001003C00320011000000090031
:1008600002000400A8001300E500140048002C005A
:100870000C00330078003A0033003B00FB003E00E0
:10088000000043001100160010003900020035007E
:10089000880022000A0037004000230000003400D6
:1008A000A00006000200060088000700C0000D003E
:1008B000B7000E0001004C0000004A00810021003A
:1008C00099002400400025003800260082005C00CA
:1008D000000063000000460022000C003A005D00AA
:1008E00055005E007D005F007D00600055006100E6
:1008F0007000620080007C0005002000800028005D
:1009000030006C0000006D0080006E000000700080
:100910000200710094007300C1003D003400120019
:1009200004005A0057004F00BB0050009C00FF001D
:100930000000E5007F00F900C00041002400E00055
:1009400014007600FF003300A000420020004300A6
:1009500018004C0000008700D00088003F00D7003E
:100960000300D9001000D3008200C8000800C900AD
:1009700080007C0000007D0000007C0003007D0002
:1009800048007D0048007C0008007D0020007D00BC
:1009900010007D000E009000000091000E009100FC
:1009A0001A009100310091005A00910069009100F5
:1009B000750091007E009100880091008F009100E9
:1009C00096009100A3009100AF009100C400910037
:1009D000D7009100E80091002000920000009300F1
:1009E00006009300E30093000300930003009300CC
:1009F00000009300020093000000930000009300A9
:100A0000000093000000930000009300000093009A
:100A1000000096000000970008009700190097005A
:100A2000020097000C009700240097003000970008
:100A30002800970026009700020097009800970072
:100A400080009700000097000000A4000000A800AC
:100A50000000C5001100C6005100BF008000C700A3
:100A60001000B6006600B800A500B7006400B90029
:100A70007C00B300AF00B4009700B500FF00B000E9
:100A8000C500B1009400B2000F00C4005C00A600D5
:100A90000000A7002000A700D800A7001B00A700A7
:100AA0003100A7000000A7001800A7002000A70041
:100AB000D800A7001900A7003100A7000000A70078
:100AC0001800A7002000A700D800A7001900A70061
:100AD0003100A7000000A70018007F000000E5001B
:100AE0001F00E1007700DD007F00C2000E00FF0064
:100AF0000000E0000400C000C800C10096008600AD
:100B00003D005100900052002C00530000005400A2
:100B100000005500880057000000500092005A0065
:100B200050005B003C005C000000D3000400E000CB
:100B30000000FF00000005000000DA000800D700F8
:100B40000300E000000005000000FF00FF00FF00C0
:100B500001001200400017001100180043001900A6
:100B600000001A004B00320009004F00CA0050007C
:100B7000A8005A0023006D00000039001200350063
:100B8000DA0022001A003700C300230000003400FE
:100B9000C00036001A00060088000700C0000D00E3
:100BA00087000E0041004C000000FF000000E00044
:100BB0000400C0006400C1004B00860035005000F6
:100BC00089005100C80052009600530000005400F4
:100BD000000055000000570000005A0050005B0064
:100BE0003C005C000000E0000000FF00FF0041430B
:100BF0004B20434D44204F563236343020646574C8
:100C000065637465642E0041434B20434D4420438B
:100C1000616E27742066696E64204F563236343018
:100C2000206D6F64756C65210041434B20434D443A
:100C30002053504920696E74657266616365204F68
:100C40004B2E0041434B20434D44205350492069D3
:100C50006E74657266616365204572726F72210001
:100C6000496D61676520636F756E74657220666992
:100C70006C65206F70656E206661696C65640053F9
:100C8000746F7265642076616C75653A0053442018
:100C9000496E697469616C697A6174696F6E206309
:100CA0006F6D706C65746500534420496E6974699A
:100CB000616C697A6174696F6E206661696C6564E4
:100CC00000496E697469616C697A696E6720534482
:100CD00020636172640041434B20434D44204172C4
:100CE000647543414D2053746172742100537461E3
:100CF00072742053657269616C20617420393231DD
:100D000036303000456E74657265642063617074BE
:100D1000757265206D6F646520320041434B20433E
:100D20004D442043414D20436170747572652044E9
:100D30006F6E652E0052656365697665642061207B
:100D400076616C75652061733A20007C3C3E5E2BB9
:100D50003D3F2F5B5D3B2C2A225C0000000A0B020A
:100D6000090C0D0E0807030401000000000000003C
:100D70000000000000000000000000000000000073
:100D80000000000000000012111000000000000030
:100D90000000000000000000000000000000000053
:100DA0000000002100240027002A002D003000331D
:100DB0000001010000040107010A010102102020C6
:100DC000080810204010204080020102010804029F
:100DD0000101020408102040808040201008040215
:100DE000018004020180402010080402010804026E
:100DF0000101020408102040800102040810204074
:100E00008000002200250028002B002E0031003435
:100E10000002010000050108010B01050505050799
:100E20000508080808020202020A0A080804040465
:100E30000401010101010101010303030303030391
:100E400003040707070C0C0C0C0C0C0C0C02020220
:100E50000206060606060606060B0B0B0B0B0B0B13
:100E60000B00B72A942611241FBECFEFD1E2DEBFBC
:100E7000CDBF00E00CBF12E0A0E0B2E0E6EAFCE586
:100E800000E00BBF02C007900D92A83BB107D9F755
:100E900026E0A8EBB2E001C01D92A73DB207E1F742
:100EA00017E0C2E3D7E000E006C021970109802FD8
:100EB000FE010E941B2DC133D10780E00807A9F76E
:100EC0000E9497260C94422E9BC885ED8093BC000F
:100ED0008091BC0084FDFCCF109264050895409180
:100EE000E102262F30E0240F311D21323105DCF4E0
:100EF000209164052430C9F4FC0180E090E086175D
:100F000058F43091E1022191DC01A154BD4FA30FAF
:100F1000B11D2C930196F3CF8091E102680F60938D
:100F2000E10280E0089581E0089582E00895089547
:100F3000E0911D0580911C05E81730F4F0E0E25EB9
:100F4000FA4F808190E008958FEF9FEF0895909180
:100F50001D0580911C05981750F4E92FF0E0E25E22
:100F6000FA4F208130E09F5F90931D0502C02FEF64
:100F70003FEFC901089580911C0590E020911D0567
:100F8000821B91090895CF92DF92EF92FF920F9307
:100F90001F93CF93DF937C01262F972F8A01809197
:100FA0006505882391F0C62FD72F6E01C40ED51E7C
:100FB000CC15DD0569F06991D701ED91FC910190A7
:100FC000F081E02DC7011995F3CF642F822F87DFC1
:100FD000C801DF91CF911F910F91FF90EF90DF90AB
:100FE000CF900895CF93DF931F92CDB7DEB769837B
:100FF000209165052223D1F020918705203240F011
:1010000021E030E0FC013383228380E090E014C0D3
:1010100080916605E82FF0E0E959FA4F99819083B5
:101020008F5F809366058093870504C061E0CE01E1
:10103000019655DF81E090E00F90DF91CF91089508
:10104000CF93DF93EC01FB01828193819B838A83A1
:1010500084819581A681B7818C839D83AE83BF8374
:1010600080859185A285B38588879987AA87BB8764
:101070008CE192E0998388838DE03C96DE011C969A
:1010800001900D928A95E1F7FB01818D928D9A8FE7
:10109000898FDF91CF910895089580E090E00895C1
:1010A0002F923F924F925F926F927F928F929F9278
:1010B000AF92BF92CF92DF92EF92FF920F931F9366
:1010C000CF93DF931F921F92CDB7DEB7FC018581CE
:1010D000882309F4D9C0848180FFD6C021E02A8307
:1010E000438954896589768982859385A485B585E8
:1010F000481759076A077B0709F41A826F013A817A
:10110000832F90E0DE0111964D013F01B6E06B0E9A
:10111000711C892B09F47DC0D6011A964D915D9101
:101120006D917C911D975A01B1E0BB22F60125819A
:101130001A012B0189E056944794379427948A9595
:10114000D1F7838D948D223061F4FC01828D938DD3
:10115000A48DB58DBC01CD01620D731D841D951D3F
:1011600045C0DC0114961C9111501221A114B10448
:10117000D1F4111118C0452B462B472B51F4F60121
:101180008789908DA18DB28D86839783A087B18743
:101190000AC0468157816085718593010E9430178E
:1011A000882309F471C0F601238D348D86819781DF
:1011B000A085B1850297A109B109AC01BD01F90172
:1011C000058404C0440F551F661F771F0A94D2F789
:1011D00086859785A089B189840F951FA61FB71FA3
:1011E000BC01CD01610F711D811D911DD6011496A9
:1011F0002C9126FF14C00091060210910702209145
:10120000080230910902601771078207930751F5B0
:1012100006C0FA81FF23C1F1898190E037C040E028
:101220000E944916882381F1F501E65EFC4FD40146
:10123000CF010196E817F90719F021912D93FACF04
:10124000EFEF8E1A9E0AF60182859385A485B585F7
:101250000196A11DB11D82879387A487B58780E081
:1012600090E057CF740101E010E09501AB01BC01A3
:1012700080911A0590911B050E943B24882321F040
:10128000BFEF8B1A9B0ADFCF8FEF9FEF0F900F906E
:10129000DF91CF911F910F91FF90EF90DF90CF9052
:1012A000BF90AF909F908F907F906F905F904F9086
:1012B0003F902F9008951F920F920FB60F92112416
:1012C0000F900FBE0F901F901895CF93CFB7F89443
:1012D00080910603811124C0E0E5FEE08491E0EFF7
:1012E000FDE09491E82FF0E0EE0FFF1FEF55F24F75
:1012F000A591B491EC91E92321F461E085E30E948A
:10130000BF1485E30E94961C8CB580618CBD8CB5A2
:1013100080648CBD84E30E94961C83E30E94961C2B
:10132000809106038F5F80930603CFBFCF9108950E
:101330001F920F920FB60F9211240BB60F922F939C
:101340003F934F935F936F937F938F939F93AF934D
:10135000BF93EF93FF938091B900887F803609F4A3
:101360009CC068F5883209F45BC090F4803109F4C0
:1013700054C038F4882309F4F6C0883009F44DC00D
:10138000F5C0883109F44CC0803209F45DC0EEC06C
:10139000803409F468C048F4803309F455C08833B8
:1013A00009F0E4C080936205D8C0803509F44FC0CD
:1013B000883509F45DC0883409F0D8C0D6C08839B2
:1013C00009F4C7C0A8F4883709F467C038F4883630
:1013D00009F463C0803709F460C0C8C0883809F4D4
:1013E000B8C0803909F45FC0803809F0BFC05BC065
:1013F000803B09F486C038F4803A09F466C0883A24
:1014000009F47FC0B3C0803C09F4A7C0883C09F44C
:10141000A4C0883B09F48AC0A9C080913F0510C0D0
:101420009091610580916005981770F5E0916105D4
:1014300081E08E0F80936105F0E0E05CFA4F8081DF
:101440008093BB0085EC86C0809362058EC0E091DE
:10145000610581E08E0F809361058091BB00F0E013
:10146000E05CFA4F808390916105809160056EC0C9
:10147000E091610581E08E0F809361058091BB0052
:10148000F0E0E05CFA4F80838091630581116DC0CC
:1014900081E080933E0584EA61C083E08093640527
:1014A00010920503CFCF80910503803208F051C020
:1014B000E091050381E08E0F809305038091BB00CE
:1014C000F0E0EB51FD4F8083BDCF85EC8093BC00F5
:1014D0001092640580910503803230F4E091050399
:1014E000F0E0EB51FD4F10826091050370E0E09158
:1014F000E302F091E40285EE92E019951092050363
:1015000035C084E0809364051092E2021092E102FB
:10151000E091DF02F091E00219958091E1028111E2
:1015200005C081E08093E1021092BF02E091E202E7
:1015300081E08E0F8093E202F0E0E154FD4F808164
:101540008093BB009091E2028091E102981708F429
:1015500079CF85E88093BC0009C085EC8093BC00FE
:101560001092640503C010926205AFDCFF91EF9109
:10157000BF91AF919F918F917F916F915F914F91AB
:101580003F912F910F900BBE0F900FBE0F901F90A9
:101590001895AF92BF92CF92DF92EF92FF920F9386
:1015A0001F93CF93DF93CDB7DEB7E9970FB6F894CB
:1015B000DEBF0FBECDBF7C01D62E8091040290917C
:1015C00005020196909305028093040284E591E060
:1015D0000E944D1E8091D3069091D4068E010F5F1C
:1015E0001F4F009721F4C801875D964004C0980101
:1015F000281B390BC9019A83898369817A8188E81C
:1016000095E00E943F208AEC96E00E94CE1E6091F9
:10161000CA067091CB0642E5C8010E94DD1C6091AC
:1016200004027091050288E895E00E943F20EA8D4F
:10163000FB8D309711F185818823F9F08BE391E0E0
:101640000E944D1E6091040270910502C8010E9423
:101650003F20C8010E947C2568E772E0CE018E968B
:101660000E943826DD2099F044E050E06DE772E0FA
:10167000CE018E960E94C5200AC08EE191E00E94A4
:101680004D1E68EA72E0C7010E94382675C088E0E6
:1016900091E00E944D1E80910402909105021DAAC6
:1016A0001CAA1FAA1EAA19AE18AE8E01045E1F4FF7
:1016B0004AE0B8010E94982CF80101900020E9F757
:1016C0003197AF01401B510BB801CE01C4960E9467
:1016D000C5208AA99BA9AEA4BFA4C8ACD9ACA1144B
:1016E000B10409F444C00097A1F0C80ED91EB60198
:1016F000CE01C4960E948C208823C9F12CA93DA953
:1017000088AD99ADB501820F931F0E942C2ED9AEE2
:10171000C8AE1D8E1C8E1F8E1E8E19A218A2BE0171
:101720006C5C7F4FC8010E94E420CE01C4960E94E9
:10173000F920C8010E94CE1E8C8D9D8DF7019183EA
:1017400080838E8D9F8D9383828388A199A19583B9
:1017500084831D8E1C8E1F8E1E8E19A218A2C80196
:101760000E94F920CE018E960E94F92005C0CE017C
:10177000C4960E94B320CDCFC701E9960FB6F89466
:10178000DEBF0FBECDBFDF91CF911F910F91FF90B4
:10179000EF90DF90CF90BF90AF9008958EBD000086
:1017A0000DB407FEFDCF8EB508954F925F926F92F4
:1017B0007F928F929F92AF92BF92CF92DF92EF92E1
:1017C000FF920F931F93CF93DF93CDB7DEB7C7522E
:1017D000D1400FB6F894DEBF0FBECDBFCE5DDE4F59
:1017E0004883C252D140CD5DDE4F5883C352D140B1
:1017F000CC5DDE4F6883C452D140CB5DDE4F788331
:10180000C552D140CA5DDE4F8883C652D140C95D02
:10181000DE4F9883C752D140790168EA72E0CE0169
:10182000845E9E4F0E943826CE018E5D9E4F0E94A0
:1018300022164B015C018FEF8816980685E0A806FA
:10184000B10480F084EF91E00E944D1E002341F02E
:10185000CE018E5D9E4F0E94441682E08093090364
:1018600010E0FDC081149104A104B10419F489EEC3
:1018700091E0EACFB701CE01845E9E4F0E94E42042
:10188000CE01845E9E4F0E94CE1EC45EDE4F6881F4
:101890007981CC51D14043E1CE018F5F9E4F0E94B0
:1018A000DD1C8AED91E00E944D1EC65EDE4FE88190
:1018B000F981CA51D140309719F08581811105C055
:1018C00089EC91E00E944D1ECBCF80EB91E00E940D
:1018D0004D1E6091B80270E088E895E00E943F20BC
:1018E0008AE991E00E944D1ECE018E5D9E4F0E94BE
:1018F0000D168CE353DF80E051DF482EC12CD12C34
:1019000076017724739466246A9498ED592E81E0C9
:1019100088169104A104B10409F48BC080E03EDF75
:10192000182F8091B802882381F18FEFC816D10457
:10193000E104F10409F068F4E1E0F0E0EC0FFD1FD0
:10194000EC0DFD1D10838FEFC81AD80AE80AF80ABB
:1019500040C0CE018E5D9E4F0E94181640E051E0BF
:10196000BE016F5F7F4FCE018F5F9E4F0E944E2161
:101970001983CE018E5D9E4F0E940D168CE30EDF03
:10198000C12CD12C7601C39424C0183D11F58FEFE2
:10199000481248C07092B80282E991E00E944D1E40
:1019A000E1E0F0E0EC0FFD1FEC0DFD1D6082D701C2
:1019B000C6010196A11DB11DE1E0F0E0EC0FFD1F95
:1019C000E80FF91F82E0C80ED11CE11CF11C508207
:1019D00029C0193D39F58FEF481224C0E1E0F0E04D
:1019E000EC0FFD1FEC0DFD1D1083CE018E5D9E4F93
:1019F0000E941816B701A6014F5F5F4F6F4F7F4FD0
:101A0000BE016F5F7F4FCE018F5F9E4F0E944E21C0
:101A1000CE018F5F9E4F0E947C2580E891E00E945E
:101A20004D1E07C081E0881A9108A108B108412E17
:101A30006ECFCE018E5D9E4F0E94181683E791E017
:101A40000E944D1E002341F0CE018E5D9E4F0E94EC
:101A5000441682E0809309031092B80211E0CE018F
:101A6000845E9E4F0E94F920812FC95DDE4F0FB624
:101A7000F894DEBF0FBECDBFDF91CF911F910F91C4
:101A8000FF90EF90DF90CF90BF90AF909F908F909E
:101A90007F906F905F904F900895DC01ED91FC91E5
:101AA0000280F381E02D19946115710579F0FB0135
:101AB00001900020E9F73197AF01461B570BDC017D
:101AC000ED91FC910280F381E02D199480E090E08B
:101AD00008952F923F924F925F926F927F928F92D2
:101AE0009F92AF92BF92CF92DF92EF92FF920F93AD
:101AF0001F93CF93DF93CDB7DEB72A970FB6F89435
:101B0000DEBF0FBECDBF6B017C015A8749878BE8D2
:101B100091E00197F1F786011127C114D104E10486
:101B2000F10421F483EF94E00E944D1E602F89851B
:101B30009A850E94FE20892B49F482EE94E00E944F
:101B40004D1EB80188E895E00E943F208D2C9E2C08
:101B5000AF2CBB2414013324622D89859A850E9401
:101B6000FE20892B49F481ED94E00E944D1EB101C5
:101B700088E895E00E943F20492C5A2C6B2C772452
:101B8000C20199279A838983698189859A850E94F0
:101B9000FE20892B51F480EC94E00E944D1E698157
:101BA0007A8188E895E00E943F20BB27A72D962DDB
:101BB000852D8D839E83AF83B88799279C838B83E4
:101BC0006B8189859A850E94FE20892B51F48FEACA
:101BD00094E00E944D1E6B817C8188E895E00E9414
:101BE0003F208C289D28AE28BF28811017C08D81EA
:101BF0009E81AF81B8858429892B8A2B8B2B71F428
:101C000062E872E088E895E04FDF66EA72E088E813
:101C100095E04ADFC701B6010E947820CD28CE2882
:101C2000CF2871F5B80188E895E00E943F20B10106
:101C300088E895E00E943F2069817A8188E895E0F4
:101C40000E943F206B817C8188E895E02A960FB640
:101C5000F894DEBF0FBECDBFDF91CF911F910F91E2
:101C6000FF90EF90DF90CF90BF90AF909F908F90BC
:101C70007F906F905F904F903F902F900C943F20FB
:101C80002A960FB6F894DEBF0FBECDBFDF91CF917D
:101C90001F910F91FF90EF90DF90CF90BF90AF908A
:101CA0009F908F907F906F905F904F903F902F907C
:101CB00008952F923F924F925F926F927F928F92F0
:101CC0009F92AF92BF92CF92DF92EF92FF920F93CB
:101CD0001F93CF93DF93CDB7DEB7C55AD1400FB670
:101CE000F894DEBF0FBECDBFC959DE4F19821882EE
:101CF000C756D14088EE93E0A0E0B0E0C759DE4F70
:101D000088839983AA83BB83C956D1408CE192E032
:101D1000CB59DE4F99838883C556D140C258DE4FD8
:101D200019821882CE57D140CF58DE4F1882C15742
:101D3000D14061E0CE0185569E4F2BDCC556DE4F6B
:101D400068817981CB59D14042E5CE0101960E944C
:101D5000DD1C8B819C81C959DE4F99838883C756CE
:101D6000D1408D819E81AF81B885C759DE4F888370
:101D70009983AA83BB83C956D14089859A85AB854F
:101D8000BC85C359DE4F88839983AA83BB83CD5614
:101D9000D1408DE0FE013D96A5E6B1E0AC0FBD1F40
:101DA0001C9601900D928A95E1F7EA8DFB8DC25841
:101DB000DE4FF983E883CE57D140309719F0858103
:101DC000811105C088E994E00E944D1EFFCF20E0FC
:101DD00030E080E090E0F901E854FD4FE491A1E0AB
:101DE000B0E0AC0FBD1FA80FB91FEC9301962E5F9A
:101DF0003F4F803F910579F79093BE028093BD02DB
:101E000040EF50E0BE016F5F7F4FCE018B599E4F78
:101E10000E944E2188E992E00E944D1E8E010F5FC4
:101E20001E4F9E012B593E4FCF55DE4F39832883DD
:101E3000C15AD140CC55DE4F19830883C45AD140D2
:101E4000712C4CEF242E33243A94432C532C41E034
:101E500050E064E870E084EC96E0B5D684EC96E05F
:101E600013D742E050E064E870E084EC96E0ABD633
:101E700061E470E084EC96E08DD683FFF9CF84ECCA
:101E800096E0E0D6362F872E682E992E68E872E00D
:101E9000CE018B599E4FCD55DE4F3883C35AD1406A
:101EA00003DE44E050E064E172E0CE018B599E4FC6
:101EB000F4DD1092BE021092BD021092B90210928F
:101EC000BA021092BB021092BC0284EC96E0A5D636
:101ED0008CE364DCCD55DE4F3881C35AD140C32E2C
:101EE000D82CE62CF92C90E0C114D104E104F104C3
:101EF00009F4F3C080E0CD55DE4F9883C35AD1403A
:101F00004DDC682ECD55DE4F9881C35AD14039ED56
:101F100083135CC09F3F09F068C38091BD0290911C
:101F2000BE024C01EFEF8E1A9E0A9092BE02809282
:101F3000BD02E1E0F0E0EC0FFD1FE80FF91F608249
:101F400084EC96E075D6A401BE016F5F7F4FCE0191
:101F50008B599E4F0E944E214C018091BD02909161
:101F6000BE028816990689F086E992E00E944D1E0D
:101F70006091BD027091BE0288E895E00E943F200A
:101F8000B40188E895E00E943F208091BD029091C5
:101F9000BE02092E000CAA0BBB0B4091B902509156
:101FA000BA026091BB027091BC02840F951FA61FFC
:101FB000B71F8093B9029093BA02A093BB02B0936B
:101FC000BC021092BE021092BD025FC0772009F4DD
:101FD00056C08091BD029091BE028F3F910509F0DD
:101FE0007CF49C012F5F3F4F3093BE022093BD02D3
:101FF000E1E0F0E0EC0FFD1FE80FF91F608264C024
:1020000084EC96E015D640E051E0BE016F5F7F4F53
:10201000CE018B599E4F0E944E214C018091BD02F2
:102020009091BE028816990649F082E992E00E94DA
:102030004D1EB40188E895E00E943F2088248394D7
:10204000912C9092BE028092BD02698284EC96E04F
:10205000E4D58CE3A3DB8091B9029091BA02A09100
:10206000BB02B091BC029F5FAF4FBF4F8093B902DC
:102070009093BA02A093BB02B093BC0225C028ED96
:10208000922E891102C09F3F11F0712C1FC08091C8
:10209000BD029091BE02E1E0F0E0EC0FFD1FE80F01
:1020A000F91FAA24AA94A0829C012E5F3F4F30936F
:1020B000BE022093BD02E2E0F0E0EC0FFD1FE80F4E
:1020C000F91F98EDB92EB0827724739421E0C21ADB
:1020D000D108E108F108962D07CF8091B9029091BF
:1020E000BA02A091BB02B091BC02892B8A2B8B2B28
:1020F00061F480E892E00E944D1E6091BD027091F3
:10210000BE0288E895E00E943F208091B90290913C
:10211000BA02A091BB02B091BC02482F4195437016
:10212000840F911DA11DB11D8093B9029093BA0235
:10213000A093BB02B093BC02C0900002D0900102F9
:10214000E0900202F090030238E0C30ED11CE11CC3
:10215000F11C8C0D9D1DAE1DBF1D80930002909340
:102160000102A0930202B0930302442339F050E02D
:1021700064E172E0CE018B599E4F8FDCCE018B590A
:102180009E4F0E948C25C090B902D090BA02E09078
:10219000BB02F090BC02A20191012C193D094E092D
:1021A0005F0949015A01860E971EA81EB91EB50186
:1021B000A401CE018B599E4F0E94CC25BE016B59C4
:1021C0007E4FCE0180589E4F0E942008AE0140589D
:1021D0005E4FC701B6017DDCCE018B599E4F0E9438
:1021E0008C25AB01BC014A5F5F4F6F4F7F4FCE0123
:1021F0008B599E4F0E94CC2544E050E06DE872E080
:10220000CE018B599E4F49DCCE018B599E4F0E94C7
:102210008C25C090B902D090BA02E090BB02F09039
:10222000BC02A70196012A5031094109510949010F
:102230005A01860E971EA81EB91EB501A401CE0133
:102240008B599E4F0E94CC25CC55DE4FE881F981F9
:10225000C45AD140C192D192CC55DE4FF983E88364
:10226000C45AD140CF55DE4F88809980C15AD140A1
:10227000E815F90509F0EBCD86E692E00E944D1EC7
:10228000CE018B599E4F0E948C250E94782062E9D6
:1022900072E0CE018B599E4F07DC44E050E064E1D0
:1022A00072E0CE018B599E4FF8DBCE018B599E4FC9
:1022B0000E948C252B013C0184E0882E912CA12CBE
:1022C000B12C68E872E0CE018B599E4FEDDB44E003
:1022D00050E060E172E0CE018B599E4FDEDBBE0123
:1022E0006B597E4FCE0180589E4F0E942008AE0150
:1022F00040585E4FC501B401ECDBBE016B597E4F07
:10230000CE0180589E4F0E942008F801C190D190C4
:102310008F01E12CF12CAE0140585E4FC701B60190
:10232000D8DBF8E0CF0ED11CE11CF11C8C0C9D1CFD
:10233000AE1CBF1CCF55DE4F28813981C15AD14018
:102340000217130709F0BDCF8AE592E00E944D1EE7
:10235000609100027091010280910202909103024B
:102360000E94782088E492E00E944D1ECE018B5995
:102370009E4F0E948C250E947820CE018B599E4F43
:102380000E948C256B017C01C418D508E608F7086B
:1023900087E392E00E944D1EC701B6010E9478209B
:1023A0008CE192E00E944D1EC301B2010E94782090
:1023B000B301A2014450510961097109CE018B5941
:1023C0009E4F0E94CC25BE016B597E4FCE01805896
:1023D0009E4F0E942008AE0140585E4FC701B601D3
:1023E00078DB44E050E060E070E0CE018B599E4F16
:1023F0000E94CC25BE016B597E4FCE0180589E4F66
:102400000E9420088091000290910102A091020296
:10241000B091030284519F4FAF4FBF4FBC01CD011C
:102420006C0D7D1D8E1D9F1DAE0140585E4F51DB12
:1024300040E250E060E070E0CE018B599E4F0E9478
:10244000CC25BE016B597E4FCE0180589E4F0E9415
:102450002008AE0140585E4F60E47DE083E090E0EC
:1024600038DB20910002309101024091020250912C
:102470000302A5E0B0E00E94022D22E330E040E03C
:1024800050E00E94E02C69017A0144E250E060E0F3
:1024900070E0CE018B599E4F0E94CC25BE016B5936
:1024A0007E4FCE0180589E4F0E942008AE014058BA
:1024B0005E4FC701B6010DDB40E350E060E070E025
:1024C000CE018B599E4F0E94CC25BE016B597E4F89
:1024D000CE0180589E4F0E942008AE0140585E4FAA
:1024E00062E370E080E090E0F4DA40EE50E060E01B
:1024F00070E0CE018B599E4F0E94CC25BE016B59D6
:102500007E4FCE0180589E4F0E942008AE01405859
:102510005E4F62E370E080E090E0DBDA48EE50E08E
:1025200060E070E0CE018B599E4F0E94CC2580E187
:1025300092E00E944D1E6091000270910102809114
:102540000202909103020E947820BE016B597E4FD7
:10255000CE0180589E4F0E94200860910002709129
:1025600001028091020290910302AE0140585E4F39
:10257000B0DA84E090E0A0E0B0E0809300029093B5
:102580000102A0930202B093030284EC96E050D3C0
:10259000CE018B599E4F0E941421CE018B599E4F24
:1025A0000E947C258FEF91E00E944D1ECE01855642
:1025B0009E4F0E94F920CB55DE4F0FB6F894DEBF38
:1025C0000FBECDBFDF91CF911F910F91FF90EF9084
:1025D000DF90CF90BF90AF909F908F907F906F9043
:1025E0005F904F903F902F9008957110F2CC4DCD99
:1025F000FC01538D448D252F30E0842F90E0821B09
:10260000930B541710F0CF96089501970895FC018D
:10261000918D828D981761F0828DDF01A80FB11D19
:102620005D968C91928D9F5F9F73928F90E008953D
:102630008FEF9FEF0895FC01918D828D981731F0F7
:10264000828DE80FF11D858D90E008958FEF9FEF4B
:102650000895FC01918D228D892F90E0805C9F4F21
:10266000821B91098F739927089588E895E0F1DF1F
:1026700021E0892B09F420E0822F0895FC01848D4C
:10268000DF01A80FB11DA35ABF4F2C91848D90E09C
:1026900001968F739927848FA689B7892C93A08977
:1026A000B1898C9180648C93938D848D981306C02E
:1026B0000288F389E02D80818F7D80830895EF92D9
:1026C000FF920F931F93CF93DF93EC0181E0888FEC
:1026D0009B8D8C8D981305C0E889F989808185FDD3
:1026E00023C0F62E0B8D10E00F5F1F4F0F731127C5
:1026F000E02E8C8DE8120BC00FB607FCFACFE889EC
:10270000F989808185FFF5CFCE01B8DFF2CF8B8DBF
:10271000FE01E80FF11DE35AFF4FF0820B8FEA89AB
:10272000FB898081806207C0EE89FF896083E88928
:10273000F98980818064808381E090E0DF91CF918E
:102740001F910F91FF90EF900895CF93DF93EC01CD
:10275000888D8823C1F0EA89FB89808185FD05C0C9
:10276000A889B9898C9186FD0EC00FB607FCF5CFFC
:10277000808185FFF2CFA889B9898C9185FFEDCF43
:10278000CE017CDFE8CFDF91CF91089580E090E02B
:10279000892B19F06ADF811125C080E090E0892B38
:1027A00041F080E090E0892B21F00E94000081112F
:1027B0001CC080E090E0892B41F080E090E0892B04
:1027C00021F00E940000811113C080E090E0892B6D
:1027D000A1F080E090E0892B81F00E94000081113F
:1027E0000AC008950E940000D8CF0E940000E1CFE7
:1027F0000E940000EACF0C94000008953FB7F894BF
:102800008091160390911703A0911803B0911903BA
:1028100026B5A89B05C02F3F19F00196A11DB11D3B
:102820003FBFBA2FA92F982F8827820F911DA11D76
:10283000B11DBC01CD0142E0660F771F881F991FB3
:102840004A95D1F708950E94072E80910C038823A2
:10285000A9F140910602509107026091080270911F
:1028600009022AE133E080911A0590911B050E942C
:10287000C824811102C080E0089540910D03509159
:102880000E0360910F03709110034115510561050E
:10289000710591F02AE133E080911A0590911B05B2
:1028A0000E94C824882339F310920D0310920E035E
:1028B00010920F031092100310920C0381E0089500
:1028C0001F920F920FB60F9211240BB60F922F93F7
:1028D0003F934F935F936F937F938F939F93AF93A8
:1028E000BF93EF93FF9388E895E0C8DEFF91EF91E7
:1028F000BF91AF919F918F917F916F915F914F9118
:102900003F912F910F900BBE0F900FBE0F901F9015
:1029100018951F920F920FB60F9211240BB60F92BB
:102920002F938F939F93EF93FF93E0919805F091EE
:1029300099058081E0919E05F0919F0582FD12C06E
:1029400090818091A1058F5F8F732091A2058217DE
:1029500051F0E091A105F0E0E857FA4F958F809390
:10296000A10501C08081FF91EF919F918F912F91DF
:102970000F900BBE0F900FBE0F901F901895362F23
:1029800090E0FC01E55AF24F4491FC01E554F24F0E
:102990002491FC01E55EF14F9491992309F46BC0F9
:1029A000442309F455C050E0FA013197E231F105B2
:1029B00008F04EC08827EE58FF4F8F4F0C941B2D08
:1029C000809180008F7707C0809180008F7D03C049
:1029D00080918000877F809380003AC084B58F7794
:1029E00002C084B58F7D84BD33C08091B0008F77E5
:1029F00003C08091B0008F7D8093B00029C080918A
:102A000090008F7707C0809190008F7D03C08091E8
:102A10009000877F809390001BC08091A0008F77EB
:102A200007C08091A0008F7D03C08091A000877FA8
:102A30008093A0000DC0809120018F7707C0809106
:102A400020018F7D03C080912001877F809320012A
:102A5000E92FF0E0EE0FFF1FEF5FF14FA591B4916A
:102A60008FB7F894EC91311103C020952E2301C04B
:102A70002E2B2C938FBF08958F929F92AF92BF926F
:102A8000CF92DF92EF92FF926B017C01B7DE4B0198
:102A90005C01C114D104E104F104E9F0AFDEDC0112
:102AA000CB0188199909AA09BB09883E9340A10561
:102AB000B10578F321E0C21AD108E108F10888EEE7
:102AC000880E83E0981EA11CB11CC114D104E1043E
:102AD000F10421F7DECFFF90EF90DF90CF90BF9011
:102AE000AF909F908F9008952FB7F8946091120344
:102AF0007091130380911403909115032FBF0895D3
:102B00001F920F920FB60F9211242F933F938F9322
:102B10009F93AF93BF938091120390911303A09161
:102B20001403B09115033091110323E0230F2D37C7
:102B300020F40196A11DB11D05C026E8230F0296C1
:102B4000A11DB11D209311038093120390931303D1
:102B5000A0931403B093150380911603909117036B
:102B6000A0911803B09119030196A11DB11D809386
:102B7000160390931703A0931803B0931903BF9102
:102B8000AF919F918F913F912F910F900FBE0F901A
:102B90001F901895CF93DF93EC01862FE881F98180
:102BA00020819A819095922390830E94CE0B80E0A1
:102BB0000E94CE0BE881F98120819A81922B90832B
:102BC000DF91CF9108950F931F93CF93DF931F92BF
:102BD000CDB7DEB78C01862FD801ED91FC9111970E
:102BE000208112969C9190959223908349830E9414
:102BF000CE0B4981842F0E94CE0BD801ED91FC9120
:102C00001197908112968C91892B808381E00F908F
:102C1000DF91CF911F910F910895DC01ED91FC910F
:102C20001197908112968C918095892380830895C5
:102C3000DC01ED91FC911197908112968C91892B7A
:102C4000808308950F931F93CF93DF93EC0162E489
:102C500070E0A0DF082F63E470E0CE019BDF182F47
:102C600064E470E0CE0196DF402F50E060E070E059
:102C7000512B8F778A019B01282BC901B801DF9165
:102C8000CF911F910F91089541E050E064E870E00A
:102C90009ACF8F929F92AF92BF92EF92FF920F9333
:102CA0001F93CF934B015C01C42F8091060290913A
:102CB0000702A0910802B091090288159905AA059A
:102CC000BB05F9F0C2DD811102C080E020C08AE1BD
:102CD000E82E83E0F82E00E012E020E030E0B501BD
:102CE000A40180911A0590911B050E943B24882322
:102CF00061F38092060290920702A0920802B092BD
:102D0000090280910C03C82BC0930C0381E0CF9182
:102D10001F910F91FF90EF90BF90AF909F908F9079
:102D200008954F925F926F927F928F929F92AF928F
:102D3000BF92CF92DF92EF92FF920F931F93CF93A8
:102D4000DF93EC016A017B01280139014230510512
:102D50006105710510F480E072C089859A85AB85A4
:102D6000BC850196A11DB11D84179507A607B7075D
:102D700090F38B889C88AD88BE888F89803129F438
:102D8000BB27AF2D9E2D8D2D09C0DB01CA0147E069
:102D9000B695A795979587954A95D1F7880E991E70
:102DA000AA1EBB1E8091060290910702A091080204
:102DB000B091090288169906AA06BB0679F48F8994
:102DC000803199F4DD24EE24FF24C601880F991F79
:102DD000FC01E65EFC4F5182408218C040E0C50114
:102DE000B40157DF8111EBCFB6CFE894C7F8DD24EB
:102DF000EE24FF24C601880F991F880F991FFC013C
:102E0000E65EFC4F408251826282738280910C03A5
:102E1000816080930C038A89823080F08D819E814D
:102E2000AF81B885880E991EAA1EBB1E80920D0325
:102E300090920E03A0920F03B092100381E0DF91F5
:102E4000CF911F910F91FF90EF90DF90CF90BF90A7
:102E5000AF909F908F907F906F905F904F9008956C
:102E60008F929F92AF92BF92CF92DF92EF92FF929A
:102E70000F931F93CF93DF93FC0181859285A385E8
:102E8000B4850196A11DB11D84179507A607B70744
:102E900010F480E05BC083899489A589B689C789CD
:102EA000C03129F4852E962EA72EBB2409C04A01D5
:102EB0005B01C7E0B694A79497948794CA95D1F71D
:102EC000E9016A017B018F01BC01CD01680D791D0B
:102ED0008A1D9B1D8090060290900702A090080218
:102EE000B0900902681579058A059B0599F4F801E7
:102EF00087898031A1F4B701A60155276627772776
:102F0000440F551FFA01E65EFC4F80819181A0E0DD
:102F1000B0E017C040E0BDDE8111E9CFBACFB70104
:102F2000A6014F77552766277727440F551F440F73
:102F3000551FFA01E65EFC4F80819181A281B38129
:102F4000BF7088839983AA83BB8381E0DF91CF918F
:102F50001F910F91FF90EF90DF90CF90BF90AF90B7
:102F60009F908F9008954F925F926F927F92AF9251
:102F7000BF92CF92DF92EF92FF920F931F93CF9366
:102F8000DF9300D01F92CDB7DEB78C0149835A83FF
:102F90006B837C835901C12CD12C7601412C82E0BA
:102FA000582E612C712C49815A816B817C819E0144
:102FB0002F5F3F4FC80154DF882351F1D301C20175
:102FC000F801058404C0880F991FAA1FBB1F0A942B
:102FD000D2F7C80ED91EEA1EFB1E49815A816B81A9
:102FE0007C818789803129F088EF9FEFAFEFBFE0C8
:102FF00004C088EF9FEFA0E0B0E0481759076A07C8
:103000007B0788F2F501C082D182E282F38281E0FF
:103010000F900F900F900F90DF91CF911F910F9114
:10302000FF90EF90DF90CF90BF90AF907F906F9028
:103030005F904F9008954F925F926F927F92AF9200
:10304000BF92CF92DF92EF92FF920F931F93CF9395
:10305000DF93CDB7DEB72B970FB6F894DEBF0FBE68
:10306000CDBF7C01CE0101966C01FC0190E28BE0AA
:103070008C0D91938E13FDCFDA0130E047E09D91E6
:10308000992339F19E3219F0EBE4FDE00AC04A3091
:1030900009F46EC138E04AE0F2CF3196891709F49D
:1030A00067C184918111F9CF431708F461C18FED95
:1030B000890F8E3508F05CC181E0830FF601E30FC4
:1030C000F11D3FE9390F3A3108F490529083382FBF
:1030D000D6CF8981803209F44BC1B22E8B01DB013E
:1030E0005B968D919C915C97F701948F838F1696D8
:1030F0001D921D921D921C921997FB011286138638
:1031000014861586712CF80182859385A485B58572
:10311000438954896589768984179507A607B70777
:1031200008F061C025E0B695A795979587952A95F3
:10313000D1F7F82FFF706F2ED80115968C91823041
:1031400008F416C1C8010E94500897FD11C1F8018A
:1031500082859385A485B5854F96A11DB11D828773
:103160009387A487B587F0E26F9EC0011124BC014C
:10317000665E7C4F6115710509F4FAC0DB012C9184
:10318000222319F0253EC1F427C071100EC0F701AB
:10319000628A409106025091070260910802709184
:1031A000090246875787608B718BFC01E65EFC4FF6
:1031B0008081811113C015C04BE050E0C6010E9410
:1031C0000B2E892B09F09FCF8B2D8073803309F450
:1031D000CFC04B2D662DC9C07720C9F277247394D8
:1031E00092CF772473948B2D8271823109F0C0C005
:1031F0007720C9F0D7011E966D917D918D919C919C
:10320000519741E046DD882309F4B2C0F701628995
:10321000F0E26F9FB0011124665E7C4F611571056D
:1032200009F078C0A5C0D80115968C91823009F4B8
:103230009FC0C8010E947C22882309F499C0D8014C
:103240005B96ED91FC915C9716964D905D906D901C
:103250007C901997B2E04B1A5108610871080584F7
:1032600004C0440C551C661C771C0A94D2F7868552
:103270009785A089B189480E591E6A1E7B1EA480BD
:10328000E1E04E1A510861087108AA2001F1DDDA67
:10329000882309F46DC0EAE1F3E0119225E0EA31F8
:1032A000F207D9F7D301C2018A0D911DA11DB11DED
:1032B0008093060290930702A0930802B09309023C
:1032C00080910C03816080930C03AA94DECFD80117
:1032D0005B96ED91FC915C9780E092E0A0E0B0E01D
:1032E000058404C0880F991FAA1FBB1F0A94D2F738
:1032F000F8014389548965897689840F951FA61F33
:10330000B71F838B948BA58BB68BD70152961C92DB
:103310006AE173E080E2FB0111928A95E9F78BE0A4
:10332000F601DB0101900D928A95E1F781E298E2C6
:10333000DB0151969C938E93509720E038E01F96C6
:103340003C932E931E9753969C938E935297599627
:103350009C938E93589757963C932E93569775DA75
:10336000882331F04B2DF7016289C701B2D701C024
:1033700080E02B960FB6F894DEBF0FBECDBFDF9175
:10338000CF911F910F91FF90EF90DF90CF90BF9062
:10339000AF907F906F905F904F900895CF93DF93A1
:1033A000EC018D81882391F18C8187FF2CC06E8583
:1033B0007F858889998941E06CDC882339F1EA8925
:1033C00080E2E89FF0011124DF01A65EBC4F109758
:1033D000E9F08D81823050F44B895C896D897E895A
:1033E0005C964D935D936D937C935F978F89988DD9
:1033F000A98DBA8DE65EFC4F938F828FB58BA48B1F
:103400008C818F778C83DF91CF911FCA80E0DF9111
:10341000CF9108958F929F92AF92BF92CF92DF92F9
:10342000EF92FF920F931F93CF93DF93EC018D8167
:10343000811102C080E076C00B891C892D893E89EC
:103440000417150726073707A8F36A017B018230A6
:1034500029F4CA86DB86EC86FD860DC0C114D10432
:10346000E104F10451F41E821F82188619861A861F
:103470001B861C861D8681E055C08A849B84AC8493
:10348000BD84EB8DFC8D258530E0275F3F4FB50176
:10349000A4014150510961097109022E04C07695B9
:1034A0006795579547950A94D2F7D701C6010197BA
:1034B000A109B10904C0B695A795979587952A9556
:1034C000D2F784179507A607B70720F089288A281E
:1034D0008B2849F44F89588D698D7A8D4E835F838F
:1034E0006887798704C0841B950BA60BB70B4C012A
:1034F0005D018E010A5F1F4F81149104A104B10484
:1035000009F4A7CF4E815F816885798598018B8DFD
:103510009C8DA6DC91E0891A9108A108B10881115F
:10352000EBCF88CFDF91CF911F910F91FF90EF905C
:10353000DF90CF90BF90AF909F908F9008952F9283
:103540003F924F925F926F927F928F929F92AF9233
:10355000BF92CF92DF92EF92FF920F931F93CF9380
:10356000DF9300D01F92CDB7DEB78C015B011A014B
:10357000DC0115968C9115978130C1F414968C91CD
:1035800081FF14C082FF1AC0F801438954896589FC
:10359000768982859385A485B58584179507A607C6
:1035A000B70761F0C80136DF811108C081E090E003
:1035B000F8019383828380E090E034C1610183C08D
:1035C000D8015B968D919C915C97FC0124812150E0
:1035D0002A013B0139E076946794579447943A95D1
:1035E000D1F7722E74207A01F1E0FF22772009F4DE
:1035F00076C080E092E08E199F0946018C159D05EA
:1036000008F44C01D8015B962D913C915C9716967D
:103610008D919D910D90BC91A02D0297A109B109AA
:10362000F901058404C0880F991FAA1FBB1F0A94C3
:10363000D2F74685578560897189840F951FA61F2B
:10364000B71F9C01AD01270D311D411D511D2901E1
:103650003A01811432E0930609F086C08091060297
:1036600090910702A0910802B09109028415950576
:10367000A605B70559F48FEF9FEFDC018093060292
:1036800090930702A0930802B09309029501B30139
:10369000A20180911A0590911B050E94C8248823DD
:1036A00009F484CF9EEFB91AC818D908F8018285A9
:1036B0009385A485B585880D991DA11DB11D8287AF
:1036C0009387A487B587D8011A964D915D916D9126
:1036D0007C911D97C114D10409F072CF83C0E1140D
:1036E000F10409F086CF16964D915D916D917C9114
:1036F0001997411551056105710559F457968D913A
:103700009D910D90BC91A02D0097A105B10531F5BB
:1037100020C09E012F5F3F4FA3DB882309F44CCFCD
:1037200089819A81AB81BC81F801238D348DF901A7
:103730002789203129F048EF5FEF6FEF7FE004C069
:1037400048EF5FEF60E070E084179507A607B707C2
:1037500028F0C801D1D681114CCF28CFF80186833B
:103760009783A087B18745CFE114F10421F5D801F3
:103770001A964D915D916D917C911D9753968D9107
:103780009D910D90BC91A02D481759076A077B07A2
:1037900090F05BD8882309F409CF4092060250923A
:1037A0000702609208027092090280910C03816006
:1037B00080930C0307C041E0C301B2016ADA882399
:1037C00009F4F4CED501F701E65EFC4FCF01880D78
:1037D000991DE817F90719F02D912193FACFA80C3C
:1037E000B91C62CF53968D919D910D90BC91A02DE7
:1037F00084179507A607B70740F4F801438B548B4D
:10380000658B768B848180688483D80114968C9133
:1038100083FD02C0C10106C0C801C0DD882309F4D0
:10382000C5CEF8CF0F900F900F900F90DF91CF91F2
:103830001F910F91FF90EF90DF90CF90BF90AF90CE
:103840009F908F907F906F905F904F903F902F90C0
:103850000895CF93DF931F92CDB7DEB7698341E020
:1038600050E0BE016F5F7F4F6ADE0F90DF91CF9116
:103870000895382F209187059091D006213208F0C5
:1038800049C0809164058111FCCF42E040936405FA
:10389000309363053FEF30936205109261052093EA
:1038A0006005A7E6B5E040E455E0FA013E2F341B81
:1038B000321718F43D913193F9CF10923F052091C2
:1038C0003F05990F922B90933F0590913E059130C3
:1038D00061F410923E0590913F059093BB0090914A
:1038E000BC0093FDF8CF95EC01C095EE9093BC0021
:1038F000909164059230E1F3909162059F3F79F0D9
:1039000080916205803241F080916205803331F010
:1039100084E005C081E003C082E001C083E0109232
:1039200066051092870510926505089590E0FC01E8
:10393000E554F24F2491FC01E55EF14F8491882318
:1039400099F090E0880F991FFC01EF55F24FA59177
:10395000B491FC01EF5FF14F859194918FB7F8948A
:10396000EC91E22BEC938FBF0895E8E8F5E0A08995
:10397000B18982E08C93A485B5851C92A685B78514
:1039800080E18C93108EA489B58986E08C93A289FE
:10399000B3898C9180618C93A289B3898C91886062
:1039A0008C93A289B3898C9180688C930288F38967
:1039B000E02D80818F7D808308952F923F924F92DA
:1039C0005F926F927F928F929F92AF92BF92CF92AF
:1039D000DF92EF92FF920F931F93CF93DF93CDB7B8
:1039E000DEB7C756D1090FB6F894DEBF0FBECDBF04
:1039F0005C014B01A6964FAFA6973E018EE1680E83
:103A0000711C69E976E0C3010E942B251C821B8290
:103A100080E492E09A8389831E8264018E010F5FA5
:103A20001F4F230118016FE270E0C6010E94212E92
:103A3000009709F43FC0F60120812F3221F4FFEFF7
:103A4000CF1ADF0AF0CF8C198D3008F08CE0E82E09
:103A5000F12CA701B601CE01885A9F4F0E94332E48
:103A6000E8E5F0E0EC0FFD1FEE0DFF1D1082C80130
:103A700037D5F8018581882351F01EAE1DAE80E454
:103A800092E09CAF8BAF21961FAE21971EC021E024
:103A9000AE01485A5F4FB201C801CDDA882369F3FD
:103AA000CE0CDF1CC2011CD5942D852D2801092FB9
:103AB000182FB9CFC60188199909A8969FAF8EAF64
:103AC000A897B201CE01CB96C6D7A896EEADFFADB2
:103AD000A8978E0E9F1EF4018081811108C0BE013F
:103AE000655C7F4FC101B7D745EB52E046C019A2D4
:103AF00018A280E492E09F8F8E8F1BA221968FAD3B
:103B00002197811113C0F5011382128288EE93E090
:103B1000A0E0B0E084839583A683B7838CE192E034
:103B200091838083128E118E14862BC08250A696AC
:103B30002FADA697A401823038F469E976E0C3017D
:103B40007ADA81110BC0DFCFBE01655C7F4FC30104
:103B500072DA8823C1F2CE01CB96C2D4A6968FAD7D
:103B6000A697867031F049A95AA96BA97CA9C3010F
:103B700051DCB301C1016FD7A401B101C5010E949D
:103B8000D925C501C959DF4F0FB6F894DEBF0FBE66
:103B9000CDBFDF91CF911F910F91FF90EF90DF90FC
:103BA000CF90BF90AF909F908F907F906F905F90DD
:103BB0004F903F902F900895CF93C62F2091C90624
:103BC00030E03595279591E0909365052093D006D8
:103BD0001092660510928705682F88EB96E00E9488
:103BE000F2076C2F88EB96E00E94F20781E041DE3D
:103BF000811108C061E070E080E090E00E943C1517
:103C000081E001C080E0CF910895EF92FF920F9381
:103C10001F93CF93DF93EC01E12CF12C00E010E037
:103C20008FEFE816F10461F0FE0105911491FE0199
:103C30003296E590F490B701C801BEDF2496F0CF2C
:103C40000F3F110589F781E090E0DF91CF911F913F
:103C50000F91FF90EF9008950F931F93CF93DF93F1
:103C60008C01C0E0D0E0F801EC0FFD1F64916623E9
:103C700071F0E0918805F09189050190F081E02DC7
:103C800088E895E01995892B11F02196ECCFCE01AB
:103C9000DF91CF911F910F910895CF93DF93DCDFD8
:103CA000EC0166EA72E088E895E00E94540D8C0F02
:103CB0009D1FDF91CF910895CF93DF93EB0120916A
:103CC000C90630E03595279591E0909365052093DE
:103CD000D0061092660510928705682F88EB96E053
:103CE0000E94F20781E0C5DD8091C90690916405CC
:103CF0009111FCCF91E090936405909363052FEFB1
:103D000020936205109261051092600590933F0523
:103D100090913F058E7F892B80933F0580913E05D2
:103D2000813061F410923E0580913F058093BB0085
:103D30008091BC0083FDF8CF85EC01C085EE8093B7
:103D4000BC00809164058130E1F3809161058111AF
:103D500003C08091610501C081E0A0E4B5E02EE1DF
:103D600035E0F9019E2F921B981718F49D919193BD
:103D7000F9CF10921D0580931C05882329F088EB4C
:103D800096E00E94A707888361E070E080E090E001
:103D90000E943C1581E0DF91CF910895CF93DF938E
:103DA000FC01448155816081718188E895E00E9421
:103DB0004D0DEC0166EA72E088E895E00E94540D32
:103DC0008C0F9D1FDF91CF9108950F931F93CF9379
:103DD000DF93EC010E947415688779878A879B8737
:103DE000CE0129D297FF17C00E9474150885198546
:103DF0002A853B85DC01CB01801B910BA20BB30B09
:103E00000C811D812E813F8180179107A207B30786
:103E100038F38FEF9FEFDF91CF911F910F910895AE
:103E20008F929F92AF92BF92CF92DF92EF92FF92CA
:103E3000CF93DF93C82F8FE696E090931B05809376
:103E40001A05CC2369F1C53010F080E00DC140E0C7
:103E500060E070E0CB010E9449168823B1F320E1B5
:103E6000C29FC0011124865F9C4FFC01E254FE4FAB
:103E700020812F7751F73C96408151816281738177
:103E8000443651056105710500F33497C080D18037
:103E9000E280F380C114D104E104F10421F4D5CF10
:103EA000C12CD12C760140E0C701B6010E94491611
:103EB000882359F280912503909126038115924021
:103EC00021F6A0912A03AA2309F4BFCF6091280309
:103ED000709129036115710509F4B7CF209127036B
:103EE000222309F4B2CFA0938D0620937F0680E0B1
:103EF00030E0E1E0F0E0C82FAF01082E02C0440F2F
:103F0000551F0A94E2F72417350741F0982F8F5F69
:103F1000983089F789E08093880697CF8093880648
:103F200020913003309131032115310519F040E023
:103F300050E008C020913E0330913F034091400380
:103F4000509141032093800630938106409382066E
:103F50005093830646015701860E971EA11CB11C83
:103F600080928E0690928F06A0929006B092910653
:103F7000E0912B03F0912C03F0939406E0939306C9
:103F8000B0E00E94022D860E971EA81EB91E8092D8
:103F9000950690929606A0929706B092980685E0B4
:103FA000EE0FFF1F8A95E1F7E150FE4FEF2FFF273D
:103FB000E6958E0E9F1EA11CB11C809289069092E0
:103FC0008A06A0928B06B0928C0620912D03309128
:103FD0002E032115310521F0A90160E070E008C031
:103FE00040913A0350913B0360913C0370913D0333
:103FF000D701C60188199909AA09BB09840F951F21
:10400000A61FB71F04C0B695A79597958795CA9523
:10401000D2F78093840690938506A0938606B0938A
:104020008706853F2FE09207A105B10510F48CE0CB
:1040300018C0853F9F4FA105B10510F480E111C064
:104040008091460390914703A0914803B0914903A2
:104050008093950690939606A0939706B093980642
:1040600080E28093920681E0DF91CF91FF90EF9004
:10407000DF90CF90BF90AF909F908F900895CF9298
:10408000DF92EF92FF920F931F93CF93DF93EC0198
:104090006B01770FEE08FF08F7FE15C0E881F98184
:1040A0000190F081E02D6DE219958C014427552790
:1040B000BA014C195D096E097F092AE0CE01ECD5E1
:1040C000080F191F05C02AE0B701A601E5D58C012C
:1040D00066EA72E0CE010E94540D800F911FDF91BD
:1040E000CF911F910F91FF90EF90DF90CF900895A7
:1040F000CF93DF93AB01BC012AE088E895E0CCD5F3
:10410000EC0166EA72E088E895E00E94540D8C0F9D
:104110009D1FDF91CF9108950F931F93CF93DF934E
:10412000EC0188819981009729F02A813B8126172B
:10413000370788F48B016F5F7F4F0E94232D009714
:1041400061F0998388831B830A832C813D81232B13
:1041500011F4FC01108281E001C080E0DF91CF9179
:104160001F910F910895CF93DF93EC01888199817E
:10417000009711F00E94DA2B198218821D821C828E
:104180001B821A82DF91CF910895EF92FF920F93D5
:104190001F93CF93DF93EC017B018A01BA01BCDF4F
:1041A000811103C0CE01DFDF07C01D830C83B7017F
:1041B000888199810E942C2ECE01DF91CF911F9191
:1041C0000F91FF90EF900895CF93DF93EC01FB01E7
:1041D0008617970751F0608171816115710521F093
:1041E00044815581D2DF01C0BEDFCE01DF91CF9186
:1041F0000895FC01808191810C94DA2BCF93DF9399
:104200001F92CDB7DEB76983DC01ED91FC9102808E
:10421000F381E02D41E050E0BE016F5F7F4F1995C3
:104220000F90DF91CF910895FC01818D928D0097C1
:1042300009F0B4C80895FC01818D928D009711F0AA
:104240000C9450088FEF9FEF08950F931F93CF9317
:10425000DF93FC01818D928D0097B1F0EF010E94F8
:1042600050088C010F3F8FEF180789F0898D9A8DC8
:10427000FC0142855385648575854150510961096A
:104280007109C8D8C80105C080E090E002C08FEF76
:104290009FEFDF91CF911F910F910895CF93DF93FF
:1042A000EC01898D9A8D009739F481E090E09B8331
:1042B0008A8380E090E00AC0FC01138212823FD919
:1042C000E98DFA8D22813381232B79F7DF91CF910C
:1042D00008958F929F92AF92BF92CF92DF92EF920A
:1042E000FF920F931F93CF93DF9300D01F92CDB710
:1042F000DEB77C0180E2689F600111249601265E92
:104300003C4FD9011B969C91917121F0842F8274AE
:1043100009F096C0142FF701628B809106029091EC
:104320000702A0910802B091090286879787A08BA7
:10433000B18BF601E65EFC4F4489558960E070E080
:10434000BA0155274427D70157964D935D936D9336
:104350007C935A97828D938DA0E0B0E0482B592B27
:104360006A2B7B2BD70157964D935D936D937C936E
:104370005A97D9011B968C91887159F4848D958D2B
:10438000A68DB78DF701838B948BA58BB68B81E0BF
:1043900012C0803109F054C097012D5E3F4FD70104
:1043A0005B968D919C915C970E94B317882309F4CA
:1043B00047C084E0F7018583812F8F70D701149661
:1043C0008C931497F70116821782108611861A961D
:1043D0001D921D921D921C921D9716FF33C01596BB
:1043E0008C91813069F511FF2BC0F7014389548905
:1043F00065897689452B462B472B09F460C040E040
:1044000050E0BA01C70106D88823D1F0F7018788A8
:10441000908CA18CB28CC38CD48C82E090E0A0E014
:10442000B0E0F60180839183A283B3839E012F5F66
:104430003F4FB501A401C6010E943017811104C08D
:1044400080E03DC081E03BC000E010E09801B50194
:10445000A401C6010E949116882391F389809A8055
:10446000AB80BC80D60157968C91803129F088EFC3
:104470009FEFAFEFBFE004C088EF9FEFA0E0B0E098
:1044800088169906AA06BB0688F2D70157961D9290
:104490001D921D921C925A97F701138A148A158A4D
:1044A000168A848180688483C7010E94CE1988237C
:1044B00039F240E050E0BA01C7010E940A1A0F9099
:1044C0000F900F900F90DF91CF911F910F91FF9060
:1044D000EF90DF90CF90BF90AF909F908F90089516
:1044E000CF93DF93EC010E94CE19882311F01D8237
:1044F00081E0DF91CF9108953F924F925F926F924A
:104500007F928F929F92AF92BF92CF92DF92EF9263
:10451000FF920F931F93CF93DF93CDB7DEB72C9706
:104520000FB6F894DEBF0FBECDBF5C01DC015B9619
:104530008D909C905C971696CD90DD90ED90FC90C0
:104540001997C114D104E104F10439F0BFEFCB1A7B
:10455000DB0AEB0AFB0A312C07C0F401C080D180D2
:10456000E280F38033243394F40181859285A3851E
:10457000B4859C01AD012F5F3F4F4F4F5F4F29879F
:104580003A874B875C87260137011D821E821F8276
:104590001886F40181859285A385B4852D813E819D
:1045A0004F815885281739074A075B0708F063C011
:1045B00089859A85AB85BC858C159D05AE05BF05A3
:1045C00050F482E0C82ED12CE12CF12C92E0492E3F
:1045D000512C612C712C9E012F5F3F4FB701A6011A
:1045E000C4010E943017882309F445C089819A814B
:1045F000AB81BC81892B8A2B8B2B41F026013701A3
:104600009FEF491A590A690A790A05C0C414D504EA
:10461000E604F70491F02D813E814F8158852F5F8C
:104620003F4F4F4F5F4F2D833E834F8358873FEF60
:10463000C31AD30AE30AF30AACCF0FEF1FEF2FEF31
:104640003FE0B301A201C4010E949116882399F0B2
:10465000D50116964D915D916D917C9119974115FB
:1046600051056105710549F093018201C4010E9461
:104670009116811102C080E02AC0D50116964D9294
:104680005D926D927C921997332051F0D301C20153
:104690000196A11DB11DF40180839183A283B38390
:1046A000F5018789908DA18DB28D892B8A2B8B2B5B
:1046B00069F4D50157964D925D926D927C925A970E
:1046C00014968C911497806814968C9381E02C96A4
:1046D0000FB6F894DEBF0FBECDBFDF91CF911F9113
:1046E0000F91FF90EF90DF90CF90BF90AF909F9091
:1046F0008F907F906F905F904F903F9008958FB70D
:10470000F8948091D2068FBF089561E0FC01848106
:104710000E94BF148091D10681111092D106089594
:104720008FEF0C94CE0B0F931F93CF93DF93EB017E
:104730000E9474158B01F4DF8F3F49F00E947415BD
:10474000601B710B6C177D07B0F380E001C081E046
:10475000DF91CF911F910F910895CF93DF93EC01DB
:104760008E81882379F08F8198859C012F5F3F4F40
:1047700038872F838230924010F4D2DFF4CFCE01FD
:10478000C4DF1E82DF91CF9108958CBD9DBD089539
:10479000CF93DF93EC018091D106811108C081E0B5
:1047A0008093D10680916D0690916E06EEDF60E0F9
:1047B0008C81DF91CF910C94BF14CF92DF92FF9246
:1047C0000F931F93CF93DF9300D01F92CDB7DEB727
:1047D0006C01F62E29833A834B835C83BEDFC601CE
:1047E000D7DF6CE271E0C6019EDF8F2D80640E94EE
:1047F000CE0B08E110E05C814B813A812981DA011E
:10480000C901002E04C0B695A795979587950A947F
:10481000D2F729833A834B835C830E94CE0B0850E6
:10482000110929813A814B815C81083F8FEF18077C
:1048300031F7FF2029F0E8E0FE1204C087E803C04A
:1048400085E901C08FEF0E94CE0B10E069DFF60111
:10485000828787FF04C01F3F11F01F5FF7CF0F90C3
:104860000F900F900F90DF91CF911F910F91FF90BC
:10487000DF90CF900895AF92BF92CF92DF92EF92E8
:10488000FF920F931F93CF93DF93EC016901C8014F
:10489000820F931F8130924008F06AC08E81882376
:1048A00071F088819981AA81BB81481759076A07ED
:1048B0007B0729F48F819885C816D90698F5488317
:1048C00059836A837B838B85833039F089E0440F79
:1048D000551F661F771F8A95D1F79A01AB0161E1D9
:1048E000CE016BDF882319F083E08D8341C00E94E5
:1048F00074155B0115DF8A878F3F49F40E94741598
:104900006A197B096D327140A8F38FE003C08E3FB6
:1049100029F08DE08D83CE01F8DE2AC018861F8233
:1049200081E08E838F8198858C159D0538F4F8DEA3
:104930008F819885019698878F83F4CF6701E00E69
:10494000F11ECE14DF0429F0EBDEF60181936F0136
:10495000F8CF8F819885080F191F18870F838985D5
:10496000882319F00115124038F0CE01F6DE04C09C
:10497000CE01CBDE80E001C081E0DF91CF911F91BD
:104980000F91FF90EF90DF90CF90BF90AF90089580
:10499000EF92FF920F931F93CF93DF93EC01790176
:1049A000411551056105710511F482E138C08B850F
:1049B000833039F089E0440F551F661F771F8A95B1
:1049C000D1F79A01AB0168E1CE01F7DE882311F03F
:1049D00084E025C08EEF0E94CE0B87018EEFF81A7F
:1049E000F80181918F010E94CE0B0E151F05C1F7B2
:1049F0008FEF0E94CE0B8FEF0E94CE0B91DE8A8745
:104A00008F71853029F081E18D83CE017EDE08C073
:104A100068E572E0CE0187DE811106C085E18D83F5
:104A2000CE0173DE80E010C020E030E0A9016DE02F
:104A3000CE01C3DE811103C073DE882311F084E14F
:104A4000EECFCE0162DE81E0DF91CF911F910F9119
:104A5000FF90EF900895FC01DB0112968D919C91DF
:104A600013979383828380E492E0918380831496EA
:104A70008C911497848315968C911597858316963F
:104A80004D915D916D917C91199746835783608715
:104A900071871A964D915D916D917C911D9742871A
:104AA0005387648775871E964D915D916D917C91BA
:104AB000519746875787608B718B52968C9152978E
:104AC000828B53964D915D916D917C915697438B5E
:104AD000548B658B768B57964D915D916D917C9142
:104AE0005A97478B508F618F728F5B968D919C91F7
:104AF0005C97948F838F0895CF93DF93EC01898D1A
:104B00009A8D009731F0ECDC898D9A8D53D61A8EF0
:104B1000198EDF91CF910895DC015996ED91FC91AA
:104B20005A97309729F06285738584859585089515
:104B30006FEF7FEFCB010895CF92DF92EF92FF925C
:104B40000F931F93CF93DF93FC01C18DD28D2097DC
:104B5000C1F0E2DF0B891C892D893E89680179014A
:104B6000C61AD70AE80AF90AD701C601C11420E813
:104B7000D206E104F10438F08FEF9FE7A0E0B0E047
:104B800002C080E090E0DF91CF911F910F91FF90E4
:104B9000EF90DF90CF900895FC01818D928D00976A
:104BA00029F00E940A1A91E0811101C090E0892F3A
:104BB0000895EF92FF920F931F93CF93DF93EC0131
:104BC0007B018A011B821A8288EE93E0A0E0B0E0AC
:104BD0008C839D83AE83BF838CE192E0998388832D
:104BE0008DE190E052D59A8F898F009779F02DE171
:104BF000F701DC0101900D922A95E1F74CE050E0BD
:104C0000B801CE010C960E94332E188EDF91CF9101
:104C10001F910F91FF90EF900895CF92DF92EF9246
:104C2000FF920F931F93CF93DF936C017A018B0157
:104C3000C0E0D0E0CE15DF0589F0D8016D918D017F
:104C4000D601ED91FC910190F081E02DC6011995FE
:104C5000892B11F47E0102C02196ECCFC701DF91B0
:104C6000CF911F910F91FF90EF90DF90CF9008951B
:104C7000FC01118210821382128215821482611546
:104C8000710549F0FB0101900020E9F73197AF0170
:104C9000461B570B7ACA08954F925F926F927F928C
:104CA000EF92FF920F931F93CF93DF93CDB7DEB7B1
:104CB000A1970FB6F894DEBF0FBECDBF7C01FA01FD
:104CC000CB0119A2223008F42AE08E010F5D1F4F9C
:104CD000422E512C612C712CBF01A301920170D680
:104CE000F901CA01015011096A3014F4605D01C074
:104CF000695CD8016C93232B242B252B69F7B80111
:104D0000C7010E94540DA1960FB6F894DEBF0FBEE6
:104D1000CDBFDF91CF911F910F91FF90EF907F90CA
:104D20006F905F904F9008958AEC96E062CACF939F
:104D3000DF93CDB7DEB7A4970FB6F894DEBF0FBEF2
:104D4000CDBF789484B5826084BD84B5816084BD14
:104D500085B5826085BD85B5816085BD80916E0019
:104D6000816080936E00109281008091810082604A
:104D70008093810080918100816080938100809187
:104D800080008160809380008091B1008460809376
:104D9000B1008091B00081608093B000809191005B
:104DA0008260809391008091910081608093910056
:104DB000809190008160809390008091A10082603A
:104DC0008093A1008091A10081608093A1008091D7
:104DD000A00081608093A000809121018260809377
:104DE0002101809121018160809321018091200126
:104DF00081608093200180917A00846080937A00A2
:104E000080917A00826080937A0080917A0081603C
:104E100080937A0080917A00806880937A00109263
:104E2000C1001092690610926A0610926B061092E9
:104E30006C061092270610922806109229061092EE
:104E40002A060E9474156B017C014B015C0128EB62
:104E5000820E2BE0921EA11CB11C0E9474156C15D1
:104E60007D058E059F0528F086169706A806B906CB
:104E7000A0F788E895E090936806809367060E9403
:104E8000B51C0E94741560932706709328068093C2
:104E9000290690932A0667E972E08091670690914F
:104EA00068060E94540D0E9474156B017C014B0131
:104EB0005C018AE0880E911CA11CB11C0E94741533
:104EC0006C157D058E059F0528F086169706A806A9
:104ED000B906A0F781E080933B0610921D05109261
:104EE0001C05109266051092870510926405809348
:104EF000630510923E0561E084E10E94BF1461E009
:104F000085E10E94BF148091B9008E7F8093B90023
:104F10008091B9008D7F8093B90088E48093B800B8
:104F200085E48093BC000E94B51C8DEE9CE00E943D
:104F30004D1E86ED9CE00E944D1E87E00E94961C4F
:104F400081EC9CE00E942C1E10927A06109278064A
:104F5000109275061092740684E0809373060E9486
:104F600074158B01809173060E94961C61E08091FC
:104F700073060E94BF140E94650982E580936D0646
:104F800010926E0680916D0690916E06FEDB5AE0DF
:104F9000F52E8FEF0E94CE0BFA94F110FACF8FE628
:104FA00096E0F6DB20E030E0A90160E08FE696E0D5
:104FB00004DCF82E8093790681E0F81649F00E940F
:104FC0007415601B710B613D774060F381E051C047
:104FD0002AEA31E040E050E068E08FE696E0EDDB61
:104FE00082FF03C0F0927A060FC044E0F42E98DBF3
:104FF00080937906FA94F110FACF8A3A11F082E0A0
:1050000038C082E080937A0680917A06823021F05F
:10501000C12CD12C760105C0C12CD12CE12C30E45F
:10502000F32E20E030E0A90167E38FE696E0C5DBD0
:10503000A701960169E28FE696E0BFDB80937906CF
:10504000882349F00E947415601B710B613D774005
:1050500040F388E00EC080917A068230D1F420E0DF
:1050600030E0A9016AE38FE696E0A7DB882339F0F8
:1050700086E0809374068FE696E047DB9BC050DBAA
:10508000807C803C19F483E080937A0649DB48DB1E
:1050900047DB8FE696E039DB80E580936D06109262
:1050A0006E0681E00E94101F882329F080919E06E1
:1050B000882341F07FC080E00E94101F882309F4FC
:1050C00079C0F4CF80919206803109F582E0809317
:1050D0009E061092B0061092B1061092B20610927F
:1050E000B3068091930690919406A0E0B0E025E08D
:1050F000880F991FAA1FBB1F2A95D1F78093AC0672
:105100009093AD06A093AE06B093AF061EC080325A
:1051100009F050C083E080939E064091950650911F
:10512000960660919706709198064093B00650934A
:10513000B1066093B2067093B3062CEA36E08BE7B3
:1051400096E00E94B3178823A9F18BE796E090932D
:10515000B5068093B40681E080939D0610929F0669
:105160001092A0061092A1061092A2061092A30619
:105170001092A4061092A5061092A6061092A706F9
:105180001092A8061092A9061092AA061092AB06D9
:105190008DE89CE00E944D1E6091CA067091CB067E
:1051A00041E0CE0101960E94DD1CEA8DFB8D309717
:1051B00031F455C088EA9CE00E944D1EDDC0858117
:1051C000882309F44CC0CE010196B6DC892B09F482
:1051D00042C068EA72E0CE014C964ADDCE010196EB
:1051E0000E94E51E97FD1DC08A309105D1F08AA36B
:1051F0001BA208A119A10F5F1F4FB801CE014C9649
:105200000E948C20882351F32C8D3D8D88A199A17B
:10521000BE016E5D7F4F820F931F1ED519A308A399
:10522000DDCF8FE79CE00E944D1ECE014C960E9480
:10523000CE1E8C8D9D8D009711F054D303C060E07D
:1052400070E0CB017093050260930402CE014C968E
:105250000E94F920B8CFCE0101964EDC04C080E652
:105260009CE00E944D1E0E94650945E550E060E803
:1052700070E084EC96E00E94E31560E070E084EC5E
:1052800096E00E94CA15853559F083E49CE00E949F
:105290004D1E68EE73E080E090E00E943C15E5CF83
:1052A00089E29CE00E944D1E61E070E08FEF90E08B
:1052B0000E94DC1DBE016E5D7F4F8AE00E945C1E75
:1052C000BE01645E7F4F8BE00E945C1E8AA1863225
:1052D00059F087E09CE00E944D1E68EE73E080E08C
:1052E00090E00E943C15E0CF8EEE9BE00E944D1EA8
:1052F00081E08093C7068091C8068530A9F561E0FA
:1053000070E08FEF90E00E94DC1D60E870E082E1C9
:1053100090E00E94DC1D64E670E080E090E00E9476
:105320003C158091C7068130D9F48AE495E00E944B
:10533000051E82E295E00E94051E8EEF94E00E9419
:10534000051E61E070E08FEF90E00E94DC1D60E0E0
:1053500070E085E190E00E94DC1D8EE49BE002C0DD
:1053600086E498E00E94051E8EE49BE00E94051EE4
:1053700084EC96E00E94441688E895E00E94291388
:10538000892B89F088E895E00E940713682F85E350
:105390009DE06CA30E944D1E6CA188E895E00E94E0
:1053A0005F130E94590E80910A0390910B03813084
:1053B000910509F064C0809109038130B1F441E0A6
:1053C00050E064E870E084EC96E00E94E31584EC21
:1053D00096E00E94441642E050E064E870E084ECFD
:1053E00096E00E94E3151092090361E470E084ECFA
:1053F00096E00E94CA1583FF3DC08BE19DE00E94AC
:105400004D1E60E0CE014C960E94C90A88A199A168
:10541000892B41F1EC8DFD8D8081882319F11A8251
:1054200019821C821B821E821D82BE01645E7F4F18
:10543000CE0101960E94E42000E09E012F5F3F4FC5
:105440004091C4065091C5066091C6067091C7068A
:105450008091C8069091C9060E94D50BCE01019695
:105460000E94F92084EC96E00E944416CE014C96EE
:105470000E94F92010920B0310920A0375C0029744
:1054800009F072C061E0CE014C960E94C90A0E94E8
:1054900074156B017C010E947415DC01CB018C1921
:1054A0009D09AE09BF09803D9740A105B10508F0EF
:1054B00053C0809109038230D1F484E09DE00E94C2
:1054C0004D1E41E050E064E870E084EC96E00E94FC
:1054D000E31584EC96E00E94441642E050E064E854
:1054E00070E084EC96E00E94E3151092090361E4F9
:1054F00070E084EC96E00E94CA1583FFCCCF88A1AF
:1055000099A1892B41F2EC8DFD8D8081882319F2C0
:105510001A8219821C821B821E821D82BE01645E59
:105520007F4FCE0101960E94E42001E09E012F5F93
:105530003F4F4091C4065091C5066091C6067091D8
:10554000C7068091C8069091C9060E94D50BCE016E
:1055500001960E94F9209FCF10920B0310920A032C
:10556000CE014C960E94F9200E94C61305CFCF931E
:10557000DF93E8E8F5E01382128288EE93E0A0E082
:10558000B0E084839583A683B7832EE232E0318333
:10559000208325EC30E03587248724EC30E0378702
:1055A000268720EC30E0318B208B21EC30E0338BF0
:1055B000228B22EC30E0358B248B26EC30E0378BCD
:1055C000268B118E128E138E148EE5E2F6E0168273
:1055D0001782108611861286138614861586168603
:1055E0001786108A118A128A138A148A158AEDE6A0
:1055F000F6E020E520831182EFE6F6E015821682C0
:105600001186138642E050E060E070E044875587E1
:105610006687778713A215A614A620E432E033A785
:1056200022A717A6E8EBF6E0138212828483958303
:10563000A683B7838CE492E09183808369EA72E069
:105640008AEC96E015DBE2E2FEE0E491F0E0EE0F9A
:10565000FF1FEF5FF14F85919491C4ECD6E09983E1
:105660008883E2ECFDE0E491EA8387E00E94961CE7
:10567000E881F98190818A81892B808385E08C8300
:1056800080E68D83DF91CF910895CF93DF938230B1
:10569000910510F482E090E0E091D506F091D606F5
:1056A00020E030E0C0E0D0E0309711F1408151813E
:1056B00048175907C0F04817590761F48281938150
:1056C000209719F09B838A832BC09093D6068093F2
:1056D000D50626C02115310519F04217530718F4D5
:1056E0009A01BE01DF01EF010280F381E02DDCCFE2
:1056F0002115310509F1281B390B2430310590F4AF
:1057000012968D919C9113976115710521F0FB0103
:105710009383828304C09093D6068093D506FD01BF
:10572000329644C0FD01E20FF31F81939193225002
:1057300031092D933C933AC02091D3063091D40681
:10574000232B41F420910C0230910D023093D406AA
:105750002093D30620910A0230910B0221153105C6
:1057600041F42DB73EB740910E0250910F02241B19
:10577000350BE091D306F091D406E217F307A0F4BD
:105780002E1B3F0B2817390778F0AC014E5F5F4F97
:105790002417350748F04E0F5F1F5093D4064093EF
:1057A000D3068193919302C0E0E0F0E0CF01DF9156
:1057B000CF9108950F931F93CF93DF93009709F430
:1057C0008CC0FC013297138212820091D506109191
:1057D000D6060115110581F420813181820F931FB6
:1057E0002091D3063091D4062817390779F5F09324
:1057F000D406E093D30671C0D80140E050E0AE1764
:10580000BF0750F412962D913C911397AD012115CD
:10581000310509F1D901F3CF9D01DA0133832283E8
:1058200060817181860F971F8217930769F4EC01DD
:1058300028813981260F371F2E5F3F4F3183208308
:105840008A819B8193838283452B29F4F093D6062A
:10585000E093D50642C01396FC93EE931297ED01A8
:10586000499159919E01240F351FE217F30771F4F6
:1058700080819181840F951F029611969C938E933F
:105880008281938113969C938E931297E0E0F0E0CF
:10589000D80112968D919C911397009719F0F801F9
:1058A0008C01F6CF8D919C9198012E5F3F4F820F16
:1058B000931F2091D3063091D4062817390769F435
:1058C000309729F41092D6061092D50602C01382A2
:1058D00012821093D4060093D306DF91CF911F91CB
:1058E0000F9108951F93FC0199278827BC01E89424
:1058F00011911032E9F3193010F01E30C8F31B3249
:1059000049F01D3241F4689405C01CD0610F711D2F
:10591000811D911D119110531A30B8F33EF49095EA
:105920008095709561957F4F8F4F9F4F1F91089580
:10593000BB274A3031F4992322F4BDE2909581953A
:105940009F4F16C0592F482F372F262F660F771FCE
:10595000881F991F660F771F881F991F620F731F7B
:10596000841F951F660F771F881F991F0895BB27F7
:10597000FB015527AA27880F991FAA1FA41710F00B
:10598000A41B83955051B9F7A05DAA3308F0A95D17
:10599000A193009779F7B111B1931192CB0100C097
:1059A000DC01FC01672F71917723E1F7329704C086
:1059B0007C916D9370836291AE17BF07C8F3089511
:1059C000A1E21A2EAA1BBB1BFD010DC0AA1FBB1F03
:1059D000EE1FFF1FA217B307E407F50720F0A21B75
:1059E000B30BE40BF50B661F771F881F991F1A94E2
:1059F00069F760957095809590959B01AC01BD010C
:105A0000CF01089509D0A59F900DB49F900DA49F3C
:105A1000800D911D11240895A29FB001B39FC00174
:105A2000A39F700D811D1124911DB29F700D811DCA
:105A30001124911D0895EE0FFF1F881F8BBF079043
:105A4000F691E02D19946F927F928F929F92AF9270
:105A5000BF92CF92DF92EF92FF920F931F93CF935B
:105A6000DF93EC01009781F4CB01DF91CF911F917F
:105A70000F91FF90EF90DF90CF90BF90AF909F90ED
:105A80008F907F906F9001CEFC01E60FF71F9C0175
:105A900022503109E217F30708F4A8C0D9010D918B
:105AA0001C91119706171707A8F00530110508F487
:105AB0009BC0C80104978617970708F495C0025049
:105AC0001109061B170B019311936D937C93CF0162
:105AD00071DE8AC05B01A01AB10A4C01800E911ED2
