:100000000C9435000C945D000C945D000C945D0024
:100010000C945D000C945D000C945D000C945D00EC
:100020000C945D000C945D000C945D000C945D00DC
:100030000C945D000C945D000C945D000C945D00CC
:100040000C943B020C945D000C9409020C94E301A7
:100050000C945D000C945D000C945D000C945D00AC
:100060000C945D000C945D004B0411241FBECFEF77
:10007000D8E0DEBFCDBF11E0A0E0B1E0E2EEFCE0F1
:1000800002C005900D92AA32B107D9F721E0AAE289
:10009000B1E001C01D92A23DB207E1F710E0C5E357
:1000A000D0E004C02197FE010E946406C433D1074A
:1000B000C9F70E9485020C946F060C940000CF9241
:1000C000DF92EF92FF920F931F93CF93DF936C0118
:1000D0007A018B01C0E0D0E0CE15DF0589F0D801B0
:1000E0006D918D01D601ED91FC910190F081E02D93
:1000F000C6010995892B11F47E0102C02196ECCF2F
:10010000C701DF91CF911F910F91FF90EF90DF908A
:10011000CF900895089580E090E00895FC01538DFC
:10012000448D252F30E0842F90E0821B930B5417D1
:1001300010F0CF96089501970895FC01918D828D5E
:10014000981761F0828DDF01A80FB11D5D968C912B
:10015000928D9F5F9F73928F90E008958FEF9FEF36
:100160000895FC01918D828D981731F0828DE80FF2
:10017000F11D858D90E008958FEF9FEF0895FC01AC
:10018000918D228D892F90E0805C9F4F821B910979
:100190008F739927089585E391E00E94BF0021E0C5
:1001A000892B09F420E0822F0895FC01848DDF0162
:1001B000A80FB11DA35ABF4F2C91848D90E00196DA
:1001C0008F739927848FA689B7892C93A089B189C9
:1001D0008C9180648C93938D848D981306C00288D3
:1001E000F389E02D80818F7D80830895EF92FF92C7
:1001F0000F931F93CF93DF93EC0181E0888F9B8D4A
:100200008C8D981305C0E889F989808185FD24C00B
:10021000F62E0B8D10E00F5F1F4F0F731127E02E8E
:100220008C8DE8120CC00FB607FCFACFE889F9896B
:10023000808185FFF5CFCE010E94D500F1CF8B8D57
:10024000FE01E80FF11DE35AFF4FF0820B8FEA89A0
:10025000FB898081806207C0EE89FF896083E8891D
:10026000F98980818064808381E090E0DF91CF9183
:100270001F910F91FF90EF900895CF93DF93EC01C2
:10028000888D8823C9F0EA89FB89808185FD05C0B6
:10029000A889B9898C9186FD0FC00FB607FCF5CFF0
:1002A000808185FFF2CFA889B9898C9185FFEDCF38
:1002B000CE010E94D500E7CFDF91CF91089580E075
:1002C00090E0892B29F00E94CB0081110C94000052
:1002D00008953FB7F89480912B0190912C01A09143
:1002E0002D01B0912E0126B5A89B05C02F3F19F016
:1002F0000196A11DB11D3FBFBA2FA92F982F8827A6
:10030000820F911DA11DB11DBC01CD0142E0660F00
:10031000771F881F991F4A95D1F70895009769F0B4
:10032000FC0101900020E9F73197AF01481B590B00
:10033000BC0185E391E00C945F0080E090E00895BB
:100340008F929F92AF92BF920F931F93CF93DF93A1
:10035000CDB7DEB7A1970FB6F894DEBF0FBECDBF05
:1003600019A2423008F44AE08E010F5D1F4F842E1F
:10037000912CA12CB12CA50194010E944206E62FDC
:10038000B901CA0101501109EA3014F4E05D01C05D
:10039000E95CD801EC93232B242B252B61F7C801B2
:1003A0000E948E01A1960FB6F894DEBF0FBECDBF9E
:1003B000DF91CF911F910F91BF90AF909F908F9041
:1003C00008950E946A061F920F920FB60F92112491
:1003D0002F933F934F935F936F937F938F939F934D
:1003E000AF93BF93EF93FF9385E391E00E94D50015
:1003F000FF91EF91BF91AF919F918F917F916F91FD
:100400005F914F913F912F910F900FBE0F901F90D2
:1004100018951F920F920FB60F9211242F938F935E
:100420009F93EF93FF93E0914501F0914601808106
:10043000E0914B01F0914C0182FD12C090818091BE
:100440004E018F5F8F7320914F01821751F0E09121
:100450004E01F0E0EB5CFE4F958F80934E0101C0A2
:100460008081FF91EF919F918F912F910F900FBEFF
:100470000F901F9018951F920F920FB60F92112494
:100480002F933F938F939F93AF93BF9380912F01AF
:1004900090913001A0913101B091320130912A0147
:1004A00023E0230F2D3720F40196A11DB11D05C0B7
:1004B00026E8230F0296A11DB11D20932A018093E7
:1004C0002F0190933001A0933101B09332018091BC
:1004D0002B0190912C01A0912D01B0912E0101963C
:1004E000A11DB11D80932B0190932C01A0932D0190
:1004F000B0932E01BF91AF919F918F913F912F911A
:100500000F900FBE0F901F901895789484B582605D
:1005100084BD84B5816084BD85B5826085BD85B5A7
:10052000816085BD80916E00816080936E00109225
:1005300081008091810082608093810080918100A0
:100540008160809381008091800081608093800031
:100550008091B10084608093B1008091B00081608F
:100560008093B00080917A00846080937A008091BB
:100570007A00826080937A0080917A008160809313
:100580007A0080917A00806880937A001092C1008E
:10059000E0914501F091460182E08083E0914101C4
:1005A000F09142011082E0914301F09144018FECFF
:1005B000808310924D01E0914901F0914A0186E05B
:1005C0008083E0914701F0914801808180618083C0
:1005D000E0914701F0914801808188608083E0913B
:1005E0004701F0914801808180688083E091470154
:1005F000F091480180818F7D808315E48FB7F89456
:1006000040912F0150913001609131017091320180
:100610008FBFC0E0D4E0E12CF12C2FB7F89480918B
:100620002F0190913001A0913101B09132012FBF83
:10063000841B950BA60BB70BC297A105B10518F546
:1006400010937C0080917A00806480937A0080917E
:100650007A0086FDFCCF809178002091790090E0AF
:10066000922B9093340180933301811524E09207FB
:10067000A0F6E816F90628F08C179D0770F6EC0135
:10068000CCCF7C01CACFB7016C1B7D0B80E090E022
:100690000E94190520E030E040EA50E40E94D005B5
:1006A00020E030E040E85AE30E94D0054B015C01B5
:1006B0002B013C0182E191E00E948E01B70180E0B4
:1006C00090E04AE00E94A00185E191E00E948E0145
:1006D000BE0180E090E04AE00E94A00188E191E044
:1006E0000E948E01A5019401C501B4010E943D063E
:1006F000882319F08BE191E01AC075016401E89438
:10070000F7F82FEF3FEF4FE75FE7C701B6010E9411
:100710003D0681110FC02FEF3FEF4FE75FE7C701A5
:10072000B6010E94E50418162CF48FE191E00E94B6
:100730008E0184C02FEF3FEF4FE75FE4C501B401A6
:100740000E94CB0518161CF483E291E0F0CF2FEF46
:100750003FEF4FE75FECC501B4010E94E50487FD60
:10076000F3CF20E030E0A901C501B4010E94E50407
:1007700087FF11C0E0913501F09136010190F081C1
:10078000E02D6DE285E391E009952401350177FACA
:10079000709477F870942AE037ED43EA5BE3C30185
:1007A000B2010E9479044B015C010E94EA046B01D2
:1007B0007C010E9419059B01AC01C501B4010E9496
:1007C00078044B015C014AE0C701B6010E94A00118
:1007D000E0913501F09136010190F081E02D6EE25B
:1007E00085E391E0099520E030E040E251E4C50165
:1007F000B4010E94D0054B015C010E94EA046B0128
:10080000E12CF12C4AE0C701B6010E94A001C7010A
:10081000B6010E9419059B01AC01C501B4010E94FB
:10082000780420E030E040E251E40E94D0050E94CC
:10083000EA0480E090E04AE00E94A00187E291E0B3
:100840000E948E010E9469014B015C0184E6C82E62
:10085000D12CE12CF12C0E946901DC01CB0188191B
:100860009909AA09BB09883E9340A105B10558F032
:1008700081E0C81AD108E108F10828EE820E23E0D1
:10088000921EA11CB11CC114D104E104F10419F79A
:100890000E945F01B3CEE5E3F1E01382128288EE9D
:1008A00093E0A0E0B0E084839583A683B78384E0DF
:1008B00091E09183808385EC90E09587848784EC38
:1008C00090E09787868780EC90E0918B808B81EC1D
:1008D00090E0938B828B82EC90E0958B848B86ECFE
:1008E00090E0978B868B118E128E138E148E089546
:1008F0005058BB27AA270E9490040C9491050E948F
:10090000830538F00E948A0520F039F49F3F19F4DE
:1009100026F40C9480050EF4E095E7FB0C947A0520
:10092000E92F0E94A20558F3BA17620773078407DC
:10093000950720F079F4A6F50C94C4050EF4E09523
:100940000B2EBA2FA02D0B01B90190010C01CA0189
:10095000A0011124FF27591B99F0593F50F4503E34
:1009600068F11A16F040A22F232F342F4427585F26
:10097000F3CF469537952795A795F0405395C9F73E
:100980007EF41F16BA0B620B730B840BBAF09150F6
:10099000A1F0FF0FBB1F661F771F881FC2F70EC095
:1009A000BA0F621F731F841F48F487957795679568
:1009B000B795F7959E3F08F0B0CF9395880F08F054
:1009C0009927EE0F9795879508950E94560508F48C
:1009D00081E008950E94AA0588F09F5798F0B92FEA
:1009E0009927B751B0F0E1F0660F771F881F991F64
:1009F0001AF0BA95C9F714C0B13091F00E94C4053D
:100A0000B1E008950C94C405672F782F8827B85F4C
:100A100039F0B93FCCF3869577956795B395D9F7BB
:100A20003EF490958095709561957F4F8F4F9F4FC5
:100A30000895E89409C097FB3EF4909580957095D1
:100A400061957F4F8F4F9F4F9923A9F0F92F96E91A
:100A5000BB279395F695879577956795B795F1118F
:100A6000F8CFFAF4BB0F11F460FF1BC06F5F7F4F2C
:100A70008F4F9F4F16C0882311F096E911C077233E
:100A800021F09EE8872F762F05C0662371F096E847
:100A9000862F70E060E02AF09A95660F771F881F16
:100AA000DAF7880F9695879597F90895990F0008BA
:100AB000550FAA0BE0E8FEEF16161706E807F90730
:100AC000C0F012161306E407F50798F0621B730BCB
:100AD000840B950B39F40A2661F0232B242B252B4C
:100AE00021F408950A2609F4A140A6958FEF811DEF
:100AF000811D089597F99F6780E870E060E0089590
:100B00009FEF80EC089500240A9416161706180625
:100B10000906089500240A94121613061406050601
:100B20000895092E0394000C11F4882352F0BB0F92
:100B300040F4BF2B11F460FF04C06F5F7F4F8F4FF5
:100B40009F4F089557FD9058440F551F59F05F3F30
:100B500071F04795880F97FB991F61F09F3F79F0DF
:100B600087950895121613061406551FF2CF469561
:100B7000F1DF08C0161617061806991FF1CF8695E3
:100B80007105610508940895E894BB2766277727C7
:100B9000CB0197F908950E94560508F48FEF089548
:100BA0000E94E3050C9491050E94830538F00E9491
:100BB0008A0520F0952311F00C947A050C94800599
:100BC00011240C94C5050E94A20570F3959FC1F3F2
:100BD000950F50E0551F629FF001729FBB27F00DEB
:100BE000B11D639FAA27F00DB11DAA1F649F662740
:100BF000B00DA11D661F829F2227B00DA11D621F8F
:100C0000739FB00DA11D621F839FA00D611D221F48
:100C1000749F3327A00D611D231F849F600D211D2C
:100C2000822F762F6A2F11249F5750409AF0F1F0AF
:100C300088234AF0EE0FFF1FBB1F661F771F881F18
:100C400091505040A9F79E3F510580F00C947A05D1
:100C50000C94C5055F3FE4F3983ED4F386957795F1
:100C60006795B795F795E7959F5FC1F7FE2B880FBE
:100C7000911D9695879597F908950E945605880BC2
:100C8000990B0895A1E21A2EAA1BBB1BFD010DC0F2
:100C9000AA1FBB1FEE1FFF1FA217B307E407F5072C
:100CA00020F0A21BB30BE40BF50B661F771F881F08
:100CB000991F1A9469F760957095809590959B019E
:100CC000AC01BD01CF010895EE0FFF1F0590F49117
:100CD000E02D099481E090E0F8940C946F06F8946C
:020CE000FFCF44
:100CE20000000000F6005F008E003D01BF009D0085
:100CF200B1004D3A004C3A00563A006E616E0069FE
:0A0D02006E66006F7666000D0A00B1
:00000001FF
