:10000000F9C4000028C5000026C5000024C5000072
:1000100022C5000020C500001EC500001CC5000050
:100020001AC500000C94DA080C94DA080C94DA086B
:1000300012C5000010C500000EC500000CC5000070
:100040000AC5000008C5000006C5000004C5000080
:1000500002C5000000C50000FEC400000C94690841
:10006000FAC400009BC60000E3C60000F4C4000010
:10007000F2C40000F0C40000EEC40000ECC40000B4
:10008000EAC40000E8C40000E6C40000E4C40000C4
:10009000E2C40000E0C40000DEC400000C941309B8
:1000A000DAC40000D8C40000D6C40000D4C40000E4
:1000B000D2C40000D0C40000CEC40000CCC40000F4
:1000C000CAC40000C8C40000C6C40000C4C4000004
:1000D000C2C40000C0C4000038C600000C94361032
:1000E000BAC40000D707DA07C907CD07D10711083E
:1000F000DE07E207E807EC07F007F607FA07FE0756
:100100001108040808080C0800000A0B02090C0D6D
:100110000E080703040100000000000000000000BA
:1001200000000000000000000000000000000000CF
:10013000000000001211100000000000000000008C
:100140000000000000000000000000000000FF00B0
:1001500001001200400017001100180043001900B0
:1001600000001A004B00320009004F00CA00500086
:10017000A8005A0023006D0000003900120035006D
:10018000DA0022001A003700C30023000000340008
:10019000C00036001A00060088000700C0000D00ED
:1001A00087000E0041004C000000FF000000E0004E
:1001B0000400C0006400C1004B0086003500500000
:1001C00089005100C80052009600530000005400FE
:1001D000000055000000570000005A0050005B006E
:1001E0003C005C000000E0000000FF00FF00E000B9
:1001F0001400E1007700E5001F00D7000300DA00DB
:100200001000E0000000FF00010004000800FF00F3
:10021000FF00FF00000005000000DA001000D7001A
:100220000300DF000000330080003C004000E100DC
:10023000770000000000FF00FF00FF0000002C001E
:10024000FF002E00DF00FF0001003C003200110023
:10025000000009000200040028001300E50014005B
:1002600048002C000C00330078003A0033003B00BB
:10027000FB003E0000004300110016001000390092
:1002800092003500DA0022001A003700C300230074
:1002900000003400C00036001A0006008800070085
:1002A000C0000D0087000E0041004C000000480017
:1002B00000005B000000420003004A0081002100B2
:1002C00099002400400025003800260082005C00D0
:1002D00000006300000061007000620080007C008C
:1002E000050020008000280030006C0000006D0038
:1002F00080006E0000007000020071009400730026
:10030000C10012004000170011001800430019003E
:1003100000001A004B00320009003700C0004F00F7
:1003200060005000A8006D0000003D00380046004D
:100330003F004F0060000C003C00FF000000E500A3
:100340007F00F900C00041002400E00014007600A6
:10035000FF003300A00042002000430018004C00C2
:1003600000008700D50088003F00D7000300D900B7
:100370001000D3008200C8000800C90080007C0083
:1003800000007D0000007C0003007D0048007D002F
:1003900048007C0008007D0020007D0010007D00EA
:1003A0000E009000000091000E0091001A009100D4
:1003B000310091005A009100690091007500910090
:1003C0007E009100880091008F00910096009100BE
:1003D000A3009100AF009100C4009100D7009100EC
:1003E000E8009100200092000000930006009300B6
:1003F000E3009300050093000500930000009300C4
:10040000040093000000930000009300000093009C
:10041000000093000000930000009300000096008D
:10042000000097000800970019009700020097004D
:100430000C009700240097003000970028009700D8
:100440002600970002009700980097008000970010
:10045000000097000000C300ED00A4000000A80009
:100460000000C5001100C6005100BF008000C70099
:100470001000B6006600B800A500B7006400B9001F
:100480007C00B300AF00B4009700B500FF00B000DF
:10049000C500B1009400B2000F00C4005C00C000B1
:1004A0006400C1004B008C00000086003D0050003D
:1004B00000005100C8005200960053000000540094
:1004C0000000550000005A00C8005B0096005C0068
:1004D0000000D3000000C300ED007F000000DA0040
:1004E0000000E5001F00E1006700E0000000DD0003
:1004F0007F000500000012004000D3000400C0008F
:100500001600C10012008C00000086003D00500063
:10051000000051002C005200240053000000540041
:100520000000550000005A002C005B0024005C0015
:100530000000FF00FF00FF0000002C00FF002E0065
:10054000DF00FF0001003C00320011000000090044
:1005500002000400A8001300E500140048002C006D
:100560000C00330078003A0033003B00FB003E00F3
:100570000000430011001600100039000200350091
:10058000880022000A0037004000230000003400E9
:10059000A00006000200060088000700C0000D0051
:1005A000B7000E0001004C0000004A00810021004D
:1005B00099002400400025003800260082005C00DD
:1005C000000063000000460022000C003A005D00BD
:1005D00055005E007D005F007D00600055006100F9
:1005E0007000620080007C00050020008000280070
:1005F00030006C0000006D0080006E000000700094
:100600000200710094007300C1003D00340012002C
:1006100004005A0057004F00BB0050009C00FF0030
:100620000000E5007F00F900C00041002400E00068
:1006300014007600FF003300A000420020004300B9
:1006400018004C0000008700D00088003F00D70051
:100650000300D9001000D3008200C8000800C900C0
:1006600080007C0000007D0000007C0003007D0015
:1006700048007D0048007C0008007D0020007D00CF
:1006800010007D000E009000000091000E0091000F
:100690001A009100310091005A0091006900910008
:1006A000750091007E009100880091008F009100FC
:1006B00096009100A3009100AF009100C40091004A
:1006C000D7009100E8009100200092000000930004
:1006D00006009300E30093000300930003009300DF
:1006E00000009300020093000000930000009300BC
:1006F00000009300000093000000930000009300AE
:10070000000096000000970008009700190097006D
:10071000020097000C00970024009700300097001B
:100720002800970026009700020097009800970085
:1007300080009700000097000000A4000000A800BF
:100740000000C5001100C6005100BF008000C700B6
:100750001000B6006600B800A500B7006400B9003C
:100760007C00B300AF00B4009700B500FF00B000FC
:10077000C500B1009400B2000F00C4005C00A600E8
:100780000000A7002000A700D800A7001B00A700BA
:100790003100A7000000A7001800A7002000A70054
:1007A000D800A7001900A7003100A7000000A7008B
:1007B0001800A7002000A700D800A7001900A70074
:1007C0003100A7000000A70018007F000000E5002E
:1007D0001F00E1007700DD007F00C2000E00FF0077
:1007E0000000E0000400C000C800C10096008600C0
:1007F0003D005100900052002C00530000005400B6
:1008000000005500880057000000500092005A0078
:1008100050005B003C005C000000D3000400E000DE
:100820000000FF00000005000000DA000800D7000B
:100830000300E000000005000000FF00FF0041434E
:100840004B20434D44204F5632363430206465747B
:1008500065637465642E0041434B20434D4420433F
:10086000616E27742066696E64204F5632363430CC
:10087000206D6F64756C65210041434B20434D44EE
:100880002053504920696E74657266616365204F1C
:100890004B2E0041434B20434D4420535049206987
:1008A0006E74657266616365204572726F722100B5
:1008B000534420496E697469616C697A6174696F27
:1008C0006E20636F6D706C65746500534420496ED3
:1008D000697469616C697A6174696F6E20666169B7
:1008E0006C656400496E697469616C697A696E67E8
:1008F00020534420636172640041434B20434D44C4
:10090000204172647543414D20537461727421001B
:1009100053746172742053657269616C2061742034
:10092000393231363030005232004E410052000030
:10093000002100240027002A002D00300033000190
:10094000010000040107010A01010210202008082B
:100950001020401020408002010201080402010121
:10096000020408102040808040201008040201800A
:100970000402018040201008040201080402010161
:10098000020408102040800102040810204080006A
:10099000002200250028002B002E00310034000228
:1009A000010000050108010B010505050507050803
:1009B000080808020202020A0A08080404040401E2
:1009C0000101010101010103030303030303030404
:1009D0000707070C0C0C0C0C0C0C0C020202020694
:1009E000060606060606060B0B0B0B0B0B0B0B0085
:1009F00029174B1311241FBECFEFD1E2DEBFCDBFAD
:100A000000E00CBF12E0A0E0B2E0E4E8F5E300E0B3
:100A10000BBF02C007900D92AC34B107D9F728E0A4
:100A2000ACE4B2E001C01D92A030B207E1F714E0DF
:100A3000C9EFD4E000E006C021970109802FFE0134
:100A40000E94B119C83FD10780E00807A9F70E94AA
:100A500050130C94B11AD4CAFC01A089B1898C91AD
:100A6000A689B78982FD0FC09C91818D8F5F8F739E
:100A7000228D821749F0218DDF01A20FB11D5D96F5
:100A80009C93818F08958C910895FC01538D448D22
:100A9000252F30E0842F90E0821B930B541710F029
:100AA000CF96089501970895FC01918D828D981736
:100AB00061F0828DDF01A80FB11D5D968C91928D42
:100AC0009F5F9F73928F90E008958FEF9FEF08953F
:100AD000FC01918D828D981731F0828DE80FF11D08
:100AE000858D90E008958FEF9FEF0895FC01918D23
:100AF000228D892F90E0805C9F4F821B91098F731C
:100B0000992708958BEF96E0F1DF21E0892B09F416
:100B100020E0822F089580E090E0892B19F0F2DF29
:100B2000811121C080E090E0892B41F080E090E0CD
:100B3000892B21F00E940000811118C080E090E014
:100B4000892B41F080E090E0892B21F00E94000089
:100B500081110FC080E090E0892B81F00E942C1061
:100B600081110AC008950E940000DCCF0E9400009D
:100B7000E5CF0E940000EECF0C94000008953FB72F
:100B8000F8948091A2029091A302A091A402B09146
:100B9000A50226B5A89B05C02F3F19F00196A11DFF
:100BA000B11D3FBFBA2FA92F982F8827820F911D03
:100BB000A11DB11DBC01CD0142E0660F771F881F4A
:100BC000991F4A95D1F7089585ED8093BC008091D7
:100BD000BC0084FDFCCF10923A06089540916E024D
:100BE000262F30E0240F311D21323105DCF4209115
:100BF0003A062430C9F4FC0180E090E0861758F4EE
:100C000030916E022191DC01A45BBD4FA30FB11D99
:100C10002C930196F3CF80916E02680F60936E0261
:100C200080E0089581E0089582E008950895E091BC
:100C3000F3058091F205E81730F4F0E0EC50FA4F3C
:100C4000808190E008958FEF9FEF08959091F305D4
:100C50008091F205981750F4E92FF0E0EC50FA4F2C
:100C6000208130E09F5F9093F30502C02FEF3FEFAC
:100C7000C90108958091F20590E02091F305821B4F
:100C800091090895CF92DF92EF92FF920F931F93F5
:100C9000CF93DF937C01262F972F8A0180913B060B
:100CA000882391F0C62FD72F6E01C40ED51ECC1508
:100CB000DD0569F06991D701ED91FC910190F0811A
:100CC000E02DC7011995F3CF642F822F87DFC8016C
:100CD000DF91CF911F910F91FF90EF90DF90CF9018
:100CE0000895CF93DF931F92CDB7DEB7698320912C
:100CF0003B062223D1F020915D06203240F021E016
:100D000030E0FC013383228380E090E014C08091C6
:100D10003C06E82FF0E0E35CF94F998190838F5F08
:100D200080933C0680935D0604C061E0CE0101968D
:100D300055DF81E090E00F90DF91CF910895089505
:100D400080E090E008950E949D1A1F920F920FB6C6
:100D50000F9211240BB60F922F933F934F935F93F3
:100D60006F937F938F939F93AF93BF93EF93FF9373
:100D70008EE596E071DEFF91EF91BF91AF919F916B
:100D80008F917F916F915F914F913F912F910F9034
:100D90000BBE0F900FBE0F901F9018951F920F92D1
:100DA0000FB60F9211240BB60F922F933F934F93D0
:100DB0005F936F937F938F939F93AF93BF93EF93C3
:100DC000FF938BEF96E048DEFF91EF91BF91AF91DB
:100DD0009F918F917F916F915F914F913F912F9153
:100DE0000F900BBE0F900FBE0F901F901895FC0137
:100DF000848DDF01A80FB11DA35ABF4F2C91848DA4
:100E000090E001968F739927848FA689B7892C93D8
:100E1000A089B1898C9180648C93938D848D981373
:100E200006C00288F389E02D80818F7D808308953C
:100E30001F920F920FB60F9211240BB60F922F93A1
:100E40003F934F935F936F937F938F939F93AF9352
:100E5000BF93EF93FF938BEF96E0C9DFFF91EF9184
:100E6000BF91AF919F918F917F916F915F914F91C2
:100E70003F912F910F900BBE0F900FBE0F901F90C0
:100E80001895EF92FF920F931F93CF93DF93EC018E
:100E900081E0888F9B8D8C8D981305C0E889F98936
:100EA000808185FD23C0F62E0B8D10E00F5F1F4F54
:100EB0000F731127E02E8C8DE8120BC00FB607FCC4
:100EC000FACFE889F989808185FFF5CFCE018FDFE0
:100ED000F2CF8B8DFE01E80FF11DE35AFF4FF08238
:100EE0000B8FEA89FB898081806207C0EE89FF89C8
:100EF0006083E889F98980818064808381E090E063
:100F0000DF91CF911F910F91FF90EF900895CF93B4
:100F1000DF93EC01888D8823C1F0EA89FB89808109
:100F200085FD05C0A889B9898C9186FD0EC00FB6D4
:100F300007FCF5CF808185FFF2CFA889B9898C9114
:100F400085FFEDCFCE0153DFE8CFDF91CF9108953C
:100F5000362F90E0FC01E85FFE4F4491FC01E75B17
:100F6000F64F2491FC01E755F64F9491992309F42B
:100F70006BC0442309F455C050E0FA013197E231C7
:100F8000F10508F04EC08827EE58FF4F8F4F0C94A4
:100F9000B119809180008F7707C0809180008F7D8C
:100FA00003C080918000877F809380003AC084B521
:100FB0008F7702C084B58F7D84BD33C08091B0002F
:100FC0008F7703C08091B0008F7D8093B00029C0DF
:100FD000809190008F7707C0809190008F7D03C033
:100FE00080919000877F809390001BC08091A0002B
:100FF0008F7707C08091A0008F7D03C08091A000F3
:10100000877F8093A0000DC0809120018F7707C05B
:10101000809120018F7D03C080912001877F809384
:101020002001E92FF0E0EE0FFF1FE157F64FA591E9
:10103000B4918FB7F894EC91311103C020952E2311
:1010400001C02E2B2C938FBF08958F929F92AF9249
:10105000BF92CF92DF92EF92FF926B017C018FDD06
:101060004B015C01C114D104E104F104E9F087DD16
:10107000DC01CB0188199909AA09BB09883E934074
:10108000A105B10578F321E0C21AD108E108F10801
:1010900088EE880E83E0981EA11CB11CC114D104F7
:1010A000E104F10421F7DECFFF90EF90DF90CF90C5
:1010B000BF90AF909F908F9008952FB7F894609154
:1010C0009E0270919F028091A0029091A1022FBF79
:1010D00008951F920F920FB60F9211242F933F93F2
:1010E0008F939F93AF93BF9380919E0290919F02A5
:1010F000A091A002B091A10230919D0223E0230FA4
:101100002D3720F40196A11DB11D05C026E8230F3F
:101110000296A11DB11D20939D0280939E02909383
:101120009F02A093A002B093A1028091A20290918D
:10113000A302A091A402B091A5020196A11DB11D28
:101140008093A2029093A302A093A402B093A5025D
:10115000BF91AF919F918F913F912F910F900FBEB3
:101160000F901F9018958FB7F894809197028FBFBA
:10117000089561E0FC018481EBDE8091960281118B
:101180001092960208958CBD9DBD0895CF93DF9374
:10119000EC0180919602811108C081E08093960253
:1011A0008091980790919907EEDF60E08C81DF9144
:1011B000CF91CECE1F920F920FB60F9211240F90A7
:1011C0000FBE0F901F901895CF93CFB7F8948091D2
:1011D0009302811120C0EEEDF9E08491EEE7F9E091
:1011E0009491E82FF0E0EE0FFF1FE15DF64FA5911F
:1011F000B491EC91E92319F461E085E3A9DE85E37C
:10120000BCD78CB580618CBD8CB580648CBD84E30B
:10121000B4D783E3B2D7809193028F5F8093930218
:10122000CFBFCF9108951F920F920FB60F92112446
:101230000BB60F922F933F934F935F936F937F93D0
:101240008F939F93AF93BF93EF93FF938091B900D8
:10125000887F803609F49CC068F5883209F45BC049
:1012600090F4803109F454C038F4882309F4F6C0AE
:10127000883009F44DC0F5C0883109F44CC0803283
:1012800009F45DC0EEC0803409F468C048F48033CE
:1012900009F455C0883309F0E4C080933806D8C0FB
:1012A000803509F44FC0883509F45DC0883409F0F1
:1012B000D8C0D6C0883909F4C7C0A8F4883709F463
:1012C00067C038F4883609F463C0803709F460C019
:1012D000C8C0883809F4B8C0803909F45FC08038C4
:1012E00009F0BFC05BC0803B09F486C038F4803A87
:1012F00009F466C0883A09F47FC0B3C0803C09F4A1
:10130000A7C0883C09F4A4C0883B09F48AC0A9C0DE
:101310008091150610C09091370680913606981777
:1013200070F5E091370681E08E0F80933706F0E08C
:10133000EA5EF94F80818093BB0085EC86C0809384
:1013400038068EC0E091370681E08E0F8093370615
:101350008091BB00F0E0EA5EF94F80839091370600
:10136000809136066EC0E091370681E08E0F809343
:1013700037068091BB00F0E0EA5EF94F80838091F0
:10138000390681116DC081E08093140684EA61C042
:1013900083E080933A0610929202CFCF809192021E
:1013A000803208F051C0E091920281E08E0F80936C
:1013B00092028091BB00F0E0EE58FD4F8083BDCFDC
:1013C00085EC8093BC0010923A06809192028032A4
:1013D00030F4E0919202F0E0EE58FD4F10826091FF
:1013E000920270E0E0917002F091710282E792E067
:1013F00019951092920235C084E080933A061092BB
:101400006F0210926E02E0916C02F0916D021995DC
:1014100080916E02811105C081E080936E0210926E
:101420004C02E0916F0281E08E0F80936F02F0E03A
:10143000E45BFD4F80818093BB0090916F028091AF
:101440006E02981708F479CF85E88093BC0009C034
:1014500085EC8093BC0010923A0603C010923806C7
:10146000B3DBFF91EF91BF91AF919F918F917F91EE
:101470006F915F914F913F912F910F900BBE0F9005
:101480000FBE0F901F9018958EBD00000DB407FE83
:10149000FDCF8EB508958FEFF7CF0F931F93CF93A6
:1014A000DF93EB010ADE8B01F6DF8F3F41F005DEB3
:1014B000601B710B6C177D07B8F380E001C081E001
:1014C000DF91CF911F910F910895CF93DF93EC019E
:1014D0008E81882379F08F8198859C012F5F3F4F03
:1014E00038872F838230924010F4D5DFF4CFCE01BD
:1014F00040DE1E82DF91CF910895CF92DF92FF925E
:101500000F931F93CF93DF9300D01F92CDB7DEB719
:101510006C01F62E29833A834B835C83D6DFC601A8
:1015200035DE6CE271E0C601B8DF8F2D8064ACDF80
:1015300008E110E05C814B813A812981DA01C9011F
:10154000002E04C0B695A795979587950A94D2F773
:1015500029833A834B835C8397DF085011092981E3
:101560003A814B815C81083F8FEF180739F7FF20E4
:1015700029F0E8E0FE1204C087E803C085E901C055
:101580008FEF82DF10E087DFF601828787FF04C0DC
:101590001F3F11F01F5FF7CF0F900F900F900F902C
:1015A000DF91CF911F910F91FF90DF90CF90089521
:1015B000EF92FF920F931F93CF93DF93EC0179018A
:1015C000411551056105710511F482E134C08B8527
:1015D000833039F089E0440F551F661F771F8A95C5
:1015E000D1F79A01AB0168E1CE0187DF882311F0C2
:1015F00084E021C08EEF48DF87018EEFF81AF801F2
:1016000081918F0141DF0E151F05C9F78FEF3CDF78
:101610008FEF3ADF40DF8A878F71853029F081E1D3
:101620008D83CE01A6DD08C068E572E0CE0135DF0E
:10163000811106C085E18D83CE019BDD80E010C065
:1016400020E030E0A9016DE0CE0157DF811103C039
:1016500022DF882311F084E1EECFCE018ADD81E024
:10166000DF91CF911F910F91FF90EF90089580919E
:101670009802882399F140910002509101026091F3
:1016800002027091030220EF33E08091F005909107
:10169000F1058EDF811102C080E00895409199022A
:1016A00050919A0260919B0270919C0241155105E4
:1016B0006105710589F020EF33E08091F00590918C
:1016C000F10576DF882341F31092990210929A0275
:1016D00010929B0210929C021092980281E0089551
:1016E000BF92CF92DF92EF92FF920F931F93CF930F
:1016F000DF936B017C01B42E809100029091010276
:10170000A0910202B09103028C159D05AE05BF05A4
:1017100009F46DC0ACDF882309F470C0C091F005F6
:10172000D091F1058E81882369F088819981AA8101
:10173000BB81C816D906EA06FB0621F48F8198857D
:10174000892B89F1C882D982EA82FB828B85A70125
:101750009601833039F089E0220F331F441F551F53
:101760008A95D1F761E1CE01C8DE882319F083E0C4
:101770008D8331C0A2DC8B018EDE8A878F3F41F4DE
:101780009CDC601B710B6D327140B0F38FE003C0C5
:101790008E3F29F08DE08D83CE01EBDC1CC01886D6
:1017A0001F8281E08E8300EF13E075DEF8018193E4
:1017B0008F01F5E0003F1F07C1F78F8198859E5F7D
:1017C00098878F832985222319F08115924038F05C
:1017D000CE017BDE04C0CE01CCDC80E00FC0C09225
:1017E0000002D0920102E0920202F0920302809184
:1017F0009802482F4B294093980281E0DF91CF91C6
:101800001F910F91FF90EF90DF90CF90BF900895C0
:101810004F925F926F927F928F929F92AF92BF9200
:10182000CF92DF92EF92FF920F931F93CF93DF93AC
:10183000EC016A017B012801390142305105610543
:10184000710510F480E072C089859A85AB85BC85EE
:101850000196A11DB11D84179507A607B70790F340
:101860008B889C88AD88BE888F89803129F4BB27FE
:10187000AF2D9E2D8D2D09C0DB01CA0147E0B69525
:10188000A795979587954A95D1F7880E991EAA1E18
:10189000BB1E8091000290910102A0910202B091C2
:1018A000030288169906AA06BB0679F48F8980314F
:1018B00099F4DD24EE24FF24C601880F991FFC0152
:1018C000E051FC4F5182408218C040E0C501B40194
:1018D00007DF8111EBCFB6CFE894C7F8DD24EE2403
:1018E000FF24C601880F991F880F991FFC01E05142
:1018F000FC4F4082518262827382809198028160A3
:10190000809398028A89823080F08D819E81AF8198
:10191000B885880E991EAA1EBB1E809299029092CD
:101920009A02A0929B02B0929C0281E0DF91CF913B
:101930001F910F91FF90EF90DF90CF90BF90AF90ED
:101940009F908F907F906F905F904F9008958F92AF
:101950009F92AF92BF92CF92DF92EF92FF920F933E
:101960001F93CF93DF93FC0181859285A385B48576
:101970000196A11DB11D84179507A607B70710F49E
:1019800080E05BC083899489A589B689C789C03105
:1019900029F4852E962EA72EBB2409C04A015B018F
:1019A000C7E0B694A79497948794CA95D1F7E901B4
:1019B0006A017B018F01BC01CD01680D791D8A1D73
:1019C0009B1D8090000290900102A0900202B090B6
:1019D0000302681579058A059B0599F4F801878942
:1019E0008031A1F4B701A601552766277727440F58
:1019F000551FFA01E051FC4F80819181A0E0B0E0D9
:101A000017C040E06DDE8111E9CFBACFB701A60162
:101A10004F77552766277727440F551F440F551FCB
:101A2000FA01E051FC4F80819181A281B381BF70A6
:101A300088839983AA83BB8381E0DF91CF911F9133
:101A40000F91FF90EF90DF90CF90BF90AF909F905D
:101A50008F9008953F924F925F926F927F928F92F4
:101A60009F92AF92BF92CF92DF92EF92FF920F932D
:101A70001F93CF93DF93CDB7DEB72C970FB6F894B3
:101A8000DEBF0FBECDBF5C01DC015B968D909C90EC
:101A90005C971696CD90DD90ED90FC901997C1144F
:101AA000D104E104F10439F0BFEFCB1ADB0AEB0AF1
:101AB000FB0A312C07C0F401C080D180E280F380A2
:101AC00033243394F40181859285A385B4859C01E8
:101AD000AD012F5F3F4F4F4F5F4F29873A874B87AD
:101AE0005C87260137011D821E821F821886F40141
:101AF00081859285A385B4852D813E814F8158854E
:101B0000281739074A075B0708F060C089859A855E
:101B1000AB85BC858C159D05AE05BF0550F482E0F4
:101B2000C82ED12CE12CF12C92E0492E512C612CA5
:101B3000712C9E012F5F3F4FB701A601C40107DF43
:101B4000882309F443C089819A81AB81BC81892BA8
:101B50008A2B8B2B41F0260137019FEF491A590A36
:101B6000690A790A05C0C414D504E604F70491F0A3
:101B70002D813E814F8158852F5F3F4F4F4F5F4FE3
:101B80002D833E834F8358873FEFC31AD30AE30A5E
:101B9000F30AADCF0FEF1FEF2FEF3FE0B301A2012C
:101BA000C40136DE882391F0D50116964D915D91E2
:101BB0006D917C911997411551056105710541F0B1
:101BC00093018201C40124DE811102C080E02AC099
:101BD000D50116964D925D926D927C9219973320A5
:101BE00051F0D301C2010196A11DB11DF401808302
:101BF0009183A283B383F5018789908DA18DB28DE6
:101C0000892B8A2B8B2B69F4D50157964D925D92C7
:101C10006D927C925A9714968C91149780681496C2
:101C20008C9381E02C960FB6F894DEBF0FBECDBF2B
:101C3000DF91CF911F910F91FF90EF90DF90CF90A8
:101C4000BF90AF909F908F907F906F905F904F90DC
:101C50003F9008954F925F926F927F928F929F92E2
:101C6000AF92BF92EF92FF920F931F93CF93DF93A8
:101C700000D01F921F92CDB7DEB78C016D83DC01BF
:101C800015968C911597813009F056C014968C9159
:101C900081FF52C059C0038CF48DE02D258530E0C2
:101CA000275F3F4F2A013B01B1E04B1A5108610801
:101CB0007108022E04C076946794579447940A944E
:101CC000D2F7D501C4010197A109B10904C0B695A5
:101CD000A795979587952A95D2F784159505A6051A
:101CE000B70508F06FC0F8014789508D618D728D7E
:101CF00046835783608771872C013D017801E6E0B8
:101D0000EE0EF11CD801411451046104710409F470
:101D100063C016964D915D916D917C9119979701D5
:101D20005B968D919C915C9712DEB1E04B1A510845
:101D3000610871088111E6CF81E090E0F80193839A
:101D4000828380E090E049C182FF0EC0F8014285A5
:101D500053856485758583889488A588B6884815D9
:101D600059056A057B05F1F4D8011A964D915D91EC
:101D70006D917C911D975B968D919C915C97FC0178
:101D800074807A944A015B0129E0B694A7949794F1
:101D900087942A95D1F778207A01F1E0FF22772005
:101DA00011F162C081149104A104B10409F073CF50
:101DB0001682178210861186F80112861386148601
:101DC0001586D2CF452B462B472B09F48CCF84198F
:101DD0009509A609B70990CF1A968D929D92AD925A
:101DE000BC921D97C1CFE114F10409F03DC0F80188
:101DF00046815781608571854115510561057105E1
:101E000049F48789908DA18DB28D0097A105B10508
:101E100031F520C09E012F5F3F4F99DD882309F4E3
:101E200090CF89819A81AB81BC81F801238D348D5B
:101E3000F9012789203129F048EF5FEF6FEF7FE04C
:101E400004C048EF5FEF60E070E084179507A607D5
:101E5000B70728F0C801FEDD811106C06DCFF8017B
:101E600086839783A087B187D8015B96ED91FC911B
:101E70005C9716968D909D90AD90BC901997B2E0AE
:101E80008B1A9108A108B108058404C0880C991C1C
:101E9000AA1CBB1C0A94D2F786859785A089B189B4
:101EA000880E991EAA1EBB1E870C911CA11CB11C7A
:101EB000E114F10401F5F8014285538564857585C7
:101EC00083899489A589B689481759076A077B07CA
:101ED00090F0CDDB882309F42FCF809200029092FE
:101EE0000102A0920202B0920302809198028160E6
:101EF0008093980207C041E0C501B401F1DB88235B
:101F000009F41ACFF701E051FC4F8D818083F8016D
:101F100082859385A485B5850196A11DB11D828713
:101F20009387A487B587438954896589768948173B
:101F300059076A077B0738F4838B948BA58BB68B84
:101F4000848180688483D80114968C9183FD03C0BA
:101F500081E090E042C0F8019581992309F4ECCE2C
:101F600087FF37C0668577858089918941E0B8DB36
:101F7000882309F4E1CED8015296EC91B0E2EB9FB0
:101F800090011124D901A051BC4F109709F4D4CE6F
:101F9000F8018581823050F44389548965897689B6
:101FA0005C964D935D936D937C935F97F801878961
:101FB000908DA18DB28DF901E051FC4F938F828FEE
:101FC000B58BA48BD80114968C9114978F771496A7
:101FD0008C934DDB8111BCCFAFCE0F900F900F9043
:101FE0000F900F90DF91CF911F910F91FF90EF9085
:101FF000BF90AF909F908F907F906F905F904F9029
:102000000895CF92DF92EF92FF920F931F93CF9399
:10201000DF936C017A018B01C0E0D0E0CE15DF05C3
:1020200089F0D8016D918D01D601ED91FC9101905F
:10203000F081E02DC6011995892B11F47E0102C0B3
:102040002196ECCFC701DF91CF911F910F91FF90A7
:10205000EF90DF90CF9008958EE596E00E94760590
:1020600021E0892B09F420E0822F08951F920F921E
:102070000FB60F9211240BB60F922F933F934F93ED
:102080005F936F937F938F939F93AF93BF93EF93E0
:10209000FF938EE596E00E94F706FF91EF91BF91C6
:1020A000AF919F918F917F916F915F914F913F91F0
:1020B0002F910F900BBE0F900FBE0F901F90189591
:1020C000382F20915D069091FB07213208F049C01E
:1020D00080913A068111FCCF42E040933A0630935A
:1020E00039063FEF309338061092370620933606B4
:1020F000ADE3B6E046E156E0FA013E2F341B32175D
:1021000018F43D913193F9CF1092150620911506E0
:10211000990F922B9093150690911406913061F4CB
:1021200010921406909115069093BB009091BC00FC
:1021300093FDF8CF95EC01C095EE9093BC00909183
:102140003A069230E1F3909138069F3F79F0809102
:102150003806803241F080913806803331F084E0D7
:1021600005C081E003C082E001C083E010923C061C
:1021700010925D0610923B06089590E0FC01E75B2B
:10218000F64F2491FC01E755F64F8491882399F08E
:1021900090E0880F991FFC01E15DF64FA591B49185
:1021A000FC01E157F64F859194918FB7F894EC912B
:1021B000E22BEC938FBF089542E050E068E472E0B8
:1021C0008BEF96E01ECF0F931F93CF93DF938C017D
:1021D000C0E0D0E0F801EC0FFD1F6491662371F0C0
:1021E000E091FB06F091FC060190F081E02D8BEF71
:1021F00096E01995892B11F02196ECCFCE01DF9155
:10220000CF911F910F910895CF93DF93DCDFEC0105
:10221000D3DF8C0F9D1FDF91CF910895CF93C62FF1
:102220002091F40730E03595279591E090933B0697
:102230002093FB0710923C0610925D06682F83EEF8
:1022400097E00E9471066C2F83EE97E00E94710662
:1022500081E036DF811108C061E070E080E090E04D
:102260000E94250881E001C080E0CF910895CF93BE
:10227000DF93EB012091F40730E03595279591E04D
:1022800090933B062093FB0710923C0610925D064C
:10229000682F83EE97E00E94710681E011DF809144
:1022A000F40790913A069111FCCF91E090933A0691
:1022B000909339062FEF209338061092370610922C
:1022C000360690931506909115068E7F892B809384
:1022D000150680911406813061F4109214068091E5
:1022E00015068093BB008091BC0083FDF8CF85EC80
:1022F00001C085EE8093BC0080913A068130E1F305
:1023000080913706811103C08091370601C081E0BA
:10231000A6E1B6E024EF35E0F9019E2F921B981755
:1023200018F49D919193F9CF1092F3058093F205E3
:10233000882329F083EE97E00E942606888361E0D7
:1023400070E080E090E00E94250881E0DF91CF916D
:102350000895EF92FF920F931F93CF93DF93EC01B9
:10236000E12CF12C00E010E08FEFE816F10461F0B1
:10237000FE0105911491FE013296E590F490B701AB
:10238000C8014CDF2496F0CF0F3F110589F781E09B
:1023900090E0DF91CF911F910F91FF90EF90089502
:1023A0008F929F92AF92BF92CF92DF92EF92FF9265
:1023B000CF93DF93C82F8AE997E09093F10580933C
:1023C000F005CC2361F1C53010F080E00AC140E097
:1023D00060E070E0CB0184D98823B9F320E1C29F8B
:1023E000C001112480529C4FFC01E254FE4F208119
:1023F0002F7759F73C964081518162817381443631
:1024000051056105710508F33497C080D180E280E1
:10241000F380C114D104E104F10421F4D6CFC12C1E
:10242000D12C760140E0C701B6015AD9882369F260
:102430008091FB039091FC038115924031F6A091AD
:102440000004AA2309F4C1CF6091FE037091FF0339
:102450006115710509F4B9CF2091FD03222309F418
:10246000B4CFA093B8072093AA0780E030E0E1E062
:10247000F0E0C82FAF01082E02C0440F551F0A9488
:10248000E2F72417350741F0982F8F5F983089F7CE
:1024900089E08093B30799CF8093B3072091060416
:1024A000309107042115310519F040E050E008C0D3
:1024B0002091140430911504409116045091170492
:1024C0002093AB073093AC074093AD075093AE0712
:1024D00046015701860E971EA11CB11C8092B907B8
:1024E0009092BA07A092BB07B092BC07E09101049A
:1024F000F0910204F093BF07E093BE07B0E0F6D678
:10250000860E971EA81EB91E8092C0079092C10722
:10251000A092C207B092C30785E0EE0FFF1F8A9515
:10252000E1F7E150FE4FEF2FFF27E6958E0E9F1E3D
:10253000A11CB11C8092B4079092B507A092B60777
:10254000B092B7072091030430910404211531059E
:1025500021F0A90160E070E008C0409110045091A2
:1025600011046091120470911304D701C6018819F7
:102570009909AA09BB09840F951FA61FB71F04C09C
:10258000B695A79597958795CA95D2F78093AF078B
:102590009093B007A093B107B093B207853F2FE0A7
:1025A0009207A105B10510F48CE018C0853F9F4F3C
:1025B000A105B10510F480E111C080911C04909137
:1025C0001D04A0911E04B0911F048093C007909336
:1025D000C107A093C207B093C30780E28093BD07F1
:1025E00081E0DF91CF91FF90EF90DF90CF90BF908F
:1025F000AF909F908F9008958F929F92AF92BF92CD
:102600000F931F93CF93DF93CDB7DEB7A1970FB68C
:10261000F894DEBF0FBECDBF19A2423008F44AE0E5
:102620008E010F5D1F4F842E912CA12CB12CA50182
:10263000940175D6E62FB901CA0101501109EA309B
:1026400014F4E05D01C0E95CD801EC93232B242B4A
:10265000252B69F70115110569F0F801019000209B
:10266000E9F73197AF01401B510BB8018BEF96E0B2
:10267000C8DC02C080E090E0A1960FB6F894DEBFFF
:102680000FBECDBFDF91CF911F910F91BF90AF9043
:102690009F908F9008958091F5079091F6078EC5D1
:1026A000CF93DF9300D000D0CDB7DEB7789484B558
:1026B000826084BD84B5816084BD85B5826085BD3E
:1026C00085B5816085BD80916E00816080936E00CC
:1026D00010928100809181008260809381008091BE
:1026E000810081608093810080918000816080936F
:1026F00080008091B10084608093B1008091B0002F
:1027000081608093B00080919100826080939100FD
:102710008091910081608093910080919000816010
:10272000809390008091A10082608093A1008091AD
:10273000A10081608093A1008091A00081608093BE
:10274000A00080912101826080932101809121016C
:10275000816080932101809120018160809320011C
:1027600080917A00846080937A0080917A00826000
:1027700080937A0080917A00816080937A008091C2
:102780007A00806880937A001092C100E0916E0612
:10279000F0916F0602E00083E0916A06F0916B060B
:1027A0001082E0916C06F0916D068FEC80831092A0
:1027B0007606E0917206F091730616E01083E091C0
:1027C0007006F0917106808180618083E0917006CF
:1027D000F0917106808188608083E0917006F091AD
:1027E0007106808180688083E0917006F0917106A7
:1027F00080818F7D80831092F3051092F2051092F4
:102800003C0610925D0610923A0681E080933906EC
:102810001092140661E084E10E94A80761E085E15E
:102820000E94A8078091B9008E7F8093B9008091A3
:10283000B9008D7F8093B90088E48093B80085E467
:102840008093BC00E0910B07F0910C070083E091AE
:102850000707F09108071082E0910907F0910A0735
:1028600080E1808310921307E0910F07F091100729
:102870001083E0910D07F0910E07808180618083C5
:10288000E0910D07F0910E07808188608083E091D0
:102890000D07F0910E07808180688083E0910D071D
:1028A000F0910E0780818F7D808380E199E0ACDC20
:1028B00089EF98E0A9DC87E060DC84EE98E083DCB7
:1028C0001092A5071092A3071092A00710929F07DD
:1028D00084E080939E070E945D087B0180919E07A3
:1028E0004CDC61E080919E070E94A8070E94E408EA
:1028F00082E58093980710929907809198079091AC
:1029000099070E94C3081AE08FEF0E94440A1150F1
:10291000D9F78AE997E00E94C60820E030E0A901D3
:1029200060E08AE997E00E947D0A182F8093A4074F
:10293000813049F00E945D086E197F09613D774042
:1029400060F381E054C02AEA31E040E050E068E002
:102950008AE997E00E947D0A82FF03C01093A507D1
:102960000EC014E00E944B0A8093A4071150D1F7C7
:102970008A3A11F082E03BC082E08093A507809103
:10298000A507823021F0812C912C540105C0812CA7
:10299000912CA12C70E4B72E20E030E0A90167E370
:1029A0008AE997E00E947D0AA501940169E28AE91B
:1029B00097E00E947D0A8093A407882349F00E9433
:1029C0005D086E197F09613D774030F388E00FC0E4
:1029D0008091A507823001F520E030E0A9016AE38B
:1029E0008AE997E00E947D0A882341F086E080937F
:1029F0009F078AE997E00E94B90827C20E944B0A04
:102A0000807C803C19F483E08093A5070E944B0AE8
:102A10000E944B0A0E944B0A8AE997E00E94B9087B
:102A200080E5809398071092990781E0B9DC8823AC
:102A300029F08091C907882339F007C280E0B0DC13
:102A4000882309F402C2F5CF8091BD07803109F5D2
:102A500082E08093C9071092DB071092DC07109286
:102A6000DD071092DE078091BE079091BF07A0E0BE
:102A7000B0E065E0880F991FAA1FBB1F6A95D1F7C8
:102A80008093D7079093D807A093D907B093DA071C
:102A90005DC0803209F0D9C183E08093C90780917D
:102AA000C0079091C107A091C207B091C30780935E
:102AB000DB079093DC07A093DD07B093DE078983E3
:102AC0009A83AB83BC83C12CD12C7601812C52E03C
:102AD000952EA12CB12C49815A816B817C819E015C
:102AE0002F5F3F4F86EA97E00E94A70C882309F4E6
:102AF000ACC1D501C4010090B30704C0880F991F71
:102B0000AA1FBB1F0A94D2F7C80ED91EEA1EFB1ECD
:102B100049815A816B817C818091BD07803129F088
:102B200088EF9FEFAFEFBFE004C088EF9FEFA0E01A
:102B3000B0E0481759076A077B0768F2C092D707C9
:102B4000D092D807E092D907F092DA0786EA97E0A8
:102B50009093E0078093DF0781E08093C80710928D
:102B6000CA071092CB071092CC071092CD07109293
:102B7000CE071092CF071092D0071092D107109273
:102B8000D2071092D3071092D4071092D507109253
:102B9000D60780EB98E038DB0E94E408E091EF076D
:102BA000F091F00790818091F107809589238083CF
:102BB00080E80E94440A85E50E94440AE091EF07FC
:102BC000F091F00790818091F107892B8083E0914B
:102BD000EF07F091F00790818091F10780958923AC
:102BE000808380E00E94440A80E00E94440AE091D1
:102BF000EF07F091F00720819091F107922B9083DD
:102C0000853551F083E998E0FFDA68EE73E080E003
:102C100090E00E942508C2CF89E798E0F5DA61E0EC
:102C200070E08FEF90E0FADABE016A5F7F4F8AE0D2
:102C30001EDBBE016B5F7F4F8BE019DB8E8186321E
:102C400051F087E598E0E0DA68EE73E080E090E02C
:102C50000E942508E4CF8EE398E0D6DA81E08093E5
:102C6000F2078091F307853069F561E070E08FEF3E
:102C700090E0D4DA60E870E082E190E0CFDA64E6D8
:102C800070E080E090E00E9425088091F20781309A
:102C9000B1F48AE392E05DDB82E192E05ADB8EEEF2
:102CA00091E057DB61E070E08FEF90E0B7DA60E031
:102CB00070E085E190E0B2DA8EE491E002C086E354
:102CC00095E047DB8EE491E044DBE091EF07F09183
:102CD000F00790818091F10780958923808384E8B3
:102CE0000E94440A81E00E94440AE091EF07F091BB
:102CF000F00790818091F107892B80831092A702C1
:102D00001092A6021092EF031092EE031092C102ED
:102D10001092C0028DE299E077DA8EE596E00E948B
:102D20007605892B09F485C08EE596E00E9454054E
:102D3000909305028093040287E299E065DAC090DF
:102D40000402D09005020D2C000CEE08FF08F7FEDF
:102D500014C0E091FB06F091FC060190F081E02D9B
:102D60006DE28BEF96E0199566277727CB016C19FA
:102D70007D098E099F094AE003C04AE0C701B601F8
:102D80003BDC1ADAE0900402F09005022FEFE21625
:102D9000F20609F451C0E091EE03F091EF03EE5317
:102DA000FD4FE082E091FB06F091FC060190F0817E
:102DB000E02D6E2D8BEF96E019958091EE039091AA
:102DC000EF0301969093EF038093EE038C3221E0A2
:102DD000920731F12CE2E216F104A9F42091C0022D
:102DE0003091C1022F5F3F4F3093C1022093C00248
:102DF000F901EE0FFF1FEA55FD4F918380832D30BF
:102E0000310501F50DC02AE2E216F10429F4909390
:102E1000BF028093BE0216C08AE0E816F10491F466
:102E20001092EF031092EE031092C1021092C002B2
:102E300009C08AE299E0E8D964E670E080E090E0B9
:102E40000E9425080E948B0565CF8BEC98E0DCD9A9
:102E500061CF109261061092600688EE93E0A0E0C8
:102E6000B0E08093620690936306A0936406B093EB
:102E7000650620E132E030935F0620935E0645E36D
:102E800051E050936B0640936A0644E351E050933F
:102E90006D0640936C0640E351E050936F064093FB
:102EA0006E0641E351E0509371064093700642E391
:102EB00051E0509373064093720646E351E05093FD
:102EC0007506409374061092770610927806109259
:102ED000790610927A061092FE061092FD068093F3
:102EE000FF0690930007A0930107B0930207309369
:102EF000FC062093FB0625EC30E030930807209376
:102F0000070724EC30E030930A072093090720ECF0
:102F100030E030930C0720930B0721EC30E0309326
:102F20000E0720930D0722EC30E03093100720931A
:102F30000F0726EC30E03093120720931107109210
:102F4000140710921507109216071092170720E524
:102F5000209398071092990710929F071092A0074C
:102F60001092A3071092A50742E050E060E070E0E5
:102F70004093A6075093A7076093A8077093A907EB
:102F80001092BD071092C7071092C60722E232E0E6
:102F90003093C5072093C4071092C9071092E60723
:102FA0001092E5078093E7079093E807A093E9075D
:102FB000B093EA078EE292E09093E4078093E307F0
:102FC0001092F6071092F5071092F8071092F70783
:102FD0001092FA071092F9076CE070E080E090E040
:102FE000C8D10097A1F09093F6078093F5072BE0E6
:102FF00030E03093F8072093F7072091F9073091DC
:10300000FA07232B09F03BC0FC01108238C08091E5
:10301000F5079091F607009709F0D0D01092F607C7
:103020001092F5071092FA071092F9071092F8071C
:103030001092F707E0EBF9E0E491F0E0EE0FFF1FEC
:10304000E157F64F859194919093F0078093EF07A5
:10305000E0E5F9E0E491E093F10787E08ED8E091B4
:10306000EF07F091F00790818091F107892B808321
:1030700085E08093F30780E68093F40708952BE0C2
:1030800030E03093FA072093F9076CE372E062D2E4
:10309000D1CFCF93DF938230910510F482E090E09E
:1030A000E091FE07F091FF0720E030E0C0E0D0E0C3
:1030B000309711F14081518148175907C0F04817E6
:1030C000590761F482819381209719F09B838A8349
:1030D0002BC09093FF078093FE0726C02115310572
:1030E00019F04217530718F49A01BE01DF01EF01EE
:1030F0000280F381E02DDCCF2115310509F1281B79
:10310000390B2430310590F412968D919C911397D0
:103110006115710521F0FB019383828304C09093B4
:10312000FF078093FE07FD01329644C0FD01E20FC8
:10313000F31F81939193225031092D933C933AC010
:103140002091FC073091FD07232B41F420910802C8
:10315000309109023093FD072093FC07209106026D
:10316000309107022115310541F42DB73EB740914A
:103170000A0250910B02241B350BE091FC07F091E1
:10318000FD07E217F307A0F42E1B3F0B28173907A2
:1031900078F0AC014E5F5F4F2417350748F04E0FB3
:1031A0005F1F5093FD074093FC078193919302C0EA
:1031B000E0E0F0E0CF01DF91CF9108950F931F93EE
:1031C000CF93DF93009709F48CC0FC0132971382F0
:1031D00012820091FE071091FF070115110581F47D
:1031E00020813181820F931F2091FC073091FD07D0
:1031F0002817390779F5F093FD07E093FC0771C0B4
:10320000D80140E050E0AE17BF0750F412962D9160
:103210003C911397AD012115310509F1D901F3CF87
:103220009D01DA013383228360817181860F971FAC
:103230008217930769F4EC0128813981260F371F23
:103240002E5F3F4F318320838A819B8193838283CA
:10325000452B29F4F093FF07E093FE0742C0139635
:10326000FC93EE931297ED01499159919E01240F21
:10327000351FE217F30771F480819181840F951F48
:10328000029611969C938E938281938113969C93C0
:103290008E931297E0E0F0E0D80112968D919C9108
:1032A0001397009719F0F8018C01F6CF8D919C913E
:1032B00098012E5F3F4F820F931F2091FC073091A2
:1032C000FD072817390769F4309729F41092FF0792
:1032D0001092FE0702C0138212821093FD07009322
:1032E000FC07DF91CF911F910F91089509D0A59F01
:1032F000900DB49F900DA49F800D911D11240895F1
:10330000A29FB001B39FC001A39F700D811D112426
:10331000911DB29F700D811D1124911D0895A1E290
:103320001A2EAA1BBB1BFD010DC0AA1FBB1FEE1F3F
:10333000FF1FA217B307E407F50720F0A21BB30B8A
:10334000E40BF50B661F771F881F991F1A9469F706
:1033500060957095809590959B01AC01BD01CF0162
:103360000895EE0FFF1F881F8BBF0790F691E02D89
:1033700019946F927F928F929F92AF92BF92CF9249
:10338000DF92EF92FF920F931F93CF93DF93EC01A5
:10339000009781F4CB01DF91CF911F910F91FF90A6
:1033A000EF90DF90CF90BF90AF909F908F907F90E5
:1033B0006F906FCEFC01E60FF71F9C012250310980
:1033C000E217F30708F4A8C0D9010D911C911197D9
:1033D00006171707A8F00530110508F49BC0C801AF
:1033E00004978617970708F495C002501109061B29
:1033F000170B019311936D937C93CF01DFDE8AC08D
:103400005B01A01AB10A4C01800E911EA091FE072B
:10341000B091FF0740E050E0E12CF12C109709F447
:103420004AC0A815B905D1F56D907C90119763013C
:1034300082E0C80ED11CCA14DB0480F1A3014A1932
:103440005B096A0182E0C80ED11C1296BC901297EB
:103450001396AC91B5E0CB16D10440F0B282A383B1
:1034600051834083D9016D937C930AC00E5F1F4F37
:10347000C301800F911FF90191838083EB2DFA2FF7
:10348000E114F10431F0D7011396FC93EE931297F7
:1034900041C0F093FF07E093FE073CC08D919C91E3
:1034A00011974817590708F4AC017D0112960D9049
:1034B000BC91A02DB3CF8091FC079091FD0788159A
:1034C0009905E1F446175707C8F4809106029091D8
:1034D0000702009741F48DB79EB740910A025091C0
:1034E0000B02841B950BE817F907B0F4F093FD0766
:1034F000E093FC07F901718360830CC0CB01C9DD47
:103500007C01009749F0A801BE011BD0CE0156DE18
:10351000C70104C0CE0102C080E090E0DF91CF91EE
:103520001F910F91FF90EF90DF90CF90BF90AF90E1
:103530009F908F907F906F90089581E090E0F89435
:1035400010C0FB01DC0102C001900D9241505040BF
:10355000D8F70895FB01DC0101900D920020E1F7FE
:10356000089514E0C9EFD4E000E005C0802FFE010B
:10357000F8DE2196011DCA3FD10780E00807B1F7A8
:04358000F894FFCFED
:10358400FFFFFFFFFFFF00000008800000000000B5
:1035940041070110450587077605540568050000B5
:1035A40000002A0E0110A0069F060000000071060C
:1035B4004206A00616063A0626061706696D6743F4
:0C35C4007472332E747874000D0A00003D
:020000023000CC
:10E000000D9489F10D94B2F10D94B2F10D94B2F129
:10E010000D94B2F10D94B2F10D94B2F10D94B2F1F0
:10E020000D94B2F10D94B2F10D94B2F10D94B2F1E0
:10E030000D94B2F10D94B2F10D94B2F10D94B2F1D0
:10E040000D94B2F10D94B2F10D94B2F10D94B2F1C0
:10E050000D94B2F10D94B2F10D94B2F10D94B2F1B0
:10E060000D94B2F10D94B2F10D94B2F10D94B2F1A0
:10E070000D94B2F10D94B2F10D94B2F10D94B2F190
:10E080000D94B2F10D94B2F10D94B2F10D94B2F180
:10E090000D94B2F10D94B2F10D94B2F10D94B2F170
:10E0A0000D94B2F10D94B2F10D94B2F10D94B2F160
:10E0B0000D94B2F10D94B2F10D94B2F10D94B2F150
:10E0C0000D94B2F10D94B2F10D94B2F10D94B2F140
:10E0D0000D94B2F10D94B2F10D94B2F10D94B2F130
:10E0E0000D94B2F141546D656761323536300041AF
:10E0F000726475696E6F206578706C6F72657220DE
:10E1000073746B3530305632206279204D4C530099
:10E11000426F6F746C6F616465723E004875683F52
:10E1200000436F6D70696C6564206F6E203D200048
:10E130004350552054797065202020203D20005FF9
:10E140005F4156525F415243485F5F3D2000415658
:10E1500052204C696243205665723D20004743437C
:10E160002056657273696F6E203D20004350552024
:10E1700049442020202020203D20004C6F7720663D
:10E18000757365202020203D20004869676820665F
:10E190007573652020203D200045787420667573D6
:10E1A00065202020203D20004C6F636B2066757336
:10E1B000652020203D20004D617220203720323024
:10E1C000313300312E362E3800342E332E350056A2
:10E1D00023202020414444522020206F7020636F70
:10E1E00064652020202020696E73747275637469E1
:10E1F0006F6E2061646472202020496E74657272B3
:10E20000757074006E6F20766563746F7200726A49
:10E210006D702020006A6D70200057686174207056
:10E220006F72743A00506F7274206E6F7420737541
:10E2300070706F72746564004D7573742062652030
:10E2400061206C6574746572002000577269747483
:10E25000696E672045450052656164696E672045B7
:10E26000450045452065727220636E743D00504F35
:10E27000525400303D5A65726F2061646472003FF1
:10E280003D43505520737461747300403D454550C3
:10E29000524F4D207465737400423D426C696E6B41
:10E2A000204C454400453D44756D70204545505215
:10E2B0004F4D00463D44756D7020464C415348001B
:10E2C000483D48656C70004C3D4C69737420492F83
:10E2D0004F20506F72747300513D51756974005234
:10E2E0003D44756D702052414D00563D73686F7707
:10E2F00020696E7465727275707420566563746FF0
:10E30000727300593D506F727420626C696E6B00BD
:10E310002A0011241FBECFEFD1E2DEBFCDBF01E046
:10E320000CBF12E0A0E0B2E0EEE1FDEF03E00BBFB6
:10E3300002C007900D92A030B107D9F712E0A0E01B
:10E34000B2E001C01D92AE30B107E1F70F9460F367
:10E350000D948DFE01E20EBF0FEF0DBF11241FBE05
:10E360000D9460F30D9400F020E030E040ED57E0B4
:10E3700005C0FA013197F1F72F5F3F4F2817390792
:10E38000C0F308959C01260F311DC901A0E0B0E043
:10E390002F5F3F4FABBFFC018791882361F08093D3
:10E3A000C6008091C00086FFFCCF8091C0008064D1
:10E3B0008093C000EACF08958DE08093C6008091DD
:10E3C000C00086FFFCCF8091C00080648093C000B5
:10E3D0008AE08093C6008091C00086FFFCCF8091C8
:10E3E000C00080648093C00008950F94C2F10F9420
:10E3F000DCF10895FC019081992359F09093C600B7
:10E400008091C00086FFFCCF8091C0008064809323
:10E41000C0003196992379F70895282F982F929567
:10E420009F70892F805D8A3308F0895F8093C600D2
:10E430008091C00086FFFCCF8091C00080648093F3
:10E44000C000822F8F70982F905D9A3308F0995FEB
:10E450009093C6008091C00086FFFCCF8091C000E1
:10E4600080648093C00008959C01FB01853691056E
:10E470001CF46330710594F0C90164E670E00F94F8
:10E480002EFE605D7F4F6093C6008091C00086FFC6
:10E49000FCCF8091C00080648093C0002B30310598
:10E4A00014F43297B4F0C90164E670E00F942EFEC4
:10E4B0006AE070E00F942EFE605D7F4F6093C600AF
:10E4C0008091C00086FFFCCF8091C0008064809363
:10E4D000C000C9016AE070E00F942EFEC0968093E0
:10E4E000C6008091C00086FFFCCF8091C000806490
:10E4F0008093C00008951F93182F8EE692EE60E07F
:10E500000F94C2F11093C6008091C00086FFFCCF2B
:10E510008091C00080648093C0000F94DCF11F9153
:10E5200008952F923F924F925F926F927F928F92B7
:10E530009F92AF92BF92CF92DF92EF92FF920F9392
:10E540001F93DF93CF93CDB7DEB762970FB6F894E2
:10E55000DEBF0FBECDBF382E622ECA01DB015C01CB
:10E560006D01772420E2222E2E010894411C511CBB
:10E570008BC081E0A81680E0B80681E0C80680E084
:10E58000D80628F0C601AA27BB270F940DF2BB2797
:10E59000AD2D9C2D8B2D0F940DF28A2D0F940DF225
:10E5A0002092C6008091C00086FFFCCF8091C00001
:10E5B00080648093C0009DE29093C6008091C0006B
:10E5C00086FFFCCF8091C00080648093C0002092C1
:10E5D000C6008091C00086FFFCCF8091C00080649F
:10E5E0008093C00019828601750188249924A1E0D6
:10E5F0003A1651F03A1620F0B2E03B1661F409C029
:10E600000BBFF701779007C0C7010F9477FE782EF4
:10E6100002C0F7017080872D0F940DF22092C60082
:10E620008091C00086FFFCCF8091C0008064809301
:10E63000C000872D8052F401EF70F0708F3520F408
:10E64000E40DF51D708204C0E40DF51D8EE280839B
:10E650000894E11CF11C011D111D0894811C911CE2
:10E6600090E18916910409F0C2CF80E190E0A0E02A
:10E67000B0E0A80EB91ECA1EDB1E198AC2010F9493
:10E68000FAF10F94DCF16A94662009F072CF629679
:10E690000FB6F894DEBF0FBECDBFCF91DF911F91B3
:10E6A0000F91FF90EF90DF90CF90BF90AF909F9031
:10E6B0008F907F906F905F904F903F902F90089534
:10E6C0002F923F924F925F926F927F928F929F9282
:10E6D000AF92BF92CF92DF92EF92FF920F931F9370
:10E6E000DF93CF93CDB7DEB7CD53D1400FB6F894BB
:10E6F000DEBF0FBECDBF01E20EBF0FEF0DBF94B75F
:10E70000F894A89514BE80916000886180936000A1
:10E7100010926000789493FF05C0E0910002F091A0
:10E7200001021995279A2F9A8091C00082608093E8
:10E73000C00080E18093C40088E18093C1000000A4
:10E74000EE24FF24870144E0A42EB12CCC24DD2448
:10E7500024C0C5010197F1F70894E11CF11C011DCB
:10E76000111D21E2E2162EE4F20620E0020720E06D
:10E77000120718F031E0C32ED12CC801B70127ECE5
:10E780003BE140E050E00F9441FE611571058105C9
:10E79000910519F485B1805885B98091C00087FD35
:10E7A00003C0C114D104A9F2A6014F5F5F4FC25E3E
:10E7B000DE4F59834883CE51D140C25EDE4F8881FF
:10E7C0009981CE51D140019711F00D9410FEC05D9A
:10E7D000DE4F19821882C053D14060E0C15DDE4F28
:10E7E0001882CF52D14088249924C35DDE4F19820C
:10E7F0001882CD52D140C05EDE4F188219821A8233
:10E800001B82C052D140CE5CDE4F188219821A8220
:10E810001B82C253D140EE24FF2487010BBFF701B6
:10E8200007911691C45CDE4F19830883CC53D14005
:10E830000D940BFEC25EDE4F28813981CE51D1404E
:10E840002130310509F52091C600C25EDE4F1982E4
:10E850001882CE51D14022C02F5F3F4F4F4F5F4FA4
:10E86000213082E138078AE7480780E0580780F0C6
:10E87000C45CDE4FE881F981CC53D140EF5FFF4F9C
:10E8800019F0EE27FF27099420E030E040E050E047
:10E890008091C00087FFE0CF2091C600C35DDE4FAE
:10E8A00048815981CD52D1404F5F5F4FC35DDE4FEC
:10E8B00059834883CD52D140213209F063C64A3092
:10E8C000510508F05FC60894811C911C53E0851621
:10E8D000910409F059C600E010E018C081E280936D
:10E8E000C6008091C00086FFFCCF8091C00080648C
:10E8F0008093C0002F5F3F4F2931310579F70F9486
:10E90000DCF10F5F1F4F0530110519F020E030E0FA
:10E91000E5CF10920A0210920B0210920C02109294
:10E920000D02109206021092070210920802109235
:10E930000902109202021092030210920402109235
:10E9400005028FEE90EE60E00F94F5F180E191EE1C
:10E9500060E00F94C2F18091C00087FFFCCF9091DE
:10E96000C600903608F09F759032B8F09093C600BC
:10E970008091C00086FFFCCF8091C00080648093AE
:10E98000C000A0E2A093C6008091C00086FFFCCF2B
:10E990008091C00080648093C000983409F4D7C18E
:10E9A0009934B8F4923409F459C1933458F490333B
:10E9B00019F1903308F4E3C59F33A1F1903409F0C5
:10E9C000DEC5BDC0953409F470C1963409F0D7C5D1
:10E9D00098C1923509F42BC2933538F49C3409F46C
:10E9E000F5C1913509F0CBC518C2963509F445C279
:10E9F000993509F0C4C567C483E792EE62E00F94CD
:10EA0000F5F110920602109207021092080210927D
:10EA1000090210920A0210920B0210920C0210923C
:10EA20000D0213C18FE792EE62E00F94F5F18FEEC5
:10EA300090EE60E00F94F5F181E291EE60E00F94CA
:10EA4000C2F187EB91EE60E00F94F5F180E391EE77
:10EA500060E00F94C2F184EE90EE60E00F94F5F167
:10EA60008FE391EE60E00F94C2F186E090E061E008
:10EA700070E00F9434F20F94DCF18DE591EE60E0DC
:10EA80000F94C2F189EC91EE60E00F94F5F18EE401
:10EA900091EE60E00F94C2F183EC91EE60E00F9490
:10EAA000F5F18CE691EE60E00F94C2F18EE10F94E7
:10EAB0000DF288E90F940DF281E00F940DF20F949E
:10EAC000DCF18BE791EE60E00F94C2F119E0E0E039
:10EAD000F0E010935700E4918E2F0F940DF20F94F5
:10EAE000DCF18AE891EE60E00F94C2F1E3E0F0E03F
:10EAF00010935700E4918E2F0F940DF20F94DCF1D8
:10EB000089E991EE60E00F94C2F1E2E0F0E0109349
:10EB10005700E4918E2F0F940DF20F94DCF188EAE8
:10EB200091EE60E00F94C2F1E1E0F0E01093570045
:10EB30001491812F0F940DF20F94DCF107CF8BE825
:10EB400092EE62E00F94F5F18BE492EE60E00F94A8
:10EB5000F5F10F94DCF100E010E019C0C8016F2D51
:10EB60000F947FFEFF2031F489E492EE60E00F9471
:10EB7000C2F10BC0F092C6008091C00086FFFCCFAE
:10EB80008091C00080648093C0000F5F1F4FC80158
:10EB900081519F41A0E0B0E0ABBFFC01F790BAE229
:10EBA000FB1621F0E2E000301E07C1F60F94DCF105
:10EBB0000F94DCF187E592EE60E00F94F5F10F948D
:10EBC000DCF1CC24DD2400E010E01EC0C8010F946D
:10EBD00077FEF82E882331F489E492EE60E00F94FA
:10EBE000C2F10BC08093C6008091C00086FFFCCFAD
:10EBF0008091C00080648093C000FE1419F00894D6
:10EC0000C11CD11C0F5F1F4FC80181519F41A0E063
:10EC1000B0E0ABBFFC01E790FAE2EF1621F022E092
:10EC20000030120799F60F94DCF10F94DCF182E6C4
:10EC300092EE60E00F94C2F1C60161E070E00F94C3
:10EC400034F20F94DCF10F94DCF110920202109276
:10EC50000302109204021092050278CE89E992EE26
:10EC600062E00F94F5F1279A2F9A16C02F9880E052
:10EC700090E0E0EDF7E03197F1F7019684369105E9
:10EC8000C1F72F9A80E090E0E0EDF7E03197F1F7DF
:10EC9000019684369105C1F78091C00087FFE6CFC9
:10ECA0008091C00087FFFCCF64C485EA92EE62E0E9
:10ECB0000F94F5F140910202509103026091040219
:10ECC0007091050281E020E10F9491F2809102029F
:10ECD00090910302A0910402B091050280509F4FD1
:10ECE000AF4FBF4F8093020290930302A0930402A0
:10ECF000B093050280509041A040B04008F426CE69
:10ED0000A4CF83EB92EE62E00F94F5F140910602FE
:10ED100050910702609108027091090280E020E1A1
:10ED20000F9491F28091060290910702A09108023F
:10ED3000B091090280509F4FAF4FBF4F80930602A2
:10ED400090930702A0930802B0930902FFCD80ECD4
:10ED500092EE62E00F94F5F183E792EE60E00F949B
:10ED6000F5F18FE792EE60E00F94F5F18BE892EE0B
:10ED700060E00F94F5F189E992EE60E00F94F5F10F
:10ED800085EA92EE60E00F94F5F183EB92EE60E09D
:10ED90000F94F5F180EC92EE60E00F94F5F187ECC2
:10EDA00092EE60E00F94F5F188ED92EE60E00F9442
:10EDB000F5F18FED92EE60E00F94F5F18AEE92EEB0
:10EDC00060E00F94F5F183E093EEBDCD87EC92EE19
:10EDD00062E00F94F5F181E40F947BF282E40F94EA
:10EDE0007BF283E40F947BF284E40F947BF285E45E
:10EDF0000F947BF286E40F947BF287E40F947BF20E
:10EE000088E40F947BF28AE40F947BF28BE40F94F6
:10EE10007BF28CE40F947BF299CD88ED92EE62E068
:10EE20000F94F5F1772473948824992409C48FED05
:10EE300092EE62E00F94F5F140910A0250910B02BC
:10EE400060910C0270910D0282E020E10F9491F22A
:10EE500080910A0290910B02A0910C02B0910D02D8
:10EE600080509F4FAF4FBF4F80930A0290930B0289
:10EE7000A0930C02B0930D0269CD8AEE92EE62E08F
:10EE80000F94F5F184EE90EE60E00F94F5F18FECC5
:10EE900091EE60E00F94F5F1662477244301CC5D98
:10EEA000DE4F19821882C452D140D401C301B695F5
:10EEB000A79597958795CA5DDE4F88839983AA8326
:10EEC000BB83C652D140CC5DDE4FA881B981C4520C
:10EED000D1401196CC5DDE4FB983A883C452D14096
:10EEE000CD0162E070E00F9434F2B0E2B093C6005E
:10EEF0008091C00086FFFCCF8091C0008064809329
:10EF0000C000EDE2E093C6008091C00086FFFCCF18
:10EF10008091C00080648093C000F0E2F093C6004E
:10EF20008091C00086FFFCCF8091C00080648093F8
:10EF3000C000CA5DDE4FE880F9800A811B81C6529D
:10EF4000D140BB27A12F902F8F2D0F940DF2CA5DBA
:10EF5000DE4F8881C652D1400F940DF2B0E2FB2EF5
:10EF6000F092C6008091C00086FFFCCF8091C00067
:10EF700080648093C0000DE30093C6008091C000C0
:10EF800086FFFCCF8091C00080648093C00010E2B7
:10EF90001093C6008091C00086FFFCCF8091C00016
:10EFA00080648093C0008BBEF3012791C65DDE4F65
:10EFB0002883CA52D140A22EBB24CC24DD2408943D
:10EFC000611C711C811C911C8BBEF3018791282E42
:10EFD0003324442455240894611C711C811C911C09
:10EFE0008BBEF3013791C55DDE4F3883CB52D140E4
:10EFF0000894611C711C811C911C8BBEF30147910C
:10F00000C45DDE4F4883CC52D140ADEFEA2EAFEF66
:10F01000FA2EAFEF0A2FAFEF1A2F6E0C7F1C801E57
:10F02000911E142D032DF22CEE24EA0CFB1C0C1D5A
:10F030001D1D0F940DF220E22093C6008091C000A8
:10F0400086FFFCCF8091C00080648093C000C65DC5
:10F05000DE4F8881CA52D1400F940DF230E23093D6
:10F06000C6008091C00086FFFCCF8091C000806404
:10F070008093C000C45DDE4F8881CC52D1400F9494
:10F080000DF240E24093C6008091C00086FFFCCFA5
:10F090008091C00080648093C000C55DDE4F888190
:10F0A000CB52D1400F940DF250E25093C6008091A4
:10F0B000C00086FFFCCF8091C00080648093C000B8
:10F0C0008FEFE8168FEFF80680E0080780E018075A
:10F0D00031F484E092EE60E00F94C2F1DFC0D80119
:10F0E000C7018070907CA070B0708050904CA040A0
:10F0F000B040D1F52FEF3FE340E050E0E222F322B1
:10F1000004231523CA5DDE4FA880B980CA80DB8046
:10F11000C652D140AE0CBF1CC01ED11EAA0CBB1CD7
:10F12000CC1CDD1C8EE092EE60E00F94C2F1BB2798
:10F13000A12F902F8F2D0F940DF28E2D0F940DF285
:10F1400030E23093C6008091C00086FFFCCF8091F2
:10F15000C00080648093C0004EE34093C60080915D
:10F16000C00086FFFCCF87C08EE09EEFA0E0B0E03D
:10F17000E822F9220A231B239CE0E91694E9F90608
:10F1800090E0090790E0190709F088C0C45DDE4FE0
:10F19000A881CC52D140EA2EFF2400E010E0102FCD
:10F1A0000F2DFE2CEE24C55DDE4FB881CB52D14031
:10F1B000EB0EF11C011D111DD601C501817090706F
:10F1C000A070B070DC0199278827E80EF91E0A1F8D
:10F1D0001B1F20EF30E040E050E0A222B322C42207
:10F1E000D52241E1AA0CBB1CCC1CDD1C4A95D1F7F1
:10F1F000EA0CFB1C0C1D1D1D81E090E0A0E0B0E0BE
:10F20000282239224A225B2235E1220C331C441C7D
:10F21000551C3A95D1F7E20CF31C041D151D57013E
:10F220006801AA0CBB1CCC1CDD1C85E192EE60E0E1
:10F230000F94C2F1C801AA27BB270F940DF2BB2778
:10F24000A12F902F8F2D0F940DF28E2D0F940DF274
:10F2500090E29093C6008091C00086FFFCCF809121
:10F26000C00080648093C000AEE3A093C60080918C
:10F27000C00086FFFCCF8091C00080648093C000F6
:10F28000C601AA27BB270F940DF2BB27AD2D9C2DDD
:10F290008B2D0F940DF28A2D0F940DF20F94DCF14B
:10F2A000CC5DDE4FE881F981C452D140F99709F471
:10F2B0004DCBF4E0EF2EF12C012D112D6E0C7F1CA7
:10F2C000801E911EF2CD83E093EE62E00F94F5F183
:10F2D0008AE192EE60E00F94C2F18091C00087FF56
:10F2E000FCCF1091C6001F751093C6008091C0001E
:10F2F00086FFFCCF8091C00080648093C0000F9493
:10F30000DCF1812F81548A3108F036C1163409F4BA
:10F3100095C0173490F4133409F44EC0143430F40B
:10F320001134F1F0123409F01DC130C0143409F465
:10F3300059C0153409F016C16BC01A3409F4C4C0A1
:10F340001B3438F4173409F48FC0183409F00AC19B
:10F35000A1C01B3409F4D2C01C3409F003C1E8C0B9
:10F360008FEF81B90DC082B1809582B980E090E0C5
:10F37000E0EDF7E03197F1F70196883C9105C1F790
:10F380008091C00087FFEFCF12B8EFC08FEF84B934
:10F390000DC085B1809585B980E090E0E0EDF7E0A3
:10F3A0003197F1F70196883C9105C1F78091C00033
:10F3B00087FFEFCF15B8D9C08FEF87B90DC088B1DF
:10F3C000809588B980E090E0E0EDF7E03197F1F7C3
:10F3D0000196883C9105C1F78091C00087FFEFCF6F
:10F3E00018B8C3C08FEF8AB90DC08BB180958BB9A7
:10F3F00080E090E0E0EDF7E03197F1F70196883C8E
:10F400009105C1F78091C00087FFEFCF1BB8ADC059
:10F410008FEF8DB90DC08EB180958EB980E090E0F0
:10F42000E0EDF7E03197F1F70196883C9105C1F7DF
:10F430008091C00087FFEFCF1EB897C08FEF80BBD1
:10F440000DC081B3809581BB80E090E0E0EDF7E0F6
:10F450003197F1F70196883C9105C1F78091C00082
:10F4600087FFEFCF11BA81C08FEF83BB0DC084B38C
:10F47000809584BB80E090E0E0EDF7E03197F1F714
:10F480000196883C9105C1F78091C00087FFEFCFBE
:10F4900014BA6BC08FEF809301010FC080910201FD
:10F4A00080958093020180E090E0E0EDF7E03197F5
:10F4B000F1F70196883C9105C1F78091C00087FF64
:10F4C000EDCF1092020151C08FEF809304010FC065
:10F4D0008091050180958093050180E090E0E0ED4A
:10F4E000F7E03197F1F70196883C9105C1F78091DB
:10F4F000C00087FFEDCF1092050137C08FEF8093DA
:10F5000007010FC08091080180958093080180E079
:10F5100090E0E0EDF7E03197F1F70196883C910536
:10F52000C1F78091C00087FFEDCF109208011DC088
:10F530008FEF80930A010FC080910B01809580931B
:10F540000B0180E090E0E0EDF7E03197F1F70196F4
:10F55000883C9105C1F78091C00087FFEDCF1092E4
:10F560000B0103C085E292EEEEC98091C00087FFD7
:10F57000FCCF8091C600EAC988E392EEE4C98CE131
:10F5800091EEE1C988249924933011F1943028F444
:10F59000913089F09230B8F408C0953061F195301F
:10F5A000F0F0963009F048C043C02B3109F042C951
:10F5B00091E06BE13FC96227C15DDE4F2883CF52E6
:10F5C000D14092E037C9B22FA0E0622793E032C960
:10F5D000822F90E0A82BB92B622794E02BC92E3004
:10F5E00009F039C3622795E0C05DDE4F19821882A9
:10F5F000C053D1401FC9E1E0F0E0EC0FFD1FC05D3A
:10F60000DE4F08811981C053D140E00FF11F2083E4
:10F610000F5F1F4FC05DDE4F19830883C053D14079
:10F6200062270A171B0709F005C9D80196E002C92D
:10F63000261709F010C303C0973009F0FBC87724E0
:10F640009981933109F412C19431C8F4963009F4C8
:10F65000D8C0973050F4923009F406C1933009F4C1
:10F660006DC0913009F059C253C0913109F477C08F
:10F67000923108F0BBC0903109F04FC2F5C098310B
:10F6800009F487C0993150F4953109F4EFC09531F0
:10F6900008F4C6C1963109F040C2C2C19A3109F4DA
:10F6A0006CC09A3108F491C09B3109F45BC09D3164
:10F6B00009F033C29D81903359F48F81882311F46E
:10F6C0009EE11CC0813011F091E018C098E916C08D
:10F6D000892F807591F0903539F4E0E0F0E089E011
:10F6E0008093570094910AC0983539F4E3E0F0E034
:10F6F00089E080935700949101C090E01A821B82A8
:10F700008D818C831D829E831F8227E030E009C299
:10F710001A8288E08B8381E48C8386E58D8382E581
:10F720008E8389E48F8383E5888780E589878FE5E9
:10F730008A8782E38B872BE030E0F3C18A818139AD
:10F7400041F0823941F0803911F48FE005C080E04A
:10F7500003C082E001C08AE01A828B8344C0772410
:10F76000739482C08D81882311F48EE12CC0813086
:10F7700011F081E028C088E926C01A82E1E0F0E0BB
:10F7800089E08093570084918B831C8224E030E0D1
:10F79000C8C18B81803589F48C81883039F4E2E0EE
:10F7A000F0E089E08093570084910DC0E0E0F0E044
:10F7B00089E080935700849106C0E3E0F0E089E09F
:10F7C0008093570084911A82DFCF8D81836C99E0FA
:10F7D000E1E0F0E0082E90935700E89507B600FCB2
:10F7E000FDCF1A821B8223E030E09BC180EC8A832C
:10F7F000CE5CDE4F188219821A821B82C253D1401E
:10F800008EC18A8190E0A0E0B0E0582F44273327D2
:10F8100022278B8190E0A0E0B0E0DC0199278827C7
:10F82000282B392B4A2B5B2B8D8190E0A0E0B0E098
:10F83000282B392B4A2B5B2B8C8190E0A0E0B0E089
:10F84000BA2FA92F982F8827282B392B4A2B5B2BCF
:10F85000220F331F441F551FC05EDE4F288339839C
:10F860004A835B83C052D1401A8259C13A81C95C34
:10F87000DE4F3883C753D140CA5CDE4F1882C6536F
:10F88000D1408B81C82EDD24CA5CDE4F488159816E
:10F89000C653D140C42AD52A933109F082C0CE5C28
:10F8A000DE4F88819981AA81BB81C253D1408050AB
:10F8B000904CA340B04030F583E0CE5CDE4FE88052
:10F8C000F9800A811B81C253D140F70100935B008C
:10F8D00080935700E89507B600FCFDCFCE5CDE4F65
:10F8E000088119812A813B81C253D14000501F4FAA
:10F8F0002F4F3F4FCE5CDE4F088319832A833B8313
:10F90000C253D140C05EDE4F488159816A817B81FC
:10F91000C052D140DE011B9631E08C9111962C91A2
:10F9200011971296C75CDE4F2883C953D140C85C3B
:10F93000DE4F1882C853D14090E0C85CDE4FE881AA
:10F94000F981C853D1408E2B9F2B0C01FA01609393
:10F950005B0030935700E89511244E5F5F4F6F4F67
:10F960007F4F0EEFE02E0FEFF02ECE0CDF1CC114F8
:10F97000D10499F685E0C05EDE4F088119812A81A5
:10F980003B81C052D140F80120935B008093570027
:10F99000E89507B600FCFDCF81E180935700E8951C
:10F9A00035C0C05EDE4F88819981AA81BB81C0527B
:10F9B000D140B695A795979587957C018601ABE0D8
:10F9C000AA2EB12CAC0EBD1E0BC0D5016D915D01F0
:10F9D000C7010F947FFE0894E11CF11C01501040F8
:10F9E0000115110591F7A60160E070E0440F551F65
:10F9F000661F771FC05EDE4FE880F9800A811B8199
:10FA0000C052D1404E0D5F1D601F711F1A82C05E33
:10FA1000DE4F488359836A837B83C052D1407FC0C5
:10FA2000FA80C55CDE4FF882CB53D140C65CDE4F16
:10FA30001882CA53D1408B81C82EDD24C65CDE4FAC
:10FA400008811981CA53D140C02AD12A1A828981DA
:10FA5000BE016D5F7F4F843121F59601C05EDE4FA0
:10FA6000E880F9800A811B81C052D1400BBFF701A9
:10FA700087919691DB018C9311969C936E5F7F4FDB
:10FA8000D801C7010296A11DB11DC05EDE4F88835B
:10FA90009983AA83BB83C052D14022503040F1F6F3
:10FAA00036C0C05EDE4F288139814A815B81C052F9
:10FAB000D1400894C108D108760100E010E0089414
:10FAC000C11CD11C0894E11CF11C011D111DE20E8A
:10FAD000F31E041F151F21BDBB27A52F942F832FB5
:10FAE00082BD2F5F3F4F4F4F5F4FF89A80B5DB01CC
:10FAF0008D93BD012E153F054007510761F7C05E8C
:10FB0000DE4F288339834A835B83C052D1409601FC
:10FB10002D5F3F4FFB01108204C080EC8A8322E0FE
:10FB200030E08BE18093C6008091C00086FFFCCF5F
:10FB30008091C00080648093C000C15DDE4FF88179
:10FB4000CF52D140F093C6008091C00086FFFCCF19
:10FB50008091C00080648093C000432F3093C60022
:10FB60008091C00086FFFCCF8091C00080648093AC
:10FB7000C000922F2093C6008091C00086FFFCCF6A
:10FB80008091C00080648093C0008EE08093C600A6
:10FB90008091C00086FFFCCF8091C000806480937C
:10FBA000C00065E1C15DDE4FE880CF52D1406E25D7
:10FBB00069276427FE01319610C090819093C6009A
:10FBC0008091C00086FFFCCF31968091C000806498
:10FBD0008093C0006927215030402115310569F715
:10FBE0006093C6008091C00086FFFCCF8091C0006A
:10FBF00080648093C00085B1805885B9772081F4F6
:10FC0000C15DDE4F0881CF52D1400F5FC15DDE4F35
:10FC10000883CF52D14090E0A0E0B0E00D941AF4F8
:10FC200027982F9880E090E020ED37E0F901319798
:10FC3000F1F7019684369105C9F700008091C00064
:10FC40008D7F8093C00081E180935700E895EE2777
:10FC5000FF270994FFCF90E00D941AF497FB092E2B
:10FC600007260AD077FD04D02ED006D000201AF443
:10FC7000709561957F4F0895F6F7909581959F4F08
:10FC80000895A1E21A2EAA1BBB1BFD010DC0AA1FDD
:10FC9000BB1FEE1FFF1FA217B307E407F50720F0F5
:10FCA000A21BB30BE40BF50B661F771F881F991F70
:10FCB0001A9469F760957095809590959B01AC01B9
:10FCC000BD01CF010895AA1BBB1B51E107C0AA1FAC
:10FCD000BB1FA617B70710F0A61BB70B881F991FED
:10FCE0005A95A9F780959095BC01CD010895F99991
:10FCF000FECF92BD81BDF89A992780B50895262F31
:10FD0000F999FECF1FBA92BD81BD20BD0FB6F89400
:0EFD1000FA9AF99A0FBE01960895F894FFCF63
:040000033000E000E9
:00000001FF