:1000000013C5000042C5000040C500003EC5000009
:100010003CC500003AC5000038C5000036C50000E8
:1000200034C500000C9424090C9424090C94240970
:100030002CC500002AC5000028C5000026C5000008
:1000400024C5000022C5000020C500001EC5000018
:100050001CC500001AC5000018C500000C94C50F8F
:1000600014C500000C94CE0E0C94A50E0EC5000015
:100070000CC500000AC5000008C5000006C5000048
:1000800004C5000002C5000000C50000FEC4000059
:10009000FCC40000FAC40000F8C400000C9460091D
:1000A000F4C40000F2C40000F0C40000EEC400007C
:1000B000ECC40000EAC40000E8C40000E6C400008C
:1000C000E4C40000E2C40000E0C40000DEC400009C
:1000D000DCC40000DAC40000D8C40000D6C40000AC
:1000E000D4C40000330F360F250F290F2D0F6D0FCD
:1000F0003A0F3E0F440F480F4C0F520F560F5A0F36
:100100006D0F600F640F680F7C3C3E5E2B3D3F2FF0
:100110005B5D3B2C2A225C0000000A0B02090C0DDF
:100120000E080703040100000000000000000000AA
:1001300000000000000000000000000000000000BF
:10014000000000001211100000000000000000007C
:100150000000000000000000000000000000FF00A0
:1001600001001200400017001100180043001900A0
:1001700000001A004B00320009004F00CA00500076
:10018000A8005A0023006D0000003900120035005D
:10019000DA0022001A003700C300230000003400F8
:1001A000C00036001A00060088000700C0000D00DD
:1001B00087000E0041004C000000FF000000E0003E
:1001C0000400C0006400C1004B00860035005000F0
:1001D00089005100C80052009600530000005400EE
:1001E000000055000000570000005A0050005B005E
:1001F0003C005C000000E0000000FF00FF00E000A9
:100200001400E1007700E5001F00D7000300DA00CA
:100210001000E0000000FF00010004000800FF00E3
:10022000FF00FF00000005000000DA001000D7000A
:100230000300DF000000330080003C004000E100CC
:10024000770000000000FF00FF00FF0000002C000E
:10025000FF002E00DF00FF0001003C003200110013
:10026000000009000200040028001300E50014004B
:1002700048002C000C00330078003A0033003B00AB
:10028000FB003E0000004300110016001000390082
:1002900092003500DA0022001A003700C300230064
:1002A00000003400C00036001A0006008800070075
:1002B000C0000D0087000E0041004C000000480007
:1002C00000005B000000420003004A0081002100A2
:1002D00099002400400025003800260082005C00C0
:1002E00000006300000061007000620080007C007C
:1002F000050020008000280030006C0000006D0028
:1003000080006E0000007000020071009400730015
:10031000C10012004000170011001800430019002E
:1003200000001A004B00320009003700C0004F00E7
:1003300060005000A8006D0000003D00380046003D
:100340003F004F0060000C003C00FF000000E50093
:100350007F00F900C00041002400E0001400760096
:10036000FF003300A00042002000430018004C00B2
:1003700000008700D50088003F00D7000300D900A7
:100380001000D3008200C8000800C90080007C0073
:1003900000007D0000007C0003007D0048007D001F
:1003A00048007C0008007D0020007D0010007D00DA
:1003B0000E009000000091000E0091001A009100C4
:1003C000310091005A009100690091007500910080
:1003D0007E009100880091008F00910096009100AE
:1003E000A3009100AF009100C4009100D7009100DC
:1003F000E8009100200092000000930006009300A6
:10040000E3009300050093000500930000009300B3
:10041000040093000000930000009300000093008C
:10042000000093000000930000009300000096007D
:10043000000097000800970019009700020097003D
:100440000C009700240097003000970028009700C8
:100450002600970002009700980097008000970000
:10046000000097000000C300ED00A4000000A800F9
:100470000000C5001100C6005100BF008000C70089
:100480001000B6006600B800A500B7006400B9000F
:100490007C00B300AF00B4009700B500FF00B000CF
:1004A000C500B1009400B2000F00C4005C00C000A1
:1004B0006400C1004B008C00000086003D0050002D
:1004C00000005100C8005200960053000000540084
:1004D0000000550000005A00C8005B0096005C0058
:1004E0000000D3000000C300ED007F000000DA0030
:1004F0000000E5001F00E1006700E0000000DD00F3
:100500007F000500000012004000D3000400C0007E
:100510001600C10012008C00000086003D00500053
:10052000000051002C005200240053000000540031
:100530000000550000005A002C005B0024005C0005
:100540000000FF00FF00FF0000002C00FF002E0055
:10055000DF00FF0001003C00320011000000090034
:1005600002000400A8001300E500140048002C005D
:100570000C00330078003A0033003B00FB003E00E3
:100580000000430011001600100039000200350081
:10059000880022000A0037004000230000003400D9
:1005A000A00006000200060088000700C0000D0041
:1005B000B7000E0001004C0000004A00810021003D
:1005C00099002400400025003800260082005C00CD
:1005D000000063000000460022000C003A005D00AD
:1005E00055005E007D005F007D00600055006100E9
:1005F0007000620080007C00050020008000280060
:1006000030006C0000006D0080006E000000700083
:100610000200710094007300C1003D00340012001C
:1006200004005A0057004F00BB0050009C00FF0020
:100630000000E5007F00F900C00041002400E00058
:1006400014007600FF003300A000420020004300A9
:1006500018004C0000008700D00088003F00D70041
:100660000300D9001000D3008200C8000800C900B0
:1006700080007C0000007D0000007C0003007D0005
:1006800048007D0048007C0008007D0020007D00BF
:1006900010007D000E009000000091000E009100FF
:1006A0001A009100310091005A00910069009100F8
:1006B000750091007E009100880091008F009100EC
:1006C00096009100A3009100AF009100C40091003A
:1006D000D7009100E80091002000920000009300F4
:1006E00006009300E30093000300930003009300CF
:1006F00000009300020093000000930000009300AC
:10070000000093000000930000009300000093009D
:10071000000096000000970008009700190097005D
:10072000020097000C00970024009700300097000B
:100730002800970026009700020097009800970075
:1007400080009700000097000000A4000000A800AF
:100750000000C5001100C6005100BF008000C700A6
:100760001000B6006600B800A500B7006400B9002C
:100770007C00B300AF00B4009700B500FF00B000EC
:10078000C500B1009400B2000F00C4005C00A600D8
:100790000000A7002000A700D800A7001B00A700AA
:1007A0003100A7000000A7001800A7002000A70044
:1007B000D800A7001900A7003100A7000000A7007B
:1007C0001800A7002000A700D800A7001900A70064
:1007D0003100A7000000A70018007F000000E5001E
:1007E0001F00E1007700DD007F00C2000E00FF0067
:1007F0000000E0000400C000C800C10096008600B0
:100800003D005100900052002C00530000005400A5
:1008100000005500880057000000500092005A0068
:1008200050005B003C005C000000D3000400E000CE
:100830000000FF00000005000000DA000800D700FB
:100840000300E000000005000000FF00FF0041433E
:100850004B20434D44204F5632363430206465746B
:1008600065637465642E0041434B20434D4420432F
:10087000616E27742066696E64204F5632363430BC
:10088000206D6F64756C65210041434B20434D44DE
:100890002053504920696E74657266616365204F0C
:1008A0004B2E0041434B20434D4420535049206977
:1008B0006E74657266616365204572726F722100A5
:1008C000496D61676520636F756E74657220666936
:1008D0006C65206F70656E206661696C656400539D
:1008E000746F7265642076616C75653A00534420BC
:1008F000496E697469616C697A6174696F6E2063AD
:100900006F6D706C65746500534420496E6974693D
:10091000616C697A6174696F6E206661696C656487
:1009200000496E697469616C697A696E6720534425
:1009300020636172640041434B20434D4420417267
:10094000647543414D205374617274210053746186
:1009500072742053657269616C2061742039323180
:100960003630300000002100240027002A002D002E
:100970003000330001010000040107010A010102F7
:1009800010202008081020401020408002010201A1
:100990000804020101020408102040808040201059
:1009A00008040201800402018040201008040201B2
:1009B000080402010102040810204080010204081A
:1009C0001020408000002200250028002B002E006F
:1009D0003100340002010000050108010B0105058A
:1009E0000505070508080808020202020A0A0808A5
:1009F00004040404010101010101010103030303D3
:100A000003030303040707070C0C0C0C0C0C0C0C61
:100A10000202020206060606060606060B0B0B0B72
:100A20000B0B0B0BF11D801A11241FBECFEFD1E26F
:100A3000DEBFCDBF00E00CBF12E0A0E0B2E0EAE410
:100A4000F2E400E00BBF02C007900D92A83BB10793
:100A5000D9F726E0A8EBB2E001C01D92A738B20793
:100A6000E1F715E0C3E1D5E000E006C021970109F8
:100A7000802FFE010E94ED1FC231D10780E00807E0
:100A8000A9F70E94851A0C941421BACADC01599660
:100A9000ED91FC915A973097B9F083899489A58993
:100AA000B6894285538564857585841B950BA60B95
:100AB000B70B811520E89207A105B10538F08FEF3B
:100AC0009FE7A0E0B0E0089580E090E00895CF9324
:100AD000DF931F92CDB7DEB76983DC01ED91FC9106
:100AE0000280F381E02D41E050E0BE016F5F7F4F57
:100AF00019950F90DF91CF91089585ED8093BC00FB
:100B00008091BC0084FDFCCF10925E050895409159
:100B1000DA02262F30E0240F311D21323105DCF4BA
:100B200020915E052430C9F4FC0180E090E0861736
:100B300058F43091DA022191DC01A854BD4FA30F83
:100B4000B11D2C930196F3CF8091DA02680F609368
:100B5000DA0280E0089581E0089582E00895089522
:100B6000E091170580911605E81730F4F0E0E85E93
:100B7000FA4F808190E008958FEF9FEF0895909154
:100B8000170580911605981750F4E92FF0E0E85EFC
:100B9000FA4F208130E09F5F9093170502C02FEF3E
:100BA0003FEFC90108958091160590E02091170547
:100BB000821B91090895CF92DF92EF92FF920F93DB
:100BC0001F93CF93DF937C01262F972F8A0180916B
:100BD0005F05882391F0C62FD72F6E01C40ED51E56
:100BE000CC15DD0569F06991D701ED91FC9101907B
:100BF000F081E02DC7011995F3CF642F822F87DF95
:100C0000C801DF91CF911F910F91FF90EF90DF907E
:100C1000CF900895CF93DF931F92CDB7DEB769834E
:100C200020915F052223D1F020918105203240F0F0
:100C300021E030E0FC013383228380E090E014C0A7
:100C400080916005E82FF0E0EF59FA4F9981908389
:100C50008F5F809360058093810504C061E0CE01C1
:100C6000019655DF81E090E00F90DF91CF910895DC
:100C7000089580E090E00895FC01818D928D0097A9
:100C800011F00C9493130895CF93DF93EC01898DA9
:100C90009A8D009739F481E090E09B838A8380E00D
:100CA00090E00BC0FC01138212820E946414E98D53
:100CB000FA8D22813381232B71F7DF91CF91089533
:100CC0008F929F92AF92BF92CF92DF92EF92FF925C
:100CD0000F931F93CF93DF9300D01F92CDB7DEB752
:100CE0007C0180E2689F6001112496012C5E3C4FDC
:100CF000D9011B969C91917121F0842F827409F087
:100D000097C0142FF701628B80910002909101022D
:100D1000A0910202B091030286879787A08BB18BC6
:100D2000F601EC5EFC4F4489558960E070E0BA0141
:100D300055274427D70157964D935D936D937C9328
:100D40005A97828D938DA0E0B0E0482B592B6A2BE7
:100D50007B2BD70157964D935D936D937C935A9758
:100D6000D9011B968C91887159F4848D958DA68D2F
:100D7000B78DF701838B948BA58BB68B81E012C066
:100D8000803109F055C097012D5E3F4FD7015B962A
:100D90008D919C915C970E947811882309F448C03A
:100DA00084E0F7018583812F8F70D70114968C938F
:100DB0001497F70116821782108611861A961D92D3
:100DC0001D921D921C921D9716FF34C015968C9192
:100DD000813071F511FF2CC0F70143895489658971
:100DE0007689452B462B472B09F461C040E050E043
:100DF000BA01C7010E94CF138823D1F0F701878879
:100E0000908CA18CB28CC38CD48C82E090E0A0E05A
:100E1000B0E0F60180839183A283B3839E012F5FAC
:100E20003F4FB501A401C6010E94F510811104C015
:100E300080E03DC081E03BC000E010E09801B501DA
:100E4000A401C6010E945610882391F389809A80DC
:100E5000AB80BC80D60157968C91803129F088EF09
:100E60009FEFAFEFBFE004C088EF9FEFA0E0B0E0DE
:100E700088169906AA06BB0688F2D70157961D92D6
:100E80001D921D921C925A97F701138A148A158A93
:100E9000168A848180688483C7010E949313882303
:100EA00039F240E050E0BA01C7010E94CF130F9021
:100EB0000F900F900F90DF91CF911F910F91FF90A6
:100EC000EF90DF90CF90BF90AF909F908F9008955C
:100ED000CF93DF93EC010E949313882311F01D82BE
:100EE00081E0DF91CF9108953F924F925F926F9290
:100EF0007F928F929F92AF92BF92CF92DF92EF92AA
:100F0000FF920F931F93CF93DF93CDB7DEB72C974C
:100F10000FB6F894DEBF0FBECDBF5C01DC015B965F
:100F20008D909C905C971696CD90DD90ED90FC9006
:100F30001997C114D104E104F10439F0BFEFCB1AC1
:100F4000DB0AEB0AFB0A312C07C0F401C080D18018
:100F5000E280F38033243394F40181859285A38564
:100F6000B4859C01AD012F5F3F4F4F4F5F4F2987E5
:100F70003A874B875C87260137011D821E821F82BC
:100F80001886F40181859285A385B4852D813E81E3
:100F90004F815885281739074A075B0708F063C057
:100FA00089859A85AB85BC858C159D05AE05BF05E9
:100FB00050F482E0C82ED12CE12CF12C92E0492E85
:100FC000512C612C712C9E012F5F3F4FB701A60160
:100FD000C4010E94F510882309F445C089819A81D3
:100FE000AB81BC81892B8A2B8B2B41F026013701E9
:100FF0009FEF491A590A690A790A05C0C414D50431
:10100000E604F70491F02D813E814F8158852F5FD2
:101010003F4F4F4F5F4F2D833E834F8358873FEFA6
:10102000C31AD30AE30AF30AACCF0FEF1FEF2FEF77
:101030003FE0B301A201C4010E945610882399F039
:10104000D50116964D915D916D917C911997411541
:1010500051056105710549F093018201C4010E94A7
:101060005610811102C080E02AC0D50116964D921B
:101070005D926D927C921997332051F0D301C20199
:101080000196A11DB11DF40180839183A283B383D6
:10109000F5018789908DA18DB28D892B8A2B8B2BA1
:1010A00069F4D50157964D925D926D927C925A9754
:1010B00014968C911497806814968C9381E02C96EA
:1010C0000FB6F894DEBF0FBECDBFDF91CF911F9159
:1010D0000F91FF90EF90DF90CF90BF90AF909F90D7
:1010E0008F907F906F905F904F903F9008958FB753
:1010F000F894809103038FBF089561E0FC0184811F
:1011000083D68091020381111092020308958CBD51
:101110009DBD0895CF93DF93EC018091020381116F
:1011200008C081E08093020380911F069091200601
:10113000EEDF60E08C81DF91CF9166C6FC01DB01C0
:1011400012968D919C9113979383828384E392E00E
:101150009183808314968C911497848315968C9137
:101160001597858316964D915D916D917C91199798
:1011700046835783608771871A964D915D916D9173
:101180007C911D9742875387648775871E964D9182
:101190005D916D917C91519746875787608B718BDC
:1011A00052968C915297828B53964D915D916D9191
:1011B0007C915697438B548B658B768B57964D91CC
:1011C0005D916D917C915A97478B508F618F728F93
:1011D0005B968D919C915C97948F838F0895EF928D
:1011E000FF920F931F93CF93DF93EC017B018A0152
:1011F0001B821A8288EE93E0A0E0B0E08C839D838E
:10120000AE83BF8380E192E0998388838DE190E093
:101210000E946C1E9A8F898F009779F02DE1F7015B
:10122000DC0101900D922A95E1F74CE050E0B80105
:10123000CE010C960E940521188EDF91CF911F914F
:101240000F91FF90EF9008951F920F920FB60F929B
:1012500011240F900FBE0F901F901895CF93CFB70A
:10126000F8948091FF02811123C0E3E1FAE08491B8
:10127000E3EBF9E09491E82FF0E0EE0FFF1FEC595B
:10128000F64FA591B491EC91E92319F461E085E35F
:10129000BBD585E30E9491168CB580618CBD8CB561
:1012A00080648CBD84E30E94911683E30E949116B2
:1012B0008091FF028F5F8093FF02CFBFCF9108958F
:1012C0001F920F920FB60F9211240BB60F922F930D
:1012D0003F934F935F936F937F938F939F93AF93BE
:1012E000BF93EF93FF938091B900887F803609F414
:1012F0009CC068F5883209F45BC090F4803109F431
:1013000054C038F4882309F4F6C0883009F44DC07D
:10131000F5C0883109F44CC0803209F45DC0EEC0DC
:10132000803409F468C048F4803309F455C0883328
:1013300009F0E4C080935C05D8C0803509F44FC043
:10134000883509F45DC0883409F0D8C0D6C0883922
:1013500009F4C7C0A8F4883709F467C038F48836A0
:1013600009F463C0803709F460C0C8C0883809F444
:10137000B8C0803909F45FC0803809F0BFC05BC0D5
:10138000803B09F486C038F4803A09F466C0883A94
:1013900009F47FC0B3C0803C09F4A7C0883C09F4BD
:1013A000A4C0883B09F48AC0A9C08091390510C047
:1013B00090915B0580915A05981770F5E0915B0557
:1013C00081E08E0F80935B05F0E0E65CFA4F808150
:1013D0008093BB0085EC86C080935C058EC0E09155
:1013E0005B0581E08E0F80935B058091BB00F0E090
:1013F000E65CFA4F808390915B0580915A056EC040
:10140000E0915B0581E08E0F80935B058091BB00CE
:10141000F0E0E65CFA4F808380915D0581116DC03C
:1014200081E08093380584EA61C083E080935E05A3
:101430001092FE02CFCF8091FE02803208F051C0A0
:10144000E091FE0281E08E0F8093FE028091BB004E
:10145000F0E0E252FD4F8083BDCF85EC8093BC006D
:1014600010925E058091FE02803230F4E091FE021F
:10147000F0E0E252FD4F10826091FE0270E0E091D8
:10148000DC02F091DD028EED92E019951092FE02E1
:1014900035C084E080935E051092DB021092DA0280
:1014A000E091D802F091D90219958091DA02811168
:1014B00005C081E08093DA021092B802E091DB026D
:1014C00081E08E0F8093DB02F0E0E854FD4F8081D5
:1014D0008093BB009091DB028091DA02981708F4A8
:1014E00079CF85E88093BC0009C085EC8093BC006F
:1014F00010925E0503C010925C05FFDAFF91EF9138
:10150000BF91AF919F918F917F916F915F914F911B
:101510003F912F910F900BBE0F900FBE0F901F9019
:1015200018958EBD00000DB407FEFDCF8EB5089551
:101530008FEFF7CF0F931F93CF93DF93EB0119D565
:101540008B01F6DF8F3F41F014D5601B710B6C17D8
:101550007D07B8F380E001C081E0DF91CF911F915A
:101560000F910895CF93DF93EC018E81882379F05A
:101570008F8198859C012F5F3F4F38872F83823062
:10158000924010F4D5DFF4CFCE01B7DD1E82DF919B
:10159000CF910895CF92DF92FF920F931F93CF9335
:1015A000DF9300D01F92CDB7DEB76C01F62E2983F2
:1015B0003A834B835C83D6DFC601ACDD6CE271E01D
:1015C000C601B8DF8F2D8064ACDF08E110E05C81DC
:1015D0004B813A812981DA01C901002E04C0B695F8
:1015E000A795979587950A94D2F729833A834B83D9
:1015F0005C8397DF0850110929813A814B815C8116
:10160000083F8FEF180739F7FF2029F0E8E0FE12B6
:1016100004C087E803C085E901C08FEF82DF10E0D6
:1016200087DFF601828787FF04C01F3F11F01F5F2D
:10163000F7CF0F900F900F900F90DF91CF911F91E8
:101640000F91FF90DF90CF900895AF92BF92CF920D
:10165000DF92EF92FF920F931F93CF93DF93EC01F2
:101660006901C801820F931F8130924008F068C061
:101670008E81882371F088819981AA81BB81481766
:1016800059076A077B0729F48F819885C816D90600
:1016900088F5488359836A837B838B85833039F04F
:1016A00089E0440F551F661F771F8A95D1F79A016D
:1016B000AB0161E1CE016EDF882319F083E08D83F9
:1016C0003FC057D45B0134DF8A878F3F41F451D448
:1016D0006A197B096D327140B0F38FE003C08E3F11
:1016E00029F08DE08D83CE0108DD2AC018861F8287
:1016F00081E08E838F8198858C159D0538F418DFE5
:101700008F819885019698878F83F4CF6701E00ECB
:10171000F11ECE14DF0429F00BDFF60181936F0177
:10172000F8CF8F819885080F191F18870F83898537
:10173000882319F00115124038F0CE0113DF04C0E0
:10174000CE01DBDC80E001C081E0DF91CF911F9111
:101750000F91FF90EF90DF90CF90BF90AF900895E2
:101760002F923F924F925F926F927F928F929F92B1
:10177000AF92BF92CF92DF92EF92FF920F931F939F
:10178000CF93DF931F921F92CDB7DEB7FC01858107
:10179000882309F4D6C0848180FFD3C021E02A8346
:1017A000438954896589768982859385A485B58521
:1017B000481759076A077B0709F41A826F013A81B3
:1017C000832F90E0DE0111964D013F01B6E06B0ED4
:1017D000711C892B09F47CC0D6011A964D915D913C
:1017E0006D917C911D975A01B1E0BB22F6012581D4
:1017F0001A012B0189E056944794379427948A95CF
:10180000D1F7838D948D223061F4FC01828D938D0C
:10181000A48DB58DBC01CD01620D731D841D951D78
:1018200044C0DC0114961C9111501221A114B10482
:10183000C9F4111117C0452B462B472B51F4F60163
:101840008789908DA18DB28D86839783A087B1877C
:1018500009C046815781608571859301C6D488236C
:1018600009F46FC0F601238D348D86819781A085A0
:10187000B1850297A109B109AC01BD01F901058447
:1018800004C0440F551F661F771F0A94D2F7868540
:101890009785A089B189840F951FA61FB71FBC012A
:1018A000CD01610F711D811D911DD60114962C91E2
:1018B00026FF14C000910002109101022091020243
:1018C00030910302601771078207930749F506C03C
:1018D000FA81FF23B1F1898190E035C040E09FD3C8
:1018E000882379F1F501EC5EFC4FD401CF0101961C
:1018F000E817F90719F021912D93FACFEFEF8E1A1F
:101900009E0AF60182859385A485B5850196A11D61
:10191000B11D82879387A487B58780E090E059CF77
:10192000740101E010E09501AB01BC018091140548
:10193000909115058ADE882321F0BFEF8B1A9B0A50
:10194000E0CF8FEF9FEF0F900F90DF91CF911F911E
:101950000F91FF90EF90DF90CF90BF90AF909F904E
:101960008F907F906F905F904F903F902F90089551
:10197000FC01818D928D009709F0F2CE8FEF9FEFE1
:1019800008950F931F93CF93DF93FC01818D928D68
:101990000097A9F0EF01E4DE8C010F3F8FEF1807ED
:1019A00089F0898D9A8DFC01428553856485758502
:1019B0004150510961097109F2D6C80105C080E0A2
:1019C00090E002C08FEF9FEFDF91CF911F910F91B9
:1019D0000895EF92FF920F931F93CF93DF93EC0143
:1019E0007901411551056105710511F482E134C099
:1019F0008B85833039F089E0440F551F661F771FB0
:101A00008A95D1F79A01AB0168E1CE01C3DD882345
:101A100011F084E021C08EEF84DD87018EEFF81A8B
:101A2000F80181918F017DDD0E151F05C9F78FEF3C
:101A300078DD8FEF76DD7CDD8A878F71853029F048
:101A400081E18D83CE0159DB08C068E572E0CE01EB
:101A500071DD811106C085E18D83CE014EDB80E012
:101A600010C020E030E0A9016DE0CE0193DD8111CE
:101A700003C05EDD882311F084E1EECFCE013DDBB3
:101A800081E0DF91CF911F910F91FF90EF9008952A
:101A9000FC01538D448D252F30E0842F90E0821B74
:101AA000930B541710F0CF96089501970895FC01F9
:101AB000918D828D981761F0828DDF01A80FB11D85
:101AC0005D968C91928D9F5F9F73928F90E00895A9
:101AD0008FEF9FEF0895FC01918D828D981731F063
:101AE000828DE80FF11D858D90E008958FEF9FEFB7
:101AF0000895FC01918D228D892F90E0805C9F4F8D
:101B0000821B91098F7399270895FC01848DDF0151
:101B1000A80FB11DA35ABF4F2C91848D90E0019660
:101B20008F739927848FA689B7892C93A089B1894F
:101B30008C9180648C93938D848D981306C0028859
:101B4000F389E02D80818F7D80830895EF92FF924D
:101B50000F931F93CF93DF93EC0181E0888F9B8DD0
:101B60008C8D981305C0E889F989808185FD23C093
:101B7000F62E0B8D10E00F5F1F4F0F731127E02E15
:101B80008C8DE8120BC00FB607FCFACFE889F989F3
:101B9000808185FFF5CFCE01B8DFF2CF8B8DFE01BE
:101BA000E80FF11DE35AFF4FF0820B8FEA89FB89A2
:101BB0008081806207C0EE89FF896083E889F989A6
:101BC00080818064808381E090E0DF91CF911F91DC
:101BD0000F91FF90EF900895CF93DF93EC01888DE4
:101BE0008823C1F0EA89FB89808185FD05C0A88929
:101BF000B9898C9186FD0EC00FB607FCF5CF8081A8
:101C000085FFF2CFA889B9898C9185FFEDCFCE01F0
:101C10007CDFE8CFDF91CF91089580E090E0892BC1
:101C200019F0EDD7811125C080E090E0892B41F0BB
:101C300080E090E0892B21F00E94000081111CC0FF
:101C400080E090E0892B41F080E090E0892B21F04A
:101C50000E940000811113C080E090E0892BA1F068
:101C600080E090E0892B81F00E94000081110AC081
:101C700008950E940000D8CF0E940000E1CF0E948A
:101C80000000EACF0C94000008953FB7F8948091CB
:101C90000E0390910F03A0911003B091110326B58C
:101CA000A89B05C02F3F19F00196A11DB11D3FBF94
:101CB000BA2FA92F982F8827820F911DA11DB11D22
:101CC000BC01CD0142E0660F771F881F991F4A951E
:101CD000D1F708950E94D92080910403882399F1B7
:101CE0004091000250910102609102027091030242
:101CF00024E133E080911405909115056ADE81118D
:101D000002C080E008954091050350910603609160
:101D1000070370910803411551056105710589F0AC
:101D200024E133E0809114059091150552DE88235B
:101D300041F31092050310920603109207031092CC
:101D400008031092040381E008951F920F920FB6CA
:101D50000F9211240BB60F922F933F934F935F93E3
:101D60006F937F938F939F93AF93BF93EF93FF9363
:101D700082E895E0CADEFF91EF91BF91AF919F910C
:101D80008F917F916F915F914F913F912F910F9024
:101D90000BBE0F900FBE0F901F9018951F920F92C1
:101DA0000FB60F9211240BB60F922F938F939F9320
:101DB000EF93FF93E0919205F09193058081E0917C
:101DC0009805F091990582FD12C0908180919B0544
:101DD0008F5F8F7320919C05821751F0E0919B05D6
:101DE000F0E0EE57FA4F958F80939B0501C08081FC
:101DF000FF91EF919F918F912F910F900BBE0F90BC
:101E00000FBE0F901F901895362F90E0FC01E85EF2
:101E1000FE4F4491FC01E258F64F2491FC01E2523E
:101E2000F64F9491992309F46BC0442309F455C0EB
:101E300050E0FA013197E231F10508F04EC08827F1
:101E4000EE58FF4F8F4F0C94ED1F809180008F77DD
:101E500007C0809180008F7D03C080918000877FC4
:101E6000809380003AC084B58F7702C084B58F7D9F
:101E700084BD33C08091B0008F7703C08091B000E3
:101E80008F7D8093B00029C0809190008F7707C02C
:101E9000809190008F7D03C080919000877F809318
:101EA00090001BC08091A0008F7707C08091A00098
:101EB0008F7D03C08091A000877F8093A0000DC01C
:101EC000809120018F7707C0809120018F7D03C012
:101ED00080912001877F80932001E92FF0E0EE0FB1
:101EE000FF1FEC53F64FA591B4918FB7F894EC9186
:101EF000311103C020952E2301C02E2B2C938FBFB0
:101F000008958F929F92AF92BF92CF92DF92EF92FD
:101F1000FF926B017C01B9DE4B015C01C114D1045D
:101F2000E104F104E9F0B1DEDC01CB018819990983
:101F3000AA09BB09883E9340A105B10578F321E0C9
:101F4000C21AD108E108F10888EE880E83E0981ED5
:101F5000A11CB11CC114D104E104F10421F7DECFAE
:101F6000FF90EF90DF90CF90BF90AF909F908F90B9
:101F700008952FB7F89460910A0370910B03809134
:101F80000C0390910D032FBF08951F920F920FB66F
:101F90000F9211242F933F938F939F93AF93BF93EF
:101FA00080910A0390910B03A0910C03B0910D0353
:101FB0003091090323E0230F2D3720F40196A11D52
:101FC000B11D05C026E8230F0296A11DB11D209367
:101FD000090380930A0390930B03A0930C03B0931F
:101FE0000D0380910E0390910F03A0911003B09107
:101FF00011030196A11DB11D80930E0390930F0351
:10200000A0931003B0931103BF91AF919F918F9153
:102010003F912F910F900FBE0F901F9018958F92A8
:102020009F92AF92BF92EF92FF920F931F93CF9325
:102030004B015C01C42F8091000290910102A0919C
:102040000202B091030288159905AA05BB05F1F0BB
:1020500043DE811102C080E01FC084E1E82E83E0EE
:10206000F82E00E012E020E030E0B501A4018091FC
:10207000140590911505E9DA882369F3809200022E
:1020800090920102A0920202B09203028091040396
:10209000C82BC093040381E0CF911F910F91FF9053
:1020A000EF90BF90AF909F908F9008954F925F9266
:1020B0006F927F928F929F92AF92BF92CF92DF9258
:1020C000EF92FF920F931F93CF93DF93EC016A017E
:1020D0007B0128013901423051056105710510F479
:1020E00080E072C089859A85AB85BC850196A11D6B
:1020F000B11D84179507A607B70790F38B889C88B6
:10210000AD88BE888F89803129F4BB27AF2D9E2DE5
:102110008D2D09C0DB01CA0147E0B695A7959795BB
:1021200087954A95D1F7880E991EAA1EBB1E8091ED
:10213000000290910102A0910202B0910302881660
:102140009906AA06BB0679F48F89803199F4DD24BB
:10215000EE24FF24C601880F991FFC01EC5EFC4FA2
:102160005182408218C040E0C501B40158DF81119E
:10217000EBCFB6CFE894C7F8DD24EE24FF24C601E8
:10218000880F991F880F991FFC01EC5EFC4F40825D
:102190005182628273828091040381608093040380
:1021A0008A89823080F08D819E81AF81B885880ECA
:1021B000991EAA1EBB1E8092050390920603A09250
:1021C0000703B092080381E0DF91CF911F910F9137
:1021D000FF90EF90DF90CF90BF90AF909F908F9047
:1021E0007F906F905F904F9008958F929F92AF92E3
:1021F000BF92CF92DF92EF92FF920F931F93CF93F4
:10220000DF93FC0181859285A385B4850196A11D8C
:10221000B11D84179507A607B70710F480E05BC0CF
:1022200083899489A589B689C789C03129F4852E07
:10223000962EA72EBB2409C04A015B01C7E0B694C5
:10224000A79497948794CA95D1F7E9016A017B0115
:102250008F01BC01CD01680D791D8A1D9B1D8090E9
:10226000000290900102A0900202B0900302681553
:1022700079058A059B0599F4F80187898031A1F4D5
:10228000B701A601552766277727440F551FFA0186
:10229000EC5EFC4F80819181A0E0B0E017C040E08F
:1022A000BEDE8111E9CFBACFB701A6014F7755271E
:1022B00066277727440F551F440F551FFA01EC5E20
:1022C000FC4F80819181A281B381BF708883998303
:1022D000AA83BB8381E0DF91CF911F910F91FF9083
:1022E000EF90DF90CF90BF90AF909F908F90089528
:1022F0004F925F926F927F92AF92BF92CF92DF9296
:10230000EF92FF920F931F93CF93DF9300D01F9212
:10231000CDB7DEB78C0149835A836B837C83590127
:10232000C12CD12C7601412C82E0582E612C712CCD
:1023300049815A816B817C819E012F5F3F4FC8018B
:1023400054DF882351F1D301C201F801058404C090
:10235000880F991FAA1FBB1F0A94D2F7C80ED91E57
:10236000EA1EFB1E49815A816B817C8187898031FD
:1023700029F088EF9FEFAFEFBFE004C088EF9FEF39
:10238000A0E0B0E0481759076A077B0788F2F5011B
:10239000C082D182E282F38281E00F900F900F9091
:1023A0000F90DF91CF911F910F91FF90EF90DF90F1
:1023B000CF90BF90AF907F906F905F904F900895B7
:1023C0004F925F926F927F92AF92BF92CF92DF92C5
:1023D000EF92FF920F931F93CF93DF93CDB7DEB7AA
:1023E0002B970FB6F894DEBF0FBECDBF7C01CE0198
:1023F00001966C01FC0190E28BE08C0D91938E13A1
:10240000FDCFDA0130E047E09D91992339F19E320A
:1024100019F0E8E0F1E00AC04A3009F46EC138E092
:102420004AE0F2CF3196891709F467C1849181118E
:10243000F9CF431708F461C18FED890F8E3508F08D
:102440005CC181E0830FF601E30FF11D3FE9390F15
:102450003A3108F490529083382FD6CF8981803258
:1024600009F44BC1B22E8B01DB015B968D919C91DF
:102470005C97F701948F838F16961D921D921D9283
:102480001C921997FB011286138614861586712CEF
:10249000F80182859385A485B5854389548965892A
:1024A000768984179507A607B70708F060C025E06E
:1024B000B695A795979587952A95D1F7F82FFF7030
:1024C0006F2ED80115968C91823008F416C1C80180
:1024D00047D997FD12C1F80182859385A485B585FA
:1024E0004F96A11DB11D82879387A487B587F0E21F
:1024F0006F9EC0011124BC016C5E7C4F611571059B
:1025000009F4FBC0DB012C91222319F0253EC1F414
:1025100027C071100EC0F701628A409100025091ED
:102520000102609102027091030246875787608B17
:10253000718BFC01EC5EFC4F8081811113C015C0D2
:102540004BE050E0C6010E94DD20892B09F0A0CFAE
:102550008B2D8073803309F4D0C04B2D662DC9C0FC
:102560007720C9F27724739493CF772473948B2DBB
:102570008271823109F0C1C07720C9F0D7011E965F
:102580006D917D918D919C91519741E048DD88231B
:1025900009F4B3C0F7016289F0E26F9FB001112422
:1025A0006C5E7C4F6115710509F078C0A6C0D8013A
:1025B00015968C91823009F4A0C0C8010E9474075E
:1025C000882309F49AC0D8015B96ED91FC915C9741
:1025D00016964D905D906D907C901997B2E04B1AD5
:1025E000510861087108058404C0440C551C661C20
:1025F000771C0A94D2F786859785A089B189480E01
:10260000591E6A1E7B1EA480E1E04E1A5108610823
:102610007108AA2001F160DB882309F46EC0E4E1AF
:10262000F3E0119225E0E431F207D9F7D301C201BA
:102630008A0D911DA11DB11D80930002909301028E
:10264000A0930202B09303028091040381608093FF
:102650000403AA94DECFD8015B96ED91FC915C97C0
:1026600080E092E0A0E0B0E0058404C0880F991FEC
:10267000AA1FBB1F0A94D2F7F801438954896589C0
:102680007689840F951FA61FB71F838B948BA58B0C
:10269000B68BD70152961C9264E173E080E2FB0195
:1026A00011928A95E9F78BE0F601DB0101900D921A
:1026B0008A95E1F781E298E2DB0151969C938E9333
:1026C000509720E038E01F963C932E931E97539628
:1026D0009C938E93529759969C938E9358975796A6
:1026E0003C932E935697F8DA882339F04B2DF70157
:1026F0006289C7010E94600601C080E02B960FB678
:10270000F894DEBF0FBECDBFDF91CF911F910F9127
:10271000FF90EF90DF90CF90BF90AF907F906F9041
:102720005F904F900895CF93DF93EC018D818823C4
:1027300091F18C8187FF2CC06E857F85888999896E
:1027400041E06DDC882339F1EA8980E2E89FF001FD
:102750001124DF01AC5EBC4F1097E9F08D8182300F
:1027600050F44B895C896D897E895C964D935D93AD
:102770006D937C935F978F89988DA98DBA8DEC5E50
:10278000FC4F938F828FB58BA48B8C818F778C833A
:10279000DF91CF91A1CA80E0DF91CF9108958F9210
:1027A0009F92AF92BF92CF92DF92EF92FF920F93E0
:1027B0001F93CF93DF93EC018D81811102C080E0E4
:1027C00076C00B891C892D893E89041715072607B9
:1027D0003707A8F36A017B01823029F4CA86DB86B9
:1027E000EC86FD860DC0C114D104E104F10451F45E
:1027F0001E821F82188619861A861B861C861D86D5
:1028000081E055C08A849B84AC84BD84EB8DFC8DB3
:10281000258530E0275F3F4FB501A40141505109A4
:1028200061097109022E04C0769567955795479501
:102830000A94D2F7D701C6010197A109B10904C0D2
:10284000B695A795979587952A95D2F784179507FA
:10285000A607B70720F089288A288B2849F44F89D2
:10286000588D698D7A8D4E835F836887798704C020
:10287000841B950BA60BB70B4C015D018E010A5F03
:102880001F4F81149104A104B10409F4A7CF4E8114
:102890005F816885798598018B8D9C8DA6DC91E0A0
:1028A000891A9108A108B1088111EBCF88CFDF9177
:1028B000CF911F910F91FF90EF90DF90CF90BF903D
:1028C000AF909F908F9008952F923F924F925F927A
:1028D0006F927F928F929F92AF92BF92CF92DF9230
:1028E000EF92FF920F931F93CF93DF9300D01F922D
:1028F000CDB7DEB78C015B011A01DC0115968C9116
:1029000015978130C1F414968C9181FF14C082FF19
:102910001AC0F8014389548965897689828593852F
:10292000A485B58584179507A607B70761F0C80188
:1029300036DF811108C081E090E0F8019383828343
:1029400080E090E035C1610183C0D8015B968D9134
:102950009C915C97FC01248121502A013B0139E0C4
:1029600076946794579447943A95D1F7722E7420D1
:102970007A01F1E0FF22772009F476C080E092E04E
:102980008E199F0946018C159D0508F44C01D8014C
:102990005B962D913C915C9716968D919D910D9033
:1029A000BC91A02D0297A109B109F901058404C0C9
:1029B000880F991FAA1FBB1F0A94D2F74685578517
:1029C00060897189840F951FA61FB71F9C01AD01F7
:1029D000270D311D411D511D29013A01811432E09D
:1029E000930609F087C08091000290910102A091A6
:1029F0000202B091030284159505A605B70559F4A6
:102A00008FEF9FEFDC018093000290930102A0936F
:102A10000202B09303029501B301A2018091140553
:102A2000909115050E94E90C882309F484CF9EEF4C
:102A3000B91AC818D908F80182859385A485B58587
:102A4000880D991DA11DB11D82879387A487B58725
:102A5000D8011A964D915D916D917C911D97C1148D
:102A6000D10409F072CF84C0E114F10409F086CFDB
:102A700016964D915D916D917C9119974115510577
:102A80006105710559F457968D919D910D90BC91FA
:102A9000A02D0097A105B10539F520C09E012F5F3B
:102AA0003F4FA3DB882309F44CCF89819A81AB8106
:102AB000BC81F801238D348DF9012789203129F05B
:102AC00048EF5FEF6FEF7FE004C048EF5FEF60E03B
:102AD00070E084179507A607B70730F0C8010E9479
:102AE000740781114BCF27CFF80186839783A08786
:102AF000B18744CFE114F10421F5D8011A964D9124
:102B00005D916D917C911D9753968D919D910D9046
:102B1000BC91A02D481759076A077B0790F0DCD8B5
:102B2000882309F408CF409200025092010260927B
:102B30000202709203028091040381608093040377
:102B400007C041E0C301B2016ADA882309F4F3CE79
:102B5000D501F701EC5EFC4FCF01880D991DE817F8
:102B6000F90719F02D912193FACFA80CB91C61CF68
:102B700053968D919D910D90BC91A02D8417950732
:102B8000A607B70740F4F801438B548B658B768B0F
:102B9000848180688483D80114968C9183FD02C05F
:102BA000C10106C0C801BFDD882309F4C4CEF8CF37
:102BB0000F900F900F900F90DF91CF911F910F9179
:102BC000FF90EF90DF90CF90BF90AF909F908F904D
:102BD0007F906F905F904F903F902F900895CF938C
:102BE000DF931F92CDB7DEB7698341E050E0BE01AD
:102BF0006F5F7F4F69DE0F90DF91CF91089582E87C
:102C000095E00E94790D21E0892B09F420E0822FC4
:102C10000895382F2091810590918206213208F085
:102C200049C080915E058111FCCF42E040935E0572
:102C300030935D053FEF30935C0510925B05209368
:102C40005A05A1E6B5E04AE355E0FA013E2F341BF0
:102C5000321718F43D913193F9CF10923905209134
:102C60003905990F922B9093390590913805913041
:102C700061F410923805909139059093BB009091C2
:102C8000BC0093FDF8CF95EC01C095EE9093BC008D
:102C900090915E059230E1F390915C059F3F79F051
:102CA00080915C05803241F080915C05803331F089
:102CB00084E005C081E003C082E001C083E010929F
:102CC00060051092810510925F050895CF92DF9202
:102CD000EF92FF920F931F93CF93DF936C017A01D2
:102CE0008B01C0E0D0E0CE15DF0589F0D8016D91F1
:102CF0008D01D601ED91FC910190F081E02DC6018E
:102D00001995892B11F47E0102C02196ECCFC701E1
:102D1000DF91CF911F910F91FF90EF90DF90CF90B7
:102D2000089590E0FC01E258F64F2491FC01E25234
:102D3000F64F8491882399F090E0880F991FFC0149
:102D4000EC59F64FA591B491FC01EC53F64F8591E7
:102D500094918FB7F894EC91E22BEC938FBF089588
:102D60002F923F924F925F926F927F928F929F929B
:102D7000AF92BF92CF92DF92EF92FF920F931F9389
:102D8000CF93DF93CDB7DEB7C756D1090FB6F8940E
:102D9000DEBF0FBECDBF5C014B01A6964FAFA6971D
:102DA0003E018EE1680E711C6BE476E0C3010E9467
:102DB0009E081C821B8284E392E09A8389831E8290
:102DC00064018E010F5F1F4F230118016FE270E055
:102DD000C6010E94F320009709F441C0F60120814A
:102DE0002F3221F4FFEFCF1ADF0AF0CF8C198D308C
:102DF00008F08CE0E82EF12CA701B601CE01885A2C
:102E00009F4F0E940521E8E5F0E0EC0FFD1FEE0D5D
:102E1000FF1D1082C8010E946807F8018581882380
:102E200051F01EAE1DAE84E392E09CAF8BAF2196B5
:102E30001FAE219720C021E0AE01485A5F4FB2017A
:102E4000C801BEDA882369F3CE0CDF1CC2010E94E0
:102E50006807942D852D2801092F182FB7CFC6019B
:102E600088199909A8969FAF8EAFA897B201CE0195
:102E7000CB960E949E08A896EEADFFADA8978E0E49
:102E80009F1EF4018081811109C0BE01655C7F4FE6
:102E9000C1010E949E0843EB52E048C019A218A24B
:102EA00084E392E09F8F8E8F1BA221968FAD219796
:102EB000811113C0F5011382128288EE93E0A0E025
:102EC000B0E084839583A683B78380E192E0918309
:102ED0008083128E118E14862DC08250A6962FAD3F
:102EE000A697A401823038F46BE476E0C30168DA77
:102EF00081110CC0DFCFBE01655C7F4FC30160DA7A
:102F00008823C1F2CE01CB960E946807A6968FADAA
:102F1000A697867031F049A95AA96BA97CA9C3016B
:102F20003EDCB301C1010E949E08A401B101C501AC
:102F30000E94EF08C501C959DF4F0FB6F894DEBFF4
:102F40000FBECDBFDF91CF911F910F91FF90EF90FA
:102F5000DF90CF90BF90AF909F908F907F906F90B9
:102F60005F904F903F902F90089542E050E065EBC6
:102F700072E082E895E0AACE0F931F93CF93DF9380
:102F80008C01C0E0D0E0F801EC0FFD1F64916623D6
:102F900071F0E0918205F09183050190F081E02DC0
:102FA00082E895E01995892B11F02196ECCFCE019E
:102FB000DF91CF911F910F910895CF93DF93DCDFC5
:102FC000EC01D3DF8C0F9D1FDF91CF9108950F93FC
:102FD0001F93CF93DF93EC010E94B90F6887798725
:102FE0008A879B87CE010E94B80C97FF17C00E946A
:102FF000B90F088519852A853B85DC01CB01801B2B
:10300000910BA20BB30B0C811D812E813F81801788
:103010009107A207B30730F38FEF9FEFDF91CF91B6
:103020001F910F910895CF93C62F20917B0630E01A
:103030003595279591E090935F0520938206109235
:10304000600510928105682F8AE696E00E940A06C4
:103050006C2F8AE696E00E940A0681E0DADD811193
:1030600008C061E070E080E090E00E94810F81E0A4
:1030700001C080E0CF910895CF93DF93EB012091C1
:103080007B0630E03595279591E090935F0520937E
:1030900082061092600510928105682F8AE696E0FC
:1030A0000E940A0681E0B5DD80917B0690915E0565
:1030B0009111FCCF91E090935E0590935D052FEF09
:1030C00020935C0510925B0510925A059093390588
:1030D000909139058E7F892B809339058091380531
:1030E000813061F410923805809139058093BB00DE
:1030F0008091BC0083FDF8CF85EC01C085EE809304
:10310000BC0080915E058130E1F380915B05811107
:1031100003C080915B0501C081E0AAE3B5E028E12E
:1031200035E0F9019E2F921B981718F49D91919309
:10313000F9CF1092170580931605882329F08AE6A7
:1031400096E00E94BF05888361E070E080E090E037
:103150000E94810F81E0DF91CF910895EF92FF925D
:103160000F931F93CF93DF93EC01E12CF12C00E040
:1031700010E08FEFE816F10461F0FE010591149163
:10318000FE013296E590F490B701C8014CDF249619
:10319000F0CF0F3F110589F781E090E0DF91CF91EB
:1031A0001F910F91FF90EF9008958F929F92AF9291
:1031B000BF92CF92DF92EF92FF92CF93DF93C82F0F
:1031C00081E296E09093150580931405CC2369F174
:1031D000C53010F080E00CC140E060E070E0CB0151
:1031E0000E940F108823B1F320E1C29FC001112477
:1031F0008C5F9C4FFC01E254FE4F20812F7751F7EA
:103200003C9640815181628173814436510561054C
:10321000710500F33497C080D180E280F380C1143F
:10322000D104E104F10421F4D5CFC12CD12C7601D5
:1032300040E0C701B6010E940F10882359F2809127
:103240001F03909120038115924021F6A091240341
:10325000AA2309F4BFCF6091220370912303611563
:10326000710509F4B7CF20912103222309F4B2CFCD
:10327000A0933F062093310680E030E0E1E0F0E0EB
:10328000C82FAF01082E02C0440F551F0A94E2F761
:103290002417350741F0982F8F5F983089F789E020
:1032A00080933A0697CF80933A0620912A03309173
:1032B0002B032115310519F040E050E008C02091A2
:1032C00038033091390340913A0350913B032093E6
:1032D0003206309333064093340650933506460148
:1032E0005701860E971EA11CB11C80924006909239
:1032F0004106A0924206B0924306E0912503F09168
:103300002603F0934606E0934506B0E04DD6860EC0
:10331000971EA81EB91E8092470690924806A0925A
:103320004906B0924A0685E0EE0FFF1F8A95E1F745
:10333000E150FE4FEF2FFF27E6958E0E9F1EA11C3A
:10334000B11C80923B0690923C06A0923D06B09242
:103350003E0620912703309128032115310521F0E5
:10336000A90160E070E008C040913403509135033A
:103370006091360370913703D701C6018819990906
:10338000AA09BB09840F951FA61FB71F04C0B695D5
:10339000A79597958795CA95D2F78093360690930F
:1033A0003706A0933806B0933906853F2FE0920781
:1033B000A105B10510F48CE018C0853F9F4FA10511
:1033C000B10510F480E111C0809140039091410358
:1033D000A0914203B091430380934706909348061F
:1033E000A0934906B0934A0680E28093440681E0A8
:1033F000DF91CF91FF90EF90DF90CF90BF90AF9093
:103400009F908F900895CF93DF93009771F0FC0108
:1034100001900020E9F73197AF01481B590BBC011F
:1034200082E895E053DCEC0102C0C0E0D0E09DDD15
:103430008C0F9D1FDF91CF9108950F931F93CF9312
:10344000DF93EC0188819981009729F02A813B81E3
:103450002617370780F48B016F5F7F4FC6D5009723
:1034600061F0998388831B830A832C813D81232B00
:1034700011F4FC01108281E001C080E0DF91CF9166
:103480001F910F910895EF92FF920F931F93CF9387
:10349000DF93EC01198218821B821A821D821C8222
:1034A0006115710531F18B01FB0101900020E9F7F5
:1034B00031977F01E61AF70AB701BFDF288139810A
:1034C00081110CC02115310511F0C9019AD419825E
:1034D00018821D821C821B821A820BC0FD82EC8224
:1034E000B801C901DF91CF911F910F91FF90EF902B
:1034F00085C6DF91CF911F910F91FF90EF900895B6
:1035000080917C0690917D067CC4CF93DF93CDB7EC
:10351000DEB7A3970FB6F894DEBF0FBECDBF789489
:1035200084B5826084BD84B5816084BD85B58260C8
:1035300085BD85B5816085BD80916E008160809379
:103540006E001092810080918100826080938100E2
:1035500080918100816080938100809180008160F2
:10356000809380008091B10084608093B10080914D
:10357000B00081608093B000809191008260809360
:1035800091008091910081608093910080919000E2
:103590008160809390008091A10082608093A1005F
:1035A0008091A10081608093A1008091A000816042
:1035B0008093A000809121018260809321018091FD
:1035C000210181608093210180912001816080939D
:1035D000200180917A00846080937A0080917A0043
:1035E000826080937A0080917A00816080937A0073
:1035F00080917A00806880937A001092C1001092C6
:103600001705109216051092600510928105109210
:103610005E0581E080935D051092380561E084E1EC
:103620000E94040F61E085E10E94040F8091B900BF
:103630008E7F8093B9008091B9008D7F8093B9000F
:1036400088E48093B80085E48093BC00E091920503
:10365000F091930582E08083E0918E05F0918F05D3
:103660001082E0919005F091910580E180831092A5
:103670009A05E0919605F091970586E08083E091A8
:103680009405F0919505808180618083E091940597
:10369000F0919505808188608083E0919405F09198
:1036A0009505808180688083E0919405F09195056F
:1036B00080818F7D80838DE499E07FDC86E399E0D3
:1036C0007CDC87E02EDB81E299E056DC10922C0650
:1036D00010922A06109227061092260684E0809304
:1036E00025060E94B90F8B01809125061ADB61E047
:1036F000809125060E94040F0E942E0982E5809386
:103700001F061092200680911F06909120060E94AD
:1037100087085AE0F52E8FEF0E94910AFA94F11073
:10372000FACF81E296E00E948A0820E030E0A90109
:1037300060E081E296E00E94CA0AF82E80932B0690
:1037400081E0F81649F00E94B90F601B710B613DD2
:10375000774058F381E056C02AEA31E040E050E07B
:1037600068E081E296E00E94CA0A82FF03C0F092FC
:103770002C0610C044E0F42E0E94980A80932B0679
:10378000FA94F110F9CF8A3A11F082E03BC082E05E
:1037900080932C0680912C06823021F0C12CD12CF4
:1037A000760105C0C12CD12CE12C30E4F32E20E0B1
:1037B00030E0A90167E381E296E00E94CA0AA7010E
:1037C000960169E281E296E00E94CA0A80932B0684
:1037D000882349F00E94B90F601B710B613D77404F
:1037E00030F388E00FC080912C06823001F520E094
:1037F00030E0A9016AE381E296E00E94CA0A8823C8
:1038000041F086E08093260681E296E00E947D08E2
:103810009CC00E94980A807C803C19F483E08093CD
:103820002C060E94980A0E94980A0E94980A81E237
:1038300096E00E947D0880E580931F061092200686
:1038400081E0B3DC882329F080915006882339F089
:103850007CC080E0AADC882309F477C0F5CF809192
:103860004406803109F582E080935006109262068A
:1038700010926306109264061092650680914506C8
:1038800090914606A0E0B0E025E0880F991FAA1F9E
:10389000BB1F2A95D1F780935E0690935F06A09395
:1038A0006006B09361061EC0803209F04EC083E00E
:1038B0008093500640914706509148066091490612
:1038C00070914A06409362065093630660936406C3
:1038D000709365062EE536E08DE296E00E94781141
:1038E000882399F18DE296E09093670680936606AF
:1038F00081E080934F06109251061092520610926A
:1039000053061092540610925506109256061092C5
:103910005706109258061092590610925A061092A5
:103920005B0610925C0610925D068DEE98E045DB1A
:1039300060917C0670917D0641E0CE01019610DA1F
:10394000EA8DFB8D309729F45EC088E099E035DB85
:103950000FC18581882309F456C0CE0101960E94CB
:103960004605892B09F443C067EB72E0CE014C9603
:103970008ADDCE0101962BDB97FD1CC08A309105B4
:10398000C9F08AA31BA208A119A10F5F1F4FB8019C
:10399000CE014C9652DD882361F32C8D3D8D88A19C
:1039A00099A1BE016E5D7F4F820F931F27D419A38B
:1039B00008A3DFCF8FED98E000DB48A159A16C8D03
:1039C0007D8D82E895E082D9D0DA0C8D1D8D0115B0
:1039D000110519F0C801ADD203C060E070E0CB0161
:1039E0007093050260930402C8010BD2B6CF8A8D92
:1039F0009B8D009759F00E9468078A8D9B8D01D29C
:103A00001B8E1A8E03C080EC98E0D7DA0E942E0934
:103A1000E0917606F0917706908180917806809506
:103A20008923808380E80E94910A85E50E94910A9B
:103A3000E0917606F0917706908180917806892B47
:103A40008083E0917606F0917706908180917806E8
:103A500080958923808380E00E94910A80E00E9403
:103A6000910AE0917606F091770620819091780690
:103A7000922B9083853551F083EA98E09EDA68EEC8
:103A800073E080E090E00E94810FC2CF89E898E067
:103A900094DA61E070E08FEF90E0C5DABE016E5D10
:103AA0007F4F8AE0E9DABE01645E7F4F8BE0E4DAA3
:103AB0008AA1863251F087E698E07FDA68EE73E0FB
:103AC00080E090E00E94810FE4CF8EE498E075DA08
:103AD00081E08093790680917A06853069F561E00E
:103AE00070E08FEF90E09FDA60E870E082E190E0B4
:103AF0009ADA64E670E080E090E00E94810F8091A5
:103B000079068130B1F48AE492E028DB82E292E027
:103B100025DB8EEF91E022DB61E070E08FEF90E03B
:103B200082DA60E070E085E190E07DDA8EE591E098
:103B300002C086E495E012DB8EE591E00FDBE091B8
:103B40007606F0917706908180917806809589239A
:103B5000808384E80E94910A81E00E94910AE091AA
:103B60007606F0917706908180917806892B808384
:103B700001E010E08091120390911303892B71F5FD
:103B80008CE692E040DC10931303009312036FE77E
:103B900072E0CE014C9677DC6C8D7D8D42E5CE01D6
:103BA0000196DED8EA8DFB8D309791F085818823D0
:103BB00079F087E892E027DC8A8D9B8D009759F099
:103BC0000E9468078A8D9B8D1CD11B8E1A8E03C0A4
:103BD00083E992E018DC8C8D9D8D13D10E940D0E2F
:103BE000C9CFCF93DF93E2E8F5E01382128288EE2B
:103BF00093E0A0E0B0E084839583A683B78322E2BC
:103C000032E03183208325EC30E03587248724ECB3
:103C100030E03787268720EC30E0318B208B21EC99
:103C200030E0338B228B22EC30E0358B248B26EC7A
:103C300030E0378B268B118E128E138E148EEFE1AF
:103C4000F6E020E520831182E1E2F6E0158216829B
:103C50001186138642E050E060E070E044875587AB
:103C60006687778713A215A614A624E332E033A74C
:103C700022A717A6EAE6F6E01382128284839583D0
:103C8000A683B78380E492E09183808367EA72E041
:103C90008CE796E0F8DBE5EEF9E0E491F0E0EE0F7A
:103CA000FF1FEC53F64F85919491C6E7D6E09983B8
:103CB0008883E5E8F9E0E491EA8387E032D8E88197
:103CC000F98190818A81892B808385E08C8380E6CD
:103CD0008D83DF91CF910895CF93DF93823091054B
:103CE00010F482E090E0E0918506F091860620E0F5
:103CF00030E0C0E0D0E0309711F1408151814817A9
:103D00005907C0F04817590761F4828193812097C1
:103D100019F09B838A832BC0909386068093850637
:103D200026C02115310519F04217530718F49A01DE
:103D3000BE01DF01EF010280F381E02DDCCF211510
:103D4000310509F1281B390B2430310590F4129606
:103D50008D919C9113976115710521F0FB0193835F
:103D6000828304C09093860680938506FD01329677
:103D700044C0FD01E20FF31F81939193225031095A
:103D80002D933C933AC02091830630918406232BD7
:103D900041F4209108023091090230938406209367
:103DA000830620910602309107022115310541F466
:103DB0002DB73EB740910A0250910B02241B350BE0
:103DC000E0918306F0918406E217F307A0F42E1B1E
:103DD0003F0B2817390778F0AC014E5F5F4F24176F
:103DE000350748F04E0F5F1F5093840640938306BB
:103DF0008193919302C0E0E0F0E0CF01DF91CF9199
:103E000008950F931F93CF93DF93009709F48CC00D
:103E1000FC0132971382128200918506109186066A
:103E20000115110581F420813181820F931F2091AA
:103E30008306309184062817390779F5F0938406B4
:103E4000E093830671C0D80140E050E0AE17BF0791
:103E500050F412962D913C911397AD012115310527
:103E600009F1D901F3CF9D01DA0133832283608107
:103E70007181860F971F8217930769F4EC012881DF
:103E80003981260F371F2E5F3F4F318320838A8170
:103E90009B8193838283452B29F4F0938606E093DC
:103EA000850642C01396FC93EE931297ED0149915B
:103EB00059919E01240F351FE217F30771F4808199
:103EC0009181840F951F029611969C938E93828107
:103ED000938113969C938E931297E0E0F0E0D801C3
:103EE00012968D919C911397009719F0F8018C010F
:103EF000F6CF8D919C9198012E5F3F4F820F931FBB
:103F000020918306309184062817390769F4309789
:103F100029F4109286061092850602C0138212823E
:103F20001093840600938306DF91CF911F910F9128
:103F300008951F93FC0199278827BC01E8941191EB
:103F40001032E9F3193010F01E30C8F31B3249F07B
:103F50001D3241F4689405C012D0610F711D811D9E
:103F6000911D119110531A30B8F33EF4909580953D
:103F7000709561957F4F8F4F9F4F1F910895592FD7
:103F8000482F372F262F660F771F881F991F660F20
:103F9000771F881F991F620F731F841F951F660F5D
:103FA000771F881F991F089509D0A59F900DB49F72
:103FB000900DA49F800D911D11240895A29FB00122
:103FC000B39FC001A39F700D811D1124911DB29F4D
:103FD000700D811D1124911D0895EE0FFF1F881F84
:103FE0008BBF0790F691E02D19946F927F928F927C
:103FF0009F92AF92BF92CF92DF92EF92FF920F9378
:104000001F93CF93DF93EC01009781F4CB01DF91F5
:10401000CF911F910F91FF90EF90DF90CF90BF90C5
:10402000AF909F908F907F906F9056CEFC01E60FDF
:10403000F71F9C0122503109E217F30708F4A8C0CA
:10404000D9010D911C91119706171707A8F005309B
:10405000110508F49BC0C80104978617970708F458
:1040600095C002501109061B170B019311936D9314
:104070007C93CF01C6DE8AC05B01A01AB10A4C0155
:10408000800E911EA0918506B091860640E050E01A
:10409000E12CF12C109709F44AC0A815B905D1F507
:1040A0006D907C901197630182E0C80ED11CCA14F8
:1040B000DB0480F1A3014A195B096A0182E0C80EA2
:1040C000D11C1296BC9012971396AC91B5E0CB160A
:1040D000D10440F0B282A38351834083D9016D9310
:1040E0007C930AC00E5F1F4FC301800F911FF9011F
:1040F00091838083EB2DFA2FE114F10431F0D70185
:104100001396FC93EE93129741C0F0938606E093CA
:1041100085063CC08D919C9111974817590708F46A
:10412000AC017D0112960D90BC91A02DB3CF809172
:1041300083069091840688159905E1F44617570780
:10414000C8F48091060290910702009741F48DB760
:104150009EB740910A0250910B02841B950BE81701
:10416000F907B0F4F0938406E0938306F9017183B4
:1041700060830CC0CB01B0DD7C01009749F0A80141
:10418000BE0128D0CE013DDEC70104C0CE0102C071
:1041900080E090E0DF91CF911F910F91FF90EF9021
:1041A000DF90CF90BF90AF909F908F907F906F9057
:1041B000089581E090E0F89437C0FB01DC0104C071
:1041C0008D910190801921F441505040C8F7881B0F
:1041D000990B0895FB01DC0102C001900D92415042
:1041E0005040D8F70895FC018191861721F088236B
:1041F000D9F7992708953197CF010895FB01DC0184
:1042000001900D920020E1F70895FB01DC0141507F
:10421000504048F001900D920020C9F701C01D9256
:1042200041505040E0F7089515E0C3E1D5E000E0CB
:1042300005C0802FFE01D1DE2196011DC431D107BA
:0A42400080E00807B1F7F894FFCF03
:10424A00FFFFFFFF08020000870680000000000051
:10425A006705440639063C064605B80CC10C000041
:10426A000000A60D6616480DEC0D790D570D6B0D65
:10427A0000000000EF156616390638060000000037
:10428A000A06DB053906AF05D305BF05B0050000F0
:10429A0000006A0E6616390638066A0E6A0E6A0E3B
:1042AA00000000006A0E66163906380653746172F9
:1042BA0074696E6720657865637574696F6E006DE1
:1042CA0079742E7478740046696C65206F70656E17
:1042DA0065640046696C65206661696C6564207472
:1042EA006F206F70656E00696D67437472332E7448
:0842FA007874002F000D0A008A
:00000001FF
