:1000000072C000009EC000009CC000009AC00000AA
:1000100098C0000096C0000094C0000092C000008C
:1000200090C000008EC000008CC000008AC000009C
:1000300088C0000086C0000084C0000082C00000AC
:1000400080C000007EC000007CC000007AC00000BC
:1000500078C0000076C0000074C00000D0C200006C
:1000600070C0000096C200006BC200006AC00000B1
:1000700068C0000066C0000064C0000062C00000EC
:1000800060C000005EC000005CC000005AC00000FC
:1000900058C0000056C0000054C0000052C000000C
:1000A00050C000004EC000004CC000004AC000001C
:1000B00048C0000046C0000044C0000042C000002C
:1000C00040C000003EC000003CC000003AC000003C
:1000D00038C0000036C0000034C0000032C000004C
:1000E00030C000009F0411241FBECFEFD1E2DEBF5D
:1000F000CDBF00E00CBF12E0A0E0B2E0E8EFF9E015
:1001000000E00BBF02C007900D92A237B107D9F7EC
:1001100023E0A2E7B2E001C01D92A632B207E1F7E8
:1001200010E0C3E7D0E000E005C021970109802F6F
:10013000FE0154D4C237D10780E00807B1F7A9D235
:1001400059C45ECFCF92DF92EF92FF920F931F932D
:10015000CF93DF936C017A018B01C0E0D0E0CE1524
:10016000DF0589F0D8016D918D01D601ED91FC91EB
:100170000190F081E02DC6011995892B11F47E01C3
:1001800002C02196ECCFC701DF91CF911F910F9153
:10019000FF90EF90DF90CF900895089580E090E079
:1001A0000895FC01538D448D252F30E0842F90E07D
:1001B000821B930B541710F0CF9608950197089562
:1001C000FC01918D828D981761F0828DDF01A80F5F
:1001D000B11D5D968C91928D9F5F9F73928F90E081
:1001E00008958FEF9FEF0895FC01918D828D9817F0
:1001F00031F0828DE80FF11D858D90E008958FEF2D
:100200009FEF0895FC01918D228D892F90E0805CF5
:100210009F4F821B91098F739927089589E892E077
:10022000F1DF21E0892B09F420E0822F0895FC0101
:10023000848DDF01A80FB11DA35ABF4F2C91848D6F
:1002400090E001968F739927848FA689B7892C93A4
:10025000A089B1898C9180648C93938D848D98133F
:1002600006C00288F389E02D80818F7D8083089508
:10027000EF92FF920F931F93CF93DF93EC0181E0F6
:10028000888F9B8D8C8D981305C0E889F9898081B2
:1002900085FD23C0F62E0B8D10E00F5F1F4F0F73EF
:1002A0001127E02E8C8DE8120BC00FB607FCFACF99
:1002B000E889F989808185FFF5CFCE01B8DFF2CFDB
:1002C0008B8DFE01E80FF11DE35AFF4FF0820B8F7B
:1002D000EA89FB898081806207C0EE89FF8960839B
:1002E000E889F98980818064808381E090E0DF91F2
:1002F000CF911F910F91FF90EF900895CF93DF93CF
:10030000EC01888D8823C1F0EA89FB89808185FD15
:1003100005C0A889B9898C9186FD0EC00FB607FC6F
:10032000F5CF808185FFF2CFA889B9898C9185FFAF
:10033000EDCFCE017CDFE8CFDF91CF91089580E053
:1003400090E0892B19F06ADF811125C080E090E0F0
:10035000892B41F080E090E0892B21F00E94000081
:1003600081111CC080E090E0892B41F080E090E09A
:10037000892B21F00E940000811113C080E090E0E1
:10038000892BA1F080E090E0892B81F00E94000091
:1003900081110AC008950E940000D8CF0E94000079
:1003A000E1CF0E940000EACF0C94000008953FB70F
:1003B000F8948091770290917802A0917902B0919F
:1003C0007A0226B5A89B05C02F3F19F00196A11D02
:1003D000B11D3FBFBA2FA92F982F8827820F911DDB
:1003E000A11DB11DBC01CD0142E0660F771F881F22
:1003F000991F4A95D1F70895009761F0FC0101908B
:100400000020E9F73197AF01481B590BBC0189E87F
:1004100092E098CE80E090E00895CF93DF93ECDFF8
:10042000EC0186E192E0E8DF8C0F9D1FDF91CF9118
:1004300008958F929F92AF92BF920F931F93CF9385
:10044000DF93CDB7DEB7A1970FB6F894DEBF0FBE2E
:10045000CDBF19A2423008F44AE08E010F5D1F4F54
:10046000842E912CA12CB12CA501940195D2E62FBC
:10047000B901CA0101501109EA3014F4E05D01C06C
:10048000E95CD801EC93232B242B252B69F7C801B9
:10049000B3DFA1960FB6F894DEBF0FBECDBFDF91DC
:1004A000CF911F910F91BF90AF909F908F90089523
:1004B000CF93DF93682F70E080E090E04AE0B9DFEF
:1004C000EC0186E192E098DF8C0F9D1FDF91CF91C8
:1004D0000895CF92DF92EF92FF92CF93DF936C015A
:1004E000990FEE08FF08F7FE19C0E0918902F0911C
:1004F0008A020190F081E02D6DE289E892E0199581
:10050000EC0166277727CB016C197D098E099F09BD
:100510004AE08FDF7C01EC0EFD1E05C04AE0C701FA
:10052000B60187DF7C0186E192E066DF8E0D9F1DBC
:10053000DF91CF91FF90EF90DF90CF90089556D24A
:100540001F920F920FB60F9211240BB60F922F939A
:100550003F934F935F936F937F938F939F93AF934B
:10056000BF93EF93FF9389E892E061DEFF91EF91F3
:10057000BF91AF919F918F917F916F915F914F91BB
:100580003F912F910F900BBE0F900FBE0F901F90B9
:1005900018951F920F920FB60F9211240BB60F925F
:1005A0002F938F939F93EF93FF93E0919902F09194
:1005B0009A028081E0919F02F091A00282FD12C018
:1005C00090818091A2028F5F8F732091A302821786
:1005D00051F0E091A202F0E0E757FD4F958F809334
:1005E000A20201C08081FF91EF919F918F912F9185
:1005F0000F900BBE0F900FBE0F901F9018951F927B
:100600000F920FB60F9211242F933F938F939F93C6
:10061000AF93BF938091730290917402A091750281
:10062000B09176023091720223E0230F2D3720F42F
:100630000196A11DB11D05C026E8230F0296A11D3C
:10064000B11D209372028093730290937402A09361
:100650007502B09376028091770290917802A09112
:100660007902B0917A020196A11DB11D80937702A3
:1006700090937802A0937902B0937A02BF91AF91E0
:100680009F918F913F912F910F900FBE0F901F90D0
:100690001895789484B5826084BD84B5816084BDEA
:1006A00085B5826085BD85B5816085BD80916E0010
:1006B000816080936E001092810080918100826041
:1006C000809381008091810081608093810080917E
:1006D00080008160809380008091B100846080936D
:1006E000B1008091B00081608093B0008091910052
:1006F000826080939100809191008160809391004D
:10070000809190008160809390008091A100826030
:100710008093A1008091A10081608093A1008091CD
:10072000A00081608093A00080912101826080936D
:10073000210180912101816080932101809120011C
:1007400081608093200180917A00846080937A0098
:1007500080917A00826080937A0080917A00816033
:1007600080937A0080917A00806880937A0010925A
:10077000C100E0919902F0919A0282E08083E091B9
:100780009502F09196021082E0919702F091980202
:1007900080E180831092A102E0919D02F0919E027F
:1007A00086E08083E0919B02F0919C0280818061D1
:1007B0008083E0919B02F0919C028081886080831D
:1007C000E0919B02F0919C02808180688083E0919F
:1007D0009B02F0919C0280818F7D808389E192E071
:1007E0001CDE8EE365DE8EEF63DE8EE39EEF71DE50
:1007F00084E292E012DE82EC5BDE81E059DE8EE282
:1008000092E00BDE82EC91E064DE82EC51DE81E06E
:100810004FDE8091870290918802853127E292070E
:100820002CF401969093880280938702809187022E
:10083000909188028130910569F487E692E0EDDDC0
:10084000B6DD609383027093840280938502909357
:10085000860273C0803137E293070CF04EC0A7DDEB
:10086000C0908302D0908402E0908502F0908602CE
:100870009B01AC012C193D094E095F0969017A0100
:1008800020937F0230938002409381025093820232
:100890008EDD60938302709384028093850290932F
:1008A000860280917B0290917C02A0917D02B091A2
:1008B0007E028C159D05AE05BF0548F4C0927B02F3
:1008C000D0927C02E0927D02F0927E0236C080914E
:1008D000000290910102A0910202B0910302C81699
:1008E000D906EA06FB0648F5C0920002D092010242
:1008F000E0920202F092030220C080319742E9F4B4
:100900008DE692E08ADD6091000270910102809193
:100910000202909103024AE08CDD86E192E06CDDF8
:1009200060917B0270917C0280917D0290917E02A9
:100930004AE07FDD86E192E05FDD01DD6ACFE9E834
:10094000F2E01382128288EE93E0A0E0B0E08483AC
:100950009583A683B78388E092E09183808385ECBA
:1009600090E09587848784EC90E09787868780EC79
:1009700090E0918B808B81EC90E0938B828B82EC6A
:1009800090E0958B848B86EC90E0978B868B118E14
:10099000128E138E148E0895A1E21A2EAA1BBB1B71
:1009A000FD010DC0AA1FBB1FEE1FFF1FA217B3073B
:1009B000E407F50720F0A21BB30BE40BF50B661F51
:1009C000771F881F991F1A9469F760957095809515
:1009D00090959B01AC01BD01CF010895EE0FFF1F63
:1009E000881F8BBF0790F691E02D199481E090E06D
:0809F000F89400C0F894FFCF59
:1009F8009F860100000000003801A200D1007E019E
:100A08000201E000F4000D0A005072696E74202D96
:100A1800343530005072696E7420343530005072AD
:100A2800696E742034353020627920666F726D6982
:100A38006E672061206E756D6265722072656164F3
:100A4800696E6720746865206279746573206672C0
:100A58006F6D2069742E00537461727400456E6462
:020A680000008C
:00000001FF
