:1000000072C000009EC000009CC000009AC00000AA
:1000100098C0000096C0000094C0000092C000008C
:1000200090C000008EC000008CC000008AC000009C
:1000300088C0000086C0000084C0000082C00000AC
:1000400080C000007EC000007CC000007AC00000BC
:1000500078C0000076C0000074C00000FDC1000040
:1000600070C000006CC2000041C200006AC0000005
:1000700068C0000066C0000064C0000062C00000EC
:1000800060C000005EC000005CC000005AC00000FC
:1000900058C0000056C0000054C0000052C000000C
:1000A00050C000004EC000004CC000004AC000001C
:1000B00048C0000046C0000044C0000042C000002C
:1000C00040C000003EC000003CC000003AC000003C
:1000D00038C0000036C0000034C0000032C000004C
:1000E00030C00000880311241FBECFEFD1E2DEBF75
:1000F000CDBF00E00CBF12E0A0E0B2E0EAECF7E018
:1001000000E00BBF02C007900D92A631B107D9F7EE
:1001100022E0A6E1B2E001C01D92AC3BB207E1F7DC
:1001200010E0C3E7D0E000E005C021970109802F6F
:10013000FE013DD3C237D10780E00807B1F735D2C1
:1001400042C35ECFCF92DF92EF92FF920F931F9345
:10015000CF93DF936C017A018B01C0E0D0E0CE1524
:10016000DF0589F0D8016D918D01D601ED91FC91EB
:100170000190F081E02DC6011995892B11F47E01C3
:1001800002C02196ECCFC701DF91CF911F910F9153
:10019000FF90EF90DF90CF900895089580E090E079
:1001A0000895FC01538D448D252F30E0842F90E07D
:1001B000821B930B541710F0CF9608950197089562
:1001C000FC01918D828D981761F0828DDF01A80F5F
:1001D000B11D5D968C91928D9F5F9F73928F90E081
:1001E00008958FEF9FEF0895FC01918D828D9817F0
:1001F00031F0828DE80FF11D858D90E008958FEF2D
:100200009FEF0895FC01918D228D892F90E0805CF5
:100210009F4F821B91098F73992708958FE192E078
:10022000F1DF21E0892B09F420E0822F0895FC0101
:10023000848DDF01A80FB11DA35ABF4F2C91848D6F
:1002400090E001968F739927848FA689B7892C93A4
:10025000A089B1898C9180648C93938D848D98133F
:1002600006C00288F389E02D80818F7D8083089508
:10027000EF92FF920F931F93CF93DF93EC0181E0F6
:10028000888F9B8D8C8D981305C0E889F9898081B2
:1002900085FD23C0F62E0B8D10E00F5F1F4F0F73EF
:1002A0001127E02E8C8DE8120BC00FB607FCFACF99
:1002B000E889F989808185FFF5CFCE01B8DFF2CFDB
:1002C0008B8DFE01E80FF11DE35AFF4FF0820B8F7B
:1002D000EA89FB898081806207C0EE89FF8960839B
:1002E000E889F98980818064808381E090E0DF91F2
:1002F000CF911F910F91FF90EF900895CF93DF93CF
:10030000EC01888D8823C1F0EA89FB89808185FD15
:1003100005C0A889B9898C9186FD0EC00FB607FC6F
:10032000F5CF808185FFF2CFA889B9898C9185FFAF
:10033000EDCFCE017CDFE8CFDF91CF91089580E053
:1003400090E0892B19F06ADF811125C080E090E0F0
:10035000892B41F080E090E0892B21F00E94000081
:1003600081111CC080E090E0892B41F080E090E09A
:10037000892B21F00E940000811113C080E090E0E1
:10038000892BA1F080E090E0892B81F00E94000091
:1003900081110AC008950E940000D8CF0E94000079
:1003A000E1CF0E940000EACF0C9400000895CF92A4
:1003B000DF92EF92FF920F931F93CF93DF93CDB70E
:1003C000DEB7A1970FB6F894DEBF0FBECDBF282FC2
:1003D00030E040E050E019A28E010F5D1F4F8AE02F
:1003E000C82ED12CE12CF12CCA01B901A70196012C
:1003F000BCD1605DF80162938F0121153105410583
:10040000510591F7309769F001900020E9F7319795
:10041000AF01401B510BB8018FE192E093DE8C01DC
:1004200002C000E010E042E050E062E172E08FE1E3
:1004300092E088DE800F911FA1960FB6F894DEBF80
:100440000FBECDBFDF91CF911F910F91FF90EF9025
:10045000DF90CF900895B3D11F920F920FB60F92F5
:1004600011242F933F938F939F93AF93BF938091CA
:100470001B0290911C02A0911D02B0911E023091AE
:100480001A0223E0230F2D3720F40196A11DB11D80
:1004900005C026E8230F0296A11DB11D20931A0264
:1004A00080931B0290931C02A0931D02B0931E0226
:1004B0008091160290911702A0911802B091190232
:1004C0000196A11DB11D8093160290931702A0936F
:1004D0001802B0931902BF91AF919F918F913F91F4
:1004E0002F910F900FBE0F901F9018951F920F9293
:1004F0000FB60F9211240BB60F922F933F934F9389
:100500005F936F937F938F939F93AF93BF93EF937B
:10051000FF938FE192E08BDEFF91EF91BF91AF915E
:100520009F918F917F916F915F914F913F912F910B
:100530000F900BBE0F900FBE0F901F9018951F923B
:100540000F920FB60F9211240BB60F922F938F9329
:100550009F93EF93FF93E0912F02F09130028081FF
:10056000E0913502F091360282FD12C090818091B7
:1005700038028F5F8F7320913902821751F0E0911A
:100580003802F0E0E15EFD4F958F8093380201C0A4
:100590008081FF91EF919F918F912F910F900BBED2
:1005A0000F900FBE0F901F901895789484B58260BD
:1005B00084BD84B5816084BD85B5826085BD85B507
:1005C000816085BD80916E00816080936E00109285
:1005D0008100809181008260809381008091810000
:1005E0008160809381008091800081608093800091
:1005F0008091B10084608093B1008091B0008160EF
:100600008093B000809191008260809391008091EE
:10061000910081608093910080919000816080932F
:1006200090008091A10082608093A1008091A10040
:1006300081608093A1008091A00081608093A000E0
:10064000809121018260809321018091210181604C
:10065000809321018091200181608093200180910D
:100660007A00846080937A0080917A00826080931F
:100670007A0080917A00816080937A0080917A007C
:10068000806880937A001092C100E0912F02F0916F
:10069000300282E08083E0912B02F0912C021082E4
:1006A000E0912D02F0912E028FEC808310923702A0
:1006B000E0913302F091340286E08083E0913102D0
:1006C000F0913202808180618083E0913102F0916B
:1006D0003202808188608083E0913102F0913202A1
:1006E000808180688083E0913102F09132028081C4
:1006F0008F7D80838EE35BDE8EEF59DE80E057DEF8
:1007000082EC55DE81E053DE80E051DE18DEFECF64
:10071000EFE1F2E01382128288EE93E0A0E0B0E015
:1007200084839583A683B78384E092E0918380835A
:1007300085EC90E09587848784EC90E097878687A6
:1007400080EC90E0918B808B81EC90E0938B828B9E
:1007500082EC90E0958B848B86EC90E0978B868B77
:10076000118E128E138E148E0895A1E21A2EAA1BDA
:10077000BB1BFD010DC0AA1FBB1FEE1FFF1FA21751
:10078000B307E407F50720F0A21BB30BE40BF50B4E
:10079000661F771F881F991F1A9469F760957095D7
:1007A000809590959B01AC01BD01CF010895EE0F9E
:1007B000FF1F881F8BBF0790F691E02D199481E0F1
:0A07C00090E0F89400C0F894FFCF19
:1007CA00000000003801A200D1007E010201E00011
:0607DA00F4000D0A00000E
:00000001FF
