:10000000ABC10000DAC10000D8C10000D6C10000B9
:10001000D4C10000D2C10000D0C10000CEC1000098
:10002000CCC100000C94540C0C94540C0C94540C43
:10003000C4C100000C94BE0DC0C10000BEC10000D0
:10004000BCC10000BAC10000B8C10000B6C10000C8
:10005000B4C10000B2C10000B0C100000C9455143E
:10006000ACC100000C946B130C944213A6C10000A9
:10007000A4C10000A2C10000A0C100009EC10000F8
:100080009CC100009AC1000098C1000096C1000008
:1000900094C1000092C1000090C100000C948D0C2E
:1000A0008CC100008AC1000088C1000086C1000028
:1000B00084C1000082C1000080C100007EC1000038
:1000C0007CC100007AC1000078C1000076C1000048
:1000D00074C1000072C100000C9419130C94F0124A
:1000E0006CC10000C313C613B513B913BD13FD13C0
:1000F000CA13CE13D413D813DC13E213E613EA1396
:10010000FD13F013F413F81346696C65206E616DEE
:10011000652067656E6572617465643A20004F7092
:10012000656E696E672074686520696D616765201A
:10013000636F756E7465722066696C650041434B30
:1001400020434D442053504920696E7465726661A6
:100150006365204F4B2E0041434B20434D442053B9
:10016000504920696E7465726661636520457272DC
:100170006F722100496D61676520636F756E7465EC
:10018000722066696C65206F70656E206661696CAF
:1001900065640053746F7265642076616C75653AAE
:1001A00000534420496E697469616C697A617469AD
:1001B0006F6E20636F6D706C6574650053442049E9
:1001C0006E697469616C697A6174696F6E206661C9
:1001D000696C656400496E697469616C697A696EFD
:1001E0006720534420636172640041434B20434DB8
:1001F00044204172647543414D20537461727421EF
:100200000053746172742053657269616C2061746B
:100210002039323136303000526563656976656465
:1002200020627974657300576176652046696C6554
:10023000206F70656E206661696C6564007C3C3E71
:100240005E2B3D3F2F5B5D3B2C2A225C0000002192
:1002500000240027002A002D003000330001010097
:1002600000040107010A01010210202008081020E3
:100270004010204080020102010804020101020432
:1002800008102040808040201008040201800402F1
:100290000180402010080402010804020101020448
:1002A0000810204080010204081020408000002235
:1002B00000250028002B002E003100340002010030
:1002C00000050108010B01050505050705080808DB
:1002D00008020202020A0A080804040404010101D7
:1002E00001010101010303030303030303040707DF
:1002F000070C0C0C0C0C0C0C0C020202020606067D
:1003000006060606060B0B0B0B0B0B0B0B00000A6D
:100310000B02090C0D0E0807030401000000000089
:1003200000000000000000000000000000000000CD
:10033000000000000000000000121110000000008A
:1003400000000000000000000000000000000000AD
:10035000000000006C1D621D11241FBECFEFD1E212
:10036000DEBFCDBF00E00CBF13E0A0E0B2E0E0E6EE
:10037000F2E400E00BBF02C007900D92AE33B1076C
:10038000D9F72BE0AEE3B3E001C01D92AB39B20761
:10039000E1F711E0CBEAD1E000E006C021970109C6
:1003A000802FFE010E94F81FCA3AD10780E008079B
:1003B000A9F70E94FC160C941F2122CEDC0159964D
:1003C000ED91FC915A973097B9F083899489A5896A
:1003D000B6894285538564857585841B950BA60B6C
:1003E000B70B811520E89207A105B10538F08FEF12
:1003F0009FE7A0E0B0E0089580E090E00895CF93FB
:10040000DF93EC018D818823A1F18C8187FF2DC0C2
:100410006E857F858889998941E00E94DA14882356
:1004200041F1EA8980E2E89FF0011124DF01A7533E
:10043000B84F1097F1F08D81823050F44B895C8970
:100440006D897E895C964D935D936D937C935F97E8
:100450008F89988DA98DBA8DE753F84F938F828F2E
:10046000B58BA48B8C818F778C83DF91CF910C948B
:100470009F1480E0DF91CF910895FC01818D928DD2
:10048000009709F0BCCF08953F924F925F926F9210
:100490007F928F929F92AF92BF92CF92DF92EF9214
:1004A000FF920F931F93CF93DF93CDB7DEB72C97B7
:1004B0000FB6F894DEBF0FBECDBF5C01DC015B96CA
:1004C0008D909C905C971696CD90DD90ED90FC9071
:1004D0001997C114D104E104F10439F0BFEFCB1A2C
:1004E000DB0AEB0AFB0A312C07C0F401C080D18083
:1004F000E280F38033243394F40181859285A385CF
:10050000B4859C01AD012F5F3F4F4F4F5F4F29874F
:100510003A874B875C87260137011D821E821F8226
:100520001886F40181859285A385B4852D813E814D
:100530004F815885281739074A075B0708F063C0C1
:1005400089859A85AB85BC858C159D05AE05BF0553
:1005500050F482E0C82ED12CE12CF12C92E0492EEF
:10056000512C612C712C9E012F5F3F4FB701A601CA
:10057000C4010E94C115882309F445C089819A816C
:10058000AB81BC81892B8A2B8B2B41F02601370153
:100590009FEF491A590A690A790A05C0C414D5049B
:1005A000E604F70491F02D813E814F8158852F5F3D
:1005B0003F4F4F4F5F4F2D833E834F8358873FEF11
:1005C000C31AD30AE30AF30AACCF0FEF1FEF2FEFE2
:1005D0003FE0B301A201C4010E942215882399F0D3
:1005E000D50116964D915D916D917C9119974115AC
:1005F00051056105710549F093018201C4010E9412
:100600002215811102C080E02AC0D50116964D92B4
:100610005D926D927C921997332051F0D301C20103
:100620000196A11DB11DF40180839183A283B38340
:10063000F5018789908DA18DB28D892B8A2B8B2B0B
:1006400069F4D50157964D925D926D927C925A97BE
:1006500014968C911497806814968C9381E02C9654
:100660000FB6F894DEBF0FBECDBFDF91CF911F91C3
:100670000F91FF90EF90DF90CF90BF90AF909F9041
:100680008F907F906F905F904F903F9008958F92E2
:100690009F92AF92BF92CF92DF92EF92FF920F9311
:1006A0001F93CF93DF93EC018D81811102C080E015
:1006B00077C00B891C892D893E89041715072607E9
:1006C0003707A8F36A017B01823029F4CA86DB86EA
:1006D000EC86FD860DC0C114D104E104F10451F48F
:1006E0001E821F82188619861A861B861C861D8606
:1006F00081E056C08A849B84AC84BD84EB8DFC8DE4
:10070000258530E0275F3F4FB501A40141505109D5
:1007100061097109022E04C0769567955795479532
:100720000A94D2F7D701C6010197A109B10904C003
:10073000B695A795979587952A95D2F7841795072B
:10074000A607B70720F089288A288B2849F44F8903
:10075000588D698D7A8D4E835F836887798704C051
:10076000841B950BA60BB70B4C015D018E010A5F34
:100770001F4F81149104A104B10409F4A7CF4E8145
:100780005F816885798598018B8D9C8D0E94C1154C
:1007900091E0891A9108A108B1088111EACF87CFA9
:1007A000DF91CF911F910F91FF90EF90DF90CF904D
:1007B000BF90AF909F908F9008958F929F92AF922D
:1007C000BF92CF92DF92EF92FF920F931F93CF933E
:1007D000DF9300D01F92CDB7DEB77C0180E2689F27
:1007E0006001112496012753384FD9011B969C9123
:1007F000917121F0842F827409F096C0142FF701B3
:10080000628B8091030290910402A0910502B09145
:10081000060286879787A08BB18BF601E753F84FC6
:100820004489558960E070E0BA0155274427D70113
:1008300057964D935D936D937C935A97828D938DCC
:10084000A0E0B0E0482B592B6A2B7B2BD7015796A1
:100850004D935D936D937C935A97D9011B968C9120
:10086000887159F4848D958DA68DB78DF701838B92
:10087000948BA58BB68B81E012C0803109F054C0F7
:1008800097012D5E3F4FD7015B968D919C915C97B0
:100890000E944416882309F447C084E0F701858349
:1008A000812F8F70D70114968C931497F7011682BD
:1008B0001782108611861A961D921D921D921C9207
:1008C0001D9716FF33C015968C91813069F511FF85
:1008D0002BC0F7014389548965897689452B462BBE
:1008E000472B09F45EC040E050E0BA01C701CFDEFB
:1008F0008823D1F0F7018788908CA18CB28CC38CAF
:10090000D48C82E090E0A0E0B0E0F6018083918397
:10091000A283B3839E012F5F3F4FB501A401C6019F
:100920000E94C115811104C080E03BC081E039C044
:1009300000E010E09801B501A401C6010E94221553
:10094000882391F389809A80AB80BC80D60157962A
:100950008C91803129F088EF9FEFAFEFBFE004C0AA
:1009600088EF9FEFA0E0B0E088169906AA06BB06C4
:1009700088F2D70157961D921D921D921C925A978C
:10098000F701138A148A158A168A84818068848301
:10099000C70135DD882341F240E050E0BA01C701CC
:1009A00076DE0F900F900F900F90DF91CF911F91F7
:1009B0000F91FF90EF90DF90CF90BF90AF909F90FE
:1009C0008F9008954F925F926F927F92AF92BF92F5
:1009D000CF92DF92EF92FF920F931F93CF93DF930B
:1009E000CDB7DEB72B970FB6F894DEBF0FBECDBFE5
:1009F0007C01CE0101966C01FC0190E28BE08C0D34
:100A000091938E13FDCFDA0130E047E09D91992359
:100A100039F19E3219F0EDE3F2E00AC04A3009F4F0
:100A20006FC138E04AE0F2CF3196891709F468C106
:100A300084918111F9CF431708F462C18FED890FBA
:100A40008E3508F05DC181E0830FF601E30FF11DE3
:100A50003FE9390F3A3108F490529083382FD6CFBE
:100A60008981803209F44CC1B22E8B01DB015B9687
:100A70008D919C915C97F701948F838F16961D92B0
:100A80001D921D921C921997FB01128613861486E3
:100A90001586712CF80182859385A485B5854389D7
:100AA00054896589768984179507A607B70708F0E2
:100AB00060C025E0B695A795979587952A95D1F7BB
:100AC000F82FFF706F2ED80115968C91823008F4A4
:100AD00017C1C801ADD597FD13C1F8018285938573
:100AE000A485B5854F96A11DB11D82879387A487E4
:100AF000B587F0E26F9EC0011124BC016753784FA7
:100B00006115710509F4FCC0DB012C91222319F059
:100B1000253EC1F427C071100EC0F701628A4091D2
:100B2000030250910402609105027091060246870B
:100B30005787608B718BFC01E753F84F80818111DF
:100B400013C015C04BE050E0C6010E94E820892B7D
:100B500009F0A0CF8B2D8073803309F4D1C04B2DC9
:100B6000662DCBC07720C9F27724739493CF772476
:100B700073948B2D8271823109F0C2C07720D1F03D
:100B8000D7011E966D917D918D919C91519741E079
:100B90000E94DA14882309F4B3C0F7016289F0E2F5
:100BA0006F9FB00111246753784F6115710509F0EB
:100BB00078C0A6C0D80115968C91823009F4A0C0E7
:100BC000C80162DC882309F49BC0D8015B96ED91D3
:100BD000FC915C9716964D905D906D907C90199766
:100BE000B2E04B1A510861087108058404C0440C36
:100BF000551C661C771C0A94D2F786859785A089B8
:100C0000B189480E591E6A1E7B1EA480E1E04E1A6F
:100C1000510861087108AA2009F10E949F148823D5
:100C200009F46EC0E9ECF7E0119229E0E93CF20723
:100C3000D9F7D301C2018A0D911DA11DB11D809369
:100C4000030290930402A0930502B09306028091E0
:100C5000890B81608093890BAA94DDCFD8015B96C4
:100C6000ED91FC915C9780E092E0A0E0B0E005841B
:100C700004C0880F991FAA1FBB1F0A94D2F7F8015E
:100C80004389548965897689840F951FA61FB71FEC
:100C9000838B948BA58BB68BD70152961C9269ECF3
:100CA00077E080E2FB0111928A95E9F78BE0F6018B
:100CB000DB0101900D928A95E1F781E298E2DB0178
:100CC00051969C938E93509720E038E01F963C936A
:100CD0002E931E9753969C938E93529759969C935E
:100CE0008E93589757963C932E9356970E949F1435
:100CF000882331F04B2DF7016289C7015EDD01C009
:100D000080E02B960FB6F894DEBF0FBECDBFDF910B
:100D1000CF911F910F91FF90EF90DF90CF90BF90F8
:100D2000AF907F906F905F904F900895CF93DF9337
:100D3000EC0165DB882311F01D8281E0DF91CF910A
:100D400008958FB7F894809157078FBF089561E099
:100D5000FC0184810E9494138091560781111092A6
:100D6000560708958FEF80C70F931F93CF93DF939C
:100D7000EB010E9449148B01F5DF8F3F49F00E947F
:100D80004914601B710B6C177D07B0F380E001C044
:100D900081E0DF91CF911F910F910895CF93DF9361
:100DA000EC018E81882379F08F8198859C012F5FDB
:100DB0003F4F38872F838230924010F4D3DFF4CF37
:100DC000CE01C5DF1E82DF91CF9108958CBD9DBD00
:100DD0000895CF93DF93EC0180915607811108C0ED
:100DE00081E0809356078091050B9091060BEEDF12
:100DF00060E08C81DF91CF910C949413CF92DF92BD
:100E0000FF920F931F93CF93DF9300D01F92CDB724
:100E1000DEB76C01F62E29833A834B835C83BEDFF9
:100E2000C601D7DF6CE271E0C6019EDF8F2D8064C2
:100E30001BD708E110E05C814B813A812981DA01FE
:100E4000C901002E04C0B695A795979587950A9479
:100E5000D2F729833A834B835C8306D70850110964
:100E600029813A814B815C81083F8FEF180739F760
:100E7000FF2029F0E8E0FE1204C087E803C085E9FE
:100E800001C08FEFF1D610E06DDFF601828787FF9A
:100E900004C01F3F11F01F5FF7CF0F900F900F900E
:100EA0000F90DF91CF911F910F91FF90DF90CF9026
:100EB0000895AF92BF92CF92DF92EF92FF920F937D
:100EC0001F93CF93DF93EC016901C801820F931F39
:100ED0008130924008F06AC08E81882371F0888149
:100EE0009981AA81BB81481759076A077B0729F4B2
:100EF0008F819885C816D90698F5488359836A83E7
:100F00007B838B85833039F089E0440F551F661F42
:100F1000771F8A95D1F79A01AB0161E1CE016EDFAF
:100F2000882319F083E08D8341C00E9449145B013E
:100F300019DF8A878F3F49F40E9449146A197B0997
:100F40006D327140A8F38FE003C08E3F29F08DE031
:100F50008D83CE01FCDE2AC018861F8281E08E833D
:100F60008F8198858C159D0538F4FCDE8F819885DE
:100F7000019698878F83F4CF6701E00EF11ECE149F
:100F8000DF0429F0EFDEF60181936F01F8CF8F8146
:100F90009885080F191F18870F838985882319F0F2
:100FA0000115124038F0CE01F9DE04C0CE01CFDECB
:100FB00080E001C081E0DF91CF911F910F91FF9000
:100FC000EF90DF90CF90BF90AF900895EF92FF9297
:100FD0000F931F93CF93DF93EC01790141155105D6
:100FE0006105710511F482E134C08B85833039F0DD
:100FF00089E0440F551F661F771F8A95D1F79A0124
:10100000AB0168E1CE01FADE882311F084E021C053
:101010008EEF2AD687018EEFF81AF80181918F01A1
:1010200023D60E151F05C9F78FEF1ED68FEF1CD6DE
:1010300099DE8A878F71853029F081E18D83CE0119
:1010400086DE08C068E572E0CE018EDE811106C042
:1010500085E18D83CE017BDE80E010C020E030E0B2
:10106000A9016DE0CE01CADE811103C07BDE8823B9
:1010700011F084E1EECFCE016ADE81E0DF91CF9105
:101080001F910F91FF90EF9008952F923F924F92F2
:101090005F926F927F928F929F92AF92BF92CF9208
:1010A000DF92EF92FF920F931F93CF93DF9300D0C5
:1010B0001F92CDB7DEB78C015B011A01DC011596DA
:1010C0008C9115978130C1F414968C9181FF14C0D6
:1010D00082FF1AC0F801438954896589768982851F
:1010E0009385A485B58584179507A607B70761F092
:1010F000C801CDDA811108C081E090E0F801938346
:10110000828380E090E036C1610182C0D8015B96A5
:101110008D919C915C97FC01248121502A013B0117
:1011200039E076946794579447943A95D1F7722EA4
:1011300074207A01F1E0FF22772009F475C080E085
:1011400092E08E199F0946018C159D0508F44C010B
:10115000D8015B962D913C915C9716968D919D914F
:101160000D90BC91A02D0297A109B109F901058448
:1011700004C0880F991FAA1FBB1F0A94D2F7468587
:10118000578560897189840F951FA61FB71F9C0121
:10119000AD01270D311D411D511D29013A01811459
:1011A00032E0930609F086C0809103029091040218
:1011B000A0910502B091060284159505A605B70514
:1011C00059F48FEF9FEFDC018093030290930402A8
:1011D000A0930502B09306029501B301A20180918C
:1011E000C9099091CA09F2DE882309F485CF9EEFE0
:1011F000B91AC818D908F80182859385A485B585E0
:10120000880D991DA11DB11D82879387A487B5877D
:10121000D8011A964D915D916D917C911D97C114E5
:10122000D10409F073CF86C0E114F10409F087CF2F
:1012300016964D915D916D917C91199741155105CF
:101240006105710559F457968D919D910D90BC9152
:10125000A02D0097A105B10539F521C09E012F5F92
:101260003F4F0E94C115882309F44CCF89819A8190
:10127000AB81BC81F801238D348DF90127892031A0
:1012800029F048EF5FEF6FEF7FE004C048EF5FEFBA
:1012900060E070E084179507A607B70728F0C8013B
:1012A000F3D881114CCF28CFF80186839783A0878C
:1012B000B18745CFE114F10429F5D8011A964D9173
:1012C0005D916D917C911D9753968D919D910D909F
:1012D000BC91A02D481759076A077B0798F00E9418
:1012E0009F14882309F408CF40920302509204020D
:1012F00060920502709206028091890B8160809352
:10130000890B08C041E0C301B2010E94DA148823AE
:1013100009F4F2CED501F701E753F84FCF01880D5C
:10132000991DE817F90719F02D912193FACFA80C10
:10133000B91C5FCF53968D919D910D90BC91A02DBE
:1013400084179507A607B70740F4F801438B548B21
:10135000658B768B848180688483D80114968C9108
:1013600083FD02C0C10106C0C80149D8882309F421
:10137000C3CEF8CF0F900F900F900F90DF91CF91C9
:101380001F910F91FF90EF90DF90CF90BF90AF90A3
:101390009F908F907F906F905F904F903F902F9095
:1013A0000895CF93DF931F92CDB7DEB7698341E0F5
:1013B00050E0BE016F5F7F4F68DE0F90DF91CF91ED
:1013C0000895FC01DB0112968D919C9113979383F4
:1013D000828388E292E09183808314968C911497A3
:1013E000848315968C911597858316964D915D9102
:1013F0006D917C91199746835783608771871A9600
:101400004D915D916D917C911D97428753876487C3
:1014100075871E964D915D916D917C915197468790
:101420005787608B718B52968C915297828B539613
:101430004D915D916D917C915697438B548B658B4B
:10144000768B57964D915D916D917C915A97478B14
:10145000508F618F728F5B968D919C915C97948F6A
:10146000838F0895CF93DF931F92CDB7DEB7698343
:10147000DC01ED91FC910280F381E02D41E050E030
:10148000BE016F5F7F4F19950F90DF91CF91089547
:1014900085ED8093BC008091BC0084FDFCCF109250
:1014A0004003089540917D07262F30E0240F311D21
:1014B00021323105DCF4209140032430C9F4FC01D1
:1014C00080E090E0861758F430917D072191DC018F
:1014D000A55AB84FA30FB11D2C930196F3CF80915D
:1014E0007D07680F60937D0780E0089581E008958F
:1014F00082E00895089581E090E0309144032091C6
:101500004303321710F480E090E0919581959109A2
:1015100008958091440390914303891730F48F5FBD
:101520008093440380E090E008958FEF9FEF08954B
:101530008091430390E020914403821B9109089518
:10154000CF93DF931F921F92CDB7DEB7CB01642FED
:1015500049835A83A7DF4981842F5A81952F0F90A1
:101560000F90DF91CF910895CF93DF931F92CDB766
:10157000DEB7698361E0CE01019694DF81E090E0FF
:101580000F90DF91CF910895089580E090E0089545
:10159000CF93DF93EC01898D9A8D009739F481E028
:1015A00090E09B838A8380E090E00AC0FC01138274
:1015B00012826BDDE98DFA8D22813381232B79F73D
:1015C000DF91CF910895EF92FF920F931F93CF93E6
:1015D000DF93EC017B018A011B821A8288EE93E083
:1015E000A0E0B0E08C839D83AE83BF8386E492E06D
:1015F000998388838DE190E00E94221E9A8F898FC3
:10160000009779F02DE1F701DC0101900D922A9508
:10161000E1F74CE050E0B801CE010C960E94102199
:10162000188EDF91CF911F910F91FF90EF90089549
:101630002F923F924F925F926F927F928F929F92E2
:10164000AF92BF92CF92DF92EF92FF920F931F93D0
:10165000CF93DF931F921F92CDB7DEB7FC01858138
:10166000882309F4D8C0848180FFD5C021E02A8373
:10167000438954896589768982859385A485B58552
:10168000481759076A077B0709F41A826F013A81E4
:10169000832F90E0DE0111964D013F01B6E06B0E05
:1016A000711C892B09F47DC0D6011A964D915D916C
:1016B0006D917C911D975A01B1E0BB22F601258105
:1016C0001A012B0189E056944794379427948A9500
:1016D000D1F7838D948D223061F4FC01828D938D3E
:1016E000A48DB58DBC01CD01620D731D841D951DAA
:1016F00045C0DC0114961C9111501221A114B104B3
:10170000D1F4111118C0452B462B472B51F4F6018B
:101710008789908DA18DB28D86839783A087B187AD
:101720000AC0468157816085718593010E94C11569
:10173000882309F470C0F601238D348D868197814A
:10174000A085B1850297A109B109AC01BD01F901DC
:10175000058404C0440F551F661F771F0A94D2F7F3
:1017600086859785A089B189840F951FA61FB71F0D
:10177000BC01CD01610F711D811D911DD601149613
:101780002C9126FF14C000910302109104022091B5
:10179000050230910602601771078207930751F521
:1017A00006C0FA81FF23B9F1898190E036C040E09C
:1017B0000E94DA14882379F1F501E753F84FD40138
:1017C000CF010196E817F90719F021912D93FACF6F
:1017D000EFEF8E1A9E0AF60182859385A485B58562
:1017E0000196A11DB11D82879387A487B58780E0EC
:1017F00090E057CF740101E010E09501AB01BC010E
:101800008091C9099091CA0954DB882321F0BFEF68
:101810008B1A9B0AE0CF8FEF9FEF0F900F90DF9115
:10182000CF911F910F91FF90EF90DF90CF90BF90DD
:10183000AF909F908F907F906F905F904F903F9070
:101840002F900895FC01818D928D009709F0F0CEC4
:101850008FEF9FEF08950F931F93CF93DF93FC01BA
:10186000818D928D0097B1F0EF01E2DE8C010F3F88
:101870008FEF180791F0898D9A8DFC014285538571
:101880006485758541505109610971090E944703BA
:10189000C80105C080E090E002C08FEF9FEFDF91AC
:1018A000CF911F910F9108951F920F920FB60F9233
:1018B00011240F900FBE0F901F901895CF93CFB7A4
:1018C000F8948091C607811120C0ECEFF2E084917A
:1018D000ECE9F2E09491E82FF0E0EE0FFF1FE35BFC
:1018E000FD4FA591B491EC91E92319F461E085E3F2
:1018F0001BD785E3D5D18CB580618CBD8CB5806458
:101900008CBD84E3CDD183E3CBD18091C6078F5FBB
:101910008093C607CFBFCF9108951F920F920FB645
:101920000F9211240BB60F922F933F934F935F9317
:101930006F937F938F939F93AF93BF93EF93FF9397
:101940008091B900887F803609F49CC068F58832A0
:1019500009F45BC090F4803109F454C038F4882352
:1019600009F4F6C0883009F44DC0F5C0883109F497
:101970004CC0803209F45DC0EEC0803409F468C008
:1019800048F4803309F455C0883309F0E4C08093EB
:10199000A207D8C0803509F44FC0883509F45DC06E
:1019A000883409F0D8C0D6C0883909F4C7C0A8F473
:1019B000883709F467C038F4883609F463C0803783
:1019C00009F460C0C8C0883809F4B8C0803909F487
:1019D0005FC0803809F0BFC05BC0803B09F486C09F
:1019E00038F4803A09F466C0883A09F47FC0B3C07D
:1019F000803C09F4A7C0883C09F4A4C0883B09F4E2
:101A00008AC0A9C08091C50710C09091C407809179
:101A1000C307981770F5E091C40781E08E0F80939B
:101A2000C407F0E0ED55F84F80818093BB0085EC52
:101A300086C08093A2078EC0E091C40781E08E0F1C
:101A40008093C4078091BB00F0E0ED55F84F808390
:101A50009091C4078091C3076EC0E091C40781E0F4
:101A60008E0F8093C4078091BB00F0E0ED55F84FD6
:101A7000808380913F0381116DC081E080933E039C
:101A800084EA61C083E0809340031092A107CFCF26
:101A90008091A107803208F051C0E091A10781E058
:101AA0008E0F8093A1078091BB00F0E0EF57F84FB5
:101AB0008083BDCF85EC8093BC0010924003809161
:101AC000A107803230F4E091A107F0E0EF57F84F22
:101AD00010826091A10770E0E0917F07F09180078C
:101AE00081E897E019951092A10735C084E08093B2
:101AF000400310927E0710927D07E0917B07F091E2
:101B00007C07199580917D07811105C081E0809344
:101B10007D0710925B07E0917E0781E08E0F809336
:101B20007E07F0E0E55AF84F80818093BB009091EA
:101B30007E0780917D07981708F479CF85E8809318
:101B4000BC0009C085EC8093BC001092400303C028
:101B50001092A2079DDCFF91EF91BF91AF919F91F1
:101B60008F917F916F915F914F913F912F910F9046
:101B70000BBE0F900FBE0F901F9018951F920F92E3
:101B80000FB60F9211240BB60F922F933F938F93A2
:101B90009F93AF93BF93EF93FF9380917A008064FC
:101BA00080937A0080917A0086FDFCCF8091450772
:101BB00090914607A0914707B09148070196A11D53
:101BC000B11D8093450790934607A0934707B093B4
:101BD00048078091590790915A07019690935A07A8
:101BE0008093590720915807811532E0930751F4EB
:101BF000211108C010925A071092590781E0809372
:101C000058070BC08115924041F4213031F41092F5
:101C10005A0710925907109258078091580781115E
:101C200009C080917900E0915907F0915A07EB5B68
:101C3000FA4F0AC0813049F480917900E091590748
:101C4000F0915A07EB5BFC4F8083FF91EF91BF91BE
:101C5000AF919F918F913F912F910F900BBE0F905D
:101C60000FBE0F901F9018958EBD00000DB407FE9B
:101C7000FDCF8EB508956115710579F0FB010190D6
:101C80000020E9F73197AF01461B570BDC01ED91BE
:101C9000FC910280F381E02D199480E090E008959A
:101CA00090E0FC01E959FD4F2491FC01E953FD4FFF
:101CB0008491882399F090E0880F991FFC01E35BE1
:101CC000FD4FA591B491FC01E355FD4F8591949191
:101CD0008FB7F894EC91E22BEC938FBF08952F927D
:101CE0003F924F925F926F927F928F929F92AF92AC
:101CF000BF92CF92DF92EF92FF920F931F93CF93F9
:101D0000DF93CDB7DEB7C756D1090FB6F894DEBF63
:101D10000FBECDBF5C014B01A6964FAFA6973E010B
:101D20008EE1680E711C61E37BE0C3014ADB1C821B
:101D30001B8288E292E09A8389831E8264018E016D
:101D40000F5F1F4F230118016FE270E0C6010E9470
:101D5000FE20009709F442C0F60120812F3221F4C1
:101D6000FFEFCF1ADF0AF0CF8C198D3008F08CE02E
:101D7000E82EF12CA701B601CE01885A9F4F0E9490
:101D80001021E8E5F0E0EC0FFD1FEE0DFF1D1082C5
:101D9000C8010E949606F8018581882351F01EAE85
:101DA0001DAE88E292E09CAF8BAF21961FAE2197CB
:101DB00020C021E0AE01485A5F4FB201C8010E9425
:101DC000E204882361F3CE0CDF1CC2010E94960658
:101DD000942D852D2801092F182FB6CFC6018819FB
:101DE0009909A8969FAF8EAFA897B201CE01CB9666
:101DF000E8DAA896EEADFFADA8978E0E9F1EF4010F
:101E00008081811108C0BE01655C7F4FC101D9DAB4
:101E10004BE353E04AC019A218A288E292E09F8FD8
:101E20008E8F1BA221968FAD2197811113C0F501D2
:101E30001382128288EE93E0A0E0B0E08483958361
:101E4000A683B78386E492E091838083128E118EFD
:101E500014862EC08250A6962FADA697A40182307C
:101E600040F461E37BE0C3010E94E20481110DC0F4
:101E7000DECFBE01655C7F4FC3010E94E204882370
:101E8000B1F2CE01CB960E949606A6968FADA6978C
:101E9000867039F049A95AA96BA97CA9C3010E948F
:101EA0004703B301C1018DDAA401B101C5018BDB88
:101EB000C501C959DF4F0FB6F894DEBF0FBECDBFC5
:101EC000DF91CF911F910F91FF90EF90DF90CF9016
:101ED000BF90AF909F908F907F906F905F904F904A
:101EE0003F902F9008958F929F92AF92BF920F9341
:101EF0001F93CF93DF93CDB7DEB7A1970FB6F894BA
:101F0000DEBF0FBECDBF19A2423008F44AE08E01F9
:101F10000F5D1F4F842E912CA12CB12CA501940193
:101F20000E94D61FE62FB901CA0101501109EA30FB
:101F300014F4E05D01C0E95CD801EC93232B242B61
:101F4000252B61F7B80188E69AE095DEA1960FB6D9
:101F5000F894DEBF0FBECDBFDF91CF911F910F91DF
:101F6000BF90AF909F908F9008950F931F93CF9342
:101F7000DF938C01C0E0D0E0F801EC0FFD1F64910D
:101F8000662371F0E091680AF091690A0190F0818E
:101F9000E02D88E69AE01995892B11F02196ECCF77
:101FA000CE01DF91CF911F910F910895CF93DF93D1
:101FB000DCDFEC016DE872E088E69AE05CDE8C0F15
:101FC0009D1FDF91CF910895CF93DF93BC0188E6E9
:101FD0009AE051DEEC016DE872E088E69AE04BDEB3
:101FE0008C0F9D1FDF91CF910895CF93DF93FC015C
:101FF000448155816081718188E69AE0ADD6EC011B
:102000006DE872E088E69AE036DE8C0F9D1FDF9166
:10201000CF9108950F931F93CF93DF93EC0139D4A1
:10202000688779878A879B87CE010CDC97FF16C06B
:1020300030D4088519852A853B85DC01CB01801BBE
:10204000910BA20BB30B0C811D812E813F81801758
:102050009107A207B30740F38FEF9FEFDF91CF9176
:102060001F910F9108958F929F92AF92BF92CF923E
:10207000DF92EF92FF92CF93DF93C82F87E09BE030
:102080009093CA098093C909CC2361F1C53010F03F
:1020900080E00BC140E060E070E0CB018BD488238E
:1020A000B9F320E1C29FC00111248754984FFC016D
:1020B000E254FE4F20812F7759F73C9640815181A1
:1020C00062817381443651056105710508F33497C7
:1020D000C080D180E280F380C114D104E104F10416
:1020E00021F4D6CFC12CD12C760140E0C701B60136
:1020F00061D4882369F28091D4079091D507811526
:10210000924031F6A091D907AA2309F4C1CF60917A
:10211000D7077091D8076115710509F4B9CF2091DF
:10212000D607222309F4B4CFA093250B2093170BD5
:1021300080E030E0E1E0F0E0C82FAF01082E02C0FF
:10214000440F551F0A94E2F72417350741F0982FE2
:102150008F5F983089F789E08093200B99CF809327
:10216000200B2091DF073091E0072115310519F090
:1021700040E050E008C02091ED073091EE0740911B
:10218000EF075091F0072093180B3093190B4093F1
:102190001A0B50931B0B46015701860E971EA11C6C
:1021A000B11C8092260B9092270BA092280BB09224
:1021B000290BE091DA07F091DB07F0932C0BE09309
:1021C0002B0BB0E00E94BD1F860E971EA81EB91EE5
:1021D00080922D0B90922E0BA0922F0BB092300B71
:1021E00085E0EE0FFF1F8A95E1F7E150FE4FEF2FDC
:1021F000FF27E6958E0E9F1EA11CB11C8092210B1D
:102200009092220BA092230BB092240B2091DC071A
:102210003091DD072115310521F0A90160E070E062
:1022200008C04091E9075091EA076091EB0770916F
:10223000EC07D701C60188199909AA09BB09840FBF
:10224000951FA61FB71F04C0B695A79597958795AC
:10225000CA95D2F780931C0B90931D0BA0931E0B75
:10226000B0931F0B853F2FE09207A105B10510F435
:102270008CE018C0853F9F4FA105B10510F480E1A7
:1022800011C08091F5079091F607A091F707B091E2
:10229000F80780932D0B90932E0BA0932F0BB093E8
:1022A000300B80E280932A0B81E0DF91CF91FF9089
:1022B000EF90DF90CF90BF90AF909F908F90089558
:1022C0000F931F93CF93DF93EC018881998100973F
:1022D00029F02A813B812617370788F48B016F5F2D
:1022E0007F4F0E940020009761F0998388831B83B1
:1022F0000A832C813D81232B11F4FC01108281E0A3
:1023000001C080E0DF91CF911F910F910895EF926E
:10231000FF920F931F93CF93DF93EC017B018A0110
:10232000BA01CEDF811103C0CE0141D507C01D83A4
:102330000C83B701888199810E940921CE01DF9128
:10234000CF911F910F91FF90EF900895FC01A0890C
:10235000B1898C91A689B78982FD0FC09C91818D2E
:102360008F5F8F73228D821749F0218DDF01A20FBD
:10237000B11D5D969C93818F08958C910895FC0109
:10238000538D448D252F30E0842F90E0821B930BDA
:10239000541710F0CF96089501970895FC01918D80
:1023A000828D981761F0828DDF01A80FB11D5D96B7
:1023B0008C91928D9F5F9F73928F90E008958FEF25
:1023C0009FEF0895FC01918D828D981731F0828DD9
:1023D000E80FF11D858D90E008958FEF9FEF089530
:1023E000FC01918D228D892F90E0805C9F4F821B94
:1023F00091098F73992708958BEC99E0F1DF21E023
:10240000892B09F420E0822F089588E69AE0E8DF1E
:1024100021E0892B09F420E0822F0895FC01848DAE
:10242000DF01A80FB11DA35ABF4F2C91848D90E0FE
:1024300001968F739927848FA689B7892C93A089D9
:10244000B1898C9180648C93938D848D981306C090
:102450000288F389E02D80818F7D80830895EF923B
:10246000FF920F931F93CF93DF93EC0181E0888F4E
:102470009B8D8C8D981305C0E889F989808185FD35
:1024800023C0F62E0B8D10E00F5F1F4F0F73112727
:10249000E02E8C8DE8120BC00FB607FCFACFE8894E
:1024A000F989808185FFF5CFCE01B8DFF2CF8B8D22
:1024B000FE01E80FF11DE35AFF4FF0820B8FEA890E
:1024C000FB898081806207C0EE89FF896083E8898B
:1024D000F98980818064808381E090E0DF91CF91F1
:1024E0001F910F91FF90EF900895CF93DF93EC0130
:1024F000888D8823C1F0EA89FB89808185FD05C02C
:10250000A889B9898C9186FD0EC00FB607FCF5CF5E
:10251000808185FFF2CFA889B9898C9185FFEDCFA5
:10252000CE017CDFE8CFDF91CF91089580E090E08D
:10253000892B19F06ADF811120C080E090E0892B9F
:1025400041F080E090E0892B21F00E940000811191
:1025500017C080E090E0892B41F080E090E0892B6B
:1025600021F00E94000081110EC080E090E0892BD4
:1025700079F042DF81110AC008950E940000DDCF8A
:102580000E940000E6CF0E940000EFCF0C940000F4
:1025900008953FB7F8948091930B9091940BA0917C
:1025A000950BB091960B26B5A89B05C02F3F19F04F
:1025B0000196A11DB11D3FBFBA2FA92F982F8827C3
:1025C000820F911DA11DB11DBC01CD0142E0660F1E
:1025D000771F881F991F4A95D1F708950E94E4201C
:1025E0001F920F920FB60F9211240BB60F922F93DA
:1025F0003F934F935F936F937F938F939F93AF938B
:10260000BF93EF93FF938BEC99E008DFFF91EF917D
:10261000BF91AF919F918F917F916F915F914F91FA
:102620003F912F910F900BBE0F900FBE0F901F90F8
:1026300018951F920F920FB60F9211240BB60F929E
:102640002F933F934F935F936F937F938F939F93BA
:10265000AF93BF93EF93FF938BEC99E077DEFF91FD
:10266000EF91BF91AF919F918F917F916F915F910A
:102670004F913F912F910F900BBE0F900FBE0F9077
:102680001F9018951F920F920FB60F9211240BB640
:102690000F922F933F934F935F936F937F938F93FB
:1026A0009F93AF93BF93EF93FF9388E69AE0B6DED4
:1026B000FF91EF91BF91AF919F918F917F916F911A
:1026C0005F914F913F912F910F900BBE0F900FBED6
:1026D0000F901F9018951F920F920FB60F92112412
:1026E0000BB60F922F933F934F935F936F937F930C
:1026F0008F939F93AF93BF93EF93FF9388E69AE0F6
:1027000025DEFF91EF91BF91AF919F918F917F91C6
:102710006F915F914F913F912F910F900BBE0F9052
:102720000FBE0F901F901895362F90E0FC01E35FCD
:10273000FC4F4491FC01E959FD4F2491FC01E95300
:10274000FD4F9491992309F46BC0442309F455C0BB
:1027500050E0FA013197E231F10508F04EC08827C8
:10276000EE58FF4F8F4F0C94F81F809180008F77A9
:1027700007C0809180008F7D03C080918000877F9B
:10278000809380003AC084B58F7702C084B58F7D76
:1027900084BD33C08091B0008F7703C08091B000BA
:1027A0008F7D8093B00029C0809190008F7707C003
:1027B000809190008F7D03C080919000877F8093EF
:1027C00090001BC08091A0008F7707C08091A0006F
:1027D0008F7D03C08091A000877F8093A0000DC0F3
:1027E000809120018F7707C0809120018F7D03C0E9
:1027F00080912001877F80932001E92FF0E0EE0F88
:10280000FF1FE355FD4FA591B4918FB7F894EC915C
:10281000311103C020952E2301C02E2B2C938FBF86
:1028200008958F929F92AF92BF92CF92DF92EF92D4
:10283000FF926B017C01ADDE4B015C01C114D10440
:10284000E104F104E9F0A5DEDC01CB018819990966
:10285000AA09BB09883E9340A105B10578F321E0A0
:10286000C21AD108E108F10888EE880E83E0981EAC
:10287000A11CB11CC114D104E104F10421F7DECF85
:10288000FF90EF90DF90CF90BF90AF909F908F9090
:1028900008952FB7F89460918F0B7091900B8091F1
:1028A000910B9091920B2FBF08951F920F920FB62C
:1028B0000F9211242F933F938F939F93AF93BF93C6
:1028C00080918F0B9091900BA091910BB091920BF6
:1028D00030918E0B23E0230F2D3720F40196A11D9C
:1028E000B11D05C026E8230F0296A11DB11D20933E
:1028F0008E0B80938F0B9093900BA093910BB093C2
:10290000920B8091930B9091940BA091950BB091A9
:10291000960B0196A11DB11D8093930B9093940B80
:10292000A093950BB093960BBF91AF919F918F9110
:102930003F912F910F900FBE0F901F90189580918F
:10294000890B8823A9F14091030250910402609100
:1029500005027091060229EC37E08091C909909137
:10296000CA090E94E607811102C080E008954091E3
:102970008A0B50918B0B60918C0B70918D0B4115D4
:1029800051056105710591F029EC37E08091C90985
:102990009091CA090E94E607882339F310928A0BA6
:1029A00010928B0B10928C0B10928D0B1092890B46
:1029B00081E008958F929F92AF92BF92EF92FF9223
:1029C0000F931F93CF934B015C01C42F809103029F
:1029D00090910402A0910502B09106028815990514
:1029E000AA05BB05F9F0ABDF811102C080E020C071
:1029F00089ECE82E87E0F82E00E012E020E030E0DD
:102A0000B501A4018091C9099091CA090E94590792
:102A1000882361F38092030290920402A09205023F
:102A2000B09206028091890BC82BC093890B81E07C
:102A3000CF911F910F91FF90EF90BF90AF909F901B
:102A40008F9008954F925F926F927F928F929F9294
:102A5000AF92BF92CF92DF92EF92FF920F931F93AC
:102A6000CF93DF93EC016A017B01280139014230E9
:102A700051056105710510F480E072C089859A8561
:102A8000AB85BC850196A11DB11D84179507A607CE
:102A9000B70790F38B889C88AD88BE888F8980317A
:102AA00029F4BB27AF2D9E2D8D2D09C0DB01CA0156
:102AB00047E0B695A795979587954A95D1F7880EE3
:102AC000991EAA1EBB1E8091030290910402A09140
:102AD0000502B091060288169906AA06BB0679F48B
:102AE0008F89803199F4DD24EE24FF24C601880FFC
:102AF000991FFC01E753F84F5182408218C040E013
:102B0000C501B40157DF8111EBCFB6CFE894C7F808
:102B1000DD24EE24FF24C601880F991F880F991F1A
:102B2000FC01E753F84F40825182628273828091A8
:102B3000890B81608093890B8A89823080F08D8136
:102B40009E81AF81B885880E991EAA1EBB1E8092F9
:102B50008A0B90928B0BA0928C0BB0928D0B81E024
:102B6000DF91CF911F910F91FF90EF90DF90CF9069
:102B7000BF90AF909F908F907F906F905F904F909D
:102B800008958F929F92AF92BF92CF92DF92EF9271
:102B9000FF920F931F93CF93DF93FC018185928562
:102BA000A385B4850196A11DB11D84179507A607BD
:102BB000B70710F480E05BC083899489A589B68942
:102BC000C789C03129F4852E962EA72EBB2409C0B3
:102BD0004A015B01C7E0B694A79497948794CA957D
:102BE000D1F7E9016A017B018F01BC01CD01680DBC
:102BF000791D8A1D9B1D8090030290900402A09075
:102C00000502B0900602681579058A059B0599F4BE
:102C1000F80187898031A1F4B701A60155276627FD
:102C20007727440F551FFA01E753F84F80819181B0
:102C3000A0E0B0E017C040E0BDDE8111E9CFBACF1F
:102C4000B701A6014F77552766277727440F551FF1
:102C5000440F551FFA01E753F84F80819181A281FB
:102C6000B381BF7088839983AA83BB8381E0DF919E
:102C7000CF911F910F91FF90EF90DF90CF90BF9079
:102C8000AF909F908F9008954F925F926F927F9236
:102C9000AF92BF92CF92DF92EF92FF920F931F936A
:102CA000CF93DF9300D01F92CDB7DEB78C0149835D
:102CB0005A836B837C835901C12CD12C7601412C22
:102CC00082E0582E612C712C49815A816B817C8164
:102CD0009E012F5F3F4FC80154DF882351F1D3017C
:102CE000C201F801058404C0880F991FAA1FBB1FE9
:102CF0000A94D2F7C80ED91EEA1EFB1E49815A81DA
:102D00006B817C818789803129F088EF9FEFAFEF5D
:102D1000BFE004C088EF9FEFA0E0B0E0481759077C
:102D20006A077B0788F2F501C082D182E282F382D2
:102D300081E00F900F900F900F90DF91CF911F9136
:102D40000F91FF90EF90DF90CF90BF90AF907F906A
:102D50006F905F904F900895CF92DF92EF92FF9225
:102D60000F931F93CF93DF936C017A018B01C0E027
:102D7000D0E0CE15DF0589F0D8016D918D01D60127
:102D8000ED91FC910190F081E02DC6011995892B00
:102D900011F47E0102C02196ECCFC701DF91CF91E3
:102DA0001F910F91FF90EF90DF90CF900895CF93F8
:102DB000DF93EC0188819981009709F0D8D71982B7
:102DC00018821D821C821B821A82DF91CF91089586
:102DD000FC01118210821382128215821482611505
:102DE000710549F0FB0101900020E9F73197AF012F
:102DF000461B570B8CCA0895CF93DF93CDB7DEB730
:102E0000C854D1090FB6F894DEBF0FBECDBF789479
:102E100084B5826084BD84B5816084BD85B58260DF
:102E200085BD85B5816085BD80916E008160809390
:102E30006E001092810080918100826080938100F9
:102E40008091810081608093810080918000816009
:102E5000809380008091B10084608093B100809164
:102E6000B00081608093B000809191008260809377
:102E700091008091910081608093910080919000F9
:102E80008160809390008091A10082608093A10076
:102E90008091A10081608093A1008091A000816059
:102EA0008093A00080912101826080932101809114
:102EB00021018160809321018091200181608093B4
:102EC000200180917A00846080937A0080917A005A
:102ED000826080937A0080917A00816080937A008A
:102EE00080917A00806880937A001092C100E0910E
:102EF000DB09F091DC0902E00083E091D709F09151
:102F0000D8091082E091D909F091DA098FEC808319
:102F10001092E309E091DF09F091E00916E01083D7
:102F2000E091DD09F091DE09808180618083E0918C
:102F3000DD09F091DE09808188608083E091DD0900
:102F4000F091DE09808180688083E091DD09F09155
:102F5000DE0980818F7D80831092440310924303A9
:102F600010924203109241031092400381E080933B
:102F70003F0310923E0361E084E1D6DB61E085E12E
:102F8000D3DB8091B9008E7F8093B9008091B90026
:102F90008D7F8093B90088E48093B80085E48093A6
:102FA000BC00E091780AF091790A0083E091740AFC
:102FB000F091750A1082E091760AF091770A80E12B
:102FC00080831092800AE0917C0AF0917D0A108340
:102FD000E0917A0AF0917B0A808180618083E091A0
:102FE0007A0AF0917B0A808188608083E0917A0A76
:102FF000F0917B0A808180688083E0917A0AF09169
:103000007B0A80818F7D808381E092E00E94D60FD1
:103010008AEE91E00E94D60F87E00E94500E85ED67
:1030200091E00E94B50F1092120B1092100B1092AB
:103030000D0B10920C0B10920B0B2BDC6B017C0117
:1030400080910B0B0E94500E61E080910B0B6CDBAA
:103050000E945E0C82E58093050B1092060B809116
:10306000050B9091060B0E94E6061AE08FEF0E9476
:10307000340E1150D9F7860187E09BE00E94E906E3
:1030800020E030E0A90160E087E09BE00E94FE06BE
:10309000F82E8093110B31E0831741F0FADB601BAF
:1030A000710B613D774060F381E055C02AEA31E061
:1030B00040E050E068E087E09BE00E94FE0682FF6F
:1030C00003C0F092120B10C054E0F52E0E94B2061D
:1030D0008093110BFA94F110F9CF8A3A11F082E043
:1030E0003AC082E08093120B8091120B823021F063
:1030F000C12CD12C760105C0C12CD12CE12C40E48F
:10310000F42E20E030E0A90167E387E09BE00E9415
:10311000FE06A701960169E287E09BE00E94FE0699
:103120008093110B882341F0B4DB601B710B613D70
:10313000774038F388E00FC08091120B823001F5A0
:1031400020E030E0A9016AE387E09BE00E94FE06F0
:10315000882341F086E080930C0B87E09BE00E947F
:10316000A706A2C00E94B206807C803C19F483E0CE
:103170008093120B0E94B2060E94B2060E94B20611
:1031800087E09BE00E94A70683E58093050B1092E1
:10319000060B81E00E943310882329F08091360BC2
:1031A000882341F081C080E00E943310882309F415
:1031B0007BC0F4CF80912A0B803109F582E08093A7
:1031C000360B1092480B1092490B10924A0B10923A
:1031D0004B0B80912B0B90912C0BA0E0B0E035E0D5
:1031E000880F991FAA1FBB1F3A95D1F78093440BF4
:1031F0009093450BA093460BB093470B1DC08032B4
:1032000009F052C083E08093360B40912D0B509112
:103210002E0B60912F0B7091300B4093480B509305
:10322000490B60934A0B70934B0B24E43BE083E122
:103230009BE02ADD8823C1F183E19BE090934D0B55
:1032400080934C0B81E08093350B1092370B1092DA
:10325000380B1092390B10923A0B10923B0B1092D4
:103260003C0B10923D0B10923E0B10923F0B1092B4
:10327000400B1092410B1092420B1092430B81EACB
:1032800091E00E94D60F6091680B7091690B41E04C
:10329000CE014C960E946F0EEDA9FEA98E010F5F24
:1032A0001F4F309731F460C08CEB91E00E94D60F35
:1032B000CFC18581882309F457C0CE014C960E9466
:1032C000DE01892B09F440C06FE872E0C80180DD9F
:1032D000CE014C960E940A1097FD1DC08A309105C0
:1032E000D1F08FAB18AEED80FE802FEFE21AF20A1C
:1032F000B701C8010E946011882351F329813A81E6
:103300008D819E81BE01695C7F4F820F931F81D7A3
:10331000FE82ED82DDCF83E991E00E94D60FC801E5
:103320000E94F50FE980FA80E114F10419F0C70159
:10333000B6D503C060E070E0CB01709301026093EA
:103340000002C70114D5B9CF82E792E00E94E40FD2
:103350008DA99EA9009761F00E9496068DA99EA94D
:1033600006D51EAA1DAA04C084E791E00E94D60FCC
:103370008091000290910102019690930102809346
:1033800000028EE191E00E94D60F8091970B909100
:10339000980B009721F4C8018B599B4004C09801F9
:1033A000281B390BC9019A838983C980DA800D2CC7
:1033B000000CEE08FF08F7FE14C0E091680AF091D7
:1033C000690A0190F081E02D6DE288E69AE0199596
:1033D00066277727CB016C197D098E099F094AE082
:1033E00003C04AE0C701B6010E94730F6DE872E0A6
:1033F00088E69AE00E943B0E88E69BE00E94F50F6B
:1034000060E972E0CE01CD96E3DC44E050E065E98E
:1034100072E0CE01CD960E94871188E091E00E9473
:10342000D60F809100029091010218AE1FAA1AAE29
:1034300019AE1CAE1BAE4AE0B80157D5F801019099
:103440000020E9F73197AF01401B510BB801CE01C5
:10345000C7960E94871123968EAD9FAD2397CDAC62
:10346000DEACEBACFCACC114D10409F427C300976B
:10347000A1F0E80EF91EB701CE01C7960E946011B7
:10348000882309F41BC32FA938AD8BAD9CADB601C1
:10349000820F931FBED6FCAEEBAE25961FAE1EAEBE
:1034A000259727961FAE1EAE279729961FAE1EAEF4
:1034B00029976FA978AD6115710539F04BAD5CADF9
:1034C000CE018D5B9F4F0E9487118FA998AD4FD47D
:1034D000CE018D5B9F4F0E94F50F8DAD9EAD47D401
:1034E000CE018D5B9F4F0E94F50F25966EAD7FAD8F
:1034F000259742E5C8010E946F0E8B819C819093B5
:10350000710B8093700B8D819E81AF81B885809304
:10351000720B9093730BA093740BB093750B89850A
:103520009A85AB85BC858093760B9093770BA0939F
:10353000780BB093790B8DE0FE013D96AAE7BBE0D6
:1035400001900D928A95E1F7EA8DFB8DF093880B3F
:10355000E093870B309731F08581882319F08AE951
:1035600092E002C08BEA92E00E94E40F0E945E0C9F
:10357000E0915C0BF0915D0B908180915E0B8095EA
:103580008923808380E80E94340E85E50E94340EF2
:10359000E0915C0BF0915D0B908180915E0B892B2B
:1035A0008083E0915C0BF0915D0B908180915E0BCC
:1035B00080958923808380E00E94340E80E00E9401
:1035C000340EE0915C0BF0915D0B208190915E0BCD
:1035D000922B9083853551F087E591E00E94D60FBC
:1035E00068EE73E080E090E01CD9C2CF8DE391E0FB
:1035F0000E94D60F81E08093020281EC92E00E944B
:10360000E40F82E08093B1008093B0008AE580935C
:10361000B30083ED92E00E94E40F85E680937C0086
:1036200080917A008B7F80937A0080917A0082600B
:1036300080937A0080917A00816080937A0083EE93
:1036400092E00E94E40F25968EAD9FAD25978FD313
:1036500080E1E82E11E002E296E5F92E28E0D22E74
:1036600080910202882309F421C1E091870BF09137
:10367000880B309719F08581811105C087E292E0AF
:103680000E94D60FFFCF85EF92E00E94E40F1092C8
:10369000450710924607109247071092480710926C
:1036A0004D0710924E0710924F0710925007E0916D
:1036B0006E0BF0916F0B0280F381E02D44E050E03F
:1036C0006EE072E08EE69BE0199568E073E08EE6AE
:1036D0009BE00E943B0EE0916E0BF0916F0B02801D
:1036E000F381E02D44E050E06EE072E08EE69BE076
:1036F00019956DE073E08EE69BE00E943B0E62E15F
:1037000073E08EE69BE00E943B0EE0924C07109225
:103710004B0710924A071092490760E18EE69BE042
:103720000E94320A60914B078EE69BE00E94320AAB
:1037300060914A078EE69BE00E94320A6091490739
:103740008EE69BE00E94320A10934C0710924B07C2
:1037500061E08EE69BE00E94320A60914B078EE6A4
:103760009BE00E94320A10934C0710924B0761E0D5
:103770008EE69BE00E94320A60914B078EE69BE04A
:103780000E94320A00934C07F0924B0710924A07AE
:103790001092490762E28EE69BE00E94320A609135
:1037A0004B078EE69BE00E94320A60914A078EE644
:1037B0009BE00E94320A609149078EE69BE00E94DE
:1037C000320A00934C07F0924B0710924A0710926E
:1037D000490762E28EE69BE00E94320A60914B0745
:1037E0008EE69BE00E94320A60914A078EE69BE0DB
:1037F0000E94320A609149078EE69BE00E94320ADD
:1038000010934C0710924B0761E08EE69BE00E94FC
:10381000320A60914B078EE69BE00E94320AD092FA
:103820004C0710924B0768E08EE69BE00E94320A3C
:1038300060914B078EE69BE00E94320A67E173E0DD
:103840008EE69BE00E943B0E10924C0710924B07B5
:1038500010924A071092490760E08EE69BE00E94B2
:10386000320A60914B078EE69BE00E94320A60911B
:103870004A078EE69BE00E94320A609149078EE675
:103880009BE00E94320A80917000826080937000F9
:1038900010920202109355070E9449146093510739
:1038A0007093520780935307909354078091550764
:1038B000882309F4A3C08091020281119FC00E9455
:1038C00049148090510790905207A0905307B090F0
:1038D000540730E2830E3EE4931EA11CB11C8616F1
:1038E0009706A806B90608F089C08CE193E00E940B
:1038F000E40F809170008D7F8093700088E192E0EA
:103900000E94D60F60914D0770914E0780914F072E
:10391000909150074AE00E94730F8091870B90911D
:10392000880B009731F044E050E060E070E00E94C6
:10393000470360914D0720914E0790914F0780916A
:10394000500760934C0720934B0790934A0780934E
:1039500049078EE69BE00E94320A60914B078EE693
:103960009BE00E94320A60914A078EE69BE00E942B
:10397000320A609149078EE69BE00E94320A8091EC
:10398000870B9091880B009731F048E250E060E09F
:1039900070E00E94470360914C078EE69BE00E9416
:1039A000320A60914B078EE69BE00E94320A6091DA
:1039B0004A078EE69BE00E94320A609149078EE634
:1039C0009BE00E94320A8091870B9091880B0097B0
:1039D00059F00E9496068091870B9091880BC7D171
:1039E0001092880B1092870B1093020210925507C9
:1039F00060EA76E881E090E00E941114809155071A
:103A0000882359F18091450790914607A091470777
:103A1000B09148079370AA27BB2781159240A10552
:103A2000B105D9F440E052E065E475E08EE69BE034
:103A30000E94C80A80914D0790914E07A0914F07B0
:103A4000B09150079E5FAF4FBF4F80934D0790934B
:103A50004E07A0934F07B0935007809155078823D6
:103A600051F18091450790914607A0914707B09189
:103A700048079370AA27BB27892B8A2B8B2BD9F455
:103A800040E052E065E473E08EE69BE00E94C80AE5
:103A900080914D0790914E07A0914F07B09150072C
:103AA0009E5FAF4FBF4F80934D0790934E07A093FB
:103AB0004F07B09350070E949612D2CDCE01C79601
:103AC00076D9EBCC8091620B9091630B50D18091B1
:103AD000680B9091690B4BC1CF93DF93EBECF9E04E
:103AE0001382128288EE93E0A0E0B0E08483958395
:103AF000A683B78326E132E03183208345E351E09A
:103B00005587448744E351E05787468740E351E0B7
:103B1000518B408B41E351E0538B428B42E351E0A8
:103B2000558B448B46E351E0578B468B118E128E9A
:103B3000138E148EE8E6FAE0138212828483958352
:103B4000A683B7833183208325EC30E03587248733
:103B500024EC30E03787268720EC30E0318B208B57
:103B600021EC30E0338B228B22EC30E0358B248B40
:103B700026EC30E0378B268B118E128E138E148E2E
:103B8000E5E0FBE020E520831182E7E0FBE0158221
:103B900016821186138642E050E060E070E04487B0
:103BA00055876687778713A215A614A628E232E008
:103BB00033A722A717A6E0E5FBE0138212828483D5
:103BC0009583A683B78324E332E031832083EEE636
:103BD000FBE01382128284839583A683B78386E4F5
:103BE00092E091838083128E118E148660E373E0DD
:103BF00088E69BE0EDD86FE872E082E69BE0E8D8CB
:103C0000EEECF2E0E491F0E0EE0FFF1FE355FD4F24
:103C100085919491CCE5DBE099838883EEE6F2E030
:103C2000E491EA8387E00E94500EE881F981908157
:103C30008A81892B808385E08C8380E68D83DF9168
:103C4000CF910895CF93DF938230910510F482E0F5
:103C500090E0E091990BF0919A0B20E030E0C0E009
:103C6000D0E0309711F14081518148175907C0F0D9
:103C70004817590761F482819381209719F09B833B
:103C80008A832BC090939A0B8093990B26C02115A1
:103C9000310519F04217530718F49A01BE01DF01EC
:103CA000EF010280F381E02DDCCF2115310509F110
:103CB000281B390B2430310590F412968D919C917C
:103CC00013976115710521F0FB019383828304C072
:103CD00090939A0B8093990BFD01329644C0FD019D
:103CE000E20FF31F81939193225031092D933C935E
:103CF0003AC02091970B3091980B232B41F42091DF
:103D0000090230910A023093980B2093970B20916F
:103D10000702309108022115310541F42DB73EB755
:103D200040910B0250910C02241B350BE091970B34
:103D3000F091980BE217F307A0F42E1B3F0B281706
:103D4000390778F0AC014E5F5F4F2417350748F014
:103D50004E0F5F1F5093980B4093970B8193919355
:103D600002C0E0E0F0E0CF01DF91CF9108950F9322
:103D70001F93CF93DF93009709F48CC0FC01329717
:103D8000138212820091990B10919A0B0115110563
:103D900081F420813181820F931F2091970B309104
:103DA000980B2817390779F5F093980BE093970B48
:103DB00071C0D80140E050E0AE17BF0750F4129632
:103DC0002D913C911397AD012115310509F1D901D0
:103DD000F3CF9D01DA013383228360817181860FE5
:103DE000971F8217930769F4EC0128813981260F08
:103DF000371F2E5F3F4F318320838A819B819383BE
:103E00008283452B29F4F0939A0BE093990B42C0DF
:103E10001396FC93EE931297ED01499159919E01EF
:103E2000240F351FE217F30771F480819181840F0D
:103E3000951F029611969C938E938281938113967F
:103E40009C938E931297E0E0F0E0D80112968D914A
:103E50009C911397009719F0F8018C01F6CF8D9182
:103E60009C9198012E5F3F4F820F931F2091970BDB
:103E70003091980B2817390769F4309729F410927C
:103E80009A0B1092990B02C0138212821093980B16
:103E90000093970BDF91CF911F910F9108951F937E
:103EA000FC0199278827BC01E89411911032E9F3AD
:103EB000193010F01E30C8F31B3249F01D3241F4A6
:103EC000689405C01CD0610F711D811D911D119159
:103ED00010531A30B8F33EF4909580957095619523
:103EE0007F4F8F4F9F4F1F910895BB274A3031F46A
:103EF000992322F4BDE2909581959F4F16C0592FCA
:103F0000482F372F262F660F771F881F991F660FA0
:103F1000771F881F991F620F731F841F951F660FDD
:103F2000771F881F991F0895BB27FB015527AA27D4
:103F3000880F991FAA1FA41710F0A41B8395505136
:103F4000B9F7A05DAA3308F0A95DA193009779F7AE
:103F5000B111B1931192CB0100C0DC01FC01672FBC
:103F600071917723E1F7329704C07C916D93708350
:103F70006291AE17BF07C8F3089509D0A59F900DB1
:103F8000B49F900DA49F800D911D11240895A29FB0
:103F9000B001B39FC001A39F700D811D1124911D1D
:103FA000B29F700D811D1124911D0895A1E21A2E5A
:103FB000AA1BBB1BFD010DC0AA1FBB1FEE1FFF1FCD
:103FC000A217B307E407F50720F0A21BB30BE40B1D
:103FD000F50B661F771F881F991F1A9469F7609564
:103FE0007095809590959B01AC01BD01CF0108951E
:103FF000EE0FFF1F881F8BBF0790F691E02D1994DD
:104000006F927F928F929F92AF92BF92CF92DF92E8
:10401000EF92FF920F931F93CF93DF93EC010097E2
:1040200081F4CB01DF91CF911F910F91FF90EF9021
:10403000DF90CF90BF90AF909F908F907F906F90C8
:1040400001CEFC01E60FF71F9C0122503109E21757
:10405000F30708F4A8C0D9010D911C911197061718
:104060001707A8F00530110508F49BC0C801049794
:104070008617970708F495C002501109061B170B05
:10408000019311936D937C93CF0171DE8AC05B0124
:10409000A01AB10A4C01800E911EA091990BB0910B
:1040A0009A0B40E050E0E12CF12C109709F44AC043
:1040B000A815B905D1F56D907C901197630182E048
:1040C000C80ED11CCA14DB0480F1A3014A195B0994
:1040D0006A0182E0C80ED11C1296BC90129713960A
:1040E000AC91B5E0CB16D10440F0B282A3835183EA
:1040F0004083D9016D937C930AC00E5F1F4FC301AB
:10410000800F911FF90191838083EB2DFA2FE11429
:10411000F10431F0D7011396FC93EE93129741C04E
:10412000F0939A0BE093990B3CC08D919C91119761
:104130004817590708F4AC017D0112960D90BC9107
:10414000A02DB3CF8091970B9091980B881599056E
:10415000E1F446175707C8F48091070290910802CE
:10416000009741F48DB79EB740910B0250910C021D
:10417000841B950BE817F907B0F4F093980BE093C4
:10418000970BF901718360830CC0CB015BDD7C016F
:10419000009749F0A801BE0128D0CE01E8DDC70193
:1041A00004C0CE0102C080E090E0DF91CF911F916A
:1041B0000F91FF90EF90DF90CF90BF90AF909F90C6
:1041C0008F907F906F90089581E090E0F89437C0D1
:1041D000FB01DC0104C08D910190801921F4415054
:1041E0005040C8F7881B990B0895FB01DC0102C001
:1041F00001900D9241505040D8F70895FC018191F3
:10420000861721F08823D9F7992708953197CF0190
:104210000895FB01DC0101900D920020E1F7089563
:10422000FB01DC014150504048F001900D9200200C
:10423000C9F701C01D9241505040E0F7089511E0C8
:10424000CBEAD1E000E005C0802FFE01D1DE21964F
:10425000011DCC3AD10780E00807B1F7F894FFCFF1
:10426000080201FFFFFFFF00009B0B800000000021
:104270000000000000002F12AC16BF117512F011E3
:10428000CE11E21100000000D109AC16C50AC40A23
:1042900000000000B40AA00AC50A7A0A980A890A2E
:1042A0007B0A00000000320AC80AC50A3D02DE018E
:1042B000220C2B0C00000000EE12AC16C50AC40A3A
:1042C000EE12EE12EE1200000000EE12AC16C50A5D
:1042D000C40A436C6F73696E6720696D61676520FE
:1042E000636F756E7465722066696C65000D0A00F7
:1042F0002E6A7067002E77617600576176652066BA
:10430000696C65206F70656E656400576176652025
:1043100066696C65206F70656E206661696C6564A6
:104320000053657474696E672075702074696D65DB
:10433000722E0053657474696E6720757020414455
:10434000432E0053657474696E6720636F6D706CE3
:104350006574652E005374617274696E67207265AE
:10436000636F7264696E6700524946460057415652
:104370004500666D7420006461746100436F6D7068
:104380006C65746564207265636F7264696E670042
:0E439000494D474354522E545854002F0000FC
:00000001FF
