:100000008FC10000BEC10000BCC10000BAC1000029
:10001000B8C10000B6C10000B4C10000B2C1000008
:10002000B0C1000003C6000001C60000FFC500000B
:10003000A8C1000036C70000A4C10000A2C1000092
:10004000A0C100009EC100009CC100009AC1000038
:1000500098C1000096C1000094C100000C9499134F
:1000600090C100000C94B5120C948C128AC100004F
:1000700088C1000086C1000084C1000082C1000068
:1000800080C100007EC100007CC100007AC1000078
:1000900078C1000076C1000074C10000D1C5000025
:1000A00070C100006EC100006CC100006AC1000098
:1000B00068C1000066C1000064C1000062C10000A8
:1000C00060C100005EC100005CC100005AC10000B8
:1000D00058C1000056C1000054C1000052C10000C8
:1000E00050C100001A131D130C13101314135413D2
:1000F000211325132B132F13331339133D134113DE
:10010000541347134B134F137C3C3E5E2B3D3F2F44
:100110005B5D3B2C2A225C0046696C65206E616D3C
:10012000652067656E6572617465643A20004F7082
:10013000656E696E672074686520696D616765200A
:10014000636F756E7465722066696C6500496D61D8
:10015000676520636F756E7465722066696C6520D3
:100160006F70656E206661696C65640053746F72B0
:1001700065642076616C75653A00534420496E6968
:100180007469616C697A6174696F6E20636F6D70F8
:100190006C65746500534420496E697469616C69CB
:1001A0007A6174696F6E206661696C656400496E7E
:1001B000697469616C697A696E6720534420636170
:1001C00072640041434B20434D44204172647543A7
:1001D000414D205374617274210053746172742014
:1001E00053657269616C2061742039323136303068
:1001F0000052656365697665642062797465730091
:10020000576176652046696C65206F70656E206663
:1002100061696C65640000002100240027002A0049
:100220002D003000330001010000040107010A0124
:1002300001021020200808102040102040800201F8
:1002400002010804020101020408102040808040DD
:1002500020100804020180040201804020100804DC
:10026000020108040201010204081020408001027A
:1002700004081020408000002200250028002B00E8
:100280002E003100340002010000050108010B01BD
:1002900005050505070508080808020202020A0A02
:1002A0000808040404040101010101010101030320
:1002B000030303030303040707070C0C0C0C0C0CCB
:1002C0000C0C0202020206060606060606060B0BC8
:1002D0000B0B0B0B0B0B00000A0B02090C0D0E088D
:1002E00007030401000000000000000000000000FF
:1002F00000000000000000000000000000000000FE
:1003000000001211100000000000000000000000BA
:10031000000000000000000000000000CF1C40169C
:1003200011241FBECFEFD1E2DEBFCDBF00E00CBF76
:1003300013E0A0E0B2E0EAEDF0E400E00BBF02C0A1
:1003400007900D92AE35B107D9F72BE0AEE5B3E0DB
:1003500001C01D92AE31B207E1F711E0CFE8D1E064
:1003600000E006C021970109802FFE010E94351F81
:10037000CE38D10780E00807A9F70E944A160C94EE
:100380005C203ECEDC015996ED91FC915A97309756
:10039000B9F083899489A589B68942855385648596
:1003A0007585841B950BA60BB70B811520E892076A
:1003B000A105B10538F08FEF9FE7A0E0B0E0089508
:1003C00080E090E00895CF93DF931F92CDB7DEB722
:1003D0006983DC01ED91FC910280F381E02D41E025
:1003E00050E0BE016F5F7F4F19950F90DF91CF9165
:1003F000089585ED8093BC008091BC0084FDFCCF06
:100400001092D203089540918303262F30E0240FE9
:10041000311D21323105DCF42091D2032430C9F49E
:10042000FC0180E090E0861758F43091830321911D
:10043000DC01AF59BC4FA30FB11D2C930196F3CF34
:1004400080918303680F6093830380E0089581E0C7
:10045000089582E00895089581E090E03091D603F8
:100460002091D503321710F480E090E091958195AA
:10047000910908958091D6039091D503891730F49E
:100480008F5F8093D60380E090E008958FEF9FEF19
:1004900008958091D50390E02091D603821B9109A5
:1004A0000895CF93DF931F921F92CDB7DEB7CB0194
:1004B000642F49835A83A7DF4981842F5A81952F5E
:1004C0000F900F90DF91CF910895CF93DF931F92FC
:1004D000CDB7DEB7698361E0CE01019694DF81E09C
:1004E00090E00F90DF91CF910895089580E090E023
:1004F0000895CF93DF93EC018D818823A1F18C8146
:1005000087FF2DC06E857F858889998941E00E948B
:100510001E14882341F1EA8980E2E89FF00111244A
:10052000DF01A751B84F1097F1F08D81823050F460
:100530004B895C896D897E895C964D935D936D9343
:100540007C935F978F89988DA98DBA8DE751F84F6D
:10055000938F828FB58BA48B8C818F778C83DF9167
:10056000CF910C94E31380E0DF91CF910895FC01CB
:10057000818D928D009709F0BCCF08953F924F92E4
:100580005F926F927F928F929F92AF92BF92CF9223
:10059000DF92EF92FF920F931F93CF93DF93CDB72C
:1005A000DEB72C970FB6F894DEBF0FBECDBF5C014F
:1005B000DC015B968D909C905C971696CD90DD90BB
:1005C000ED90FC901997C114D104E104F10439F0C5
:1005D000BFEFCB1ADB0AEB0AFB0A312C07C0F40190
:1005E000C080D180E280F38033243394F40181858C
:1005F0009285A385B4859C01AD012F5F3F4F4F4F7E
:100600005F4F29873A874B875C87260137011D8218
:100610001E821F821886F40181859285A385B48588
:100620002D813E814F815885281739074A075B077E
:1006300008F063C089859A85AB85BC858C159D05BE
:10064000AE05BF0550F482E0C82ED12CE12CF12C70
:1006500092E0492E512C612C712C9E012F5F3F4F4F
:10066000B701A601C4010E940515882309F445C0FD
:1006700089819A81AB81BC81892B8A2B8B2B41F09C
:10068000260137019FEF491A590A690A790A05C0FC
:10069000C414D504E604F70491F02D813E814F8106
:1006A00058852F5F3F4F4F4F5F4F2D833E834F83C2
:1006B00058873FEFC31AD30AE30AF30AACCF0FEF10
:1006C0001FEF2FEF3FE0B301A201C4010E946614A7
:1006D000882399F0D50116964D915D916D917C918D
:1006E0001997411551056105710549F09301820182
:1006F000C4010E946614811102C080E02AC0D501A5
:1007000016964D925D926D927C921997332051F01E
:10071000D301C2010196A11DB11DF4018083918313
:10072000A283B383F5018789908DA18DB28D892B2A
:100730008A2B8B2B69F4D50157964D925D926D9261
:100740007C925A9714968C911497806814968C9387
:1007500081E02C960FB6F894DEBF0FBECDBFDF91BF
:10076000CF911F910F91FF90EF90DF90CF90BF90AE
:10077000AF909F908F907F906F905F904F903F9041
:1007800008958F929F92AF92BF92CF92DF92EF9295
:10079000FF920F931F93CF93DF93EC018D81811113
:1007A00002C080E077C00B891C892D893E8904171F
:1007B000150726073707A8F36A017B01823029F461
:1007C000CA86DB86EC86FD860DC0C114D104E10427
:1007D000F10451F41E821F82188619861A861B8620
:1007E0001C861D8681E056C08A849B84AC84BD84AF
:1007F000EB8DFC8D258530E0275F3F4FB501A401CF
:100800004150510961097109022E04C0769567951E
:10081000579547950A94D2F7D701C6010197A109C8
:10082000B10904C0B695A795979587952A95D2F7F3
:1008300084179507A607B70720F089288A288B28F0
:1008400049F44F89588D698D7A8D4E835F8368870F
:10085000798704C0841B950BA60BB70B4C015D0177
:100860008E010A5F1F4F81149104A104B10409F4A1
:10087000A7CF4E815F816885798598018B8D9C8D8E
:100880000E94051591E0891A9108A108B10881110B
:10089000EACF87CFDF91CF911F910F91FF90EF901B
:1008A000DF90CF90BF90AF909F908F9008958F92E0
:1008B0009F92AF92BF92CF92DF92EF92FF920F93EF
:1008C0001F93CF93DF9300D01F92CDB7DEB77C018B
:1008D00080E2689F6001112496012751384FD901A9
:1008E0001B969C91917121F0842F827409F096C01F
:1008F000142FF701628B8091030290910402A09162
:100900000502B091060286879787A08BB18BF6010E
:10091000E751F84F4489558960E070E0BA015527E6
:100920004427D70157964D935D936D937C935A97C7
:10093000828D938DA0E0B0E0482B592B6A2B7B2B46
:10094000D70157964D935D936D937C935A97D90138
:100950001B968C91887159F4848D958DA68DB78DD9
:10096000F701838B948BA58BB68B81E012C080310D
:1009700009F054C097012D5E3F4FD7015B968D91D2
:100980009C915C970E948815882309F447C084E0F5
:10099000F7018583812F8F70D70114968C9314975C
:1009A000F70116821782108611861A961D921D92E3
:1009B0001D921C921D9716FF33C015968C918130A5
:1009C00069F511FF2BC0F701438954896589768940
:1009D000452B462B472B09F45EC040E050E0BA019E
:1009E000C701CFDE8823D1F0F7018788908CA18CD6
:1009F000B28CC38CD48C82E090E0A0E0B0E0F60131
:100A000080839183A283B3839E012F5F3F4FB50103
:100A1000A401C6010E940515811104C080E03BC0FD
:100A200081E039C000E010E09801B501A401C601E1
:100A30000E946614882391F389809A80AB80BC80E1
:100A4000D60157968C91803129F088EF9FEFAFEF58
:100A5000BFE004C088EF9FEFA0E0B0E088169906E1
:100A6000AA06BB0688F2D70157961D921D921D92C9
:100A70001C925A97F701138A148A158A168A848160
:100A800080688483C70135DD882341F240E050E06F
:100A9000BA01C70176DE0F900F900F900F90DF9193
:100AA000CF911F910F91FF90EF90DF90CF90BF906B
:100AB000AF909F908F900895CF93DF93EC0119DD55
:100AC000882311F01D8281E0DF91CF9108958FB7C7
:100AD000F8948091CF038FBF089561E0FC01848179
:100AE0000E94EB128091CE0381111092CE030895E3
:100AF0008CBD9DBD0895CF93DF93EC018091CE0313
:100B0000811108C081E08093CE038091880A909182
:100B1000890AEEDF60E08C81DF91CF910C94EB12BB
:100B2000FC01DB0112968D919C9113979383828334
:100B300088E292E09183808314968C911497848349
:100B400015968C911597858316964D915D916D91B3
:100B50007C91199746835783608771871A964D91C8
:100B60005D916D917C911D9742875387648775874E
:100B70001E964D915D916D917C9151974687578757
:100B8000608B718B52968C915297828B53964D91BC
:100B90005D916D917C915697438B548B658B768BD1
:100BA00057964D915D916D917C915A97478B508FDF
:100BB000618F728F5B968D919C915C97948F838FE0
:100BC0000895EF92FF920F931F93CF93DF93EC0161
:100BD0007B018A011B821A8288EE93E0A0E0B0E0DC
:100BE0008C839D83AE83BF8386E492E09983888360
:100BF0008DE190E00E945F1D9A8F898F009779F0B8
:100C00002DE1F701DC0101900D922A95E1F74CE00E
:100C100050E0B801CE010C960E944D20188EDF9155
:100C2000CF911F910F91FF90EF9008951F920F9217
:100C30000FB60F9211240F900FBE0F901F901895B2
:100C40001F920F920FB60F9211240BB60F922F9393
:100C50003F934F935F936F937F938F939F93AF9344
:100C6000BF93EF93FF938091B900887F803609F49A
:100C70009CC068F5883209F45BC090F4803109F4B7
:100C800054C038F4882309F4F6C0883009F44DC004
:100C9000F5C0883109F44CC0803209F45DC0EEC063
:100CA000803409F468C048F4803309F455C08833AF
:100CB00009F0E4C08093A803D8C0803509F44FC080
:100CC000883509F45DC0883409F0D8C0D6C08839A9
:100CD00009F4C7C0A8F4883709F467C038F4883627
:100CE00009F463C0803709F460C0C8C0883809F4CB
:100CF000B8C0803909F45FC0803809F0BFC05BC05C
:100D0000803B09F486C038F4803A09F466C0883A1A
:100D100009F47FC0B3C0803C09F4A7C0883C09F443
:100D2000A4C0883B09F48AC0A9C08091CB0310C03D
:100D30009091CA038091C903981770F5E091CA0396
:100D400081E08E0F8093CA03F0E0E755FC4F80816D
:100D50008093BB0085EC86C08093A8038EC0E09191
:100D6000CA0381E08E0F8093CA038091BB00F0E03C
:100D7000E755FC4F80839091CA038091C9036EC0F0
:100D8000E091CA0381E08E0F8093CA038091BB007B
:100D9000F0E0E755FC4F80838091D10381116DC055
:100DA00081E08093D00384EA61C083E08093D20322
:100DB0001092A703CFCF8091A703803208F051C0D3
:100DC000E091A70381E08E0F8093A7038091BB0081
:100DD000F0E0E957FC4F8083BDCF85EC8093BC00E9
:100DE0001092D2038091A703803230F4E091A703E0
:100DF000F0E0E957FC4F10826091A70370E0E091AA
:100E00008503F091860387E893E019951092A70374
:100E100035C084E08093D203109284031092830340
:100E2000E0918103F09182031995809183038111F0
:100E300005C081E08093830310926103E0918403F5
:100E400081E08E0F80938403F0E0EF59FC4F8081A6
:100E50008093BB009091840380918303981708F4DA
:100E600079CF85E88093BC0009C085EC8093BC00F5
:100E70001092D20303C01092A803BBDAFF91EF9146
:100E8000BF91AF919F918F917F916F915F914F91A2
:100E90003F912F910F900BBE0F900FBE0F901F90A0
:100EA00018951F920F920FB60F9211240BB60F9246
:100EB0002F933F938F939F93AF93BF93EF93FF93A2
:100EC00080917A00806480937A0080917A0086FD18
:100ED000FCCF8091D7079091D807A091D907B09106
:100EE000DA070196A11DB11D8093D7079093D8070B
:100EF000A093D907B093DA0780915F0390916003C4
:100F000001969093600380935F0320915E038115A7
:100F100032E0930751F4211108C01092600310923F
:100F20005F0381E080935E030BC08115924041F422
:100F3000213031F41092600310925F0310925E032F
:100F400080915E03811109C080917900E0915F0377
:100F5000F0916003E952FA4F0AC0813049F4809160
:100F60007900E0915F03F0916003E952FC4F8083C8
:100F7000FF91EF91BF91AF919F918F913F912F91F1
:100F80000F900BBE0F900FBE0F901F9018958EBD47
:100F900000000DB407FEFDCF8EB508958FEFF7CF9B
:100FA0000F931F93CF93DF93EB010E948D138B015F
:100FB000F5DF8F3F49F00E948D13601B710B6C179A
:100FC0007D07B0F380E001C081E0DF91CF911F91F8
:100FD0000F910895CF93DF93EC018E81882379F0F0
:100FE0008F8198859C012F5F3F4F38872F838230F8
:100FF000924010F4D3DFF4CFCE016FDD1E82DF917B
:10100000CF910895CF92DF92FF920F931F93CF93CA
:10101000DF9300D01F92CDB7DEB76C01F62E298387
:101020003A834B835C83D6DFC60165DD6CE271E0F9
:10103000C601B6DF8F2D8064AADF08E110E05C8175
:101040004B813A812981DA01C901002E04C0B6958D
:10105000A795979587950A94D2F729833A834B836E
:101060005C8395DF0850110929813A814B815C81AD
:10107000083F8FEF180739F7FF2029F0E8E0FE124C
:1010800004C087E803C085E901C08FEF80DF10E06E
:1010900085DFF601828787FF04C01F3F11F01F5FC5
:1010A000F7CF0F900F900F900F90DF91CF911F917E
:1010B0000F91FF90DF90CF900895AF92BF92CF92A3
:1010C000DF92EF92FF920F931F93CF93DF93EC0188
:1010D0006901C801820F931F8130924008F06AC0F5
:1010E0008E81882371F088819981AA81BB814817FC
:1010F00059076A077B0729F48F819885C816D90696
:1011000098F5488359836A837B838B85833039F0D4
:1011100089E0440F551F661F771F8A95D1F79A0102
:10112000AB0161E1CE016EDF882319F083E08D838E
:1011300041C00E948D135B0131DF8A878F3F49F4E4
:101140000E948D136A197B096D327140A8F38FE0FC
:1011500003C08E3F29F08DE08D83CE01BEDC2AC016
:1011600018861F8281E08E838F8198858C159D055E
:1011700038F414DF8F819885019698878F83F4CF98
:101180006701E00EF11ECE14DF0429F007DFF6013F
:1011900081936F01F8CF8F819885080F191F1887E9
:1011A0000F838985882319F00115124038F0CE018C
:1011B00011DF04C0CE0191DC80E001C081E0DF914D
:1011C000CF911F910F91FF90EF90DF90CF90BF9044
:1011D000AF9008952F923F924F925F926F927F92BD
:1011E0008F929F92AF92BF92CF92DF92EF92FF9237
:1011F0000F931F93CF93DF931F921F92CDB7DEB74C
:10120000FC018581882309F4D8C0848180FFD5C082
:1012100021E02A834389548965897689828593856B
:10122000A485B585481759076A077B0709F41A8210
:101230006F013A81832F90E0DE0111964D013F014D
:10124000B6E06B0E711C892B09F47DC0D6011A968D
:101250004D915D916D917C911D975A01B1E0BB223A
:10126000F60125811A012B0189E0569447943794A1
:1012700027948A95D1F7838D948D223061F4FC01F7
:10128000828D938DA48DB58DBC01CD01620D731D32
:10129000841D951D45C0DC0114961C91115012212E
:1012A000A114B104D1F4111118C0452B462B472BC2
:1012B00051F4F6018789908DA18DB28D8683978335
:1012C000A087B1870AC046815781608571859301E7
:1012D0000E940515882309F470C0F601238D348D12
:1012E00086819781A085B1850297A109B109AC01DA
:1012F000BD01F901058404C0440F551F661F771F07
:101300000A94D2F786859785A089B189840F951FA5
:10131000A61FB71FBC01CD01610F711D811D911D5D
:10132000D60114962C9126FF14C00091030210914F
:1013300004022091050230910602601771078207AE
:10134000930751F506C0FA81FF23B9F1898190E036
:1013500036C040E00E941E14882379F1F501E75160
:10136000F84FD401CF010196E817F90719F0219140
:101370002D93FACFEFEF8E1A9E0AF60182859385A0
:10138000A485B5850196A11DB11D82879387A48789
:10139000B58780E090E057CF740101E010E095013F
:1013A000AB01BC018091E9099091EA0986DE8823AE
:1013B00021F0BFEF8B1A9B0AE0CF8FEF9FEF0F90CA
:1013C0000F90DF91CF911F910F91FF90EF90DF90E1
:1013D000CF90BF90AF909F908F907F906F905F90D5
:1013E0004F903F902F9008954F925F926F927F920F
:1013F000AF92BF92CF92DF92EF92FF920F931F9323
:10140000CF93DF93CDB7DEB72B970FB6F894DEBF3F
:101410000FBECDBF7C01CE0101966C01FC0190E2B4
:101420008BE08C0D91938E13FDCFDA0130E047E015
:101430009D91992339F19E3219F0E8E0F1E00AC05C
:101440004A3009F470C138E04AE0F2CF319689178A
:1014500009F469C184918111F9CF431708F463C17C
:101460008FED890F8E3508F05EC181E0830FF601A4
:10147000E30FF11D3FE9390F3A3108F490529083A0
:10148000382FD6CF8981803209F44DC1B22E8B011D
:10149000DB015B968D919C915C97F701948F838F14
:1014A00016961D921D921D921C921997FB01128691
:1014B000138614861586712CF80182859385A48580
:1014C000B585438954896589768984179507A60768
:1014D000B70708F060C025E0B695A7959795879562
:1014E0002A95D1F7F82FFF706F2ED80115968C91A1
:1014F000823008F418C1C8016DDE97FD14C1F801EF
:1015000082859385A485B5854F96A11DB11D8287DF
:101510009387A487B587F0E26F9EC0011124BC01B8
:101520006751784F6115710509F4FDC0DB012C91FD
:10153000222319F0253EC1F427C071100EC0F70117
:10154000628A4091030250910402609105027091F9
:10155000060246875787608B718BFC01E751F84F75
:101560008081811113C015C04BE050E0C6010E947C
:101570002520892B09F0A0CF8B2D8073803309F4AF
:10158000D2C04B2D662DCCC07720C9F2772473943E
:1015900093CF772473948B2D8271823109F0C3C06D
:1015A0007720D1F0D7011E966D917D918D919C9100
:1015B000519741E00E941E14882309F4B4C0F7013A
:1015C0006289F0E26F9FB00111246751784F611575
:1015D000710509F079C0A7C0D80115968C918230A9
:1015E00009F4A1C0C8010E94BE02882309F49BC06F
:1015F000D8015B96ED91FC915C9716964D905D90AD
:101600006D907C901997B2E04B1A510861087108EF
:10161000058404C0440C551C661C771C0A94D2F740
:1016200086859785A089B189480E591E6A1E7B1E42
:10163000A480E1E04E1A510861087108AA2009F15E
:101640000E94E313882309F46EC0E9EEF7E01192DB
:1016500029E0E93EF207D9F7D301C2018A0D911DB5
:10166000A11DB11D8093030290930402A093050273
:10167000B093060280910C0B816080930C0BAA94AE
:10168000DDCFD8015B96ED91FC915C9780E092E014
:10169000A0E0B0E0058404C0880F991FAA1FBB1FFB
:1016A0000A94D2F7F8014389548965897689840FB1
:1016B000951FA61FB71F838B948BA58BB68BD70165
:1016C00052961C9269EE77E080E2FB0111928A95B6
:1016D000E9F78BE0F601DB0101900D928A95E1F7C5
:1016E00081E298E2DB0151969C938E93509720E023
:1016F00038E01F963C932E931E9753969C938E939F
:10170000529759969C938E93589757963C932E9345
:1017100056970E94E313882331F04B2DF70162891D
:10172000C701C5D801C080E02B960FB6F894DEBF84
:101730000FBECDBFDF91CF911F910F91FF90EF9022
:10174000DF90CF90BF90AF907F906F905F904F9061
:101750000895FC01818D928D009709F03BCD8FEFAC
:101760009FEF08950F931F93CF93DF93FC01818D1B
:10177000928D0097B1F0EF012DDD8C010F3F8FEFBF
:10178000180791F0898D9A8DFC01428553856485F7
:10179000758541505109610971090E94C103C80151
:1017A00005C080E090E002C08FEF9FEFDF91CF9106
:1017B0001F910F910895EF92FF920F931F93CF9374
:1017C000DF93EC017901411551056105710511F4B3
:1017D00082E134C08B85833039F089E0440F551F96
:1017E000661F771F8A95D1F79A01AB0168E1CE0198
:1017F00009DC882311F084E021C08EEFC8DB87016B
:101800008EEFF81AF80181918F01C1DB0E151F05CB
:10181000C9F78FEFBCDB8FEFBADBC0DB8A878F7134
:10182000853029F081E18D83CE0157D908C068E564
:1018300072E0CE01B5DB811106C085E18D83CE015A
:101840004CD980E010C020E030E0A9016DE0CE016D
:10185000D9DB811103C0A2DB882311F084E1EECF34
:10186000CE013BD981E0DF91CF911F910F91FF9085
:10187000EF9008952F923F924F925F926F927F92D6
:101880008F929F92AF92BF92CF92DF92EF92FF9290
:101890000F931F93CF93DF9300D01F92CDB7DEB786
:1018A0008C015B011A01DC0115968C911597813032
:1018B000C9F414968C9181FF15C082FF1BC0F801FA
:1018C000438954896589768982859385A485B58500
:1018D00084179507A607B70769F0C8010E94C103DE
:1018E000811108C081E090E0F8019383828380E059
:1018F00090E035C1610182C0D8015B968D919C91C9
:101900005C97FC01248121502A013B0139E0769447
:101910006794579447943A95D1F7722E74207A01C0
:10192000F1E0FF22772009F475C080E092E08E1983
:101930009F0946018C159D0508F44C01D8015B9662
:101940002D913C915C9716968D919D910D90BC9137
:10195000A02D0297A109B109F901058404C0880FDF
:10196000991FAA1FBB1F0A94D2F746855785608925
:101970007189840F951FA61FB71F9C01AD01270D0C
:10198000311D411D511D29013A01811432E0930698
:1019900009F086C08091030290910402A091050293
:1019A000B091060284159505A605B70559F48FEF89
:1019B0009FEFDC018093030290930402A093050241
:1019C000B09306029501B301A2018091E9099091BB
:1019D000EA09F1DE882309F485CF9EEFB91AC81809
:1019E000D908F80182859385A485B585880D991D50
:1019F000A11DB11D82879387A487B587D8011A9648
:101A00004D915D916D917C911D97C114D10409F0A8
:101A100073CF84C0E114F10409F087CF16964D917D
:101A20005D916D917C911997411551056105710585
:101A300059F457968D919D910D90BC91A02D0097D2
:101A4000A105B10539F520C09E012F5F3F4FDDD7BD
:101A5000882309F44DCF89819A81AB81BC81F8013B
:101A6000238D348DF9012789203129F048EF5FEF6C
:101A70006FEF7FE004C048EF5FEF60E070E0841735
:101A80009507A607B70730F0C8010E94BE02811172
:101A90004CCF28CFF80186839783A087B18745CFA5
:101AA000E114F10421F5D8011A964D915D916D91E3
:101AB0007C911D9753968D919D910D90BC91A02D79
:101AC000481759076A077B0790F07DD6882309F4E9
:101AD00009CF409203025092040260920502709274
:101AE000060280910C0B816080930C0B07C041E0D3
:101AF000C301B201A3D6882309F4F4CED501F701BE
:101B0000E751F84FCF01880D991DE817F90719F033
:101B10002D912193FACFA80CB91C61CF53968D91CA
:101B20009D910D90BC91A02D84179507A607B7072E
:101B300040F4F801438B548B658B768B84818068ED
:101B40008483D80114968C9183FD02C0C10107C023
:101B5000C8010E947902882309F4C4CEF7CF0F9000
:101B60000F900F900F90DF91CF911F910F91FF90E9
:101B7000EF90DF90CF90BF90AF909F908F907F902D
:101B80006F905F904F903F902F900895CF93DF9389
:101B90001F92CDB7DEB7698341E050E0BE016F5FB1
:101BA0007F4F68DE0F90DF91CF910895CF93DF9341
:101BB000EC01898D9A8D009739F481E090E09B8348
:101BC0008A8380E090E00AC0FC011382128252DE18
:101BD000E98DFA8D22813381232B79F7DF91CF9123
:101BE00008956115710579F0FB0101900020E9F776
:101BF0003197AF01461B570BDC01ED91FC91028040
:101C0000F381E02D199480E090E0089590E0FC01CC
:101C1000E05DFD4F2491FC01E057FD4F8491882346
:101C200099F090E0880F991FFC01EA5EFD4FA591A5
:101C3000B491FC01EA58FD4F859194918FB7F894C7
:101C4000EC91E22BEC938FBF08952F923F924F922D
:101C50005F926F927F928F929F92AF92BF92CF923C
:101C6000DF92EF92FF920F931F93CF93DF93CDB745
:101C7000DEB7C756D1090FB6F894DEBF0FBECDBF91
:101C80005C014B01A6964FAFA6973E018EE1680E10
:101C9000711C64EB7AE0C3010E9490051C821B82D8
:101CA00088E292E09A8389831E8264018E010F5F2D
:101CB0001F4F230118016FE270E0C6010E943B2014
:101CC000009709F441C0F60120812F3221F4FFEF83
:101CD000CF1ADF0AF0CF8C198D3008F08CE0E82E97
:101CE000F12CA701B601CE01885A9F4F0E944D20CA
:101CF000E8E5F0E0EC0FFD1FEE0DFF1D1082C801BE
:101D00000E945C05F8018581882351F01EAE1DAE4E
:101D100088E292E09CAF8BAF21961FAE219720C046
:101D200021E0AE01485A5F4FB201C8015DDB882354
:101D300069F3CE0CDF1CC2010E945C05942D852D39
:101D40002801092F182FB7CFC60188199909A8961D
:101D50009FAF8EAFA897B201CE01CB960E9490059F
:101D6000A896EEADFFADA8978E0E9F1EF401808160
:101D7000811109C0BE01655C7F4FC1010E949005C1
:101D80004CE553E049C019A218A288E292E09F8F67
:101D90008E8F1BA221968FAD2197811113C0F50163
:101DA0001382128288EE93E0A0E0B0E084839583F2
:101DB000A683B78386E492E091838083128E118E8E
:101DC00014862EC08250A6962FADA697A40182300D
:101DD00038F464EB7AE0C30107DB81110CC0DFCF7C
:101DE000BE01655C7F4FC301FFDA8823C1F2CE01DB
:101DF000CB960E945C05A6968FADA697867039F0AB
:101E000049A95AA96BA97CA9C3010E94C103B301C6
:101E1000C1010E949005A401B101C5010E94E10524
:101E2000C501C959DF4F0FB6F894DEBF0FBECDBF55
:101E3000DF91CF911F910F91FF90EF90DF90CF90A6
:101E4000BF90AF909F908F907F906F905F904F90DA
:101E50003F902F9008958F929F92AF92BF920F93D1
:101E60001F93CF93DF93CDB7DEB7A1970FB6F8944A
:101E7000DEBF0FBECDBF19A2423008F44AE08E018A
:101E80000F5D1F4F842E912CA12CB12CA501940124
:101E90000E94131FE62FB901CA0101501109EA304F
:101EA00014F4E05D01C0E95CD801EC93232B242BF2
:101EB000252B61F7B8018BEE99E093DEA1960FB662
:101EC000F894DEBF0FBECDBFDF91CF911F910F9170
:101ED000BF90AF909F908F9008950F931F93CF93D3
:101EE000DF938C01C0E0D0E0F801EC0FFD1F64919E
:101EF000662371F0E091EB09F091EC090190F0811B
:101F0000E02D8BEE99E01995892B11F02196ECCFFD
:101F1000CE01DF91CF911F910F910895CF93DF9361
:101F2000DCDFEC016DE872E08BEE99E05ADE8C0F9D
:101F30009D1FDF91CF910895CF93DF93BC018BEE6E
:101F400099E04FDEEC016DE872E08BEE99E049DE3E
:101F50008C0F9D1FDF91CF910895CF92DF92EF926A
:101F6000FF92CF93DF936B017C01E091EB09F0913D
:101F7000EC090190F081E02D6DE28BEE99E019956E
:101F8000EC0166277727CB016C197D098E099F0923
:101F90004AE061DF8C0F9D1FDF91CF91FF90EF90A2
:101FA000DF90CF900895CF93DF93FC01448155815A
:101FB000608171818BEE99E013D6EC016DE872E0DF
:101FC0008BEE99E00EDE8C0F9D1FDF91CF9108956F
:101FD0000F931F93CF93DF93EC019FD3688779878B
:101FE0008A879B87CE01B5DB97FF16C096D30885FD
:101FF00019852A853B85DC01CB01801B910BA20B47
:10200000B30B0C811D812E813F8180179107A207A0
:10201000B30740F38FEF9FEFDF91CF911F910F91A7
:1020200008958F929F92AF92BF92CF92DF92EF92DC
:10203000FF92CF93DF93C82F8AE89AE09093EA0942
:102040008093E909CC2361F1C53010F080E00BC129
:1020500040E060E070E0CB01F1D38823B9F320E1E8
:10206000C29FC00111248752984FFC01E254FE4FD9
:1020700020812F7759F73C9640815181628173818D
:10208000443651056105710508F33497C080D1804D
:10209000E280F380C114D104E104F10421F4D6CF2D
:1020A000C12CD12C760140E0C701B601C7D38823EB
:1020B00069F28091F4079091F5078115924031F60D
:1020C000A091F907AA2309F4C1CF6091F707709195
:1020D000F8076115710509F4B9CF2091F60722239D
:1020E00009F4B4CFA093A80A20939A0A80E030E0C4
:1020F000E1E0F0E0C82FAF01082E02C0440F551FE9
:102100000A94E2F72417350741F0982F8F5F983033
:1021100089F789E08093A30A99CF8093A30A20913D
:10212000FF07309100082115310519F040E050E01B
:1021300008C020910D0830910E0840910F08509171
:10214000100820939B0A30939C0A40939D0A509359
:102150009E0A46015701860E971EA11CB11C809253
:10216000A90A9092AA0AA092AB0AB092AC0AE09196
:10217000FA07F091FB07F093AF0AE093AE0AB0E0E4
:102180000E94FA1E860E971EA81EB91E8092B00AE3
:102190009092B10AA092B20AB092B30A85E0EE0F13
:1021A000FF1F8A95E1F7E150FE4FEF2FFF27E695DD
:1021B0008E0E9F1EA11CB11C8092A40A9092A50AAB
:1021C000A092A60AB092A70A2091FC073091FD07C1
:1021D0002115310521F0A90160E070E008C04091AF
:1021E000090850910A0860910B0870910C08D701FA
:1021F000C60188199909AA09BB09840F951FA61F52
:10220000B71F04C0B695A79597958795CA95D2F73D
:1022100080939F0A9093A00AA093A10AB093A20A68
:10222000853F2FE09207A105B10510F48CE018C09E
:10223000853F9F4FA105B10510F480E111C0809149
:10224000150890911608A0911708B091180880936E
:10225000B00A9093B10AA093B20AB093B30A80E295
:102260008093AD0A81E0DF91CF91FF90EF90DF90F6
:10227000CF90BF90AF909F908F9008950F931F9332
:10228000CF93DF93EC0188819981009729F02A810F
:102290003B812617370788F48B016F5F7F4F0E94C1
:1022A0003D1F009761F0998388831B830A832C81EB
:1022B0003D81232B11F4FC01108281E001C080E0FC
:1022C000DF91CF911F910F910895EF92FF920F939D
:1022D0001F93CF93DF93EC017B018A01BA01CEDF1C
:1022E000811103C0CE01A7D407C01D830C83B701A1
:1022F000888199810E944620CE01DF91CF911F9164
:102300000F91FF90EF900895FC01538D448D252F80
:1023100030E0842F90E0821B930B541710F0CF967F
:10232000089501970895FC01918D828D981761F0B1
:10233000828DDF01A80FB11D5D968C91928D9F5FFC
:102340009F73928F90E008958FEF9FEF0895FC01A7
:10235000918D828D981731F0828DE80FF11D858D5A
:1023600090E008958FEF9FEF0895FC01918D228DED
:10237000892F90E0805C9F4F821B91098F73992772
:1023800008958BEE99E0F1DF21E0892B09F420E03C
:10239000822F0895FC01848DDF01A80FB11DA35A7F
:1023A000BF4F2C91848D90E001968F739927848F75
:1023B000A689B7892C93A089B1898C9180648C936C
:1023C000938D848D981306C00288F389E02D808157
:1023D0008F7D80830895EF92FF920F931F93CF9389
:1023E000DF93EC0181E0888F9B8D8C8D981305C065
:1023F000E889F989808185FD23C0F62E0B8D10E0D8
:102400000F5F1F4F0F731127E02E8C8DE8120BC04A
:102410000FB607FCFACFE889F989808185FFF5CFEF
:10242000CE01B8DFF2CF8B8DFE01E80FF11DE35A2C
:10243000FF4FF0820B8FEA89FB898081806207C0A1
:10244000EE89FF896083E889F989808180648083CF
:1024500081E090E0DF91CF911F910F91FF90EF907D
:102460000895CF93DF93EC01888D8823C1F0EA892A
:10247000FB89808185FD05C0A889B9898C9186FD7D
:102480000EC00FB607FCF5CF808185FFF2CFA8897B
:10249000B9898C9185FFEDCFCE017CDFE8CFDF914C
:1024A000CF91089580E090E0892B19F06ADF8111C7
:1024B00025C080E090E0892B41F080E090E0892BFE
:1024C00021F00E94000081111CC080E090E0892B67
:1024D00041F080E090E0892B21F00E940000811102
:1024E00013C080E090E0892BA1F080E090E0892B80
:1024F00081F00E94000081110AC008950E9400002E
:10250000D8CF0E940000E1CF0E940000EACF0C94D7
:10251000000008950E9421201F920F920FB60F9283
:1025200011240BB60F922F933F934F935F936F93AA
:102530007F938F939F93AF93BF93EF93FF938BEE14
:1025400099E028DFFF91EF91BF91AF919F918F911B
:102550007F916F915F914F913F912F910F900BBEA3
:102560000F900FBE0F901F9018951F920F920FB6ED
:102570000F9211240BB60F922F938F939F93EF938B
:10258000FF93E091FB09F091FC098081E091010A41
:10259000F091020A82FD12C090818091040A8F5F3F
:1025A0008F732091050A821751F0E091040AF0E040
:1025B000E551F64F958F8093040A01C08081FF9109
:1025C000EF919F918F912F910F900BBE0F900FBEA7
:1025D0000F901F901895362F90E0FC01EA52FD4FA6
:1025E0004491FC01E05DFD4F2491FC01E057FD4F5B
:1025F0009491992309F46BC0442309F455C050E029
:10260000FA013197E231F10508F04EC08827EE5803
:10261000FF4F8F4F0C94351F809180008F7707C03C
:10262000809180008F7D03C080918000877F8093A0
:1026300080003AC084B58F7702C084B58F7D84BD99
:1026400033C08091B0008F7703C08091B0008F7D40
:102650008093B00029C0809190008F7707C080914F
:1026600090008F7D03C080919000877F80939000C1
:102670001BC08091A0008F7707C08091A0008F7D44
:1026800003C08091A000877F8093A0000DC080913F
:1026900020018F7707C0809120018F7D03C080913A
:1026A0002001877F80932001E92FF0E0EE0FFF1FCC
:1026B000EA58FD4FA591B4918FB7F894EC91311180
:1026C00003C020952E2301C02E2B2C938FBF08957D
:1026D0003FB7F8948091160B9091170BA091180BAF
:1026E000B091190B26B5A89B05C02F3F19F0019694
:1026F000A11DB11D3FBFBA2FA92F982F8827820F88
:10270000911DA11DB11DBC01CD0142E0660F771FD7
:10271000881F991F4A95D1F708952FB7F8946091B3
:10272000120B7091130B8091140B9091150B2FBF0E
:1027300008951F920F920FB60F9211242F933F937B
:102740008F939F93AF93BF938091120B9091130B34
:10275000A091140BB091150B3091110B23E0230FB6
:102760002D3720F40196A11DB11D05C026E8230FC9
:102770000296A11DB11D2093110B8093120B909313
:10278000130BA093140BB093150B8091160B909123
:10279000170BA091180BB091190B0196A11DB11D3B
:1027A0008093160B9093170BA093180BB093190BF3
:1027B000BF91AF919F918F913F912F910F900FBE3D
:1027C0000F901F90189580910C0B8823A9F14091D0
:1027D000030250910402609105027091060229EEF5
:1027E00037E08091E9099091EA090E94DB0B8111A1
:1027F00002C080E0089540910D0B50910E0B609146
:102800000F0B7091100B411551056105710591F089
:1028100029EE37E08091E9099091EA090E94DB0BEB
:10282000882339F310920D0B10920E0B10920F0BA0
:102830001092100B10920C0B81E008958F929F92D2
:10284000AF92BF92EF92FF920F931F93CF934B01E2
:102850005C01C42F8091030290910402A0910502B3
:10286000B091060288159905AA05BB05F9F0ABDF02
:10287000811102C080E020C089EEE82E87E0F82EAA
:1028800000E012E020E030E0B501A4018091E90908
:102890009091EA090E945D08882361F38092030207
:1028A00090920402A0920502B092060280910C0B55
:1028B000C82BC0930C0B81E0CF911F910F91FF901B
:1028C000EF90BF90AF909F908F9008954F925F923E
:1028D0006F927F928F929F92AF92BF92CF92DF9230
:1028E000EF92FF920F931F93CF93DF93EC016A0156
:1028F0007B0128013901423051056105710510F451
:1029000080E072C089859A85AB85BC850196A11D42
:10291000B11D84179507A607B70790F38B889C888D
:10292000AD88BE888F89803129F4BB27AF2D9E2DBD
:102930008D2D09C0DB01CA0147E0B695A795979593
:1029400087954A95D1F7880E991EAA1EBB1E8091C5
:10295000030290910402A0910502B091060288162C
:102960009906AA06BB0679F48F89803199F4DD2493
:10297000EE24FF24C601880F991FFC01E751F84F90
:102980005182408218C040E0C501B40157DF811177
:10299000EBCFB6CFE894C7F8DD24EE24FF24C601C0
:1029A000880F991F880F991FFC01E751F84F40824B
:1029B00051826282738280910C0B816080930C0B38
:1029C0008A89823080F08D819E81AF81B885880EA2
:1029D000991EAA1EBB1E80920D0B90920E0BA09208
:1029E0000F0BB092100B81E0DF91CF911F910F91EF
:1029F000FF90EF90DF90CF90BF90AF909F908F901F
:102A00007F906F905F904F9008958F929F92AF92BA
:102A1000BF92CF92DF92EF92FF920F931F93CF93CB
:102A2000DF93FC0181859285A385B4850196A11D64
:102A3000B11D84179507A607B70710F480E05BC0A7
:102A400083899489A589B689C789C03129F4852EDF
:102A5000962EA72EBB2409C04A015B01C7E0B6949D
:102A6000A79497948794CA95D1F7E9016A017B01ED
:102A70008F01BC01CD01680D791D8A1D9B1D8090C1
:102A8000030290900402A0900502B090060268151F
:102A900079058A059B0599F4F80187898031A1F4AD
:102AA000B701A601552766277727440F551FFA015E
:102AB000E751F84F80819181A0E0B0E017C040E07D
:102AC000BDDE8111E9CFBACFB701A6014F775527F7
:102AD00066277727440F551F440F551FFA01E7510A
:102AE000F84F80819181A281B381BF7088839983DF
:102AF000AA83BB8381E0DF91CF911F910F91FF905B
:102B0000EF90DF90CF90BF90AF909F908F900895FF
:102B10004F925F926F927F92AF92BF92CF92DF926D
:102B2000EF92FF920F931F93CF93DF9300D01F92EA
:102B3000CDB7DEB78C0149835A836B837C835901FF
:102B4000C12CD12C7601412C82E0582E612C712CA5
:102B500049815A816B817C819E012F5F3F4FC80163
:102B600054DF882351F1D301C201F801058404C068
:102B7000880F991FAA1FBB1F0A94D2F7C80ED91E2F
:102B8000EA1EFB1E49815A816B817C8187898031D5
:102B900029F088EF9FEFAFEFBFE004C088EF9FEF11
:102BA000A0E0B0E0481759076A077B0788F2F501F3
:102BB000C082D182E282F38281E00F900F900F9069
:102BC0000F90DF91CF911F910F91FF90EF90DF90C9
:102BD000CF90BF90AF907F906F905F904F9008958F
:102BE000CF92DF92EF92FF920F931F93CF93DF93D9
:102BF0006C017A018B01C0E0D0E0CE15DF0589F0D1
:102C0000D8016D918D01D601ED91FC910190F0817B
:102C1000E02DC6011995892B11F47E0102C0219681
:102C2000ECCFC701DF91CF911F910F91FF90EF90F3
:102C3000DF90CF900895CF93DF93EC018881998145
:102C4000009709F0D1D7198218821D821C821B823D
:102C50001A82DF91CF910895FC01118210821382B4
:102C60001282158214826115710549F0FB010190F1
:102C70000020E9F73197AF01461B570B26CB08958B
:102C80008091E50A9091E60AAFD78091EB0A909186
:102C9000EC0AAAC7CF93DF93CDB7DEB7C854D109EA
:102CA0000FB6F894DEBF0FBECDBF789484B58260B6
:102CB00084BD84B5816084BD85B5826085BD85B5E0
:102CC000816085BD80916E00816080936E0010925E
:102CD00081008091810082608093810080918100D9
:102CE000816080938100809180008160809380006A
:102CF0008091B10084608093B1008091B0008160C8
:102D00008093B000809191008260809391008091C7
:102D10009100816080939100809190008160809308
:102D200090008091A10082608093A1008091A10019
:102D300081608093A1008091A00081608093A000B9
:102D40008091210182608093210180912101816025
:102D500080932101809120018160809320018091E6
:102D60007A00846080937A0080917A0082608093F8
:102D70007A0080917A00816080937A0080917A0055
:102D8000806880937A001092C1001092D60310924E
:102D9000D5031092D4031092D3031092D20381E092
:102DA0008093D1031092D00361E084E114DC61E0F0
:102DB00085E111DC8091B9008E7F8093B90080910C
:102DC000B9008D7F8093B90088E48093B80085E4D2
:102DD0008093BC00E091FB09F091FC0982E08083C4
:102DE000E091F709F091F8091082E091F909F0916A
:102DF000FA0980E180831092030AE091FF09F091C3
:102E0000000A86E08083E091FD09F091FE0980814F
:102E100080618083E091FD09F091FE0980818860E6
:102E20008083E091FD09F091FE09808180688083B4
:102E3000E091FD09F091FE0980818F7D80838AED0C
:102E400091E06CD883EC91E069D887E00E94060E8F
:102E50008EEA91E042D81092950A1092930A10924D
:102E6000900A10928F0A10928E0A57DC6B017C0137
:102E700080918E0A0E94060E61E080918E0AABDB83
:102E80001FB7F8948091DB07811123C0E5ECF2E0D5
:102E90008491E5E6F2E09491E82FF0E0EE0FFF1F59
:102EA000EA5EFD4FA591B491EC91E92319F461E03C
:102EB00085E391DB85E30E94060E8CB580618CBDB5
:102EC0008CB580648CBD84E30E94060E83E30E946F
:102ED000060E8091DB078F5F8093DB071FBF82E5C3
:102EE0008093880A1092890A8091880A9091890AB1
:102EF0000E9478051AE08FEF0E94C7071150D9F79A
:102F00008AE89AE00E947B0520E030E0A90160E0B9
:102F10008AE89AE00E940208182F8093940A813070
:102F200041F0FBDB6C197D09613D774068F381E07E
:102F300053C02AEA31E040E050E068E08AE89AE0D5
:102F40000E94020882FF03C01093950A0EC014E08D
:102F50000E94CE078093940A1150D1F78A3A11F05B
:102F600082E03AC082E08093950A8091950A82308F
:102F700021F0812C912C540105C0812C912CA12C85
:102F800000E4B02E20E030E0A90167E38AE89AE08F
:102F90000E940208A501940169E28AE89AE00E9471
:102FA00002088093940A882341F0B7DB6C197D09ED
:102FB000613D774038F388E00FC08091950A8230F8
:102FC00001F520E030E0A9016AE38AE89AE00E9476
:102FD0000208882341F086E080938F0A8AE89AE00D
:102FE0000E946D05A1C00E94CE07807C803C19F430
:102FF00083E08093950A0E94CE070E94CE070E942C
:10300000CE078AE89AE00E946D0583E58093880ADE
:103010001092890A81E005D8882329F08091B90AA5
:10302000882341F081C080E00E941110882309F4B8
:103030007BC0F4CF8091AD0A803109F582E08093A6
:10304000B90A1092CB0A1092CC0A1092CD0A1092B3
:10305000CE0A8091AE0A9091AF0AA0E0B0E015E0F0
:10306000880F991FAA1FBB1F1A95D1F78093C70A13
:103070009093C80AA093C90AB093CA0A1DC08032AF
:1030800009F052C083E08093B90A4091B00A509190
:10309000B10A6091B20A7091B30A4093CB0A50937F
:1030A000CC0A6093CD0A7093CE0A27EC3AE086E909
:1030B0009AE02EDD8823C1F186E99AE09093D00A48
:1030C0008093CF0A81E08093B80A1092BA0A1092D6
:1030D000BB0A1092BC0A1092BD0A1092BE0A10924E
:1030E000BF0A1092C00A1092C10A1092C20A10922E
:1030F000C30A1092C40A1092C50A1092C60A8AE73F
:1031000091E00E948E0F6091EB0A7091EC0A41E011
:10311000CE014C960E94250EEDA9FEA98E010F5FEF
:103120001F4F309731F45FC085E991E00E948E0F08
:1031300072C18581882309F456C0CE014C960E9445
:10314000C201892B09F43FC06FE872E0C80184DD39
:10315000CE014C960E94E80F97FD1CC08A30910565
:10316000C9F08FAB18AEED80FE808FEFE81AF80A39
:10317000B701C80183D8882359F329813A818D8109
:103180009E81BE01695C7F4F820F931F7FD7FE82B5
:10319000ED82DECF8CE691E00E948E0FC8010E9486
:1031A000D30FE980FA80E114F10419F0C701B4D516
:1031B00003C060E070E0CB017093010260930002F5
:1031C000C70112D5BACF82E792E00E949C0F8DA969
:1031D0009EA9009761F00E945C058DA99EA904D567
:1031E0001EAA1DAA04C08DE491E00E948E0F89E4FE
:1031F00095E090930102809300028EE291E00E949C
:103200008E0F80911A0B90911B0B009721F4C8012F
:103210008E519B4004C09801281B390BC9019A8329
:10322000898369817A81072E000C880B990B97FF9F
:1032300003C00E94AD0F03C04AE00E942B0F6DE84F
:1032400072E08BEE99E00E94F10D8BEE9AE00E9405
:10325000D30F60E972E0CE01CD96FEDC44E050E091
:1032600065E972E0CE01CD9630D888E191E00E9408
:103270008E0F809100029091010218AE1FAA1AAE23
:1032800019AE1CAE1BAE4AE0B8016CD5F801019036
:103290000020E9F73197AF01401B510BB801CE0177
:1032A000C79613D823968EAD9FAD2397CDACDEACD9
:1032B000EBACFCACC114D10409F46DC30097A1F0D0
:1032C000E80EF91EB701CE01C7960E943E11882371
:1032D00009F461C32FA938AD8BAD9CADB601820F47
:1032E000931FD4D6FCAEEBAE25961FAE1EAE25972F
:1032F00027961FAE1EAE279729961FAE1EAE2997A2
:103300006FA978AD6115710539F04BAD5CADCE019B
:103310008D5B9F4F0E9465118FA998AD65D4CE013A
:103320008D5B9F4F0E94D30F8DAD9EAD5DD4CE01BE
:103330008D5B9F4F0E94D30F25966EAD7FAD259775
:1033400042E5C8010E94250E8B819C819093F40A6E
:103350008093F30A8D819E81AF81B8858093F50AB1
:103360009093F60AA093F70AB093F80A89859A8594
:10337000AB85BC858093F90A9093FA0AA093FB0A67
:10338000B093FC0A8DE0FE013D96ADEFBAE00190EE
:103390000D928A95E1F7EA8DFB8DF0930B0BE0938C
:1033A0000A0B309731F08581882319F08AE992E081
:1033B00002C08BEA92E00E949C0F81E0809302029F
:1033C00081EC92E00E949C0F82E08093B100809398
:1033D000B0008AE58093B30083ED92E00E949C0FD9
:1033E00085E680937C0080917A008B7F80937A00C1
:1033F00080917A00826080937A0080917A00816067
:1034000080937A0083EE92E00E949C0F25968EAD09
:103410009FAD2597E9D370E1872EFF24F394E2E274
:10342000EE2EF6E59F2EA8E03A2E80910202882328
:1034300009F416C1E0910A0BF0910B0B309719F0CB
:103440008581811105C080E092E00E948E0FFFCF40
:1034500085EF92E00E949C0F1092D7071092D80738
:103460001092D9071092DA071092E0071092E10744
:103470001092E2071092E30768E073E081EF9AE0B0
:103480000E94F10DE091F10AF091F20A0280F381BD
:10349000E02D44E050E06EE072E081EF9AE0199593
:1034A0006DE073E081EF9AE00E94F10D62E173E05C
:1034B00081EF9AE00E94F10D8092DF071092DE0703
:1034C0001092DD071092DC0760E181EF9AE00E9424
:1034D000E3016091DE0781EF9AE00E94E3016091D1
:1034E000DD0781EF9AE00E94E3016091DC0781EF44
:1034F0009AE00E94E301F092DF071092DE0761E09C
:1035000081EF9AE00E94E3016091DE0781EF9AE08B
:103510000E94E301F092DF071092DE0761E081EF85
:103520009AE00E94E3016091DE0781EF9AE00E9439
:10353000E301E092DF079092DE071092DD07109220
:10354000DC0762E281EF9AE00E94E3016091DE070E
:1035500081EF9AE00E94E3016091DD0781EF9AE03C
:103560000E94E3016091DC0781EF9AE00E94E30191
:10357000E092DF079092DE071092DD071092DC07E1
:1035800062E281EF9AE00E94E3016091DE0781EF41
:103590009AE00E94E3016091DD0781EF9AE00E94CA
:1035A000E3016091DC0781EF9AE00E94E301F09271
:1035B000DF071092DE0761E081EF9AE00E94E301ED
:1035C0006091DE0781EF9AE00E94E3013092DF070D
:1035D0001092DE0768E081EF9AE00E94E3016091BB
:1035E000DE0781EF9AE00E94E30167E173E081EF7B
:1035F0009AE00E94F10D1092DF071092DE07109200
:10360000DD071092DC0760E081EF9AE00E94E301A1
:103610006091DE0781EF9AE00E94E3016091DD078F
:1036200081EF9AE00E94E3016091DC0781EF9AE06C
:103630000E94E3018CE193E00E949C0F8091700056
:1036400082608093700010920202F092E80765D8C1
:103650006093E4077093E5078093E6079093E7078C
:103660008091E807882309F4C2C080910202811189
:10367000BEC053D80091E4071091E5072091E607FA
:103680003091E707005E114B2F4F3F4F061717078A
:103690002807390708F0ABC08DE393E00E949C0F28
:1036A000809170008D7F8093700081EF91E00E9487
:1036B0008E0F6091E0077091E1078091E207909191
:1036C000E3074AE00E942B0F80910A0B90910B0BAD
:1036D000009731F044E050E060E070E00E94C103E8
:1036E0006091E0072091E1079091E2078091E30764
:1036F0006093DF072093DE079093DD078093DC075C
:1037000081EF9AE00E94E3016091DE0781EF9AE089
:103710000E94E3016091DD0781EF9AE00E94E301DE
:103720006091DC0781EF9AE00E94E30180910A0B2F
:1037300090910B0B009731F048E250E060E070E0B0
:103740000E94C1036091DF0781EF9AE00E94E301CC
:103750006091DE0781EF9AE00E94E3016091DD074E
:1037600081EF9AE00E94E3016091DC0781EF9AE02B
:103770000E94E30180910A0B90910B0B009759F086
:103780000E945C0580910A0B90910B0B2DD2109238
:103790000B0B10920A0BF09202021092E8070E94A3
:1037A00068132B013C0160EAA62E66E8B62ECC24F5
:1037B000C394D12C0E946813DC01CB0184199509B4
:1037C000A609B709883E9340A105B10558F031E03C
:1037D000A31AB108C108D10888EE480E83E0581E2C
:1037E000611C711CA114B104C104D10419F78091AA
:1037F000E807882309F4CCC08091D7079091D807B7
:10380000A091D907B091DA079370AA27BB27811539
:1038100032E09307A105B10509F04DC00091D7052D
:1038200010E0E8EDF5E0C12C54E0D52EA12CB12C30
:10383000819190E0080F191F15950795A816B906F4
:1038400028F08C159D0518F46C0101C05C0187E01F
:10385000E73DF80769F762E373E08BEE99E00E94B9
:10386000F10DB801110F880B990B4AE00E942B0F44
:1038700065E373E08BEE99E00E94F10DB50180E005
:1038800090E04AE00E942B0F69E373E08BEE99E031
:103890000E94F10DB60180E090E04AE00E942B0FFB
:1038A0006DE872E08BEE99E00E94F10D40E052E08D
:1038B00067ED75E056C0892B8A2B8B2B09F068C009
:1038C0006091D703A62EB12CE8EDF3E000E014E000
:1038D000C12CD12C2191822F90E0B501680F791F66
:1038E0005B01B594A7942F3F49F0C816D90628F07C
:1038F0008017910718F48C0101C06C0125E0E73DA9
:10390000F20741F762E373E08BEE99E00E94F10D5C
:10391000B501BB0C880B990B4AE00E942B0F65E3A5
:1039200073E08BEE99E00E94F10DB60180E090E02B
:103930004AE00E942B0F69E373E08BEE99E00E944E
:10394000F10DB80180E090E04AE00E942B0F6DE895
:1039500072E08BEE99E00E94F10D40E052E067EDDD
:1039600073E081EF9AE00E94D60D8091E00790917C
:10397000E107A091E207B091E3079E5FAF4FBF4F11
:103980008093E0079093E107A093E207B093E307E9
:103990000E9452124ACDCE01C7964DD9A5CCCF93E5
:1039A000DF93EBEEF9E01382128288EE93E0A0E061
:1039B000B0E084839583A683B78326E132E0318328
:1039C000208325EC30E03587248724EC30E03787EE
:1039D000268720EC30E0318B208B21EC30E0338BDC
:1039E000228B22EC30E0358B248B26EC30E0378BB9
:1039F000268B118E128E138E148EE8E8FAE020E5E5
:103A000020831182EAE8FAE0158216821186138675
:103A100042E050E060E070E0448755876687778732
:103A200013A215A614A628E232E033A722A717A6F0
:103A3000E3EDFAE01382128284839583A683B78331
:103A400024E332E031832083E1EFFAE01382128233
:103A500084839583A683B78386E492E091838083F1
:103A6000128E118E148661E573E08BEE9AE0F4D825
:103A70006FE872E085EE9AE0EFD8E7E9F2E0E491D2
:103A8000F0E0EE0FFF1FEA58FD4F85919491CFEDC6
:103A9000DAE099838883E7E3F2E0E491EA8387E060
:103AA0000E94060EE881F98190818A81892B8083AA
:103AB00085E08C8380E68D83DF91CF910895CF934D
:103AC000DF938230910510F482E090E0E0911C0BCE
:103AD000F0911D0B20E030E0C0E0D0E0309711F114
:103AE0004081518148175907C0F04817590761F4C0
:103AF00082819381209719F09B838A832BC09093B6
:103B00001D0B80931C0B26C02115310519F042179F
:103B1000530718F49A01BE01DF01EF010280F3811F
:103B2000E02DDCCF2115310509F1281B390B24309C
:103B3000310590F412968D919C9113976115710542
:103B400021F0FB019383828304C090931D0B80932B
:103B50001C0BFD01329644C0FD01E20FF31F81935F
:103B60009193225031092D933C933AC020911A0B26
:103B700030911B0B232B41F42091090230910A0252
:103B800030931B0B20931A0B2091070230910802EF
:103B90002115310541F42DB73EB740910B025091EC
:103BA0000C02241B350BE0911A0BF0911B0BE21752
:103BB000F307A0F42E1B3F0B2817390778F0AC0150
:103BC0004E5F5F4F2417350748F04E0F5F1F50932D
:103BD0001B0B40931A0B8193919302C0E0E0F0E03D
:103BE000CF01DF91CF9108950F931F93CF93DF9370
:103BF000009709F48CC0FC01329713821282009165
:103C00001C0B10911D0B0115110581F420813181D0
:103C1000820F931F20911A0B30911B0B2817390725
:103C200079F5F0931B0BE0931A0B71C0D80140E0BB
:103C300050E0AE17BF0750F412962D913C911397A8
:103C4000AD012115310509F1D901F3CF9D01DA014B
:103C50003383228360817181860F971F82179307B8
:103C600069F4EC0128813981260F371F2E5F3F4F01
:103C7000318320838A819B8193838283452B29F41E
:103C8000F0931D0BE0931C0B42C01396FC93EE9334
:103C90001297ED01499159919E01240F351FE217AA
:103CA000F30771F480819181840F951F029611961C
:103CB0009C938E938281938113969C938E931297FB
:103CC000E0E0F0E0D80112968D919C911397009757
:103CD00019F0F8018C01F6CF8D919C9198012E5F1F
:103CE0003F4F820F931F20911A0B30911B0B281707
:103CF000390769F4309729F410921D0B10921C0BB0
:103D000002C01382128210931B0B00931A0BDF91D7
:103D1000CF911F910F9108951F93FC019927882738
:103D2000BC01E89411911032E9F3193010F01E3003
:103D3000C8F31B3249F01D3241F4689405C01CD011
:103D4000610F711D811D911D119110531A30B8F32F
:103D50003EF490958095709561957F4F8F4F9F4F62
:103D60001F910895BB274A3031F4992322F4BDE214
:103D7000909581959F4F16C0592F482F372F262F8A
:103D8000660F771F881F991F660F771F881F991F5F
:103D9000620F731F841F951F660F771F881F991F5F
:103DA0000895BB27FB015527AA27880F991FAA1F33
:103DB000A41710F0A41B83955051B9F7A05DAA3346
:103DC00008F0A95DA193009779F7B111B193119211
:103DD000CB0100C0DC01FC01672F71917723E1F773
:103DE000329704C07C916D9370836291AE17BF07C8
:103DF000C8F3089509D0A59F900DB49F900DA49F7E
:103E0000800D911D11240895A29FB001B39FC001A0
:103E1000A39F700D811D1124911DB29F700D811DF6
:103E20001124911D0895A1E21A2EAA1BBB1BFD01AE
:103E30000DC0AA1FBB1FEE1FFF1FA217B307E40789
:103E4000F50720F0A21BB30BE40BF50B661F771FE1
:103E5000881F991F1A9469F76095709580959095C1
:103E60009B01AC01BD01CF010895EE0FFF1F881F1C
:103E70008BBF0790F691E02D19946F927F928F92ED
:103E80009F92AF92BF92CF92DF92EF92FF920F93E9
:103E90001F93CF93DF93EC01009781F4CB01DF9167
:103EA000CF911F910F91FF90EF90DF90CF90BF9037
:103EB000AF909F908F907F906F9001CEFC01E60FA6
:103EC000F71F9C0122503109E217F30708F4A8C03C
:103ED000D9010D911C91119706171707A8F005300D
:103EE000110508F49BC0C80104978617970708F4CA
:103EF00095C002501109061B170B019311936D9386
:103F00007C93CF0171DE8AC05B01A01AB10A4C011B
:103F1000800E911EA0911C0BB0911D0B40E050E053
:103F2000E12CF12C109709F44AC0A815B905D1F578
:103F30006D907C901197630182E0C80ED11CCA1469
:103F4000DB0480F1A3014A195B096A0182E0C80E13
:103F5000D11C1296BC9012971396AC91B5E0CB167B
:103F6000D10440F0B282A38351834083D9016D9381
:103F70007C930AC00E5F1F4FC301800F911FF90190
:103F800091838083EB2DFA2FE114F10431F0D701F6
:103F90001396FC93EE93129741C0F0931D0BE093A0
:103FA0001C0B3CC08D919C9111974817590708F440
:103FB000AC017D0112960D90BC91A02DB3CF8091E4
:103FC0001A0B90911B0B88159905E1F446175707BA
:103FD000C8F48091070290910802009741F48DB7D0
:103FE0009EB740910B0250910C02841B950BE81771
:103FF000F907B0F4F0931B0BE0931A0BF9017183EE
:1040000060830CC0CB015BDD7C01009749F0A80107
:10401000BE0128D0CE01E8DDC70104C0CE0102C038
:1040200080E090E0DF91CF911F910F91FF90EF9092
:10403000DF90CF90BF90AF909F908F907F906F90C8
:10404000089581E090E0F89437C0FB01DC0104C0E2
:104050008D910190801921F441505040C8F7881B80
:10406000990B0895FB01DC0102C001900D924150B3
:104070005040D8F70895FC018191861721F08823DC
:10408000D9F7992708953197CF010895FB01DC01F5
:1040900001900D920020E1F70895FB01DC014150F1
:1040A000504048F001900D920020C9F701C01D92C8
:1040B00041505040E0F7089511E0CFE8D1E000E032
:1040C00005C0802FFE01D1DE2196011DC039D10728
:0A40D00080E00807B1F7F894FFCF75
:1040DA00080201FFFFFFFF00001E0B800000000026
:1040EA00000000000000EB11F01584113112B51127
:1040FA009311A71100000000C60DF0157602750293
:10410A00000000006502510276022B0249023A02BF
:10411A002C0200000000E301D60D7602B702C201AC
:10412A00A90BB20B000000008A12F0157602750284
:10413A008A128A128A12000000008A12F015760288
:10414A007502436C6F73696E6720696D61676520DC
:10415A00636F756E7465722066696C65000D0A007E
:10416A002E6A7067002E7761760057617665206641
:10417A00696C65206F70656E6564005761766520AD
:10418A0066696C65206F70656E206661696C65642E
:10419A000053657474696E672075702074696D6563
:1041AA00722E0053657474696E67207570204144DD
:1041BA00432E0053657474696E6720636F6D706C6B
:1041CA006574652E005374617274696E6720726536
:1041DA00636F7264696E67005249464600574156DA
:1041EA004500666D742000646174610057726974D9
:1041FA00652068656164657220636F6D706C6574B3
:10420A006500413A004D783A004D6E3A00436F6DB1
:10421A00706C65746564207265636F7264696E6739
:0E422A0000494D474354522E545854002F0063
:00000001FF
