:100000008FC10000BEC10000BCC10000BAC1000029
:10001000B8C10000B6C10000B4C10000B2C1000008
:10002000B0C100004EC500004CC500004AC500002C
:10003000A8C1000081C60000A4C10000A2C1000048
:10004000A0C100009EC100009CC100009AC1000038
:1000500098C1000096C1000094C100000C94310CBE
:1000600090C100000C944D0B0C94240B8AC100002D
:1000700088C1000086C1000084C1000082C1000068
:1000800080C100007EC100007CC100007AC1000078
:1000900078C1000076C1000074C100001CC50000DA
:1000A00070C100006EC100006CC100006AC1000098
:1000B00068C1000066C1000064C1000062C10000A8
:1000C00060C100005EC100005CC100005AC10000B8
:1000D00058C1000056C1000054C1000052C10000C8
:1000E00050C10000B20BB50BA40BA80BAC0BEC0B72
:1000F000B90BBD0BC30BC70BCB0BD10BD50BD90B5E
:10010000EC0BDF0BE30BE70B46696C65206E616D52
:10011000652067656E6572617465643A20004F7092
:10012000656E696E672074686520696D616765201A
:10013000636F756E7465722066696C6500496D61E8
:10014000676520636F756E7465722066696C6520E3
:100150006F70656E206661696C65640053746F72C0
:1001600065642076616C75653A00534420496E6978
:100170007469616C697A6174696F6E20636F6D7008
:100180006C65746500534420496E697469616C69DB
:100190007A6174696F6E206661696C656400496E8E
:1001A000697469616C697A696E6720534420636180
:1001B00072640041434B20434D44204172647543B7
:1001C000414D205374617274210053746172742024
:1001D00053657269616C2061742039323136303078
:1001E00000526563656976656420627974657300A1
:1001F000576176652046696C65206F70656E206674
:1002000061696C6564007C3C3E5E2B3D3F2F5B5D0D
:100210003B2C2A225C0000000A0B02090C0D0E0880
:1002200007030401000000000000000000000000BF
:1002300000000000000000000000000000000000BE
:10024000000012111000000000000000000000007B
:10025000000000000000000000000000000021007D
:10026000240027002A002D00300033000101000087
:10027000040107010A010102102020080810204093
:10028000102040800201020108040201010204085A
:1002900010204080804020100804020180040201E8
:1002A0008040201008040201080402010102040831
:1002B000102040800102040810204080000022002D
:1002C000250028002B002E00310034000201000020
:1002D000050108010B0105050505070508080808C3
:1002E000020202020A0A08080404040401010101CE
:1002F00001010101030303030303030304070707C9
:100300000C0C0C0C0C0C0C0C02020202060606066D
:10031000060606060B0B0B0B0B0B0B0B4A1C401CAB
:1003200011241FBECFEFD1E2DEBFCDBF00E00CBF76
:1003300013E0A0E0B2E0E0EDFFE300E00BBF02C09D
:1003400007900D92AC36B107D9F72BE0ACE6B3E0DD
:1003500001C01D92AE32B207E1F711E0CFE8D1E063
:1003600000E006C021970109802FFE010E94B01E07
:10037000CE38D10780E00807A9F70E9455160C94E3
:10038000D71F3ECEDC015996ED91FC915A973097DC
:10039000B9F083899489A589B68942855385648596
:1003A0007585841B950BA60BB70B811520E892076A
:1003B000A105B10538F08FEF9FE7A0E0B0E0089508
:1003C00080E090E00895CF93DF931F92CDB7DEB722
:1003D0006983DC01ED91FC910280F381E02D41E025
:1003E00050E0BE016F5F7F4F19950F90DF91CF9165
:1003F000089585ED8093BC008091BC0084FDFCCF06
:1004000010926E0308954091AC07262F30E0240F20
:10041000311D21323105DCF420916E032430C9F402
:10042000FC0180E090E0861758F43091AC072191F0
:10043000DC01A657B84FA30FB11D2C930196F3CF43
:100440008091AC07680F6093AC0780E0089581E06D
:10045000089582E00895089581E090E0309172035C
:1004600020917103321710F480E090E0919581950E
:10047000910908958091720390917103891730F466
:100480008F5F8093720380E090E008958FEF9FEF7D
:1004900008958091710390E020917203821B91096D
:1004A0000895CF93DF931F921F92CDB7DEB7CB0194
:1004B000642F49835A83A7DF4981842F5A81952F5E
:1004C0000F900F90DF91CF910895CF93DF931F92FC
:1004D000CDB7DEB7698361E0CE01019694DF81E09C
:1004E00090E00F90DF91CF910895089580E090E023
:1004F0000895FC01818D928D009711F00C94FF0FEF
:100500000895CF93DF93EC01898D9A8D009739F48C
:1005100081E090E09B838A8380E090E00BC0FC0147
:10052000138212820E94D010E98DFA8D22813381CC
:10053000232B71F7DF91CF9108958F929F92AF9205
:10054000BF92CF92DF92EF92FF920F931F93CF93C0
:10055000DF9300D01F92CDB7DEB77C0180E2689FA9
:10056000600111249601295F374FD9011B969C9198
:10057000917121F0842F827409F097C0142FF70134
:10058000628B8091030290910402A0910502B091C8
:10059000060286879787A08BB18BF601E95FF74F3C
:1005A0004489558960E070E0BA0155274427D70196
:1005B00057964D935D936D937C935A97828D938D4F
:1005C000A0E0B0E0482B592B6A2B7B2BD701579624
:1005D0004D935D936D937C935A97D9011B968C91A3
:1005E000887159F4848D958DA68DB78DF701838B15
:1005F000948BA58BB68B81E012C0803109F055C079
:1006000097012D5E3F4FD7015B968D919C915C9732
:100610000E94E40D882309F448C084E0F701858333
:10062000812F8F70D70114968C931497F70116823F
:100630001782108611861A961D921D921D921C9289
:100640001D9716FF34C015968C91813071F511FFFE
:100650002CC0F7014389548965897689452B462B3F
:10066000472B09F461C040E050E0BA01C7010E9485
:100670003B108823D1F0F7018788908CA18CB28C35
:10068000C38CD48C82E090E0A0E0B0E0F6018083DF
:100690009183A283B3839E012F5F3F4FB501A401D5
:1006A000C6010E94610D811104C080E03DC081E05F
:1006B0003BC000E010E09801B501A401C6010E9412
:1006C000C20C882391F389809A80AB80BC80D601CC
:1006D00057968C91803129F088EF9FEFAFEFBFE004
:1006E00004C088EF9FEFA0E0B0E088169906AA0644
:1006F000BB0688F2D70157961D921D921D921C923F
:100700005A97F701138A148A158A168A8481806899
:100710008483C7010E94FF0F882339F240E050E034
:10072000BA01C7010E943B100F900F900F900F90DD
:10073000DF91CF911F910F91FF90EF90DF90CF90BD
:10074000BF90AF909F908F900895CF93DF93EC016F
:100750000E94FF0F882311F01D8281E0DF91CF916D
:1007600008953F924F925F926F927F928F929F92E5
:10077000AF92BF92CF92DF92EF92FF920F931F93AF
:10078000CF93DF93CDB7DEB72C970FB6F894DEBFCB
:100790000FBECDBF5C01DC015B968D909C905C9799
:1007A0001696CD90DD90ED90FC901997C114D10470
:1007B000E104F10439F0BFEFCB1ADB0AEB0AFB0AC4
:1007C000312C07C0F401C080D180E280F380332453
:1007D0003394F40181859285A385B4859C01AD0194
:1007E0002F5F3F4F4F4F5F4F29873A874B875C877B
:1007F000260137011D821E821F821886F401818521
:100800009285A385B4852D813E814F815885281717
:1008100039074A075B0708F063C089859A85AB856D
:10082000BC858C159D05AE05BF0550F482E0C82E31
:10083000D12CE12CF12C92E0492E512C612C712C01
:100840009E012F5F3F4FB701A601C4010E94610DB9
:10085000882309F445C089819A81AB81BC81892BA9
:100860008A2B8B2B41F0260137019FEF491A590A39
:10087000690A790A05C0C414D504E604F70491F0A6
:100880002D813E814F8158852F5F3F4F4F4F5F4FE6
:100890002D833E834F8358873FEFC31AD30AE30A61
:1008A000F30AACCF0FEF1FEF2FEF3FE0B301A20130
:1008B000C4010E94C20C882399F0D50116964D916F
:1008C0005D916D917C9119974115510561057105F7
:1008D00049F093018201C4010E94C20C811102C03F
:1008E00080E02AC0D50116964D925D926D927C9261
:1008F0001997332051F0D301C2010196A11DB11DFA
:10090000F40180839183A283B383F5018789908D5D
:10091000A18DB28D892B8A2B8B2B69F4D50157962B
:100920004D925D926D927C925A9714968C91149789
:10093000806814968C9381E02C960FB6F894DEBFF5
:100940000FBECDBFDF91CF911F910F91FF90EF9020
:10095000DF90CF90BF90AF909F908F907F906F90DF
:100960005F904F903F9008958FB7F8948091F8076B
:100970008FBF089561E0FC018481C5D68091F7079F
:1009800081111092F70708958CBD9DBD0895CF93F6
:10099000DF93EC018091F707811108C081E080931B
:1009A000F7078091A60A9091A70AEEDF60E08C819C
:1009B000DF91CF91A8C6FC01DB0112968D919C912D
:1009C00013979383828388E292E0918380831496C5
:1009D0008C911497848315968C9115978583169620
:1009E0004D915D916D917C911997468357836087F6
:1009F00071871A964D915D916D917C911D974287FB
:100A00005387648775871E964D915D916D917C919A
:100A1000519746875787608B718B52968C9152976E
:100A2000828B53964D915D916D917C915697438B3E
:100A3000548B658B768B57964D915D916D917C9122
:100A40005A97478B508F618F728F5B968D919C91D7
:100A50005C97948F838F0895EF92FF920F931F936B
:100A6000CF93DF93EC017B018A011B821A8288EE0F
:100A700093E0A0E0B0E08C839D83AE83BF8386E4E7
:100A800092E0998388838DE190E00E94DA1C9A8F2E
:100A9000898F009779F02DE1F701DC0101900D922B
:100AA0002A95E1F74CE050E0B801CE010C960E9487
:100AB000C81F188EDF91CF911F910F91FF90EF907B
:100AC00008951F920F920FB60F9211240F900FBE30
:100AD0000F901F9018951F920F920FB60F9211242E
:100AE0000BB60F922F933F934F935F936F937F9328
:100AF0008F939F93AF93BF93EF93FF938091B90030
:100B0000887F803609F49CC068F5883209F45BC0A0
:100B100090F4803109F454C038F4882309F4F6C005
:100B2000883009F44DC0F5C0883109F44CC08032DA
:100B300009F45DC0EEC0803409F468C048F4803325
:100B400009F455C0883309F0E4C08093D107D8C0B8
:100B5000803509F44FC0883509F45DC0883409F048
:100B6000D8C0D6C0883909F4C7C0A8F4883709F4BA
:100B700067C038F4883609F463C0803709F460C070
:100B8000C8C0883809F4B8C0803909F45FC080381B
:100B900009F0BFC05BC0803B09F486C038F4803ADE
:100BA00009F466C0883A09F47FC0B3C0803C09F4F8
:100BB000A7C0883C09F4A4C0883B09F48AC0A9C036
:100BC0008091F40710C09091F3078091F207981775
:100BD00070F5E091F30781E08E0F8093F307F0E06A
:100BE000EE52F84F80818093BB0085EC86C08093E5
:100BF000D1078EC0E091F30781E08E0F8093F30759
:100C00008091BB00F0E0EE52F84F80839091F307A3
:100C10008091F2076EC0E091F30781E08E0F809320
:100C2000F3078091BB00F0E0EE52F84F8083809193
:100C30006D0381116DC081E080936C0384EA61C013
:100C400083E080936E031092D007CFCF8091D007BE
:100C5000803208F051C0E091D00781E08E0F809380
:100C6000D0078091BB00F0E0E055F84F8083BDCF06
:100C700085EC8093BC0010926E038091D007803287
:100C800030F4E091D007F0E0E055F84F1082609129
:100C9000D00770E0E091AE07F091AF0780EB97E0EE
:100CA00019951092D00735C084E080936E0310929E
:100CB000AD071092AC07E091AA07F091AB07199528
:100CC0008091AC07811105C081E08093AC07109240
:100CD0008A07E091AD0781E08E0F8093AD07F0E0C9
:100CE000E657F84F80818093BB009091AD078091CB
:100CF000AC07981708F479CF85E88093BC0009C049
:100D000085EC8093BC0010926E0303C01092D10753
:100D100070DBFF91EF91BF91AF919F918F917F9188
:100D20006F915F914F913F912F910F900BBE0F905C
:100D30000FBE0F901F9018951F920F920FB60F9233
:100D400011240BB60F922F933F934F938F939F9342
:100D5000AF93BF93EF93FF9380917A008064809369
:100D60007A008091730390917403A0917503B09100
:100D700076030196A11DB11D8093730390937403B4
:100D8000A0937503B09376038091880790918907AB
:100D90000196909389078093880720917900285DB8
:100DA00030918707811542E0940771F431110CC02E
:100DB000109289071092880781E08093780710923B
:100DC0007705809387070FC08115924061F4313019
:100DD00051F410928907109288073093770510928A
:100DE00078071092870780918707811107C0E091EB
:100DF0008807F0918907E858FA4F08C0813039F424
:100E0000E0918807F0918907E958FC4F2083FF9112
:100E1000EF91BF91AF919F918F914F913F912F9102
:100E20000F900BBE0F900FBE0F901F9018958EBDA8
:100E300000000DB407FEFDCF8EB508958FEFF7CFFC
:100E40000F931F93CF93DF93EB01FFD48B01F6DF5A
:100E50008F3F41F0FAD4601B710B6C177D07B8F31C
:100E600080E001C081E0DF91CF911F910F91089543
:100E7000CF93DF93EC018E81882379F08F81988561
:100E80009C012F5F3F4F38872F838230924010F4B0
:100E9000D5DFF4CFCE016EDD1E82DF91CF910895B4
:100EA000CF92DF92FF920F931F93CF93DF9300D0E7
:100EB0001F92CDB7DEB76C01F62E29833A834B83A0
:100EC0005C83D6DFC60163DD6CE271E0C601B8DF8A
:100ED0008F2D8064ACDF08E110E05C814B813A81AA
:100EE0002981DA01C901002E04C0B695A79597950E
:100EF00087950A94D2F729833A834B835C8397DFE3
:100F00000850110929813A814B815C81083F8FEF9C
:100F1000180739F7FF2029F0E8E0FE1204C087E83F
:100F200003C085E901C08FEF82DF10E087DFF601A3
:100F3000828787FF04C01F3F11F01F5FF7CF0F901C
:100F40000F900F900F90DF91CF911F910F91FF9015
:100F5000DF90CF900895AF92BF92CF92DF92EF9241
:100F6000FF920F931F93CF93DF93EC016901C801A8
:100F7000820F931F8130924008F068C08E818823D1
:100F800071F088819981AA81BB81481759076A0746
:100F90007B0729F48F819885C816D90688F5488380
:100FA00059836A837B838B85833039F089E0440FD2
:100FB000551F661F771F8A95D1F79A01AB0161E132
:100FC000CE016EDF882319F083E08D833FC03DD4CE
:100FD0005B0134DF8A878F3F41F437D46A197B097C
:100FE0006D327140B0F38FE003C08E3F29F08DE089
:100FF0008D83CE01BFDC2AC018861F8281E08E83DC
:101000008F8198858C159D0538F418DF8F81988520
:10101000019698878F83F4CF6701E00EF11ECE14FE
:10102000DF0429F00BDFF60181936F01F8CF8F8188
:101030009885080F191F18870F838985882319F051
:101040000115124038F0CE0113DF04C0CE0192DC4E
:1010500080E001C081E0DF91CF911F910F91FF905F
:10106000EF90DF90CF90BF90AF9008952F923F9276
:101070004F925F926F927F928F929F92AF92BF92A8
:10108000CF92DF92EF92FF920F931F93CF93DF9354
:101090001F921F92CDB7DEB7FC018581882309F42A
:1010A000D6C0848180FFD3C021E02A83438954893C
:1010B0006589768982859385A485B5854817590702
:1010C0006A077B0709F41A826F013A81832F90E047
:1010D000DE0111964D013F01B6E06B0E711C892BAC
:1010E00009F47CC0D6011A964D915D916D917C9169
:1010F0001D975A01B1E0BB22F60125811A012B018F
:1011000089E056944794379427948A95D1F7838D34
:10111000948D223061F4FC01828D938DA48DB58D68
:10112000BC01CD01620D731D841D951D44C0DC0101
:1011300014961C9111501221A114B104C9F411117B
:1011400017C0452B462B472B51F4F6018789908D0C
:10115000A18DB28D86839783A087B18709C0468110
:101160005781608571859301ACD4882309F46FC0E1
:10117000F601238D348D86819781A085B1850297F4
:10118000A109B109AC01BD01F901058404C0440FF6
:10119000551F661F771F0A94D2F786859785A08909
:1011A000B189840F951FA61FB71FBC01CD01610F28
:1011B000711D811D911DD60114962C9126FF14C01E
:1011C0000091030210910402209105023091060261
:1011D000601771078207930749F506C0FA81FF235C
:1011E000B1F1898190E035C040E085D3882379F161
:1011F000F501E95FF74FD401CF010196E817F90730
:1012000019F021912D93FACFEFEF8E1A9E0AF60175
:1012100082859385A485B5850196A11DB11D828720
:101220009387A487B58780E090E059CF740101E0EF
:1012300010E09501AB01BC018091070A9091080A6A
:101240008ADE882321F0BFEF8B1A9B0AE0CF8FEF55
:101250009FEF0F900F90DF91CF911F910F91FF9013
:10126000EF90DF90CF90BF90AF909F908F907F9046
:101270006F905F904F903F902F900895FC01818D6B
:10128000928D009709F0F2CE8FEF9FEF08950F93A4
:101290001F93CF93DF93FC01818D928D0097A9F06E
:1012A000EF01E4DE8C010F3F8FEF180789F0898D85
:1012B0009A8DFC014285538564857585415051099D
:1012C00061097109D8D6C80105C080E090E002C06C
:1012D0008FEF9FEFDF91CF911F910F910895EF92C4
:1012E000FF920F931F93CF93DF93EC017901411588
:1012F00051056105710511F482E134C08B8583309D
:1013000039F089E0440F551F661F771F8A95D1F782
:101310009A01AB0168E1CE01C3DD882311F084E0BE
:1013200021C08EEF84DD87018EEFF81AF8018191DC
:101330008F017DDD0E151F05C9F78FEF78DD8FEF6B
:1013400076DD7CDD8A878F71853029F081E18D83A0
:10135000CE0110DB08C068E572E0CE0171DD8111BD
:1013600006C085E18D83CE0105DB80E010C020E062
:1013700030E0A9016DE0CE0193DD811103C05EDD97
:10138000882311F084E1EECFCE01F4DA81E0DF9121
:10139000CF911F910F91FF90EF9008956115710506
:1013A00079F0FB0101900020E9F73197AF01461B6E
:1013B000570BDC01ED91FC910280F381E02D199433
:1013C00080E090E00895FC01538D448D252F30E09E
:1013D000842F90E0821B930B541710F0CF96089542
:1013E00001970895FC01918D828D981761F0828D8F
:1013F000DF01A80FB11D5D968C91928D9F5F9F7349
:10140000928F90E008958FEF9FEF0895FC01918DEA
:10141000828D981731F0828DE80FF11D858D90E057
:1014200008958FEF9FEF0895FC01918D228D892FF4
:1014300090E0805C9F4F821B91098F7399270895DC
:1014400089E09AE0F1DF21E0892B09F420E0822F86
:101450000895FC01848DDF01A80FB11DA35ABF4F71
:101460002C91848D90E001968F739927848FA689A3
:10147000B7892C93A089B1898C9180648C93938DCA
:10148000848D981306C00288F389E02D80818F7DBA
:1014900080830895EF92FF920F931F93CF93DF9372
:1014A000EC0181E0888F9B8D8C8D981305C0E889B5
:1014B000F989808185FD23C0F62E0B8D10E00F5F2A
:1014C0001F4F0F731127E02E8C8DE8120BC00FB643
:1014D00007FCFACFE889F989808185FFF5CFCE0135
:1014E000B8DFF2CF8B8DFE01E80FF11DE35AFF4FFD
:1014F000F0820B8FEA89FB898081806207C0EE89C8
:10150000FF896083E889F98980818064808381E034
:1015100090E0DF91CF911F910F91FF90EF90089590
:10152000CF93DF93EC01888D8823C1F0EA89FB8992
:10153000808185FD05C0A889B9898C9186FD0EC082
:101540000FB607FCF5CF808185FFF2CFA889B98956
:101550008C9185FFEDCFCE017CDFE8CFDF91CF917D
:10156000089580E090E0892B19F06ADF811125C091
:1015700080E090E0892B41F080E090E0892B21F021
:101580000E94000081111CC080E090E0892B41F096
:1015900080E090E0892B21F00E940000811113C0AF
:1015A00080E090E0892BA1F080E090E0892B81F031
:1015B0000E94000081110AC008950E940000D8CF47
:1015C0000E940000E1CF0E940000EACF0C940000CE
:1015D00008950E949C1F8091F907882399F14091FA
:1015E000030250910402609105027091060227E007
:1015F00038E08091070A9091080A71DE811102C0DB
:1016000080E008954091FA075091FB076091FC0734
:101610007091FD07411551056105710589F027E0BD
:1016200038E08091070A9091080A59DE882341F337
:101630001092FA071092FB071092FC071092FD0718
:101640001092F90781E008951F920F920FB60F9242
:1016500011240BB60F922F933F934F935F936F9389
:101660007F938F939F93AF93BF93EF93FF9389E003
:101670009AE0EFDEFF91EF91BF91AF919F918F9133
:101680007F916F915F914F913F912F910F900BBE82
:101690000F900FBE0F901F9018951F920F920FB6CC
:1016A0000F9211240BB60F922F938F939F93EF936A
:1016B000FF93E091190AF0911A0A8081E0911F0AC4
:1016C000F091200A82FD12C090818091220A8F5FE2
:1016D0008F732091230A821751F0E091220AF0E0E3
:1016E000E75FF54F958F8093220A01C08081FF91BB
:1016F000EF919F918F912F910F900BBE0F900FBE86
:101700000F901F901895362F90E0FC01EA5EFD4F78
:101710004491FC01EA58FD4F2491FC01EA52FD4F2F
:101720009491992309F46BC0442309F455C050E007
:10173000FA013197E231F10508F04EC08827EE58E2
:10174000FF4F8F4F0C94B01E809180008F7707C0A1
:10175000809180008F7D03C080918000877F80937F
:1017600080003AC084B58F7702C084B58F7D84BD78
:1017700033C08091B0008F7703C08091B0008F7D1F
:101780008093B00029C0809190008F7707C080912E
:1017900090008F7D03C080919000877F80939000A0
:1017A0001BC08091A0008F7707C08091A0008F7D23
:1017B00003C08091A000877F8093A0000DC080911E
:1017C00020018F7707C0809120018F7D03C0809119
:1017D0002001877F80932001E92FF0E0EE0FFF1FAB
:1017E000E454FD4FA591B4918FB7F894EC91311169
:1017F00003C020952E2301C02E2B2C938FBF08955C
:101800003FB7F8948091030890910408A0910508CF
:10181000B091060826B5A89B05C02F3F19F0019688
:10182000A11DB11D3FBFBA2FA92F982F8827820F66
:10183000911DA11DB11DBC01CD0142E0660F771FB6
:10184000881F991F4A95D1F708952FB7F894609192
:10185000FF077091000880910108909102082FBF46
:1018600008951F920F920FB60F9211242F933F935A
:101870008F939F93AF93BF938091FF079091000840
:10188000A0910108B09102083091FE0723E0230FD8
:101890002D3720F40196A11DB11D05C026E8230FA8
:1018A0000296A11DB11D2093FE078093FF07909320
:1018B0000008A0930108B09302088091030890915A
:1018C0000408A0910508B09106080196A11DB11D5C
:1018D0008093030890930408A0930508B09306082A
:1018E000BF91AF919F918F913F912F910F900FBE1C
:1018F0000F901F9018958F929F92AF92BF92EF9288
:10190000FF920F931F93CF934B015C01C42F8091E3
:10191000030290910402A0910502B091060288157D
:101920009905AA05BB05F1F056DE811102C080E0E1
:101930001FC087E0E82E88E0F82E00E012E020E0EB
:1019400030E0B501A4018091070A9091080A03DBF9
:10195000882369F38092030290920402A092050208
:10196000B09206028091F907C82BC093F90781E075
:10197000CF911F910F91FF90EF90BF90AF909F90EC
:101980008F9008954F925F926F927F928F929F9265
:10199000AF92BF92CF92DF92EF92FF920F931F937D
:1019A000CF93DF93EC016A017B01280139014230BA
:1019B00051056105710510F480E072C089859A8532
:1019C000AB85BC850196A11DB11D84179507A6079F
:1019D000B70790F38B889C88AD88BE888F8980314B
:1019E00029F4BB27AF2D9E2D8D2D09C0DB01CA0127
:1019F00047E0B695A795979587954A95D1F7880EB4
:101A0000991EAA1EBB1E8091030290910402A09110
:101A10000502B091060288169906AA06BB0679F45B
:101A20008F89803199F4DD24EE24FF24C601880FCC
:101A3000991FFC01E95FF74F5182408218C040E0D6
:101A4000C501B40158DF8111EBCFB6CFE894C7F8D8
:101A5000DD24EE24FF24C601880F991F880F991FEB
:101A6000FC01E95FF74F408251826282738280916C
:101A7000F90781608093F9078A89823080F08D812F
:101A80009E81AF81B885880E991EAA1EBB1E8092CA
:101A9000FA079092FB07A092FC07B092FD0781E045
:101AA000DF91CF911F910F91FF90EF90DF90CF903A
:101AB000BF90AF909F908F907F906F905F904F906E
:101AC00008958F929F92AF92BF92CF92DF92EF9242
:101AD000FF920F931F93CF93DF93FC018185928533
:101AE000A385B4850196A11DB11D84179507A6078E
:101AF000B70710F480E05BC083899489A589B68913
:101B0000C789C03129F4852E962EA72EBB2409C083
:101B10004A015B01C7E0B694A79497948794CA954D
:101B2000D1F7E9016A017B018F01BC01CD01680D8C
:101B3000791D8A1D9B1D8090030290900402A09045
:101B40000502B0900602681579058A059B0599F48F
:101B5000F80187898031A1F4B701A60155276627CE
:101B60007727440F551FFA01E95FF74F8081918174
:101B7000A0E0B0E017C040E0BEDE8111E9CFBACFEF
:101B8000B701A6014F77552766277727440F551FC2
:101B9000440F551FFA01E95FF74F80819181A281BF
:101BA000B381BF7088839983AA83BB8381E0DF916F
:101BB000CF911F910F91FF90EF90DF90CF90BF904A
:101BC000AF909F908F9008954F925F926F927F9207
:101BD000AF92BF92CF92DF92EF92FF920F931F933B
:101BE000CF93DF9300D01F92CDB7DEB78C0149832E
:101BF0005A836B837C835901C12CD12C7601412CF3
:101C000082E0582E612C712C49815A816B817C8134
:101C10009E012F5F3F4FC80154DF882351F1D3014C
:101C2000C201F801058404C0880F991FAA1FBB1FB9
:101C30000A94D2F7C80ED91EEA1EFB1E49815A81AA
:101C40006B817C818789803129F088EF9FEFAFEF2E
:101C5000BFE004C088EF9FEFA0E0B0E0481759074D
:101C60006A077B0788F2F501C082D182E282F382A3
:101C700081E00F900F900F900F90DF91CF911F9107
:101C80000F91FF90EF90DF90CF90BF90AF907F903B
:101C90006F905F904F9008954F925F926F927F92F6
:101CA000AF92BF92CF92DF92EF92FF920F931F936A
:101CB000CF93DF93CDB7DEB72B970FB6F894DEBF87
:101CC0000FBECDBF7C01CE0101966C01FC0190E2FC
:101CD0008BE08C0D91938E13FDCFDA0130E047E05D
:101CE0009D91992339F19E3219F0E6E0F2E00AC0A5
:101CF0004A3009F46EC138E04AE0F2CF31968917D4
:101D000009F467C184918111F9CF431708F461C1C7
:101D10008FED890F8E3508F05CC181E0830FF601ED
:101D2000E30FF11D3FE9390F3A3108F490529083E7
:101D3000382FD6CF8981803209F44BC1B22E8B0166
:101D4000DB015B968D919C915C97F701948F838F5B
:101D500016961D921D921D921C921997FB011286D8
:101D6000138614861586712CF80182859385A485C7
:101D7000B585438954896589768984179507A607AF
:101D8000B70708F060C025E0B695A79597958795A9
:101D90002A95D1F7F82FFF706F2ED80115968C91E8
:101DA000823008F416C1C80161D997FD12C1F8014B
:101DB00082859385A485B5854F96A11DB11D828727
:101DC0009387A487B587F0E26F9EC0011124BC0100
:101DD000695F774F6115710509F4FBC0DB012C9138
:101DE000222319F0253EC1F427C071100EC0F7015F
:101DF000628A409103025091040260910502709141
:101E0000060246875787608B718BFC01E95FF74FAD
:101E10008081811113C015C04BE050E0C6010E94C3
:101E2000A01F892B09F0A0CF8B2D8073803309F47C
:101E3000D0C04B2D662DC9C07720C9F2772473948A
:101E400093CF772473948B2D8271823109F0C1C0B6
:101E50007720C9F0D7011E966D917D918D919C914F
:101E6000519741E048DD882309F4B3C0F701628946
:101E7000F0E26F9FB0011124695F774F6115710522
:101E800009F078C0A6C0D80115968C91823009F46B
:101E9000A0C0C8010E94B103882309F49AC0D801E8
:101EA0005B96ED91FC915C9716964D905D906D90D0
:101EB0007C901997B2E04B1A5108610871080584AB
:101EC00004C0440C551C661C771C0A94D2F7868506
:101ED0009785A089B189480E591E6A1E7B1EA48071
:101EE000E1E04E1A510861087108AA2001F173DB84
:101EF000882309F46EC0E7E0F8E011922AE0E730A9
:101F0000F207D9F7D301C2018A0D911DA11DB11DA0
:101F10008093030290930402A0930502B0930602FB
:101F20008091F90781608093F907AA94DECFD801E8
:101F30005B96ED91FC915C9780E092E0A0E0B0E0D0
:101F4000058404C0880F991FAA1FBB1F0A94D2F7EB
:101F5000F8014389548965897689840F951FA61FE6
:101F6000B71F838B948BA58BB68BD70152961C928F
:101F700067E078E080E2FB0111928A95E9F78BE057
:101F8000F601DB0101900D928A95E1F781E298E27A
:101F9000DB0151969C938E93509720E038E01F967A
:101FA0003C932E931E9753969C938E9352975996DB
:101FB0009C938E93589757963C932E9356970BDB92
:101FC000882339F04B2DF7016289C7010E949D02D9
:101FD00001C080E02B960FB6F894DEBF0FBECDBFD8
:101FE000DF91CF911F910F91FF90EF90DF90CF90F5
:101FF000BF90AF907F906F905F904F900895CF9378
:10200000DF93EC018D81882391F18C8187FF2CC0B7
:102010006E857F858889998941E06DDC882339F157
:10202000EA8980E2E89FF0011124DF01A95FB74F40
:102030001097E9F08D81823050F44B895C896D896D
:102040007E895C964D935D936D937C935F978F89AA
:10205000988DA98DBA8DE95FF74F938F828FB58BDD
:10206000A48B8C818F778C83DF91CF91B4CA80E071
:10207000DF91CF9108958F929F92AF92BF92CF92AE
:10208000DF92EF92FF920F931F93CF93DF93EC01B8
:102090008D81811102C080E076C00B891C892D8959
:1020A0003E890417150726073707A8F36A017B0145
:1020B000823029F4CA86DB86EC86FD860DC0C11409
:1020C000D104E104F10451F41E821F82188619869E
:1020D0001A861B861C861D8681E055C08A849B84D7
:1020E000AC84BD84EB8DFC8D258530E0275F3F4FB0
:1020F000B501A4014150510961097109022E04C0C2
:1021000076956795579547950A94D2F7D701C601FA
:102110000197A109B10904C0B695A7959795879530
:102120002A95D2F784179507A607B70720F08928C4
:102130008A288B2849F44F89588D698D7A8D4E8372
:102140005F836887798704C0841B950BA60BB70B48
:102150004C015D018E010A5F1F4F81149104A1049F
:10216000B10409F4A7CF4E815F8168857985980114
:102170008B8D9C8DA6DC91E0891A9108A108B1088D
:102180008111EBCF88CFDF91CF911F910F91FF90FD
:10219000EF90DF90CF90BF90AF909F908F90089579
:1021A0002F923F924F925F926F927F928F929F9267
:1021B000AF92BF92CF92DF92EF92FF920F931F9355
:1021C000CF93DF9300D01F92CDB7DEB78C015B01B8
:1021D0001A01DC0115968C9115978130C1F4149683
:1021E0008C9181FF14C082FF1AC0F8014389548981
:1021F0006589768982859385A485B5858417950739
:10220000A607B70761F0C80136DF811108C081E079
:1022100090E0F8019383828380E090E035C1610112
:1022200083C0D8015B968D919C915C97FC012481C1
:1022300021502A013B0139E07694679457944794E2
:102240003A95D1F7722E74207A01F1E0FF227720BF
:1022500009F476C080E092E08E199F0946018C1542
:102260009D0508F44C01D8015B962D913C915C973B
:1022700016968D919D910D90BC91A02D0297A1096C
:10228000B109F901058404C0880F991FAA1FBB1F5B
:102290000A94D2F74685578560897189840F951F06
:1022A000A61FB71F9C01AD01270D311D411D511DFA
:1022B00029013A01811432E0930609F087C0809128
:1022C000030290910402A0910502B09106028415C8
:1022D0009505A605B70559F48FEF9FEFDC018093B4
:1022E000030290930402A0930502B09306029501A5
:1022F000B301A2018091070A9091080A0E946F0918
:10230000882309F484CF9EEFB91AC818D908F801B8
:1023100082859385A485B585880D991DA11DB11D64
:1023200082879387A487B587D8011A964D915D91CE
:102330006D917C911D97C114D10409F072CF84C0B6
:10234000E114F10409F086CF16964D915D916D91DF
:102350007C911997411551056105710559F45796FE
:102360008D919D910D90BC91A02D0097A105B10577
:1023700039F520C09E012F5F3F4FA3DB882309F46E
:102380004CCF89819A81AB81BC81F801238D348D3A
:10239000F9012789203129F048EF5FEF6FEF7FE0E7
:1023A00004C048EF5FEF60E070E084179507A60770
:1023B000B70730F0C8010E94B10381114BCF27CF7E
:1023C000F80186839783A087B18744CFE114F10495
:1023D00021F5D8011A964D915D916D917C911D97D3
:1023E00053968D919D910D90BC91A02D4817590742
:1023F0006A077B0790F0EFD8882309F408CF409252
:1024000003025092040260920502709206028091CB
:10241000F90781608093F90707C041E0C301B20169
:102420006ADA882309F4F3CED501F701E95FF74FA3
:10243000CF01880D991DE817F90719F02D91219307
:10244000FACFA80CB91C61CF53968D919D910D9038
:10245000BC91A02D84179507A607B70740F4F80193
:10246000438B548B658B768B848180688483D80101
:1024700014968C9183FD02C0C10106C0C801BFDD66
:10248000882309F4C4CEF8CF0F900F900F900F90CF
:10249000DF91CF911F910F91FF90EF90DF90CF9040
:1024A000BF90AF909F908F907F906F905F904F9074
:1024B0003F902F900895CF93DF931F92CDB7DEB753
:1024C000698341E050E0BE016F5F7F4F69DE0F908E
:1024D000DF91CF91089590E0FC01EA58FD4F2491DF
:1024E000FC01EA52FD4F8491882399F090E0880F17
:1024F000991FFC01E45AFD4FA591B491FC01E454ED
:10250000FD4F859194918FB7F894EC91E22BEC9369
:102510008FBF08952F923F924F925F926F927F925A
:102520008F929F92AF92BF92CF92DF92EF92FF92E3
:102530000F931F93CF93DF93CDB7DEB7C756D10963
:102540000FB6F894DEBF0FBECDBF5C014B01A6965F
:102550004FAFA6973E018EE1680E711C62ED7AE0E6
:10256000C3010E94DB041C821B8288E292E09A83F2
:1025700089831E8264018E010F5F1F4F23011801A2
:102580006FE270E0C6010E94B61F009709F441C0D7
:10259000F60120812F3221F4FFEFCF1ADF0AF0CFAE
:1025A0008C198D3008F08CE0E82EF12CA701B601D3
:1025B000CE01885A9F4F0E94C81FE8E5F0E0EC0F5B
:1025C000FD1FEE0DFF1D1082C8010E94A503F8013A
:1025D0008581882351F01EAE1DAE88E292E09CAF4B
:1025E0008BAF21961FAE219720C021E0AE01485A43
:1025F0005F4FB201C80150DB882369F3CE0CDF1CAA
:10260000C2010E94A503942D852D2801092F182FA2
:10261000B7CFC60188199909A8969FAF8EAFA89722
:10262000B201CE01CB960E94DB04A896EEADFFADC1
:10263000A8978E0E9F1EF4018081811109C0BE01F2
:10264000655C7F4FC1010E94DB0446E653E048C051
:1026500019A218A288E292E09F8F8E8F1BA221966A
:102660008FAD2197811113C0F5011382128288EE7C
:1026700093E0A0E0B0E084839583A683B78386E4EB
:1026800092E091838083128E118E14862DC0825029
:10269000A6962FADA697A401823038F462ED7AE0B9
:1026A000C301FADA81110CC0DFCFBE01655C7F4F38
:1026B000C301F2DA8823C1F2CE01CB960E94A503B2
:1026C000A6968FADA697867031F049A95AA96BA935
:1026D0007CA9C301D0DCB301C1010E94DB04A401C9
:1026E000B101C5010E942C05C501C959DF4F0FB6C4
:1026F000F894DEBF0FBECDBFDF91CF911F910F9138
:10270000FF90EF90DF90CF90BF90AF909F908F9011
:102710007F906F905F904F903F902F9008958F9291
:102720009F92AF92BF920F931F93CF93DF93CDB73A
:10273000DEB7A1970FB6F894DEBF0FBECDBF19A2CA
:10274000423008F44AE08E010F5D1F4F842E912C19
:10275000A12CB12CA50194010E948E1EE62FB90177
:10276000CA0101501109EA3014F4E05D01C0E95CCE
:10277000D801EC93232B242B252B61F7B80189E09A
:102780009AE00E94CE09A1960FB6F894DEBF0FBE64
:10279000CDBFDF91CF911F910F91BF90AF909F90D0
:1027A0008F9008950F931F93CF93DF938C01C0E018
:1027B000D0E0F801EC0FFD1F6491662371F0E09109
:1027C000090AF0910A0A0190F081E02D89E09AE06F
:1027D0001995892B11F02196ECCFCE01DF91CF9185
:1027E0001F910F910895CF93DF93DCDFEC0168E632
:1027F00073E089E09AE00E94CE098C0F9D1FDF9163
:10280000CF910895CF93DF93BC0189E09AE00E94B5
:10281000CE09EC0168E673E089E09AE00E94CE09F7
:102820008C0F9D1FDF91CF910895CF92DF92EF9291
:10283000FF92CF93DF936C01990FEE08FF08F7FE2C
:1028400019C0E091090AF0910A0A0190F081E02D87
:102850006DE289E09AE01995EC0166277727CB01B4
:102860006C197D098E099F094AE059DF7C01EC0E45
:10287000FD1E05C04AE0C701B60151DF7C0168E6D4
:1028800073E089E09AE00E94CE098E0D9F1DDF91D2
:10289000CF91FF90EF90DF90CF900895CF93DF938B
:1028A000FC01448155816081718189E09AE0ADD15C
:1028B000EC0168E673E089E09AE00E94CE098C0F93
:1028C0009D1FDF91CF9108950F931F93CF93DF93B7
:1028D000EC010E94250C688779878A879B87CE0147
:1028E0000E943E0997FF17C00E94250C0885198594
:1028F0002A853B85DC01CB01801B910BA20BB30B1E
:102900000C811D812E813F8180179107A207B3079B
:1029100030F38FEF9FEFDF91CF911F910F910895CB
:102920008F929F92AF92BF92CF92DF92EF92FF92DF
:10293000CF93DF93C82F88EA9AE09093080A809398
:10294000070ACC2369F1C53010F080E00DC140E0EA
:1029500060E070E0CB010E947B0C8823B1F320E1A2
:10296000C29FC00111248950984FFC01E254FE4FD0
:1029700020812F7751F73C9640815181628173818C
:10298000443651056105710500F33497C080D1804C
:10299000E280F380C114D104E104F10421F4D5CF25
:1029A000C12CD12C760140E0C701B6010E947B0CFE
:1029B000882359F280911208909113088115924052
:1029C00021F6A0911708AA2309F4BFCF609115083A
:1029D000709116086115710509F4B7CF209114089C
:1029E000222309F4B2CFA093C60A2093B80A80E04C
:1029F00030E0E1E0F0E0C82FAF01082E02C0440F44
:102A0000551F0A94E2F72417350741F0982F8F5F7E
:102A1000983089F789E08093C10A97CF8093C10AE3
:102A200020911D0830911E082115310519F040E054
:102A300050E008C020912B0830912C0840912D08BF
:102A400050912E082093B90A3093BA0A4093BB0ADA
:102A50005093BC0A46015701860E971EA11CB11C5B
:102A60008092C70A9092C80AA092C90AB092CA0A74
:102A7000E0911808F0911908F093CD0AE093CC0A80
:102A8000B0E00E94751E860E971EA81EB91E809289
:102A9000CE0A9092CF0AA092D00AB092D10A85E0D5
:102AA000EE0FFF1F8A95E1F7E150FE4FEF2FFF2752
:102AB000E6958E0E9F1EA11CB11C8092C20A9092B8
:102AC000C30AA092C40AB092C50A20911A08309194
:102AD0001B082115310521F0A90160E070E008C054
:102AE00040912708509128086091290870912A0880
:102AF000D701C60188199909AA09BB09840F951F36
:102B0000A61FB71F04C0B695A79597958795CA9538
:102B1000D2F78093BD0A9093BE0AA093BF0AB093E8
:102B2000C00A853F2FE09207A105B10510F48CE0A3
:102B300018C0853F9F4FA105B10510F480E111C079
:102B40008091330890913408A0913508B0913608EF
:102B50008093CE0A9093CF0AA093D00AB093D10A63
:102B600080E28093CB0A81E0DF91CF91FF90EF90DC
:102B7000DF90CF90BF90AF909F908F9008950F936C
:102B80001F93CF93DF93EC0188819981009729F0FF
:102B90002A813B812617370788F48B016F5F7F4FAF
:102BA0000E94B81E009761F0998388831B830A8373
:102BB0002C813D81232B11F4FC01108281E001C0A6
:102BC00080E0DF91CF911F910F910895EF92FF92D6
:102BD0000F931F93CF93DF93EC017B018A01BA011E
:102BE000CEDF811103C0CE013BD007C01D830C8313
:102BF000B701888199810E94C11FCE01DF91CF91D9
:102C00001F910F91FF90EF900895CF92DF92EF9276
:102C1000FF920F931F93CF93DF936C017A018B0187
:102C2000C0E0D0E0CE15DF0589F0D8016D918D01AF
:102C3000D601ED91FC910190F081E02DC60119952E
:102C4000892B11F47E0102C02196ECCFC701DF91E0
:102C5000CF911F910F91FF90EF90DF90CF9008954B
:102C6000CF93DF93EC0188819981009709F037D7E2
:102C7000198218821D821C821B821A82DF91CF91D9
:102C80000895FC011182108213821282158214822F
:102C90006115710549F0FB0101900020E9F73197BA
:102CA000AF01461B570B92CF0895CF93DF93CDB75B
:102CB000DEB7C854D1090FB6F894DEBF0FBECDBF42
:102CC000789484B5826084BD84B5816084BD85B507
:102CD000826085BD85B5816085BD80916E00816013
:102CE00080936E00109281008091810082608093B9
:102CF00081008091810081608093810080918000BB
:102D00008160809380008091B10084608093B100E5
:102D10008091B00081608093B000809191008260CA
:102D200080939100809191008160809391008091C7
:102D300090008160809390008091A10082608093D8
:102D4000A1008091A10081608093A1008091A000EA
:102D500081608093A0008091210182608093210195
:102D60008091210181608093210180912001816007
:102D70008093200180917A00846080937A00809112
:102D80007A00826080937A0080917A0081608093DB
:102D90007A0080917A00806880937A001092C10056
:102DA00010927203109271031092700310926F03CD
:102DB00010926E0381E080936D0310926C0361E0CA
:102DC00084E10E94830B61E085E10E94830B809186
:102DD000B9008E7F8093B9008091B9008D7F809378
:102DE000B90088E48093B80085E48093BC00E0914A
:102DF000190AF0911A0A82E08083E091150AF09195
:102E0000160A1082E091170AF091180A80E1808377
:102E10001092210AE0911D0AF0911E0A86E080833B
:102E2000E0911B0AF0911C0A808180618083E0910F
:102E30001B0AF0911C0A808188608083E0911B0A44
:102E4000F0911C0A808180688083E0911B0AF091D8
:102E50001C0A80818F7D80838AEC91E0C4DC83EB47
:102E600091E0C1DC87E037DB8EE991E09BDC1092DA
:102E7000B30A1092B10A1092AE0A1092AD0A1092E3
:102E8000AC0A0E94250C6B017C018091AC0A23DB0B
:102E900061E08091AC0A0E94830B1FB7F894809187
:102EA0007907811121C0EBE0F3E08491EBEAF2E0D5
:102EB0009491E82FF0E0EE0FFF1FE45AFD4FA5912B
:102EC000B491EC91E92321F461E085E30E94830B46
:102ED00085E301DB8CB580618CBD8CB580648CBDD5
:102EE00084E3F9DA83E3F7DA809179078F5F8093DF
:102EF00079071FBF82E58093A60A1092A70A8091E6
:102F0000A60A9091A70A0E94C4041AE08FEF0E94BB
:102F100017071150D9F788EA9AE00E94C70420E009
:102F200030E0A90160E088EA9AE00E945007182F7B
:102F30008093B20A813049F00E94250C6C197D09FA
:102F4000613D774060F381E054C02AEA31E040E01F
:102F500050E068E088EA9AE00E94500782FF03C0D0
:102F60001093B30A0EC014E00E941E078093B20AA9
:102F70001150D1F78A3A11F082E03BC082E0809391
:102F8000B30A8091B30A823021F0412C512C3201D6
:102F900005C0412C512C612C50E4752E20E030E00E
:102FA000A90167E388EA9AE00E945007A301920111
:102FB00069E288EA9AE00E9450078093B20A882367
:102FC00049F00E94250C6C197D09613D774030F372
:102FD00088E00FC08091B30A823001F520E030E034
:102FE000A9016AE388EA9AE00E945007882341F029
:102FF00086E08093AD0A88EA9AE00E94BA049FC0F6
:103000000E941E07807C803C19F483E08093B30A01
:103010000E941E070E941E070E941E0788EA9AE06F
:103020000E94BA0483E58093A60A1092A70A81E061
:1030300077DC882329F08091D70A882339F07FC074
:1030400080E06EDC882309F47AC0F5CF8091CB0A4A
:10305000803109F582E08093D70A1092E90A109234
:10306000EA0A1092EB0A1092EC0A8091CC0A909135
:10307000CD0AA0E0B0E045E0880F991FAA1FBB1F52
:103080004A95D1F78093E50A9093E60AA093E70A60
:10309000B093E80A1EC0803209F051C083E08093EB
:1030A000D70A4091CE0A5091CF0A6091D00A709110
:1030B000D10A4093E90A5093EA0A6093EB0A7093AD
:1030C000EC0A25EE3AE084EB9AE00E94E40D8823B6
:1030D000B1F184EB9AE09093EE0A8093ED0A81E0DF
:1030E0008093D60A1092D80A1092D90A1092DA0A5E
:1030F0001092DB0A1092DC0A1092DD0A1092DE0AAE
:103100001092DF0A1092E00A1092E10A1092E20A8D
:103110001092E30A1092E40A8AE691E064DB60917F
:10312000090B70910A0B41E0CE014C96F3D9EDA941
:10313000FEA98E010F5F1F4F309729F45AC085E812
:1031400091E051DB5AC18581882309F452C0CE0138
:103150004C960E94C201892B09F43CC06AE673E0D8
:10316000C8018FDDCE014C96AFDB97FD1CC08A30C5
:103170009105C9F08FAB18AEED80FE808FEFE81A95
:10318000F80AB701C801FBDC882361F329813A8181
:103190008D819E81BE01695C7F4F820F931FF1D6A6
:1031A000FE82ED82DFCF8CE591E01DDBC80176DB8E
:1031B000E980FA80E114F10419F0C70128D503C0B1
:1031C00060E070E0CB017093010260930002C701E0
:1031D00086D4BDCF82E792E015DB8DA99EA900972A
:1031E00059F00E94A5038DA99EA979D41EAA1DAAF3
:1031F00003C08DE391E0F7DA80E595E0909301025A
:10320000809300028EE191E0EEDA80912A0B90919A
:103210002B0B009721F4C8018E529B4004C09801EB
:10322000281B390BC9019A83898389819A81FDDA28
:1032300089E09BE033DB6DE872E0CE01CD9621DDC5
:1032400044E050E062E972E0CE01CD96BFDC88E058
:1032500091E0C9DA809100029091010218AE1FAA94
:103260001AAE19AE1CAE1BAE4AE0B801F6D4F80196
:1032700001900020E9F73197AF01401B510BB801D5
:10328000CE01C796A3DC23968EAD9FAD2397CDAC20
:10329000DEACEBACFCACC114D10409F4EDC2009778
:1032A00099F0E80EF91EB701CE01C79668DC8823B5
:1032B00009F4E2C22FA938AD8BAD9CADB601820FE7
:1032C000931F5FD6FCAEEBAE25961FAE1EAE2597C4
:1032D00027961FAE1EAE279729961FAE1EAE2997C2
:1032E0006FA978AD6115710531F04BAD5CADCE01C4
:1032F0008D5B9F4F6BDC8FA998ADF1D3CE018D5BB9
:103300009F4FCCDA8DAD9EADEAD3CE018D5B9F4F42
:10331000C5DA25966EAD7FAD259742E5C801FAD88E
:103320008B819C819093120B8093110B8D819E81D8
:10333000AF81B8858093130B9093140BA093150B5A
:10334000B093160B89859A85AB85BC858093170B46
:103350009093180BA093190BB0931A0B8DE0FE01FC
:103360003D96ABE1BBE001900D928A95E1F7EA8DC5
:10337000FB8DF093290BE093280B309731F085817A
:10338000882319F087E992E002C088EA92E03ADAED
:1033900081E0809302028EEB92E034DAF89410928E
:1033A000B0001092B1001092B20084EB8093B30091
:1033B00082E08093B0008093B10080937000789495
:1033C00080ED92E01FDA85E680937C0080917A00A0
:1033D000846080937A0080917A008D7F80937A0058
:1033E00080917A00816080937A0080EE92E00ADA20
:1033F00025968EAD9FAD259772D390E1A92E11E051
:103400000FE52BE2B22E38E0932E80910202882342
:1034100009F414C1E091280BF091290B309719F0B1
:103420008581811104C080EF91E0DDD9FFCF82EF6B
:1034300092E0E8D91092730310927403109275030E
:103440001092760310927E0710927F0710928007E9
:103450001092810765E073E08FE09BE00E94CE0947
:10346000E0910F0BF091100B0280F381E02D44E00E
:1034700050E06EE072E08FE09BE019956AE073E047
:103480008FE09BE00E94CE096FE073E08FE09BE04D
:103490000E94CE09A0927D0710927C0710927B07B4
:1034A00010927A0760E18FE09BE00E94E301609157
:1034B0007C078FE09BE00E94E30160917B078FE037
:1034C0009BE00E94E30160917A078FE09BE00E94FD
:1034D000E30110937D0710927C0761E08FE09BE091
:1034E0000E94E30160917C078FE09BE00E94E30172
:1034F00010937D0710927C0761E08FE09BE00E94B3
:10350000E30160917C078FE09BE00E94E301009360
:103510007D07B0927C0710927B0710927A076FE5C7
:103520008FE09BE00E94E30160917C078FE09BE0CD
:103530000E94E30160917B078FE09BE00E94E30122
:1035400060917A078FE09BE00E94E30100937D0782
:10355000B0927C0710927B0710927A076FE58FE09C
:103560009BE00E94E30160917C078FE09BE00E945A
:10357000E30160917B078FE09BE00E94E301609193
:103580007A078FE09BE00E94E30110937D07109281
:103590007C0761E08FE09BE00E94E30160917C0783
:1035A0008FE09BE00E94E30190927D0710927C07E0
:1035B00068E08FE09BE00E94E30160917C078FE070
:1035C0009BE00E94E30164E173E08FE09BE00E94D6
:1035D000CE0910927D0710927C0710927B07109203
:1035E0007A0760E08FE09BE00E94E30160917C0736
:1035F0008FE09BE00E94E30160917B078FE09BE0FE
:103600000E94E30160917A078FE09BE00E94E30152
:1036100089E193E0F7D88091700082608093700018
:1036200010920202109386070E94250C6093820775
:103630007093830780938407909385078091860712
:10364000882309F4E6C0809102028111E2C00E9441
:10365000250CC0908207D0908307E0908407F090FB
:10366000850730E2C30E3EE4D31EE11CF11CC616F2
:10367000D706E806F90608F0CCC087E493E0C2D884
:10368000809170008D7F8093700081EE91E0ABD8C7
:1036900060917E0770917F078091800790918107EC
:1036A0004AE03DD88091280B9091290B009731F08A
:1036B00044E050E060E070E00E943B1060917E07C3
:1036C00020917F07909180078091810760937D070B
:1036D00020937C0790937B0780937A078FE09BE091
:1036E0000E94E30160917C078FE09BE00E94E30170
:1036F00060917B078FE09BE00E94E30160917A0775
:103700008FE09BE00E94E3018091280B9091290BB0
:10371000009731F048E250E060E070E00E943B101A
:1037200060917D078FE09BE00E94E30160917C0740
:103730008FE09BE00E94E30160917B078FE09BE0BC
:103740000E94E30160917A078FE09BE00E94E30111
:103750008091280B9091290B009759F00E94A503A6
:103760008091280B9091290BBAD11092290B1092BD
:10377000280B6FE273E089E09AE00E94CE0980E0B6
:1037800090E053D864E373E089E09AE00E94CE09A8
:1037900080E094E04AD869E373E089E09AE00E940F
:1037A000CE0980E090E041D860E473E089E09AE0DF
:1037B0000E94CE0980E090E038D810930202109267
:1037C00086070E94000C2B013C0180EAC82E86E887
:1037D000D82EEE24E394F12C0E94000CDC01CB01E6
:1037E00084199509A609B709883E9340A105B1053A
:1037F00058F081E0C81AD108E108F10828EE420E1D
:1038000023E0521E611C711CC114D104E104F104B7
:1038100019F780918607882361F1809178078823C2
:1038200039F01092780740E052E068E775E00AC08E
:10383000809177058823E9F01092770540E052E007
:1038400067E773E08FE09BE00E94810280917E0732
:1038500090917F07A0918007B09181079E5FAF4F45
:10386000BF4F80937E0790937F07A0938007B0930C
:1038700081070E94B10AC9CDCE01C796F1D924CDE6
:103880008091030B9091040B2AD18091090B9091A8
:103890000A0B25C1CF93DF93E9E0FAE0138212828D
:1038A00088EE93E0A0E0B0E084839583A683B7839D
:1038B00026E132E03183208325EC30E03587248710
:1038C00024EC30E03787268720EC30E0318B208BEA
:1038D00021EC30E0338B228B22EC30E0358B248BD3
:1038E00026EC30E0378B268B118E128E138E148EC1
:1038F000E6EAFAE020E520831182E8EAFAE01582A0
:1039000016821186138642E050E060E070E0448742
:1039100055876687778713A215A614A628E232E09A
:1039200033A722A717A6E1EFFAE01382128284835D
:103930009583A683B78324E332E031832083EFE0CD
:10394000FBE01382128284839583A683B78386E487
:1039500092E091838083128E118E14866BE573E062
:1039600089E09BE08ED96AE673E083E09BE089D929
:10397000EDEDF2E0E491F0E0EE0FFF1FE454FD4FB7
:1039800085919491CDEFDAE099838883EDE7F2E0B9
:10399000E491EA8387E00E946B12E881F9819081CB
:1039A0008A81892B808385E08C8380E68D83DF91FB
:1039B000CF910895CF93DF938230910510F482E088
:1039C00090E0E0912C0BF0912D0B20E030E0C0E076
:1039D000D0E0309711F14081518148175907C0F06C
:1039E0004817590761F482819381209719F09B83CE
:1039F0008A832BC090932D0B80932C0B26C021150E
:103A0000310519F04217530718F49A01BE01DF017E
:103A1000EF010280F381E02DDCCF2115310509F1A2
:103A2000281B390B2430310590F412968D919C910E
:103A300013976115710521F0FB019383828304C004
:103A400090932D0B80932C0BFD01329644C0FD0109
:103A5000E20FF31F81939193225031092D933C93F0
:103A60003AC020912A0B30912B0B232B41F420914B
:103A7000090230910A0230932B0B20932A0B2091DC
:103A80000702309108022115310541F42DB73EB7E8
:103A900040910B0250910C02241B350BE0912A0B34
:103AA000F0912B0BE217F307A0F42E1B3F0B281706
:103AB000390778F0AC014E5F5F4F2417350748F0A7
:103AC0004E0F5F1F50932B0B40932A0B81939193C2
:103AD00002C0E0E0F0E0CF01DF91CF9108950F93B5
:103AE0001F93CF93DF93009709F48CC0FC013297AA
:103AF0001382128200912C0B10912D0B01151105D0
:103B000081F420813181820F931F20912A0B309103
:103B10002B0B2817390779F5F0932B0BE0932A0B21
:103B200071C0D80140E050E0AE17BF0750F41296C4
:103B30002D913C911397AD012115310509F1D90162
:103B4000F3CF9D01DA013383228360817181860F77
:103B5000971F8217930769F4EC0128813981260F9A
:103B6000371F2E5F3F4F318320838A819B81938350
:103B70008283452B29F4F0932D0BE0932C0B42C04C
:103B80001396FC93EE931297ED01499159919E0182
:103B9000240F351FE217F30771F480819181840FA0
:103BA000951F029611969C938E9382819381139612
:103BB0009C938E931297E0E0F0E0D80112968D91DD
:103BC0009C911397009719F0F8018C01F6CF8D9115
:103BD0009C9198012E5F3F4F820F931F20912A0BDB
:103BE00030912B0B2817390769F4309729F410927C
:103BF0002D0B10922C0B02C01382128210932B0BF0
:103C000000932A0BDF91CF911F910F9108951F937D
:103C1000FC0199278827BC01E89411911032E9F33F
:103C2000193010F01E30C8F31B3249F01D3241F438
:103C3000689405C01CD0610F711D811D911D1191EB
:103C400010531A30B8F33EF49095809570956195B5
:103C50007F4F8F4F9F4F1F910895BB274A3031F4FC
:103C6000992322F4BDE2909581959F4F16C0592F5C
:103C7000482F372F262F660F771F881F991F660F33
:103C8000771F881F991F620F731F841F951F660F70
:103C9000771F881F991F0895BB27FB015527AA2767
:103CA000880F991FAA1FA41710F0A41B83955051C9
:103CB000B9F7A05DAA3308F0A95DA193009779F741
:103CC000B111B1931192CB0100C0DC01FC01672F4F
:103CD00071917723E1F7329704C07C916D937083E3
:103CE0006291AE17BF07C8F3089509D0A59F900D44
:103CF000B49F900DA49F800D911D11240895A29F43
:103D0000B001B39FC001A39F700D811D1124911DAF
:103D1000B29F700D811D1124911D0895A1E21A2EEC
:103D2000AA1BBB1BFD010DC0AA1FBB1FEE1FFF1F5F
:103D3000A217B307E407F50720F0A21BB30BE40BAF
:103D4000F50B661F771F881F991F1A9469F76095F6
:103D50007095809590959B01AC01BD01CF010895B0
:103D6000EE0FFF1F881F8BBF0790F691E02D19946F
:103D70006F927F928F929F92AF92BF92CF92DF927B
:103D8000EF92FF920F931F93CF93DF93EC01009775
:103D900081F4CB01DF91CF911F910F91FF90EF90B4
:103DA000DF90CF90BF90AF909F908F907F906F905B
:103DB00001CEFC01E60FF71F9C0122503109E217EA
:103DC000F30708F4A8C0D9010D911C9111970617AB
:103DD0001707A8F00530110508F49BC0C801049727
:103DE0008617970708F495C002501109061B170B98
:103DF000019311936D937C93CF0171DE8AC05B01B7
:103E0000A01AB10A4C01800E911EA0912C0BB0910A
:103E10002D0B40E050E0E12CF12C109709F44AC042
:103E2000A815B905D1F56D907C901197630182E0DA
:103E3000C80ED11CCA14DB0480F1A3014A195B0926
:103E40006A0182E0C80ED11C1296BC90129713969C
:103E5000AC91B5E0CB16D10440F0B282A38351837C
:103E60004083D9016D937C930AC00E5F1F4FC3013D
:103E7000800F911FF90191838083EB2DFA2FE114BC
:103E8000F10431F0D7011396FC93EE93129741C0E1
:103E9000F0932D0BE0932C0B3CC08D919C911197CE
:103EA0004817590708F4AC017D0112960D90BC919A
:103EB000A02DB3CF80912A0B90912B0B88159905DB
:103EC000E1F446175707C8F4809107029091080261
:103ED000009741F48DB79EB740910B0250910C02B0
:103EE000841B950BE817F907B0F4F0932B0BE093C4
:103EF0002A0BF901718360830CC0CB015BDD7C016F
:103F0000009749F0A801BE0128D0CE01E8DDC70125
:103F100004C0CE0102C080E090E0DF91CF911F91FC
:103F20000F91FF90EF90DF90CF90BF90AF909F9058
:103F30008F907F906F90089581E090E0F89437C063
:103F4000FB01DC0104C08D910190801921F44150E6
:103F50005040C8F7881B990B0895FB01DC0102C093
:103F600001900D9241505040D8F70895FC01819185
:103F7000861721F08823D9F7992708953197CF0123
:103F80000895FB01DC0101900D920020E1F70895F6
:103F9000FB01DC014150504048F001900D9200209F
:103FA000C9F701C01D9241505040E0F7089511E05B
:103FB000CFE8D1E000E005C0802FFE01D1DE2196E0
:103FC000011DC039D10780E00807B1F7F894FFCF91
:103FD000080201FFFFFFFF00002E0B800000000021
:103FE0000000000000004A0A0516E309900A140ABE
:103FF000F209060A000000005B120516760275023F
:10400000000000006502510276022B0249023A02CA
:104010002C0200000000E301810276027902C20155
:104020003E09470900000000E90A051676027502FC
:10403000E90AE90AE90A00000000E90A0516760221
:104040007502436C6F73696E6720696D61676520E7
:10405000636F756E7465722066696C65002E6A7098
:1040600067002E77617600576176652066696C651A
:10407000206F70656E656400576176652066696CB7
:1040800065206F70656E206661696C6564005365BC
:104090007474696E672075702074696D65722E0086
:1040A00053657474696E67207570204144432E0017
:1040B00053657474696E6720636F6D706C657465A9
:1040C0002E005374617274696E67207265636F723B
:1040D00064696E670052494646005741564500667E
:1040E0006D742000646174610057726974652068A2
:1040F000656164657220636F6D706C657465006DD9
:1041000061783A006D696E3A0041626F76653A00F7
:1041100042656C6F773A00436F6D706C65746564CF
:10412000207265636F7264696E6700494D4743543E
:0C413000522E545854002F000D0A0000BD
:020000023000CC
:10E000000D9489F10D94B2F10D94B2F10D94B2F129
:10E010000D94B2F10D94B2F10D94B2F10D94B2F1F0
:10E020000D94B2F10D94B2F10D94B2F10D94B2F1E0
:10E030000D94B2F10D94B2F10D94B2F10D94B2F1D0
:10E040000D94B2F10D94B2F10D94B2F10D94B2F1C0
:10E050000D94B2F10D94B2F10D94B2F10D94B2F1B0
:10E060000D94B2F10D94B2F10D94B2F10D94B2F1A0
:10E070000D94B2F10D94B2F10D94B2F10D94B2F190
:10E080000D94B2F10D94B2F10D94B2F10D94B2F180
:10E090000D94B2F10D94B2F10D94B2F10D94B2F170
:10E0A0000D94B2F10D94B2F10D94B2F10D94B2F160
:10E0B0000D94B2F10D94B2F10D94B2F10D94B2F150
:10E0C0000D94B2F10D94B2F10D94B2F10D94B2F140
:10E0D0000D94B2F10D94B2F10D94B2F10D94B2F130
:10E0E0000D94B2F141546D656761323536300041AF
:10E0F000726475696E6F206578706C6F72657220DE
:10E1000073746B3530305632206279204D4C530099
:10E11000426F6F746C6F616465723E004875683F52
:10E1200000436F6D70696C6564206F6E203D200048
:10E130004350552054797065202020203D20005FF9
:10E140005F4156525F415243485F5F3D2000415658
:10E1500052204C696243205665723D20004743437C
:10E160002056657273696F6E203D20004350552024
:10E1700049442020202020203D20004C6F7720663D
:10E18000757365202020203D20004869676820665F
:10E190007573652020203D200045787420667573D6
:10E1A00065202020203D20004C6F636B2066757336
:10E1B000652020203D20004D617220203720323024
:10E1C000313300312E362E3800342E332E350056A2
:10E1D00023202020414444522020206F7020636F70
:10E1E00064652020202020696E73747275637469E1
:10E1F0006F6E2061646472202020496E74657272B3
:10E20000757074006E6F20766563746F7200726A49
:10E210006D702020006A6D70200057686174207056
:10E220006F72743A00506F7274206E6F7420737541
:10E2300070706F72746564004D7573742062652030
:10E2400061206C6574746572002000577269747483
:10E25000696E672045450052656164696E672045B7
:10E26000450045452065727220636E743D00504F35
:10E27000525400303D5A65726F2061646472003FF1
:10E280003D43505520737461747300403D454550C3
:10E29000524F4D207465737400423D426C696E6B41
:10E2A000204C454400453D44756D70204545505215
:10E2B0004F4D00463D44756D7020464C415348001B
:10E2C000483D48656C70004C3D4C69737420492F83
:10E2D0004F20506F72747300513D51756974005234
:10E2E0003D44756D702052414D00563D73686F7707
:10E2F00020696E7465727275707420566563746FF0
:10E30000727300593D506F727420626C696E6B00BD
:10E310002A0011241FBECFEFD1E2DEBFCDBF01E046
:10E320000CBF12E0A0E0B2E0EEE1FDEF03E00BBFB6
:10E3300002C007900D92A030B107D9F712E0A0E01B
:10E34000B2E001C01D92AE30B107E1F70F9460F367
:10E350000D948DFE01E20EBF0FEF0DBF11241FBE05
:10E360000D9460F30D9400F020E030E040ED57E0B4
:10E3700005C0FA013197F1F72F5F3F4F2817390792
:10E38000C0F308959C01260F311DC901A0E0B0E043
:10E390002F5F3F4FABBFFC018791882361F08093D3
:10E3A000C6008091C00086FFFCCF8091C0008064D1
:10E3B0008093C000EACF08958DE08093C6008091DD
:10E3C000C00086FFFCCF8091C00080648093C000B5
:10E3D0008AE08093C6008091C00086FFFCCF8091C8
:10E3E000C00080648093C00008950F94C2F10F9420
:10E3F000DCF10895FC019081992359F09093C600B7
:10E400008091C00086FFFCCF8091C0008064809323
:10E41000C0003196992379F70895282F982F929567
:10E420009F70892F805D8A3308F0895F8093C600D2
:10E430008091C00086FFFCCF8091C00080648093F3
:10E44000C000822F8F70982F905D9A3308F0995FEB
:10E450009093C6008091C00086FFFCCF8091C000E1
:10E4600080648093C00008959C01FB01853691056E
:10E470001CF46330710594F0C90164E670E00F94F8
:10E480002EFE605D7F4F6093C6008091C00086FFC6
:10E49000FCCF8091C00080648093C0002B30310598
:10E4A00014F43297B4F0C90164E670E00F942EFEC4
:10E4B0006AE070E00F942EFE605D7F4F6093C600AF
:10E4C0008091C00086FFFCCF8091C0008064809363
:10E4D000C000C9016AE070E00F942EFEC0968093E0
:10E4E000C6008091C00086FFFCCF8091C000806490
:10E4F0008093C00008951F93182F8EE692EE60E07F
:10E500000F94C2F11093C6008091C00086FFFCCF2B
:10E510008091C00080648093C0000F94DCF11F9153
:10E5200008952F923F924F925F926F927F928F92B7
:10E530009F92AF92BF92CF92DF92EF92FF920F9392
:10E540001F93DF93CF93CDB7DEB762970FB6F894E2
:10E55000DEBF0FBECDBF382E622ECA01DB015C01CB
:10E560006D01772420E2222E2E010894411C511CBB
:10E570008BC081E0A81680E0B80681E0C80680E084
:10E58000D80628F0C601AA27BB270F940DF2BB2797
:10E59000AD2D9C2D8B2D0F940DF28A2D0F940DF225
:10E5A0002092C6008091C00086FFFCCF8091C00001
:10E5B00080648093C0009DE29093C6008091C0006B
:10E5C00086FFFCCF8091C00080648093C0002092C1
:10E5D000C6008091C00086FFFCCF8091C00080649F
:10E5E0008093C00019828601750188249924A1E0D6
:10E5F0003A1651F03A1620F0B2E03B1661F409C029
:10E600000BBFF701779007C0C7010F9477FE782EF4
:10E6100002C0F7017080872D0F940DF22092C60082
:10E620008091C00086FFFCCF8091C0008064809301
:10E63000C000872D8052F401EF70F0708F3520F408
:10E64000E40DF51D708204C0E40DF51D8EE280839B
:10E650000894E11CF11C011D111D0894811C911CE2
:10E6600090E18916910409F0C2CF80E190E0A0E02A
:10E67000B0E0A80EB91ECA1EDB1E198AC2010F9493
:10E68000FAF10F94DCF16A94662009F072CF629679
:10E690000FB6F894DEBF0FBECDBFCF91DF911F91B3
:10E6A0000F91FF90EF90DF90CF90BF90AF909F9031
:10E6B0008F907F906F905F904F903F902F90089534
:10E6C0002F923F924F925F926F927F928F929F9282
:10E6D000AF92BF92CF92DF92EF92FF920F931F9370
:10E6E000DF93CF93CDB7DEB7CD53D1400FB6F894BB
:10E6F000DEBF0FBECDBF01E20EBF0FEF0DBF94B75F
:10E70000F894A89514BE80916000886180936000A1
:10E7100010926000789493FF05C0E0910002F091A0
:10E7200001021995279A2F9A8091C00082608093E8
:10E73000C00080E18093C40088E18093C1000000A4
:10E74000EE24FF24870144E0A42EB12CCC24DD2448
:10E7500024C0C5010197F1F70894E11CF11C011DCB
:10E76000111D21E2E2162EE4F20620E0020720E06D
:10E77000120718F031E0C32ED12CC801B70127ECE5
:10E780003BE140E050E00F9441FE611571058105C9
:10E79000910519F485B1805885B98091C00087FD35
:10E7A00003C0C114D104A9F2A6014F5F5F4FC25E3E
:10E7B000DE4F59834883CE51D140C25EDE4F8881FF
:10E7C0009981CE51D140019711F00D9410FEC05D9A
:10E7D000DE4F19821882C053D14060E0C15DDE4F28
:10E7E0001882CF52D14088249924C35DDE4F19820C
:10E7F0001882CD52D140C05EDE4F188219821A8233
:10E800001B82C052D140CE5CDE4F188219821A8220
:10E810001B82C253D140EE24FF2487010BBFF701B6
:10E8200007911691C45CDE4F19830883CC53D14005
:10E830000D940BFEC25EDE4F28813981CE51D1404E
:10E840002130310509F52091C600C25EDE4F1982E4
:10E850001882CE51D14022C02F5F3F4F4F4F5F4FA4
:10E86000213082E138078AE7480780E0580780F0C6
:10E87000C45CDE4FE881F981CC53D140EF5FFF4F9C
:10E8800019F0EE27FF27099420E030E040E050E047
:10E890008091C00087FFE0CF2091C600C35DDE4FAE
:10E8A00048815981CD52D1404F5F5F4FC35DDE4FEC
:10E8B00059834883CD52D140213209F063C64A3092
:10E8C000510508F05FC60894811C911C53E0851621
:10E8D000910409F059C600E010E018C081E280936D
:10E8E000C6008091C00086FFFCCF8091C00080648C
:10E8F0008093C0002F5F3F4F2931310579F70F9486
:10E90000DCF10F5F1F4F0530110519F020E030E0FA
:10E91000E5CF10920A0210920B0210920C02109294
:10E920000D02109206021092070210920802109235
:10E930000902109202021092030210920402109235
:10E9400005028FEE90EE60E00F94F5F180E191EE1C
:10E9500060E00F94C2F18091C00087FFFCCF9091DE
:10E96000C600903608F09F759032B8F09093C600BC
:10E970008091C00086FFFCCF8091C00080648093AE
:10E98000C000A0E2A093C6008091C00086FFFCCF2B
:10E990008091C00080648093C000983409F4D7C18E
:10E9A0009934B8F4923409F459C1933458F490333B
:10E9B00019F1903308F4E3C59F33A1F1903409F0C5
:10E9C000DEC5BDC0953409F470C1963409F0D7C5D1
:10E9D00098C1923509F42BC2933538F49C3409F46C
:10E9E000F5C1913509F0CBC518C2963509F445C279
:10E9F000993509F0C4C567C483E792EE62E00F94CD
:10EA0000F5F110920602109207021092080210927D
:10EA1000090210920A0210920B0210920C0210923C
:10EA20000D0213C18FE792EE62E00F94F5F18FEEC5
:10EA300090EE60E00F94F5F181E291EE60E00F94CA
:10EA4000C2F187EB91EE60E00F94F5F180E391EE77
:10EA500060E00F94C2F184EE90EE60E00F94F5F167
:10EA60008FE391EE60E00F94C2F186E090E061E008
:10EA700070E00F9434F20F94DCF18DE591EE60E0DC
:10EA80000F94C2F189EC91EE60E00F94F5F18EE401
:10EA900091EE60E00F94C2F183EC91EE60E00F9490
:10EAA000F5F18CE691EE60E00F94C2F18EE10F94E7
:10EAB0000DF288E90F940DF281E00F940DF20F949E
:10EAC000DCF18BE791EE60E00F94C2F119E0E0E039
:10EAD000F0E010935700E4918E2F0F940DF20F94F5
:10EAE000DCF18AE891EE60E00F94C2F1E3E0F0E03F
:10EAF00010935700E4918E2F0F940DF20F94DCF1D8
:10EB000089E991EE60E00F94C2F1E2E0F0E0109349
:10EB10005700E4918E2F0F940DF20F94DCF188EAE8
:10EB200091EE60E00F94C2F1E1E0F0E01093570045
:10EB30001491812F0F940DF20F94DCF107CF8BE825
:10EB400092EE62E00F94F5F18BE492EE60E00F94A8
:10EB5000F5F10F94DCF100E010E019C0C8016F2D51
:10EB60000F947FFEFF2031F489E492EE60E00F9471
:10EB7000C2F10BC0F092C6008091C00086FFFCCFAE
:10EB80008091C00080648093C0000F5F1F4FC80158
:10EB900081519F41A0E0B0E0ABBFFC01F790BAE229
:10EBA000FB1621F0E2E000301E07C1F60F94DCF105
:10EBB0000F94DCF187E592EE60E00F94F5F10F948D
:10EBC000DCF1CC24DD2400E010E01EC0C8010F946D
:10EBD00077FEF82E882331F489E492EE60E00F94FA
:10EBE000C2F10BC08093C6008091C00086FFFCCFAD
:10EBF0008091C00080648093C000FE1419F00894D6
:10EC0000C11CD11C0F5F1F4FC80181519F41A0E063
:10EC1000B0E0ABBFFC01E790FAE2EF1621F022E092
:10EC20000030120799F60F94DCF10F94DCF182E6C4
:10EC300092EE60E00F94C2F1C60161E070E00F94C3
:10EC400034F20F94DCF10F94DCF110920202109276
:10EC50000302109204021092050278CE89E992EE26
:10EC600062E00F94F5F1279A2F9A16C02F9880E052
:10EC700090E0E0EDF7E03197F1F7019684369105E9
:10EC8000C1F72F9A80E090E0E0EDF7E03197F1F7DF
:10EC9000019684369105C1F78091C00087FFE6CFC9
:10ECA0008091C00087FFFCCF64C485EA92EE62E0E9
:10ECB0000F94F5F140910202509103026091040219
:10ECC0007091050281E020E10F9491F2809102029F
:10ECD00090910302A0910402B091050280509F4FD1
:10ECE000AF4FBF4F8093020290930302A0930402A0
:10ECF000B093050280509041A040B04008F426CE69
:10ED0000A4CF83EB92EE62E00F94F5F140910602FE
:10ED100050910702609108027091090280E020E1A1
:10ED20000F9491F28091060290910702A09108023F
:10ED3000B091090280509F4FAF4FBF4F80930602A2
:10ED400090930702A0930802B0930902FFCD80ECD4
:10ED500092EE62E00F94F5F183E792EE60E00F949B
:10ED6000F5F18FE792EE60E00F94F5F18BE892EE0B
:10ED700060E00F94F5F189E992EE60E00F94F5F10F
:10ED800085EA92EE60E00F94F5F183EB92EE60E09D
:10ED90000F94F5F180EC92EE60E00F94F5F187ECC2
:10EDA00092EE60E00F94F5F188ED92EE60E00F9442
:10EDB000F5F18FED92EE60E00F94F5F18AEE92EEB0
:10EDC00060E00F94F5F183E093EEBDCD87EC92EE19
:10EDD00062E00F94F5F181E40F947BF282E40F94EA
:10EDE0007BF283E40F947BF284E40F947BF285E45E
:10EDF0000F947BF286E40F947BF287E40F947BF20E
:10EE000088E40F947BF28AE40F947BF28BE40F94F6
:10EE10007BF28CE40F947BF299CD88ED92EE62E068
:10EE20000F94F5F1772473948824992409C48FED05
:10EE300092EE62E00F94F5F140910A0250910B02BC
:10EE400060910C0270910D0282E020E10F9491F22A
:10EE500080910A0290910B02A0910C02B0910D02D8
:10EE600080509F4FAF4FBF4F80930A0290930B0289
:10EE7000A0930C02B0930D0269CD8AEE92EE62E08F
:10EE80000F94F5F184EE90EE60E00F94F5F18FECC5
:10EE900091EE60E00F94F5F1662477244301CC5D98
:10EEA000DE4F19821882C452D140D401C301B695F5
:10EEB000A79597958795CA5DDE4F88839983AA8326
:10EEC000BB83C652D140CC5DDE4FA881B981C4520C
:10EED000D1401196CC5DDE4FB983A883C452D14096
:10EEE000CD0162E070E00F9434F2B0E2B093C6005E
:10EEF0008091C00086FFFCCF8091C0008064809329
:10EF0000C000EDE2E093C6008091C00086FFFCCF18
:10EF10008091C00080648093C000F0E2F093C6004E
:10EF20008091C00086FFFCCF8091C00080648093F8
:10EF3000C000CA5DDE4FE880F9800A811B81C6529D
:10EF4000D140BB27A12F902F8F2D0F940DF2CA5DBA
:10EF5000DE4F8881C652D1400F940DF2B0E2FB2EF5
:10EF6000F092C6008091C00086FFFCCF8091C00067
:10EF700080648093C0000DE30093C6008091C000C0
:10EF800086FFFCCF8091C00080648093C00010E2B7
:10EF90001093C6008091C00086FFFCCF8091C00016
:10EFA00080648093C0008BBEF3012791C65DDE4F65
:10EFB0002883CA52D140A22EBB24CC24DD2408943D
:10EFC000611C711C811C911C8BBEF3018791282E42
:10EFD0003324442455240894611C711C811C911C09
:10EFE0008BBEF3013791C55DDE4F3883CB52D140E4
:10EFF0000894611C711C811C911C8BBEF30147910C
:10F00000C45DDE4F4883CC52D140ADEFEA2EAFEF66
:10F01000FA2EAFEF0A2FAFEF1A2F6E0C7F1C801E57
:10F02000911E142D032DF22CEE24EA0CFB1C0C1D5A
:10F030001D1D0F940DF220E22093C6008091C000A8
:10F0400086FFFCCF8091C00080648093C000C65DC5
:10F05000DE4F8881CA52D1400F940DF230E23093D6
:10F06000C6008091C00086FFFCCF8091C000806404
:10F070008093C000C45DDE4F8881CC52D1400F9494
:10F080000DF240E24093C6008091C00086FFFCCFA5
:10F090008091C00080648093C000C55DDE4F888190
:10F0A000CB52D1400F940DF250E25093C6008091A4
:10F0B000C00086FFFCCF8091C00080648093C000B8
:10F0C0008FEFE8168FEFF80680E0080780E018075A
:10F0D00031F484E092EE60E00F94C2F1DFC0D80119
:10F0E000C7018070907CA070B0708050904CA040A0
:10F0F000B040D1F52FEF3FE340E050E0E222F322B1
:10F1000004231523CA5DDE4FA880B980CA80DB8046
:10F11000C652D140AE0CBF1CC01ED11EAA0CBB1CD7
:10F12000CC1CDD1C8EE092EE60E00F94C2F1BB2798
:10F13000A12F902F8F2D0F940DF28E2D0F940DF285
:10F1400030E23093C6008091C00086FFFCCF8091F2
:10F15000C00080648093C0004EE34093C60080915D
:10F16000C00086FFFCCF87C08EE09EEFA0E0B0E03D
:10F17000E822F9220A231B239CE0E91694E9F90608
:10F1800090E0090790E0190709F088C0C45DDE4FE0
:10F19000A881CC52D140EA2EFF2400E010E0102FCD
:10F1A0000F2DFE2CEE24C55DDE4FB881CB52D14031
:10F1B000EB0EF11C011D111DD601C501817090706F
:10F1C000A070B070DC0199278827E80EF91E0A1F8D
:10F1D0001B1F20EF30E040E050E0A222B322C42207
:10F1E000D52241E1AA0CBB1CCC1CDD1C4A95D1F7F1
:10F1F000EA0CFB1C0C1D1D1D81E090E0A0E0B0E0BE
:10F20000282239224A225B2235E1220C331C441C7D
:10F21000551C3A95D1F7E20CF31C041D151D57013E
:10F220006801AA0CBB1CCC1CDD1C85E192EE60E0E1
:10F230000F94C2F1C801AA27BB270F940DF2BB2778
:10F24000A12F902F8F2D0F940DF28E2D0F940DF274
:10F2500090E29093C6008091C00086FFFCCF809121
:10F26000C00080648093C000AEE3A093C60080918C
:10F27000C00086FFFCCF8091C00080648093C000F6
:10F28000C601AA27BB270F940DF2BB27AD2D9C2DDD
:10F290008B2D0F940DF28A2D0F940DF20F94DCF14B
:10F2A000CC5DDE4FE881F981C452D140F99709F471
:10F2B0004DCBF4E0EF2EF12C012D112D6E0C7F1CA7
:10F2C000801E911EF2CD83E093EE62E00F94F5F183
:10F2D0008AE192EE60E00F94C2F18091C00087FF56
:10F2E000FCCF1091C6001F751093C6008091C0001E
:10F2F00086FFFCCF8091C00080648093C0000F9493
:10F30000DCF1812F81548A3108F036C1163409F4BA
:10F3100095C0173490F4133409F44EC0143430F40B
:10F320001134F1F0123409F01DC130C0143409F465
:10F3300059C0153409F016C16BC01A3409F4C4C0A1
:10F340001B3438F4173409F48FC0183409F00AC19B
:10F35000A1C01B3409F4D2C01C3409F003C1E8C0B9
:10F360008FEF81B90DC082B1809582B980E090E0C5
:10F37000E0EDF7E03197F1F70196883C9105C1F790
:10F380008091C00087FFEFCF12B8EFC08FEF84B934
:10F390000DC085B1809585B980E090E0E0EDF7E0A3
:10F3A0003197F1F70196883C9105C1F78091C00033
:10F3B00087FFEFCF15B8D9C08FEF87B90DC088B1DF
:10F3C000809588B980E090E0E0EDF7E03197F1F7C3
:10F3D0000196883C9105C1F78091C00087FFEFCF6F
:10F3E00018B8C3C08FEF8AB90DC08BB180958BB9A7
:10F3F00080E090E0E0EDF7E03197F1F70196883C8E
:10F400009105C1F78091C00087FFEFCF1BB8ADC059
:10F410008FEF8DB90DC08EB180958EB980E090E0F0
:10F42000E0EDF7E03197F1F70196883C9105C1F7DF
:10F430008091C00087FFEFCF1EB897C08FEF80BBD1
:10F440000DC081B3809581BB80E090E0E0EDF7E0F6
:10F450003197F1F70196883C9105C1F78091C00082
:10F4600087FFEFCF11BA81C08FEF83BB0DC084B38C
:10F47000809584BB80E090E0E0EDF7E03197F1F714
:10F480000196883C9105C1F78091C00087FFEFCFBE
:10F4900014BA6BC08FEF809301010FC080910201FD
:10F4A00080958093020180E090E0E0EDF7E03197F5
:10F4B000F1F70196883C9105C1F78091C00087FF64
:10F4C000EDCF1092020151C08FEF809304010FC065
:10F4D0008091050180958093050180E090E0E0ED4A
:10F4E000F7E03197F1F70196883C9105C1F78091DB
:10F4F000C00087FFEDCF1092050137C08FEF8093DA
:10F5000007010FC08091080180958093080180E079
:10F5100090E0E0EDF7E03197F1F70196883C910536
:10F52000C1F78091C00087FFEDCF109208011DC088
:10F530008FEF80930A010FC080910B01809580931B
:10F540000B0180E090E0E0EDF7E03197F1F70196F4
:10F55000883C9105C1F78091C00087FFEDCF1092E4
:10F560000B0103C085E292EEEEC98091C00087FFD7
:10F57000FCCF8091C600EAC988E392EEE4C98CE131
:10F5800091EEE1C988249924933011F1943028F444
:10F59000913089F09230B8F408C0953061F195301F
:10F5A000F0F0963009F048C043C02B3109F042C951
:10F5B00091E06BE13FC96227C15DDE4F2883CF52E6
:10F5C000D14092E037C9B22FA0E0622793E032C960
:10F5D000822F90E0A82BB92B622794E02BC92E3004
:10F5E00009F039C3622795E0C05DDE4F19821882A9
:10F5F000C053D1401FC9E1E0F0E0EC0FFD1FC05D3A
:10F60000DE4F08811981C053D140E00FF11F2083E4
:10F610000F5F1F4FC05DDE4F19830883C053D14079
:10F6200062270A171B0709F005C9D80196E002C92D
:10F63000261709F010C303C0973009F0FBC87724E0
:10F640009981933109F412C19431C8F4963009F4C8
:10F65000D8C0973050F4923009F406C1933009F4C1
:10F660006DC0913009F059C253C0913109F477C08F
:10F67000923108F0BBC0903109F04FC2F5C098310B
:10F6800009F487C0993150F4953109F4EFC09531F0
:10F6900008F4C6C1963109F040C2C2C19A3109F4DA
:10F6A0006CC09A3108F491C09B3109F45BC09D3164
:10F6B00009F033C29D81903359F48F81882311F46E
:10F6C0009EE11CC0813011F091E018C098E916C08D
:10F6D000892F807591F0903539F4E0E0F0E089E011
:10F6E0008093570094910AC0983539F4E3E0F0E034
:10F6F00089E080935700949101C090E01A821B82A8
:10F700008D818C831D829E831F8227E030E009C299
:10F710001A8288E08B8381E48C8386E58D8382E581
:10F720008E8389E48F8383E5888780E589878FE5E9
:10F730008A8782E38B872BE030E0F3C18A818139AD
:10F7400041F0823941F0803911F48FE005C080E04A
:10F7500003C082E001C08AE01A828B8344C0772410
:10F76000739482C08D81882311F48EE12CC0813086
:10F7700011F081E028C088E926C01A82E1E0F0E0BB
:10F7800089E08093570084918B831C8224E030E0D1
:10F79000C8C18B81803589F48C81883039F4E2E0EE
:10F7A000F0E089E08093570084910DC0E0E0F0E044
:10F7B00089E080935700849106C0E3E0F0E089E09F
:10F7C0008093570084911A82DFCF8D81836C99E0FA
:10F7D000E1E0F0E0082E90935700E89507B600FCB2
:10F7E000FDCF1A821B8223E030E09BC180EC8A832C
:10F7F000CE5CDE4F188219821A821B82C253D1401E
:10F800008EC18A8190E0A0E0B0E0582F44273327D2
:10F8100022278B8190E0A0E0B0E0DC0199278827C7
:10F82000282B392B4A2B5B2B8D8190E0A0E0B0E098
:10F83000282B392B4A2B5B2B8C8190E0A0E0B0E089
:10F84000BA2FA92F982F8827282B392B4A2B5B2BCF
:10F85000220F331F441F551FC05EDE4F288339839C
:10F860004A835B83C052D1401A8259C13A81C95C34
:10F87000DE4F3883C753D140CA5CDE4F1882C6536F
:10F88000D1408B81C82EDD24CA5CDE4F488159816E
:10F89000C653D140C42AD52A933109F082C0CE5C28
:10F8A000DE4F88819981AA81BB81C253D1408050AB
:10F8B000904CA340B04030F583E0CE5CDE4FE88052
:10F8C000F9800A811B81C253D140F70100935B008C
:10F8D00080935700E89507B600FCFDCFCE5CDE4F65
:10F8E000088119812A813B81C253D14000501F4FAA
:10F8F0002F4F3F4FCE5CDE4F088319832A833B8313
:10F90000C253D140C05EDE4F488159816A817B81FC
:10F91000C052D140DE011B9631E08C9111962C91A2
:10F9200011971296C75CDE4F2883C953D140C85C3B
:10F93000DE4F1882C853D14090E0C85CDE4FE881AA
:10F94000F981C853D1408E2B9F2B0C01FA01609393
:10F950005B0030935700E89511244E5F5F4F6F4F67
:10F960007F4F0EEFE02E0FEFF02ECE0CDF1CC114F8
:10F97000D10499F685E0C05EDE4F088119812A81A5
:10F980003B81C052D140F80120935B008093570027
:10F99000E89507B600FCFDCF81E180935700E8951C
