:1000000016C5000045C5000043C5000041C50000FD
:100010003FC500003DC500003BC5000039C50000DC
:1000200037C500000C9428090C9428090C94280961
:100030002FC500002DC500002BC5000029C50000FC
:1000400027C5000025C5000023C5000021C500000C
:100050001FC500001DC500001BC500000C94B7089B
:1000600017C500009AC700006FC7000011C5000047
:100070000FC500000DC500000BC5000009C500003C
:1000800007C5000005C5000003C5000001C500004C
:10009000FFC40000FDC40000FBC400000C94620912
:1000A000F7C40000F5C40000F3C40000F1C4000070
:1000B000EFC40000EDC40000EBC40000E9C4000080
:1000C000E7C40000E5C40000E3C40000E1C4000090
:1000D000DFC40000DDC400000EC70000E3C600005E
:1000E000D7C400002508280817081B081F085F0848
:1000F0002C08300836083A083E08440848084C08DE
:100100005F08520856085A084E414E494E49545904
:10011000494E46CDCCCC3D0AD7233C17B7D13877D2
:10012000CC2B329595E6241FB14F0A0000204100E8
:1001300000C84200401C4620BCBE4CCA1B0E5AAE32
:10014000C59D7400000A0B02090C0D0E080703047C
:10015000010000000000000000000000000000009E
:10016000000000000000000000000000000000127D
:10017000111000000000000000000000000000005E
:10018000000000000000000000FF0001001200401D
:10019000001700110018004300190000001A004B5E
:1001A00000320009004F00CA005000A8005A002386
:1001B000006D000000390012003500DA0022001A3C
:1001C000003700C300230000003400C00036001ACE
:1001D00000060088000700C0000D0087000E0041E7
:1001E000004C000000FF000000E0000400C00064BC
:1001F00000C1004B0086003500500089005100C846
:10020000005200960053000000540000005500000A
:1002100000570000005A0050005B003C005C0000EA
:1002200000E0000000FF00FF00E0001400E10077A4
:1002300000E5001F00D7000300DA001000E0000016
:1002400000FF00010004000800FF00FF00FF0000A5
:100250000005000000DA001000D7000300DF0000F6
:1002600000330080003C004000E100770000000007
:1002700000FF00FF00FF0000002C00FF002E00DF49
:1002800000FF0001003C00320011000000090002E4
:1002900000040028001300E500140048002C000CA6
:1002A00000330078003A0033003B00FB003E0000C2
:1002B000004300110016001000390092003500DAEA
:1002C0000022001A003700C300230000003400C0E1
:1002D0000036001A00060088000700C0000D0087E5
:1002E000000E0041004C000000480000005B0000D0
:1002F00000420003004A00810021009900240040D0
:100300000025003800260082005C00000063000029
:100310000061007000620080007C00050020008009
:1003200000280030006C0000006D0080006E0000AE
:100330000070000200710094007300C100120040C0
:10034000001700110018004300190000001A004BAC
:1003500000320009003700C0004F0060005000A8C4
:10036000006D0000003D00380046003F004F006077
:10037000000C003C00FF000000E5007F00F900C019
:100380000041002400E00014007600FF003300A0CC
:100390000042002000430018004C0000008700D5F8
:1003A0000088003F00D7000300D9001000D300826E
:1003B00000C8000800C90080007C0000007D00002B
:1003C000007C0003007D0048007D0048007C0008A0
:1003D000007D0020007D0010007D000E00900000D8
:1003E0000091000E0091001A009100310091005A16
:1003F00000910069009100750091007E00910088D5
:100400000091008F00910096009100A3009100AF31
:10041000009100C4009100D7009100E800910020F5
:100420000092000000930006009300E30093000593
:100430000093000500930000009300040093000067
:100440000093000000930000009300000093000060
:100450000093000000930000009600000097000841
:1004600000970019009700020097000C00970024E5
:1004700000970030009700280097002600970002A0
:1004800000970098009700800097000000970000F8
:1004900000C300ED00A4000000A8000000C500118A
:1004A00000C6005100BF008000C7001000B6006603
:1004B00000B800A500B7006400B9007C00B300AF2D
:1004C00000B4009700B500FF00B000C500B1009473
:1004D00000B2000F00C4005C00C0006400C1004B0B
:1004E000008C00000086003D00500000005100C854
:1004F0000052009600530000005400000055000018
:10050000005A00C8005B0096005C000000D30000A9
:1005100000C300ED007F000000DA000000E5001FCE
:1005200000E1006700E0000000DD007F0005000042
:100530000012004000D3000400C0001600C10012E9
:10054000008C00000086003D005000000051002C8F
:100550000052002400530000005400000055000029
:10056000005A002C005B0024005C000000FF00FF2C
:1005700000FF0000002C00FF002E00DF00FF000144
:10058000003C00320011000000090002000400A835
:10059000001300E500140048002C000C0033007824
:1005A000003A0033003B00FB003E00000043001116
:1005B0000016001000390002003500880022000AF1
:1005C0000037004000230000003400A000060002B5
:1005D00000060088000700C0000D00B7000E0001F3
:1005E000004C0000004A00810021009900240040D6
:1005F0000025003800260082005C00000063000037
:1006000000460022000C003A005D0055005E007DAF
:10061000005F007D00600055006100700062008096
:10062000007C00050020008000280030006C0000E5
:10063000006D0080006E00000070000200710094E8
:10064000007300C1003D003400120004005A00573E
:10065000004F00BB0050009C00FF000000E5007F41
:1006600000F900C00041002400E00014007600FF03
:10067000003300A00042002000430018004C00009E
:10068000008700D00088003F00D7000300D9001089
:1006900000D3008200C8000800C90080007C000070
:1006A000007D0000007C0003007D0048007D0048C4
:1006B000007C0008007D0020007D0010007D000E01
:1006C000009000000091000E0091001A009100318E
:1006D0000091005A00910069009100750091007E20
:1006E000009100880091008F00910096009100A376
:1006F000009100AF009100C4009100D7009100E884
:10070000009100200092000000930006009300E397
:100710000093000300930003009300000093000285
:10072000009300000093000000930000009300007D
:10073000009300000093000000930000009600006A
:100740000097000800970019009700020097000C1E
:10075000009700240097003000970028009700269B
:100760000097000200970098009700800097000013
:100770000097000000A4000000A8000000C50011C0
:1007800000C6005100BF008000C7001000B6006620
:1007900000B800A500B7006400B9007C00B300AF4A
:1007A00000B4009700B500FF00B000C500B1009490
:1007B00000B2000F00C4005C00A6000000A70020EB
:1007C00000A700D800A7001B00A7003100A7000069
:1007D00000A7001800A7002000A700D800A7001954
:1007E00000A7003100A7000000A7001800A7002004
:1007F00000A700D800A7001900A7003100A700003B
:1008000000A70018007F000000E5001F00E100774E
:1008100000DD007F00C2000E00FF000000E00004C9
:1008200000C000C800C100960086003D0051009045
:100830000052002C005300000054000000550088B6
:100840000057000000500092005A0050005B003C2E
:10085000005C000000D3000400E0000000FF000086
:100860000005000000DA000800D7000300E00000E7
:100870000005000000FF00FF0041434B20434D44B2
:10088000204F563236343020646574656374656475
:100890002E0041434B20434D442043616E2774207A
:1008A00066696E64204F5632363430206D6F647541
:1008B0006C65210041434B20434D44205350492057
:1008C000696E74657266616365204F4B2E0041430B
:1008D0004B20434D442053504920696E7465726625
:1008E000616365204572726F722100534420496E26
:1008F000697469616C697A6174696F6E20636F6D88
:10090000706C65746500534420496E697469616C4C
:10091000697A6174696F6E206661696C656400490B
:100920006E697469616C697A696E672053442063EB
:100930006172640041434B20434D44204172647511
:1009400043414D2053746172742100537461727479
:100950002053657269616C20617420393231363000
:100960003000537563636573730000002100240039
:1009700027002A002D00300033000101000004018F
:1009800007010A0101021020200808102040102051
:100990004080020102010804020101020408102043
:1009A0004080804020100804020180040201804041
:1009B00020100804020108040201010204081020AA
:1009C0004080010204081020408000002200250021
:1009D00028002B002E003100340002010000050128
:1009E00008010B01050505050705080808080202AE
:1009F00002020A0A080804040404010101010101B9
:100A000001010303030303030303040707070C0C9B
:100A10000C0C0C0C0C0C0202020206060606060662
:100A200006060B0B0B0B0B0B0B0BEA1A6D151124A7
:100A30001FBECFEFD1E2DEBFCDBF00E00CBF12E0A2
:100A4000A0E0B2E0E0E6F3E400E00BBF02C00790F4
:100A50000D92A03DB107D9F728E0A0EDB2E001C0AA
:100A60001D92A039B207E1F715E0C6E1D5E000E03C
:100A700006C021970109802FFE010E949F20C531E9
:100A8000D10780E00807A9F70E9477150C949F21F1
:100A9000B7CAFC01A089B1898C91A689B78982FD6A
:100AA0000FC09C91818D8F5F8F73228D821749F0CB
:100AB000218DDF01A20FB11D5D969C93818F08955A
:100AC0008C910895FC01538D448D252F30E0842FA7
:100AD00090E0821B930B541710F0CF960895019766
:100AE0000895FC01918D828D981761F0828DDF0150
:100AF000A80FB11D5D968C91928D9F5F9F73928F11
:100B000090E008958FEF9FEF0895FC01918D828D05
:100B1000981731F0828DE80FF11D858D90E00895D2
:100B20008FEF9FEF0895FC01918D228D892F90E02A
:100B3000805C9F4F821B91098F739927089586EEE1
:100B400096E0F1DF21E0892B09F420E0822F08955F
:100B500083E897E0E8DF21E0892B09F420E0822F89
:100B60000895FC01848DDF01A80FB11DA35ABF4F6A
:100B70002C91848D90E001968F739927848FA6899C
:100B8000B7892C93A089B1898C9180648C93938DC3
:100B9000848D981306C00288F389E02D80818F7DB3
:100BA00080830895EF92FF920F931F93CF93DF936B
:100BB000EC0181E0888F9B8D8C8D981305C0E889AE
:100BC000F989808185FD23C0F62E0B8D10E00F5F23
:100BD0001F4F0F731127E02E8C8DE8120BC00FB63C
:100BE00007FCFACFE889F989808185FFF5CFCE012E
:100BF000B8DFF2CF8B8DFE01E80FF11DE35AFF4FF6
:100C0000F0820B8FEA89FB898081806207C0EE89C0
:100C1000FF896083E889F98980818064808381E02D
:100C200090E0DF91CF911F910F91FF90EF90089589
:100C3000CF93DF93EC01888D8823C1F0EA89FB898B
:100C4000808185FD05C0A889B9898C9186FD0EC07B
:100C50000FB607FCF5CF808185FFF2CFA889B9894F
:100C60008C9185FFEDCFCE017CDFE8CFDF91CF9176
:100C7000089580E090E0892B19F06ADF811120C08F
:100C800080E090E0892B41F080E090E0892B21F01A
:100C90000E940000811117C080E090E0892B41F094
:100CA00080E090E0892B21F00E94000081110EC0AD
:100CB00080E090E0892B79F042DF81110AC008952D
:100CC0000E940000DDCF0E940000E6CF0E940000DD
:100CD000EFCF0C94000008953FB7F894809126035D
:100CE00090912703A0912803B091290326B5A89BD2
:100CF00005C02F3F19F00196A11DB11D3FBFBA2FAE
:100D0000A92F982F8827820F911DA11DB11DBC010D
:100D1000CD0142E0660F771F881F991F4A95D1F7D2
:100D2000089585ED8093BC008091BC0084FDFCCFCC
:100D30001092C20608954091F202262F30E0240F4F
:100D4000311D21323105DCF42091C2062430C9F472
:100D5000FC0180E090E0861758F43091F202219176
:100D6000DC01A053BD4FA30FB11D2C930196F3CF0F
:100D70008091F202680F6093F20280E0089581E0B2
:100D8000089582E008950895E0917B0680917A06A7
:100D9000E81730F4F0E0E458F94F808190E00895CE
:100DA0008FEF9FEF089590917B0680917A069817B8
:100DB00050F4E92FF0E0E458F94F208130E09F5FD4
:100DC00090937B0602C02FEF3FEFC90108958091F9
:100DD0007A0690E020917B06821B91090895CF92BC
:100DE000DF92EF92FF920F931F93CF93DF937C01DB
:100DF000262F972F8A018091C306882391F0C62F52
:100E0000D72F6E01C40ED51ECC15DD0569F0699192
:100E1000D701ED91FC910190F081E02DC70119956A
:100E2000F3CF642F822F87DFC801DF91CF911F910D
:100E30000F91FF90EF90DF90CF900895CF93DF93C5
:100E40001F92CDB7DEB769832091C3062223D1F06C
:100E50002091E506203240F021E030E0FC013383B0
:100E6000228380E090E014C08091C406E82FF0E077
:100E7000EB53F94F998190838F5F8093C4068093E1
:100E8000E50604C061E0CE01019655DF81E090E007
:100E90000F90DF91CF910895089580E090E008953C
:100EA0000E948B211F920F920FB60F9211240BB646
:100EB0000F922F933F934F935F936F937F938F93F3
:100EC0009F93AF93BF93EF93FF9386EE96E049DE37
:100ED000FF91EF91BF91AF919F918F917F916F9112
:100EE0005F914F913F912F910F900BBE0F900FBECE
:100EF0000F901F9018951F920F920FB60F9211240A
:100F00000BB60F922F933F934F935F936F937F9303
:100F10008F939F93AF93BF93EF93FF9386EE96E0EB
:100F2000B8DDFF91EF91BF91AF919F918F917F912C
:100F30006F915F914F913F912F910F900BBE0F904A
:100F40000FBE0F901F9018951F920F920FB60F9221
:100F500011240BB60F922F933F934F935F936F9390
:100F60007F938F939F93AF93BF93EF93FF9383E808
:100F700097E0F7DDFF91EF91BF91AF919F918F9136
:100F80007F916F915F914F913F912F910F900BBE89
:100F90000F900FBE0F901F9018951F920F920FB6D3
:100FA0000F9211240BB60F922F933F934F935F93A1
:100FB0006F937F938F939F93AF93BF93EF93FF9321
:100FC00083E897E066DDFF91EF91BF91AF919F912C
:100FD0008F917F916F915F914F913F912F910F90E2
:100FE0000BBE0F900FBE0F901F901895362F90E0FC
:100FF000FC01ED5BFE4F4491FC01EC57F64F249150
:10100000FC01EC51F64F9491992309F46BC04423F1
:1010100009F455C050E0FA013197E231F10508F0CA
:101020004EC08827EE58FF4F8F4F0C949F20809121
:1010300080008F7707C0809180008F7D03C08091F2
:101040008000877F809380003AC084B58F7702C08C
:1010500084B58F7D84BD33C08091B0008F7703C08D
:101060008091B0008F7D8093B00029C08091900066
:101070008F7707C0809190008F7D03C08091900092
:10108000877F809390001BC08091A0008F7707C05E
:101090008091A0008F7D03C08091A000877F809306
:1010A000A0000DC0809120018F7707C080912001A2
:1010B0008F7D03C080912001877F80932001E92FDD
:1010C000F0E0EE0FFF1FE653F64FA591B4918FB7F6
:1010D000F894EC91311103C020952E2301C02E2BE2
:1010E0002C938FBF08958F929F92AF92BF92CF9211
:1010F000DF92EF92FF926B017C01EEDD4B015C0110
:10110000C114D104E104F104E9F0E6DDDC01CB0116
:1011100088199909AA09BB09883E9340A105B10520
:1011200078F321E0C21AD108E108F10888EE880EB0
:1011300083E0981EA11CB11CC114D104E104F10488
:1011400021F7DECFFF90EF90DF90CF90BF90AF9070
:101150009F908F9008952FB7F8946091220370911B
:10116000230380912403909125032FBF08951F929C
:101170000F920FB60F9211242F933F938F939F934B
:10118000AF93BF938091220390912303A0912403F6
:10119000B09125033091210323E0230F2D3720F454
:1011A0000196A11DB11D05C026E8230F0296A11DC1
:1011B000B11D209321038093220390932303A093D6
:1011C0002403B09325038091260390912703A091D7
:1011D0002803B09129030196A11DB11D8093260318
:1011E00090932703A0932803B0932903BF91AF9155
:1011F0009F918F913F912F910F900FBE0F901F9055
:1012000018958FB7F89480911B038FBF089561E004
:10121000FC018481EBDE80911A03811110921A0384
:1012200008958CBD9DBD0895CF93DF93EC0180910F
:101230001A03811108C081E080931A03809120086D
:1012400090912108EEDF60E08C81DF91CF91CECECE
:101250001F920F920FB60F9211240F900FBE0F9096
:101260001F901895CF93CFB7F894809117038111F1
:1012700021C0E9E1FAE08491E9EBF9E09491E82FEB
:10128000F0E0EE0FFF1FE659F64FA591B491EC91F7
:10129000E92319F461E085E3A9DE85E30E9450119A
:1012A0008CB580618CBD8CB580648CBD84E3F8D72F
:1012B00083E3F6D7809117038F5F80931703CFBF27
:1012C000CF9108951F920F920FB60F9211240BB673
:1012D0000F922F933F934F935F936F937F938F93CF
:1012E0009F93AF93BF93EF93FF938091B900887F53
:1012F000803609F49CC068F5883209F45BC090F42C
:10130000803109F454C038F4882309F4F6C08830D9
:1013100009F44DC0F5C0883109F44CC0803209F49D
:101320005DC0EEC0803409F468C048F4803309F42D
:1013300055C0883309F0E4C08093C006D8C080351A
:1013400009F44FC0883509F45DC0883409F0D8C06D
:10135000D6C0883909F4C7C0A8F4883709F467C033
:1013600038F4883609F463C0803709F460C0C8C017
:10137000883809F4B8C0803909F45FC0803809F0B2
:10138000BFC05BC0803B09F486C038F4803A09F4E2
:1013900066C0883A09F47FC0B3C0803C09F4A7C096
:1013A000883C09F4A4C0883B09F48AC0A9C0809194
:1013B0009D0610C09091BF068091BE06981770F5EB
:1013C000E091BF0681E08E0F8093BF06F0E0E25609
:1013D000F94F80818093BB0085EC86C08093C00666
:1013E0008EC0E091BF0681E08E0F8093BF06809192
:1013F000BB00F0E0E256F94F80839091BF068091E8
:10140000BE066EC0E091BF0681E08E0F8093BF06DE
:101410008091BB00F0E0E256F94F80838091C106D5
:1014200081116DC081E080939C0684EA61C083E0F5
:101430008093C20610921603CFCF8091160380329C
:1014400008F051C0E091160381E08E0F80931603DF
:101450008091BB00F0E0EA50FD4F8083BDCF85EC6A
:101460008093BC001092C20680911603803230F443
:10147000E0911603F0E0EA50FD4F108260911603F0
:1014800070E0E091F402F091F50286EF92E0199598
:101490001092160335C084E08093C2061092F302C6
:1014A0001092F202E091F002F091F1021995809110
:1014B000F202811105C081E08093F2021092D00205
:1014C000E091F30281E08E0F8093F302F0E0E053AD
:1014D000FD4F80818093BB009091F3028091F202D6
:1014E000981708F479CF85E88093BC0009C085EC93
:1014F0008093BC001092C20603C01092C00611DC9B
:10150000FF91EF91BF91AF919F918F917F916F91DB
:101510005F914F913F912F910F900BBE0F900FBE97
:101520000F901F9018954F925F926F927F92AF929B
:10153000BF92CF92DF92EF92FF920F931F93CF93C0
:10154000DF9300D000D0CDB7DEB78C016B01B42E95
:10155000A22EFC01E12CF12CEC15FD054CF4DF0171
:10156000A65DBC4F8C918E3209F47F013196F4CF89
:101570006CE472E0CE0101960E945915065D1C4F85
:10158000370182E0681A71087301C8018A529340DA
:101590008615970544F4F80161918F01CE010196FB
:1015A0000E94AE14F1CF89819A81009729F00E94A0
:1015B000BE1C2B013C0103C0412C512C320140E0E8
:1015C00050E06CE472E0CE0101960E94DE14EC144F
:1015D000FD0464F4F701E65DFC4F6081CE010196E5
:1015E0000E94AE14FFEFEF1AFF0AF1CF89819A81B2
:1015F000009719F00E94BE1C03C060E070E0CB01B0
:1016000020E030E040E752E40E94E11F9B01AC0182
:10161000C301B2010E947D1F6B017C01AA2021F051
:1016200083E5B81208C003C0E7E5BE1204C0F7FAAC
:10163000F094F7F8F09489819A810E94261CC701E2
:10164000B60126960FB6F894DEBF0FBECDBFDF9170
:10165000CF911F910F91FF90EF90DF90CF90BF90AF
:10166000AF907F906F905F904F9008958EBD000077
:101670000DB407FEFDCF8EB508958FEFF7CF0F9312
:101680001F93CF93DF93EB0166DD8B01F6DF8F3F76
:1016900041F061DD601B710B6C177D07B8F380E0D2
:1016A00001C081E0DF91CF911F910F910895CF93F9
:1016B000DF93EC018E81882379F08F8198859C01DE
:1016C0002F5F3F4F38872F838230924010F4D5DF51
:1016D000F4CFCE019CDD1E82DF91CF910895CF9291
:1016E000DF92FF920F931F93CF93DF9300D01F924F
:1016F000CDB7DEB76C01F62E29833A834B835C832A
:10170000D6DFC60191DD6CE271E0C601B8DF8F2D36
:101710008064ACDF08E110E05C814B813A81298173
:10172000DA01C901002E04C0B695A7959795879553
:101730000A94D2F729833A834B835C8397DF08505E
:10174000110929813A814B815C81083F8FEF18078D
:1017500039F7FF2029F0E8E0FE1204C087E803C053
:1017600085E901C08FEF82DF10E087DFF601828715
:1017700087FF04C01F3F11F01F5FF7CF0F900F903E
:101780000F900F90DF91CF911F910F91FF90DF90FD
:10179000CF900895EF92FF920F931F93CF93DF9313
:1017A000EC017901411551056105710511F482E1E2
:1017B00034C08B85833039F089E0440F551F661F94
:1017C000771F8A95D1F79A01AB0168E1CE0187DFD7
:1017D000882311F084E021C08EEF48DF87018EEF6F
:1017E000F81AF80181918F0141DF0E151F05C9F725
:1017F0008FEF3CDF8FEF3ADF40DF8A878F718530D4
:1018000029F081E18D83CE0102DD08C068E572E038
:10181000CE0135DF811106C085E18D83CE01F7DC75
:1018200080E010C020E030E0A9016DE0CE0157DF7C
:10183000811103C022DF882311F084E1EECFCE01B5
:10184000E6DC81E0DF91CF911F910F91FF90EF9047
:10185000089580911C03882399F1409100025091D2
:101860000102609102027091030228E734E0809146
:101870007806909179068EDF811102C080E008958C
:1018800040911D0350911E0360911F03709120032E
:10189000411551056105710589F028E734E0809113
:1018A00078069091790676DF882341F310921D0324
:1018B00010921E0310921F031092200310921C031B
:1018C00081E00895BF92CF92DF92EF92FF920F9343
:1018D0001F93CF93DF936B017C01B42E80910002A4
:1018E00090910102A0910202B09103028C159D0516
:1018F000AE05BF0509F46DC0ACDF882309F470C0E4
:10190000C0917806D09179068E81882369F088810C
:101910009981AA81BB81C816D906EA06FB0621F483
:101920008F819885892B89F1C882D982EA82FB82CE
:101930008B85A7019601833039F089E0220F331F90
:10194000441F551F8A95D1F761E1CE01C8DE882377
:1019500019F083E08D8331C0FEDB8B018EDE8A8738
:101960008F3F41F4F8DB601B710B6D327140B0F3B7
:101970008FE003C08E3F29F08DE08D83CE0147DCE0
:101980001CC018861F8281E08E8308E714E075DE94
:10199000F80181938F01F6E008371F07C1F78F81A7
:1019A00098859E5F98878F832985222319F081155A
:1019B000924038F0CE017BDE04C0CE0128DC80E00E
:1019C0000FC0C0920002D0920102E0920202F09297
:1019D000030280911C03482F4B2940931C0381E094
:1019E000DF91CF911F910F91FF90EF90DF90CF90FB
:1019F000BF9008954F925F926F927F928F929F92C5
:101A0000AF92BF92CF92DF92EF92FF920F931F930C
:101A1000CF93DF93EC016A017B0128013901423049
:101A200051056105710510F480E072C089859A85C1
:101A3000AB85BC850196A11DB11D84179507A6072E
:101A4000B70790F38B889C88AD88BE888F898031DA
:101A500029F4BB27AF2D9E2D8D2D09C0DB01CA01B6
:101A600047E0B695A795979587954A95D1F7880E43
:101A7000991EAA1EBB1E8091000290910102A091A6
:101A80000202B091030288169906AA06BB0679F4F1
:101A90008F89803199F4DD24EE24FF24C601880F5C
:101AA000991FFC01E858FB4F5182408218C040E06A
:101AB000C501B40107DF8111EBCFB6CFE894C7F8B9
:101AC000DD24EE24FF24C601880F991F880F991F7B
:101AD000FC01E858FB4F4082518262827382809100
:101AE0001C03816080931C038A89823080F08D8181
:101AF0009E81AF81B885880E991EAA1EBB1E80925A
:101B00001D0390921E03A0921F03B092200381E058
:101B1000DF91CF911F910F91FF90EF90DF90CF90C9
:101B2000BF90AF909F908F907F906F905F904F90FD
:101B300008958F929F92AF92BF92CF92DF92EF92D1
:101B4000FF920F931F93CF93DF93FC0181859285C2
:101B5000A385B4850196A11DB11D84179507A6071D
:101B6000B70710F480E05BC083899489A589B689A2
:101B7000C789C03129F4852E962EA72EBB2409C013
:101B80004A015B01C7E0B694A79497948794CA95DD
:101B9000D1F7E9016A017B018F01BC01CD01680D1C
:101BA000791D8A1D9B1D8090000290900102A090DB
:101BB0000202B0900302681579058A059B0599F425
:101BC000F80187898031A1F4B701A601552766275E
:101BD0007727440F551FFA01E858FB4F8081918108
:101BE000A0E0B0E017C040E06DDE8111E9CFBACFD0
:101BF000B701A6014F77552766277727440F551F52
:101C0000440F551FFA01E858FB4F80819181A28152
:101C1000B381BF7088839983AA83BB8381E0DF91FE
:101C2000CF911F910F91FF90EF90DF90CF90BF90D9
:101C3000AF909F908F9008953F924F925F926F92D6
:101C40007F928F929F92AF92BF92CF92DF92EF924C
:101C5000FF920F931F93CF93DF93CDB7DEB72C97EF
:101C60000FB6F894DEBF0FBECDBF5C01DC015B9602
:101C70008D909C905C971696CD90DD90ED90FC90A9
:101C80001997C114D104E104F10439F0BFEFCB1A64
:101C9000DB0AEB0AFB0A312C07C0F401C080D180BB
:101CA000E280F38033243394F40181859285A38507
:101CB000B4859C01AD012F5F3F4F4F4F5F4F298788
:101CC0003A874B875C87260137011D821E821F825F
:101CD0001886F40181859285A385B4852D813E8186
:101CE0004F815885281739074A075B0708F060C0FD
:101CF00089859A85AB85BC858C159D05AE05BF058C
:101D000050F482E0C82ED12CE12CF12C92E0492E27
:101D1000512C612C712C9E012F5F3F4FB701A60102
:101D2000C40107DF882309F443C089819A81AB810C
:101D3000BC81892B8A2B8B2B41F0260137019FEF29
:101D4000491A590A690A790A05C0C414D504E60477
:101D5000F70491F02D813E814F8158852F5F3F4FD1
:101D60004F4F5F4F2D833E834F8358873FEFC31AFA
:101D7000D30AE30AF30AADCF0FEF1FEF2FEF3FE0D7
:101D8000B301A201C40136DE882391F0D501169675
:101D90004D915D916D917C911997411551056105AA
:101DA000710541F093018201C40124DE811102C05A
:101DB00080E02AC0D50116964D925D926D927C927C
:101DC0001997332051F0D301C2010196A11DB11D15
:101DD000F40180839183A283B383F5018789908D79
:101DE000A18DB28D892B8A2B8B2B69F4D501579647
:101DF0004D925D926D927C925A9714968C911497A5
:101E0000806814968C9381E02C960FB6F894DEBF10
:101E10000FBECDBFDF91CF911F910F91FF90EF903B
:101E2000DF90CF90BF90AF909F908F907F906F90FA
:101E30005F904F903F9008954F925F926F927F9284
:101E40008F929F92AF92BF92EF92FF920F931F9348
:101E5000CF93DF9300D01F921F92CDB7DEB78C01D6
:101E60006D83DC0115968C911597813009F056C071
:101E700014968C9181FF52C059C0038CF48DE02DD3
:101E8000258530E0275F3F4F2A013B01B1E04B1A27
:101E9000510861087108022E04C076946794579423
:101EA00047940A94D2F7D501C4010197A109B10959
:101EB00004C0B695A795979587952A95D2F784156E
:101EC0009505A605B70508F06FC0F8014789508D44
:101ED000618D728D46835783608771872C013D0128
:101EE0007801E6E0EE0EF11CD801411451046104C2
:101EF000710409F463C016964D915D916D917C91CA
:101F0000199797015B968D919C915C9712DEB1E0D9
:101F10004B1A5108610871088111E6CF81E090E009
:101F2000F8019383828380E090E049C182FF0EC074
:101F3000F801428553856485758583889488A588D2
:101F4000B688481559056A057B05F1F4D8011A963B
:101F50004D915D916D917C911D975B968D919C91BA
:101F60005C97FC0174807A944A015B0129E0B69485
:101F7000A794979487942A95D1F778207A01F1E075
:101F8000FF22772011F162C081149104A104B104F1
:101F900009F073CF1682178210861186F801128617
:101FA000138614861586D2CF452B462B472B09F472
:101FB0008CCF84199509A609B70990CF1A968D92EE
:101FC0009D92AD92BC921D97C1CFE114F10409F02E
:101FD0003DC0F801468157816085718541155105E5
:101FE0006105710549F48789908DA18DB28D0097A7
:101FF000A105B10531F520C09E012F5F3F4F99DD4E
:10200000882309F490CF89819A81AB81BC81F80142
:10201000238D348DF9012789203129F048EF5FEFB6
:102020006FEF7FE004C048EF5FEF60E070E084177F
:102030009507A607B70728F0C801FEDD811106C085
:102040006DCFF80186839783A087B187D8015B960F
:10205000ED91FC915C9716968D909D90AD90BC9003
:102060001997B2E08B1A9108A108B108058404C041
:10207000880C991CAA1CBB1C0A94D2F786859785EC
:10208000A089B189880E991EAA1EBB1E870C911CBF
:10209000A11CB11CE114F10401F5F801428553853E
:1020A0006485758583899489A589B68948175907F8
:1020B0006A077B0790F0CDDB882309F42FCF80924D
:1020C000000290920102A0920202B092030280915B
:1020D0001C03816080931C0307C041E0C501B4016B
:1020E000F1DB882309F41ACFF701E858FB4F8D8103
:1020F0008083F80182859385A485B5850196A11D0D
:10210000B11D82879387A487B587438954896589E0
:102110007689481759076A077B0738F4838B948BB5
:10212000A58BB68B848180688483D80114968C91AA
:1021300083FD03C081E090E042C0F80195819923BE
:1021400009F4ECCE87FF37C0668577858089918951
:1021500041E0B8DB882309F4E1CED8015296EC9136
:10216000B0E2EB9F90011124D901A858BB4F109702
:1021700009F4D4CEF8018581823050F44389548922
:10218000658976895C964D935D936D937C935F979B
:10219000F8018789908DA18DB28DF901E858FB4F28
:1021A000938F828FB58BA48BD80114968C91149742
:1021B0008F7714968C934DDB8111BCCFAFCE0F90EF
:1021C0000F900F900F900F90DF91CF911F910F9173
:1021D000FF90EF90BF90AF909F908F907F906F9007
:1021E0005F904F900895382F2091E50690918908CF
:1021F000213208F049C08091C2068111FCCF42E033
:102200004093C2063093C1063FEF3093C006109250
:10221000BF062093BE06A5ECB6E04EE956E0FA01F3
:102220003E2F341B321718F43D913193F9CF1092A1
:102230009D0620919D06990F922B90939D0690915B
:102240009C06913061F410929C0690919D069093AB
:10225000BB009091BC0093FDF8CF95EC01C095EECA
:102260009093BC009091C2069230E1F39091C00629
:102270009F3F79F08091C006803241F08091C00686
:10228000803331F084E005C081E003C082E001C00A
:1022900083E01092C4061092E5061092C3060895DA
:1022A00090E0FC01EC57F64F2491FC01EC51F64F05
:1022B0008491882399F090E0880F991FFC01E659DA
:1022C000F64FA591B491FC01E653F64F8591949198
:1022D0008FB7F894EC91E22BEC938FBF0895E091C7
:1022E0008307F09184070190F081E02D682F83E847
:1022F00097E01994009761F0FC0101900020E9F744
:102300003197AF01481B590BBC0183E897E07FC3AD
:1023100080E090E008950F931F93CF93DF938C019B
:10232000C0E0D0E0F801EC0FFD1F6491662371F06E
:10233000E0918307F09184070190F081E02D83E81C
:1023400097E01995892B11F02196ECCFCE01DF9102
:10235000CF911F910F910895CF93DF93DCDFEC01B4
:102360008AE492E0C7DF8C0F9D1FDF91CF91089523
:10237000CF93C62F20917C0830E03595279591E0CA
:102380009093C306209389081092C4061092E50624
:10239000682F8BE698E00E941E076C2F8BE698E072
:1023A0000E941E0781E01FDF811108C061E070E01C
:1023B00080E090E00E94730881E001C080E0CF914E
:1023C0000895CF93DF93EB0120917C0830E03595A1
:1023D000279591E09093C306209389081092C40634
:1023E0001092E506682F8BE698E00E941E0781E0B8
:1023F000FADE80917C089091C2069111FCCF91E0A9
:102400009093C2069093C1062FEF2093C0061092BE
:10241000BF061092BE0690939D0690919D068E7FFA
:10242000892B80939D0680919C06813061F41092E7
:102430009C0680919D068093BB008091BC0083FD2B
:10244000F8CF85EC01C085EE8093BC008091C20678
:102450008130E1F38091BF06811103C08091BF06F6
:1024600001C081E0AEE9B6E02CE736E0F9019E2F2D
:10247000921B981718F49D919193F9CF10927B06B7
:1024800080937A06882329F08BE698E00E94D30691
:10249000888361E070E080E090E00E94730881E052
:1024A000DF91CF910895EF92FF920F931F93CF93F7
:1024B000DF93EC01E12CF12C00E010E08FEFE81647
:1024C000F10461F0FE0105911491FE013296E59050
:1024D000F490B701C8014CDF2496F0CF0F3F1105EF
:1024E00089F781E090E0DF91CF911F910F91FF90EC
:1024F000EF9008958F929F92AF92BF92CF92DF920A
:10250000EF92FF92CF93DF93C82F82E298E09093EF
:10251000790680937806CC2361F1C53010F080E015
:102520000BC140E060E070E0CB01CCD98823B9F367
:1025300020E1C29FC001112488599B4FFC01E25445
:10254000FE4F20812F7759F73C964081518162815F
:102550007381443651056105710508F33497C080D5
:10256000D180E280F380C114D104E104F10421F4AC
:10257000D6CFC12CD12C760140E0C701B601A2D93B
:10258000882369F28091830490918404811592409C
:1025900031F6A0918804AA2309F4C1CF6091860482
:1025A000709187046115710509F4B9CF20918504F4
:1025B000222309F4B4CFA09340082093320880E08E
:1025C00030E0E1E0F0E0C82FAF01082E02C0440F78
:1025D000551F0A94E2F72417350741F0982F8F5FB3
:1025E000983089F789E080933B0899CF80933B0826
:1025F00020918E0430918F042115310519F040E0AF
:1026000050E008C020919C0430919D0440919E04AC
:1026100050919F0420933308309334084093350839
:102620005093360846015701860E971EA11CB11C17
:102630008092410890924208A0924308B0924408C8
:10264000E0918904F0918A04F0934708E0934608EA
:10265000B0E00E94631F860E971EA81EB91E8092CE
:10266000480890924908A0924A08B0924B0885E029
:10267000EE0FFF1F8A95E1F7E150FE4FEF2FFF2786
:10268000E6958E0E9F1EA11CB11C80923C08909274
:102690003D08A0923E08B0923F0820918B043091F3
:1026A0008C042115310521F0A90160E070E008C01B
:1026B000409198045091990460919A0470919B0400
:1026C000D701C60188199909AA09BB09840F951F6A
:1026D000A61FB71F04C0B695A79597958795CA956D
:1026E000D2F78093370890933808A0933908B093B5
:1026F0003A08853F2FE09207A105B10510F48CE060
:1027000018C0853F9F4FA105B10510F480E111C0AD
:102710008091A4049091A504A091A604B091A7046F
:102720008093480890934908A0934A08B0934B08B7
:1027300080E28093450881E0DF91CF91FF90EF9098
:10274000DF90CF90BF90AF909F908F900895CF93E0
:10275000DF93D0DDEC018AE492E0CCDD8C0F9D1F8D
:10276000DF91CF910895C6CD8F929F92AF92BF9285
:102770000F931F93CF93DF93CDB7DEB7A1970FB61B
:10278000F894DEBF0FBECDBF19A2423008F44AE074
:102790008E010F5D1F4F842E912CA12CB12CA50111
:1027A00094010E947D20E62FB901CA010150110950
:1027B000EA3014F4E05D01C0E95CD801EC93232B0E
:1027C000242B252B61F7C80195DDA1960FB6F8944F
:1027D000DEBF0FBECDBFDF91CF911F910F91BF9094
:1027E000AF909F908F9008954F925F926F927F92DB
:1027F0008F929F92AF92BF92CF92DF92EF92FF9211
:10280000CF936B017C019B01AC010E94792088234E
:1028100019F083EC92E01AC046015701E894B7F82A
:102820002FEF3FEF4FE75FE7C501B4010E9479202A
:1028300081110FC02FEF3FEF4FE75FE7C501B401F4
:102840000E94471E18162CF487EC92E053DD7C01A1
:1028500072C02FEF3FEF4FE75FE4C701B6010E9460
:10286000752018161CF48BEC92E0F0CF2FEF3FEFA1
:102870004FE75FECC701B6010E94471E87FDF3CF0B
:1028800020E030E0A901C701B6010E94471E87FF82
:1028900008C08DE224DD5C01F7FAF094F7F8F094BB
:1028A00002C0A12CB12C2BEA35EC47EA56E3C70154
:1028B000B6010E947D1F2B013C010E9449206B0143
:1028C0007C010E944B1E9B01AC01C301B2010E941E
:1028D0007C1F2B013C014AE0C701B60145DF7C01AA
:1028E000EA0CFB1C8EE2FBDCE80EF91EC6E0C150D0
:1028F00011F120E030E040E251E4C301B2010E9456
:10290000AC1E2B013C010E9449204B01A12CB12C93
:102910004AE0C501B40128DFE80EF91EC501B40183
:102920000E944B1E9B01AC01C301B2010E947C1F9F
:102930002B013C01DCCF8AE492E0DCDC8E0D9F1D94
:10294000CF91FF90EF90DF90CF90BF90AF909F908E
:102950008F907F906F905F904F900895EF92FF92CD
:102960000F931F93CF93DF931F921F92CDB7DEB7C4
:102970008C0169831A82FC01E480F580FFEFEF1A75
:10298000FF0AB7016FD0882381F0F80120813181DF
:1029900084819581BE016F5F7F4F820F931F0E94DC
:1029A0009821F801F582E48281E00F900F90DF9189
:1029B000CF911F910F91FF90EF900895EF92FF92AA
:1029C0000F931F93CF93DF93EC017B018A01BA0130
:1029D00049D02881398181110CC02115310511F0B0
:1029E000C90134D7198218821D821C821B821A8267
:1029F00006C01D830C83B701C9010E949821CE0136
:102A0000DF91CF911F910F91FF90EF900895CF929A
:102A1000DF92EF92FF920F931F93CF93DF936C019E
:102A20007A018B01C0E0D0E0CE15DF0589F0D80136
:102A30006D918D01D601ED91FC910190F081E02D19
:102A4000C6011995892B11F47E0102C02196ECCFA5
:102A5000C701DF91CF911F910F91FF90EF90DF9011
:102A6000CF9008950F931F93CF93DF93EC0188814C
:102A70009981009729F02A813B812617370788F42E
:102A80008B016F5F7F4F0E94A720009761F09983B1
:102A900088831B830A832C813D81232B11F4FC0145
:102AA000108281E001C080E0DF91CF911F910F91F2
:102AB0000895FC0111821082138212821582148201
:102AC0006115710549F0FB0101900020E9F731978C
:102AD000AF01461B570B72CF089580917D089091EE
:102AE0007E08B4D68091830890918408AFC6CF93B6
:102AF000DF9300D000D0CDB7DEB7789484B5826084
:102B000084BD84B5816084BD85B5826085BD85B591
:102B1000816085BD80916E00816080936E0010920F
:102B2000810080918100826080938100809181008A
:102B3000816080938100809180008160809380001B
:102B40008091B10084608093B1008091B000816079
:102B50008093B00080919100826080939100809179
:102B600091008160809391008091900081608093BA
:102B700090008091A10082608093A1008091A100CB
:102B800081608093A1008091A00081608093A0006B
:102B900080912101826080932101809121018160D7
:102BA0008093210180912001816080932001809198
:102BB0007A00846080937A0080917A0082608093AA
:102BC0007A0080917A00816080937A0080917A0007
:102BD000806880937A001092C100E091F606F0912F
:102BE000F70602E00083E091F206F091F30610820E
:102BF000E091F406F091F5068FEC80831092FE06CA
:102C0000E091FA06F091FB0616E01083E091F806D9
:102C1000F091F906808180618083E091F806F0915F
:102C2000F906808188608083E091F806F091F906CA
:102C3000808180688083E091F806F091F9068081B8
:102C40008F7D808310927B0610927A061092C406C4
:102C50001092E5061092C20681E08093C1061092A0
:102C60009C0661E084E10E94F60761E085E10E9434
:102C7000F6078091B9008E7F8093B9008091B900EA
:102C80008D7F8093B90088E48093B80085E48093B9
:102C9000BC00E0919307F09194070083E0918F07C7
:102CA000F09190071082E0919107F091920780E1F6
:102CB000808310929B07E0919707F091980710830B
:102CC000E0919507F0919607808180618083E09183
:102CD0009507F0919607808188608083E091950741
:102CE000F0919607808180688083E0919507F0914C
:102CF000960780818F7D80838BE499E02DDB84E3D0
:102D000099E02ADB87E0CCDA8FE199E004DB1092CE
:102D10002D0810922B08109228081092270884E0A2
:102D2000809326080E94AB088B0180912608B8DAB0
:102D300061E0809126080E94F6070E94320982E530
:102D400080932008109221088091200890912108FA
:102D50000E941109FAE0FF2E8FEF0E94360BFA94C1
:102D6000F110FACF82E298E00E94140920E030E0EE
:102D7000A90160E082E298E00E946F0BF82E809338
:102D80002C0881E0F81649F00E94AB08601B710B1B
:102D9000613D774058F381E056C02AEA31E040E0D7
:102DA00050E068E082E298E00E946F0B82FF03C06F
:102DB000F0922D0810C0E4E0FE2E0E943D0B80939F
:102DC0002C08FA94F110F9CF8A3A11F082E03BC056
:102DD00082E080932D0880912D08823021F0C12C53
:102DE000D12C760105C0C12CD12CE12C70E4F72E3A
:102DF00020E030E0A90167E382E298E00E946F0BD7
:102E0000A701960169E282E298E00E946F0B80932D
:102E10002C08882349F00E94AB08601B710B613DB0
:102E2000774030F388E00FC080912D08823001F5A3
:102E300020E030E0A9016AE382E298E00E946F0B93
:102E4000882341F086E08093270882E298E00E9480
:102E5000070918C20E943D0B807C803C19F483E076
:102E600080932D080E943D0B0E943D0B0E943D0B5C
:102E700082E298E00E94070980E580932008109282
:102E8000210881E037DB882329F0809151088823CD
:102E900039F0F8C180E02EDB882309F4F3C1F5CFC7
:102EA00080914508803109F582E0809351081092A5
:102EB0006308109264081092650810926608809169
:102EC000460890914708A0E0B0E065E0880F991FA0
:102ED000AA1FBB1F6A95D1F780935F089093600883
:102EE000A0936108B09362085DC0803209F0CAC146
:102EF00083E0809351088091480890914908A091FF
:102F00004A08B0914B088093630890936408A0939B
:102F10006508B093660889839A83AB83BC83C12C10
:102F2000D12C7601812C52E0952EA12CB12C498117
:102F30005A816B817C819E012F5F3F4F8EE298E02A
:102F40000E94990D882309F49DC1D501C401009008
:102F50003B0804C0880F991FAA1FBB1F0A94D2F711
:102F6000C80ED91EEA1EFB1E49815A816B817C81E5
:102F700080914508803129F088EF9FEFAFEFBFE0E7
:102F800004C088EF9FEFA0E0B0E0481759076A0738
:102F90007B0768F2C0925F08D0926008E0926108F7
:102FA000F09262088EE298E0909368088093670838
:102FB00081E08093500810925208109253081092AA
:102FC0005408109255081092560810925708109203
:102FD00058081092590810925A0810925B081092E3
:102FE0005C0810925D0810925E088BEE98E0B4D9F0
:102FF0000E943209E0917708F091780890818091E1
:10300000790880958923808380E80E94360B85E5C6
:103010000E94360BE0917708F091780890818091BA
:103020007908892B8083E0917708F0917808908166
:103030008091790880958923808380E00E94360BF7
:1030400080E00E94360BE0917708F09178082081AB
:1030500090917908922B9083853551F08EEC98E011
:103060007BD968EE73E080E090E00E947308C2CFE5
:1030700084EB98E071D961E070E08FEF90E078D94F
:10308000BE016A5F7F4F8AE09CD9BE016B5F7F4FB4
:103090008BE097D98E81863251F082E998E05CD935
:1030A00068EE73E080E090E00E947308E4CF89E767
:1030B00098E052D981E080937A0880917B0885302E
:1030C00069F561E070E08FEF90E052D960E870E060
:1030D00082E190E04DD964E670E080E090E00E94EB
:1030E000730880917A088130B1F485E792E0DBD9EA
:1030F0008DE492E0D8D989E292E0D5D961E070E020
:103100008FEF90E035D960E070E085E190E030D954
:1031100089E891E002C081E795E0C5D989E891E0AE
:10312000C2D9E0917708F091780890818091790870
:1031300080958923808384E80E94360B81E00E9479
:10314000360BE0917708F0917808908180917908AA
:10315000892B8083109259041092580410927304A2
:1031600010927204109257041092560480917404C5
:1031700090917504A0917604B0917704892B8A2BE5
:103180008B2BB1F484E492E0E2DA0E94AB08009168
:103190007404109175042091760430917704601BBB
:1031A000710B820B930B4AE0DFDA8AE492E0A2D83B
:1031B000C0907404D0907504E0907604F090770489
:1031C000C114D104E104F10409F460C00E94AB0809
:1031D000DC01CB018C199D09AE09BF0981329E44E7
:1031E000A105B10508F052C04AC083E792E0AFDA0A
:1031F0008CE492E0ACDA8EEA92E0B5DAE0916A040F
:10320000F0916B04E65DFC4F80818C3209F4CCC1F7
:1032100066D8E0916A04F0916B04E65DFC4F818111
:103220005ED885EB92E09FDAE0916A04F0916B043E
:10323000E65DFC4F828153D8E0916A04F0916B0403
:10324000E65DFC4F83814BD885EB92E08CDAE09110
:103250006A04F0916B04E65DFC4F848140D8E091F4
:103260006A04F0916B04E65DFC4F858138D81092BA
:1032700073041092720410925704109256040E9424
:10328000390674CF86E099E067D870CF0E94AB080A
:10329000609374047093750480937604909377041C
:1032A00086EE96E00E9471058C0190930502809352
:1032B00004028F3F2FEF920739F464E670E080E05C
:1032C00090E00E947308ECCFE0917204F0917304D7
:1032D000E65DFC4F808303D8809172049091730463
:1032E000019690937304809372048C32E1E09E0700
:1032F00009F461C10C321105B1F4209156043091EA
:1033000057042F5F3F4F3093570420935604F90121
:10331000EE0FFF1FE85AFB4F918380832D3031055C
:1033200009F052C148C10A32110529F49093710481
:103330008093700449C10A30110509F045C180919C
:103340005604909157040C9709F041C180915A049A
:1033500090915B042091580430915904821B930B87
:10336000079709F034C1EAE2F3E0ADE0B2E09191F1
:103370008D9198132CC123E0E033F207C1F782E06E
:1033800090E08230910509F013C182E699E00E9435
:10339000AC110AE213E02091720430917304C80169
:1033A0008A5293408217930734F4F80181918F0178
:1033B0000E946F11F0CF8CE492E0C9D98DE492E0C5
:1033C000C6D98BE592E0CFD900915A0410915B04E5
:1033D000F801E65DFC4F80818C3209F469C08F01F1
:1033E00080915C0490915D04019798012A523340CA
:1033F0002817390734F4F80181918F010E946F1169
:10340000EFCF82E692E0AFD9E0915A04F0915B04ED
:10341000E65DFC4F80810E946F11E0915A04F091AB
:103420005B04E65DFC4F81810E946F1189E592E0AB
:103430009AD9E0915A04F0915B04E65DFC4F8281D9
:103440000E946F11E0915A04F0915B04E65DFC4F1D
:1034500083810E946F1189E592E085D9E0915A0439
:10346000F0915B04E65DFC4F84810E946F11E09156
:103470005A04F0915B04E65DFC4F85810E946F1158
:1034800089E592E070D9E0915A04F0915B04E65D21
:10349000FC4F87810E946F11E0915A04F0915B0408
:1034A000E65DFC4F80850E946F118EE692E002C0BF
:1034B00083E792E04CD981E892E055D9E0915C0431
:1034C000F0915D04E65DFC4F80810E946F118AE4FB
:1034D00092E00E947A118FE892E045D9E0915C0475
:1034E000F0915D04E65DFC4F8081813499F4609138
:1034F000600470916104FB01E65DFC4F615071094D
:1035000021E0408180915E0490915F040E94930AC3
:103510006BD903C083E792E01AD98AE992E023D9F4
:10352000E0915C04F0915D04E65DFC4F80818134A4
:1035300099F46091640470916504FB01E65DFC4FB1
:103540006150710920E04081809162049091630490
:103550000E94930A49D903C083E792E0F8D886EA2B
:1035600092E001D9E0915C04F0915D04E65DFC4FCE
:103570008081813409F039CE00916604109167048E
:10358000065D1C4F80916804909169040197980131
:103590002A523340281739070CF02ACEF8018191BE
:1035A0008F010E946F11EECF83E792E0D0D85FCEFB
:1035B000039709F075CE1092730410927204109262
:1035C0005704109256046CCE81E090E0DACE83E08E
:1035D00090E0D7CECF93DF93E6EEF6E0138212822F
:1035E00088EE93E0A0E0B0E084839583A683B78360
:1035F00028E132E03183208345E351E05587448759
:1036000044E351E05787468740E351E0518B408BBC
:1036100041E351E0538B428B42E351E0558B448BA5
:1036200046E351E0578B468B118E128E138E148E0B
:10363000E3E8F7E01382128284839583A683B7833D
:103640003183208325EC30E03587248724EC30E07B
:103650003787268720EC30E0318B208B21EC30E05F
:10366000338B228B22EC30E0358B248B26EC30E040
:10367000378B268B118E128E138E148EE0E2F8E0BB
:1036800020E520831182E2E2F8E01582168211869D
:10369000138642E050E060E070E04487558766871B
:1036A000778713A215A614A62AE232E033A722A731
:1036B00017A6EBE6F8E01382128284839583A68333
:1036C000B78386E392E09183808367EB72E083E8BF
:1036D00098E0EFD96CE472E08DE798E0EAD9EBEE80
:1036E000F9E0E491F0E0EE0FFF1FE653F64F85910D
:1036F0009491C7E7D8E099838883EBE8F9E0E491F7
:10370000EA8387E00E945011E881F98190818A81E3
:10371000892B808385E08C8380E68D83DF91CF9138
:103720000895CF93DF938230910510F482E090E00A
:10373000E0918C08F0918D0820E030E0C0E0D0E00E
:10374000309711F14081518148175907C0F048174F
:10375000590761F482819381209719F09B838A83B2
:103760002BC090938D0880938C0826C021153105BD
:1037700019F04217530718F49A01BE01DF01EF0157
:103780000280F381E02DDCCF2115310509F1281BE2
:10379000390B2430310590F412968D919C9113973A
:1037A0006115710521F0FB019383828304C090931E
:1037B0008D0880938C08FD01329644C0FD01E20F14
:1037C000F31F81939193225031092D933C933AC07A
:1037D00020918A0830918B08232B41F42091080214
:1037E0003091090230938B0820938A0820910602B9
:1037F000309107022115310541F42DB73EB74091B4
:103800000A0250910B02241B350BE0918A08F091BB
:103810008B08E217F307A0F42E1B3F0B281739077C
:1038200078F0AC014E5F5F4F2417350748F04E0F1C
:103830005F1F50938B0840938A088193919302C035
:10384000E0E0F0E0CF01DF91CF9108950F931F9357
:10385000CF93DF93009709F48CC0FC013297138259
:10386000128200918C0810918D080115110581F4C8
:1038700020813181820F931F20918A0830918B081B
:103880002817390779F5F0938B08E0938A0871C0FF
:10389000D80140E050E0AE17BF0750F412962D91CA
:1038A0003C911397AD012115310509F1D901F3CFF1
:1038B0009D01DA013383228360817181860F971F16
:1038C0008217930769F4EC0128813981260F371F8D
:1038D0002E5F3F4F318320838A819B819383828334
:1038E000452B29F4F0938D08E0938C0842C0139681
:1038F000FC93EE931297ED01499159919E01240F8B
:10390000351FE217F30771F480819181840F951FB1
:10391000029611969C938E938281938113969C9329
:103920008E931297E0E0F0E0D80112968D919C9171
:103930001397009719F0F8018C01F6CF8D919C91A7
:1039400098012E5F3F4F820F931F20918A0830917C
:103950008B082817390769F4309729F410928D08DD
:1039600010928C0802C01382128210938B0800936D
:103970008A08DF91CF911F910F91089566277727CD
:1039800000C06F927F928F929F92AF92BF92CF9220
:10399000DF92EF92FF920F931F93CF93DF93EC018F
:1039A0007B016115710519F0DB018D939C938E01EC
:1039B0000F5F1F4F7880872D90E049D1892B11F040
:1039C000E801F5CFBDE27B1205C00F5F1F4F798084
:1039D000C1E008C0EBE27E1204C08E010E5F1F4FF3
:1039E0007980C0E06801F1E0CF1AD10843E050E0EF
:1039F00060E171E0C60133D1892BE9F4680122E06E
:103A0000C20ED11C45E050E06BE071E0C60127D149
:103A1000892B21F4680187E0C80ED11CE114F10460
:103A200019F0D701CD92DC92C111F9C060E070E0CD
:103A300080E89FE7FDC043E050E068E071E0C60128
:103A40000ED1892B51F4E114F10409F4EDC00E5F9D
:103A50001F4FF70111830083E7C0680160E070E049
:103A6000CB0100E010E0F601D0EDD70DDA3050F5D3
:103A70002C2F2260622E2C2F2870C2FF05C021112E
:103A800027C00F5F1F4F24C0222311F001501109DE
:103A9000A5E0B0E09B01AC0116D24B015C01880CA3
:103AA000991CAA1CBB1CC501B4016D0F711D811DA1
:103AB000911D6839A9E97A078A07A9E19A0740F0B8
:103AC000C66005C0DE3F51F4C3FD44C0C8606C2E23
:103AD000BFEFCB1ADB0A7080C62DC5CF2D2F2F7DEF
:103AE0002531C1F540814D3211F4C06106C04B3221
:103AF00021F0319621E030E006C03296D6011196D1
:103B00004C9122E030E0A0EDA40FAA3018F0E21BA7
:103B1000F30B20C040E050E04038BCE05B075CF4B1
:103B20009A01220F331F220F331F420F531F440FDE
:103B3000551F4A0F511D3196DF0111972C91A0EDB1
:103B4000A20FAA3048F3C4FF03C051954195510913
:103B5000040F151FC1FF07C0E114F10421F03197D4
:103B6000D701ED93FC9397D0C370C33019F06B016C
:103B70007C0106C06B017C01F7FAF094F7F8F09431
:103B800020E030E0A901C701B60181D0882309F403
:103B900043C017FF06C0119501951109C7E2D1E096
:103BA00002C0CFE3D1E05E01B8E1AB1AB108460133
:103BB000BE2DAF2D90E2E92EF12C0E151F057CF0E5
:103BC000FE012591359145915491B4018B2F9A2F87
:103BD000C3D04B01B82FA92F0E191F09EECF249780
:103BE000F594E794CA15DB0541F76401EB2EFA2E34
:103BF0008E2D880F8F2D881F8F3F41F020E030E001
:103C0000A901C701B60143D0811106C082E290E04C
:103C100090938F0880938E08C701B60109C060E0B9
:103C200070E080E89FEF04C060E070E080EC9FE708
:103C3000DF91CF911F910F91FF90EF90DF90CF9088
:103C4000BF90AF909F908F907F906F90089591114B
:103C5000E6C0803219F089508550D0F70895FB01F5
:103C6000DC014150504088F08D9181341CF08B353F
:103C70000CF4805E659161341CF06B350CF4605E71
:103C8000861B611171F3990B0895881BFCCF40D0FE
:103C900008F481E00895E89409C097FB3EF49095FC
:103CA0008095709561957F4F8F4F9F4F9923A9F015
:103CB000F92F96E9BB279395F695879577956795A4
:103CC000B795F111F8CFFAF4BB0F11F460FF1BC0E8
:103CD0006F5F7F4F8F4F9F4F16C0882311F096E97B
:103CE00011C0772321F09EE8872F762F05C0662329
:103CF00071F096E8862F70E060E02AF09A95660FE2
:103D0000771F881FDAF7880F9695879597F908959A
:103D1000990F0008550FAA0BE0E8FEEF16161706DC
:103D2000E807F907C0F012161306E407F50798F044
:103D3000621B730B840B950B39F40A2661F0232B5D
:103D4000242B252B21F408950A2609F4A140A695D9
:103D50008FEF811D811D08950BD07BC06CD028F0A2
:103D600071D018F0952309F05DC062C01124A5C080
:103D700081D0A0F3959FD1F3950F50E0551F629F1E
:103D8000F001729FBB27F00DB11D639FAA27F00DB4
:103D9000B11DAA1F649F6627B00DA11D661F829FDB
:103DA0002227B00DA11D621F739FB00DA11D621FC0
:103DB000839FA00D611D221F749F3327A00D611DDD
:103DC000231F849F600D211D822F762F6A2F1124BF
:103DD0009F5750408AF0E1F088234AF0EE0FFF1F12
:103DE000BB1F661F771F881F91505040A9F79E3F49
:103DF000510570F017C061C05F3FECF3983EDCF3F3
:103E0000869577956795B795F795E7959F5FC1F785
:103E1000FE2B880F911D9695879597F90895992700
:103E20008827089597F99F6780E870E060E008951B
:103E30009FEF80EC089500240A94161617061806C2
:103E40000906089500240A9412161306140605069E
:103E50000895092E0394000C11F4882352F0BB0F2F
:103E600040F4BF2B11F460FF04C06F5F7F4F8F4F92
:103E70009F4F089557FD9058440F551F59F05F3FCD
:103E800071F04795880F97FB991F61F09F3F79F07C
:103E900087950895121613061406551FF2CF4695FE
:103EA000F1DF08C0161617061806991FF1CF869580
:103EB0007105610508940895E894BB276627772764
:103EC000CB0197F9089509D0A59F900DB49F900D4F
:103ED000A49F800D911D11240895A29FB001B39F4E
:103EE000C001A39F700D811D1124911DB29F700D03
:103EF000811D1124911D08955058BB27AA270ED06B
:103F0000A8CF99DF30F09EDF20F031F49F3F11F40D
:103F10001EF48ECF0EF4E095E7FB84CFE92FAADFE5
:103F200080F3BA17620773078407950718F071F4D6
:103F30009EF5C2CF0EF4E0950B2EBA2FA02D0B01EB
:103F4000B90190010C01CA01A0011124FF27591BDE
:103F500099F0593F50F4503E68F11A16F040A22FE4
:103F6000232F342F4427585FF3CF46953795279555
:103F7000A795F0405395C9F77EF41F16BA0B620B54
:103F8000730B840BBAF09150A1F0FF0FBB1F661F9B
:103F9000771F881FC2F70EC0BA0F621F731F841FDE
:103FA00048F4879577956795B795F7959E3F08F004
:103FB000B3CF9395880F08F09927EE0F97958795C3
:103FC00008950CD046CF3EDF40F035DF30F021F4CD
:103FD0005F3F19F027CF511170CF2ACF4BDF98F3F5
:103FE0009923C9F35523B1F3951B550BBB27AA277A
:103FF00062177307840738F09F5F5F4F220F331FEC
:10400000441FAA1FA9F333D00E2E3AF0E0E830D0B7
:1040100091505040E695001CCAF729D0FE2F27D0BA
:10402000660F771F881FBB1F261737074807AB0788
:10403000B0E809F0BB0B802DBF01FF2793585F4FFD
:104040002AF09E3F510568F0EDCE37CF5F3FECF38D
:10405000983EDCF3869577956795B795F7959F5FC2
:10406000C9F7880F911D9695879597F90895E1E016
:10407000660F771F881FBB1F621773078407BA0775
:1040800020F0621B730B840BBA0BEE1F88F7E095D0
:104090000895F8DE88F09F5790F0B92F9927B7510F
:1040A000A0F0D1F0660F771F881F991F1AF0BA95FC
:1040B000C9F712C0B13081F0FFDEB1E00895FCCE47
:1040C000672F782F8827B85F39F0B93FCCF38695F2
:1040D00077956795B395D9F73EF49095809570954F
:1040E00061957F4F8F4F9F4F089512DE08F48FEF39
:1040F00008950EDE880B990B0895A1E21A2EAA1BD3
:10410000BB1BFD010DC0AA1FBB1FEE1FFF1FA21787
:10411000B307E407F50720F0A21BB30BE40BF50B84
:10412000661F771F881F991F1A9469F7609570950D
:10413000809590959B01AC01BD01CF010895EE0FD4
:10414000FF1F881F8BBF0790F691E02D19946F9287
:104150007F928F929F92AF92BF92CF92DF92EF9217
:10416000FF920F931F93CF93DF93EC01009781F49D
:10417000CB01DF91CF911F910F91FF90EF90DF90D6
:10418000CF90BF90AF909F908F907F906F90C9CA53
:10419000FC01E60FF71F9C0122503109E217F307DB
:1041A00008F4A8C0D9010D911C91119706171707A3
:1041B000A8F00530110508F49BC0C80104978617C4
:1041C000970708F495C002501109061B170B0193BD
:1041D00011936D937C93CF0139DB8AC05B01A01AE8
:1041E000B10A4C01800E911EA0918C08B0918D08EF
:1041F00040E050E0E12CF12C109709F44AC0A815DA
:10420000B905D1F56D907C901197630182E0C80EDD
:10421000D11CCA14DB0480F1A3014A195B096A01AD
:1042200082E0C80ED11C1296BC9012971396AC91E6
:10423000B5E0CB16D10440F0B282A3835183408312
:10424000D9016D937C930AC00E5F1F4FC301800F8D
:10425000911FF90191838083EB2DFA2FE114F10472
:1042600031F0D7011396FC93EE93129741C0F0936F
:104270008D08E0938C083CC08D919C911197481754
:10428000590708F4AC017D0112960D90BC91A02D48
:10429000B3CF80918A0890918B0888159905E1F435
:1042A00046175707C8F480910602909107020097BD
:1042B00041F48DB79EB740910A0250910B02841BC6
:1042C000950BE817F907B0F4F0938B08E0938A0890
:1042D000F901718360830CC0CB0123DA7C01009764
:1042E00049F0A801BE011BD0CE01B0DAC70104C05D
:1042F000CE0102C080E090E0DF91CF911F910F913D
:10430000FF90EF90DF90CF90BF90AF909F908F90F5
:104310007F906F90089581E090E0F89410C0FB01C9
:10432000DC0102C001900D9241505040D8F7089531
:10433000FB01DC0101900D920020E1F7089515E0EA
:10434000C6E1D5E000E005C0802FFE01F8DE219631
:10435000011DC731D10780E00807B1F7F894FFCFFE
:10436000FFFFFFFFFFFF0000900880000024475080
:10437000524D430000000000D205071562051806E3
:10438000930571058505000000001C0F07154D07FA
:104390004C07000000001E07EF064D07C306E706A6
:1043A000D306C406456D707479000D0A0044656338
:1043B0006F64656420446174613A0054696D653AC4
:1043C0002000466F726D61747465643A2000205558
:1043D0005443004E6F7420617661696C61626C6554
:1043E000005369676E616C20547970653A20004C07
:1043F000617469747564653A20004C6F6E67697406
:104400007564653A200053706565643A2000446124
:1044100074653A20002D00696D67437472332E7401
:104420007874006E616E00696E66006F76660000DB
:020000023000CC
:10E000000D9489F10D94B2F10D94B2F10D94B2F129
:10E010000D94B2F10D94B2F10D94B2F10D94B2F1F0
:10E020000D94B2F10D94B2F10D94B2F10D94B2F1E0
:10E030000D94B2F10D94B2F10D94B2F10D94B2F1D0
:10E040000D94B2F10D94B2F10D94B2F10D94B2F1C0
:10E050000D94B2F10D94B2F10D94B2F10D94B2F1B0
:10E060000D94B2F10D94B2F10D94B2F10D94B2F1A0
:10E070000D94B2F10D94B2F10D94B2F10D94B2F190
:10E080000D94B2F10D94B2F10D94B2F10D94B2F180
:10E090000D94B2F10D94B2F10D94B2F10D94B2F170
:10E0A0000D94B2F10D94B2F10D94B2F10D94B2F160
:10E0B0000D94B2F10D94B2F10D94B2F10D94B2F150
:10E0C0000D94B2F10D94B2F10D94B2F10D94B2F140
:10E0D0000D94B2F10D94B2F10D94B2F10D94B2F130
:10E0E0000D94B2F141546D656761323536300041AF
:10E0F000726475696E6F206578706C6F72657220DE
:10E1000073746B3530305632206279204D4C530099
:10E11000426F6F746C6F616465723E004875683F52
:10E1200000436F6D70696C6564206F6E203D200048
:10E130004350552054797065202020203D20005FF9
:10E140005F4156525F415243485F5F3D2000415658
:10E1500052204C696243205665723D20004743437C
:10E160002056657273696F6E203D20004350552024
:10E1700049442020202020203D20004C6F7720663D
:10E18000757365202020203D20004869676820665F
:10E190007573652020203D200045787420667573D6
:10E1A00065202020203D20004C6F636B2066757336
:10E1B000652020203D20004D617220203720323024
:10E1C000313300312E362E3800342E332E350056A2
:10E1D00023202020414444522020206F7020636F70
:10E1E00064652020202020696E73747275637469E1
:10E1F0006F6E2061646472202020496E74657272B3
:10E20000757074006E6F20766563746F7200726A49
:10E210006D702020006A6D70200057686174207056
:10E220006F72743A00506F7274206E6F7420737541
:10E2300070706F72746564004D7573742062652030
:10E2400061206C6574746572002000577269747483
:10E25000696E672045450052656164696E672045B7
:10E26000450045452065727220636E743D00504F35
:10E27000525400303D5A65726F2061646472003FF1
:10E280003D43505520737461747300403D454550C3
:10E29000524F4D207465737400423D426C696E6B41
:10E2A000204C454400453D44756D70204545505215
:10E2B0004F4D00463D44756D7020464C415348001B
:10E2C000483D48656C70004C3D4C69737420492F83
:10E2D0004F20506F72747300513D51756974005234
:10E2E0003D44756D702052414D00563D73686F7707
:10E2F00020696E7465727275707420566563746FF0
:10E30000727300593D506F727420626C696E6B00BD
:10E310002A0011241FBECFEFD1E2DEBFCDBF01E046
:10E320000CBF12E0A0E0B2E0EEE1FDEF03E00BBFB6
:10E3300002C007900D92A030B107D9F712E0A0E01B
:10E34000B2E001C01D92AE30B107E1F70F9460F367
:10E350000D948DFE01E20EBF0FEF0DBF11241FBE05
:10E360000D9460F30D9400F020E030E040ED57E0B4
:10E3700005C0FA013197F1F72F5F3F4F2817390792
:10E38000C0F308959C01260F311DC901A0E0B0E043
:10E390002F5F3F4FABBFFC018791882361F08093D3
:10E3A000C6008091C00086FFFCCF8091C0008064D1
:10E3B0008093C000EACF08958DE08093C6008091DD
:10E3C000C00086FFFCCF8091C00080648093C000B5
:10E3D0008AE08093C6008091C00086FFFCCF8091C8
:10E3E000C00080648093C00008950F94C2F10F9420
:10E3F000DCF10895FC019081992359F09093C600B7
:10E400008091C00086FFFCCF8091C0008064809323
:10E41000C0003196992379F70895282F982F929567
:10E420009F70892F805D8A3308F0895F8093C600D2
:10E430008091C00086FFFCCF8091C00080648093F3
:10E44000C000822F8F70982F905D9A3308F0995FEB
:10E450009093C6008091C00086FFFCCF8091C000E1
:10E4600080648093C00008959C01FB01853691056E
:10E470001CF46330710594F0C90164E670E00F94F8
:10E480002EFE605D7F4F6093C6008091C00086FFC6
:10E49000FCCF8091C00080648093C0002B30310598
:10E4A00014F43297B4F0C90164E670E00F942EFEC4
:10E4B0006AE070E00F942EFE605D7F4F6093C600AF
:10E4C0008091C00086FFFCCF8091C0008064809363
:10E4D000C000C9016AE070E00F942EFEC0968093E0
:10E4E000C6008091C00086FFFCCF8091C000806490
:10E4F0008093C00008951F93182F8EE692EE60E07F
:10E500000F94C2F11093C6008091C00086FFFCCF2B
:10E510008091C00080648093C0000F94DCF11F9153
:10E5200008952F923F924F925F926F927F928F92B7
:10E530009F92AF92BF92CF92DF92EF92FF920F9392
:10E540001F93DF93CF93CDB7DEB762970FB6F894E2
:10E55000DEBF0FBECDBF382E622ECA01DB015C01CB
:10E560006D01772420E2222E2E010894411C511CBB
:10E570008BC081E0A81680E0B80681E0C80680E084
:10E58000D80628F0C601AA27BB270F940DF2BB2797
:10E59000AD2D9C2D8B2D0F940DF28A2D0F940DF225
:10E5A0002092C6008091C00086FFFCCF8091C00001
:10E5B00080648093C0009DE29093C6008091C0006B
:10E5C00086FFFCCF8091C00080648093C0002092C1
:10E5D000C6008091C00086FFFCCF8091C00080649F
:10E5E0008093C00019828601750188249924A1E0D6
:10E5F0003A1651F03A1620F0B2E03B1661F409C029
:10E600000BBFF701779007C0C7010F9477FE782EF4
:10E6100002C0F7017080872D0F940DF22092C60082
:10E620008091C00086FFFCCF8091C0008064809301
:10E63000C000872D8052F401EF70F0708F3520F408
:10E64000E40DF51D708204C0E40DF51D8EE280839B
:10E650000894E11CF11C011D111D0894811C911CE2
:10E6600090E18916910409F0C2CF80E190E0A0E02A
:10E67000B0E0A80EB91ECA1EDB1E198AC2010F9493
:10E68000FAF10F94DCF16A94662009F072CF629679
:10E690000FB6F894DEBF0FBECDBFCF91DF911F91B3
:10E6A0000F91FF90EF90DF90CF90BF90AF909F9031
:10E6B0008F907F906F905F904F903F902F90089534
:10E6C0002F923F924F925F926F927F928F929F9282
:10E6D000AF92BF92CF92DF92EF92FF920F931F9370
:10E6E000DF93CF93CDB7DEB7CD53D1400FB6F894BB
:10E6F000DEBF0FBECDBF01E20EBF0FEF0DBF94B75F
:10E70000F894A89514BE80916000886180936000A1
:10E7100010926000789493FF05C0E0910002F091A0
:10E7200001021995279A2F9A8091C00082608093E8
:10E73000C00080E18093C40088E18093C1000000A4
:10E74000EE24FF24870144E0A42EB12CCC24DD2448
:10E7500024C0C5010197F1F70894E11CF11C011DCB
:10E76000111D21E2E2162EE4F20620E0020720E06D
:10E77000120718F031E0C32ED12CC801B70127ECE5
:10E780003BE140E050E00F9441FE611571058105C9
:10E79000910519F485B1805885B98091C00087FD35
:10E7A00003C0C114D104A9F2A6014F5F5F4FC25E3E
:10E7B000DE4F59834883CE51D140C25EDE4F8881FF
:10E7C0009981CE51D140019711F00D9410FEC05D9A
:10E7D000DE4F19821882C053D14060E0C15DDE4F28
:10E7E0001882CF52D14088249924C35DDE4F19820C
:10E7F0001882CD52D140C05EDE4F188219821A8233
:10E800001B82C052D140CE5CDE4F188219821A8220
:10E810001B82C253D140EE24FF2487010BBFF701B6
:10E8200007911691C45CDE4F19830883CC53D14005
:10E830000D940BFEC25EDE4F28813981CE51D1404E
:10E840002130310509F52091C600C25EDE4F1982E4
:10E850001882CE51D14022C02F5F3F4F4F4F5F4FA4
:10E86000213082E138078AE7480780E0580780F0C6
:10E87000C45CDE4FE881F981CC53D140EF5FFF4F9C
:10E8800019F0EE27FF27099420E030E040E050E047
:10E890008091C00087FFE0CF2091C600C35DDE4FAE
:10E8A00048815981CD52D1404F5F5F4FC35DDE4FEC
:10E8B00059834883CD52D140213209F063C64A3092
:10E8C000510508F05FC60894811C911C53E0851621
:10E8D000910409F059C600E010E018C081E280936D
:10E8E000C6008091C00086FFFCCF8091C00080648C
:10E8F0008093C0002F5F3F4F2931310579F70F9486
:10E90000DCF10F5F1F4F0530110519F020E030E0FA
:10E91000E5CF10920A0210920B0210920C02109294
:10E920000D02109206021092070210920802109235
:10E930000902109202021092030210920402109235
:10E9400005028FEE90EE60E00F94F5F180E191EE1C
:10E9500060E00F94C2F18091C00087FFFCCF9091DE
:10E96000C600903608F09F759032B8F09093C600BC
:10E970008091C00086FFFCCF8091C00080648093AE
:10E98000C000A0E2A093C6008091C00086FFFCCF2B
:10E990008091C00080648093C000983409F4D7C18E
:10E9A0009934B8F4923409F459C1933458F490333B
:10E9B00019F1903308F4E3C59F33A1F1903409F0C5
:10E9C000DEC5BDC0953409F470C1963409F0D7C5D1
:10E9D00098C1923509F42BC2933538F49C3409F46C
:10E9E000F5C1913509F0CBC518C2963509F445C279
:10E9F000993509F0C4C567C483E792EE62E00F94CD
:10EA0000F5F110920602109207021092080210927D
:10EA1000090210920A0210920B0210920C0210923C
:10EA20000D0213C18FE792EE62E00F94F5F18FEEC5
:10EA300090EE60E00F94F5F181E291EE60E00F94CA
:10EA4000C2F187EB91EE60E00F94F5F180E391EE77
:10EA500060E00F94C2F184EE90EE60E00F94F5F167
:10EA60008FE391EE60E00F94C2F186E090E061E008
:10EA700070E00F9434F20F94DCF18DE591EE60E0DC
:10EA80000F94C2F189EC91EE60E00F94F5F18EE401
:10EA900091EE60E00F94C2F183EC91EE60E00F9490
:10EAA000F5F18CE691EE60E00F94C2F18EE10F94E7
:10EAB0000DF288E90F940DF281E00F940DF20F949E
:10EAC000DCF18BE791EE60E00F94C2F119E0E0E039
:10EAD000F0E010935700E4918E2F0F940DF20F94F5
:10EAE000DCF18AE891EE60E00F94C2F1E3E0F0E03F
:10EAF00010935700E4918E2F0F940DF20F94DCF1D8
:10EB000089E991EE60E00F94C2F1E2E0F0E0109349
:10EB10005700E4918E2F0F940DF20F94DCF188EAE8
:10EB200091EE60E00F94C2F1E1E0F0E01093570045
:10EB30001491812F0F940DF20F94DCF107CF8BE825
:10EB400092EE62E00F94F5F18BE492EE60E00F94A8
:10EB5000F5F10F94DCF100E010E019C0C8016F2D51
:10EB60000F947FFEFF2031F489E492EE60E00F9471
:10EB7000C2F10BC0F092C6008091C00086FFFCCFAE
:10EB80008091C00080648093C0000F5F1F4FC80158
:10EB900081519F41A0E0B0E0ABBFFC01F790BAE229
:10EBA000FB1621F0E2E000301E07C1F60F94DCF105
:10EBB0000F94DCF187E592EE60E00F94F5F10F948D
:10EBC000DCF1CC24DD2400E010E01EC0C8010F946D
:10EBD00077FEF82E882331F489E492EE60E00F94FA
:10EBE000C2F10BC08093C6008091C00086FFFCCFAD
:10EBF0008091C00080648093C000FE1419F00894D6
:10EC0000C11CD11C0F5F1F4FC80181519F41A0E063
:10EC1000B0E0ABBFFC01E790FAE2EF1621F022E092
:10EC20000030120799F60F94DCF10F94DCF182E6C4
:10EC300092EE60E00F94C2F1C60161E070E00F94C3
:10EC400034F20F94DCF10F94DCF110920202109276
:10EC50000302109204021092050278CE89E992EE26
:10EC600062E00F94F5F1279A2F9A16C02F9880E052
:10EC700090E0E0EDF7E03197F1F7019684369105E9
:10EC8000C1F72F9A80E090E0E0EDF7E03197F1F7DF
:10EC9000019684369105C1F78091C00087FFE6CFC9
:10ECA0008091C00087FFFCCF64C485EA92EE62E0E9
:10ECB0000F94F5F140910202509103026091040219
:10ECC0007091050281E020E10F9491F2809102029F
:10ECD00090910302A0910402B091050280509F4FD1
:10ECE000AF4FBF4F8093020290930302A0930402A0
:10ECF000B093050280509041A040B04008F426CE69
:10ED0000A4CF83EB92EE62E00F94F5F140910602FE
:10ED100050910702609108027091090280E020E1A1
:10ED20000F9491F28091060290910702A09108023F
:10ED3000B091090280509F4FAF4FBF4F80930602A2
:10ED400090930702A0930802B0930902FFCD80ECD4
:10ED500092EE62E00F94F5F183E792EE60E00F949B
:10ED6000F5F18FE792EE60E00F94F5F18BE892EE0B
:10ED700060E00F94F5F189E992EE60E00F94F5F10F
:10ED800085EA92EE60E00F94F5F183EB92EE60E09D
:10ED90000F94F5F180EC92EE60E00F94F5F187ECC2
:10EDA00092EE60E00F94F5F188ED92EE60E00F9442
:10EDB000F5F18FED92EE60E00F94F5F18AEE92EEB0
:10EDC00060E00F94F5F183E093EEBDCD87EC92EE19
:10EDD00062E00F94F5F181E40F947BF282E40F94EA
:10EDE0007BF283E40F947BF284E40F947BF285E45E
:10EDF0000F947BF286E40F947BF287E40F947BF20E
:10EE000088E40F947BF28AE40F947BF28BE40F94F6
:10EE10007BF28CE40F947BF299CD88ED92EE62E068
:10EE20000F94F5F1772473948824992409C48FED05
:10EE300092EE62E00F94F5F140910A0250910B02BC
:10EE400060910C0270910D0282E020E10F9491F22A
:10EE500080910A0290910B02A0910C02B0910D02D8
:10EE600080509F4FAF4FBF4F80930A0290930B0289
:10EE7000A0930C02B0930D0269CD8AEE92EE62E08F
:10EE80000F94F5F184EE90EE60E00F94F5F18FECC5
:10EE900091EE60E00F94F5F1662477244301CC5D98
:10EEA000DE4F19821882C452D140D401C301B695F5
:10EEB000A79597958795CA5DDE4F88839983AA8326
:10EEC000BB83C652D140CC5DDE4FA881B981C4520C
:10EED000D1401196CC5DDE4FB983A883C452D14096
:10EEE000CD0162E070E00F9434F2B0E2B093C6005E
:10EEF0008091C00086FFFCCF8091C0008064809329
:10EF0000C000EDE2E093C6008091C00086FFFCCF18
:10EF10008091C00080648093C000F0E2F093C6004E
:10EF20008091C00086FFFCCF8091C00080648093F8
:10EF3000C000CA5DDE4FE880F9800A811B81C6529D
:10EF4000D140BB27A12F902F8F2D0F940DF2CA5DBA
:10EF5000DE4F8881C652D1400F940DF2B0E2FB2EF5
:10EF6000F092C6008091C00086FFFCCF8091C00067
:10EF700080648093C0000DE30093C6008091C000C0
:10EF800086FFFCCF8091C00080648093C00010E2B7
:10EF90001093C6008091C00086FFFCCF8091C00016
:10EFA00080648093C0008BBEF3012791C65DDE4F65
:10EFB0002883CA52D140A22EBB24CC24DD2408943D
:10EFC000611C711C811C911C8BBEF3018791282E42
:10EFD0003324442455240894611C711C811C911C09
:10EFE0008BBEF3013791C55DDE4F3883CB52D140E4
:10EFF0000894611C711C811C911C8BBEF30147910C
:10F00000C45DDE4F4883CC52D140ADEFEA2EAFEF66
:10F01000FA2EAFEF0A2FAFEF1A2F6E0C7F1C801E57
:10F02000911E142D032DF22CEE24EA0CFB1C0C1D5A
:10F030001D1D0F940DF220E22093C6008091C000A8
:10F0400086FFFCCF8091C00080648093C000C65DC5
:10F05000DE4F8881CA52D1400F940DF230E23093D6
:10F06000C6008091C00086FFFCCF8091C000806404
:10F070008093C000C45DDE4F8881CC52D1400F9494
:10F080000DF240E24093C6008091C00086FFFCCFA5
:10F090008091C00080648093C000C55DDE4F888190
:10F0A000CB52D1400F940DF250E25093C6008091A4
:10F0B000C00086FFFCCF8091C00080648093C000B8
:10F0C0008FEFE8168FEFF80680E0080780E018075A
:10F0D00031F484E092EE60E00F94C2F1DFC0D80119
:10F0E000C7018070907CA070B0708050904CA040A0
:10F0F000B040D1F52FEF3FE340E050E0E222F322B1
:10F1000004231523CA5DDE4FA880B980CA80DB8046
:10F11000C652D140AE0CBF1CC01ED11EAA0CBB1CD7
:10F12000CC1CDD1C8EE092EE60E00F94C2F1BB2798
:10F13000A12F902F8F2D0F940DF28E2D0F940DF285
:10F1400030E23093C6008091C00086FFFCCF8091F2
:10F15000C00080648093C0004EE34093C60080915D
:10F16000C00086FFFCCF87C08EE09EEFA0E0B0E03D
:10F17000E822F9220A231B239CE0E91694E9F90608
:10F1800090E0090790E0190709F088C0C45DDE4FE0
:10F19000A881CC52D140EA2EFF2400E010E0102FCD
:10F1A0000F2DFE2CEE24C55DDE4FB881CB52D14031
:10F1B000EB0EF11C011D111DD601C501817090706F
:10F1C000A070B070DC0199278827E80EF91E0A1F8D
:10F1D0001B1F20EF30E040E050E0A222B322C42207
:10F1E000D52241E1AA0CBB1CCC1CDD1C4A95D1F7F1
:10F1F000EA0CFB1C0C1D1D1D81E090E0A0E0B0E0BE
:10F20000282239224A225B2235E1220C331C441C7D
:10F21000551C3A95D1F7E20CF31C041D151D57013E
:10F220006801AA0CBB1CCC1CDD1C85E192EE60E0E1
:10F230000F94C2F1C801AA27BB270F940DF2BB2778
:10F24000A12F902F8F2D0F940DF28E2D0F940DF274
:10F2500090E29093C6008091C00086FFFCCF809121
:10F26000C00080648093C000AEE3A093C60080918C
:10F27000C00086FFFCCF8091C00080648093C000F6
:10F28000C601AA27BB270F940DF2BB27AD2D9C2DDD
:10F290008B2D0F940DF28A2D0F940DF20F94DCF14B
:10F2A000CC5DDE4FE881F981C452D140F99709F471
:10F2B0004DCBF4E0EF2EF12C012D112D6E0C7F1CA7
:10F2C000801E911EF2CD83E093EE62E00F94F5F183
:10F2D0008AE192EE60E00F94C2F18091C00087FF56
:10F2E000FCCF1091C6001F751093C6008091C0001E
:10F2F00086FFFCCF8091C00080648093C0000F9493
:10F30000DCF1812F81548A3108F036C1163409F4BA
:10F3100095C0173490F4133409F44EC0143430F40B
:10F320001134F1F0123409F01DC130C0143409F465
:10F3300059C0153409F016C16BC01A3409F4C4C0A1
:10F340001B3438F4173409F48FC0183409F00AC19B
:10F35000A1C01B3409F4D2C01C3409F003C1E8C0B9
:10F360008FEF81B90DC082B1809582B980E090E0C5
:10F37000E0EDF7E03197F1F70196883C9105C1F790
:10F380008091C00087FFEFCF12B8EFC08FEF84B934
:10F390000DC085B1809585B980E090E0E0EDF7E0A3
:10F3A0003197F1F70196883C9105C1F78091C00033
:10F3B00087FFEFCF15B8D9C08FEF87B90DC088B1DF
:10F3C000809588B980E090E0E0EDF7E03197F1F7C3
:10F3D0000196883C9105C1F78091C00087FFEFCF6F
:10F3E00018B8C3C08FEF8AB90DC08BB180958BB9A7
:10F3F00080E090E0E0EDF7E03197F1F70196883C8E
:10F400009105C1F78091C00087FFEFCF1BB8ADC059
:10F410008FEF8DB90DC08EB180958EB980E090E0F0
:10F42000E0EDF7E03197F1F70196883C9105C1F7DF
:10F430008091C00087FFEFCF1EB897C08FEF80BBD1
:10F440000DC081B3809581BB80E090E0E0EDF7E0F6
:10F450003197F1F70196883C9105C1F78091C00082
:10F4600087FFEFCF11BA81C08FEF83BB0DC084B38C
:10F47000809584BB80E090E0E0EDF7E03197F1F714
:10F480000196883C9105C1F78091C00087FFEFCFBE
:10F4900014BA6BC08FEF809301010FC080910201FD
:10F4A00080958093020180E090E0E0EDF7E03197F5
:10F4B000F1F70196883C9105C1F78091C00087FF64
:10F4C000EDCF1092020151C08FEF809304010FC065
:10F4D0008091050180958093050180E090E0E0ED4A
:10F4E000F7E03197F1F70196883C9105C1F78091DB
:10F4F000C00087FFEDCF1092050137C08FEF8093DA
:10F5000007010FC08091080180958093080180E079
:10F5100090E0E0EDF7E03197F1F70196883C910536
:10F52000C1F78091C00087FFEDCF109208011DC088
:10F530008FEF80930A010FC080910B01809580931B
:10F540000B0180E090E0E0EDF7E03197F1F70196F4
:10F55000883C9105C1F78091C00087FFEDCF1092E4
:10F560000B0103C085E292EEEEC98091C00087FFD7
:10F57000FCCF8091C600EAC988E392EEE4C98CE131
:10F5800091EEE1C988249924933011F1943028F444
:10F59000913089F09230B8F408C0953061F195301F
:10F5A000F0F0963009F048C043C02B3109F042C951
:10F5B00091E06BE13FC96227C15DDE4F2883CF52E6
:10F5C000D14092E037C9B22FA0E0622793E032C960
:10F5D000822F90E0A82BB92B622794E02BC92E3004
:10F5E00009F039C3622795E0C05DDE4F19821882A9
:10F5F000C053D1401FC9E1E0F0E0EC0FFD1FC05D3A
:10F60000DE4F08811981C053D140E00FF11F2083E4
:10F610000F5F1F4FC05DDE4F19830883C053D14079
:10F6200062270A171B0709F005C9D80196E002C92D
:10F63000261709F010C303C0973009F0FBC87724E0
:10F640009981933109F412C19431C8F4963009F4C8
:10F65000D8C0973050F4923009F406C1933009F4C1
:10F660006DC0913009F059C253C0913109F477C08F
:10F67000923108F0BBC0903109F04FC2F5C098310B
:10F6800009F487C0993150F4953109F4EFC09531F0
:10F6900008F4C6C1963109F040C2C2C19A3109F4DA
:10F6A0006CC09A3108F491C09B3109F45BC09D3164
