:100000000C945C060C9484060C9484060C94AB232C
:100010000C94AB230C94AB230C9484060C948406B0
:100020000C9484060C9484060C9484060C94840628
:100030000C9484060C9484060C9484060C94840618
:100040000C94C4160C9484060C9400160C94DA15C7
:100050000C9484060C9484060C9484060C948406F8
:100060000C9499070C94840646696C65206E616D4A
:10007000652067656E6572617465643A2000496D3C
:1000800061676520636F756E7465722066696C6563
:10009000206E6F7420666F756E6400426567696ECE
:1000A00020696620636865636B00496D6167652040
:1000B000636F756E7465722066696C6520666F7516
:1000C0006E64004F70656E696E67207468652069A4
:1000D0006D61676520636F756E7465722066696C0B
:1000E0006500456E642066756E6374696F6E0042CC
:1000F0007265616B696E6720746865206C6F6F70E4
:100100000041434B20494D470057726974696E673F
:100110002032353620627974657300426567696EF6
:10012000207772697465206F7065726174696F6E93
:100130000046696C65206F70656E65642073756339
:100140006365737366756C6C790046696C65206FC6
:1001500070656E206661696C6564004F70656E2025
:100160007265717565737465640053697A65206999
:100170007320302E004F7665722073697A652E00E9
:100180004D41582073697A6500426567696E6E69F2
:100190006E6720746F2072656164207769746820CF
:1001A0006C656E677468005265636F72642076696F
:1001B00064656F204F4B2E005265636F7264696EE9
:1001C0006720766964656F2C20706C6561736520AB
:1001D000776169742E2E2E005200490046004600B9
:1001E000D80001000E000000410056004900200028
:1001F0004C00490053005400D000000000000000F3
:100200006800640072006C0061007600690068009C
:100210003800000000000000A0008600010000007F
:1002200080006600010000000000000000000000E7
:10023000100000000000000064000000000000004A
:1002400000000000000000000100000000000000AD
:10025000000000000000000040000100000000005D
:10026000F00000000000000000000000000000009E
:10027000000000000000000000000000000000007E
:1002800000000000000000004C0049005300540032
:1002900084000000000000007300740072006C0015
:1002A000730074007200680030000000000000005D
:1002B00076006900640073004D004A00500047005A
:1002C000000000000000000000000000000000002E
:1002D000000000000000000001000000000000001D
:1002E0000500000000000000000000000000000009
:1002F0000A000000000000000000000000000000F4
:1003000000000000000000000000000000000000ED
:1003100073007400720066002800000000000000F6
:100320002800000000000000400001000000000064
:10033000F0000000000000000100000018000000B4
:100340004D004A00500047000000840003000000F8
:10035000000000000000000000000000000000009D
:10036000000000000000000000000000000000008D
:100370004C00490053005400100000000000000031
:100380006F0064006D006C0064006D006C0068001C
:1003900004000000000000006400000000000000F5
:1003A0004C00490053005400000001000E00000002
:1003B0006D006F0076006900566964656F204669BC
:1003C0006C65206F70656E206661696C656400E025
:1003D000001400E1007700E5001F00D7000300DAF9
:1003E000001000E0000000FF00010004000800FF12
:1003F00000FF00FF00000005000000DA001000D739
:10040000000300DF000000330080003C004000E1FA
:1004100000770000000000FF00FF00FF0000002C3C
:1004200000FF002E00DF00FF0001003C0032001141
:1004300000000009000200040028001300E5001479
:100440000048002C000C00330078003A0033003BD9
:1004500000FB003E000000430011001600100039B0
:100460000092003500DA0022001A003700C3002392
:100470000000003400C00036001A000600880007A3
:1004800000C0000D0087000E0041004C0000004835
:100490000000005B000000420003004A00810021D0
:1004A0000099002400400025003800260082005CEE
:1004B0000000006300000061007000620080007CAA
:1004C00000050020008000280030006C0000006D56
:1004D0000080006E00000070000200710094007344
:1004E00000C100120040001700110018004300195D
:1004F0000000001A004B00320009003700C0004F16
:100500000060005000A8006D0000003D003800466B
:10051000003F004F0060000C003C00FF000000E5C1
:10052000007F00F900C00041002400E000140076C4
:1005300000FF003300A00042002000430018004CE0
:100540000000008700D50088003F00D7000300D9D5
:10055000001000D3008200C8000800C90080007CA1
:100560000000007D0000007C0003007D0048007D4D
:100570000048007C0008007D0020007D0010007D08
:10058000000E009000000091000E0091001A0091F2
:1005900000310091005A00910069009100750091AE
:1005A000007E009100880091008F009100960091DC
:1005B00000A3009100AF009100C4009100D700910A
:1005C00000E80091002000920000009300060093D4
:1005D00000E30093000500930005009300000093E2
:1005E00000040093000000930000009300000093BB
:1005F00000000093000000930000009300000096AC
:10060000000000970008009700190097000200976B
:10061000000C0097002400970030009700280097F6
:10062000002600970002009700980097008000972E
:1006300000000097000000C300ED00A4000000A827
:10064000000000C5001100C6005100BF008000C7B7
:10065000001000B6006600B800A500B7006400B93D
:10066000007C00B300AF00B4009700B500FF00B0FD
:1006700000C500B1009400B2000F00C4005C00C0CF
:10068000006400C1004B008C00000086003D00505B
:100690000000005100C800520096005300000054B2
:1006A000000000550000005A00C8005B0096005C86
:1006B000000000D3000000C300ED007F000000DA5E
:1006C000000000E5001F00E1006700E0000000DD21
:1006D000007F000500000012004000D3000400C0AD
:1006E000001600C10012008C00000086003D005082
:1006F00000000051002C0052002400530000005460
:10070000000000550000005A002C005B0024005C33
:10071000000000FF00FF00FF0000002C00FF002E83
:1007200000DF00FF0001003C003200110000000962
:100730000002000400A8001300E500140048002C8B
:10074000000C00330078003A0033003B00FB003E11
:1007500000000043001100160010003900020035AF
:1007600000880022000A0037004000230000003407
:1007700000A00006000200060088000700C0000D6F
:1007800000B7000E0001004C0000004A008100216B
:100790000099002400400025003800260082005CFB
:1007A00000000063000000460022000C003A005DDB
:1007B0000055005E007D005F007D00600055006117
:1007C000007000620080007C00050020008000288E
:1007D0000030006C0000006D0080006E00000070B2
:1007E000000200710094007300C1003D003400124B
:1007F0000004005A0057004F00BB0050009C00FF4F
:10080000000000E5007F00F900C00041002400E086
:100810000014007600FF003300A0004200200043D7
:100820000018004C0000008700D00088003F00D76F
:10083000000300D9001000D3008200C8000800C9DE
:100840000080007C0000007D0000007C0003007D33
:100850000048007D0048007C0008007D0020007DED
:100860000010007D000E009000000091000E00912D
:10087000001A009100310091005A00910069009126
:1008800000750091007E009100880091008F00911A
:100890000096009100A3009100AF009100C4009168
:1008A00000D7009100E80091002000920000009322
:1008B0000006009300E300930003009300030093FD
:1008C00000000093000200930000009300000093DA
:1008D00000000093000000930000009300000093CC
:1008E000000000960000009700080097001900978C
:1008F00000020097000C009700240097003000973A
:1009000000280097002600970002009700980097A3
:100910000080009700000097000000A4000000A8DD
:10092000000000C5001100C6005100BF008000C7D4
:10093000001000B6006600B800A500B7006400B95A
:10094000007C00B300AF00B4009700B500FF00B01A
:1009500000C500B1009400B2000F00C4005C00A606
:10096000000000A7002000A700D800A7001B00A7D8
:10097000003100A7000000A7001800A7002000A772
:1009800000D800A7001900A7003100A7000000A7A9
:10099000001800A7002000A700D800A7001900A792
:1009A000003100A7000000A70018007F000000E54C
:1009B000001F00E1007700DD007F00C2000E00FF95
:1009C000000000E0000400C000C800C100960086DE
:1009D000003D005100900052002C005300000054D4
:1009E0000000005500880057000000500092005A97
:1009F0000050005B003C005C000000D3000400E0FD
:100A0000000000FF00000005000000DA000800D729
:100A1000000300E000000005000000FF00FF00FFF1
:100A200000010012004000170011001800430019D7
:100A30000000001A004B00320009004F00CA0050AD
:100A400000A8005A0023006D000000390012003594
:100A500000DA0022001A003700C30023000000342F
:100A600000C00036001A00060088000700C0000D14
:100A70000087000E0041004C000000FF000000E075
:100A8000000400C0006400C1004B00860035005027
:100A90000089005100C80052009600530000005425
:100AA00000000055000000570000005A0050005B95
:100AB000003C005C000000E0000000FF00FF00417F
:100AC000434B20434D44204F56323634302064652A
:100AD0007465637465642E0041434B20434D44208C
:100AE00043616E27742066696E64204F5632363437
:100AF00030206D6F64756C65210041434B20434D80
:100B0000442053504920696E7465726661636520A4
:100B10004F4B2E0041434B20434D4420535049201E
:100B2000696E74657266616365204572726F7221C9
:100B300000496D61676520636F756E74657220662C
:100B4000696C65206F70656E206661696C65640014
:100B5000656E640053746F7265642076616C7565B0
:100B60003A00534420496E697469616C697A617412
:100B7000696F6E20636F6D706C65746500534420FF
:100B8000496E697469616C697A6174696F6E206617
:100B900061696C656400496E697469616C697A6940
:100BA0006E6720534420636172640041434B2043CD
:100BB0004D44204172647543414D205374617274F9
:100BC000210053746172742053657269616C2061F5
:100BD000742039323136303000456E746572656488
:100BE0002066696C65206E616D6520707265736545
:100BF0006E7400456E746572656420626974206D60
:100C000061737400456E746572656420636170740D
:100C1000757265206D6F6465203200426567696E8C
:100C2000207468652074696D6572005072696E7415
:100C3000696E672074696D653A0041434B20434DEE
:100C4000442043414D204361707475726520446FA8
:100C50006E652E0000000000240027002A0001021B
:100C6000040810204080010204081020010204083A
:100C7000102000000000250028002B0004040404BC
:100C80000404040402020202020203030303030336
:100C90007C3C3E5E2B3D3F2F5B5D3B2C2A225C0063
:100CA000000000080002010000030407000000002B
:100CB00000000000B82B4E2611241FBECFEFD8E055
:100CC000DEBFCDBF11E0A0E0B1E0E2EEFEE502C084
:100CD00005900D92AE3DB107D9F726E0AEEDB1E03B
:100CE00001C01D92A130B207E1F716E0CBE5D6E0D6
:100CF00004C02197FE010E94582ECA35D107C9F7BA
:100D00000E9452260C94642F0C94000085ED809371
:100D1000BC008091BC0084FDFCCF10927B02089542
:100D200040910B02262F30E0240F311D2132310576
:100D3000DCF420917B022430C9F4FC0180E090E0D7
:100D4000861758F430910B022191DC01A751BE4F58
:100D5000A30FB11D2C930196F3CF80910B02680F66
:100D600060930B0280E0089581E0089582E0089589
:100D70000895E091340280913302E81730F4F0E0F6
:100D8000EB5CFD4F808190E008958FEF9FEF089519
:100D90009091340280913302981750F4E92FF0E0DB
:100DA000EB5CFD4F208130E09F5F9093340202C0E6
:100DB0002FEF3FEFC90108958091330290E0209119
:100DC0003402821B91090895CF92DF92EF92FF9235
:100DD0000F931F93CF93DF937C01262F972F8A01C8
:100DE00080917C02882391F0C62FD72F6E01C40E0C
:100DF000D51ECC15DD0571F06991D701ED91FC91FF
:100E00000190F081E02DC7010995F3CF642F822F67
:100E10000E949006C801DF91CF911F910F91FF9022
:100E2000EF90DF90CF900895CF93DF931F92CDB7CF
:100E3000DEB7698320917C022223D1F020919E02AB
:100E4000203240F021E030E0FC013383228380E057
:100E500090E015C080917D02E82FF0E0E258FD4F50
:100E6000998190838F5F80937D0280939E0205C05D
:100E700061E0CE0101960E94900681E090E00F9023
:100E8000DF91CF910895CF93DF93EC01FB01828135
:100E900093819B838A8384819581A681B7818C838A
:100EA0009D83AE83BF8380859185A285B385888726
:100EB0009987AA87BB8784E191E0998388838DE035
:100EC0003C96DE011C9601900D928A95E1F7FB019C
:100ED000818D928D9A8F898FDF91CF91089508959A
:100EE00080E090E00895CF92DF92EF92FF92CF934F
:100EF000DF936B017C01EA01CA010E94B41D9927AE
:100F00008F2D7E2D6D2DCE010E94B41DB701882737
:100F10009927CE010E94B41D6F2D77278827992726
:100F2000CE01DF91CF91FF90EF90DF90CF900C94A6
:100F3000B41D1F920F920FB60F9211242F933F935F
:100F40004F935F936F937F938F939F93AF93BF93D1
:100F5000EF93FF938091B900887F803609F49CC09D
:100F600068F5883209F45BC090F4803109F454C00C
:100F700038F4882309F4F6C0883009F44DC0F6C06F
:100F8000883109F44CC0803209F45DC0EFC0803470
:100F900009F468C048F4803309F455C0883309F077
:100FA000E5C080937902D8C0803509F44FC08835F8
:100FB00009F45DC0883409F0D9C0D6C0883909F475
:100FC000C7C0A8F4883709F467C038F4883609F434
:100FD00063C0803709F460C0C9C0883809F4B8C05C
:100FE000803909F45FC0803809F0C0C05BC0803B25
:100FF00009F486C038F4803A09F466C0883A09F4E6
:101000007FC0B4C0803C09F4A7C0883C09F4A4C0E8
:10101000883B09F48AC0AAC08091560210C0909102
:10102000780280917702981770F5E091780281E05C
:101030008E0F80937802F0E0E95AFD4F8081809313
:10104000BB0085EC86C0809379028EC0E091780267
:1010500081E08E0F809378028091BB00F0E0E95A26
:10106000FD4F808390917802809177026EC0E0916D
:10107000780281E08E0F809378028091BB00F0E0CF
:10108000E95AFD4F808380917A0281116DC081E021
:101090008093550284EA61C083E080937B021092C2
:1010A0002F02CFCF80912F02803208F051C0E09103
:1010B0002F0281E08E0F80932F028091BB00F0E021
:1010C000E15FFD4F8083BDCF85EC8093BC00109223
:1010D0007B0280912F02803230F4E0912F02F0E009
:1010E000E15FFD4F108260912F0270E0E0910D02F0
:1010F000F0910E028FE092E0099510922F0236C017
:1011000084E080937B0210920C0210920B02E0911B
:101110000902F0910A02099580910B02811105C024
:1011200081E080930B021092E901E0910C0281E0D2
:101130008E0F80930C02F0E0E751FE4F8081809388
:10114000BB0090910C0280910B02981708F479CFA4
:1011500085E88093BC000AC085EC8093BC001092A7
:101160007B0204C0109279020E948606FF91EF91E3
:10117000BF91AF919F918F917F916F915F914F91AF
:101180003F912F910F900FBE0F901F901895AF9227
:10119000BF92CF92DF92EF92FF920F931F93CF9364
:1011A000DF93CDB7DEB7E9970FB6F894DEBF0FBE79
:1011B000CDBF7C01D62E8091000190910101019656
:1011C000909301018093000183EC90E00E945C12F7
:1011D0008091FD059091FE058E010F5F1F4F0097D6
:1011E00021F4C8018150964004C09801281B390B96
:1011F000C9019A83898369817A818FE992E00E948B
:10120000DF1281EE93E00E941A136091E103709166
:10121000E20342E5C8010E94E01060910001709174
:1012200001018FE992E00E94DF12EA8DFB8D309779
:1012300031F18581882319F18AEA90E00E945C12DD
:101240006091000170910101C8010E94DF12C80184
:101250000E94192260E771E0CE018E960E94D92586
:101260008BE990E00E945C12DD2099F044E050E0B0
:1012700065E771E0CE018E960E949C250AC08EE73C
:1012800090E00E945C126BEC71E0C7010E94D925CE
:1012900075C088E690E00E945C12809100019091F8
:1012A00001011DAA1CAA1FAA1EAA19AE18AE8E0102
:1012B000045E1F4F4AE0B8010E949B2DF801019087
:1012C0000020E9F73197AF01401B510BB801CE0167
:1012D000C4960E949C258AA99BA9AEA4BFA4C8ACB1
:1012E000D9ACA114B10409F444C00097A1F0C80E10
:1012F000D91EB601CE01C4960E9463258823C9F188
:101300002CA93DA988AD99ADB501820F931F0E940C
:101310004E2FD9AEC8AE1D8E1C8E1F8E1E8E19A2EA
:1013200018A2BE016C5C7F4FC8010E94BD25CE0192
:10133000C4960E94D425C8010E941A138C8D9D8DDD
:10134000F701918380838E8D9F8D9383828388A103
:1013500099A1958384831D8E1C8E1F8E1E8E19A2CB
:1013600018A2C8010E94D425CE018E960E94D425D1
:1013700005C0CE01C4960E948A25CDCFC701E9964B
:101380000FB6F894DEBF0FBECDBFDF91CF911F9196
:101390000F91FF90EF90DF90CF90BF90AF900895A6
:1013A0008EBD00000DB407FEFDCF8EB5089561150A
:1013B000710579F0FB0101900020E9F73197AF0149
:1013C000461B570BDC01ED91FC910280F381E02D6F
:1013D000099480E090E008952F923F924F925F929F
:1013E0006F927F928F929F92AF92BF92CF92DF9235
:1013F000EF92FF920F931F93CF93DF93CDB7DEB79A
:10140000CE53D1400FB6F894DEBF0FBECDBFCD5F37
:10141000DE4F19821882C350D14088EE93E0A0E0DD
:10142000B0E0CB5FDE4F88839983AA83BB83C5502E
:10143000D14084E191E0CF5FDE4F99838883C15032
:10144000D140C65EDE4F19821882CA51D140C35FB7
:10145000DE4F1882CD50D1400E94132465E070E029
:1014600080E090E00E9484136AE070E080E090E009
:101470000E94841385E6809353038091530383363F
:1014800009F43FC0853699F580914E0390914F0342
:10149000A0915003B09151030196A11DB11D8093FD
:1014A0004E0390934F03A0935003B0935103409188
:1014B0004A0350914B0360914C0370914D03452BAF
:1014C000462B472B21F4892B8A2B8B2B81F480E030
:1014D0000E948D13882329F087E00E943C140E940B
:1014E0002A1464EF71E080E090E00E945D136AE0EE
:1014F00070E080E090E00E94841387E00E94C213B5
:10150000BACF0E94B816609342037093430380934E
:1015100044039093450361E0CE01895C9E4F0E9495
:10152000C708C95CDE4F68817981C753D14042E565
:10153000CE0101960E94E0108B819C81CD5FDE4F31
:1015400099838883C350D1408D819E81AF81B885B6
:10155000CB5FDE4F88839983AA83BB83C550D1407C
:1015600089859A85AB85BC85C75FDE4F8883998363
:10157000AA83BB83C950D1408DE0FE013D96A1E016
:10158000B1E0AC0FBD1F1C9601900D928A95E1F75A
:10159000EA8DFB8DC65EDE4FF983E883CA51D140E8
:1015A000309719F08581811105C088EB93E00E9486
:1015B0005C12FFCF80E090E020E030E0F901E852DB
:1015C000FE4FE491A1E0B0E0AC0FBD1FA80FB91F22
:1015D000EC9301962E5F3F4F803F910579F79093F2
:1015E000E8018093E70140EF50E0BE016F5F7F4F5D
:1015F000CE018F5F9E4F0E94D21D88EB91E00E942A
:101600005C1282E3A82EB12C10E008ED88248394AC
:10161000912C2CEF422E55245A94652C752C41E0C8
:1016200050E064E870E08BED93E00E9427178BEDAB
:1016300093E00E948B1742E050E064E870E08BED8D
:1016400093E00E94271761E470E08BED93E00E9425
:101650000E1783FFF8CF8BED93E00E946617362FAD
:10166000272F1C016AE771E0CE018F5F9E4FC25C9D
:10167000DE4F2883CE53D140C35CDE4F3883CD5339
:10168000D1400E94D70944E050E06CE071E0CE0107
:101690008F5F9E4F0E94D21D1092E8011092E701C9
:1016A0001092E3011092E4011092E5011092E6011C
:1016B0008BED93E00E9451178CE30E94D009C35C2C
:1016C000DE4F3881CD53D140C32EC25CDE4F28811E
:1016D000CE53D140D22E710190E0C114D104E10467
:1016E000F10409F4D8C080E0C35CDE4F9883CD5389
:1016F000D1400E94D009382EC35CDE4F9881CD5373
:10170000D14029ED821356C09F3F09F063C28091FA
:10171000E7019091E801AC014F5F5F4F5093E80102
:101720004093E701E1E0F0E0EC0FFD1FE80FF91F47
:1017300030828BED93E0C35CDE4F4883CD53D140C4
:10174000C25CDE4F5883CE53D1400E945C17C35C0D
:10175000DE4F4881CD53D140C25CDE4F5881CE531D
:10176000D140BE016F5F7F4FCE018F5F9E4F0E94C1
:10177000D21D8091E7019091E801092E000CAA0B7F
:10178000BB0B4091E3015091E4016091E501709140
:10179000E601840F951FA61FB71F8093E301909366
:1017A000E401A093E501B093E6011092E8011092E4
:1017B000E7014DC0112309F445C08091E7019091E4
:1017C000E8018F3F910509F07CF49C012F5F3F4FAA
:1017D0003093E8012093E701E1E0F0E0EC0FFD1F1A
:1017E000E80FF91F30824FC08BED93E00E945C1729
:1017F00040E051E0BE016F5F7F4FCE018F5F9E4F93
:101800000E94D21D9092E8018092E70139828BED0F
:1018100093E00E9451178CE30E94D0098091E3016C
:101820009091E401A091E501B091E6019F5FAF4F77
:10183000BF4F8093E3019093E401A093E501B0933F
:10184000E60121C088ED381202C09F3F11F010E080
:101850001BC08091E7019091E801E1E0F0E0EC0F1E
:10186000FD1FE80FF91F2FEF20839C012E5F3F4FD4
:101870003093E8012093E701E2E0F0E0EC0FFD1F78
:10188000E80FF91F008311E081E0C81AD108E108D0
:10189000F108932D22CF8091E3019091E401A09172
:1018A000E501B091E601482F41954370840F911DE9
:1018B000A11DB11D8093E3019093E401A093E50184
:1018C000B093E601C090DF01D090E001E090E1012B
:1018D000F090E2018C0D9D1DAE1DBF1D8093DF01B8
:1018E0009093E001A093E101B093E201442341F021
:1018F00050E06CE071E0CE018F5F9E4F0E94D21DE0
:10190000C65EDE4FE881F981CA51D140309729F097
:10191000428553856485758503C04FEF5FEFBA013B
:10192000C090E301D090E401E090E501F090E60181
:10193000D301C2018C199D09AE09BF09480F591F77
:101940006A1F7B1FCE018F5F9E4F0E942B22BE011C
:101950006F5F7E4FCE01845E9E4F0E944307AE01B3
:10196000445E5E4FC701B6010E947307C65EDE4F3C
:10197000E881F981CA51D140309729F042855385D9
:101980006485758503C04FEF5FEFBA014A5F5F4F13
:101990006F4F7F4FCE018F5F9E4F0E942B2244E0FE
:1019A00050E06FE771E0CE018F5F9E4F0E94D21D25
:1019B000C65EDE4FE881F981CA51D140309729F0E7
:1019C00082859385A485B58503C08FEF9FEFDC01E9
:1019D0004091E3015091E4016091E5017091E601CD
:1019E0004A50510961097109480F591F6A1F7B1F2D
:1019F000CE018F5F9E4F0E942B2221E0A21AB108D8
:101A000009F00DCE44E050E060E070E0CE018F5F61
:101A10009E4F0E942B22BE016F5F7E4FCE01845EDF
:101A20009E4F0E9443078091DF019091E001A091B9
:101A3000E101B091E201BC01CD01645A7D4F8F4FAD
:101A40009F4FAE01445E5E4F0E94730740E250E03C
:101A500060E070E0CE018F5F9E4F0E942B22BE019E
:101A60006F5F7E4FCE01845E9E4F0E944307AE01A2
:101A7000445E5E4F60E47DE083E090E00E94730787
:101A80002091DF013091E0014091E1015091E201AC
:101A9000A5E0B0E00E94072E22E330E040E050E0F5
:101AA0000E94E52D69017A0144E250E060E070E0B7
:101AB000CE018F5F9E4F0E942B22BE016F5F7E4F33
:101AC000CE01845E9E4F0E944307AE01445E5E4F8E
:101AD000C701B6010E94730740E350E060E070E088
:101AE000CE018F5F9E4F0E942B22BE016F5F7E4F03
:101AF000CE01845E9E4F0E944307AE01445E5E4F5E
:101B000062E370E080E090E00E94730740EE50E0F6
:101B100060E070E0CE018F5F9E4F0E942B22BE01DD
:101B20006F5F7E4FCE01845E9E4F0E944307AE01E1
:101B3000445E5E4F62E370E080E090E00E947307D5
:101B400048EE50E060E070E0CE018F5F9E4F0E9453
:101B50002B22BE016F5F7E4FCE01845E9E4F0E949E
:101B600043076091DF017091E0018091E101909164
:101B7000E201AE01445E5E4F0E9473078BED93E07D
:101B80000E945C17CE018F5F9E4F0E94192287EA48
:101B900091E00E945C12CE01895C9E4F0E94D42588
:101BA000C25CDE4F0FB6F894DEBF0FBECDBFDF9133
:101BB000CF911F910F91FF90EF90DF90CF90BF904A
:101BC000AF909F908F907F906F905F904F903F90DD
:101BD0002F9008951111F1CD3ACE2F923F924F924E
:101BE0005F926F927F928F929F92AF92BF92CF92AD
:101BF000DF92EF92FF920F931F93CF93DF93CDB7B6
:101C0000DEB7C752D1400FB6F894DEBF0FBECDBFCE
:101C1000CE5DDE4F4883C252D140CD5DDE4F58834A
:101C2000C352D140CC5DDE4F6883C452D140CB5DFE
:101C3000DE4F7883C552D140CA5DDE4F8883C652DD
:101C4000D140C95DDE4F9883C752D14079016BEC1A
:101C500071E0CE01845E9E4F0E94D925CE018E5D3B
:101C60009E4F0E9466172B013C0189E891E00E947B
:101C70005C12C301B2010E94372680E891E00E9405
:101C80005C122AE04FEF5FEF65E070E08FE992E0D1
:101C90000E94EE2569EC71E08FE992E00E94D7097D
:101CA0008FEF4816580685E06806710480F085E7D6
:101CB00091E00E945C12002341F0CE018E5D9E4FA8
:101CC0000E948B1782E08093300210E0DDC1411446
:101CD00051046104710419F48AE691E0EACFB70176
:101CE000CE01845E9E4F0E94BD25CE01845E9E4F34
:101CF0000E941A13C45EDE4F68817981CC51D140B5
:101D000043E1CE018F5F9E4F0E94E0108BE591E092
:101D10000E945C12C65EDE4FE881F981CA51D14053
:101D2000309719F08581811105C08AE491E00E9405
:101D30005C12CBCF81E391E00E945C126091DE01E6
:101D400070E08FE992E00E94DF128BE191E00E9447
:101D50005C12CE018E5D9E4F0E9451178CE30E9453
:101D6000D00980E00E94D009282EC12CD12C760108
:101D70009924939488248A9498ED392EAA24A394C4
:101D8000BA2CAC0EBD1E8CE0A80EB11C81E048162A
:101D900051046104710409F461C180E00E94D0091A
:101DA000182F8091DE01882309F404C18FEFC81633
:101DB000D104E104F10409F068F4E1E0F0E0EC0F93
:101DC000FD1FEC0DFD1D10838FEFC81AD80AE80A1D
:101DD000F80A14C1CE018E5D9E4F0E945C170E94CE
:101DE000132480E00E948D138823A1F085E00E94D7
:101DF0003C1464E871E080917E0390917F030E941F
:101E00004C26B50180917E0390917F030E944C2661
:101E10000E942A1465E070E080E090E00E94841344
:101E20000E94B81660934203709343038093440367
:101E30009093450340E051E0BE016F5F7F4FCE01BC
:101E40008F5F9E4F0E94D21D0E94132480E00E944B
:101E50008D13882309F48CC084E00E943C1464E84C
:101E600071E080917E0390917F030E944C266981EE
:101E700080917E0390917F030E94861364E871E055
:101E800080917E0390917F030E944C266A8180910D
:101E90007E0390917F030E94861364E871E0809135
:101EA0007E0390917F030E944C266B8180917E037C
:101EB00090917F030E94861364E871E080917E0315
:101EC00090917F030E944C266C8180917E039091BB
:101ED0007F030E94861364E871E080917E039091F5
:101EE0007F030E944C266D8180917E0390917F0339
:101EF0000E94861364E871E080917E0390917F03D5
:101F00000E944C266E8180917E0390917F030E94F7
:101F1000861364E871E080917E0390917F030E94B4
:101F20004C266F8180917E0390917F030E948613DF
:101F300064E871E080917E0390917F030E944C26BB
:101F4000688580917E0390917F030E94861364E8E8
:101F500071E080917E0390917F030E944C266985F9
:101F600080917E0390917F030E9486130E942A1421
:101F700065E070E080E090E00E9484130E94B81653
:101F8000609342037093430380934403909345030B
:101F9000198389E091E00E945C12CE018E5D9E4F14
:101FA0000E9451178CE30E94D009C12CD12C7601DC
:101FB000C39424C0183D11F58FEF281248C09092A9
:101FC000DE0181E091E00E945C12E1E0F0E0EC0FC4
:101FD000FD1FEC0DFD1D8082D701C6010196A11DDC
:101FE000B11DE1E0F0E0EC0FFD1FE80FF91F82E00A
:101FF000C80ED11CE11CF11C308229C0193D39F5F5
:102000008FEF281224C0E1E0F0E0EC0FFD1FEC0D93
:10201000FD1D1083CE018E5D9E4F0E945C17B7019F
:10202000A6014F5F5F4F6F4F7F4FBE016F5F7F4FC6
:10203000CE018F5F9E4F0E94D21DCE018F5F9E4FBB
:102040000E9419228FEE90E00E945C1207C081E08E
:10205000481A510861087108212E98CECE018E5D74
:102060009E4F0E945C1782EE90E00E945C1200235B
:1020700041F0CE018E5D9E4F0E948B1782E08093CF
:1020800030021092DE0111E0CE01845E9E4F0E946C
:10209000D425812FC95DDE4F0FB6F894DEBF0FBE89
:1020A000CDBFDF91CF911F910F91FF90EF90DF9007
:1020B000CF90BF90AF909F908F907F906F905F90E8
:1020C0004F903F902F900895382F20919E0290912D
:1020D000E703213208F049C080917B028111FCCFD7
:1020E00042E040937B0230937A023FEF30937902D3
:1020F0001092780220937702AEE7B2E047E552E013
:10210000FA013E2F341B321718F43D913193F9CF69
:102110001092560220915602990F922B90935602DC
:1021200090915502913061F41092550290915602AF
:102130009093BB009091BC0093FDF8CF95EC01C04B
:1021400095EE9093BC0090917B029230E1F39091D8
:1021500079029F3F79F080917902803241F080913D
:102160007902803331F084E005C081E003C082E071
:1021700001C083E010927D0210929E0210927C02B8
:10218000089590E0FC01E25AF34F2491FC01E458D9
:10219000F34F8491882399F090E0880F991FFC01F8
:1021A000EC5AF34FA591B491FC01EE58F34F859191
:1021B00094918FB7F894EC91E22BEC938FBF089534
:1021C0002F923F924F925F926F927F928F929F9247
:1021D000AF92BF92CF92DF92EF92FF920F931F9335
:1021E000CF93DF93CDB7DEB7C756D1090FB6F894BA
:1021F000DEBF0FBECDBF5C014B01A6964FAFA697C9
:102200003E018EE1680E711C60EB73E0C3010E9419
:10221000C8211C821B8288E391E09A8389831E82F5
:1022200064018E010F5F1F4F230118016FE270E000
:10223000C6010E94432F009709F442C0F601208195
:102240002F3221F4FFEFCF1ADF0AF0CF8C198D3037
:1022500008F08CE0E82EF12CA701B601CE01885AD7
:102260009F4F0E94552FE8E5F0E0EC0FFD1FEE0DAB
:10227000FF1D1082C8010E94F61EF8018581882387
:1022800051F01EAE1DAE88E391E09CAF8BAF21965E
:102290001FAE219721C021E0AE01485A5F4FB20125
:1022A000C8010E946719882361F3CE0CDF1CC201AC
:1022B0000E94F61E942D852D2801092F182FB6CFC8
:1022C000C60188199909A8969FAF8EAFA897B20149
:1022D000CE01CB960E94C821A896EEADFFADA8977F
:1022E0008E0E9F1EF4018081811109C0BE01655CC4
:1022F0007F4FC1010E94C8214AEB51E04BC019A297
:1023000018A288E391E09F8F8E8F1BA221968FAD3C
:102310002197811113C0F5011382128288EE93E098
:10232000A0E0B0E084839583A683B78384E191E045
:1023300091838083128E118E148630C08250A696AF
:102340002FADA697A401823040F460EB73E0C30187
:102350000E94671981110DC0DECFBE01655C7F4F01
:10236000C3010E9467198823B1F2CE01CB960E9467
:10237000F61EA6968FADA697867039F049A95AA980
:102380006BA97CA9C3010E945C1BB301C1010E941F
:10239000C821A401B101C5010E943822C501C95953
:1023A000DF4F0FB6F894DEBF0FBECDBFDF91CF91E8
:1023B0001F910F91FF90EF90DF90CF90BF90AF9063
:1023C0009F908F907F906F905F904F903F902F9055
:1023D0000895CF93C62F2091E00330E035952795DF
:1023E00091E090937C022093E70310927D0210927B
:1023F0009E02682F8FEC93E00E9414076C2F8FECE5
:1024000093E00E94140781E00E946410811108C0CB
:1024100061E070E080E090E00E947E1681E001C003
:1024200080E0CF910895EF92FF920F931F93CF9387
:10243000DF93EC01E12CF12C00E010E08FEFE816C7
:10244000F10469F0FE0105911491FE013296E590C8
:10245000F490B701C8010E94E9112496EFCF0F3F15
:10246000110581F781E090E0DF91CF911F910F91ED
:10247000FF90EF9008950F931F93CF93DF938C01FC
:10248000C0E0D0E0F801EC0FFD1F6491662371F00D
:10249000E0919F02F091A0020190F081E02D8FE980
:1024A00092E00995892B11F02196ECCFCE01DF91B6
:1024B000CF911F910F910895CF93DF930E943B120C
:1024C000EC0169EC71E08FE992E00E94D7098C0F72
:1024D0009D1FDF91CF910895CF93DF93EB01209162
:1024E000E00330E03595279591E090937C022093AE
:1024F000E70310927D0210929E02682F8FEC93E00A
:102500000E94140781E00E9464108091E003909182
:102510007B029111FCCF91E090937B0290937A0221
:102520002FEF209379021092780210927702909305
:102530005602909156028E7F892B8093560280918D
:102540005502813061F410925502809156028093B9
:10255000BB008091BC0083FDF8CF85EC01C085EE07
:102560008093BC0080917B028130E1F380917802FE
:10257000811103C08091780201C081E0A7E5B2E03B
:1025800025E332E0F9019E2F921B981718F49D91D4
:102590009193F9CF1092340280933302882329F06B
:1025A0008FEC93E00E94C806888361E070E080E0D1
:1025B00090E00E947E1681E0DF91CF910895CF9246
:1025C000DF92EF92FF920F931F93CF93DF93EC0173
:1025D0006B01770FEE08FF08F7FE16C0E881F9815E
:1025E0000190F081E02D6DE209958C01442755277B
:1025F000BA014C195D096E097F092AE0CE010E94DB
:10260000EE25080F191F06C02AE0B701A6010E9497
:10261000EE258C0169EC71E0CE010E94D709800F94
:10262000911FDF91CF911F910F91FF90EF90DF905D
:10263000CF900895CF93DF93FC0144815581608151
:1026400071818FE992E00E94E823EC0169EC71E06E
:102650008FE992E00E94D7098C0F9D1FDF91CF91E7
:1026600008950F931F93CF93DF93EC010E94B81648
:10267000688779878A879B87CE010E94772397FF97
:1026800017C00E94B816088519852A853B85DC018C
:10269000CB01801B910BA20BB30B0C811D812E81F2
:1026A0003F8180179107A207B30730F38FEF9FEFA9
:1026B000DF91CF911F910F9108958F929F92AF92CA
:1026C000BF92CF92DF92EF92FF926B017C010E944A
:1026D000B8164B015C01C60ED71EE81EF91E0E94FB
:1026E000B816681579058A059B0528F0C616D70621
:1026F000E806F906A0F7FF90EF90DF90CF90BF902B
:10270000AF909F908F9008950C945D13462F50E0EA
:1027100060E070E02AE00C94EE250F931F93811186
:1027200023C00E94B81600913E0310913F032091F0
:10273000400330914103DC01CB01801B910BA20BC4
:10274000B30B82339105A105B10570F442E350E06B
:1027500060E070E08A019B01081B190B2A0B3B0B00
:10276000C901B8010E945D130E94B81660933E0330
:1027700070933F03809340039093410381E01F9146
:102780000F910895CF9390915203992309F45FC05C
:10279000C82F80917E0390917F03DC01ED91FC9125
:1027A0000084F185E02D0995811115C085E650C0A2
:1027B00080917E0390917F03DC01ED91FC91028476
:1027C000F385E02D0995883609F441C090F08137F2
:1027D000F1F18637E9F180917E0390917F03DC016E
:1027E000ED91FC910084F185E02D09958111E0CFF8
:1027F000DDCF883551F1833671F70E94B8166093AA
:102800003E0370933F0380934003909341036CEB2E
:1028100071E080917E0390917F030E944C266C2F83
:1028200080917E0390917F030E94861363EC71E098
:1028300080917E0390917F030E944C2662E370E0BA
:1028400080E090E00E94841302C01092520383E65D
:10285000CF910895CF93DF93C0917E03D0917F03F2
:102860006CEC71E0CE010E94D70969EC71E0CE01F9
:10287000DF91CF910C94D709BF92CF92DF92EF9264
:10288000FF920F931F93CF93DF93B82E0E94B81639
:102890006B017C010CE313E0CEE7D3E063ED71E064
:1028A000888199810E944C266B2D888199810E9494
:1028B00086136AED71E0888199810E944C262AE096
:1028C000B701A601888199810E94EE256CED71E027
:1028D000888199810E944C26F80186819781A08584
:1028E000B185B701A601481B590B6A0B7B0B2AE087
:1028F000888199810E94EE256CED71E08881998133
:102900000E944C26F8014681578160857185828539
:102910009385A485B585481B590B6A0B7B0B2AE070
:1029200088819981DF91CF911F910F91FF90EF9056
:10293000DF90CF90BF900C94EE25FC01538D448D19
:10294000252F30E0842F90E0821B930B541710F05A
:10295000CF96089501970895FC01918D828D981767
:1029600061F0828DDF01A80FB11D5D968C91928D73
:102970009F5F9F73928F90E008958FEF9FEF089570
:10298000FC01918D828D981731F0828DE80FF11D39
:10299000858D90E008958FEF9FEF0895FC01918D54
:1029A000228D892F90E0805C9F4F821B91098F734D
:1029B000992708958FE992E00E94CE1421E0892B97
:1029C00009F420E0822F0895FC01848DDF01A80F17
:1029D000B11DA35ABF4F2C91848D90E001968F7347
:1029E0009927848FA689B7892C93A089B1898C9166
:1029F00080648C93938D848D981306C00288F3892C
:102A0000E02D80818F7D80830895EF92FF920F9358
:102A10001F93CF93DF93EC0181E0888F9B8D8C8D8A
:102A2000981305C0E889F989808185FD24C0F62EB8
:102A30000B8D10E00F5F1F4F0F731127E02E8C8D51
:102A4000E8120CC00FB607FCFACFE889F98980813B
:102A500085FFF5CFCE010E94E414F1CF8B8DFE01EE
:102A6000E80FF11DE35AFF4FF0820B8FEA89FB89D3
:102A70008081806207C0EE89FF896083E889F989D7
:102A800080818064808381E090E0DF91CF911F910D
:102A90000F91FF90EF900895CF93DF93EC01888D15
:102AA0008823C9F0EA89FB89808185FD05C0A88952
:102AB000B9898C9186FD0FC00FB607FCF5CF8081D8
:102AC00085FFF2CFA889B9898C9185FFEDCFCE0122
:102AD0000E94E414E7CFDF91CF91089580E090E069
:102AE000892B29F00E94DA1481110C9400000895BA
:102AF0003FB7F8948091F2039091F303A091F4030F
:102B0000B091F50326B5A89B05C02F3F19F001969B
:102B1000A11DB11D3FBFBA2FA92F982F8827820F63
:102B2000911DA11DB11DBC01CD0142E0660F771FB3
:102B3000881F991F4A95D1F708950E94282F8091E8
:102B4000E8038823A9F140910201509103016091AB
:102B50000401709105012BEF33E08091FB0590910A
:102B6000FC050E945D21811102C080E00895409122
:102B7000E9035091EA036091EB037091EC03411576
:102B800051056105710591F02BEF33E08091FB0554
:102B90009091FC050E945D21882339F31092E9038E
:102BA0001092EA031092EB031092EC031092E803E8
:102BB00081E008951F920F920FB60F9211242F9368
:102BC0003F934F935F936F937F938F939F93AF93B5
:102BD000BF93EF93FF938FE992E00E94E414FF917B
:102BE000EF91BF91AF919F918F917F916F915F9185
:102BF0004F913F912F910F900FBE0F901F901895FE
:102C00001F920F920FB60F9211242F938F939F93C1
:102C1000EF93FF93E091AF02F091B0028081E091D9
:102C2000B502F091B60282FD12C090818091B80287
:102C30008F5F8F732091B902821751F0E091B80233
:102C4000F0E0E156FD4F958F8093B80201C080817E
:102C5000FF91EF919F918F912F910F900FBE0F9049
:102C60001F90189590E0FC01E056F34F3491FC0161
:102C7000E25AF34F2491FC01E458F34FE491EE2320
:102C800009F43BC0332339F1333091F038F431305B
:102C9000A9F0323001F584B58F7D12C0373091F044
:102CA0003830A1F03430B9F4809180008F7D03C0BA
:102CB000809180008F77809380000DC084B58F77DE
:102CC00084BD09C08091B0008F7703C08091B000AF
:102CD0008F7D8093B000F0E0EE0FFF1FEE58F34FB2
:102CE000A591B4918FB7F894EC91611103C0209530
:102CF0002E2301C02E2B2C938FBF08958F929F926D
:102D0000AF92BF92CF92DF92EF92FF926B017C0164
:102D10000E9478154B015C01C114D104E104F10457
:102D2000F1F00E947815DC01CB0188199909AA09F4
:102D3000BB09883E9340A105B10570F321E0C21A9A
:102D4000D108E108F10888EE880E83E0981EA11CE6
:102D5000B11CC114D104E104F10419F7DDCFFF90D7
:102D6000EF90DF90CF90BF90AF909F908F9008959D
:102D70002FB7F8946091EE037091EF038091F00308
:102D80009091F1032FBF08951F920F920FB60F92EB
:102D900011242F933F938F939F93AF93BF93809171
:102DA000EE039091EF03A091F003B091F103309105
:102DB000ED0323E0230F2D3720F40196A11DB11D53
:102DC00005C026E8230F0296A11DB11D2093ED0337
:102DD0008093EE039093EF03A093F003B093F1037D
:102DE0008091F2039091F303A091F403B091F50365
:102DF0000196A11DB11D8093F2039093F303A0935C
:102E0000F403B093F503BF91AF919F918F913F91E0
:102E10002F910F900FBE0F901F901895CF93DF93B7
:102E2000EC01862FE881F98120819A819095922387
:102E300090830E94D00980E00E94D009E881F98146
:102E400020819A81922B9083DF91CF9108950F93E7
:102E50001F93CF93DF931F92CDB7DEB78C01862FE0
:102E6000D801ED91FC911197208112969C9190953B
:102E70009223908349830E94D0094981842F0E9424
:102E8000D009D801ED91FC911197908112968C9107
:102E9000892B808381E00F90DF91CF911F910F915B
:102EA0000895DC01ED91FC911197908112968C911F
:102EB0008095892380830895DC01ED91FC91119721
:102EC000908112968C91892B808308950F931F9384
:102ED000CF93DF93EC0162E470E00E940E17082F9D
:102EE00063E470E0CE010E940E17182F64E470E0D6
:102EF000CE010E940E17402F50E060E070E0512B91
:102F00008F778A019B01282BC901B801DF91CF91EE
:102F10001F910F91089541E050E064E870E00C9437
:102F200027178F929F92AF92BF92EF92FF920F93CB
:102F30001F93CF934B015C01C42F809102019091AC
:102F40000301A0910401B091050188159905AA0516
:102F5000BB0501F10E949F15811102C080E020C0D5
:102F60008BEFE82E83E0F82E00E012E020E030E066
:102F7000B501A4018091FB059091FC050E94C92038
:102F8000882361F38092020190920301A0920401D0
:102F9000B09205018091E803C82BC093E80381E05B
:102FA000CF911F910F91FF90EF90BF90AF909F90A6
:102FB0008F9008954F925F926F927F928F929F921F
:102FC000AF92BF92CF92DF92EF92FF920F931F9337
:102FD000CF93DF93EC016A017B0128013901423074
:102FE00051056105710510F480E073C089859A85EB
:102FF000AB85BC850196A11DB11D84179507A60759
:10300000B70790F38B889C88AD88BE888F89803104
:1030100029F4BB27AF2D9E2D8D2D09C0DB01CA01E0
:1030200047E0B695A795979587954A95D1F7880E6D
:10303000991EAA1EBB1E8091020190910301A091CE
:103040000401B091050188169906AA06BB0679F419
:103050008F898031A1F4DD24EE24FF24C601880F7E
:10306000991FFC01E550FC4F5182408219C040E09D
:10307000C501B4010E9491178111EACFB5CFE89440
:10308000C7F8DD24EE24FF24C601880F991F880F9E
:10309000991FFC01E550FC4F40825182628273828D
:1030A0008091E80381608093E8038A89823080F010
:1030B0008D819E81AF81B885880E991EAA1EBB1E88
:1030C0008092E9039092EA03A092EB03B092EC03A2
:1030D00081E0DF91CF911F910F91FF90EF90DF90F2
:1030E000CF90BF90AF909F908F907F906F905F90A8
:1030F0004F9008958F929F92AF92BF92CF92DF929E
:10310000EF92FF920F931F93CF93DF93FC01818582
:103110009285A385B4850196A11DB11D84179507DD
:10312000A607B70710F480E05CC083899489A5895D
:10313000B689C789C03129F4852E962EA72EBB24C7
:1031400009C04A015B01C7E0B694A794979487949D
:10315000CA95D1F7E9016A017B018F01BC01CD015C
:10316000680D791D8A1D9B1D8090020190900301BE
:10317000A0900401B0900501681579058A059B05AA
:1031800099F4F80187898031A9F4B701A601552780
:1031900066277727440F551FFA01E550FC4F8081C1
:1031A0009181A0E0B0E018C040E00E949117811129
:1031B000E8CFB9CFB701A6014F7755276627772704
:1031C000440F551F440F551FFA01E550FC4F8081F5
:1031D0009181A281B381BF7088839983AA83BB83C5
:1031E00081E0DF91CF911F910F91FF90EF90DF90E1
:1031F000CF90BF90AF909F908F9008954F925F9225
:103200006F927F92AF92BF92CF92DF92EF92FF9236
:103210000F931F93CF93DF9300D000D0CDB7DEB7CD
:103220008C0149835A836B837C835901C12CD12C37
:103230007601412C82E0582E612C712C49815A81F3
:103240006B817C819E012F5F3F4FC8010E947A18DD
:10325000882351F1D301C201F801058404C0880F0D
:10326000991FAA1FBB1F0A94D2F7C80ED91EEA1EC7
:10327000FB1E49815A816B817C818789803129F0CD
:1032800088EF9FEFAFEFBFE004C088EF9FEFA0E0B3
:10329000B0E0481759076A077B0780F2F501C08242
:1032A000D182E282F38281E00F900F900F900F9015
:1032B000DF91CF911F910F91FF90EF90DF90CF9012
:1032C000BF90AF907F906F905F904F9008954F9216
:1032D0005F926F927F92AF92BF92CF92DF92EF9206
:1032E000FF920F931F93CF93DF93CDB7DEB72B974A
:1032F0000FB6F894DEBF0FBECDBF7C01CE010196A4
:103300006C01FC0190E28BE08C0D91938E13FDCF4C
:10331000DA0130E047E09D91992339F19E3219F0AE
:10332000E0E9FCE00AC04A3009F472C138E04AE042
:10333000F2CF3196891709F46BC184918111F9CFCD
:10334000431708F465C18FED890F8E3508F060C111
:1033500081E0830FF601E30FF11D3FE9390F3A31A8
:1033600008F490529083382FD6CF8981803209F4A7
:103370004FC1B22E8B01DB015B968D919C915C97C6
:10338000F701948F838F16961D921D921D921C92A9
:103390001997FB011286138614861586712CF80185
:1033A00082859385A485B585438954896589768905
:1033B00084179507A607B70708F061C025E0B69502
:1033C000A795979587952A95D1F7F82FFF706F2EBF
:1033D000D80115968C91823008F41AC1C8010E9458
:1033E0006D2297FD15C1F80182859385A485B58569
:1033F0004F96A11DB11D82879387A487B587F0E200
:103400006F9EC0011124BC0165507C4F6115710590
:1034100009F4FEC0DB012C91222319F0253EC1F4F2
:1034200027C071100EC0F701628A409102015091CD
:103430000301609104017091050146875787608BF5
:10344000718BFC01E550FC4F8081811113C015C0C8
:103450004BE050E0C6010E942D2F892B09F09FCF31
:103460008B2D8073803309F4D3C04B2D662DCCC0D7
:103470007720C9F27724739492CF772473948B2D9D
:103480008271823109F0C4C07720D1F0D7011E9635
:103490006D917D918D919C91519741E00E94911782
:1034A000882309F4B5C0F7016289F0E26F9FB0018B
:1034B000112465507C4F6115710509F079C0A8C0D1
:1034C000D80115968C91823009F4A2C0C8010E94DF
:1034D000021F882309F49CC0D8015B96ED91FC91F2
:1034E0005C9716964D905D906D907C901997B2E028
:1034F0004B1A510861087108058404C0440C551C1E
:10350000661C771C0A94D2F786859785A089B189B5
:10351000480E591E6A1E7B1EA480E1E04E1A510817
:1035200061087108AA2009F10E949F15882309F4F7
:103530006FC0EBEFF3E0119225E0EB3FF207D9F714
:10354000D301C2018A0D911DA11DB11D80930201FD
:1035500090930301A0930401B09305018091E803C7
:1035600081608093E803AA94DDCFD8015B96ED914A
:10357000FC915C9780E092E0A0E0B0E0058404C09C
:10358000880F991FAA1FBB1F0A94D2F7F80143891D
:10359000548965897689840F951FA61FB71F838B71
:1035A000948BA58BB68BD70152961C926BEF73E070
:1035B00080E2FB0111928A95E9F78BE0F601DB01CD
:1035C00001900D928A95E1F781E298E2DB01519634
:1035D0009C938E93509720E038E01F963C932E9357
:1035E0001E9753969C938E93529759969C938E93C5
:1035F000589757963C932E9356970E949F15882371
:1036000039F04B2DF7016289C7010E94EE1D01C000
:1036100080E02B960FB6F894DEBF0FBECDBFDF91D2
:10362000CF911F910F91FF90EF90DF90CF90BF90BF
:10363000AF907F906F905F904F900895CF93DF93FE
:10364000EC018D818823A1F18C8187FF2DC06E85CF
:103650007F858889998941E00E949117882341F1EB
:10366000EA8980E2E89FF0011124DF01A550BC4FF8
:103670001097F1F08D81823050F44B895C896D890F
:103680007E895C964D935D936D937C935F978F8954
:10369000988DA98DBA8DE550FC4F938F828FB58B95
:1036A000A48B8C818F778C83DF91CF910C949F15A5
:1036B00080E0DF91CF9108958F929F92AF92BF9259
:1036C000CF92DF92EF92FF920F931F93CF93DF93EE
:1036D000EC018D81811102C080E077C00B891C89CB
:1036E0002D893E890417150726073707A8F36A01B5
:1036F0007B01823029F4CA86DB86EC86FD860DC00C
:10370000C114D104E104F10451F41E821F82188611
:1037100019861A861B861C861D8681E056C08A84FF
:103720009B84AC84BD84EB8DFC8D258530E0275FC8
:103730003F4FB501A4014150510961097109022EA1
:1037400004C076956795579547950A94D2F7D701A7
:10375000C6010197A109B10904C0B695A79597952F
:1037600087952A95D2F784179507A607B70720F003
:1037700089288A288B2849F44F89588D698D7A8D3C
:103780004E835F836887798704C0841B950BA60BE3
:10379000B70B4C015D018E010A5F1F4F811491042C
:1037A000A104B10409F4A7CF4E815F8168857985B2
:1037B00098018B8D9C8D0E947A1891E0891A91084E
:1037C000A108B1088111EACF87CFDF91CF911F9176
:1037D0000F91FF90EF90DF90CF90BF90AF909F90B0
:1037E0008F9008952F923F924F925F926F927F92A7
:1037F0008F929F92AF92BF92CF92DF92EF92FF9201
:103800000F931F93CF93DF9300D000D0CDB7DEB7D7
:103810008C015B011A01DC0115968C9115978130A2
:10382000C9F414968C9181FF15C082FF1BC0F8016A
:10383000438954896589768982859385A485B58570
:1038400084179507A607B70769F0C8010E945C1B9B
:10385000811108C081E090E0F8019383828380E0C9
:1038600090E039C1610183C0D8015B968D919C9134
:103870005C97FC01248121502A013B0139E07694B8
:103880006794579447943A95D1F7722E74207A0131
:10389000F1E0FF22772009F476C080E092E08E19F3
:1038A0009F0946018C159D0508F44C01D8015B96D3
:1038B0002D913C915C9716968D919D910D90BC91A8
:1038C000A02D0297A109B109F901058404C0880F50
:1038D000991FAA1FBB1F0A94D2F746855785608996
:1038E0007189840F951FA61FB71F9C01AD01270D7D
:1038F000311D411D511D29013A01811432E0930609
:1039000009F088C08091020190910301A091040107
:10391000B091050184159505A605B70559F48FEFFB
:103920009FEFDC018093020190930301A0930401B7
:10393000B09305019501B301A2018091FB0590911F
:10394000FC050E945D21882309F484CF9EEFB91AFB
:10395000C818D908F80182859385A485B585880D96
:10396000991DA11DB11D82879387A487B587D801B2
:103970001A964D915D916D917C911D97C114D10462
:1039800009F072CF87C0E114F10409F086CF1696D2
:103990004D915D916D917C9119974115510561058E
:1039A000710559F457968D919D910D90BC91A02D64
:1039B0000097A105B10541F521C09E012F5F3F4F42
:1039C0000E947A18882309F44BCF89819A81AB81B0
:1039D000BC81F801238D348DF9012789203129F02C
:1039E00048EF5FEF6FEF7FE004C048EF5FEF60E00C
:1039F00070E084179507A607B70730F0C8010E944A
:103A0000021F81114ACF26CFF80186839783A087B2
:103A1000B18743CFE114F10429F5D8011A964D91ED
:103A20005D916D917C911D9753968D919D910D9017
:103A3000BC91A02D481759076A077B0798F00E9490
:103A40009F15882309F406CF40920201509203018A
:103A500060920401709205018091E8038160809377
:103A6000E80308C041E0C301B2010E949117882316
:103A700009F4F0CED501F701E550FC4FCF01880DD8
:103A8000991DE817F90719F02D912193FACFA80C89
:103A9000B91C5ECF53968D919D910D90BC91A02D38
:103AA00084179507A607B70740F4F801438B548B9A
:103AB000658B768B848180688483D80114968C9181
:103AC00083FD02C0C10107C0C8010E941E1B8823DC
:103AD00009F4C0CEF7CF0F900F900F900F90DF91A9
:103AE000CF911F910F91FF90EF90DF90CF90BF90FB
:103AF000AF909F908F907F906F905F904F903F908E
:103B00002F900895CF93DF931F92CDB7DEB76983CF
:103B100041E050E0BE016F5F7F4F0E94F21B0F90AB
:103B2000DF91CF910895DC015996ED91FC915A9760
:103B30003097B9F083899489A589B68942855385E0
:103B400064857585841B950BA60BB70B811520E842
:103B50009207A105B10538F08FEF9FE7A0E0B0E034
:103B6000089580E090E00895CF93DF931F92CDB742
:103B7000DEB76983DC01ED91FC910280F381E02DD9
:103B800041E050E0BE016F5F7F4F09950F90DF91DC
:103B9000CF910895FC01818D928D009711F00C94C6
:103BA0001E1B0895CF93DF93EC01898D9A8D0097AA
:103BB00039F481E090E09B838A8380E090E00BC041
:103BC000FC01138212820E94F21BE98DFA8D228180
:103BD0003381232B71F7DF91CF9108958F929F92BC
:103BE000AF92BF92CF92DF92EF92FF920F931F930B
:103BF000CF93DF9300D000D0CDB7DEB77C0180E259
:103C0000689F60011124960125503C4FD9011B96F5
:103C10009C91917121F0842F827409F097C0142F28
:103C2000F701628B8091020190910301A091040140
:103C3000B091050186879787A08BB18BF601E5507F
:103C4000FC4F4489558960E070E0BA01552744274C
:103C5000D70157964D935D936D937C935A97828DC0
:103C6000938DA0E0B0E0482B592B6A2B7B2BD7011A
:103C700057964D935D936D937C935A97D9011B96FC
:103C80008C91887159F4848D958DA68DB78DF7012F
:103C9000838B948BA58BB68B81E012C0803109F0A9
:103CA00055C097012D5E3F4FD7015B968D919C913A
:103CB0005C970E94FE18882309F448C084E0F7014D
:103CC0008583812F8F70D70114968C931497F701F9
:103CD00016821782108611861A961D921D921D92C9
:103CE0001C921D9716FF34C015968C91813071F58A
:103CF00011FF2CC0F7014389548965897689452BCA
:103D0000462B472B09F461C040E050E0BA01C701DF
:103D10000E945C1B8823D1F0F7018788908CA18CCE
:103D2000B28CC38CD48C82E090E0A0E0B0E0F601CD
:103D300080839183A283B3839E012F5F3F4FB501A0
:103D4000A401C6010E947A18811104C080E03DC020
:103D500081E03BC000E010E09801B501A401C6017C
:103D60000E94DA17882391F389809A80AB80BC8007
:103D7000D60157968C91803129F088EF9FEFAFEFF5
:103D8000BFE004C088EF9FEFA0E0B0E0881699067E
:103D9000AA06BB0688F2D70157961D921D921D9266
:103DA0001C925A97F701138A148A158A168A8481FD
:103DB00080688483C7010E941E1B882339F240E07B
:103DC00050E0BA01C7010E945C1B0F900F900F904A
:103DD0000F90DF91CF911F910F91FF90EF90DF90A7
:103DE000CF90BF90AF909F908F900895CF93DF9327
:103DF000EC010E941E1B882311F01D8281E0DF91DF
:103E0000CF9108953F924F925F926F927F928F92DF
:103E10009F92AF92BF92CF92DF92EF92FF920F9359
:103E20001F93CF93DF93CDB7DEB72C970FB6F894DF
:103E3000DEBF0FBECDBF5C01DC015B968D909C9018
:103E40005C971696CD90DD90ED90FC901997C1147B
:103E5000D104E104F10439F0BFEFCB1ADB0AEB0A1D
:103E6000FB0A312C07C0F401C080D180E280F380CE
:103E700033243394F40181859285A385B4859C0114
:103E8000AD012F5F3F4F4F4F5F4F29873A874B87D9
:103E90005C87260137011D821E821F821886F4016D
:103EA00081859285A385B4852D813E814F8158857A
:103EB000281739074A075B0708F063C089859A8588
:103EC000AB85BC858C159D05AE05BF0550F482E021
:103ED000C82ED12CE12CF12C92E0492E512C612CD2
:103EE000712C9E012F5F3F4FB701A601C4010E94B4
:103EF0007A18882309F445C089819A81AB81BC81F5
:103F0000892B8A2B8B2B41F0260137019FEF491A11
:103F1000590A690A790A05C0C414D504E604F704ED
:103F200091F02D813E814F8158852F5F3F4F4F4F3C
:103F30005F4F2D833E834F8358873FEFC31AD30AC9
:103F4000E30AF30AACCF0FEF1FEF2FEF3FE0B3010F
:103F5000A201C4010E94DA17882399F0D5011696B0
:103F60004D915D916D917C911997411551056105B8
:103F7000710549F093018201C4010E94DA17811191
:103F800002C080E02AC0D50116964D925D926D92D6
:103F90007C921997332051F0D301C2010196A11DE3
:103FA000B11DF40180839183A283B383F5018789D6
:103FB000908DA18DB28D892B8A2B8B2B69F4D50125
:103FC00057964D925D926D927C925A9714968C9171
:103FD0001497806814968C9381E02C960FB6F89411
:103FE000DEBF0FBECDBFDF91CF911F910F91FF902C
:103FF000EF90DF90CF90BF90AF909F908F907F9089
:104000006F905F904F903F9008958FB7F894809194
:10401000FA038FBF089561E0FC0184810E9432168B
:104020008091F90381111092F90308958FEF0C9498
:10403000D0090F931F93CF93DF93EB010E94B81623
:104040008B010E9416208F3F49F00E94B816601B1A
:10405000710B6C177D07A8F380E001C081E0DF9150
:10406000CF911F910F910895CF93DF93EC018E8133
:10407000882389F08F8198859C012F5F3F4F388777
:104080002F838230924018F40E941620F3CFCE0185
:104090000E940B201E82DF91CF9108958CBD9DBDA3
:1040A0000895CF93DF93EC018091F903811109C04A
:1040B00081E08093F90380918403909185030E94AD
:1040C0004E2060E08C81DF91CF910C943216CF921C
:1040D000DF92FF920F931F93CF93DF9300D000D016
:1040E000CDB7DEB76C01F62E29833A834B835C8310
:1040F0000E943420C6010E9451206CE271E0C6018A
:104100000E9419208F2D80640E94D00908E110E0E0
:104110005C814B813A812981DA01C901002E04C0FA
:10412000B695A795979587950A94D2F729833A83F0
:104130004B835C830E94D0090850110929813A8180
:104140004B815C81083F8FEF180731F7FF2029F082
:10415000E8E0FE1204C087E803C085E901C08FEFE4
:104160000E94D00910E00E941620F601828787FF86
:1041700004C01F3F11F01F5FF6CF0F900F900F90FC
:104180000F90DF91CF911F910F91FF90DF90CF9013
:104190000895AF92BF92CF92DF92EF92FF920F936A
:1041A0001F93CF93DF93EC016901C801820F931F26
:1041B0008130924008F070C08E81882371F0888130
:1041C0009981AA81BB81481759076A077B0729F49F
:1041D0008F819885C816D906B0F5488359836A83BC
:1041E0007B838B85833039F089E0440F551F661F30
:1041F000771F8A95D1F79A01AB0161E1CE010E9448
:104200006720882319F083E08D8346C00E94B8168A
:104210005B010E9416208A878F3F49F40E94B816DE
:104220006A197B096D327140A0F38FE003C08E3FA5
:1042300031F08DE08D83CE010E940B202DC01886B9
:104240001F8281E08E838F8198858C159D0540F4B7
:104250000E9416208F819885019698878F83F3CFCF
:104260006701E00EF11ECE14DF0431F00E9416202B
:10427000F60181936F01F7CF8F819885080F191F81
:1042800018870F838985882319F00115124048F09B
:10429000CE010E94342005C0CE010E940B2080E098
:1042A00001C081E0DF91CF911F910F91FF90EF90BE
:1042B000DF90CF90BF90AF900895EF92FF920F9351
:1042C0001F93CF93DF93EC017901411551056105EF
:1042D000710511F482E13CC08B85833039F089E0AF
:1042E000440F551F661F771F8A95D1F79A01AB01BE
:1042F00068E1CE010E946720882311F084E028C085
:104300008EEF0E94D00987018EEFF81AF801819193
:104310008F010E94D0090E151F05C1F78FEF0E9473
:10432000D0098FEF0E94D0090E9416208A878F71D2
:10433000853031F081E18D83CE010E940B2009C0D0
:1043400068E572E0CE010E941920811107C085E165
:104350008D83CE010E940B2080E013C020E030E06E
:10436000A9016DE0CE010E946720811104C00E9466
:104370001620882311F084E1EBCFCE010E940B20A0
:1043800081E0DF91CF911F910F91FF90EF90089501
:10439000FC01DB0112968D919C911397938382838C
:1043A00088E391E09183808314968C9114978483A1
:1043B00015968C911597858316964D915D916D910B
:1043C0007C91199746835783608771871A964D9120
:1043D0005D916D917C911D974287538764877587A6
:1043E0001E964D915D916D917C91519746875787AF
:1043F000608B718B52968C915297828B53964D9114
:104400005D916D917C915697438B548B658B768B28
:1044100057964D915D916D917C915A97478B508F36
:10442000618F728F5B968D919C915C97948F838F37
:104430000895CF93DF93EC01898D9A8D009741F019
:104440000E94F61E898D9A8D0E94DC2C1A8E198E80
:10445000DF91CF910895FC01818D928D009729F015
:104460000E945C1B91E0811101C090E0892F0895AA
:10447000EF92FF920F931F93CF93DF93EC017B0199
:104480008A011B821A8288EE93E0A0E0B0E08C8360
:104490009D83AE83BF8384E191E0998388838DE11E
:1044A00090E00E94472C9A8F898F009779F02DE138
:1044B000F701DC0101900D922A95E1F74CE050E004
:1044C000B801CE010C960E94552F188EDF91CF9126
:1044D0001F910F91FF90EF9008952F923F924F926E
:1044E0005F926F927F928F929F92AF92BF92CF9284
:1044F000DF92EF92FF920F931F93CF93DF9300D041
:10450000CDB7DEB7FC018581882309F4D9C0848149
:1045100080FFD6C021E02A83438954896589768942
:1045200082859385A485B585481759076A077B0757
:1045300009F41A826F013A81832F90E0DE0111960F
:104540004D013F01B6E06B0E711C892B09F47DC053
:10455000D6011A964D915D916D917C911D975A01EE
:10456000B1E0BB22F60125811A012B0189E05694A6
:104570004794379427948A95D1F7838D948D223070
:1045800061F4FC01828D938DA48DB58DBC01CD01AC
:10459000620D731D841D951D45C0DC0114961C9190
:1045A00011501221A114B104D1F4111118C0452BDE
:1045B000462B472B51F4F6018789908DA18DB28D42
:1045C00086839783A087B1870AC04681578160851B
:1045D000718593010E947A18882309F471C0F6014D
:1045E000238D348D86819781A085B1850297A1099D
:1045F000B109AC01BD01F901058404C0440F551F88
:10460000661F771F0A94D2F786859785A089B1899E
:10461000840F951FA61FB71FBC01CD01610F711D2F
:10462000811D911DD60114962C9126FF14C0009176
:1046300002011091030120910401309105016017DE
:1046400071078207930751F506C0FA81FF23C1F174
:10465000898190E037C040E00E949117882381F162
:10466000F501E550FC4FD401CF010196E817F90799
:1046700019F021912D93FACFEFEF8E1A9E0AF601D1
:1046800082859385A485B5850196A11DB11D82877C
:104690009387A487B58780E090E057CF740101E04D
:1046A00010E09501AB01BC018091FB059091FC05E8
:1046B0000E94C920882321F0BFEF8B1A9B0ADFCF0D
:1046C0008FEF9FEF0F900F90DF91CF911F910F9180
:1046D000FF90EF90DF90CF90BF90AF909F908F9022
:1046E0007F906F905F904F903F902F900895FC01C6
:1046F000818D928D009711F00C946D228FEF9FEFBA
:1047000008950F931F93CF93DF93FC01818D928DBA
:104710000097B9F0EF010E946D228C010F3F8FEFDF
:10472000180791F0898D9A8DFC0142855385648527
:10473000758541505109610971090E945C1BC801CE
:1047400005C080E090E002C08FEF9FEFDF91CF9136
:104750001F910F9108951F920F920FB60F9211247F
:104760000F900FBE0F901F901895CF93CFB7F8946E
:104770008091F603811124C0E6E8FCE08491E8E62C
:10478000FCE09491E82FF0E0EE0FFF1FEC5AF34F9E
:10479000A591B491EC91E92321F461E08AE00E94B3
:1047A00032168AE00E94C1108CB580618CBD8CB538
:1047B00080648CBD8DE00E94C1108BE00E94C1100E
:1047C0008091F6038F5F8093F603CFBFCF9108955A
:1047D000CF92DF92EF92FF920F931F93CF93DF93CD
:1047E0006C017A018B01C0E0D0E0CE15DF0589F0C5
:1047F000D8016D918D01D601ED91FC910190F08170
:10480000E02DC6010995892B11F47E0102C0219685
:10481000ECCFC701DF91CF911F910F91FF90EF90E7
:10482000DF90CF900895CF93DF93CCE3D3E084EF74
:1048300091E0A0E0B0E08E879F87A88BB98B1A8AA1
:104840001B8A1C8A1D8A8E819F81A885B9858A87CB
:104850009B87AC87BD870E94B8166E837F8388874D
:104860009987DF91CF9108958F929F92AF92BF92D7
:10487000CF92DF92EF92FF92CF93DF93C82F86E81B
:1048800093E09093FC058093FB05CC2369F1C53040
:1048900010F080E00DC140E060E070E0CB010E94CC
:1048A00091178823B1F320E1C29FC00111248551E3
:1048B0009C4FFC01E254FE4F20812F7751F73C962C
:1048C00040815181628173814436510561057105D2
:1048D00000F33497C080D180E280F380C114D1040A
:1048E000E104F10421F4D5CFC12CD12C760140E0B4
:1048F000C701B6010E949117882359F280910604DE
:10490000909107048115924021F6A0910B04AA23EF
:1049100009F4BFCF6091090470910A046115710513
:1049200009F4B7CF20910804222309F4B2CFA09351
:10493000A4032093960380E030E0E1E0F0E0C82F8C
:10494000AF01082E02C0440F551F0A94E2F7241746
:10495000350741F0982F8F5F983089F789E0809371
:104960009F0397CF80939F032091110430911204ED
:104970002115310519F040E050E008C020911F04D6
:1049800030912004409121045091220420939703F8
:10499000309398034093990350939A03460157012B
:1049A000860E971EA11CB11C8092A5039092A603AF
:1049B000A092A703B092A803E0910C04F0910D041B
:1049C000F093AB03E093AA03B0E00E94072E860E9B
:1049D000971EA81EB91E8092AC039092AD03A092C0
:1049E000AE03B092AF0385E0EE0FFF1F8A95E1F7AB
:1049F000E150FE4FEF2FFF27E6958E0E9F1EA11C64
:104A0000B11C8092A0039092A103A092A203B09245
:104A1000A30320910E0430910F042115310521F0DC
:104A2000A90160E070E008C040911B0450911C0493
:104A300060911D0470911E04D701C601881999095F
:104A4000AA09BB09840F951FA61FB71F04C0B695FE
:104A5000A79597958795CA95D2F780939B039093D6
:104A60009C03A0939D03B0939E03853F2FE0920784
:104A7000A105B10510F48CE018C0853F9F4FA1053A
:104A8000B10510F480E111C08091270490912804B1
:104A9000A0912904B0912A048093AC039093AD03B4
:104AA000A093AE03B093AF0380E28093A90381E0AB
:104AB000DF91CF91FF90EF90DF90CF90BF90AF90BC
:104AC0009F908F9008950F931F93CF93DF93EC01E6
:104AD00088819981009729F02A813B812617370721
:104AE00088F48B016F5F7F4F0E945E2E009761F00C
:104AF000998388831B830A832C813D81232B11F4A6
:104B0000FC01108281E001C080E0DF91CF911F9114
:104B10000F910895CF93DF93EC01888199810097DD
:104B200011F00E94DC2C198218821D821C821B82CB
:104B30001A82DF91CF910895EF92FF920F931F9306
:104B4000CF93DF93EC017B018A01BA010E946325B8
:104B5000811104C0CE010E948A2507C01D830C83E9
:104B6000B701888199810E944E2FCE01DF91CF91AC
:104B70001F910F91FF90EF900895CF93DF93EC0179
:104B8000FB018617970761F06081718161157105DE
:104B900029F0448155810E949C2502C00E948A25EB
:104BA000CE01DF91CF910895FC01808191810C9419
:104BB000DC2CFC0111821082138212821582148275
:104BC0006115710551F0FB0101900020E9F7319763
:104BD000AF01461B570B0C949C2508954F925F9292
:104BE0006F927F92EF92FF920F931F93CF93DF9379
:104BF000CDB7DEB7A1970FB6F894DEBF0FBECDBF1D
:104C00007C01FA01CB0119A2223008F42AE08E01BE
:104C10000F5D1F4F422E512C612C712CBF01A3013F
:104C200092010E94E52DF901CA01015011096A3073
:104C300014F4605D01C0695CD8016C93232B242BB4
:104C4000252B61F7B801C7010E94D709A1960FB6BD
:104C5000F894DEBF0FBECDBFDF91CF911F910F91B2
:104C6000FF90EF907F906F905F904F900895CF935B
:104C7000DF93AB01BC012AE08FE992E00E94EE25B0
:104C8000EC0169EC71E08FE992E00E94D7098C0F8A
:104C90009D1FDF91CF9108950C94D70981EE93E089
:104CA0000C94D425CF93DF93CDB7DEB7A3970FB67F
:104CB000F894DEBF0FBECDBF789484B5826084BD0A
:104CC00084B5816084BD85B5826085BD85B5816010
:104CD00085BD80916E00816080936E00109281008E
:104CE0008091810082608093810080918100816049
:104CF000809381008091800081608093800080910A
:104D0000B10084608093B1008091B0008160809395
:104D1000B00080917A00846080937A0080917A005C
:104D2000826080937A0080917A00816080937A001B
:104D300080917A00806880937A001092C10010926E
:104D400080031092810310928203109283031092C9
:104D50003E0310923F03109240031092410368EB10
:104D60007BE080E090E00E9484138FE992E09093D2
:104D70007F0380937E03E091AF02F091B00262E086
:104D8000F62EF082E091AB02F091AC021082E0913D
:104D9000AD02F091AE0280E180831092B702E09103
:104DA000B302F091B40206E00083E091B102F09109
:104DB000B202808180618083E091B102F091B20201
:104DC000808188608083E091B102F091B20280819D
:104DD00080688083E091B102F091B20280818F7D82
:104DE00080830E94B81660933E0370933F038093C4
:104DF00040039093410366E871E080917E039091B7
:104E00007F030E944C266AE070E080E090E00E9400
:104E1000841311E010935203109234021092330263
:104E200010927D0210929E0210927B0210937A02E1
:104E30001092550261E082E10E94321661E083E146
:104E40000E9432168091B9008E7F8093B9008091C4
:104E5000B9008D7F8093B90088E48093B80085E421
:104E60008093BC00E091AF02F091B002F082E0913B
:104E7000AB02F091AC021082E091AD02F091AE0273
:104E800010831092B702E091B302F091B402008354
:104E9000E091B102F091B202808180618083E09163
:104EA000B102F091B202808188608083E091B1020A
:104EB000F091B202808180688083E091B102F0912C
:104EC000B20280818F7D808382EC9BE00E945C1225
:104ED0008BEA9BE00E945C120E94132465E070E064
:104EE00080E090E00E9484136AE070E080E090E04F
:104EF0000E94841385E68093530380915303833685
:104F000009F43FC0853699F580914E0390914F0387
:104F1000A0915003B09151030196A11DB11D809342
:104F20004E0390934F03A0935003B09351034091CD
:104F30004A0350914B0360914C0370914D03452BF4
:104F4000462B472B21F4892B8A2B8B2B81F480E075
:104F50000E948D13882329F081E00E943C140E9456
:104F60002A1464EF71E080E090E00E945D136AE033
:104F700070E080E090E00E94841381E00E94C21300
:104F8000BACF0E94B8166093420370934303809394
:104F900044039093450387E00E94C11086E99BE09B
:104FA0000E943B121092910310928F0310928C0377
:104FB00010928B0384E080938A030E94B8168B01C1
:104FC00080918A030E94C11061E080918A030E944F
:104FD00032160E94B52382E58093840310928503E4
:104FE00080918403909185030E944E205AE0F52E13
:104FF0008FEF0E94D009FA94F110FACF86E893E07F
:105000000E94512020E030E0A90160E086E893E0B2
:105010000E946720F82E8093900381E0F81649F0F3
:105020000E94B816601B710B613D774058F381E018
:1050300056C02AEA31E040E050E068E086E893E0BC
:105040000E94672082FF03C0F092910310C044E0E9
:10505000F42E0E94162080939003FA94F110F9CF59
:105060008A3A11F082E03BC082E080939103809104
:105070009103823021F0C12CD12C760105C0C12CC6
:10508000D12CE12C30E4F32E20E030E0A90167E3DD
:1050900086E893E00E946720A701960169E286E80E
:1050A00093E00E94672080939003882349F00E9438
:1050B000B816601B710B613D774030F388E00FC07C
:1050C00080919103823001F520E030E0A9016AE38C
:1050D00086E893E00E946720882341F086E0809371
:1050E0008B0386E893E00E940B20A2C00E9416204A
:1050F000807C803C19F483E0809391030E94162009
:105100000E9416200E94162086E893E00E940B2041
:1051100080E5809384031092850381E00E9434240B
:10512000882329F08091B503882341F081C080E075
:105130000E943424882309F47BC0F4CF8091A90312
:10514000803109F582E08093B5031092C703109275
:10515000C8031092C9031092CA038091AA039091C8
:10516000AB03A0E0B0E025E0880F991FAA1FBB1F8A
:105170002A95D1F78093C3039093C403A093C503EA
:10518000B093C6031EC0803209F052C083E0809302
:10519000B5034091AC035091AD036091AE037091A3
:1051A000AF034093C7035093C8036093C903709340
:1051B000CA0323EC33E082E993E00E94FE188823BF
:1051C000B9F182E993E09093CC038093CB0381E023
:1051D0008093B4031092B6031092B7031092B803F1
:1051E0001092B9031092BA031092BB031092BC0341
:1051F0001092BD031092BE031092BF031092C00321
:105200001092C1031092C20382E69BE00E945C12DE
:105210000E94132465E070E080E090E00E94841317
:105220006AE070E080E090E00E94841385E610C0A0
:105230008DE79BE00E945C1248C1853681F06AE0F0
:1052400070E080E090E00E94841383E00E94C2132B
:105250008093530380915303833679F734C0809150
:105260004E0390914F03A0915003B09151030196CA
:10527000A11DB11D80934E0390934F03A093500343
:10528000B093510340914A0350914B0360914C03FA
:1052900070914D03452B462B472B21F4892B8A2BEC
:1052A0008B2B69F680E00E948D13882329F083E020
:1052B0000E943C140E942A1464EF71E080E090E0A8
:1052C0000E945D13BCCF0E94B81660934203709396
:1052D000430380934403909345036091E1037091ED
:1052E000E20341E0CE0101960E94E010EA8DFB8DC1
:1052F000309709F45DC08581882309F459C0CE0137
:1053000001960E94931D892B09F44DC06BEC71E04E
:10531000CE014C960E94D925CE0101960E943113F0
:1053200097FD1EC08A309105D9F08AA31BA208A15F
:1053300019A10F5F1F4FB801CE014C960E94632543
:10534000882351F32C8D3D8D88A199A1BE016E5DFE
:105350007F4F820F931F0E944E2F19A308A3DCCF0B
:1053600084E59BE00E945C12CE014C960E941A13C9
:1053700080E59BE00E945C128C8D9D8D009719F05A
:105380000E94742D03C060E070E0CB0170930101B6
:10539000609300018FE992E00E94DF12CE014C96EB
:1053A0000E94D425ACCFCE0101960E94192204C0E0
:1053B00081E39BE00E945C120E94B52345E550E02A
:1053C00060E870E08BED93E00E94271760E070E0EA
:1053D0008BED93E00E940E17853559F084E19BE038
:1053E0000E945C1268EE73E080E090E00E947E16FE
:1053F000E5CF8AEF9AE00E945C1261E070E08FEFE7
:1054000090E00E94E911BE016E5D7F4F8AE00E942C
:105410006C12BE01645E7F4F8BE00E946C128AA109
:10542000863259F088ED9AE00E945C1268EE73E0D3
:1054300080E090E00E947E16E0CF8FEB9AE00E9421
:105440005C1281E08093DE038091DF038530A9F553
:1054500061E070E08FEF90E00E94E91160E870E099
:1054600082E190E00E94E91164E670E080E090E063
:105470000E947E168091DE038130D9F48BE194E0A6
:105480000E94131283EF93E00E9413128FEC93E0BB
:105490000E94131261E070E08FEF90E00E94E9112A
:1054A00060E070E085E190E00E94E9118FE19AE010
:1054B00002C087E197E00E9413128FE19AE00E94F8
:1054C00013128BED93E00E948B178FE992E00E94FC
:1054D000CE14892BC1F08FE992E00E94AC14182FF2
:1054E00068E971E08FE992E00E94D70969EC71E008
:1054F0008FE992E00E94D709612F8FE992E00E9424
:1055000005150E94EC0980913102909132028130A0
:10551000910509F064C0809130028130B1F441E01E
:1055200050E064E870E08BED93E00E9427178BED6C
:1055300093E00E948B1742E050E064E870E08BED4E
:1055400093E00E9427171092300261E470E08BED27
:1055500093E00E940E1783FF3DC08AE39CE00E9407
:105560005C1260E0CE014C960E94C70888A199A108
:10557000892B41F1EC8DFD8D8081882319F11A82F0
:1055800019821C821B821E821D82BE01645E7F4FB7
:10559000CE0101960E94BD2500E09E012F5F3F4F86
:1055A0004091DB035091DC036091DD037091DE03D9
:1055B0008091DF039091E0030E94ED0DCE010196F2
:1055C0000E94D4258BED93E00E948B17CE014C9660
:1055D0000E94D4251092320210923102C6C0029766
:1055E00009F0C3C061E0CE014C960E94C7088BE26F
:1055F0009CE00E945C120E94B8166B017C010E9424
:10560000372660ED77E080E090E00E9437260E9428
:10561000B8160E9437260E94B816DC01CB018C19FF
:105620009D09AE09BF09803D9740A105B10508F06D
:1056300094C00E94132480E00E948D138823E1F01F
:1056400086E00E943C1464E871E080917E039091B2
:105650007F030E944C260E94B816AB01BC014C1976
:105660005D096E097F092AE080917E0390917F0396
:105670000E94EE250E942A1465E070E080E090E030
:105680000E9484130E94B8166093420370934303F0
:1056900080934403909345038BE19CE00E945C124D
:1056A000809130028230D1F484E09CE00E945C1250
:1056B00041E050E064E870E08BED93E00E94271732
:1056C0008BED93E00E948B1742E050E064E870E0BD
:1056D0008BED93E00E9427171092300261E470E096
:1056E0008BED93E00E940E1783FF95CF83EF9BE035
:1056F0000E945C1288A199A1892B09F48CCFEC8DB2
:10570000FD8D8081882309F486CF89ED9BE00E947E
:105710005C121A8219821C821B821E821D82BE01AB
:10572000645E7F4FCE0101960E94BD2501E09E017F
:105730002F5F3F4F4091DB035091DC036091DD030D
:105740007091DE038091DF039091E0030E94ED0DE4
:10575000CE0101960E94D4255ECF109232021092A3
:105760003102CE014C960E94D4250E946E15ADCE1A
:10577000CF93DF93EFE9F2E01382128288EE93E099
:10578000A0E0B0E084839583A683B78326E231E06E
:105790003183208325EC30E03587248724EC30E00A
:1057A0003787268720EC30E0318B208B21EC30E0EE
:1057B000338B228B22EC30E0358B248B26EC30E0CF
:1057C000378B268B118E128E138E148EECE3F3E042
:1057D0001682178210861186128613861486158605
:1057E00016861786108A118A128A138A148A158AD5
:1057F000E4E8F3E020E520831182E6E8F3E0158297
:1058000016821186138642E050E060E070E0448723
:1058100055876687778713A215A614A628E331E07B
:1058200033A722A717A6EFECF3E01382128284833A
:105830009583A683B78384E491E0918380836EEAA5
:1058400071E081EE93E00E94D925E3E8FCE0E49169
:10585000F0E0EE0FFF1FEE58F34F85919491CBEDE2
:10586000D3E099838883E5E6FCE0E491EA8387E06E
:105870000E94C110E881F98190818A81892B8083FF
:1058800085E08C8380E68D83DF91CF910895CF935F
:10589000DF938230910510F482E090E0E091FF0503
:1058A000F091000620E030E0C0E0D0E0309711F148
:1058B0004081518148175907C0F04817590761F4D2
:1058C00082819381209719F09B838A832BC09093C8
:1058D00000068093FF0526C02115310519F04217F7
:1058E000530718F49A01BE01DF01EF010280F38132
:1058F000E02DDCCF2115310509F1281B390B2430AF
:10590000310590F412968D919C9113976115710554
:1059100021F0FB019383828304C09093000680935F
:10592000FF05FD01329644C0FD01E20FF31F819394
:105930009193225031092D933C933AC02091FD055B
:105940003091FE05232B41F420910801309109018B
:105950003093FE052093FD0520910601309107014B
:105960002115310541F42DB73EB740910A01509100
:105970000B01241B350BE091FD05F091FE05E217AC
:10598000F307A0F42E1B3F0B2817390778F0AC0162
:105990004E5F5F4F2417350748F04E0F5F1F50933F
:1059A000FE054093FD058193919302C0E0E0F0E095
:1059B000CF01DF91CF9108950F931F93CF93DF9382
:1059C000009709F48CC0FC01329713821282009177
:1059D000FF05109100060115110581F42081318128
:1059E000820F931F2091FD053091FE05281739077E
:1059F00079F5F093FE05E093FD0571C0D80140E014
:105A000050E0AE17BF0750F412962D913C911397BA
:105A1000AD012115310509F1D901F3CF9D01DA015D
:105A20003383228360817181860F971F82179307CA
:105A300069F4EC0128813981260F371F2E5F3F4F13
:105A4000318320838A819B8193838283452B29F430
:105A5000F0930006E093FF0542C01396FC93EE938B
:105A60001297ED01499159919E01240F351FE217BC
:105A7000F30771F480819181840F951F029611962E
:105A80009C938E938281938113969C938E9312970D
:105A9000E0E0F0E0D80112968D919C911397009769
:105AA00019F0F8018C01F6CF8D919C9198012E5F31
:105AB0003F4F820F931F2091FD053091FE0528175F
:105AC000390769F4309729F4109200061092FF0507
:105AD00002C0138212821093FE050093FD05DF9130
